:100000000C943F020C9467020C9467020C946702F4
:100010000C9467020C9467020C9467020C946702BC
:100020000C9467020C9467020C9467020C946702AC
:100030000C9467020C9467020C9467020C9467029C
:100040000C9414050C9467020C94980B0C94720B8E
:100050000C9467020C9467020C9467020C9467027C
:100060000C9467020C9467026572726F72004F4BBA
:1000700000313300746869727465656E004F4B001F
:100080003132007477656C7665004F4B003131007A
:10009000656C6576656E004F4B0031300074656E9F
:1000A000004F4B006E696E65004F4B0065696768D5
:1000B00074004F4B00736576656E004F4B0073699B
:1000C00078004F4B0066697665004F4B00666172A1
:1000D00000666F7200666F7572004F4B0066726546
:1000E00065007468726565004F4B00746F0074772B
:1000F0006F004F4B006F6E6500000000002300266C
:1001000000290000000008000201000003040700AD
:10011000000000000000004869676820636F6E649B
:100120006974696F6E206F6E207468652070696EE7
:100130003A2000466F6375732068617320626565BD
:100140006E206465616374697661746564005374DC
:10015000617475732E0053746174652C00466F636F
:100160007573206E616D65204F46462C00466F63A7
:100170007573206E616D652C00466F637573204F3B
:1001800046462C00466F6375732C004C4544204F47
:1001900046462C004C4544204F4E2C00506F77654E
:1001A00072204F46462C00506F776572204F4E2CC0
:1001B00000486572652069732061206C6973742042
:1001C0006F6620617661696C61626C6520636F6D3A
:1001D0006D616E64733A00546F2073656520612011
:1001E0006C697374206F6620617661696C61626C02
:1001F0006520636F6D6D616E64732C207377697415
:100200006368207468652031536865656C6420619B
:1002100070706C69636174696F6E2077696E646F6A
:100220007720746F205465787420546F2053706564
:100230006563682061667465722072756E6E696EA2
:1002400067207468652068656C7020636F6D6D61F0
:100250006E64004920646F6E277420756E64657249
:100260007374616E642E20547279207468652068FE
:10027000656C7020636F6D6D616E642E00546865EF
:1002800020666F637573206E616D652068617320F1
:100290006265656E20646561637469766174656426
:1002A00000546865206E657720666F637573206EF5
:1002B000616D6520686173206265656E20616464AC
:1002C000656400506C656173652074656C6C206DAD
:1002D000652061206E657720666F637573206E619F
:1002E0006D6500466F637573206861732062656594
:1002F0006E2061637469766174656400506C656139
:1003000073652074656C6C206D652061206469677D
:100310006974616C2070696E206E756D6265722003
:10032000746F20666F63757300554E4F2100446FE4
:100330006E650054656C6C206D6520746865206482
:1003400069676974616C2070696E206E756D626595
:100350007200446F6E650054656C6C206D6520748E
:100360006865206469676974616C2070696E206ECD
:10037000756D6265720031536865656C64206973E0
:10038000207265647920746F20757365210054684C
:10039000652073746174652069732063757272657A
:1003A0006E746C79204F4E2E005468652073746112
:1003B00074652069732063757272656E746C792040
:1003C0004F46462E00506C656173652074656C6CF9
:1003D000206D6520746865206469676974616C20AC
:1003E00070696E206E756D62657200546865204C90
:1003F0004544206973207374696C6C204F46462E07
:1004000000546865204C4544206973206E6F772046
:100410004F46462E00546865204C454420697320A1
:100420007374696C6C204F4E2E00546865204C45E7
:1004300044206973206E6F77204F4E2E000000001D
:1004400000250028002B0000000000240027002ABF
:10045000000404040404040404020202020202036D
:100460000303030303010204081020408001020477
:10047000081020010204081020003014EB1411248D
:100480001FBECFEFD8E0DEBFCDBF11E0A0E0B1E0EE
:10049000EEEAF1E302C005900D92A03DB107D9F755
:1004A00023E0A0EDB1E001C01D92A63AB207E1F74A
:1004B00012E0CEE3D2E004C02197FE010E94A7160D
:1004C000CD33D107C9F70E946B0F0C94CA180C9456
:1004D0000000FC01538D448D252F30E0842F90E0E7
:1004E000821B930B541710F0CF960895019708952F
:1004F000FC01918D828D981761F0828DDF01A80F2C
:10050000B11D5D968C91928D9F5F9F73928F90E04D
:1005100008958FEF9FEF0895FC01918D828D9817BC
:1005200031F0828DE80FF11D858D90E008958FEFF9
:100530009FEF0895FC01918D228D892F90E0805CC2
:100540009F4F821B91098F7399270895833081F003
:1005500028F4813099F08230A1F008958730A9F015
:100560008830B9F08430D1F4809180008F7D03C051
:10057000809180008F7780938000089584B58F7775
:1005800002C084B58F7D84BD08958091B0008F77BF
:1005900003C08091B0008F7D8093B00008953FB775
:1005A000F8948091D9019091DA01A091DB01B0918A
:1005B000DC0126B5A89B05C02F3F19F00196A11DAF
:1005C000B11D3FBFBA2FA92F982F8827820F911DE9
:1005D000A11DB11DBC01CD0142E0660F771F881F30
:1005E000991F4A95D1F7089580914A02882329F0EE
:1005F00080914B0290914C0208958EEE92E0089506
:1006000080914F02882321F09091ED0281E08927AB
:10061000089570E0DC015296ED91FC915397E60F3E
:10062000F71F2081222359F0660F771F5096ED9116
:10063000FC915197E60FF71F80819181089580E02A
:1006400090E008956F927F928F929F92AF92BF92A7
:10065000CF92DF92EF92FF920F931F93CF93DF938E
:10066000EC010E94F402DC011B962C911B972130B7
:1006700009F04AC05296ED91FC915397608000E0DA
:1006800010E0712C4E01BFE48B0E911C7E01E9E459
:10069000EE0EF11C6E01FDE4CF0ED11C5E0189E06F
:1006A000A80EB11C061517057CF5CE010E94F402B8
:1006B00060E00E940903800F911FDC018C91F4011E
:1006C0002081318120343105E1F0D701ED91FC9199
:1006D00011979F012F5F3F4F11963C932E9380837C
:1006E000F401808191810196918380832D913C91C9
:1006F000D6018D919C912817390719F4F701B18221
:10070000A0820F5F1F4FCECFDF91CF911F910F912E
:10071000FF90EF90DF90CF90BF90AF909F908F9021
:100720007F906F9008950E9494180F931F93CF931A
:10073000DF93EC011F8288818823E1F000E010E064
:10074000288530E088899989021713077CF498017D
:10075000220F331FFC01E20FF31F8081918100976C
:1007600011F00E9445170F5F1F4FEACF18860E94B5
:10077000451718828981882329F08A899B890E94DC
:1007800045171982DF91CF911F910F910895CF9353
:10079000DF93EC010E9400038823A1F010924F0226
:1007A00081E08E831F9284E08F931F921F92DF93CC
:1007B000CF930E94CA0B1E820F900F900F900F9044
:1007C0000F900F90DF91CF910895CF93DF93EC01BD
:1007D0000E940003811114C081E080934F028E8338
:1007E0001F9283E08F931F921F92DF93CF930E94FB
:1007F000CA0B1E820F900F900F900F900F900F90CA
:10080000DF91CF910895CF93DF93EC010E94F40222
:100810003B81FC012185321322C083858F3FB1F4D7
:100820008A818823E1F08EEE92E00E94000381111C
:1008300016C08EEE92E00E94E503EC81FD810995E1
:100840008EEE92E0DF91CF910C94C703E881F9819D
:100850000280F381E02DCE01DF91CF910994DF91E9
:10086000CF910895FC01848DDF01A80FB11DA35A1B
:10087000BF4F2C91848D90E001968F739927848FC0
:10088000A689B7892C93A089B1898C9183708064E3
:100890008C93938D848D981306C00288F389E02D84
:1008A00080818F7D80830895CF93DF93EC01888DC5
:1008B0008823C9F0EA89FB89808185FD05C0A88964
:1008C000B9898C9186FD0FC00FB607FCF5CF8081EA
:1008D00085FFF2CFA889B9898C9185FFEDCFCE0134
:1008E0000E943204E7CFDF91CF910895CF93DF9339
:1008F000282F30E0F901ED5FFE4F8491F901EB59AB
:10090000FB4FD491F901EF5AFB4FC491CC2391F0E6
:1009100081110E94A602EC2FF0E0EE0FFF1FE750BE
:10092000FF4FA591B491EC91ED2381E090E021F48B
:1009300080E002C080E090E0DF91CF9108951F93A6
:10094000CF93DF93282F30E0F901ED5FFE4F8491C4
:10095000F901EB59FB4FD491F901EF5AFB4FC491C8
:10096000CC23C1F0162F81110E94A602EC2FF0E0DB
:10097000EE0FFF1FE35CFB4FA591B4919FB7F89476
:10098000111104C08C91D095D82302C0EC91DE2BBC
:10099000DC939FBFDF91CF911F9108958F929F921B
:1009A000AF92BF92CF92DF92EF92FF926B017C01E8
:1009B0000E94CF024B015C01C114D104E104F10497
:1009C000F1F00E94CF02DC01CB0188199909AA0934
:1009D000BB09883E9340A105B10570F321E0C21A1E
:1009E000D108E108F10888EE880E83E0981EA11C6A
:1009F000B11CC114D104E104F10419F7DDCFFF905B
:100A0000EF90DF90CF90BF90AF909F908F90089520
:100A10002FB7F8946091D5017091D6018091D701DC
:100A20009091D8012FBF08951F920F920FB60F9289
:100A300011242F933F938F939F93AF93BF938091F4
:100A4000D5019091D601A091D701B091D8013091F4
:100A5000D40123E0230F2D3720F40196A11DB11DF1
:100A600005C026E8230F0296A11DB11D2093D401D5
:100A70008093D5019093D601A093D701B093D8016C
:100A80008091D9019091DA01A091DB01B091DC0154
:100A90000196A11DB11D8093D9019093DA01A09315
:100AA000DB01B093DC01BF91AF919F918F913F919A
:100AB0002F910F900FBE0F901F9018958F929F92BD
:100AC000AF92BF92CF92DF92EF92FF920F931F935C
:100AD000CF93DF931F92CDB7DEB77C018B010E94CD
:100AE00008058090D0019090D101A090D201B090E3
:100AF000D301DC01CB0188199909AA09BB09813D01
:100B00009740A105B10548F089288A288B2829F04B
:100B1000D70117968C9181110FC20E94080560932E
:100B2000D0017093D1018093D2019093D301F7014A
:100B30009781911114C00F3F110589F4C7010E94DC
:100B4000950381E0D70117968C93179751961C92C5
:100B50001E92509753961C921E9252971FC0F701F7
:100B60008485843041F4992309F4EAC116861586F8
:100B7000078785E0C5C0853059F5992309F4E0C1A0
:100B8000D7012785C22ED12C8FEF90E08C199D09BB
:100B900008171907B9F5211104C089E01C968C9338
:100BA000CFC1C601880F991F0E94AD16F701918B26
:100BB000808B11E01083C6010E94AD16D7015396B9
:100BC0009C938E93529711961C93119786E0E6CFD3
:100BD0008630D9F0873009F053C0992309F4B0C1A9
:100BE000F701258530E00288F389E02DE20FF31F3D
:100BF0006081862F90E04FEF50E0481B590B04179F
:100C0000150779F0F701178254C1992309F498C1A7
:100C1000D70185850288F389E02DE80FF11D008357
:100C200068C0220F331FD70150960D911C91519728
:100C3000662369F0020F131F0E94AD16F80191831D
:100C40008083D7011C968C911C978F5F12C0F8018E
:100C5000E20FF31F11821082F701168685858F5FE0
:100C600085879785891303C089E0848704C086E05F
:100C7000D7011C968C93F70180858F5F808760C1B8
:100C8000883009F03FC0992309F45AC1D7018585FE
:100C900020899189E22FF92FE80FF11DE80FF11D4E
:100CA00080819181009759F01E962C911E9731E01A
:100CB000320F1E963C93FC01E20FF11D0083F701F9
:100CC00085850288F389E02DE80FF11DD7011E9676
:100CD0002C911E979081291333C11E961C921E974A
:100CE0008F5F1D968C931D971F969C911F9789135C
:100CF00005C01C968C911C978F5F50CF86E0F70142
:100D000084871EC1893009F0D8C0992309F418C11D
:100D1000048B0111CEC017828091F70281118CC023
:100D20008385823051F412828381882309F49EC026
:100D30000588F689E02D80E00CC0813061F4F70170
:100D400082838381882309F491C00588F689E02D88
:100D500081E009958BC0833081F41F9281E08F93ED
:100D60001F921F92FF92EF920E94CA0B0F900F905A
:100D70000F900F900F900F9079C0853009F076C0DA
:100D800060E0C7010E9409034BE050E0BC018AE922
:100D900091E00E949918892B09F068C01982D70147
:100DA0005296ED91FC915397A180B12C00E010E098
:100DB000C12CD12C0A151B056CF461E0C7010E94FF
:100DC0000903800F911FFC018081C80ED11C0F5FA9
:100DD0001F4FF0CFC98284E090E00E94AD168C01D5
:100DE000DC0113961C92139781E08C93CE0101963F
:100DF00012969C938E93119784E090E00E94AD161A
:100E0000FC01138287E1808386EA91E092838183EB
:100E10001F930F93FF93EF9382E08F9385E08F935F
:100E20001F921F92FF92EF920E94CA0B0FB6F89486
:100E3000DEBF0FBECDBF1AC02BEEC22E21E0D22ED8
:100E400000E010E08091490290E00817190774F45F
:100E5000D6018D919D916D01DC01ED91FC91019088
:100E6000F081E02D09950F5F1F4FECCFF7018481D2
:100E70008823F9F081858823E1F0C7010E94E5030A
:100E8000D70150960D911C91519752962D913C91FE
:100E900053975796ED91FC9158971F964C911F9739
:100EA0001B966C911B9719968C910995C7010E940E
:100EB000C703C7010E94950343C0992309F440C0AA
:100EC000813001F5602FF7010187002391F19481B2
:100ED00091112FC04091490250E0EBEEF1E020E08B
:100EE00030E02417350754F4A191B19113967C9109
:100EF000671301C091E02F5F3F4FF3CF992309F4AF
:100F000081CE17C0823089F402872FEF30E0201B9A
:100F1000310994E0359527959A95E1F70F7010E027
:100F20002017310731F0178204C0833011F4F70124
:100F300003878F5FD70132CEC7010E949503EDCDA5
:100F40000F90DF91CF911F910F91FF90EF90DF9065
:100F5000CF90BF90AF909F908F900895CF93DF93E5
:100F60008091DD01811132C080914D0290914E023D
:100F7000DC01ED91FC910084F185E02D0995892B30
:100F800029F180914D0290914E02DC01ED91FC918E
:100F90000284F385E02D0995EC01BC0177278EEEE4
:100FA00092E00E945E058091F3028823E9F28EEEC2
:100FB00092E00E94E503E0910703F09108038C2F73
:100FC00009958EEE92E00E94C703CECFDF91CF91BC
:100FD00008950E941B0B81110C94AE070895CF93C6
:100FE000DF93EC018091DE01882359F080914D025E
:100FF00090914E02DC01ED91FC910190F081E02D89
:1010000009958E81811108C062E070E080E090E077
:10101000DF91CF910C94CE04DF91CF910895CF92C0
:10102000DF92EF92FF920F931F93CF93DF93CDB791
:10103000DEB72C970FB6F894DEBF0FBECDBF8C0184
:101040000E94F4027C01DC011B968C91813009F036
:1010500089C0F80186819781009711F00E94451799
:10106000C8010E94F402DC015296ED91FC91539765
:10107000808190E0F8019187808701960E94AD16EB
:10108000D80117969C938E931697E12CF12CF801BA
:101090008085918526813781E816F9069CF46901DF
:1010A000CE0CDF1CC8010E94F40260E00E9409031C
:1010B0008E0D9F1DDC018C91F6018083FFEFEF1AEE
:1010C000FF0AE5CFF901E80FF91F108281E0D8018E
:1010D0001E968C938EEE92E00E940003811168C0F0
:1010E000F8018285882391F08EEE92E00E94E5035C
:1010F000D8015096ED91FC91519716968D919C9147
:10110000179709958EEE92E00E94C703F801858536
:10111000882309F44DC066817781CE0101960E9433
:10112000560F8EEE92E00E94E503D80152960D9183
:101130001C915397BE016F5F7F4FCE0107960E94AF
:101140003C0FCE010796F8010995CE0107960E9443
:10115000D50E8EEE92E00E94C703CE0101960E944A
:10116000D50E26C0823021F58EEE92E00E9400035B
:1011700081111EC060E0C7010E940903FC0180814B
:10118000D8011F968C931F971B968C91882381F012
:101190008EEE92E00E94E503D8015496ED91FC9109
:1011A00055971F968C9109958EEE92E00E94C70389
:1011B0002C960FB6F894DEBF0FBECDBFDF91CF9156
:1011C0001F910F91FF90EF90DF90CF9008951F93A4
:1011D000CF93DF93CDB7DEB762970FB6F894DEBF3B
:1011E0000FBECDBF65EF70E0CE0101960E94040FE7
:1011F000CE0101960E94B50D182FCE0101960E94D6
:10120000D50E112349F081E090E09093E2018093A4
:10121000E10162EF70E0DAC16EEE70E0CE01079698
:101220000E94040FCE0107960E94B50D811113C0D4
:101230006BEE70E0CE0101960E94040FCE01019684
:101240000E94B50D11E0811101C010E0CE010196A0
:101250000E94D50E01C011E0CE0107960E94D50E66
:10126000112349F082E090E09093E2018093E10144
:1012700068EE70E0ABC162EE70E0CE0107960E94AE
:10128000040FCE0107960E94B50D811113C06DEDBC
:1012900070E0CE0101960E94040FCE0101960E94DB
:1012A000B50D11E0811101C010E0CE0101960E9440
:1012B000D50E01C011E0CE0107960E94D50E112374
:1012C00049F083E090E09093E2018093E1016AEDC0
:1012D00070E07CC165ED70E0CE010D960E94040FB8
:1012E000CE010D960E94B50D811192C161ED70E0A5
:1012F000CE0107960E94040FCE0107960E94B50DFD
:10130000811113C06DEC70E0CE0101960E94040FB4
:10131000CE0101960E94B50D11E0811101C010E0CF
:10132000CE0101960E94D50E01C011E0CE010796B4
:101330000E94D50ECE010D960E94D50E112349F0C4
:1013400084E090E09093E2018093E1016AEC70E028
:101350003DC165EC70E0CE0101960E94040FCE0104
:1013600001960E94B50D182FCE0101960E94D50E50
:10137000112349F085E090E09093E2018093E10130
:1013800062EC70E023C16EEB70E0CE0101960E942A
:10139000040FCE0101960E94B50D182FCE010196C3
:1013A0000E94D50E112349F086E090E09093E2016F
:1013B0008093E1016BEB70E009C165EB70E0CE0159
:1013C00001960E94040FCE0101960E94B50D182FC0
:1013D000CE0101960E94D50E112349F087E090E0DE
:1013E0009093E2018093E10162EB70E0EFC06CEA60
:1013F00070E0CE0101960E94040FCE0101960E947A
:10140000B50D182FCE0101960E94D50E112349F07B
:1014100088E090E09093E2018093E10169EA70E056
:10142000D5C064EA70E0CE0101960E94040FCE019F
:1014300001960E94B50D182FCE0101960E94D50E7F
:10144000112349F089E090E09093E2018093E1015B
:1014500061EA70E0BBC06DE970E0CE0107960E94C2
:10146000040FCE0107960E94B50D811113C06AE9E1
:1014700070E0CE0101960E94040FCE0101960E94F9
:10148000B50D11E0811101C010E0CE0101960E945E
:10149000D50E01C011E0CE0107960E94D50E112392
:1014A00049F08AE090E09093E2018093E10167E9DE
:1014B00070E08CC060E970E0CE0107960E94040FD6
:1014C000CE0107960E94B50D811113C06DE870E042
:1014D000CE0101960E94040FCE0101960E94B50D27
:1014E00011E0811101C010E0CE0101960E94D50EDD
:1014F00001C011E0CE0107960E94D50E112349F0DC
:101500008BE090E09093E2018093E1016AE870E063
:101510005DC063E870E0CE0107960E94040FCE0123
:1015200007960E94B50D811113C060E870E0CE01EE
:1015300001960E94040FCE0101960E94B50D11E0A4
:10154000811101C010E0CE0101960E94D50E01C0AC
:1015500011E0CE0107960E94D50E112349F08CE0D0
:1015600090E09093E2018093E1016DE770E02EC07E
:1015700064E770E0CE0107960E94040FCE01079643
:101580000E94B50D811113C061E770E0CE01019694
:101590000E94040FCE0101960E94B50D11E0811149
:1015A00001C010E0CE0101960E94D50E01C011E0ED
:1015B000CE0107960E94D50E1123A9F08DE090E090
:1015C0009093E2018093E1016EE670E0CE01019616
:1015D0000E94040FCE0101960E946F0DCE0101966C
:1015E0000E94D50E1AC068E670E0CE0101960E94F6
:1015F000040FCE0101960E946F0DCE0101960E944C
:10160000D50E81E090E09093E0018093DF0105C06A
:10161000CE010D960E94D50E93CE62960FB6F89429
:10162000DEBF0FBECDBFDF91CF911F91089508950A
:1016300080E090E0089580E592E00E949A0221E027
:10164000892B09F420E0822F0895EF92FF920F93E7
:101650001F93CF93DF93EC0181E0888F9B8D8C8D5E
:10166000981305C0E889F989808185FD26C0F62E8A
:101670000B8D10E00F5F1F4F0F731127E02E8C8D25
:10168000E8120CC00FB607FCFACFE889F98980810F
:1016900085FFF5CFCE010E943204F1CF8B8DFE0184
:1016A000E80FF11DE35AFF4FF0829FB7F8940B8FBC
:1016B000EA89FB89808180620AC09FB7F894EE892D
:1016C000FF896083E889F9898081837080648083E1
:1016D0009FBF81E090E0DF91CF911F910F91FF902C
:1016E000EF9008951F920F920FB60F9211242F932F
:1016F0003F934F935F936F937F938F939F93AF939A
:10170000BF93EF93FF9380E592E00E943204FF9134
:10171000EF91BF91AF919F918F917F916F915F9169
:101720004F913F912F910F900FBE0F901F901895E2
:101730001F920F920FB60F9211242F938F939F93A6
:10174000EF93FF93E0916002F09161028081E0915C
:101750006602F091670282FD12C090818091690259
:101760008F5F8F7320916A02821751F0E0916902B6
:10177000F0E0E05BFD4F958F8093690201C08081AE
:10178000FF91EF919F918F912F910F900FBE0F902E
:101790001F9018955F926F927F928F929F92AF9257
:1017A000BF92CF92DF92EF92FF920F931F93CF934E
:1017B000DF93CDB7DEB76B970FB6F894DEBF0FBEE1
:1017C000CDBF0DA51EA55FA4CAA80E94080555207F
:1017D00009F488C020918303222309F483C08090F8
:1017E000840390908503A0908603B09087038114B2
:1017F0009104A104B10409F475C0DC01CB0188197E
:101800009909AA09BB090196A11DB11D883C910542
:10181000A105B10508F066C080914F0228EC820E48
:10182000911CA11CB11C882309F44EC01A861B868A
:101830001C861D861E861F86188A1D8A1986198297
:101840001A821092ED0218861B821C821D821E8253
:101850001F82CE0101967C0190934C0280934B0233
:1018600081E080934A020E940805681579058A057F
:101870009B0508F4BFC088858111BCC02DC0F8014C
:101880008781882379F180914D0290914E02DC018D
:10189000ED91FC910084F185E02D0995892BA1F053
:1018A00080914D0290914E02DC01ED91FC910284F9
:1018B000F385E02D09958F3FBFEF9B0729F0BC0111
:1018C0008EEE92E00E945E050E940805681579057B
:1018D0008A059B05C0F2D3CF10924C0210924B02A6
:1018E00010924A0281E0809383037E01E3E3EE0ECF
:1018F000F11C6FEFC8010E94EF0762E1C8010E946E
:10190000EF07652DC8010E94EF070E94711520E1C5
:1019100030E040E050E00E940D16962F9095F0E1E7
:101920009F9FC00111246F70682BC8010E94EF07B0
:1019300069A9C8010E94EF076C2DC8010E94EF073A
:101940006C2D6095C8010E94EF07812C912CD12C41
:101950008C149D04CCF5370122E0620E711CD70176
:10196000ED90FC90F7016081C8010E94EF07D7015C
:101970006C916095C8010E94EF07A12CB12CF70172
:10198000808190E0A816B9066CF40180F281E02D08
:10199000EA0DFB1D6081C8010E94EF07FFEFAF1A3F
:1019A000BF0AEDCFE114F10451F08381882321F0C7
:1019B000818192810E944517C7010E944517BFEFA0
:1019C0008B1A9B0A7301C4CF60E0C8010E94EF0725
:1019D000552099F10E940805DC01CB010196A11D5B
:1019E000B11D8093840390938503A0938603B093E5
:1019F000870323C080914D0290914E02DC01ED914E
:101A0000FC910084F185E02D0995892B09F42BCFF9
:101A100080914D0290914E02DC01ED91FC91028487
:101A2000F385E02D09958F3FBFEF9B0709F41BCF8E
:101A3000BC01C7010E945E0516CF6B960FB6F894E5
:101A4000DEBF0FBECDBFDF91CF911F910F91FF90F1
:101A5000EF90DF90CF90BF90AF909F908F907F904E
:101A60006F905F9008950F931F93CF93DF93FC01C6
:101A700001900020E9F73197EF01C81BD90B51F114
:101A80008C0184E090E00E94AD16FC0113829E015F
:101A9000CF3FD10519F014F02FEF30E020831283EF
:101AA0000183FF93EF9381E08F9380912B038F93BA
:101AB0001F9280912D038F938EEE92E09F938F93D0
:101AC0000E94CA0B8DB79EB708960FB6F8949EBFBA
:101AD0000FBE8DBFDF91CF911F910F9108950F938E
:101AE0001F93CF93DF93FC0124813581232B29F0B1
:101AF000008111810115110521F41092820302E881
:101B000013E0F80101900020E9F73197EF01C01BC5
:101B1000D10B31F184E090E00E94AD16FC011382FC
:101B20009E01CF3FD10519F014F02FEF30E0208354
:101B300012830183FF93EF9381E08F938F931F9222
:101B400083E28F938EEE92E09F938F930E94CA0B55
:101B50008DB79EB708960FB6F8949EBF0FBE8DBF87
:101B6000DF91CF911F910F910895209180033091C3
:101B70008103DC0114964D915C911597241735076C
:101B800021F5E0917C03F0917D036D917C9130977C
:101B900019F06115710599F46115710549F0232B50
:101BA000B1F0FB01808190E09195819591090AC087
:101BB000309769F0232B59F0808190E003C0CF016A
:101BC0000E94BA1821E0892B19F020E001C021E021
:101BD000822F089590E0FC01EB59FB4F2491FC010A
:101BE000EF5AFB4F8491882399F090E0880F991F5A
:101BF000FC01E95BFB4FA591B491FC01E35CFB4F59
:101C0000859194918FB7F894EC91E22BEC938FBF70
:101C10000895CF93DF9300D01F92CDB7DEB78DE04C
:101C200089838AE08A831B82CE0101960E94330D4C
:101C30000F900F900F90DF91CF910895EF92FF9248
:101C40000F931F93CF93DF93CDB7DEB70DB71EB7BA
:101C5000FC0124813581232B29F06081718161157C
:101C6000710521F41092820362E873E0FB01019098
:101C70000020E9F7CF01861B970B02962DB73EB7E0
:101C8000281B390B0FB6F8943EBF0FBE2DBF8DB782
:101C90009EB701967C01EDB7FEB711820E94AF1886
:101CA0006DEC71E0C7010E94AF18C7010E94330DAF
:101CB0000FB6F8941EBF0FBE0DBFDF91CF911F91DD
:101CC0000F91FF90EF9008950F931F93CF93DF93A1
:101CD000EC0188819981009729F02A813B812617A0
:101CE000370788F48B016F5F7F4F0E94CE170097F4
:101CF00061F0998388831B830A832C813D81232B88
:101D000011F4FC01108281E001C080E0DF91CF91ED
:101D10001F910F910895CF93DF93EC0188819981F2
:101D2000009711F00E944517198218821D821C82AB
:101D30001B821A82DF91CF910895EF92FF920F9349
:101D40001F93CF93DF93EC017B018A01BA010E94BC
:101D5000640E811104C0CE010E948B0E07C01D834A
:101D60000C83B701888199810E94C318CE01DF914D
:101D7000CF911F910F91FF90EF900895CF93DF9334
:101D8000EC016115710559F0FB0101900020E9F7A4
:101D90003197AF01461B570B0E949D0E02C00E9457
:101DA0008B0ECE01DF91CF910895FC01808191814E
:101DB0000C944517CF92DF92EF92FF920F931F93EF
:101DC000CF93DF936C017A018B01C0E0D0E0CE1598
:101DD000DF0581F0D8016D918D01D601ED91FC9167
:101DE0000190F081E02DC6010995892B11F0219613
:101DF000EECF7E01C701DF91CF911F910F91FF9030
:101E0000EF90DF90CF900895EF92FF920F931F9382
:101E1000CF93DF93EC01198218821B821A821D82F4
:101E20001C826115710509F18B01CB010E94CF1550
:101E30007C01BC01CE010E94640E811109C0CE015B
:101E4000DF91CF911F910F91FF90EF900C948B0E2B
:101E5000FD82EC82B80188819981DF91CF911F9139
:101E60000F91FF90EF900C94C815DF91CF911F91C7
:101E70000F91FF90EF900895FB01DC0111961C92E9
:101E80001E9213961C921E92129715961C921E92E9
:101E900014978617970749F0608171816115710564
:101EA00021F0448155810C949D0E0895FC0111820E
:101EB000108213821282158214826115710551F00D
:101EC000FB0101900020E9F73197AF01461B570B4A
:101ED0000C949D0E0895CF93DF93CDB7DEB768972E
:101EE0000FB6F894DEBF0FBECDBF789484B5826084
:101EF00084BD84B5816084BD85B5826085BD85B5AE
:101F0000816085BD80916E00816080936E0010922B
:101F100081008091810082608093810080918100A6
:101F20008160809381008091800081608093800037
:101F30008091B10084608093B1008091B000816095
:101F40008093B00080917A00846080937A008091C1
:101F50007A00826080937A0080917A008160809319
:101F60007A0080917A00806880937A001092C10094
:101F70008091DE01811150C080E592E090934E0285
:101F800080934D02E0916002F091610292E09083B3
:101F9000E0915C02F0915D021082E0915E02F091AE
:101FA0005F0280E1808310926802E0916402F09108
:101FB000650286E08083E0916202F0916302808195
:101FC00080618083E0916202F09163028081886089
:101FD0008083E0916202F091630280818068808357
:101FE000E0916202F091630280818F7D8083109284
:101FF000DD0181E08093DE011F929F931F921F926B
:102000008EEE92E09F938F930E94CA0B0F900F90D9
:102010000F900F900F900F908DE00E94EA0D88E0D6
:102020000E94EA0DEE24E394F12C8091E901909155
:10203000EA01019709F04EC08091E7019091E80113
:10204000019709F047C08091E5010E94760401974D
:1020500009F040C067E171E0CE0101960E94040FD3
:10206000CE0101960E946F0DCE0101960E94D50E01
:1020700060ED77E080E090E00E94CE048091E30183
:102080009091E401009709F080C08091E501909162
:10209000E6011C8A1B8A1E8A1D8A188E1F8A4AE046
:1020A000BE016F5F7F4F0E94D815BE016F5F7F4FEB
:1020B000CE0143960E94BE0ECE0143960E946F0D44
:1020C000CE0143960E94D50E60EA7FE080E090E06A
:1020D0000E94CE0480911703882309F453C0109204
:1020E000170360910F037091100389E691E00E943D
:1020F000BA18892B09F059C08DE00E947604892B0B
:1021000009F053C061E08DE00E949F046AE274E030
:102110008BC0B8018FE491E00E94BA18892B09F0B6
:10212000DAC166E773E0CE0101960E94040FCE018A
:1021300001960E946F0DCE0101960E94D50E6FECA4
:1021400071E0CE0143960E94560F109217036091E2
:102150000F0370911003CE0143960E94BE0EBE0184
:102160006D5E7F4FCE0101960E943C0FCE0101961D
:102170000E941E0ECE0101960E94D50ECE014396FE
:102180000E94D50E0E94E90750CF019709F09CCF1D
:1021900066E773E0CE0101960E943C0FCE010196E6
:1021A0000E946F0DCE0101968DCF109217036091A2
:1021B0000F037091100389E691E00E94BA18892BF1
:1021C00041F48DE00E947604019719F465E174E012
:1021D0002BC01092170360910F037091100381E6DA
:1021E00091E00E94BA18892B61F48DE00E94760478
:1021F000019739F460E08DE00E949F0461E074E093
:1022000013C01092170360910F037091100381E6C1
:1022100091E00E94BA18892BD1F48DE00E947604D7
:10222000892BA9F46BEE73E0CE0101960E94040F96
:10223000CE0101960E946F0DCE0101960E94D50E2F
:1022400060EA7FE080E090E00E94CE0478CF1092B8
:10225000170300910F0310911003B8018BE591E073
:102260000E94BA18892B09F03FC065EC73E0CE01DB
:1022700001960E94040FCE0101960E946F0DCE01BF
:1022800001960E94D50E60ED77E080E090E00E941C
:10229000CE0480911703811103C00E94090EF9CF6B
:1022A0001092170360910F03709110038CE793E075
:1022B0000E94BE0E0E94E70868EE73E080E090E0A6
:1022C0000E94CE041091E101812F0E947604892B97
:1022D00009F097C28091DF019091E001892B09F00C
:1022E00090C269EA73E09FC2B80186E591E00E945E
:1022F000BA18892B09F00DCF67ED71E0CE01019678
:102300000E94040FCE0101960E946F0DCE0101962E
:102310000E94D50E68E57BE180E090E00E94CE044B
:1023200061EB71E0CE0101960E94040FCE0101968F
:102330000E946F0DCE0101960E94D50E6CEA7DE0E1
:1023400080E090E00E94CE0467EA71E0CE01019641
:102350000E94040FCE0101960E946F0DCE010196DE
:102360000E94D50E64EC79E080E090E00E94CE04FB
:102370006CE971E0CE0101960E94040FCE01019636
:102380000E946F0DCE0101960E94D50E64EC79E09B
:1023900080E090E00E94CE0464E971E0CE010196F5
:1023A0000E94040FCE0101960E946F0DCE0101968E
:1023B0000E94D50E64EC79E080E090E00E94CE04AB
:1023C0006BE871E0CE0101960E94040FCE010196E8
:1023D0000E946F0DCE0101960E94D50E64EC79E04B
:1023E00080E090E00E94CE0464E871E0CE010196A6
:1023F0000E94040FCE0101960E946F0DCE0101963E
:102400000E94D50E64EC79E080E090E00E94CE045A
:1024100069E771E0CE0101960E94040FCE0101969A
:102420000E946F0DCE0101960E94D50E64EC79E0FA
:1024300080E090E00E94CE046DE671E0CE0101964E
:102440000E94040FCE0101960E946F0DCE010196ED
:102450000E94D50E64EC79E080E090E00E94CE040A
:102460006DE571E0CE0101960E94040FCE01019648
:102470000E946F0DCE0101960E94D50E64EC79E0AA
:1024800080E090E00E94CE0466E571E0CE01019606
:102490000E94040FCE0101960E946F0DCE0101969D
:1024A0000E94D50E64EC79E080E090E00E94CE04BA
:1024B0006EE471E0CE0101960E94040FCE010196F8
:1024C0000E946F0DCE0101960E94D50E64EC79E05A
:1024D00080E090E0B9CEB80186E491E00E94BA189D
:1024E000892B09F04DC067E573E0CE0101960E948B
:1024F000040FCE0101960E946F0DCE0101960E943D
:10250000D50E60ED77E080E090E00E94CE048091EF
:102510001703811103C00E94090EF9CF109217030F
:1025200060910F03709110038CE793E00E94BE0E40
:102530000E94E70868EE73E080E090E00E94CE041D
:102540008091DF019091E001892B99F461E0809105
:10255000E1010E949F0462E573E0CE0101960E94B2
:10256000040FCE0101960E946F0DCE0101960E94CC
:10257000D50E68EB7BE080E090E00E94CE04B6C010
:10258000B8018CE391E00E94BA18892BE1F563E36E
:1025900073E0CE0101960E94040FCE0101960E94C5
:1025A0006F0DCE0101960E94D50E60ED77E080E0C0
:1025B00090E00E94CE0480911703811103C00E9415
:1025C000090EF9CF1092170360910F037091100359
:1025D0008CE793E00E94BE0E0E94E70868EE73E06D
:1025E00080E090E00E94CE048091DF019091E001B4
:1025F000892B09F0BECF60E08091E1010E949F0429
:102600006EE273E0AACFB80184E391E00E94BA18A9
:10261000892B99F469E273E0CE0101960E94040FC0
:10262000CE0101960E946F0DCE0101960E94D50E3B
:102630006CED75E080E090E007CEB8018EE291E0AD
:102640000E94BA18892B09F056C0F092EA01E09274
:10265000E9016CEF72E0CE0101960E94040FCE01F9
:1026600001960E946F0DCE0101960E94D50E6CEA74
:102670007DE080E090E00E94CE04809117038111FC
:1026800003C00E94090EF9CF1092170360910F0347
:10269000709110038CE793E00E94BE0E0E94E70841
:1026A00068EE73E080E090E00E94CE048091DF014C
:1026B0009091E001009779F4F092E801E092E7014F
:1026C0008091E1019091E2019093E6018093E50110
:1026D00063EE72E028CD019709F031CD1092EA0146
:1026E0001092E9011092E8011092E7011092E001C6
:1026F0001092DF0124CDB80184E291E00E94BA1863
:10270000892BD9F41092EA011092E9011092E801A4
:102710001092E70163E371E0CE0101960E94040F7D
:10272000CE0101960E946F0DCE0101960E94D50E3A
:102730006CEA7DE080E090E087CDB80189E191E02E
:102740000E94BA18892B61F5F092E401E092E3014E
:1027500063EC72E0CE0101960E94040FCE01019657
:102760000E946F0DCE0101960E94D50E6CEA7DE0AD
:1027700080E090E00E94CE0480911703811103C095
:102780000E94090EF9CF1092170360910F03709108
:10279000100386E793E00E94BE0E61EA72E00DC06E
:1027A000B8018AE091E00E94BA18892BB9F410921E
:1027B000E4011092E3016DE772E0CE0101960E9400
:1027C000040FCE0101960E946F0DCE0101960E946A
:1027D000D50E68EB7BE080E090E036CD63E572E0FB
:1027E000CE0101960E94040FCE0101960E946F0D4A
:1027F000CE0101960E94D50E68E873E180E090E07A
:1028000023CD812F0E947604019731F48091DF015E
:102810009091E001892B29F060EA7FE080E090E070
:10282000ACCE6EE873E0CE0101960E94040FCE019B
:1028300001960E946F0DCE0101960E94D50EECCF3D
:10284000E0914902EF3259F021E02E0F2093490226
:10285000F0E0EE0FFF1FE551FE4F91838083089556
:102860000F931F93CF93DF93E0E5F2E01382128280
:1028700088EE93E0A0E0B0E084839583A683B783DD
:1028800084E791E09183808385EC90E0958784874D
:1028900084EC90E09787868780EC90E0918B808B2A
:1028A00081EC90E0938B828B82EC90E0958B848B13
:1028B00086EC90E0978B868B118E128E138E148E81
:1028C000EEEEF2E0118612861386148615861686C1
:1028D0001786148A1086108211821092ED021782D8
:1028E00012821382148215821682E8E8F3E01182C4
:1028F0001382128215821482168291E09083EFE88F
:10290000F3E01082118212821482138216821582E1
:1029100010861782118614861386C5E2D3E086E2FC
:10292000888722E02E839F830EE811E019830883B5
:102930008B831A82CE010E94201486E991E099834C
:102940008883EEE6F3E08EE293E0918380839093B8
:10295000710380937003F0937303E09372031092FA
:10296000750310927403CFE1D3E01983088383E2E7
:102970008B831A82CE010E9420148EE891E0998305
:102980008883C9E0D3E01983088384E28B831A82A9
:10299000CE010E94201486E891E0998388831F82EB
:1029A0001E828FEF9FEF998788871A861E861B8667
:1029B0001C861D861F866EEB71E086E793E00E9401
:1029C000560F6FEC71E08CE793E0DF91CF911F9190
:1029D0000F910C94560FCF93DF938CE793E00E94F6
:1029E000D50E86E793E00E94D50E80919803882348
:1029F00001F180919A0390919B03892BD1F0C0E063
:102A0000D0E02091980330E080919A0390919B034D
:102A1000C217D30764F49E01220F331FFC01E20F9B
:102A2000F31F808191810E9445172196EACF0E9471
:102A300045178091920390919303009721F0DF91C5
:102A4000CF910C944517DF91CF9108958F929F926B
:102A5000AF92BF92CF92DF92EF92FF92CF93DF932C
:102A6000EC01688179818A819B81611571058105FD
:102A7000910521F464E279ED8BE597E02DE133EFE8
:102A800041E050E00E940D1649015A019B01AC0142
:102A9000A7EAB1E40E942C166B017C01ACEEB4EF06
:102AA000A50194010E943A16DC01CB018C0D9D1DFD
:102AB000AE1DBF1DB7FF03C00197A109B0488883B1
:102AC0009983AA83BB83BC01CD019F77DF91CF910E
:102AD000FF90EF90DF90CF90BF90AF909F908F903E
:102AE00008958F929F92AF92BF92CF92DF92EF9212
:102AF000FF9260910001709101018091020190911B
:102B00000301611571058105910521F464E279EDF8
:102B10008BE597E02DE133EF41E050E00E940D1688
:102B200049015A019B01AC01A7EAB1E40E942C16AD
:102B30006B017C01ACEEB4EFA50194010E943A1642
:102B4000DC01CB018C0D9D1DAE1DBF1DB7FF03C069
:102B50000197A109B0488093000190930101A093CF
:102B60000201B0930301BC01CD019F77FF90EF906C
:102B7000DF90CF90BF90AF909F908F90089560931B
:102B80000001709301018093020190930301089565
:102B9000FB01DC0105900D920020E1F70895FC0196
:102BA00005900020E9F7809590958E0F9F1F08955E
:102BB000BB274A3031F4992322F4BDE290958195E8
:102BC0009F4F0C94E415BB27FB015527AA27880FBC
:102BD000991FAA1FA41710F0A41B83955051B9F791
:102BE000A05DAA3308F0A95DA193009779F7B11110
:102BF000B1931192CB010C94FD15DC01FC01672F00
:102C000071917723E1F7329704C07C916D937083C3
:102C10006291AE17BF07C8F30895052E97FB1EF407
:102C200000940E94241657FD07D00E94761607FCD8
:102C300003D04EF40C942416509540953095219570
:102C40003F4F4F4F5F4F08959095809570956195D8
:102C50007F4F8F4F9F4F08950E949816A59F900D0C
:102C6000B49F900DA49F800D911D11240895B7FF6E
:102C70000C942C160E942C16821B930B08952F92F5
:102C80003F924F925F926F927F928F929F92AF92FC
:102C9000BF92CF92DF92EF92FF920F931F93CF9349
:102CA000DF93CDB7DEB7CA1BDB0B0FB6F894DEBFE0
:102CB0000FBECDBF09942A88398848885F846E8406
:102CC0007D848C849B84AA84B984C884DF80EE8050
:102CD000FD800C811B81AA81B981CE0FD11D0FB659
:102CE000F894DEBF0FBECDBFED010895A1E21A2E0C
:102CF000AA1BBB1BFD010DC0AA1FBB1FEE1FFF1FA0
:102D0000A217B307E407F50720F0A21BB30BE40BEF
:102D1000F50B661F771F881F991F1A9469F7609536
:102D20007095809590959B01AC01BD01CF010895F0
:102D3000A29FB001B39FC001A39F700D811D1124FC
:102D4000911DB29F700D811D1124911D0895EE0FEC
:102D5000FF1F0590F491E02D09940F931F93CF93DB
:102D6000DF938230910510F482E090E0E091A403BB
:102D7000F091A50320E030E0A0E0B0E0309719F139
:102D8000408151810281138148175907C8F0841787
:102D9000950769F4109731F012960C9312971396D9
:102DA0001C9327C00093A4031093A50322C02115F0
:102DB000310519F04217530718F49A01BD01EF01CC
:102DC000DF01F801DBCF21153105F9F0281B390BA4
:102DD0002430310580F48A819B816115710521F0D1
:102DE000FB019383828304C09093A5038093A40383
:102DF000FE01329644C0FE01E20FF31F81939193CE
:102E000022503109398328833AC02091A20330919E
:102E1000A303232B41F42091060130910701309345
:102E2000A3032093A20320910401309105012115F1
:102E3000310541F42DB73EB7409108015091090189
:102E4000241B350BE091A203F091A303E217F307D3
:102E5000A0F42E1B3F0B2817390778F0AC014E5F0A
:102E60005F4F2417350748F04E0F5F1F5093A303A1
:102E70004093A2038193919302C0E0E0F0E0CF0180
:102E8000DF91CF911F910F910895CF93DF9300971A
:102E900009F481C0FC01329713821282A091A4032D
:102EA000B091A503109781F420813181820F931F87
:102EB0002091A2033091A3032817390751F5F0930D
:102EC000A303E093A20367C0ED0120E030E0CE173A
:102ED000DF0740F44A815B819E0141155105F1F005
:102EE000EA01F5CFD383C28340815181840F951FBE
:102EF000C817D90759F488819981840F951F0296C4
:102F0000918380838A819B819383828321153105FC
:102F100029F4F093A503E093A4033DC0E901FB83EA
:102F2000EA8349915991C40FD51FEC17FD0761F44D
:102F300080819181840F951F0296E901998388838E
:102F4000828193819B838A83E0E0F0E012968D91E9
:102F50009C911397009719F0FD01DC01F7CF8D913B
:102F60009C9111979D012E5F3F4F820F931F2091DF
:102F7000A2033091A3032817390769F4309729F485
:102F80001092A5031092A40302C013821282B09380
:102F9000A303A093A203DF91CF910895A0E0B0E036
:102FA000E4EDF7E10C944316EC01009721F4CB011A
:102FB0000E94AD16B4C0FC01E60FF71F9C01225021
:102FC0003109E217F30708F4A8C0D9010D911C914B
:102FD000119706171707B0F00530110508F49BC0CC
:102FE000C80104978617970708F495C00250110985
:102FF000061B170B019311936D937C93CF010E94D5
:10300000451789C05B01A01AB10A4C01800E911EC0
:10301000A091A403B091A503612C712CE12CF12C9B
:10302000109709F446C08D919C911197A815B90588
:10303000B1F56C0142E0C40ED11CCA14DB0478F176
:103040004C018A189B08640142E0C40ED11C129600
:10305000BC9012971396AC91B5E0CB16D10440F01A
:10306000B282A38391828082D9016D937C9309C03F
:103070000E5F1F4F800F911FF90191838083EB2D0D
:10308000FA2FE114F10431F0D7011396FC93EE937B
:10309000129741C0F093A503E093A4033CC06816C7
:1030A000790608F43C017D0112960D90BC91A02D8B
:1030B000B7CF8091A2039091A30388169906E1F4FB
:1030C00066167706C8F48091040190910501009777
:1030D00041F48DB79EB74091080150910901841BBE
:1030E000950BE817F907C8F4F093A303E093A20344
:1030F000F901718360830FC0CB010E94AD167C0182
:10310000009759F0A801BE010E94A618CE010E94A6
:103110004517C70104C0CE0102C080E090E0CDB7E2
:10312000DEB7EEE00C945F1681E090E0F8940C942A
:10313000CA18FB01DC0104C08D910190801921F4B3
:1031400041505040C8F7881B990B0895FB01DC01E2
:1031500002C001900D9241505040D8F70895FB01F4
:10316000DC010D900020E9F7119701900D920020ED
:10317000E1F70895FB01DC018D91019080190110A8
:10318000D9F3990B0895FB01DC0101900D92002009
:10319000E1F7089512E0CEE3D2E004C0FE010E9400
:0E31A000A7162196CF33D107C9F7F894FFCFB9
:1031AE00010000000000A6038000666F63757320A7
:1031BE006E616D65206F666600666F637573206E57
:1031CE00616D6500666F637573206F666600666F6E
:1031DE006375730061726475696E6F00706F7765E9
:1031EE0072206F666600706F776572206F6E007367
:1031FE0074617475730068656C70007374617465C6
:10320E00006C6564206F6666006C6564206F6E00EE
:10321E0000000000250BDA0E690254049A027802AF
:10322E008C020000000003040F08000000000304DD
:10323E00170B000000000304220341726520796F12
:10324E0075206F6B3F005975702C2049276D2066D5
:10325E0065656C696E672067726561742100466FE3
:10326E006375732070696E206E616D65000D0A00C6
:00000001FF
