:1000000035C200000C948F0F0C94640F0C94390FC0
:100010000C940E0F0C94E30E0C94B80E0C948D0EF1
:100020000C94620E54C2000052C2000050C2000084
:100030004EC200004CC200004AC2000048C200008C
:1000400046C2000044C2000042C2000040C200009C
:100050003EC200003CC200003AC200000C94180EE0
:1000600036C200000C94F00B0C94480C30C2000017
:100070002EC200002CC200002AC2000028C20000CC
:1000800026C2000024C2000022C2000020C20000DC
:100090000C94BA0B0C94D5081AC2000018C20000C8
:1000A00016C2000014C2000012C2000010C20000FC
:1000B0000EC200000CC200000AC2000008C200000C
:1000C00006C2000004C2000002C2000000C200001C
:1000D000FEC10000FCC10000FAC10000F8C1000030
:1000E000F6C100000D0D100DFF0C030D070D470D9F
:1000F000140D180D1E0D220D260D2C0D300D340D76
:10010000470D3A0D3E0D420D25642E25642E2564C3
:100110002E25640044617461207061636B657420F6
:1001200073656E64206572726F72202832290044F4
:10013000617461207061636B65742073656E642007
:100140006572726F72202831290041542B43495047
:1001500053454E443D25642C2575004661696C6508
:100160006420746F20777269746520746F20736FD8
:10017000636B65740041542B434950434C4F5345C6
:100180003D256400446973636F6E6E656374696EC8
:1001900067200041542B4349505354415455530058
:1001A0002B4349505354415455533A25642C004530
:1001B0006E6420746167206E6F7420666F756E6464
:1001C000004E6F2074616720666F756E64000D0AC3
:1001D0000053444B2076657273696F6E3A00415448
:1001E0002B474D520041542B4357444843503D3117
:1001F0002C310041542B43574155544F434F4E4EE1
:100200003D300041542B43495044494E464F3D3107
:100210000041542B4349504D55583D310041542B1A
:1002200043574D4F44453D31004154453000415402
:100230002B52535400496E6974696C697A61746910
:100240006F6E207375636365737366756C202D0024
:100250005761726E696E673A20556E737570706F74
:1002600072746564206669726D77617265004361BE
:100270006E6E6F7420696E697469616C697A65204D
:10028000455350206D6F64756C6500415400496E94
:10029000697469616C697A696E6720455350206D95
:1002A0006F64756C65000D0A005354415455533A00
:1002B0000041542B43495053544154555300436F0C
:1002C0006E6E656374656420746F004661696C6569
:1002D0006420636F6E6E656374696E6720746F006F
:1002E00041542B43574A41505F4355523D22257399
:1002F000222C22257322003E3E3E2054494D454F7C
:100300005554203E3E3E0000002100240027002AD4
:10031000002D003000330001010000040107010A34
:100320000100002200250028002B002E003100349F
:100330000002010000050108010B01050505050784
:100340000508080808020202020A0A080804040450
:10035000040101010101010101030303030303037C
:1003600003040707070C0C0C0C0C0C0C0C0202020B
:100370000206060606060606060B0B0B0B0B0B0BFE
:100380000B0102102020080810204010204080029D
:1003900001020108040201010204081020408080CB
:1003A000402010080402018004020180402010084F
:1003B0000402010804020101020408102040800127
:1003C0000204081020408000000A0B02090C0D0EE8
:1003D0000807030401000000000000000000000006
:1003E000000000000000000000000000000000000D
:1003F00000000012111000000000000000000000CA
:10040000000000000000000000000000004E6F200F
:10041000736F636B657420617661696C61626C6592
:100420000041542B43495053544152543D25642CB0
:1004300022544350222C222573222C257500436F11
:100440006E6E656374696E6720746F0054494D4524
:100450004F55543A0054616720434C4F5345442054
:100460006E6F7420666F756E6400DD1911241FBEF7
:10047000CFEFD1E2DEBFCDBF00E00CBF27E0AAE79F
:10048000B4E001C01D92AE3CB207E1F714E0A0E079
:10049000B2E0E2E2F1E400E00BBF02C007900D928F
:1004A000AA37B107D9F712E0C6E3D2E000E006C0F0
:1004B00021970109802FFE010E94421EC533D107FA
:1004C00080E00807A9F70E941C150C948F2098CD96
:1004D00021E0FC0184858F3F09F420E0822F0895FC
:1004E000CF93DF93EC01E881F9810084F185E02D61
:1004F000CE011995892B41F0E881F9810284F385B9
:10050000E02DCE011995EFCFDF91CF910895CF93D4
:10051000DF931F92CDB7DEB76983DC01ED91FC91CB
:100520000280F381E02D41E050E0BE016F5F7F4F1C
:1005300019950F90DF91CF910895089580E090E094
:10054000089510927D0410927C0408958F929F92DA
:10055000AF92BF92CF92DF92EF92FF920F931F93D1
:10056000CF93DF934091C4075091C5076091C607B0
:100570007091C707141615061606170644F49091D5
:10058000C307981711F0911102C0CA0121C1F82EBA
:100590008091C8079091C907DC01ED91FC9100841E
:1005A000F185E02D1995892B19F480E090E010C1B8
:1005B0000091C8071091C907C0E0D0E00E94D00D9B
:1005C000F8016087718782879387D801ED91FC914C
:1005D0000284F385E02DC801199597FF19C00E9488
:1005E000D00DF80180849184A284B384DC01CB0116
:1005F00088199909AA09BB0984809580A680B780CB
:1006000088159905AA05BB0500F38FEF9FEF11C070
:10061000FE01E652FD4F2081022E000C330B2817FD
:10062000390709F0A0C02196C530D10539F680E020
:1006300090E0892B09F0B9CF8091C8079091C90744
:100640000E94B8126093C3078091C8079091C907B0
:10065000DC01ED91FC910284F385E02D19958091E8
:10066000C8079091C9070E94B8126093C40770939D
:10067000C5078093C6079093C7078091C8079091DC
:10068000C907DC01ED91FC910284F385E02D1995F9
:100690008091C8079091C9070E94B8128091C8073D
:1006A0009091C907DC01ED91FC910284F385E02D66
:1006B00019958091C8079091C9070E94B81280913E
:1006C000C8079091C907DC01ED91FC910284F38584
:1006D000E02D19958091C8079091C9070E94B81222
:1006E0008091C8079091C907DC01ED91FC910284CB
:1006F000F385E02D19958091C8079091C9070E9454
:10070000B8128091C8079091C907DC01ED91FC9166
:100710000284F385E02D19958091C8079091C9074F
:10072000DC01ED91FC910284F385E02D1995809117
:10073000C8079091C9070E94B8128091C80790918C
:10074000C907DC01ED91FC910284F385E02D199538
:100750008091C307F81611F0F11027CF8091C407DC
:100760009091C50735C0209709F428CF4F016BED54
:1007700072E09E0121503109D4014E914D01042EA9
:10078000000C550B84179507F9F42115310509F470
:1007900015CF4AEDC42E42E0D42EDB0140E050E0FC
:1007A000F601B1906F01ED90BE1441F0421753076E
:1007B00009F404CF6F5F7F4FE901DBCF4F5F5F4FDD
:1007C0004217530768F3F2CF2115310599F7F4CE9C
:1007D000DF91CF911F910F91FF90EF90DF90CF901D
:1007E000BF90AF909F908F900895FC0184858F3FBC
:1007F00019F0ACDE97FF02C080E090E008958F9280
:100800009F92AF92BF92EF92FF920F931F93CF935D
:10081000DF93EC017B018A01E881F9810084F18595
:10082000E02D1995892B19F48FEF9FEF55C09C850A
:100830008091C307981338C08091C4079091C50771
:10084000A091C607B091C707A80160E070E08417C7
:100850009507A607B7070CF48C01E701E00EF11E1F
:10086000CE15DF05F9F00E94D00D4B015C0180919F
:10087000C8079091C907DC01ED91FC910284F385D2
:10088000E02D199597FF13C00E94D00DDC01CB011C
:1008900088199909AA09BB09883E9340A105B105A9
:1008A00030F3C2CFC80118C080E090E015C0899332
:1008B0008091C4079091C507A091C607B091C70762
:1008C0000197A109B1098093C4079093C507A0932C
:1008D000C607B093C707C4CFDF91CF911F910F9187
:1008E000FF90EF90BF90AF909F908F900895CF931F
:1008F000DF93FC0124852F3F09F440C0EC0160EE3A
:1009000072E085EA95E00E94DA1364E871E085EA16
:1009100095E00E94221366E274E085EA95E00E9469
:10092000DA134C8550E060E070E02AE085EA95E05B
:100930000E945B1367E774E085EA95E00E94461326
:100940008C851F928F938FE08F9380EA8F9385E73A
:1009500091E09F938F930E948A10EC85F0E0EE0F58
:10096000FF1FEA59FD4F8FEF9FEF918380838C87A4
:100970000F900F900F900F900F900F90DF91CF91ED
:1009800008950F931F93CF93DF931F921F92CDB7BC
:10099000DEB78C01DC01ED91FC910084F185E02D46
:1009A0001995892B29F11A82F80184859091C30742
:1009B000891309C09E012E5F3F4F41E0BE016F5F6A
:1009C0007F4F0E94DB138A81882379F0D8011C961F
:1009D000EC911C97F0E0EE0FFF1FEA59FD4F8FEFEF
:1009E0009FEF918380831C968C93898190E002C055
:1009F0008FEF9FEF0F900F90DF91CF911F910F918D
:100A000008950F931F93CF93DF931F921F92CDB73B
:100A1000DEB78C01DC01ED91FC910084F185E02DC5
:100A20001995892B29F11A82F80184859091C307C1
:100A3000891309C09E012E5F3F4F40E0BE016F5FEA
:100A40007F4F0E94DB138A81882379F0D8011C969E
:100A5000EC911C97F0E0EE0FFF1FEA59FD4F8FEF6E
:100A60009FEF918380831C968C93898190E002C0D4
:100A70008FEF9FEF0F900F90DF91CF911F910F910C
:100A80000895AF92BF92CF92DF92EF92FF920F93B1
:100A90001F93CF93DF93CDB7DEB764970FB6F8946B
:100AA000DEBF0FBECDBFDC011C962C91243018F4A4
:100AB0004115510531F421E030E0FC0133832283FC
:100AC00089C08A016B017C011F934F931F922F9362
:100AD0008AE491E09F938F939E012F5F3F4F5901CE
:100AE0003F932F930E94F41AB5018091C80790910B
:100AF000C9070E94A31340E06BEE72E088EE93E01A
:100B00000E94D50F0FB6F894DEBF0FBECDBF05977C
:100B100049F060EE72E085EA95E00E94DA136FE238
:100B200071E01FC08091C8079091C907DC01ED9169
:100B3000FC910280F381E02DA801B601199541E0F6
:100B400060E070E080ED97E00E94D50F039709F414
:100B500044C060EE72E085EA95E00E94DA1364E139
:100B600071E085EA95E00E94B51381E090E0F7011D
:100B70009383828360EE72E085EA95E00E94DA1347
:100B80006BE571E085EA95E00E94221366E274E06D
:100B900085EA95E00E94DA13D7011C964C9150E04B
:100BA00060E070E02AE085EA95E00E945B1367E769
:100BB00074E085EA95E00E94461360EA7FE080E0F9
:100BC00090E0B6D7D701ED91FC910488F589E02D2E
:100BD000C701199580E090E001C0C80164960FB686
:100BE000F894DEBF0FBECDBFDF91CF911F910F9163
:100BF000FF90EF90DF90CF90BF90AF900895CF928D
:100C0000DF92EF92FF920F931F93CF93DF93CDB7B5
:100C1000DEB760970FB6F894DEBF0FBECDBF7C0184
:100C2000FB016A0185811F928F9384811F928F93AC
:100C300083811F928F9382811F928F9388E091E02E
:100C40009F938F938E010F5F1F4F1F930F930E94EF
:100C5000F41AA601B801C7010E94B5140FB6F894A2
:100C6000DEBF0FBECDBF60960FB6F894DEBF0FBEDD
:100C7000CDBFDF91CF911F910F91FF90EF90DF904B
:100C8000CF9008950C94B514CF93DF93EC0160E0FE
:100C90008E8194D661E08E8191D660E08E818ED671
:100CA0008BE891E00197F1F7DF91CF910895EF92F2
:100CB000FF920F931F93CF93DF93FB01E40FF51F78
:100CC00010826115710509F484C08B01FB0101904C
:100CD0000020E9F731977F01E61AF70AB7016F5F45
:100CE0007F4F80E090E00E946B1FEC01009709F4B9
:100CF00070C01882B8010E947920EF2809F46BC0F7
:100D00006DEE72E0CE010E947020892B71F581E0BA
:100D100090E090937D0480937C0486D261EF72E032
:100D20008AEC96E00E94DA1361E080E06CD268EF12
:100D300072E08AEC96E00E94DA1380917C04909134
:100D40007D04019709F047C061E086E137D664EF82
:100D500071E080E090E0ECD660E086E12FD664EFB1
:100D600071E080E090E0E4D6E8CF64E073E0CE018B
:100D70000E947020892B79F581E090E090937D04AA
:100D800080937C0451D261EF72E08AEC96E00E947D
:100D9000DA1361E080E037D268E073E08AEC96E035
:100DA0000E94DA1380917C0490917D04019799F45C
:100DB00061E086E103D664EF71E080E090E0B8D6B0
:100DC00060E086E1FBD564EF71E080E090E0B0D6B2
:100DD000E9CFC0E0D0E0CE01DF91CF911F910F911C
:100DE000FF90EF900C94E21EAF92BF92CF92DF92F1
:100DF000EF92FF920F931F93CF93DF935C016B01F0
:100E00007A01E901188281E00E94BA0FB501809150
:100E1000C8079091C9070E94B51341E0B60188EE5A
:100E200093E00E94D50F8530910509F049C080916B
:100E3000C4069091C5069093C9068093C806409158
:100E4000C2065091C3064F5F5F4F60E070E00E94A2
:100E5000692041E0B70184EF91E00E94D50F05972A
:100E600031F5A80141505109F70101900020E9F73F
:100E70003197EE19FF096091C4067091C506809103
:100E8000C8069091C906861B970B8E1B9F0B4817AF
:100E9000590708F0AC01CE010E94802041E060E0DB
:100EA00070E080ED97E00E94D50F81E018C060EE01
:100EB00072E085EA95E00E94DA136FEA71E00AC0F9
:100EC000059760F060EE72E085EA95E00E94DA1323
:100ED00061EC71E085EA95E00E94B51380E0DF9156
:100EE000CF911F910F91FF90EF90DF90CF90BF9027
:100EF000AF900895CF92DF92EF92FF920F931F93DE
:100F0000CF93DF93CDB7DEB76E970FB6F894DEBF01
:100F10000FBECDBFFC0184858F3FC1F17F0116DB81
:100F2000892B11F094E033C0D7011C968C911F924D
:100F30008F9380EA91E09F938F93FE0131966F012A
:100F4000FF93EF930E94F41A0AE010E09E012B5EDB
:100F50003F4F4EED52E0B60183E991E045DF0F903F
:100F60000F900F900F900F900F908111DBCFD70152
:100F70001C96EC911C97F0E0EE0FFF1FEA59FD4F15
:100F80008FEF9FEF918380831C968C9390E081E09C
:100F9000943009F080E06E960FB6F894DEBF0FBE75
:100FA000CDBFDF91CF911F910F91FF90EF90DF9018
:100FB000CF900895CF92DF92EF92FF920F931F93FD
:100FC000CF93DF936C017C0187E0E80EF11CC0E059
:100FD000D0E0062F10E0B8010C2E02C07595679581
:100FE0000A94E2F76170F70181917F01E7D42196BD
:100FF000C430D10581F7C601DF91CF911F910F91C8
:10100000FF90EF90DF90CF903FCECF92DF92EF92A4
:10101000FF920F931F93CF93DF93EC01F62E642F73
:101020008C81CCD48D818F3F11F060E0C7D48F8547
:101030000F2D10E084FF23C06E0187E0C80ED11C85
:10104000E12CF12CB8010E2C02C0759567950A941D
:10105000E2F76170F60181916F01B0D4FFEFEF1AF2
:10106000FF0A88E0E816F10469F7CE01DF91CF911D
:101070001F910F91FF90EF90DF90CF9005CEB801B8
:1010800084E0759567958A95E1F7CE0193DF6F2D22
:10109000CE01DF91CF911F910F91FF90EF90DF90E4
:1010A000CF9088CF41E0B1DF81E090E008951F93B9
:1010B000CF93DF9361E080E0A6D0C0917A04D09115
:1010C0007B0480917E0490917F048C179D07B4F07F
:1010D00010E061E08C2F97D0612F8AEC96E0E2DF80
:1010E00069E170E080E090E023D51F5F153089F75B
:1010F0002196D0937B04C0937A04DFCFDF91CF9108
:101100001F9108958F929F92AF92BF92CF92DF92DC
:10111000EF92FF920F931F93CF93DF937C01EB012C
:101120006C0182E0C80ED11C4701E5E08E0E911CD7
:1011300000E010E0F60141916F0150E060E070E0E6
:101140002AE0CE010E945B135C01E881F9810190E5
:10115000F081E02D6EE2CE0119958A0D9B1D080FDE
:10116000191F8C149D0431F7F701458150E060E0B0
:1011700070E02AE0CE010E945B13800F911FDF9187
:10118000CF911F910F91FF90EF90DF90CF90BF9084
:10119000AF909F908F90089588E894E07BD221E0F3
:1011A000892B09F420E0822F08951F920F920FB629
:1011B0000F9211240BB60F922F933F934F935F938F
:1011C0006F937F938F939F93AF93BF93EF93FF930F
:1011D00088E894E03BD3FF91EF91BF91AF919F914D
:1011E0008F917F916F915F914F913F912F910F90D0
:1011F0000BBE0F900FBE0F901F90189540E0682F08
:101200008AEC96E002CF643008F063E09091DD064E
:10121000691710F06FEF690FE62FF0E0E653F94F12
:101220009489890F8068EACF81E0E8DF8BE39FE152
:101230000197F1F70895CF93DF93823028F09091D2
:10124000D90698609093D9068093DD061092DE0649
:1012500080E48093DF0680E18093E00680E5809360
:10126000E10661E08091CE0627D48091CF068F3FC2
:1012700011F061E021D461E08091D0061DD4CAEC68
:10128000D6E09E012A5C36408091D90684FD03C0D9
:1012900084E090E002C088E090E0219628173907AA
:1012A00024F461E08E8108D4ECCF8BE39DE00197BC
:1012B000F1F760E08091CE0681D360E08091D006A6
:1012C0007DD38091CF068F3F11F060E077D380917E
:1012D000D90684FD1CC063E08AEC96E06BDECBE4AB
:1012E000D6E4CE010197F1F763E08AEC96E062DE86
:1012F0002197F1F763E08AEC96E05CDE83E592E00B
:101300000197F1F762E08AEC96E054DE12C0806249
:1013100075DF8BE496E40197F1F78091D90680623E
:101320006DDF83E592E00197F1F78091D906806245
:1013300065DF8091D906806261DF84E08093DA0600
:101340008CE05CDF71DF82E08093DB0686E0DF917A
:10135000CF9154CFFC01A089B18982E08C93A48500
:10136000B5851C92A685B78580E18C93108EA489E3
:10137000B58986E08C93A289B3898C9180618C9326
:10138000A289B3898C9188608C93A289B3898C914E
:1013900080688C930288F389E02D80818F7D808323
:1013A0000895CF92DF92EF92FF92CF93DF936B017C
:1013B0007C016DE285EA95E094D2EC014427552743
:1013C000BA014C195D096E097F092AE085EA95E0AA
:1013D0000E945B138C0F9D1FDF91CF91FF90EF90C8
:1013E000DF90CF900895CF93DF93EC01FA0132960E
:1013F000E60FF71FDC01AD014C1B5D0BCF01861B17
:10140000970B2D91222311F02193F5CF9C01241BE2
:10141000350B620F731FFB01329750833196408367
:10142000DF91CF910895EF92FF920F931F93CF9387
:10143000DF9300D01F92CDB7DEB77B01BA0130E059
:10144000962F9F77660F672F661F770B7195611533
:10145000710509F0906821E0230FE1E0F0E0EC0F66
:10146000FD1FE30FF11D90836115710511F0322FFF
:10147000E7CF30E0B701621B730B6C5F7F4FDB017E
:101480008C93DE011196F701E21BF30B359685E094
:10149000E80EF11CEE16FF0619F08D918193FACF3C
:1014A0008091E6069091E7062F5F3F4F8901040F78
:1014B000151FDC01ED91FC910280F381E02DA80164
:1014C00019957C016DD360936A0770936B078093C5
:1014D0006C0790936D0781E00E151F0509F080E001
:1014E0000F900F900F900F90DF91CF911F910F9160
:1014F000FF90EF900895CF938091E6069091E706D4
:10150000009771F1DC01ED91FC910688F789E02DDF
:101510001995C1E0811125C0C0E0809181079091AB
:101520008207892BF1F48DEF9FEF909382078093D0
:1015300081078091E6069091E706DC01ED91FC9130
:101540000680F781E02D19958091E6069091E706D7
:10155000DC01ED91FC910488F589E02D199501C01D
:10156000C0E08C2FCF910895C6DF882331F18091A0
:10157000680790916907019611F481E090E09093DB
:101580006907809368078091680790916907909335
:10159000ED068093EE0647E050E068EE76E08FE2DD
:1015A00094E021DFFC01EE51F94F1682AC0144506A
:1015B000510968EE76E082E836CF80E00895CF9258
:1015C000DF92EF92FF92CF93DF93EC01E9D26B01B0
:1015D0007C018091E6069091E706DC01ED91FC919B
:1015E0000084F185E02D1995892B71F4D9D2DC01A5
:1015F000CB018C199D09AE09BF0980349C49A10516
:10160000B10538F380E00DC08091E6069091E706C1
:10161000DC01ED91FC910284F385E02D199588831E
:1016200081E0DF91CF91FF90EF90DF90CF90089510
:10163000FC01538D448D252F30E0842F90E0821BD8
:10164000930B541718F081589F4F089501970895F0
:10165000FC01918D828D981761F0828DDF01A80FBA
:10166000B11D5D968C91928D9F5F9F77928F90E0D8
:1016700008958FEF9FEF0895FC01918D828D98174B
:1016800031F0828DE80FF11D858D90E008958FEF88
:101690009FEF0895FC01918D228D892F90E0805855
:1016A0009F4F821B91098F779927089585EA95E0CE
:1016B000F1DF21E0892B09F420E0822F089580E0FA
:1016C00090E0892B19F0F2DF811120C080E090E0DA
:1016D000892B19F061DD81111CC080E090E0892B1D
:1016E00041F080E090E0892B21F00E940000811100
:1016F00013C080E090E0892BA1F080E090E0892B7E
:1017000081F00E94000081110AC008950E9400002B
:10171000DDCF0E940000E1CF0E940000EACF0C94D0
:10172000000008953FB7F8948091BF079091C007DB
:10173000A091C107B091C20726B5A89B05C02F3F55
:1017400019F00196A11DB11D3FBFBA2FA92F982FE7
:101750008827820F911DA11DB11DBC01CD0142E062
:10176000660F771F881F991F4A95D1F7089508952E
:101770000E944B201F920F920FB60F9211240BB6AE
:101780000F922F938F939F93EF93FF93E091980481
:10179000F09199048081E0919E04F0919F0482FD74
:1017A00012C090818091A1048F5F8F772091A20455
:1017B000821751F0E091A104F0E0E857FB4F958FBC
:1017C0008093A10401C08081FF91EF919F918F913F
:1017D0002F910F900BBE0F900FBE0F901F9018957A
:1017E0001F920F920FB60F9211240BB60F922F93E8
:1017F0008F939F93EF93FF93E091B505F091B6051A
:101800008081E091BB05F091BC0582FD12C0908102
:101810008091BE058F5F8F772091BF05821751F0B1
:10182000E091BE05F0E0EB55FA4F958F8093BE0531
:1018300001C08081FF91EF919F918F912F910F9027
:101840000BBE0F900FBE0F901F901895FC01848D5A
:10185000DF01A80FB11DA356BF4F2C91848D90E0DE
:1018600001968F779927848FA689B7892C93A089B1
:10187000B1898C91837080648C93938D848D98133F
:1018800006C00288F389E02D80818F7D80830895D2
:101890001F920F920FB60F9211240BB60F922F9337
:1018A0003F934F935F936F937F938F939F93AF93E8
:1018B000BF93EF93FF9385EA95E0C8DFFF91EF9127
:1018C000BF91AF919F918F917F916F915F914F9158
:1018D0003F912F910F900BBE0F900FBE0F901F9056
:1018E0001895EF92FF920F931F93CF93DF93EC0124
:1018F00081E0888F9B8D8C8D981305C0E889F989CC
:10190000808185FD25C0F62E0B8D10E00F5F1F4FE7
:101910000F771127E02E8C8DE8120BC00FB607FC55
:10192000FACFE889F989808185FFF5CFCE018EDF76
:10193000F2CF8B8DFE01E80FF11DE356FF4FF082D1
:101940009FB7F8940B8FEA89FB89808180620AC077
:101950009FB7F894EE89FF896083E889F9898081CF
:101960008370806480839FBF81E090E0DF91CF919E
:101970001F910F91FF90EF900895CF93DF93EC01AB
:10198000888D8823C1F0EA89FB89808185FD05C0A7
:10199000A889B9898C9186FD0EC00FB607FCF5CFDA
:1019A000808185FFF2CFA889B9898C9185FFEDCF21
:1019B000CE014CDFE8CFDF91CF910895362F90E034
:1019C000FC01E953FC4F4491FC01EF57FC4F24917B
:1019D000FC01E55CFC4F9491992309F46CC044230D
:1019E00009F455C050E0FA013197E231F10508F0F1
:1019F0004EC08827EE58FF4F8F4F0C94421E8091A7
:101A000080008F7707C0809180008F7D03C0809118
:101A10008000877F809380003AC084B58F7702C0B2
:101A200084B58F7D84BD33C08091B0008F7703C0B3
:101A30008091B0008F7D8093B00029C0809190008C
:101A40008F7707C0809190008F7D03C080919000B8
:101A5000877F809390001BC08091A0008F7707C084
:101A60008091A0008F7D03C08091A000877F80932C
:101A7000A0000DC0809120018F7707C080912001C8
:101A80008F7D03C080912001877F80932001E92F03
:101A9000F0E0EE0FFF1FEF5DFC4FA591B4919FB7F3
:101AA000F894311104C08C912095282302C0EC9148
:101AB0002E2B2C939FBF0895CF93DF9390E0FC01D2
:101AC000EF57FC4F2491FC01E55CFC4F8491882387
:101AD00061F190E0880F991FFC01E95FFC4FC5910F
:101AE000D491FC01EF5DFC4FA591B491611109C047
:101AF0009FB7F8948881209582238883EC912E23C8
:101B00000BC0623061F49FB7F8948881322F309512
:101B100083238883EC912E2B2C939FBF06C08FB715
:101B2000F894E8812E2B28838FBFDF91CF91089501
:101B30008F929F92AF92BF92CF92DF92EF92FF92DD
:101B40006B017C01EFDD4B015C01C114D104E104A8
:101B5000F104E9F0E7DDDC01CB0188199909AA0954
:101B6000BB09883E9340A105B10578F321E0C21A74
:101B7000D108E108F10888EE880E83E0981EA11CC8
:101B8000B11CC114D104E104F10421F7DECFFF90B0
:101B9000EF90DF90CF90BF90AF909F908F9008957F
:101BA0002FB7F8946091BB077091BC078091BD0777
:101BB0009091BE072FBF0895EF92FF920F931F934E
:101BC000CF93DF93EC018B017A01EADFFE01E85746
:101BD000FF4F60837183828393838C819D81DC01BD
:101BE000ED91FC910280F381E02DA701B801DF9116
:101BF000CF911F910F91FF90EF9019941F93CF9366
:101C0000DF93EC01162FCCDFFE01E857FF4F608316
:101C10007183828393838C819D81DC01ED91FC91A2
:101C20000190F081E02D612FDF91CF911F911994E8
:101C30001F920F920FB60F9211242F933F938F9301
:101C40009F93AF93BF938091BB079091BC07A091E6
:101C5000BD07B091BE073091BA0723E0230F2D379F
:101C600020F40196A11DB11D05C026E8230F0296A0
:101C7000A11DB11D2093BA078093BB079093BC07A9
:101C8000A093BD07B093BE078091BF079091C00796
:101C9000A091C107B091C2070196A11DB11D80930B
:101CA000BF079093C007A093C107B093C207BF912D
:101CB000AF919F918F913F912F910F900FBE0F90F9
:101CC0001F9018951F920F920FB60F9211240BB60A
:101CD0000F922F933F934F935F936F937F938F93C5
:101CE0009F93AF93BF93EF93FF93E0910E02F09118
:101CF0000F021995FF91EF91BF91AF919F918F9135
:101D00007F916F915F914F913F912F910F900BBEFB
:101D10000F900FBE0F901F9018951F920F920FB645
:101D20000F9211240BB60F922F933F934F935F9313
:101D30006F937F938F939F93AF93BF93EF93FF9393
:101D4000E0910C02F0910D021995FF91EF91BF9176
:101D5000AF919F918F917F916F915F914F913F9143
:101D60002F910F900BBE0F900FBE0F901F901895E4
:101D70001F920F920FB60F9211240BB60F922F9352
:101D80003F934F935F936F937F938F939F93AF9303
:101D9000BF93EF93FF93E0910202F0910302199534
:101DA000FF91EF91BF91AF919F918F917F916F9133
:101DB0005F914F913F912F910F900BBE0F900FBEEF
:101DC0000F901F9018951F920F920FB60F9211242B
:101DD0000BB60F922F933F934F935F936F937F9325
:101DE0008F939F93AF93BF93EF93FF93E091000284
:101DF000F09101021995FF91EF91BF91AF919F91E1
:101E00008F917F916F915F914F913F912F910F90A3
:101E10000BBE0F900FBE0F901F9018951F920F9240
:101E20000FB60F9211240BB60F922F933F934F933F
:101E30005F936F937F938F939F93AF93BF93EF9332
:101E4000FF93E0910A02F0910B021995FF91EF9137
:101E5000BF91AF919F918F917F916F915F914F91C2
:101E60003F912F910F900BBE0F900FBE0F901F90C0
:101E700018951F920F920FB60F9211240BB60F9266
:101E80002F933F934F935F936F937F938F939F9382
:101E9000AF93BF93EF93FF93E0910802F091090293
:101EA0001995FF91EF91BF91AF919F918F917F9184
:101EB0006F915F914F913F912F910F900BBE0F90BB
:101EC0000FBE0F901F9018951F920F920FB60F9292
:101ED00011240BB60F922F933F934F935F936F9301
:101EE0007F938F939F93AF93BF93EF93FF93E09173
:101EF0000602F09107021995FF91EF91BF91AF9102
:101F00009F918F917F916F915F914F913F912F9111
:101F10000F900BBE0F900FBE0F901F9018951F9241
:101F20000F920FB60F9211240BB60F922F933F937F
:101F30004F935F936F937F938F939F93AF93BF93D1
:101F4000EF93FF93E0910402F09105021995FF9140
:101F5000EF91BF91AF919F918F917F916F915F9121
:101F60004F913F912F910F900BBE0F900FBE0F908E
:101F70001F9018958091C8079091C907DC01ED91D9
:101F8000FC910084F185E02D19951816190664F46A
:101F90008091C8079091C907DC01ED91FC91028402
:101FA000F385E02D1995E6CF08953F924F925F9209
:101FB0006F927F928F929F92AF92BF92CF92DF9259
:101FC000EF92FF920F931F93CF93DF936C012B013E
:101FD000342E8091C4069091C5069093C9068093D3
:101FE000C806DEDD4B015C0166246A94762C0D2C5C
:101FF000000CEE08FF08D4DDDC01CB01881999093B
:10200000AA09BB098C159D05AE05BF0508F059C08E
:102010008FEF6816780609F054C08091C807909138
:10202000C907DC01ED91FC910084F185E02D199543
:10203000892B09F38091C8079091C907DC01ED91C4
:10204000FC910284F385E02D1995E091C806F0918A
:10205000C90680838091C8069091C9060196909325
:10206000C9068093C8062091C6063091C70682171C
:10207000930740F08091C4069091C5069093C906DD
:102080008093C8064114510439F0C20120D288233C
:1020900019F085E0682E712C332009F4ACCF00EDE7
:1020A00012E0C0E0D0E0F801819191918F010FD250
:1020B000882311F03E019FCF2196C530D10599F7B5
:1020C0009ACF6EDDDC01CB0188199909AA09BB09F9
:1020D0008C159D05AE05BF0550F060EE72E085EAF7
:1020E00095E068D367EF72E085EA95E03ED3C301DF
:1020F000DF91CF911F910F91FF90EF90DF90CF90E4
:10210000BF90AF909F908F907F906F905F904F9017
:102110003F900895CF93DF93CDB7DEB7C85CD10968
:102120000FB6F894DEBF0FBECDBF9E012E523F4FBB
:10213000C253DF4F48815981CE5CD04068EC70E0DB
:10214000CE0101960E94221B81E014DFBE016F5F69
:102150007F4F8091C8079091C907F5D241E060E0B8
:1021600070E0C053DF4F88819981C05DD0401DDF92
:10217000C853DF4F0FB6F894DEBF0FBECDBFDF915F
:10218000CF9108954F925F926F927F928F929F921C
:10219000AF92BF92CF92DF92EF92FF920F931F9375
:1021A000CF93DF93CDB7DEB74C016B015A013901F4
:1021B0004DB65EB6CB010E94EB1A01962DB73EB725
:1021C000281B390B0FB6F8943EBF0FBE2DBF8DB73D
:1021D0009EB701967C01B6010E94E41AC5010E94D7
:1021E000EB1A01962DB73EB7281B390B0FB6F894A2
:1021F0003EBF0FBE2DBF8DB79EB701966C01B501D6
:102200000E94E41A9301A601B701C4010E94F406DA
:102210000FB6F8945EBE0FBE4DBEDF91CF911F91F9
:102220000F91FF90EF90DF90CF90BF90AF909F9075
:102230008F907F906F905F904F900895CF92DF9234
:10224000EF92FF920F931F93CF93DF936C017A016C
:102250008B01C0E0D0E0CE15DF0581F0D8016D9193
:102260008D01D601ED91FC910190F081E02DC60128
:102270001995892B11F02196EECF7E01C701DF91D0
:10228000CF911F910F91FF90EF90DF90CF90089525
:102290000F931F93CF93DF93EC0182DC68877987DC
:1022A0008A879B87E881F9810484F585E02DCE013A
:1022B000199597FF16C074DC088519852A853B851A
:1022C000DC01CB01801B910BA20BB30B0C811D8198
:1022D0002E813F8180179107A207B30718F38FEF74
:1022E0009FEFDF91CF911F910F9108954F925F92D1
:1022F0006F927F928F929F92AF92BF92CF92DF9216
:10230000EF92FF920F931F93CF93DF931F921F9231
:10231000CDB7DEB75C0188EE96E051D9811139C0A6
:1023200035C08C01CE0101964AD9882379F1C801C4
:1023300001962981F70121937F01422F4F7750E0C9
:10234000449DB001459D700D549D700D1124C60E25
:10235000D71E47E0440C551C661C771C4A95D1F7E4
:1023600027FF27C085309105E1F68FEF9FEF90930F
:102370008207809381078091E6069091E706DC0151
:10238000ED91FC910488F589E02D199580E090E0AD
:102390008BC09090E806198289EEE82E86E0F82E30
:1023A00001E010E0C12CD12C412C512C320143947E
:1023B000B9CFF92DF07FFA832FEF280FD5012C9399
:1023C000F03309F58851994FFAD88823F9F2C801FA
:1023D0008651994FF4D88823C9F2C8010396D501D4
:1023E000EC91F0E0EE51F94FE780F12CFE2CEE2459
:1023F0002085E20EF11C2091E80621FF08C0B2E022
:10240000EB0EF11C04C020E0E12CF12C01C022E015
:10241000422E512CFC01EE51F94F4F018C01481A0C
:10242000590A2EEF622E77247A94C801840D951DE7
:102430008C159D0570F5CE010196C1D8882309F44D
:10244000A5CF80917F07909180070097B1F0FA8126
:10245000F03399F4D5012C91F301E21BF1099F01AE
:10246000200F311FE216F30640F4DC01ED91FC91E0
:102470000190F081E02D698119950038110518F45B
:102480008981F40186830F5F1F4FFFEF8F1A9F0A28
:10249000CCCF80917F0790918007892B21F4013860
:1024A000110508F073CFC8010F900F90DF91CF9105
:1024B0001F910F91FF90EF90DF90CF90BF90AF9062
:1024C0009F908F907F906F905F904F900895FC0148
:1024D00001900020E9F731979F01281B390BE0910B
:1024E000C806F091C906E21BF30B4091C406509157
:1024F000C506E417F50730F46091C2067091C30673
:10250000E60FF71F280F391F6091C6067091C706A6
:10251000DC018217930758F40196BC91A081BA138D
:1025200008C03196E617F70799F7FA01F1CF81E075
:10253000089580E008950F931F93CF93DF938B014D
:10254000877028E0829FC001112480640E94FE08E9
:10255000E801085F1F4F69918AEC96E00E945208DB
:10256000C017D107C1F7DF91CF911F910F91089547
:10257000CF92DF92EF92FF921F93CF93DF93EC0104
:10258000CE0186DEFC0197FD0EC08D32910579F0FB
:10259000C0970A9760F0E881F9810284F385E02D05
:1025A000CE011995EDCF60E070E0CB0143C0C12CA6
:1025B000D12C760110E0E130F10501F1ED32F105A9
:1025C000E1F0CF01C0970A97C8F4AAE0B0E0A701F4
:1025D00096010E94291E6F01FF0FEE08FF08DC0123
:1025E000CB018C0D9D1DAE1DBF1D6C017D0120E337
:1025F000C21AD108E108F10801C011E0E881F981AF
:102600000284F385E02DCE011995CE0141DEFC0157
:10261000C0970A9780F2E130F10569F2112341F089
:1026200066277727CB016C197D098E099F0902C0A7
:10263000C701B601DF91CF911F91FF90EF90DF901E
:10264000CF900895EF92FF920F931F93CF93DF9354
:102650008C017B01C0E0D0E0F701EC0FFD1F64911D
:10266000662361F0D801ED91FC910190F081E02D9D
:10267000C8011995892B11F02196EECFCE01DF917B
:10268000CF911F910F91FF90EF9008956115710503
:1026900079F0FB0101900020E9F73197AF01461B6B
:1026A000570BDC01ED91FC910280F381E02D199430
:1026B00080E090E008958F929F92AF92BF92EF9248
:1026C000FF920F931F93CF93DF93CDB7DEB7A19700
:1026D0000FB6F894DEBF0FBECDBF7C01FA01CB016F
:1026E00019A2223008F42AE08E010F5D1F4F822EBE
:1026F000912CA12CB12CBF01A50194010E94071EB1
:10270000F901CA01015011096A3014F4605D01C079
:10271000695CD8016C93232B242B252B61F7B8011E
:10272000C701B4DFA1960FB6F894DEBF0FBECDBFD0
:10273000DF91CF911F910F91FF90EF90BF90AF90DD
:102740009F908F9008950F931F93CF93DF93EC0189
:102750009DDF8C0167E774E0CE0198DF800F911F49
:10276000DF91CF911F910F9108950F931F93CF93F6
:10277000DF93EC0167DF8C0167E774E0CE0186DF51
:10278000800F911FDF91CF911F910F910895CF93EB
:10279000DF93EC0181E0EEDBBE018091C8079091F0
:1027A000C907E3DF41E060E070E088EE93E0DF918D
:1027B000CF91FBCB6BCF8F929F92AF92BF92EF9254
:1027C000FF920F931F93CF93DF93C82F8B01D42FCA
:1027D0007901E6D94B015C018091C8079091C90746
:1027E000DC01ED91FC910084F185E02D1995892B98
:1027F00009F46FC08091C8079091C907DC01ED9181
:10280000FC91DD2339F00484F585E02D1995F8015C
:10281000808319C00284F385E02D1995F801808327
:102820008091C4079091C507A091C607B091C707D2
:102830000197A109B1098093C4079093C507A0939C
:10284000C607B093C7078091C4079091C507A091B0
:10285000C607B091C707892B8A2B8B2B11F081E01B
:1028600079C065E070E080E090E062D98091C807AF
:102870009091C907DC01ED91FC910084F185E02D78
:102880001995892B61F38091C8079091C907DC01E4
:10289000ED91FC910484F585E02D1995D0E0E0964A
:1028A0008C179D07E1F640E060E774E084EF91E06B
:1028B0007CDB059751F060EE72E085EA95E07ADF07
:1028C00065E574E085EA95E050DF81E0F7018083FB
:1028D00041C066D9DC01CB0188199909AA09BB0955
:1028E000803D9740A105B10508F476CF60EE72E017
:1028F00085EA95E05FDF6CE474E085EA95E0A2DEAE
:1029000066E274E085EA95E055DF4091C407509196
:10291000C5076091C6077091C70777FF05C0CB0157
:10292000BA010E94D10904C02AE085EA95E0C3DE1D
:1029300067E774E085EA95E0A9DE1092C40710927B
:10294000C5071092C6071092C7071092C307D80197
:102950001C9280E0DF91CF911F910F91FF90EF903B
:10296000BF90AF909F908F900895EF92FF920F933A
:102970001F93CF93DF93EC01162F072FF42EE52E34
:1029800060EE72E085EA95E015DF6EE374E085EABB
:1029900095E058DE66E274E085EA95E00BDF612F92
:1029A000702F85EA95E0CFDEEEE6F2E083E090E07E
:1029B000329122912F3F3F4F19F00197C8F78FEFC7
:1029C0008C878F3F31F1EF92FF920F931F931F92ED
:1029D0008F9383E18F9388E88F9381E294E09F93B4
:1029E0008F9398DB2DB73EB7265F3F4F0FB6F89415
:1029F0003EBF0FBE2DBF892BB1F48C8590E0FC014A
:102A0000EE0FFF1FEA59FD4F9183808381E090E034
:102A10000CC060EE72E085EA95E0CCDE6DE074E01B
:102A200085EA95E0A2DE80E090E0DF91CF911F91F2
:102A30000F91FF90EF900895CF93DF93CDB7DEB75E
:102A40002E970FB6F894DEBF0FBECDBF789484B535
:102A5000826084BD84B5816084BD85B5826085BD9A
:102A600085B5816085BD80916E00816080936E0028
:102A7000109281008091810082608093810080911A
:102A800081008160809381008091800081608093CB
:102A900080008091B10084608093B1008091B0008B
:102AA00081608093B000809191008260809391005A
:102AB000809191008160809391008091900081606D
:102AC000809390008091A10082608093A10080910A
:102AD000A10081608093A1008091A000816080931B
:102AE000A0008091210182608093210180912101C9
:102AF0008160809321018091200181608093200179
:102B000080917A00846080937A0080917A0082605C
:102B100080937A0080917A00816080937A0080911E
:102B20007A00806880937A001092C10061E086E1AB
:102B30000E945C0D62E085E10E945C0D81EA92E0FA
:102B40009093050280930402809169008C7F8160DC
:102B500080936900E89A82E00E941B090E94140990
:102B600064E173E08AEC96E025DE6EE572E080E0D9
:102B7000E2DC66E572E081E0DEDC6EE472E082E0D9
:102B8000DADC66E472E083E0D6DC6EE372E084E0D7
:102B9000D2DC6CED75E080E090E00E94980D0E9420
:102BA000140985EA95E00E94AA0988E894E00E9449
:102BB000AA0960E080E00E9403096EE173E08AECFC
:102BC00096E0F8DD61E08CE00E9403096BEB73E0B6
:102BD0008AEC96E0EFDD85E090E090937F048093AF
:102BE0007E0460EE72E085EA95E0E4DD6EE872E076
:102BF00085EA95E0BADD88E894E09093C907809370
:102C0000C80705E010E08BE892E0C1DD892B09F4EC
:102C100041C368EE73E080E090E00E94980D01509F
:102C2000110989F760EE72E085EA95E0C3DD6EE692
:102C300072E085EA95E099DD68E873E180E090E074
:102C40000E94980D61E08CE00E9403096FE273E03E
:102C50008AEC96E0AFDD0E94570860E080E00E94B9
:102C6000030963E373E08AEC96E0A4DD88E090E07A
:102C700090937F0480937E040AE010E09E012F5F12
:102C80003F4F46EA52E069EA72E081EB92E07ADA7D
:102C9000882359F002E212E03EE4D32E40E2C42E33
:102CA00050EEE52E52E0F52E3CC064E473E085EA78
:102CB00095E049DDFFCF6CE573E085EA95E07ADDCC
:102CC00060E372E085EA95E03EDD1F930F9380E3B9
:102CD00092E09F938F93DF92CF92FF92EF921ADA56
:102CE0000FB6F894DEBF0FBECDBF60EE72E0892B49
:102CF00001F585EA95E05EDD6EEB72E085EA95E030
:102D0000A1DC66E274E085EA95E054DD60E372E000
:102D100085EA95E018DD81E090E090938704809348
:102D200086048091860490918704019709F0C3CFAF
:102D30001DC085EA95E03EDD6BEC72E085EA95E02A
:102D400081DC66E274E085EA95E034DD60E372E000
:102D500085EA95E0F8DC68EE73E080E090E00E94A0
:102D6000980D80E007D982E090E0D7CF61E08CE059
:102D70000E94030960E873E08AEC96E01BDD0E9484
:102D8000570860E080E00E94030964E873E08AEC81
:102D900096E010DD0AE010E010937F0400937E04BB
:102DA00065E973E085EA95E0CEDC80E192E09093FE
:102DB0007C0780937B078BE597E090937E07809359
:102DC0007D0787E596E090937407809373070E94D0
:102DD000B40A61E08CE00E94030965EB73E08AECC1
:102DE00096E0E8DC0E94570860E080E00E9403095A
:102DF00064E873E08AEC96E0DDDC10937F040093D6
:102E00007E040E94570861E08CE00E94030969EB90
:102E100073E08AEC96E0CEDC60E971E080E090E05F
:102E20000E94980D0E941409AE01485F5F4F5D87B4
:102E30004C872CEF222E33243A940E947B0A811176
:102E4000EEC00E9414091FE00E947B0A8111E7C0B6
:102E50006EEB73E085EA95E0ADDC60E080E00E9417
:102E6000030965ED73E08AEC96E0A4DC0E947B0A1E
:102E70008111CBC060917B0770917C078091E60641
:102E80009091E70640917D0750917E07DC01ED911E
:102E9000FC916115710521F00088F189E02D16C0C3
:102EA0000684F785E02D28EC32E03A832983C09030
:102EB0007707D0907807E0907907F0907A07CB8277
:102EC000DC82ED82FE82BE016F5F7F4F19958130FB
:102ED000910509F093C0909369078093680787E094
:102EE000E4E7F2E0DE01119601900D928A95E1F798
:102EF000FE013196ADEEB6E081918D934C855D85F6
:102F0000E417F507C9F752E05093F4061092F5065E
:102F10001093F6064FE050E068EE76E083EE93E023
:102F20000E94F309AC014550510968EE76E080E15A
:102F30000E94130A0E94D00D60936A0770936B077A
:102F400080936C0790936D0760936E0770936F0783
:102F500080937007909371078091E6069091E70641
:102F6000DC01ED91FC910084F185E02D1995892B10
:102F7000D1F40E94D00DC0906E07D0906F07E09002
:102F80007007F0907107DC01CB018C199D09AE0927
:102F9000BF0980349C49A105B105F0F23092820747
:102FA000209281071FC0CE010B96A0D90497D1F4BF
:102FB0008091EB06811111C00E94D00D60936E07C5
:102FC00070936F0780937007909371071092720748
:102FD000109282071092810718C090E090938207A8
:102FE000809381078091E6069091E706DC01ED91E0
:102FF000FC910488F589E02D1995BBC12EEF3FEFB8
:103000003093820720938107B4C169EE73E085EAAB
:1030100095E099DB0E9414090E94B40A15CF0E9422
:103020007B0A882309F41BC10E94D00D2B013C01AF
:1030300080916E0790916F07A0917007B091710712
:10304000A3019201281B390B4A0B5B0BDA01C90162
:1030500089399A43A105B105A8F480916A07909136
:103060006B07A0916C07B0916D07A3019201281B1B
:10307000390B4A0B5B0BDA01C90189399A43A10567
:10308000B105B8F1209172078091E6069091E706AC
:10309000222361F03092820720928107DC01ED91BA
:1030A000FC910488F589E02D1995D9C020EC209376
:1030B000E8061092E906DC01ED91FC910280F381B3
:1030C000E02D42E050E068EE76E0199540926A0704
:1030D00050926B0760926C0770926D0740926E077A
:1030E00050926F07609270077092710781E0809331
:1030F00072078091E6069091E706DC01ED91FC9164
:103100000084F185E02D1995892B09F4A8C0CE0122
:103110000196ECD85C01892B09F49FC040926E07A0
:1031200050926F0760927007709271078091E80665
:10313000807F803309F075C0809173079091740788
:10314000892B09F48CC0E980F12CF701EE51F94F7D
:10315000078110E0102F00278085080F111D9701AF
:103160002651394F4901B7016551794FA801C9016D
:103170009FD7B8016E0D7F1DDB01AE51B94F189678
:103180001C9218978091E80686708E87E0917307ED
:10319000F09174078230C1F51996CC901997D12C13
:1031A000DC2CCC241A968C91C80ED11C4BEF5FEF0F
:1031B0004E195F09401B510B4A0D5B1D6351794F3E
:1031C000C401199580E48093E8063E853093E906B2
:1031D000D092EA06C092EB068091E6069091E7064F
:1031E000DC01ED91FC910280F381E02D44E050E0A0
:1031F00068EE76E0199540926A0750926B076092EC
:103200006C0770926D072BC04DEF5FEF4E195F0991
:10321000401B510B4A0D5B1D6551794FC401199537
:103220001EC0803CA9F480ED8093E8061092E90668
:103230008091E6069091E706DC01ED91FC91028019
:10324000F381E02D42E050E068EE76E0199507C08A
:10325000803D29F41092720702C00E947B0A60E050
:1032600080E00E9403096BE074E08AEC96E0A2DA49
:1032700061E080E00E94030967E174E08AEC96E077
:1032800099DA6AEF70E080E090E00E94980D0E9469
:103290005F0BD3CD8EE292E07ADA68EB7BE080E0E0
:1032A00090E00E94980D80E00E94BA0F89E292E0BF
:1032B0006EDA8DE192E06BDA68EC70E080E090E02D
:1032C0000E94980D81E192E062DA83E092E05FDA99
:1032D00083EF91E05CDA85EE91E059DA68EC70E01A
:1032E00080E090E00E94980D1092800406E010E0CB
:1032F00020E834E04EEC51E061ED71E08EED91E0BC
:103300000E94C210809180048153823020F4809109
:1033100081048E32C9F060EE72E085EA95E04ADA07
:1033200060E572E085EA95E08DD966E274E085EAB1
:1033300095E040DA60E874E085EA95E004DA60EA56
:103340007FE080E090E07CCC60EE72E085EA95E082
:1033500031DA65E372E085EA95E074D966E274E0FB
:1033600085EA95E027DA60E874E085EA95E0EBD934
:1033700069CC68E274E085EA95E01CDA4091810747
:1033800050918207052E000C660B770B77FF05C066
:10339000CB01BA010E94D10904C02AE085EA95E078
:1033A0008AD963EF73E085EA95E0CDD968E873E1E7
:1033B00080E090E00E94980D47CDCF92DF92EF928F
:1033C000FF920F931F93CF93DF93E8E8F4E013820B
:1033D000128288EEC82E83E0D82EE12CF12CC48214
:1033E000D582E682F78280E892E0918380832DEC9B
:1033F00030E0358724872CEC30E03787268728ECAF
:1034000030E0318B208B29EC30E0338B228B2AEC9F
:1034100030E0358B248B2EEC30E0378B268B118EF1
:10342000128E138E148EE5EAF5E013821282C482A6
:10343000D582E682F7829183808385EC90E0958740
:10344000848784EC90E09787868780EC90E0918B6E
:10345000808B81EC90E0938B828B82EC90E0958B5B
:10346000848B86EC90E0978B868B118E128E138E58
:10347000148EE3E8F7E0C8ECD2E0D183C083128277
:10348000138214821582E9E8F7E0D183C0831282A7
:1034900013821482158202EC16E080E290E0F801BB
:1034A0009183808381E290E0F5D3F8019383828356
:1034B0009C01205E3F4F358324839783868321E2DE
:1034C000FC0111922A95E9F7EFE8F7E0D183C08378
:1034D0001282138214821582E5E9F7E0D183C0835A
:1034E0001282138214821582EBE9F7E0D183C08344
:1034F0001282138214821582E1EAF7E0D183C0833D
:103500001282138214821582E4EBF7E0D183C08328
:103510001282138214821582E7EAF7E01382128284
:10352000C482D582E682F7828AEA92E09183808320
:103530008FEF8487A2EEB6E013961C921E9212972C
:103540002EE932E011963C932E93D0937607C093E8
:1035500075071092770710927807109279071092EA
:103560007A072FEF3FEF309382072093810715965C
:10357000FC93EE9314971092800710927F07EAEC69
:10358000F6E01382128222E932E03183208397E051
:103590009483858386E0868385E0878384E08087C3
:1035A00083E0818782E082871386148615861686DB
:1035B000178681E0DF91CF911F910F91FF90EF90DF
:1035C000DF90CF900C941B09FB01DC0105900D925C
:1035D0000020E1F70895FC0105900020E9F78095AF
:1035E00090958E0F9F1F08950F931F93CF93DF9396
:1035F000CDB7DEB72E970FB6F894DEBF0FBECDBFA6
:103600000E891F898EE08C831A8309838FEF9FE7D1
:103610009E838D83AE01465E5F4F688D798DCE01AE
:10362000019648D0EF81F885E00FF11F10822E96A9
:103630000FB6F894DEBF0FBECDBFDF91CF911F91C3
:103640000F9108950F931F93CF93DF93CDB7DEB7FC
:103650002E970FB6F894DEBF0FBECDBF8C01FA01D6
:103660008EE08C831A83098377FF02C060E070E8E4
:10367000CB0101979E838D83A901BF01CE010196E5
:1036800019D04D815E8157FD0AC02F8138854217C0
:1036900053070CF49A01F801E20FF31F10822E96E3
:1036A0000FB6F894DEBF0FBECDBFDF91CF911F9153
:1036B0000F9108952F923F924F925F926F927F9257
:1036C0008F929F92AF92BF92CF92DF92EF92FF9232
:1036D0000F931F93CF93DF93CDB7DEB72B970FB622
:1036E000F894DEBF0FBECDBF6C017B018A01FC01E7
:1036F00017821682838181FFBFC1CE0101963C01F2
:10370000F6019381F70193FD859193FF81917F01EC
:10371000882309F4ADC1853239F493FD859193FF77
:1037200081917F01853221F4B60190E0D6D1E8CFB6
:10373000912C212C312CFFE1F315D8F08B3279F04C
:1037400038F4803279F08332A1F4232D20611DC03A
:103750008D3261F0803369F4232D216016C0832DF2
:103760008260382EE32DE4603E2E2AC0F32DF860EF
:103770001DC037FC2DC020ED280F2A3040F08E32BE
:10378000B9F436FC75C1232D2064322E19C036FEE3
:1037900006C08AE0989E200D1124922E11C0EAE006
:1037A0002E9E200D1124222EF32DF0623F2E08C0F4
:1037B0008C3621F4832D8068382E02C0883641F47F
:1037C000F70193FD859193FF81917F018111B3CF23
:1037D000982F9F7D9554933028F40C5F1F4F9FE3E3
:1037E00099830DC0833631F0833771F0833509F04A
:1037F00055C020C0F801808189830E5F1F4F882447
:103800008394912C530112C02801F2E04F0E511CF9
:10381000F801A080B18036FE03C0692D70E002C0BF
:103820006FEF7FEFC5014ED14C018201F32DFF7781
:103830003F2E15C0280122E0420E511CF801A08045
:10384000B18036FE03C0692D70E002C06FEF7FEFDC
:10385000C5012DD14C01F32DF0683F2E820133FCC0
:1038600019C0822D90E088169906A0F4B60180E276
:1038700090E033D12A94F5CFF50137FC859137FEDE
:1038800081915F01B60190E028D121102A9421E0B6
:10389000821A91088114910479F7E1C0843611F0FD
:1038A000893639F5F80137FE07C060817181828160
:1038B00093810C5F1F4F08C060817181072E000C3F
:1038C000880B990B0E5F1F4FF32DFF763F2E97FF4E
:1038D00009C090958095709561957F4F8F4F9F4F50
:1038E000F0683F2E2AE030E0A30133D1882E8618FD
:1038F00044C0853731F4232D2F7EB22E2AE030E0EC
:1039000025C0932D997FB92E8F36C1F018F48835D4
:1039100079F0AEC0803719F0883721F0A9C0E92FBF
:10392000E061BE2EB4FE0DC0FB2DF460BF2E09C0B9
:1039300034FE0AC0292F2660B22E06C028E030E0EF
:1039400005C020E130E002C020E132E0F801B7FE1E
:1039500007C060817181828193810C5F1F4F06C017
:103960006081718180E090E00E5F1F4FA301F1D074
:10397000882E8618FB2DFF773F2E36FE0DC0232D97
:103980002E7FA22E891458F434FE0BC032FC09C0DD
:10399000832D8E7EA82E05C0B82CA32C03C0B82C76
:1039A00001C0B92CA4FE0FC0FE01E80DF11D8081FD
:1039B000803321F49A2D997EA92E09C0A2FE06C05B
:1039C000B394B39404C08A2D867809F0B394A3FC11
:1039D00010C0A0FE06C0B21480F4280C922C9B18D4
:1039E0000DC0B21458F4B60180E290E076D0B394E2
:1039F000F8CFB21418F42B1802C0982C212CA4FE76
:103A00000FC0B60180E390E068D0A2FE16C0A1FC12
:103A100003C088E790E002C088E590E0B6010CC0E2
:103A20008A2D867851F0A1FE02C08BE201C080E2AF
:103A3000A7FC8DE2B60190E050D0891430F4B601B5
:103A400080E390E04AD09A94F8CF8A94F301E80D8D
:103A5000F11D8081B60190E040D08110F6CF222088
:103A600009F44ECEB60180E290E037D02A94F7CF29
:103A7000F6018681978102C08FEF9FEF2B960FB6DC
:103A8000F894DEBF0FBECDBFDF91CF911F910F9194
:103A9000FF90EF90DF90CF90BF90AF909F908F906E
:103AA0007F906F905F904F903F902F900895FC0112
:103AB0000590615070400110D8F7809590958E0F59
:103AC0009F1F0895FC016150704001900110D8F7CC
:103AD000809590958E0F9F1F08950F931F93CF93FE
:103AE000DF93FB01238121FD03C08FEF9FEF2CC0EB
:103AF00022FF16C046815781248135814217530722
:103B000044F4A081B1819D012F5F3F4F3183208319
:103B10008C93268137812F5F3F4F3783268314C0D4
:103B20008B01EC01FB010084F185E02D1995892BB7
:103B3000E1F6D80116968D919C91179701961796EC
:103B40009C938E931697CE01DF91CF911F910F9189
:103B50000895FA01AA27283051F1203181F1E89423
:103B60006F936E7F6E5F7F4F8F4F9F4FAF4FB1E070
:103B70003ED0B4E03CD0670F781F891F9A1FA11D6B
:103B8000680F791F8A1F911DA11D6A0F711D811D6C
:103B9000911DA11D20D009F468943F912AE0269F31
:103BA00011243019305D3193DEF6CF010895462F90
:103BB0004770405D4193B3E00FD0C9F7F6CF462F71
:103BC0004F70405D4A3318F0495D31FD40524193DA
:103BD00002D0A9F7EACFB4E0A69597958795779597
:103BE0006795BA95C9F700976105710508959B011E
:103BF000AC010A2E06945795479537952795BA95A7
:103C0000C9F7620F731F841F951FA01D0895A1E2BD
:103C10001A2EAA1BBB1BFD010DC0AA1FBB1FEE1F46
:103C2000FF1FA217B307E407F50720F0A21BB30B91
:103C3000E40BF50B661F771F881F991F1A9469F70D
:103C400060957095809590959B01AC01BD01CF0169
:103C5000089509D0A59F900DB49F900DA49F800D4D
:103C6000911D11240895A29FB001B39FC001A39F8D
:103C7000700D811D1124911DB29F700D811D1124A5
:103C8000911D0895EE0FFF1F881F8BBF0790F691BF
:103C9000E02D19940F931F93CF93DF9382309105FA
:103CA00010F482E090E0E091CC07F091CD0720E0A5
:103CB00030E0A0E0B0E0309719F1408151810281FD
:103CC000138148175907C8F08417950769F41097AE
:103CD00031F012960C93129713961C9327C0009301
:103CE000CC071093CD0722C02115310519F04217DA
:103CF000530718F49A01BD01EF01DF01F801DBCF92
:103D000021153105F9F0281B390B2430310580F4D9
:103D10008A819B816115710521F0FB019383828368
:103D200004C09093CD078093CC07FE01329644C027
:103D3000FE01E20FF31F81939193225031093983E1
:103D400028833AC02091CA073091CB07232B41F436
:103D500020917002309171023093CB072093CA07F3
:103D600020916E0230916F022115310541F42DB77B
:103D70003EB74091720250917302241B350BE091C3
:103D8000CA07F091CB07E217F307A0F42E1B3F0BF5
:103D90002817390778F0AC014E5F5F4F24173507BD
:103DA00048F04E0F5F1F5093CB074093CA07819393
:103DB000919302C0E0E0F0E0CF01DF91CF911F913D
:103DC0000F910895CF93DF93009709F481C0FC0110
:103DD000329713821282A091CC07B091CD07109731
:103DE00081F420813181820F931F2091CA07309185
:103DF000CB072817390751F5F093CB07E093CA0793
:103E000067C0ED0120E030E0CE17DF0740F44A81C3
:103E10005B819E0141155105F1F0EA01F5CFD38395
:103E2000C28340815181840F951FC817D90759F467
:103E300088819981840F951F0296918380838A815E
:103E40009B81938382832115310529F4F093CD075B
:103E5000E093CC073DC0E901FB83EA834991599186
:103E6000C40FD51FEC17FD0761F480819181840F89
:103E7000951F0296E90199838883828193819B83B0
:103E80008A83E0E0F0E012968D919C911397009761
:103E900019F0FD01DC01F7CF8D919C9111979D01E7
:103EA0002E5F3F4F820F931F2091CA073091CB079F
:103EB0002817390769F4309729F41092CD0710922A
:103EC000CC0702C013821282B093CB07A093CA071B
:103ED000DF91CF9108956F927F928F929F92AF92D0
:103EE000BF92CF92DF92EF92FF920F931F93CF93E7
:103EF000DF93009781F4CB01DF91CF911F910F9158
:103F0000FF90EF90DF90CF90BF90AF909F908F90F9
:103F10007F906F90BFCEFC01E60FF71F9C012250EF
:103F20003109E217F30708F4A5C0EC01D9010D919E
:103F30001C91119706171707A8F00530110508F412
:103F400097C0C80104978617970708F491C00250DC
:103F50001109061B170B019311936D937C93CF01ED
:103F600031DF86C05B01A01AB10A4C01800E911EA0
:103F7000A091CC07B091CD07612C712CE12CF12CD4
:103F8000109709F446C08D919C911197A815B90519
:103F9000B1F56C0142E0C40ED11CCA14DB0478F107
:103FA0004C018A189B08640142E0C40ED11C129691
:103FB000BC9012971396AC91B5E0CB16D10440F0AB
:103FC000B282A38391828082D9016D937C9309C0D0
:103FD0000E5F1F4F800F911FF90191838083EB2D9E
:103FE000FA2FE114F10431F0D7011396FC93EE930C
:103FF00012973EC0F093CD07E093CC0739C0681606
:10400000790608F43C017D0112960D90BC91A02D1B
:10401000B7CF8091CA079091CB0788169906E1F433
:1040200066167706C8F480916E0290916F02009731
:1040300041F48DB79EB74091720250917302841B78
:10404000950BE817F907B0F4F093CB07E093CA0794
:10405000F901718360830CC0CB011CDE7C010097E9
:1040600049F0A801BE011BD0CE01ACDEC70104C0DF
:10407000CE0102C080E090E0DF91CF911F910F91BF
:10408000FF90EF90DF90CF90BF90AF909F908F9078
:104090007F906F90089581E090E0F89440C0FB011C
:1040A000DC0102C001900D9241505040D8F70895B4
:1040B0006817790768F4FB01DC01E40FF51FA40F12
:1040C000B51F02C002900E9241505040D8F708959B
:1040D000E6CFDC0101C06D9341505040E0F70895F8
:1040E000FB01DC018D91019080190110D9F3990B2E
:1040F0000895FB01DC0101900D920020E1F7089585
:10410000FB01DC014150504048F001900D9200202D
:10411000C9F701C01D9241505040E0F70895F8944E
:02412000FFCFCF
:10412200B70BB70BB70BB70BB70BB70BB70BB70B7D
:1041320062726F6B65722E686976656D712E636F40
:104142006D00426D773331386B723530393273001E
:104152004E696D6E756C2D322E3447487A001F1FE2
:104162001F1F1F1F1F001E1E1E1E1E1E1E001C1CA8
:104172001C1C1C1C1C0018181818181818001010E9
:10418200101010101000FFFFFFFFFFFFFFFF0000E5
:10419200CE07800000044D51545404160000000064
:1041A200710C1E11180BBD0C4A0B280B3C0B0000A6
:1041B200000052081E119E029D0200000000FE0D2A
:1041C200DC0D9E029D0200000000870241059E0256
:1041D2007002F5030105C104FF054206FF037704DF
:1041E2007A07680200000000820800000000B80B95
:1041F2003F0446045004590465042B4950442C00E2
:104202005B576946694573705D20003E004F4E3131
:1042120000416C61726D21004275647A696B2035D0
:104222003A3035004F4E32004275647A696B20365F
:104232003A3430004C6F6164696E673A200045532E
:104242005020696E697469616C697A652020003456
:10425200302500436F6E6E65637420746F2057695A
:10426200466920005769466920736869656C642055
:104272006E6F742070726573656E7400417474653C
:104282006D7074696E6720746F20636F6E6E656304
:104292007420746F2057504120535349443A2000F0
:1042A20036302500436F6E6E65637420746F204D47
:1042B2005154542000596F7527726520636F6E6EDA
:1042C200656374656420746F20746865206E65741C
:1042D200776F726B00383025003130302500417421
:1042E20074656D7074696E6720636F6E6E6563745A
:1042F200696F6E20005265636F6E6E656374696EDE
:10430200672100414D65676100636F6E6E6563747E
:104312006564002074727920616761696E20696E3C
:104322002035207365636F6E6473004F637A656B2B
:104332006977616E6965006E61206275647A696B86
:1043420020202020202020006661696C6564006BBB
:104352006D2F62757A7A65722F696E707574000DB1
:104362000A4F4B0D0A000D0A4552524F520D0A00D8
:104372000D0A4641494C0D0A000D0A53454E442090
:104382004F4B0D0A0020434F4E4E4543540D0A0039
:0A4392002C434C4F5345440D0A0024
:00000001FF
