:1000000014C1000043C1000041C100003FC1000015
:100010003DC100003BC1000039C1000037C10000F4
:1000200035C1000033C1000031C100002FC1000004
:100030002DC100002BC1000029C1000027C1000014
:1000400025C1000023C1000021C100001FC1000024
:100050001DC100001BC1000019C100008EC50000B9
:1000600015C100000C946E0B0C94450B0FC10000E1
:100070000DC100000BC1000009C1000007C1000054
:1000800005C1000003C1000001C10000FFC0000065
:10009000FDC00000FBC00000F9C00000F7C0000078
:1000A000F5C00000F3C00000F1C00000EFC0000088
:1000B000EDC00000EBC00000E9C00000E7C0000098
:1000C000E5C00000E3C00000E1C00000DFC00000A8
:1000D000DDC00000DBC00000D9C00000D7C00000B8
:1000E000D5C00000850288028B028E029102940224
:1000F00097029A029D02A002A302A602D20BD50B80
:10010000C40BC80BCC0B0C0CD90BDD0BE30BE70BB2
:10011000EB0BF10BF50BF90B0C0CFF0B030C070CA5
:1001200000000A0B02090C0D0E0807030401000071
:1001300000000000000000000000000000000000BF
:10014000000000000000000000000000121110007C
:10015000000000000000000000000000000000009F
:1001600000000000000000002200250028002B00F5
:100170002E003100340002010000050108010B01CE
:1001800000002100240027002A002D003000330049
:1001900001010000040107010A0105050505070525
:1001A00008080808020202020A0A080804040404F3
:1001B000010101010101010103030303030303031F
:1001C000040707070C0C0C0C0C0C0C0C02020202AE
:1001D00006060606060606060B0B0B0B0B0B0B0B97
:1001E0000102102020080810204010204080020149
:1001F000020108040201010204081020408080402E
:10020000201008040201800402018040201008042C
:1002100002010804020101020408102040800102CA
:100220000408102040805B10FF1011241FBECFEF88
:10023000D1E2DEBFCDBF00E00CBF14E0A0E0B2E031
:10024000EEEEF8E200E00BBF02C007900D92AE3771
:10025000B107D9F726E0AEE7B4E001C01D92AE3495
:10026000B207E1F711E0C4E1D1E000E006C0219758
:100270000109802FFE010E942812C331D10780E0BE
:100280000807A9F70E94EA0E0C946614B9CE809173
:10029000ED04882329F08091EE049091EF040895F5
:1002A00080E995E008958091F204882321F09091EF
:1002B000820481E08927089570E0DC015296ED9177
:1002C000FC915397E60FF71F2081222359F0660F08
:1002D000771F5096ED91FC915197E60FF71F8081A3
:1002E0009181089580E090E008956F927F928F92BF
:1002F0009F92AF92BF92CF92DF92EF92FF920F93B5
:100300001F93CF93DF93EC01C2DFDC011B962C918E
:100310001B97213009F048C05296ED91FC915397FC
:10032000608000E010E0712C4E01BFE48B0E911C48
:100330007E01E9E4EE0EF11C6E01FDE4CF0ED11C4E
:100340005E0189E0A80EB11C061517056CF5CE01FB
:100350009EDF60E0B1DF800F911FDC018C91F40122
:100360002081318120343105E1F0D701ED91FC91FC
:1003700011979F012F5F3F4F11963C932E938083DF
:10038000F401808191810196918380832D913C912C
:10039000D6018D919C912817390719F4F701B18284
:1003A000A0820F5F1F4FD0CFDF91CF911F910F9190
:1003B000FF90EF90DF90CF90BF90AF909F908F9085
:1003C0007F906F900895CF93DF93EC016CDF8823CB
:1003D000A1F01092F20481E08E831F9284E08F934B
:1003E0001F921F92DF93CF930E94A40C1E820F9046
:1003F0000F900F900F900F900F90DF91CF91089575
:10040000CF93DF93EC014FDF811114C081E0809323
:10041000F2048E831F9283E08F931F921F92DF93CB
:10042000CF930E94A40C1E820F900F900F900F90FC
:100430000F900F90DF91CF910895CF93DF93EC0150
:1004400026DF3B81FC01218532131FC083858F3F4E
:1004500099F48A818823C9F080E995E024DF81112D
:1004600014C080E995E0CCDFEC81FD81199580E92D
:1004700095E0DF91CF91A7CFE881F9810280F381E8
:10048000E02DCE01DF91CF911994DF91CF910895A6
:100490000F931F93CF93DF93EC011F8288818823F2
:1004A000E1F000E010E0288530E0888999890217A2
:1004B00013077CF49801220F331FFC01E20FF31F96
:1004C00080819181009711F00E94C8120F5F1F4F29
:1004D000EACF18860E94C81218828981882329F0E1
:1004E0008A899B890E94C8121982DF91CF911F913E
:1004F0000F91089590E08C30910560F5FC018827FC
:10050000EE58FF4F8F4F0C94281284E392E020C0E6
:1005100087E492E01DC080E692E01AC08BE792E08B
:1005200017C08DE892E014C086EA92E011C08AEB11
:1005300092E00EC08FED92E00BC08BEF92E008C00E
:1005400086E193E005C084E393E002C08BE493E08E
:100550000C94DD0D0895833091F028F4813049F03A
:10056000823051F00895853081F060F0863081F05E
:1005700008958CE593E00EC082E793E00BC084E819
:1005800093E008C084E993E005C081EB93E002C0EA
:1005900083EC93E00C94DD0D2F923F925F926F926B
:1005A0007F928F929F92AF92BF92CF92DF92EF9203
:1005B000FF920F931F93CF93DF93CDB7DEB7629770
:1005C0000FB6F894DEBF0FBECDBF7C012DB73EB78E
:1005D0003A8B298B5CDE6C01DC011B968C9181309F
:1005E00009F0AEC1EDB7FEB7F88BEF87C7014FDE5C
:1005F000DC015296ED91FC915397A080B12CC5017E
:100600000196EDB7FEB7E81BF90B0FB6F894FEBFE5
:100610000FBEEDBF2DB73EB72F5F3F4F69013901C8
:10062000812C912C8A149B047CF4C70130DE60E09D
:1006300043DE880D991DDC018C91F30181933F010C
:10064000FFEF8F1A9F0AEECFF601EA0DFB1D108215
:10065000C7011DDE5C0162E02FDE4C0163E0C501D5
:100660002BDE5C0180E995E01EDE811161C1D401C1
:100670005C90F501B080D70116968D919C911797EB
:10068000892B19F080E995E0BBDE11E0B11001C0C3
:1006900010E0F701868180FF47C02DB73EB73E8747
:1006A0002D87C701F4DDDC015296ED91FC91539743
:1006B000A180B12CC5010196EDB7FEB7E81BF90B7F
:1006C0000FB6F894FEBF0FBEEDBF2DB73EB72F5F3C
:1006D0003F4F39011901812C912C8A149B047CF421
:1006E000C701D5DD61E0E8DD880D991DDC018C9145
:1006F000F10181931F01FFEF8F1A9F0AEECFF301E3
:10070000EA0DFB1D1082D7011D96ED91FC911E97FD
:10071000212F452DB301C6011995ED85FE850FB634
:10072000F894FEBF0FBEEDBFD70116968C9181FFE6
:100730000BC0C701ACDDDC015296ED91FC915397E3
:100740002181223009F445C1F701868182FF0BC067
:10075000C7019DDDDC015296ED91FC9153972181FB
:10076000223009F445C1F701868183FF0BC0C70120
:100770008EDDDC015296ED91FC915397218124305E
:1007800009F445C1F701868184FF13C0C7017FDDED
:100790005C0161E091DDF501A289B389F701A588CB
:1007A000B688012F252D11964C91BC01C601F5018B
:1007B0001995D70116968C9185FF5DC0EDB7FEB7F0
:1007C000FE87ED87C70163DDDC015296ED91FC9158
:1007D0005397A180B12CC5010196EDB7FEB7E81B78
:1007E000F90B0FB6F894FEBF0FBEEDBF2DB73EB7A5
:1007F0002F5F3F4F39011901812C912C8A149B04E2
:100800007CF4C70144DD61E057DD880D991DDC01F2
:100810008C91F10181931F01FFEF8F1A9F0AEECF98
:10082000F301EA0DFB1D1082D7015796AD90BC90E5
:100830005897B301CE0107960E94590CB601CE011C
:1008400001960E94590C212F452DBE01695F7F4FF3
:10085000CE010196F501199589819A810E94C812ED
:100860008F8198850E94C8122D853E850FB6F89419
:100870003EBF0FBE2DBFD70116968C9186FF0BC0D1
:10088000C70105DDDC015296ED91FC915397218162
:10089000223009F4D1C0F701868187FF0BC0C70160
:1008A000F6DCDC015296ED91FC91539721812230C8
:1008B00009F4DCC0F7018681978190FF0BC0C70166
:1008C000E6DCDC015296ED91FC91539721812430B6
:1008D00009F4E4C0F7018681978191FF1FC0C70129
:1008E000D6DC5C0161E0E8DC4C01D5015296ED916B
:1008F000FC9153977180F701A78CB0A0B601CE018F
:100900000196D7D7012F252D472DB401CE01019691
:10091000F501199589819A810E94C812D70116960E
:100920008D919C911797892B19F080E995E04BDD0B
:10093000EF85F8890FB6F894FEBF0FBEEDBFCDC0AE
:10094000823031F560E0C601B7DCDC011C9111306A
:1009500019F4F701108709C08EEF810F823010F073
:10096000153019F4D70118961C9280E995E09BDCAC
:100970008111B3C0F7018185882309F4AEC080E9F5
:1009800095E03EDDD7011B96ED91FC911C971BC0B5
:10099000833009F0A2C080E995E085DC81119DC01B
:1009A00060E0C60189DCFC01D7011A969C9199236D
:1009B00009F493C0108180E995E022DDD70191967A
:1009C000ED91FC919297812F199580E995E0FBDCE0
:1009D00084C061E071DCFC0160817181D7011F96E8
:1009E000ED91FC915097212F452DC6011995ACCE64
:1009F00061E062DCFC0160817181D7015196ED916B
:100A0000FC915297212F452DC6011995ACCE61E07E
:100A100053DCFC01B080318192818381D7015396F0
:100A2000ED91FC915497012F252D4B2D532F692FBC
:100A3000782FC6011995A6CE61E03EDCFC018080CE
:100A40009180D7015996AD90BC905A97B601CE01CE
:100A500001962FD7212F452DB401CE010196F50126
:100A6000199589819A810E94C81215CF61E024DC12
:100A7000DC018D909C90F701A38CB48CB601CE0163
:100A8000019617D7212F452DB401CE010196F5010E
:100A9000199589819A810E94C8120CCF61E00CDC03
:100AA000FC017080818092806380D7015D96AD905B
:100AB000BC905E97B601CE010196FBD6012F252D85
:100AC000472D582D692D762DCE010196F5011995EA
:100AD00089819A810E94C812FDCEE989FA890FB6F0
:100AE000F894FEBF0FBEEDBF62960FB6F894DEBF5E
:100AF0000FBECDBFDF91CF911F910F91FF90EF906F
:100B0000DF90CF90BF90AF909F908F907F906F902D
:100B10005F903F902F9008953FB7F894809188049C
:100B200090918904A0918A04B0918B0426B5A89B6A
:100B300005C02F3F19F00196A11DB11D3FBFBA2F6F
:100B4000A92F982F8827820F911DA11DB11DBC01CF
:100B5000CD0142E0660F771F881F991F4A95D1F794
:100B600008952FB7F8946091840470918504809162
:100B70008604909187042FBF08951F920F920FB69D
:100B80000F9211242F933F938F939F93AF93BF9313
:100B90008091840490918504A0918604B09187048B
:100BA0003091830423E0230F2D3720F40196A11DFB
:100BB000B11D05C026E8230F0296A11DB11D20938B
:100BC00083048093840490938504A0938604B09357
:100BD00087048091880490918904A0918A04B0913F
:100BE0008B040196A11DB11D809388049093890404
:100BF000A0938A04B0938B04BF91AF919F918F9182
:100C00003F912F910F900FBE0F901F9018958F92CC
:100C10009F92AF92BF92CF92DF92EF92FF920F938B
:100C20001F93CF93DF931F92CDB7DEB76F3F2FEFA8
:100C3000720709F428C28B017C0193DF80907E0447
:100C400090907F04A0908004B0908104DC01CB01DF
:100C500088199909AA09BB09813D9740A105B105E9
:100C600048F089288A288B2829F0D70117968C917B
:100C7000811106C276DF60937E0470937F048093B7
:100C8000800490938104F7019781911113C00F3F65
:100C9000110581F4C701FCDB81E0D70117968C9325
:100CA000179751961C921E92509753961C921E9223
:100CB00052971FC0F7018485843041F4992309F4C9
:100CC000E2C116861586078785E0C5C0853059F5CF
:100CD000992309F4D8C1D7012785C22ED12C8FEFD3
:100CE00090E08C199D0908171907B9F5211104C066
:100CF00089E01C968C93C7C1C601880F991F0E947A
:100D00003012F701918B808B11E01083C6010E9495
:100D10003012D70153969C938E93529711961C9341
:100D2000119786E0E6CF8630D9F0873009F053C0BE
:100D3000992309F4A8C1F701258530E00288F389D9
:100D4000E02DE20FF31F6081862F90E04FEF50E01F
:100D5000481B590B0417150779F0F70117824EC18C
:100D6000992309F490C1D70185850288F389E02D84
:100D7000E80FF11D008368C0220F331FD701509682
:100D80000D911C915197662369F0020F131F0E9469
:100D90003012F80191838083D7011C968C911C97A7
:100DA0008F5F12C0F801E20FF31F11821082F7016A
:100DB000168685858F5F85879785891303C089E0AF
:100DC000848704C086E0D7011C968C93F701808548
:100DD0008F5F808758C1883009F03FC0992309F49C
:100DE00052C1D701858520899189E22FF92FE80F1B
:100DF000F11DE80FF11D80819181009759F01E9639
:100E00002C911E9731E0320F1E963C93FC01E20FAD
:100E1000F11D0083F70185850288F389E02DE80F35
:100E2000F11DD7011E962C911E97908129132BC17D
:100E30001E961C921E978F5F1D968C931D971F9672
:100E40009C911F97891305C01C968C911C978F5FEE
:100E500050CF86E0F701848716C1893009F0D1C0F0
:100E6000992309F410C1048B0111C8C01782809125
:100E70009905811188C08385823051F41282838163
:100E8000882309F49AC00588F689E02D80E00CC01B
:100E9000813061F4F70182838381882309F48DC056
:100EA0000588F689E02D81E0199587C0833079F4B3
:100EB0001F9281E08F931F921F92FF92EF9244D571
:100EC0000F900F900F900F900F900F9076C085307D
:100ED00009F073C060E0C701EFD94BE050E0BC01FE
:100EE00080ED93E00E943514892B09F066C01982C9
:100EF000D7015296ED91FC915397A180B12C00E05F
:100F000010E0C12CD12C0A151B0564F461E0C70167
:100F1000D3D9800F911FFC018081C80ED11C0F5FB7
:100F20001F4FF1CFC98284E090E00E9430128C0103
:100F3000DC0113961C92139781E08C93CE010196ED
:100F400012969C938E93119784E090E00E94301249
:100F5000FC01138287E180838CED93E0928381838F
:100F60001F930F93FF93EF9382E08F9385E08F930E
:100F70001F921F92FF92EF92E7D40FB6F894DEBF54
:100F80000FBECDBF1AC02EE8C22E24E0D22E00E044
:100F900010E08091EC0490E00817190774F4D60172
:100FA0008D919D916D01DC01ED91FC910190F0819D
:100FB000E02D19950F5F1F4FECCFF7018481882337
:100FC000E9F081858823D1F0C7011ADAD70150965C
:100FD0000D911C91519752962D913C915397579694
:100FE000ED91FC9158971F964C911F971B966C9111
:100FF0001B9719968C911995C701E5D9C70148DA55
:1010000042C0992309F43FC0813001F5602FF701F8
:101010000187002391F1948191112FC04091EC043C
:1010200050E0EEE8F4E020E030E02417350754F417
:10103000A191B19113967C91671301C091E02F5F4C
:101040003F4FF3CF992309F488CE17C0823089F43B
:1010500002872FEF30E0201B310994E0359527956A
:101060009A95E1F70F7010E02017310731F01782E1
:1010700004C0833011F4F70103878F5FD70139CEA5
:10108000C70106DAF7CD0F90DF91CF911F910F9135
:10109000FF90EF90DF90CF90BF90AF909F908F9098
:1010A0000895CF93DF9380918C0481112FC080919C
:1010B000F0049091F104DC01ED91FC910084F18544
:1010C000E02D1995892B11F18091F0049091F10494
:1010D000DC01ED91FC910284F385E02D1995EC0182
:1010E000BC01772780E995E092DD80919505882302
:1010F000F1F280E995E084D9E091A905F091AA0583
:101100008C2F199580E995E05ED9D1CFDF91CF91F1
:101110000895CF93DF93EC0180918D04882359F0DB
:101120008091F0049091F104DC01ED91FC9101902B
:10113000F081E02D19958E81811107C062E070E089
:1011400080E090E0DF91CF917CC3DF91CF91089553
:10115000FC0111861286138614861586168617865C
:10116000148A1086108211821092820417821282D1
:10117000138214821582168208958F929F92AF92E5
:10118000BF92CF92DF92EF92FF920F931F93CF9374
:10119000DF93CDB7DEB76C970FB6F894DEBF0FBE06
:1011A000CDBF8B01BC0184EF93E00E945614892BC4
:1011B00009F020C1B80187E694E00E945614892BFB
:1011C00031F461E08DE0C0D287E694E00CC0B80154
:1011D00083E094E00E945614892B39F460E08DE09E
:1011E000B3D283E094E054D5D4C0B80187E094E052
:1011F0000E945614892B09F0CCC0FF24F394FC8E76
:1012000084E090E00E943012FC011382F082CE0153
:101210004C9692838183FF93EF93FF9282E08F93AA
:101220001F9285E1E82EEF9290E9C92E95E0D92E24
:10123000DF92CF9289D31F92FF921F92EF92DF929B
:10124000CF9282D38EDC0FB6F894DEBF0FBECDBF37
:101250002091F2044B015C0130E1830E37E2931ED2
:10126000A11CB11C2223A9F1CE0101966C0170DFF3
:10127000D092EF04C092EE04F092ED0472DC681597
:1012800079058A059B0508F498C08885811195C069
:1012900027C080919705882349F18091F0049091AF
:1012A000F104DC01ED91FC910084F185E02D1995AC
:1012B000892B79F08091F0049091F104DC01ED919B
:1012C000FC910284F385E02D1995BC0180E995E03D
:1012D0009EDC47DC681579058A059B05F0F2D9CFBD
:1012E0001092EF041092EE041092ED04198284E043
:1012F00090E00E9430125C01FC01138281E0808347
:10130000CE0101969283818384E090E00E943012A6
:101310006C01DC0113961C92139780E18C938BE097
:1013200094E012969C938E93119784E090E00E9433
:1013300030127C01FC01138283E080838CE194E015
:101340009283818384E090E00E943012FC0113823A
:101350008EE1808320E234E032832183BF92AF921A
:10136000DF92CF92FF92EF92FF93EF9394E09F93DF
:1013700092E09F931F928F9380E995E09F938F93C4
:10138000E3D28FE394E084D40FB6F894DEBF0FBEAF
:10139000CDBFB80189E494E00E945614892B11F462
:1013A00061E008C0B8018BE494E00E945614892BD8
:1013B00009F560E08DE0C8D11DC08091F0049091E6
:1013C000F104DC01ED91FC910084F185E02D19958B
:1013D000892B09F453CF8091F0049091F104DC0142
:1013E000ED91FC910284F385E02D1995BC01C601B5
:1013F0000EDC44CF6C960FB6F894DEBF0FBECDBFA7
:10140000DF91CF911F910F91FF90EF90DF90CF90E0
:10141000BF90AF909F908F900895CF92DF92EF9200
:10142000FF920F931F93CF93DF936C017A018B018F
:10143000C0E0D0E0CE15DF0581F0D8016D918D01BF
:10144000D601ED91FC910190F081E02DC601199536
:10145000892B11F02196EECF7E01C701DF91CF914C
:101460001F910F91FF90EF90DF90CF900895089516
:1014700080E090E00895FC01538D448D252F30E0ED
:10148000842F90E0821B930B541710F0CF96089591
:1014900001970895FC01918D828D981761F0828DDE
:1014A000DF01A80FB11D5D968C91928D9F5F9F7398
:1014B000928F90E008958FEF9FEF0895FC01918D3A
:1014C000828D981731F0828DE80FF11D858D90E0A7
:1014D00008958FEF9FEF0895FC01918D228D892F44
:1014E00090E0805C9F4F821B91098F73992708952C
:1014F00083EF94E0F1DF21E0892B09F420E0822FD3
:101500000895FC01848DDF01A80FB11DA35ABF4FC0
:101510002C91848D90E001968F739927848FA689F2
:10152000B7892C93A089B1898C91837080648C9346
:10153000938D848D981306C00288F389E02D8081F5
:101540008F7D80830895EF92FF920F931F93CF9327
:10155000DF93EC0181E0888F9B8D8C8D981305C003
:10156000E889F989808185FD25C0F62E0B8D10E074
:101570000F5F1F4F0F731127E02E8C8DE8120BC0E9
:101580000FB607FCFACFE889F989808185FFF5CF8E
:10159000CE01B7DFF2CF8B8DFE01E80FF11DE35ACC
:1015A000FF4FF0829FB7F8940B8FEA89FB89808107
:1015B00080620AC09FB7F894EE89FF896083E8894A
:1015C000F98980818370806480839FBF81E090E08F
:1015D000DF91CF911F910F91FF90EF900895CF93DE
:1015E000DF93EC01888D8823C1F0EA89FB89808133
:1015F00085FD05C0A889B9898C9186FD0EC00FB6FE
:1016000007FCF5CF808185FFF2CFA889B9898C913D
:1016100085FFEDCFCE0175DFE8CFDF91CF91089543
:1016200067DF811125C080E090E0892B41F080E0E8
:1016300090E0892B21F00E94000081111BC080E006
:1016400090E0892B41F080E090E0892B21F00E940E
:101650000000811112C080E090E0892B99F080E0B9
:1016600090E0892B79F00E940000811109C0089553
:1016700018DDD9CF0E940000E2CF0E940000EBCF1E
:101680000C94000008950E9431141F920F920FB61F
:101690000F9211240BB60F922F933F934F935F93AA
:1016A0006F937F938F939F93AF93BF93EF93FF932A
:1016B00083EF94E026DFFF91EF91BF91AF919F916F
:1016C0008F917F916F915F914F913F912F910F90EB
:1016D0000BBE0F900FBE0F901F9018951F920F9288
:1016E0000FB60F9211240BB60F922F938F939F93E7
:1016F000EF93FF93E0910305F09104058081E09161
:101700000905F0910A0582FD12C0908180910C05B7
:101710008F5F8F7320910D05821751F0E0910C05BA
:10172000F0E0ED50FB4F958F80930C0501C0808158
:10173000FF91EF919F918F912F910F900BBE0F9082
:101740000FBE0F901F901895362F90E0FC01E05EC1
:10175000FE4F4491FC01E052FE4F2491FC01E656FD
:10176000FE4F9491992309F46BC0442309F454C0AB
:1017700050E0FA013197E231F10508F04DC08827B9
:10178000E258FF4F8F4F64C6809180008F7707C06B
:10179000809180008F7D03C080918000877F80933F
:1017A00080003AC084B58F7702C084B58F7D84BD38
:1017B00033C08091B0008F7703C08091B0008F7DDF
:1017C0008093B00029C0809190008F7707C08091EE
:1017D00090008F7D03C080919000877F8093900060
:1017E0001BC08091A0008F7707C08091A0008F7DE3
:1017F00003C08091A000877F8093A0000DC08091DE
:1018000020018F7707C0809120018F7D03C08091D8
:101810002001877F80932001E92FF0E0EE0FFF1F6A
:10182000EA59FE4FA591B4919FB7F894311104C0C5
:101830008C912095282302C0EC912E2B2C939FBFD6
:1018400008958F929F92AF92BF92CF92DF92EF92C4
:10185000FF926B017C0160D94B015C01C114D10482
:10186000E104F104E9F058D9DC01CB0188199909A8
:10187000AA09BB09883E9340A105B10578F321E090
:10188000C21AD108E108F10888EE880E83E0981E9C
:10189000A11CB11CC114D104E104F10421F7DECF75
:1018A000FF90EF90DF90CF90BF90AF909F908F9080
:1018B0000895EF92FF920F931F93CF93DF93EC0164
:1018C000198218821B821A821D821C826115710581
:1018D000A1F17B01FB0101900020E9F731978F0115
:1018E000061B170BB8016F5F7F4F80E090E0D9D6E1
:1018F000009759F0998388831B830A832C813D814B
:10190000232B79F4FC0110820CC088819981009707
:1019100009F03ED6198218821D821C821B821A820F
:101920000CC01D830C83B70188819981DF91CF9111
:101930001F910F91FF90EF90C2C7DF91CF911F9140
:101940000F91FF90EF9008955F926F927F928F9228
:101950009F92AF92BF92CF92DF92EF92FF920F933E
:101960001F93CF93DF93CDB7DEB76B970FB6F89485
:10197000DEBF0FBECDBF0EA51FA558A8CBA8F1D8BE
:10198000552009F46FC020912B06222309F46AC068
:1019900080902C0690902D06A0902E06B0902F06D9
:1019A00081149104A104B10409F45CC0DC01CB01F1
:1019B00088199909AA09BB090196A11DB11D883C86
:1019C0009105A105B10508F04DC08091F20428EC05
:1019D000820E911CA11CB11C882309F43CC0CE01CD
:1019E00001967C01B5DBF092EF04E092EE0481E019
:1019F0008093ED04B6D8681579058A059B0508F42F
:101A0000A9C088858111A6C01092EF041092EE043F
:101A10001092ED0427C0F8018781882319F1809185
:101A2000F0049091F104DC01ED91FC910084F185CA
:101A3000E02D1995892B79F08091F0049091F104B3
:101A4000DC01ED91FC910284F385E02D1995BC0138
:101A500080E995E0DCD885D8681579058A059B056D
:101A6000F0F2D9CF81E080932B067E01B4E3EB0E38
:101A7000F11C6FEFC8014DDB62E1C8014ADB652D47
:101A8000C80147DB34D420E130E040E050E083D4AB
:101A9000962F9095E0E19E9FC00111246F70682BF6
:101AA000C80137DB6AA9C80134DB6C2DC80131DB02
:101AB0006C2D6095C8012DDB812C912CD12C8C14C0
:101AC0009D04A4F53701F2E06F0E711CD701ED9073
:101AD000FC90F7016081C8011CDBD7016C91609517
:101AE000C80117DBA12CB12CF701808190E0A8166A
:101AF000B90664F40180F281E02DEA0DFB1D6081DE
:101B0000C80107DBFFEFAF1ABF0AEECFE114F10403
:101B100041F08381882319F08181928139D5C701F1
:101B200037D5BFEF8B1A9B0A7301C9CF60E0C8019C
:101B3000F0DA552061F115D8DC01CB010196A11D29
:101B4000B11D80932C0690932D06A0932E06B09382
:101B50002F061DC08091F0049091F104DC01ED91FD
:101B6000FC910084F185E02D1995892B09F442CF71
:101B70008091F0049091F104DC01ED91FC910284DC
:101B8000F385E02D1995BC01C70141D833CF6B9681
:101B90000FB6F894DEBF0FBECDBFDF91CF911F917E
:101BA0000F91FF90EF90DF90CF90BF90AF909F90FC
:101BB0008F907F906F905F900895CF92DF92EF9219
:101BC000FF920F931F93CF93DF93CDB7DEB7CDB6C0
:101BD000DEB6FC0101900020E9F79F01281B390BBC
:101BE0002E5F3F4F4DB75EB7421B530B0FB6F894B5
:101BF0005EBF0FBE4DBFEDB7FEB731967F01EDB7AB
:101C0000FEB71182BC01C70146D66AE674E0C7017F
:101C100042D6F70101900020E9F731978F010E19A4
:101C20001F0941F184E090E01BD4FC01138298016C
:101C30000F3F110519F014F02FEF30E02083F282EE
:101C4000E182FF93EF9381E08F938091E0058F9382
:101C50001F928091E2058F9380E995E09F938F9387
:101C600073DE2DB73EB7285F3F4F0FB6F8943EBFE7
:101C70000FBE2DBF0FB6F894DEBE0FBECDBEDF91F6
:101C8000CF911F910F91FF90EF90DF90CF9008952B
:101C90008F929F92AF92BF92CF92DF92EF92FF927C
:101CA0000F931F93CF93DF931F921F92CDB7DEB791
:101CB0004C01FC0101900020E9F731978F01081BCE
:101CC000190B1A821982CE0102966C01FE0131961F
:101CD0007F0184E090E0011130C0C2D35C01FC01BF
:101CE0001382992493949082D282C18284E090E0FE
:101CF000B7D38C01FC0113829082F282E18284E0EE
:101D000090E0AED3FC0113828FE080838DE694E0F7
:101D100092838183BF92AF921F930F93FF93EF93B0
:101D200083E08F938EEF8F931F928FE28F9380E9E2
:101D300095E09F938F9308DE39C092D35C01FC013C
:101D4000138211E01083D282C18284E090E088D3B4
:101D50006C01FC0113821083F282E18284E090E046
:101D60007FD37C01FC01138200839282818284E014
:101D700090E076D3FC0113828FE080838DE694E0BF
:101D800092838183BF92AF92DF92CF92FF92EF92C4
:101D9000FF93EF9384E08F938BE08F931F928FE2FA
:101DA0008F9380E995E09F938F93CEDD0FB6F894E3
:101DB000DEBF0FBECDBF0F900F90DF91CF911F916F
:101DC0000F91FF90EF90DF90CF90BF90AF909F90DA
:101DD0008F900895CF93DF931F92CDB7DEB778949D
:101DE00084B5826084BD84B5816084BD85B5826020
:101DF00085BD85B5816085BD80916E0081608093D1
:101E00006E00109281008091810082608093810039
:101E10008091810081608093810080918000816049
:101E2000809380008091B10084608093B1008091A4
:101E3000B00081608093B0008091910082608093B7
:101E40009100809191008160809391008091900039
:101E50008160809390008091A10082608093A100B6
:101E60008091A10081608093A1008091A000816099
:101E70008093A00080912101826080932101809154
:101E800021018160809321018091200181608093F4
:101E9000200180917A00846080937A0080917A009A
:101EA000826080937A0080917A00816080937A00CA
:101EB00080917A00806880937A001092C1008091AE
:101EC0008D0481114FC083EF94E09093F1048093CF
:101ED000F004E0910305F091040592E09083E09115
:101EE000FF04F09100051082E0910105F0910205D8
:101EF00080E1808310920B05E0910705F0910805C1
:101F000086E08083E0910505F0910605808180617F
:101F10008083E0910505F0910605808188608083CB
:101F2000E0910505F0910605808180688083E0914D
:101F30000505F091060580818F7D808310928C04C9
:101F400081E080938D041F929F931F921F9280E9DE
:101F500095E09F938F93F8DC0F900F900F900F9068
:101F60000F900F901F928AE08F931F924FE2D42E12
:101F7000DF9200E915E01F930F93E6DC1092B305A2
:101F80001F921F921F92DF921F930F93DDDC84E05C
:101F900090E066D2FC01138281E180838DE494E0BD
:101FA00092838183FF93EF93CC24C394CF9289E0F3
:101FB0008F931F92DF921F930F93C6DC8DEB98E0F7
:101FC0009093B9058093B8058091B1059091B205C1
:101FD00081609093B2058093B1058BEA92E0909373
:101FE000B7058093B605C092B4058AE792E0909356
:101FF000CD058093CC05C092B50568EB7BE080E011
:1020000090E01FDC198284E090E02AD27C01FC0180
:102010001382C082CE0101969283818384E090E096
:102020001FD2FC0113828EE0808384EF93E09283C1
:102030008183FF92EF92FF93EF9382E08F938CE086
:102040008F931F92DF921F930F937EDCEDEEF1E0F2
:102050002491E7EAF1E084910FB6F894DEBF0FBE59
:10206000CDBF882399F090E0880F991FFC01E058BC
:10207000FE4FA591B491FC01EA59FE4F85919491D0
:102080008FB7F894EC91E22BEC938FBF8FE594E03F
:10209000FFDDC6DAFECFE091EC04EF3259F021E02B
:1020A0002E0F2093EC04F0E0EE0FFF1FE257FB4FE2
:1020B000918380830895FF920F931F93CF93DF93B3
:1020C000E3EFF4E01382128288EE93E0A0E0B0E048
:1020D00084839583A683B7838EE092E09183808387
:1020E00085EC90E09587848784EC90E097878687DD
:1020F00080EC90E0918B808B81EC90E0938B828BD5
:1021000082EC90E0958B848B86EC90E0978B868BAD
:10211000118E128E138E148E80E995E019D8E0E3AB
:10212000F6E0118213821282158214821682FF2435
:10213000F394F082E7E3F6E01082118212821482B7
:1021400013821682158210861782118614861386D2
:10215000C4EDD5E008E212E01983088385E18B83A2
:102160001A82CE0198DF88E292E099838883CEECD0
:10217000D5E0198308838EE18B831A82CE018BDF31
:1021800088E292E099838883CAEDD5E086E2888769
:1021900092E09E83FF82198308838B831A82CE018B
:1021A0007ADF80E392E099838883E3E2F6E083EECE
:1021B00095E0918380839093260680932506F09383
:1021C0002806E093270610922A0610922906CBEAE9
:1021D000D5E0198308838FE28B831A82CE015BDFFF
:1021E00080E292E0998388831F821E821886198676
:1021F0001A86DF91CF911F910F91FF900895CF9391
:10220000DF93809140068823F1F0809142069091FF
:102210004306892BC1F0C0E0D0E02091400630E0B9
:102220008091420690914306C217D3075CF49E0149
:10223000220F331FFC01E20FF31F80819181A8D18F
:102240002196EBCFA5D180913A0690913B0600975D
:1022500019F0DF91CF919CC1DF91CF9108958F92BA
:102260009F92AF92BF92CF92DF92EF92FF92CF9365
:10227000DF93EC01688179818A819B816115710509
:102280008105910521F464E279ED8BE597E02DE17C
:1022900033EF41E050E07FD049015A019B01AC018E
:1022A000A7EAB1E494D06B017C01ACEEB4EFA501D8
:1022B000940199D0DC01CB018C0D9D1DAE1DBF1D7D
:1022C000B7FF03C00197A109B04888839983AA8307
:1022D000BB83BC01CD019F77DF91CF91FF90EF9041
:1022E000DF90CF90BF90AF909F908F9008958F9286
:1022F0009F92AF92BF92CF92DF92EF92FF92609146
:102300000002709101028091020290910302611516
:1023100071058105910521F464E279ED8BE597E083
:102320002DE133EF41E050E036D049015A019B01E5
:10233000AC01A7EAB1E44BD06B017C01ACEEB4EF89
:10234000A501940150D0DC01CB018C0D9D1DAE1D6B
:10235000BF1DB7FF03C00197A109B04880930002D9
:1023600090930102A0930202B0930302BC01CD013D
:102370009F77FF90EF90DF90CF90BF90AF909F90AE
:102380008F9008956093000270930102809302027F
:10239000909303020895052E97FB16F400940FD036
:1023A00057FD05D024D007FC02D046F408C0509554
:1023B0004095309521953F4F4F4F5F4F0895909531
:1023C0008095709561957F4F8F4F9F4F089531D0C5
:1023D000A59F900DB49F900DA49F800D911D112479
:1023E0000895B7FFF4CFF3DF821B930B0895A1E2AA
:1023F0001A2EAA1BBB1BFD010DC0AA1FBB1FEE1F7F
:10240000FF1FA217B307E407F50720F0A21BB30BC9
:10241000E40BF50B661F771F881F991F1A9469F745
:1024200060957095809590959B01AC01BD01CF01A1
:102430000895A29FB001B39FC001A39F700D811D9D
:102440001124911DB29F700D811D1124911D0895BD
:10245000EE0FFF1F881F8BBF0790F691E02D199498
:102460000F931F93CF93DF938230910510F482E096
:1024700090E0E0914C06F0914D0620E030E0A0E0C5
:10248000B0E0309719F140815181028113814817E2
:102490005907C8F08417950769F4109731F0129620
:1024A0000C93129713961C9327C000934C0610931D
:1024B0004D0622C02115310519F04217530718F4B3
:1024C0009A01BD01EF01DF01F801DBCF21153105D4
:1024D000F9F0281B390B2430310580F48A819B8167
:1024E0006115710521F0FB019383828304C09093F1
:1024F0004D0680934C06FE01329644C0FE01E20F69
:10250000F31F8193919322503109398328833AC074
:1025100020914A0630914B06232B41F4209106026C
:102520003091070230934B0620934A062091040213
:10253000309105022115310541F42DB73EB7409188
:10254000080250910902241B350BE0914A06F091D4
:102550004B06E217F307A0F42E1B3F0B2817390791
:1025600078F0AC014E5F5F4F2417350748F04E0FEF
:102570005F1F50934B0640934A068193919302C08C
:10258000E0E0F0E0CF01DF91CF911F910F9108952E
:10259000CF93DF93009709F481C0FC013297138237
:1025A0001282A0914C06B0914D06109781F42081C3
:1025B0003181820F931F20914A0630914B062817D4
:1025C000390751F5F0934B06E0934A0667C0ED01D9
:1025D00020E030E0CE17DF0740F44A815B819E01A6
:1025E00041155105F1F0EA01F5CFD383C283408153
:1025F0005181840F951FC817D90759F48881998193
:10260000840F951F0296918380838A819B81938397
:1026100082832115310529F4F0934D06E0934C0691
:102620003DC0E901FB83EA8349915991C40FD51F4D
:10263000EC17FD0761F480819181840F951F02964C
:10264000E90199838883828193819B838A83E0E077
:10265000F0E012968D919C911397009719F0FD016F
:10266000DC01F7CF8D919C9111979D012E5F3F4F1B
:10267000820F931F20914A0630914B062817390785
:1026800069F4309729F410924D0610924C0602C05E
:1026900013821282B0934B06A0934A06DF91CF912A
:1026A00008956F927F928F929F92AF92BF92CF9236
:1026B000DF92EF92FF920F931F93CF93DF930097D8
:1026C00081F4CB01DF91CF911F910F91FF90EF909B
:1026D000DF90CF90BF90AF909F908F907F906F9042
:1026E000BFCEFC01E60FF71F9C0122503109E21713
:1026F000F30708F4A5C0EC01D9010D911C911197C5
:1027000006171707A8F00530110508F497C0C8018F
:1027100004978617970708F491C002501109061B09
:10272000170B019311936D937C93CF0131DF86C01A
:102730005B01A01AB10A4C01800E911EA0914C06BB
:10274000B0914D06612C712CE12CF12C109709F4FD
:1027500046C08D919C911197A815B905B1F56C01F2
:1027600042E0C40ED11CCA14DB0478F14C018A1873
:102770009B08640142E0C40ED11C1296BC901297D3
:102780001396AC91B5E0CB16D10440F0B282A3838E
:1027900091828082D9016D937C9309C00E5F1F4F97
:1027A000800F911FF90191838083EB2DFA2FE114A3
:1027B000F10431F0D7011396FC93EE9312973EC0CB
:1027C000F0934D06E0934C0639C06816790608F47C
:1027D0003C017D0112960D90BC91A02DB7CF809148
:1027E0004A0690914B0688169906E1F4661677061C
:1027F000C8F48091040290910502009741F48DB7CE
:102800009EB74091080250910902841B950BE8176E
:10281000F907B0F4F0934B06E0934A06F90171838F
:1028200060830CC0CB011CDE7C01009749F0A8013D
:10283000BE0128D0CE01ACDEC70104C0CE0102C06B
:1028400080E090E0DF91CF911F910F91FF90EF908A
:10285000DF90CF90BF90AF909F908F907F906F90C0
:10286000089581E090E0F89431C0FB01DC0104C0E0
:102870008D910190801921F441505040C8F7881B78
:10288000990B0895FB01DC0102C001900D924150AB
:102890005040D8F70895FB01DC010D900020E9F7C6
:1028A000119701900D920020E1F70895FB01DC01E2
:1028B0008D91019080190110D9F3990B0895FB01B6
:1028C000DC0101900D920020E1F7089511E0C4E1D0
:1028D000D1E000E005C0802FFE01BADD2196011D88
:0E28E000C531D10780E00807B1F7F894FFCFAB
:1028EE000100000000004E06800000000000A30A58
:1028FE000D0A3B0AEF0A6C0A4A0A5E0A0000000043
:10290E001D02CC02000000001D02370A000000006C
:10291E001D027501434F4E4E454354494F4E5F5273
:10292E0045465553454400494C4C4547414C5F4D37
:10293E004553534147455F5245434549564544002B
:10294E0044524F5050494E475F4F55545F474F4981
:10295E004E475F4D45535341474500454E434F4407
:10296E0045525F4E4F545F524541445900494E56B1
:10297E00414C49445F434F4E4E41434B5F5245439A
:10298E004549564544004E4F5F434F4E4E41434BD3
:10299E005F524543454956454400434F4E4E4143D1
:1029AE004B5F554E41434345505441424C45505F59
:1029BE00524F544F434F4C56455253494F4E00437E
:1029CE004F4E4E41434B5F4944454E54494649454F
:1029DE00525F52454A454354454400434F4E4E4183
:1029EE00434B5F5345525645525F554E41564149F2
:1029FE004C41424C4500434F4E4E41434B5F415577
:102A0E005448454E5449434154494F4E5F464149FF
:102A1E004C454400434F4E4E41434B5F4E4F545F27
:102A2E00415554484F52495A454400434F4E4E412A
:102A3E00434B5F524553455256454400434F4E4E0D
:102A4E00454354494F4E5F535543434553534655A3
:102A5E004C00434F4E4E454354494F4E5F464149FD
:102A6E004C454400434F4E4E454354494F4E5F4CE8
:102A7E004F535400434F4E4E454354494F4E5F4CB7
:102A8E004F53545F5245434F4E4E454354494E4764
:102A9E00004E4F545F434F4E4E45435445445F598D
:102AAE004554004D495353494E475F484F535400C8
:102ABE0041726520796F75206F6B3F005975702CD0
:102ACE002049276D206665656C696E6720677265A3
:102ADE006174210031736865656C642F6B6D2F6CAA
:102AEE006564004F464600494D4700696D67206694
:102AFE00726F6D20496F542061707000496F5400E1
:102B0E006D617263696E6B69657769637A2E6B614D
:102B1E006370657240676D61696C2E636F6D0049FD
:102B2E004D472074616B656E003130300062726FFC
:102B3E006B65722E686976656D712E636F6D0041DF
:102B4E00726475696E6F204F4E000D0A0031736806
:0E2B5E0065656C642F6B6D2F646174610000FF
:00000001FF
