:1000000014C1000043C1000041C100003FC1000015
:100010003DC100003BC1000039C1000037C10000F4
:1000200035C1000033C1000031C100002FC1000004
:100030002DC100002BC1000029C1000027C1000014
:1000400025C1000023C1000021C100001FC1000024
:100050001DC100001BC1000019C100008EC50000B9
:1000600015C100000C946E0B0C94450B0FC10000E1
:100070000DC100000BC1000009C1000007C1000054
:1000800005C1000003C1000001C10000FFC0000065
:10009000FDC00000FBC00000F9C00000F7C0000078
:1000A000F5C00000F3C00000F1C00000EFC0000088
:1000B000EDC00000EBC00000E9C00000E7C0000098
:1000C000E5C00000E3C00000E1C00000DFC00000A8
:1000D000DDC00000DBC00000D9C00000D7C00000B8
:1000E000D5C00000850288028B028E029102940224
:1000F00097029A029D02A002A302A602D20BD50B80
:10010000C40BC80BCC0B0C0CD90BDD0BE30BE70BB2
:10011000EB0BF10BF50BF90B0C0CFF0B030C070CA5
:1001200000000A0B02090C0D0E0807030401000071
:1001300000000000000000000000000000000000BF
:10014000000000000000000000000000121110007C
:10015000000000000000000000000000000000009F
:1001600000000000000000002200250028002B00F5
:100170002E003100340002010000050108010B01CE
:1001800000002100240027002A002D003000330049
:1001900001010000040107010A0105050505070525
:1001A00008080808020202020A0A080804040404F3
:1001B000010101010101010103030303030303031F
:1001C000040707070C0C0C0C0C0C0C0C02020202AE
:1001D00006060606060606060B0B0B0B0B0B0B0B97
:1001E0000102102020080810204010204080020149
:1001F000020108040201010204081020408080402E
:10020000201008040201800402018040201008042C
:1002100002010804020101020408102040800102CA
:100220000408102040805B10FF1011241FBECFEF88
:10023000D1E2DEBFCDBF00E00CBF14E0A0E0B2E031
:10024000EEEEF8E200E00BBF02C007900D92AE3771
:10025000B107D9F726E0AEE7B4E001C01D92AE3495
:10026000B207E1F711E0C4E1D1E000E006C0219758
:100270000109802FFE010E942812C331D10780E0BE
:100280000807A9F70E94EA0E0C946614B9CE809173
:10029000ED04882329F08091EE049091EF040895F5
:1002A00080E995E008958091F204882321F09091EF
:1002B000820481E08927089570E0DC015296ED9177
:1002C000FC915397E60FF71F2081222359F0660F08
:1002D000771F5096ED91FC915197E60FF71F8081A3
:1002E0009181089580E090E008956F927F928F92BF
:1002F0009F92AF92BF92CF92DF92EF92FF920F93B5
:100300001F93CF93DF93EC01C2DFDC011B962C918E
:100310001B97213009F048C05296ED91FC915397FC
:10032000608000E010E0712C4E01BFE48B0E911C48
:100330007E01E9E4EE0EF11C6E01FDE4CF0ED11C4E
:100340005E0189E0A80EB11C061517056CF5CE01FB
:100350009EDF60E0B1DF800F911FDC018C91F40122
:100360002081318120343105E1F0D701ED91FC91FC
:1003700011979F012F5F3F4F11963C932E938083DF
:10038000F401808191810196918380832D913C912C
:10039000D6018D919C912817390719F4F701B18284
:1003A000A0820F5F1F4FD0CFDF91CF911F910F9190
:1003B000FF90EF90DF90CF90BF90AF909F908F9085
:1003C0007F906F900895CF93DF93EC016CDF8823CB
:1003D000A1F01092F20481E08E831F9284E08F934B
:1003E0001F921F92DF93CF930E94A40C1E820F9046
:1003F0000F900F900F900F900F90DF91CF91089575
:10040000CF93DF93EC014FDF811114C081E0809323
:10041000F2048E831F9283E08F931F921F92DF93CB
:10042000CF930E94A40C1E820F900F900F900F90FC
:100430000F900F90DF91CF910895CF93DF93EC0150
:1004400026DF3B81FC01218532131FC083858F3F4E
:1004500099F48A818823C9F080E995E024DF81112D
:1004600014C080E995E0CCDFEC81FD81199580E92D
:1004700095E0DF91CF91A7CFE881F9810280F381E8
:10048000E02DCE01DF91CF911994DF91CF910895A6
:100490000F931F93CF93DF93EC011F8288818823F2
:1004A000E1F000E010E0288530E0888999890217A2
:1004B00013077CF49801220F331FFC01E20FF31F96
:1004C00080819181009711F00E94C8120F5F1F4F29
:1004D000EACF18860E94C81218828981882329F0E1
:1004E0008A899B890E94C8121982DF91CF911F913E
:1004F0000F91089590E08C30910560F5FC018827FC
:10050000EE58FF4F8F4F0C94281284E392E020C0E6
:1005100087E492E01DC080E692E01AC08BE792E08B
:1005200017C08DE892E014C086EA92E011C08AEB11
:1005300092E00EC08FED92E00BC08BEF92E008C00E
:1005400086E193E005C084E393E002C08BE493E08E
:100550000C94DD0D0895833091F028F4813049F03A
:10056000823051F00895853081F060F0863081F05E
:1005700008958CE593E00EC082E793E00BC084E819
:1005800093E008C084E993E005C081EB93E002C0EA
:1005900083EC93E00C94DD0D2F923F925F926F926B
:1005A0007F928F929F92AF92BF92CF92DF92EF9203
:1005B000FF920F931F93CF93DF93CDB7DEB7629770
:1005C0000FB6F894DEBF0FBECDBF7C012DB73EB78E
:1005D0003A8B298B5CDE6C01DC011B968C9181309F
:1005E00009F0AEC1EDB7FEB7F88BEF87C7014FDE5C
:1005F000DC015296ED91FC915397A080B12CC5017E
:100600000196EDB7FEB7E81BF90B0FB6F894FEBFE5
:100610000FBEEDBF2DB73EB72F5F3F4F69013901C8
:10062000812C912C8A149B047CF4C70130DE60E09D
:1006300043DE880D991DDC018C91F30181933F010C
:10064000FFEF8F1A9F0AEECFF601EA0DFB1D108215
:10065000C7011DDE5C0162E02FDE4C0163E0C501D5
:100660002BDE5C0180E995E01EDE811161C1D401C1
:100670005C90F501B080D70116968D919C911797EB
:10068000892B19F080E995E0BBDE11E0B11001C0C3
:1006900010E0F701868180FF47C02DB73EB73E8747
:1006A0002D87C701F4DDDC015296ED91FC91539743
:1006B000A180B12CC5010196EDB7FEB7E81BF90B7F
:1006C0000FB6F894FEBF0FBEEDBF2DB73EB72F5F3C
:1006D0003F4F39011901812C912C8A149B047CF421
:1006E000C701D5DD61E0E8DD880D991DDC018C9145
:1006F000F10181931F01FFEF8F1A9F0AEECFF301E3
:10070000EA0DFB1D1082D7011D96ED91FC911E97FD
:10071000212F452DB301C6011995ED85FE850FB634
:10072000F894FEBF0FBEEDBFD70116968C9181FFE6
:100730000BC0C701ACDDDC015296ED91FC915397E3
:100740002181223009F445C1F701868182FF0BC067
:10075000C7019DDDDC015296ED91FC9153972181FB
:10076000223009F445C1F701868183FF0BC0C70120
:100770008EDDDC015296ED91FC915397218124305E
:1007800009F445C1F701868184FF13C0C7017FDDED
:100790005C0161E091DDF501A289B389F701A588CB
:1007A000B688012F252D11964C91BC01C601F5018B
:1007B0001995D70116968C9185FF5DC0EDB7FEB7F0
:1007C000FE87ED87C70163DDDC015296ED91FC9158
:1007D0005397A180B12CC5010196EDB7FEB7E81B78
:1007E000F90B0FB6F894FEBF0FBEEDBF2DB73EB7A5
:1007F0002F5F3F4F39011901812C912C8A149B04E2
:100800007CF4C70144DD61E057DD880D991DDC01F2
:100810008C91F10181931F01FFEF8F1A9F0AEECF98
:10082000F301EA0DFB1D1082D7015796AD90BC90E5
:100830005897B301CE0107960E94590CB601CE011C
:1008400001960E94590C212F452DBE01695F7F4FF3
:10085000CE010196F501199589819A810E94C812ED
:100860008F8198850E94C8122D853E850FB6F89419
:100870003EBF0FBE2DBFD70116968C9186FF0BC0D1
:10088000C70105DDDC015296ED91FC915397218162
:10089000223009F4D1C0F701868187FF0BC0C70160
:1008A000F6DCDC015296ED91FC91539721812230C8
:1008B00009F4DCC0F7018681978190FF0BC0C70166
:1008C000E6DCDC015296ED91FC91539721812430B6
:1008D00009F4E4C0F7018681978191FF1FC0C70129
:1008E000D6DC5C0161E0E8DC4C01D5015296ED916B
:1008F000FC9153977180F701A78CB0A0B601CE018F
:100900000196D7D7012F252D472DB401CE01019691
:10091000F501199589819A810E94C812D70116960E
:100920008D919C911797892B19F080E995E04BDD0B
:10093000EF85F8890FB6F894FEBF0FBEEDBFCDC0AE
:10094000823031F560E0C601B7DCDC011C9111306A
:1009500019F4F701108709C08EEF810F823010F073
:10096000153019F4D70118961C9280E995E09BDCAC
:100970008111B3C0F7018185882309F4AEC080E9F5
:1009800095E03EDDD7011B96ED91FC911C971BC0B5
:10099000833009F0A2C080E995E085DC81119DC01B
:1009A00060E0C60189DCFC01D7011A969C9199236D
:1009B00009F493C0108180E995E022DDD70191967A
:1009C000ED91FC919297812F199580E995E0FBDCE0
:1009D00084C061E071DCFC0160817181D7011F96E8
:1009E000ED91FC915097212F452DC6011995ACCE64
:1009F00061E062DCFC0160817181D7015196ED916B
:100A0000FC915297212F452DC6011995ACCE61E07E
:100A100053DCFC01B080318192818381D7015396F0
:100A2000ED91FC915497012F252D4B2D532F692FBC
:100A3000782FC6011995A6CE61E03EDCFC018080CE
:100A40009180D7015996AD90BC905A97B601CE01CE
:100A500001962FD7212F452DB401CE010196F50126
:100A6000199589819A810E94C81215CF61E024DC12
:100A7000DC018D909C90F701A38CB48CB601CE0163
:100A8000019617D7212F452DB401CE010196F5010E
:100A9000199589819A810E94C8120CCF61E00CDC03
:100AA000FC017080818092806380D7015D96AD905B
:100AB000BC905E97B601CE010196FBD6012F252D85
:100AC000472D582D692D762DCE010196F5011995EA
:100AD00089819A810E94C812FDCEE989FA890FB6F0
:100AE000F894FEBF0FBEEDBF62960FB6F894DEBF5E
:100AF0000FBECDBFDF91CF911F910F91FF90EF906F
:100B0000DF90CF90BF90AF909F908F907F906F902D
:100B10005F903F902F9008953FB7F894809188049C
:100B200090918904A0918A04B0918B0426B5A89B6A
:100B300005C02F3F19F00196A11DB11D3FBFBA2F6F
:100B4000A92F982F8827820F911DA11DB11DBC01CF
:100B5000CD0142E0660F771F881F991F4A95D1F794
:100B600008952FB7F8946091840470918504809162
:100B70008604909187042FBF08951F920F920FB69D
:100B80000F9211242F933F938F939F93AF93BF9313
:100B90008091840490918504A0918604B09187048B
:100BA0003091830423E0230F2D3720F40196A11DFB
:100BB000B11D05C026E8230F0296A11DB11D20938B
:100BC00083048093840490938504A0938604B09357
:100BD00087048091880490918904A0918A04B0913F
:100BE0008B040196A11DB11D809388049093890404
:100BF000A0938A04B0938B04BF91AF919F918F9182
:100C00003F912F910F900FBE0F901F9018958F92CC
:100C10009F92AF92BF92CF92DF92EF92FF920F938B
:100C20001F93CF93DF931F92CDB7DEB76F3F2FEFA8
:100C3000720709F428C28B017C0193DF80907E0447
:100C400090907F04A0908004B0908104DC01CB01DF
:100C500088199909AA09BB09813D9740A105B105E9
:100C600048F089288A288B2829F0D70117968C917B
:100C7000811106C276DF60937E0470937F048093B7
:100C8000800490938104F7019781911113C00F3F65
:100C9000110581F4C701FCDB81E0D70117968C9325
:100CA000179751961C921E92509753961C921E9223
:100CB00052971FC0F7018485843041F4992309F4C9
:100CC000E2C116861586078785E0C5C0853059F5CF
:100CD000992309F4D8C1D7012785C22ED12C8FEFD3
:100CE00090E08C199D0908171907B9F5211104C066
:100CF00089E01C968C93C7C1C601880F991F0E947A
:100D00003012F701918B808B11E01083C6010E9495
:100D10003012D70153969C938E93529711961C9341
:100D2000119786E0E6CF8630D9F0873009F053C0BE
:100D3000992309F4A8C1F701258530E00288F389D9
:100D4000E02DE20FF31F6081862F90E04FEF50E01F
:100D5000481B590B0417150779F0F70117824EC18C
:100D6000992309F490C1D70185850288F389E02D84
:100D7000E80FF11D008368C0220F331FD701509682
:100D80000D911C915197662369F0020F131F0E9469
:100D90003012F80191838083D7011C968C911C97A7
:100DA0008F5F12C0F801E20FF31F11821082F7016A
:100DB000168685858F5F85879785891303C089E0AF
:100DC000848704C086E0D7011C968C93F701808548
:100DD0008F5F808758C1883009F03FC0992309F49C
:100DE00052C1D701858520899189E22FF92FE80F1B
:100DF000F11DE80FF11D80819181009759F01E9639
:100E00002C911E9731E0320F1E963C93FC01E20FAD
:100E1000F11D0083F70185850288F389E02DE80F35
:100E2000F11DD7011E962C911E97908129132BC17D
:100E30001E961C921E978F5F1D968C931D971F9672
:100E40009C911F97891305C01C968C911C978F5FEE
:100E500050CF86E0F701848716C1893009F0D1C0F0
:100E6000992309F410C1048B0111C8C01782809125
:100E70009905811188C08385823051F41282838163
:100E8000882309F49AC00588F689E02D80E00CC01B
:100E9000813061F4F70182838381882309F48DC056
:100EA0000588F689E02D81E0199587C0833079F4B3
:100EB0001F9281E08F931F921F92FF92EF9244D571
:100EC0000F900F900F900F900F900F9076C085307D
:100ED00009F073C060E0C701EFD94BE050E0BC01FE
:100EE00080ED93E00E943514892B09F066C01982C9
:100EF000D7015296ED91FC915397A180B12C00E05F
:100F000010E0C12CD12C0A151B0564F461E0C70167
:100F1000D3D9800F911FFC018081C80ED11C0F5FB7
:100F20001F4FF1CFC98284E090E00E9430128C0103
:100F3000DC0113961C92139781E08C93CE010196ED
:100F400012969C938E93119784E090E00E94301249
:100F5000FC01138287E180838CED93E0928381838F
:100F60001F930F93FF93EF9382E08F9385E08F930E
:100F70001F921F92FF92EF92E7D40FB6F894DEBF54
:100F80000FBECDBF1AC02EE8C22E24E0D22E00E044
:100F900010E08091EC0490E00817190774F4D60172
:100FA0008D919D916D01DC01ED91FC910190F0819D
:100FB000E02D19950F5F1F4FECCFF7018481882337
:100FC000E9F081858823D1F0C7011ADAD70150965C
:100FD0000D911C91519752962D913C915397579694
:100FE000ED91FC9158971F964C911F971B966C9111
:100FF0001B9719968C911995C701E5D9C70148DA55
:1010000042C0992309F43FC0813001F5602FF701F8
:101010000187002391F1948191112FC04091EC043C
:1010200050E0EEE8F4E020E030E02417350754F417
:10103000A191B19113967C91671301C091E02F5F4C
:101040003F4FF3CF992309F488CE17C0823089F43B
:1010500002872FEF30E0201B310994E0359527956A
:101060009A95E1F70F7010E02017310731F01782E1
:1010700004C0833011F4F70103878F5FD70139CEA5
:10108000C70106DAF7CD0F90DF91CF911F910F9135
:10109000FF90EF90DF90CF90BF90AF909F908F9098
:1010A0000895CF93DF9380918C0481112FC080919C
:1010B000F0049091F104DC01ED91FC910084F18544
:1010C000E02D1995892B11F18091F0049091F10494
:1010D000DC01ED91FC910284F385E02D1995EC0182
:1010E000BC01772780E995E092DD80919505882302
:1010F000F1F280E995E084D9E091A905F091AA0583
:101100008C2F199580E995E05ED9D1CFDF91CF91F1
:101110000895CF93DF93EC0180918D04882359F0DB
:101120008091F0049091F104DC01ED91FC9101902B
:10113000F081E02D19958E81811107C062E070E089
:1011400080E090E0DF91CF917CC3DF91CF91089553
:10115000FC0111861286138614861586168617865C
:10116000148A1086108211821092820417821282D1
:10117000138214821582168208958F929F92AF92E5
:10118000BF92CF92DF92EF92FF920F931F93CF9374
:10119000DF93CDB7DEB76C970FB6F894DEBF0FBE06
:1011A000CDBF8B01BC0184EF93E00E945614892BC4
:1011B00009F020C1B80187E694E00E945614892BFB
:1011C00031F461E08DE0C0D287E694E00CC0B80154
:1011D00083E094E00E945614892B39F460E08DE09E
:1011E000B3D283E094E054D5D4C0B80187E094E052
:1011F0000E945614892B09F0CCC0FF24F394FC8E76
:1012000084E090E00E943012FC011382F082CE0153
:101210004C9692838183FF93EF93FF9282E08F93AA
:101220001F9285E1E82EEF9290E9C92E95E0D92E24
:10123000DF92CF9289D31F92FF921F92EF92DF929B
:10124000CF9282D38EDC0FB6F894DEBF0FBECDBF37
:101250002091F2044B015C0130E1830E37E2931ED2
:10126000A11CB11C2223A9F1CE0101966C0170DFF3
:10127000D092EF04C092EE04F092ED0472DC681597
:1012800079058A059B0508F498C08885811195C069
:1012900027C080919705882349F18091F0049091AF
:1012A000F104DC01ED91FC910084F185E02D1995AC
:1012B000892B79F08091F0049091F104DC01ED919B
:1012C000FC910284F385E02D1995BC0180E995E03D
:1012D0009EDC47DC681579058A059B05F0F2D9CFBD
:1012E0001092EF041092EE041092ED04198284E043
:1012F00090E00E9430125C01FC01138281E0808347
:10130000CE0101969283818384E090E00E943012A6
:101310006C01DC0113961C92139780E18C938BE097
:1013200094E012969C938E93119784E090E00E9433
:1013300030127C01FC01138283E080838CE194E015
:101340009283818384E090E00E943012FC0113823A
:101350008EE1808320E234E032832183BF92AF921A
:10136000DF92CF92FF92EF92FF93EF9394E09F93DF
:1013700092E09F931F928F9380E995E09F938F93C4
:10138000E3D28FE394E084D40FB6F894DEBF0FBEAF
:10139000CDBFB80189E494E00E945614892B11F462
:1013A00061E008C0B8018BE494E00E945614892BD8
:1013B00009F560E08DE0C8D11DC08091F0049091E6
:1013C000F104DC01ED91FC910084F185E02D19958B
:1013D000892B09F453CF8091F0049091F104DC0142
:1013E000ED91FC910284F385E02D1995BC01C601B5
:1013F0000EDC44CF6C960FB6F894DEBF0FBECDBFA7
:10140000DF91CF911F910F91FF90EF90DF90CF90E0
:10141000BF90AF909F908F900895CF92DF92EF9200
:10142000FF920F931F93CF93DF936C017A018B018F
:10143000C0E0D0E0CE15DF0581F0D8016D918D01BF
:10144000D601ED91FC910190F081E02DC601199536
:10145000892B11F02196EECF7E01C701DF91CF914C
:101460001F910F91FF90EF90DF90CF900895089516
:1014700080E090E00895FC01538D448D252F30E0ED
:10148000842F90E0821B930B541710F0CF96089591
:1014900001970895FC01918D828D981761F0828DDE
:1014A000DF01A80FB11D5D968C91928D9F5F9F7398
:1014B000928F90E008958FEF9FEF0895FC01918D3A
:1014C000828D981731F0828DE80FF11D858D90E0A7
:1014D00008958FEF9FEF0895FC01918D228D892F44
:1014E00090E0805C9F4F821B91098F73992708952C
:1014F00083EF94E0F1DF21E0892B09F420E0822FD3
:101500000895FC01848DDF01A80FB11DA35ABF4FC0
:101510002C91848D90E001968F739927848FA689F2
:10152000B7892C93A089B1898C91837080648C9346
:10153000938D848D981306C00288F389E02D8081F5
:101540008F7D80830895EF92FF920F931F93CF9327
:10155000DF93EC0181E0888F9B8D8C8D981305C003
:10156000E889F989808185FD25C0F62E0B8D10E074
:101570000F5F1F4F0F731127E02E8C8DE8120BC0E9
:101580000FB607FCFACFE889F989808185FFF5CF8E
:10159000CE01B7DFF2CF8B8DFE01E80FF11DE35ACC
:1015A000FF4FF0829FB7F8940B8FEA89FB89808107
:1015B00080620AC09FB7F894EE89FF896083E8894A
:1015C000F98980818370806480839FBF81E090E08F
:1015D000DF91CF911F910F91FF90EF900895CF93DE
:1015E000DF93EC01888D8823C1F0EA89FB89808133
:1015F00085FD05C0A889B9898C9186FD0EC00FB6FE
:1016000007FCF5CF808185FFF2CFA889B9898C913D
:1016100085FFEDCFCE0175DFE8CFDF91CF91089543
:1016200067DF811125C080E090E0892B41F080E0E8
:1016300090E0892B21F00E94000081111BC080E006
:1016400090E0892B41F080E090E0892B21F00E940E
:101650000000811112C080E090E0892B99F080E0B9
:1016600090E0892B79F00E940000811109C0089553
:1016700018DDD9CF0E940000E2CF0E940000EBCF1E
:101680000C94000008950E9431141F920F920FB61F
:101690000F9211240BB60F922F933F934F935F93AA
:1016A0006F937F938F939F93AF93BF93EF93FF932A
:1016B00083EF94E026DFFF91EF91BF91AF919F916F
:1016C0008F917F916F915F914F913F912F910F90EB
:1016D0000BBE0F900FBE0F901F9018951F920F9288
:1016E0000FB60F9211240BB60F922F938F939F93E7
:1016F000EF93FF93E0910305F09104058081E09161
:101700000905F0910A0582FD12C0908180910C05B7
:101710008F5F8F7320910D05821751F0E0910C05BA
:10172000F0E0ED50FB4F958F80930C0501C0808158
:10173000FF91EF919F918F912F910F900BBE0F9082
:101740000FBE0F901F901895362F90E0FC01E05EC1
:10175000FE4F4491FC01E052FE4F2491FC01E656FD
:10176000FE4F9491992309F46BC0442309F454C0AB
:1017700050E0FA013197E231F10508F04DC08827B9
:10178000E258FF4F8F4F64C6809180008F7707C06B
:10179000809180008F7D03C080918000877F80933F
:1017A00080003AC084B58F7702C084B58F7D84BD38
:1017B00033C08091B0008F7703C08091B0008F7DDF
:1017C0008093B00029C0809190008F7707C08091EE
:1017D00090008F7D03C080919000877F8093900060
:1017E0001BC08091A0008F7707C08091A0008F7DE3
:1017F00003C08091A000877F8093A0000DC08091DE
:1018000020018F7707C0809120018F7D03C08091D8
:101810002001877F80932001E92FF0E0EE0FFF1F6A
:10182000EA59FE4FA591B4919FB7F894311104C0C5
:101830008C912095282302C0EC912E2B2C939FBFD6
:1018400008958F929F92AF92BF92CF92DF92EF92C4
:10185000FF926B017C0160D94B015C01C114D10482
:10186000E104F104E9F058D9DC01CB0188199909A8
:10187000AA09BB09883E9340A105B10578F321E090
:10188000C21AD108E108F10888EE880E83E0981E9C
:10189000A11CB11CC114D104E104F10421F7DECF75
:1018A000FF90EF90DF90CF90BF90AF909F908F9080
:1018B0000895EF92FF920F931F93CF93DF93EC0164
:1018C000198218821B821A821D821C826115710581
:1018D000A1F17B01FB0101900020E9F731978F0115
:1018E000061B170BB8016F5F7F4F80E090E0D9D6E1
:1018F000009759F0998388831B830A832C813D814B
:10190000232B79F4FC0110820CC088819981009707
:1019100009F03ED6198218821D821C821B821A820F
:101920000CC01D830C83B70188819981DF91CF9111
:101930001F910F91FF90EF90C2C7DF91CF911F9140
:101940000F91FF90EF9008955F926F927F928F9228
:101950009F92AF92BF92CF92DF92EF92FF920F933E
:101960001F93CF93DF93CDB7DEB76B970FB6F89485
:10197000DEBF0FBECDBF0EA51FA558A8CBA8F1D8BE
:10198000552009F46FC020912B06222309F46AC068
:1019900080902C0690902D06A0902E06B0902F06D9
:1019A00081149104A104B10409F45CC0DC01CB01F1
:1019B00088199909AA09BB090196A11DB11D883C86
:1019C0009105A105B10508F04DC08091F20428EC05
:1019D000820E911CA11CB11C882309F43CC0CE01CD
:1019E00001967C01B5DBF092EF04E092EE0481E019
:1019F0008093ED04B6D8681579058A059B0508F42F
:101A0000A9C088858111A6C01092EF041092EE043F
:101A10001092ED0427C0F8018781882319F1809185
:101A2000F0049091F104DC01ED91FC910084F185CA
:101A3000E02D1995892B79F08091F0049091F104B3
:101A4000DC01ED91FC910284F385E02D1995BC0138
:101A500080E995E0DCD885D8681579058A059B056D
:101A6000F0F2D9CF81E080932B067E01B4E3EB0E38
:101A7000F11C6FEFC8014DDB62E1C8014ADB652D47
:101A8000C80147DB34D420E130E040E050E083D4AB
:101A9000962F9095E0E19E9FC00111246F70682BF6
:101AA000C80137DB6AA9C80134DB6C2DC80131DB02
:101AB0006C2D6095C8012DDB812C912CD12C8C14C0
:101AC0009D04A4F53701F2E06F0E711CD701ED9073
:101AD000FC90F7016081C8011CDBD7016C91609517
:101AE000C80117DBA12CB12CF701808190E0A8166A
:101AF000B90664F40180F281E02DEA0DFB1D6081DE
:101B0000C80107DBFFEFAF1ABF0AEECFE114F10403
:101B100041F08381882319F08181928139D5C701F1
:101B200037D5BFEF8B1A9B0A7301C9CF60E0C8019C
:101B3000F0DA552061F115D8DC01CB010196A11D29
:101B4000B11D80932C0690932D06A0932E06B09382
:101B50002F061DC08091F0049091F104DC01ED91FD
:101B6000FC910084F185E02D1995892B09F442CF71
:101B70008091F0049091F104DC01ED91FC910284DC
:101B8000F385E02D1995BC01C70141D833CF6B9681
:101B90000FB6F894DEBF0FBECDBFDF91CF911F917E
:101BA0000F91FF90EF90DF90CF90BF90AF909F90FC
:101BB0008F907F906F905F900895CF92DF92EF9219
:101BC000FF920F931F93CF93DF93CDB7DEB7CDB6C0
:101BD000DEB6FC0101900020E9F79F01281B390BBC
:101BE0002E5F3F4F4DB75EB7421B530B0FB6F894B5
:101BF0005EBF0FBE4DBFEDB7FEB731967F01EDB7AB
:101C0000FEB71182BC01C70146D66AE674E0C7017F
:101C100042D6F70101900020E9F731978F010E19A4
:101C20001F0941F184E090E01BD4FC01138298016C
:101C30000F3F110519F014F02FEF30E02083F282EE
:101C4000E182FF93EF9381E08F938091E0058F9382
:101C50001F928091E2058F9380E995E09F938F9387
:101C600073DE2DB73EB7285F3F4F0FB6F8943EBFE7
:101C70000FBE2DBF0FB6F894DEBE0FBECDBEDF91F6
:101C8000CF911F910F91FF90EF90DF90CF9008952B
:101C90008F929F92AF92BF92CF92DF92EF92FF927C
:101CA0000F931F93CF93DF931F921F92CDB7DEB791
:101CB0004C01FC0101900020E9F731978F01081BCE
:101CC000190B1A821982CE0102966C01FE0131961F
:101CD0007F0184E090E0011130C0C2D35C01FC01BF
:101CE0001382992493949082D282C18284E090E0FE
:101CF000B7D38C01FC0113829082F282E18284E0EE
:101D000090E0AED3FC0113828FE080838DE694E0F7
:101D100092838183BF92AF921F930F93FF93EF93B0
:101D200083E08F938EEF8F931F928FE28F9380E9E2
:101D300095E09F938F9308DE39C092D35C01FC013C
:101D4000138211E01083D282C18284E090E088D3B4
:101D50006C01FC0113821083F282E18284E090E046
:101D60007FD37C01FC01138200839282818284E014
:101D700090E076D3FC0113828FE080838DE694E0BF
:101D800092838183BF92AF92DF92CF92FF92EF92C4
:101D9000FF93EF9384E08F938BE08F931F928FE2FA
:101DA0008F9380E995E09F938F93CEDD0FB6F894E3
:101DB000DEBF0FBECDBF0F900F90DF91CF911F916F
:101DC0000F91FF90EF90DF90CF90BF90AF909F90DA
:101DD0008F900895CF93DF931F92CDB7DEB778949D
:101DE00084B5826084BD84B5816084BD85B5826020
:101DF00085BD85B5816085BD80916E0081608093D1
:101E00006E00109281008091810082608093810039
:101E10008091810081608093810080918000816049
:101E2000809380008091B10084608093B1008091A4
:101E3000B00081608093B0008091910082608093B7
:101E40009100809191008160809391008091900039
:101E50008160809390008091A10082608093A100B6
:101E60008091A10081608093A1008091A000816099
:101E70008093A00080912101826080932101809154
:101E800021018160809321018091200181608093F4
:101E9000200180917A00846080937A0080917A009A
:101EA000826080937A0080917A00816080937A00CA
:101EB00080917A00806880937A001092C1008091AE
:101EC0008D0481114FC083EF94E09093F1048093CF
:101ED000F004E0910305F091040592E09083E09115
:101EE000FF04F09100051082E0910105F0910205D8
:101EF00080E1808310920B05E0910705F0910805C1
:101F000086E08083E0910505F0910605808180617F
:101F10008083E0910505F0910605808188608083CB
:101F2000E0910505F0910605808180688083E0914D
:101F30000505F091060580818F7D808310928C04C9
:101F400081E080938D041F929F931F921F9280E9DE
:101F500095E09F938F93F8DC0F900F900F900F9068
:101F60000F900F901F928AE08F931F924FE2D42E12
:101F7000DF9200E915E01F930F93E6DC1092B305A2
:101F80001F921F921F92DF921F930F93DDDC84E05C
:101F900090E066D2FC01138281E180838DE494E0BD
:101FA00092838183FF93EF93CC24C394CF9289E0F3
:101FB0008F931F92DF921F930F93C6DC8DEB98E0F7
:101FC0009093B9058093B8058091B1059091B205C1
:101FD00081609093B2058093B1058BEA92E0909373
:101FE000B7058093B605C092B4058AE792E0909356
:101FF000CD058093CC05C092B50568EB7BE080E011
:1020000090E01FDC198284E090E02AD27C01FC0180
:102010001382C082CE0101969283818384E090E096
:102020001FD2FC0113828EE0808384EF93E09283C1
:102030008183FF92EF92FF93EF9382E08F938CE086
:102040008F931F92DF921F930F937EDCEDEEF1E0F2
:102050002491E7EAF1E084910FB6F894DEBF0FBE59
:10206000CDBF882399F090E0880F991FFC01E058BC
:10207000FE4FA591B491FC01EA59FE4F85919491D0
:102080008FB7F894EC91E22BEC938FBF8FE594E03F
:10209000FFDDC6DAFECFE091EC04EF3259F021E02B
:1020A0002E0F2093EC04F0E0EE0FFF1FE257FB4FE2
:1020B000918380830895FF920F931F93CF93DF93B3
:1020C000E3EFF4E01382128288EE93E0A0E0B0E048
:1020D00084839583A683B7838EE092E09183808387
:1020E00085EC90E09587848784EC90E097878687DD
:1020F00080EC90E0918B808B81EC90E0938B828BD5
:1021000082EC90E0958B848B86EC90E0978B868BAD
:10211000118E128E138E148E80E995E019D8E0E3AB
:10212000F6E0118213821282158214821682FF2435
:10213000F394F082E7E3F6E01082118212821482B7
:1021400013821682158210861782118614861386D2
:10215000C4EDD5E008E212E01983088385E18B83A2
:102160001A82CE0198DF88E292E099838883CEECD0
:10217000D5E0198308838EE18B831A82CE018BDF31
:1021800088E292E099838883CAEDD5E086E2888769
:1021900092E09E83FF82198308838B831A82CE018B
:1021A0007ADF80E392E099838883E3E2F6E083EECE
:1021B00095E0918380839093260680932506F09383
:1021C0002806E093270610922A0610922906CBEAE9
:1021D000D5E0198308838FE28B831A82CE015BDFFF
:1021E00080E292E0998388831F821E821886198676
:1021F0001A86DF91CF911F910F91FF900895CF9391
:10220000DF93809140068823F1F0809142069091FF
:102210004306892BC1F0C0E0D0E02091400630E0B9
:102220008091420690914306C217D3075CF49E0149
:10223000220F331FFC01E20FF31F80819181A8D18F
:102240002196EBCFA5D180913A0690913B0600975D
:1022500019F0DF91CF919CC1DF91CF9108958F92BA
:102260009F92AF92BF92CF92DF92EF92FF92CF9365
:10227000DF93EC01688179818A819B816115710509
:102280008105910521F464E279ED8BE597E02DE17C
:1022900033EF41E050E07FD049015A019B01AC018E
:1022A000A7EAB1E494D06B017C01ACEEB4EFA501D8
:1022B000940199D0DC01CB018C0D9D1DAE1DBF1D7D
:1022C000B7FF03C00197A109B04888839983AA8307
:1022D000BB83BC01CD019F77DF91CF91FF90EF9041
:1022E000DF90CF90BF90AF909F908F9008958F9286
:1022F0009F92AF92BF92CF92DF92EF92FF92609146
:102300000002709101028091020290910302611516
:1023100071058105910521F464E279ED8BE597E083
:102320002DE133EF41E050E036D049015A019B01E5
:10233000AC01A7EAB1E44BD06B017C01ACEEB4EF89
:10234000A501940150D0DC01CB018C0D9D1DAE1D6B
:10235000BF1DB7FF03C00197A109B04880930002D9
:1023600090930102A0930202B0930302BC01CD013D
:102370009F77FF90EF90DF90CF90BF90AF909F90AE
:102380008F9008956093000270930102809302027F
:10239000909303020895052E97FB16F400940FD036
:1023A00057FD05D024D007FC02D046F408C0509554
:1023B0004095309521953F4F4F4F5F4F0895909531
:1023C0008095709561957F4F8F4F9F4F089531D0C5
:1023D000A59F900DB49F900DA49F800D911D112479
:1023E0000895B7FFF4CFF3DF821B930B0895A1E2AA
:1023F0001A2EAA1BBB1BFD010DC0AA1FBB1FEE1F7F
:10240000FF1FA217B307E407F50720F0A21BB30BC9
:10241000E40BF50B661F771F881F991F1A9469F745
:1024200060957095809590959B01AC01BD01CF01A1
:102430000895A29FB001B39FC001A39F700D811D9D
:102440001124911DB29F700D811D1124911D0895BD
:10245000EE0FFF1F881F8BBF0790F691E02D199498
:102460000F931F93CF93DF938230910510F482E096
:1024700090E0E0914C06F0914D0620E030E0A0E0C5
:10248000B0E0309719F140815181028113814817E2
:102490005907C8F08417950769F4109731F0129620
:1024A0000C93129713961C9327C000934C0610931D
:1024B0004D0622C02115310519F04217530718F4B3
:1024C0009A01BD01EF01DF01F801DBCF21153105D4
:1024D000F9F0281B390B2430310580F48A819B8167
:1024E0006115710521F0FB019383828304C09093F1
:1024F0004D0680934C06FE01329644C0FE01E20F69
:10250000F31F8193919322503109398328833AC074
:1025100020914A0630914B06232B41F4209106026C
:102520003091070230934B0620934A062091040213
:10253000309105022115310541F42DB73EB7409188
:10254000080250910902241B350BE0914A06F091D4
:102550004B06E217F307A0F42E1B3F0B2817390791
:1025600078F0AC014E5F5F4F2417350748F04E0FEF
:102570005F1F50934B0640934A068193919302C08C
:10258000E0E0F0E0CF01DF91CF911F910F9108952E
:10259000CF93DF93009709F481C0FC013297138237
:1025A0001282A0914C06B0914D06109781F42081C3
:1025B0003181820F931F20914A0630914B062817D4
:1025C000390751F5F0934B06E0934A0667C0ED01D9
:1025D00020E030E0CE17DF0740F44A815B819E01A6
:1025E00041155105F1F0EA01F5CFD383C283408153
:1025F0005181840F951FC817D90759F48881998193
:10260000840F951F0296918380838A819B81938397
:1026100082832115310529F4F0934D06E0934C0691
:102620003DC0E901FB83EA8349915991C40FD51F4D
:10263000EC17FD0761F480819181840F951F02964C
:10264000E90199838883828193819B838A83E0E077
:10265000F0E012968D919C911397009719F0FD016F
:10266000DC01F7CF8D919C9111979D012E5F3F4F1B
:10267000820F931F20914A0630914B062817390785
:1026800069F4309729F410924D0610924C0602C05E
:1026900013821282B0934B06A0934A06DF91CF912A
:1026A00008956F927F928F929F92AF92BF92CF9236
:1026B000DF92EF92FF920F931F93CF93DF930097D8
:1026C00081F4CB01DF91CF911F910F91FF90EF909B
:1026D000DF90CF90BF90AF909F908F907F906F9042
:1026E000BFCEFC01E60FF71F9C0122503109E21713
:1026F000F30708F4A5C0EC01D9010D911C911197C5
:1027000006171707A8F00530110508F497C0C8018F
:1027100004978617970708F491C002501109061B09
:10272000170B019311936D937C93CF0131DF86C01A
:102730005B01A01AB10A4C01800E911EA0914C06BB
:10274000B0914D06612C712CE12CF12C109709F4FD
:1027500046C08D919C911197A815B905B1F56C01F2
:1027600042E0C40ED11CCA14DB0478F14C018A1873
:102770009B08640142E0C40ED11C1296BC901297D3
:102780001396AC91B5E0CB16D10440F0B282A3838E
:1027900091828082D9016D937C9309C00E5F1F4F97
:1027A000800F911FF90191838083EB2DFA2FE114A3
:1027B000F10431F0D7011396FC93EE9312973EC0CB
:1027C000F0934D06E0934C0639C06816790608F47C
:1027D0003C017D0112960D90BC91A02DB7CF809148
:1027E0004A0690914B0688169906E1F4661677061C
:1027F000C8F48091040290910502009741F48DB7CE
:102800009EB74091080250910902841B950BE8176E
:10281000F907B0F4F0934B06E0934A06F90171838F
:1028200060830CC0CB011CDE7C01009749F0A8013D
:10283000BE0128D0CE01ACDEC70104C0CE0102C06B
:1028400080E090E0DF91CF911F910F91FF90EF908A
:10285000DF90CF90BF90AF909F908F907F906F90C0
:10286000089581E090E0F89431C0FB01DC0104C0E0
:102870008D910190801921F441505040C8F7881B78
:10288000990B0895FB01DC0102C001900D924150AB
:102890005040D8F70895FB01DC010D900020E9F7C6
:1028A000119701900D920020E1F70895FB01DC01E2
:1028B0008D91019080190110D9F3990B0895FB01B6
:1028C000DC0101900D920020E1F7089511E0C4E1D0
:1028D000D1E000E005C0802FFE01BADD2196011D88
:0E28E000C531D10780E00807B1F7F894FFCFAB
:1028EE000100000000004E06800000000000A30A58
:1028FE000D0A3B0AEF0A6C0A4A0A5E0A0000000043
:10290E001D02CC02000000001D02370A000000006C
:10291E001D027501434F4E4E454354494F4E5F5273
:10292E0045465553454400494C4C4547414C5F4D37
:10293E004553534147455F5245434549564544002B
:10294E0044524F5050494E475F4F55545F474F4981
:10295E004E475F4D45535341474500454E434F4407
:10296E0045525F4E4F545F524541445900494E56B1
:10297E00414C49445F434F4E4E41434B5F5245439A
:10298E004549564544004E4F5F434F4E4E41434BD3
:10299E005F524543454956454400434F4E4E4143D1
:1029AE004B5F554E41434345505441424C45505F59
:1029BE00524F544F434F4C56455253494F4E00437E
:1029CE004F4E4E41434B5F4944454E54494649454F
:1029DE00525F52454A454354454400434F4E4E4183
:1029EE00434B5F5345525645525F554E41564149F2
:1029FE004C41424C4500434F4E4E41434B5F415577
:102A0E005448454E5449434154494F4E5F464149FF
:102A1E004C454400434F4E4E41434B5F4E4F545F27
:102A2E00415554484F52495A454400434F4E4E412A
:102A3E00434B5F524553455256454400434F4E4E0D
:102A4E00454354494F4E5F535543434553534655A3
:102A5E004C00434F4E4E454354494F4E5F464149FD
:102A6E004C454400434F4E4E454354494F4E5F4CE8
:102A7E004F535400434F4E4E454354494F4E5F4CB7
:102A8E004F53545F5245434F4E4E454354494E4764
:102A9E00004E4F545F434F4E4E45435445445F598D
:102AAE004554004D495353494E475F484F535400C8
:102ABE0041726520796F75206F6B3F005975702CD0
:102ACE002049276D206665656C696E6720677265A3
:102ADE006174210031736865656C642F6B6D2F6CAA
:102AEE006564004F464600494D4700696D67206694
:102AFE00726F6D20496F542061707000496F5400E1
:102B0E006D617263696E6B69657769637A2E6B614D
:102B1E006370657240676D61696C2E636F6D0049FD
:102B2E004D472074616B656E003130300062726FFC
:102B3E006B65722E686976656D712E636F6D0041DF
:102B4E00726475696E6F204F4E000D0A0031736806
:0E2B5E0065656C642F6B6D2F646174610000FF
:020000023000CC
:10E000000D9489F10D94B2F10D94B2F10D94B2F129
:10E010000D94B2F10D94B2F10D94B2F10D94B2F1F0
:10E020000D94B2F10D94B2F10D94B2F10D94B2F1E0
:10E030000D94B2F10D94B2F10D94B2F10D94B2F1D0
:10E040000D94B2F10D94B2F10D94B2F10D94B2F1C0
:10E050000D94B2F10D94B2F10D94B2F10D94B2F1B0
:10E060000D94B2F10D94B2F10D94B2F10D94B2F1A0
:10E070000D94B2F10D94B2F10D94B2F10D94B2F190
:10E080000D94B2F10D94B2F10D94B2F10D94B2F180
:10E090000D94B2F10D94B2F10D94B2F10D94B2F170
:10E0A0000D94B2F10D94B2F10D94B2F10D94B2F160
:10E0B0000D94B2F10D94B2F10D94B2F10D94B2F150
:10E0C0000D94B2F10D94B2F10D94B2F10D94B2F140
:10E0D0000D94B2F10D94B2F10D94B2F10D94B2F130
:10E0E0000D94B2F141546D656761323536300041AF
:10E0F000726475696E6F206578706C6F72657220DE
:10E1000073746B3530305632206279204D4C530099
:10E11000426F6F746C6F616465723E004875683F52
:10E1200000436F6D70696C6564206F6E203D200048
:10E130004350552054797065202020203D20005FF9
:10E140005F4156525F415243485F5F3D2000415658
:10E1500052204C696243205665723D20004743437C
:10E160002056657273696F6E203D20004350552024
:10E1700049442020202020203D20004C6F7720663D
:10E18000757365202020203D20004869676820665F
:10E190007573652020203D200045787420667573D6
:10E1A00065202020203D20004C6F636B2066757336
:10E1B000652020203D20004D617220203720323024
:10E1C000313300312E362E3800342E332E350056A2
:10E1D00023202020414444522020206F7020636F70
:10E1E00064652020202020696E73747275637469E1
:10E1F0006F6E2061646472202020496E74657272B3
:10E20000757074006E6F20766563746F7200726A49
:10E210006D702020006A6D70200057686174207056
:10E220006F72743A00506F7274206E6F7420737541
:10E2300070706F72746564004D7573742062652030
:10E2400061206C6574746572002000577269747483
:10E25000696E672045450052656164696E672045B7
:10E26000450045452065727220636E743D00504F35
:10E27000525400303D5A65726F2061646472003FF1
:10E280003D43505520737461747300403D454550C3
:10E29000524F4D207465737400423D426C696E6B41
:10E2A000204C454400453D44756D70204545505215
:10E2B0004F4D00463D44756D7020464C415348001B
:10E2C000483D48656C70004C3D4C69737420492F83
:10E2D0004F20506F72747300513D51756974005234
:10E2E0003D44756D702052414D00563D73686F7707
:10E2F00020696E7465727275707420566563746FF0
:10E30000727300593D506F727420626C696E6B00BD
:10E310002A0011241FBECFEFD1E2DEBFCDBF01E046
:10E320000CBF12E0A0E0B2E0EEE1FDEF03E00BBFB6
:10E3300002C007900D92A030B107D9F712E0A0E01B
:10E34000B2E001C01D92AE30B107E1F70F9460F367
:10E350000D948DFE01E20EBF0FEF0DBF11241FBE05
:10E360000D9460F30D9400F020E030E040ED57E0B4
:10E3700005C0FA013197F1F72F5F3F4F2817390792
:10E38000C0F308959C01260F311DC901A0E0B0E043
:10E390002F5F3F4FABBFFC018791882361F08093D3
:10E3A000C6008091C00086FFFCCF8091C0008064D1
:10E3B0008093C000EACF08958DE08093C6008091DD
:10E3C000C00086FFFCCF8091C00080648093C000B5
:10E3D0008AE08093C6008091C00086FFFCCF8091C8
:10E3E000C00080648093C00008950F94C2F10F9420
:10E3F000DCF10895FC019081992359F09093C600B7
:10E400008091C00086FFFCCF8091C0008064809323
:10E41000C0003196992379F70895282F982F929567
:10E420009F70892F805D8A3308F0895F8093C600D2
:10E430008091C00086FFFCCF8091C00080648093F3
:10E44000C000822F8F70982F905D9A3308F0995FEB
:10E450009093C6008091C00086FFFCCF8091C000E1
:10E4600080648093C00008959C01FB01853691056E
:10E470001CF46330710594F0C90164E670E00F94F8
:10E480002EFE605D7F4F6093C6008091C00086FFC6
:10E49000FCCF8091C00080648093C0002B30310598
:10E4A00014F43297B4F0C90164E670E00F942EFEC4
:10E4B0006AE070E00F942EFE605D7F4F6093C600AF
:10E4C0008091C00086FFFCCF8091C0008064809363
:10E4D000C000C9016AE070E00F942EFEC0968093E0
:10E4E000C6008091C00086FFFCCF8091C000806490
:10E4F0008093C00008951F93182F8EE692EE60E07F
:10E500000F94C2F11093C6008091C00086FFFCCF2B
:10E510008091C00080648093C0000F94DCF11F9153
:10E5200008952F923F924F925F926F927F928F92B7
:10E530009F92AF92BF92CF92DF92EF92FF920F9392
:10E540001F93DF93CF93CDB7DEB762970FB6F894E2
:10E55000DEBF0FBECDBF382E622ECA01DB015C01CB
:10E560006D01772420E2222E2E010894411C511CBB
:10E570008BC081E0A81680E0B80681E0C80680E084
:10E58000D80628F0C601AA27BB270F940DF2BB2797
:10E59000AD2D9C2D8B2D0F940DF28A2D0F940DF225
:10E5A0002092C6008091C00086FFFCCF8091C00001
:10E5B00080648093C0009DE29093C6008091C0006B
:10E5C00086FFFCCF8091C00080648093C0002092C1
:10E5D000C6008091C00086FFFCCF8091C00080649F
:10E5E0008093C00019828601750188249924A1E0D6
:10E5F0003A1651F03A1620F0B2E03B1661F409C029
:10E600000BBFF701779007C0C7010F9477FE782EF4
:10E6100002C0F7017080872D0F940DF22092C60082
:10E620008091C00086FFFCCF8091C0008064809301
:10E63000C000872D8052F401EF70F0708F3520F408
:10E64000E40DF51D708204C0E40DF51D8EE280839B
:10E650000894E11CF11C011D111D0894811C911CE2
:10E6600090E18916910409F0C2CF80E190E0A0E02A
:10E67000B0E0A80EB91ECA1EDB1E198AC2010F9493
:10E68000FAF10F94DCF16A94662009F072CF629679
:10E690000FB6F894DEBF0FBECDBFCF91DF911F91B3
:10E6A0000F91FF90EF90DF90CF90BF90AF909F9031
:10E6B0008F907F906F905F904F903F902F90089534
:10E6C0002F923F924F925F926F927F928F929F9282
:10E6D000AF92BF92CF92DF92EF92FF920F931F9370
:10E6E000DF93CF93CDB7DEB7CD53D1400FB6F894BB
:10E6F000DEBF0FBECDBF01E20EBF0FEF0DBF94B75F
:10E70000F894A89514BE80916000886180936000A1
:10E7100010926000789493FF05C0E0910002F091A0
:10E7200001021995279A2F9A8091C00082608093E8
:10E73000C00080E18093C40088E18093C1000000A4
:10E74000EE24FF24870144E0A42EB12CCC24DD2448
:10E7500024C0C5010197F1F70894E11CF11C011DCB
:10E76000111D21E2E2162EE4F20620E0020720E06D
:10E77000120718F031E0C32ED12CC801B70127ECE5
:10E780003BE140E050E00F9441FE611571058105C9
:10E79000910519F485B1805885B98091C00087FD35
:10E7A00003C0C114D104A9F2A6014F5F5F4FC25E3E
:10E7B000DE4F59834883CE51D140C25EDE4F8881FF
:10E7C0009981CE51D140019711F00D9410FEC05D9A
:10E7D000DE4F19821882C053D14060E0C15DDE4F28
:10E7E0001882CF52D14088249924C35DDE4F19820C
:10E7F0001882CD52D140C05EDE4F188219821A8233
:10E800001B82C052D140CE5CDE4F188219821A8220
:10E810001B82C253D140EE24FF2487010BBFF701B6
:10E8200007911691C45CDE4F19830883CC53D14005
:10E830000D940BFEC25EDE4F28813981CE51D1404E
:10E840002130310509F52091C600C25EDE4F1982E4
:10E850001882CE51D14022C02F5F3F4F4F4F5F4FA4
:10E86000213082E138078AE7480780E0580780F0C6
:10E87000C45CDE4FE881F981CC53D140EF5FFF4F9C
:10E8800019F0EE27FF27099420E030E040E050E047
:10E890008091C00087FFE0CF2091C600C35DDE4FAE
:10E8A00048815981CD52D1404F5F5F4FC35DDE4FEC
:10E8B00059834883CD52D140213209F063C64A3092
:10E8C000510508F05FC60894811C911C53E0851621
:10E8D000910409F059C600E010E018C081E280936D
:10E8E000C6008091C00086FFFCCF8091C00080648C
:10E8F0008093C0002F5F3F4F2931310579F70F9486
:10E90000DCF10F5F1F4F0530110519F020E030E0FA
:10E91000E5CF10920A0210920B0210920C02109294
:10E920000D02109206021092070210920802109235
:10E930000902109202021092030210920402109235
:10E9400005028FEE90EE60E00F94F5F180E191EE1C
:10E9500060E00F94C2F18091C00087FFFCCF9091DE
:10E96000C600903608F09F759032B8F09093C600BC
:10E970008091C00086FFFCCF8091C00080648093AE
:10E98000C000A0E2A093C6008091C00086FFFCCF2B
:10E990008091C00080648093C000983409F4D7C18E
:10E9A0009934B8F4923409F459C1933458F490333B
:10E9B00019F1903308F4E3C59F33A1F1903409F0C5
:10E9C000DEC5BDC0953409F470C1963409F0D7C5D1
:10E9D00098C1923509F42BC2933538F49C3409F46C
:10E9E000F5C1913509F0CBC518C2963509F445C279
:10E9F000993509F0C4C567C483E792EE62E00F94CD
:10EA0000F5F110920602109207021092080210927D
:10EA1000090210920A0210920B0210920C0210923C
:10EA20000D0213C18FE792EE62E00F94F5F18FEEC5
:10EA300090EE60E00F94F5F181E291EE60E00F94CA
:10EA4000C2F187EB91EE60E00F94F5F180E391EE77
:10EA500060E00F94C2F184EE90EE60E00F94F5F167
:10EA60008FE391EE60E00F94C2F186E090E061E008
:10EA700070E00F9434F20F94DCF18DE591EE60E0DC
:10EA80000F94C2F189EC91EE60E00F94F5F18EE401
:10EA900091EE60E00F94C2F183EC91EE60E00F9490
:10EAA000F5F18CE691EE60E00F94C2F18EE10F94E7
:10EAB0000DF288E90F940DF281E00F940DF20F949E
:10EAC000DCF18BE791EE60E00F94C2F119E0E0E039
:10EAD000F0E010935700E4918E2F0F940DF20F94F5
:10EAE000DCF18AE891EE60E00F94C2F1E3E0F0E03F
:10EAF00010935700E4918E2F0F940DF20F94DCF1D8
:10EB000089E991EE60E00F94C2F1E2E0F0E0109349
:10EB10005700E4918E2F0F940DF20F94DCF188EAE8
:10EB200091EE60E00F94C2F1E1E0F0E01093570045
:10EB30001491812F0F940DF20F94DCF107CF8BE825
:10EB400092EE62E00F94F5F18BE492EE60E00F94A8
:10EB5000F5F10F94DCF100E010E019C0C8016F2D51
:10EB60000F947FFEFF2031F489E492EE60E00F9471
:10EB7000C2F10BC0F092C6008091C00086FFFCCFAE
:10EB80008091C00080648093C0000F5F1F4FC80158
:10EB900081519F41A0E0B0E0ABBFFC01F790BAE229
:10EBA000FB1621F0E2E000301E07C1F60F94DCF105
:10EBB0000F94DCF187E592EE60E00F94F5F10F948D
:10EBC000DCF1CC24DD2400E010E01EC0C8010F946D
:10EBD00077FEF82E882331F489E492EE60E00F94FA
:10EBE000C2F10BC08093C6008091C00086FFFCCFAD
:10EBF0008091C00080648093C000FE1419F00894D6
:10EC0000C11CD11C0F5F1F4FC80181519F41A0E063
:10EC1000B0E0ABBFFC01E790FAE2EF1621F022E092
:10EC20000030120799F60F94DCF10F94DCF182E6C4
:10EC300092EE60E00F94C2F1C60161E070E00F94C3
:10EC400034F20F94DCF10F94DCF110920202109276
:10EC50000302109204021092050278CE89E992EE26
:10EC600062E00F94F5F1279A2F9A16C02F9880E052
:10EC700090E0E0EDF7E03197F1F7019684369105E9
:10EC8000C1F72F9A80E090E0E0EDF7E03197F1F7DF
:10EC9000019684369105C1F78091C00087FFE6CFC9
:10ECA0008091C00087FFFCCF64C485EA92EE62E0E9
:10ECB0000F94F5F140910202509103026091040219
:10ECC0007091050281E020E10F9491F2809102029F
:10ECD00090910302A0910402B091050280509F4FD1
:10ECE000AF4FBF4F8093020290930302A0930402A0
:10ECF000B093050280509041A040B04008F426CE69
:10ED0000A4CF83EB92EE62E00F94F5F140910602FE
:10ED100050910702609108027091090280E020E1A1
:10ED20000F9491F28091060290910702A09108023F
:10ED3000B091090280509F4FAF4FBF4F80930602A2
:10ED400090930702A0930802B0930902FFCD80ECD4
:10ED500092EE62E00F94F5F183E792EE60E00F949B
:10ED6000F5F18FE792EE60E00F94F5F18BE892EE0B
:10ED700060E00F94F5F189E992EE60E00F94F5F10F
:10ED800085EA92EE60E00F94F5F183EB92EE60E09D
:10ED90000F94F5F180EC92EE60E00F94F5F187ECC2
:10EDA00092EE60E00F94F5F188ED92EE60E00F9442
:10EDB000F5F18FED92EE60E00F94F5F18AEE92EEB0
:10EDC00060E00F94F5F183E093EEBDCD87EC92EE19
:10EDD00062E00F94F5F181E40F947BF282E40F94EA
:10EDE0007BF283E40F947BF284E40F947BF285E45E
:10EDF0000F947BF286E40F947BF287E40F947BF20E
:10EE000088E40F947BF28AE40F947BF28BE40F94F6
:10EE10007BF28CE40F947BF299CD88ED92EE62E068
:10EE20000F94F5F1772473948824992409C48FED05
:10EE300092EE62E00F94F5F140910A0250910B02BC
:10EE400060910C0270910D0282E020E10F9491F22A
:10EE500080910A0290910B02A0910C02B0910D02D8
:10EE600080509F4FAF4FBF4F80930A0290930B0289
:10EE7000A0930C02B0930D0269CD8AEE92EE62E08F
:10EE80000F94F5F184EE90EE60E00F94F5F18FECC5
:10EE900091EE60E00F94F5F1662477244301CC5D98
:10EEA000DE4F19821882C452D140D401C301B695F5
:10EEB000A79597958795CA5DDE4F88839983AA8326
:10EEC000BB83C652D140CC5DDE4FA881B981C4520C
:10EED000D1401196CC5DDE4FB983A883C452D14096
:10EEE000CD0162E070E00F9434F2B0E2B093C6005E
:10EEF0008091C00086FFFCCF8091C0008064809329
:10EF0000C000EDE2E093C6008091C00086FFFCCF18
:10EF10008091C00080648093C000F0E2F093C6004E
:10EF20008091C00086FFFCCF8091C00080648093F8
:10EF3000C000CA5DDE4FE880F9800A811B81C6529D
:10EF4000D140BB27A12F902F8F2D0F940DF2CA5DBA
:10EF5000DE4F8881C652D1400F940DF2B0E2FB2EF5
:10EF6000F092C6008091C00086FFFCCF8091C00067
:10EF700080648093C0000DE30093C6008091C000C0
:10EF800086FFFCCF8091C00080648093C00010E2B7
:10EF90001093C6008091C00086FFFCCF8091C00016
:10EFA00080648093C0008BBEF3012791C65DDE4F65
:10EFB0002883CA52D140A22EBB24CC24DD2408943D
:10EFC000611C711C811C911C8BBEF3018791282E42
:10EFD0003324442455240894611C711C811C911C09
:10EFE0008BBEF3013791C55DDE4F3883CB52D140E4
:10EFF0000894611C711C811C911C8BBEF30147910C
:10F00000C45DDE4F4883CC52D140ADEFEA2EAFEF66
:10F01000FA2EAFEF0A2FAFEF1A2F6E0C7F1C801E57
:10F02000911E142D032DF22CEE24EA0CFB1C0C1D5A
:10F030001D1D0F940DF220E22093C6008091C000A8
:10F0400086FFFCCF8091C00080648093C000C65DC5
:10F05000DE4F8881CA52D1400F940DF230E23093D6
:10F06000C6008091C00086FFFCCF8091C000806404
:10F070008093C000C45DDE4F8881CC52D1400F9494
:10F080000DF240E24093C6008091C00086FFFCCFA5
:10F090008091C00080648093C000C55DDE4F888190
:10F0A000CB52D1400F940DF250E25093C6008091A4
:10F0B000C00086FFFCCF8091C00080648093C000B8
:10F0C0008FEFE8168FEFF80680E0080780E018075A
:10F0D00031F484E092EE60E00F94C2F1DFC0D80119
:10F0E000C7018070907CA070B0708050904CA040A0
:10F0F000B040D1F52FEF3FE340E050E0E222F322B1
:10F1000004231523CA5DDE4FA880B980CA80DB8046
:10F11000C652D140AE0CBF1CC01ED11EAA0CBB1CD7
:10F12000CC1CDD1C8EE092EE60E00F94C2F1BB2798
:10F13000A12F902F8F2D0F940DF28E2D0F940DF285
:10F1400030E23093C6008091C00086FFFCCF8091F2
:10F15000C00080648093C0004EE34093C60080915D
:10F16000C00086FFFCCF87C08EE09EEFA0E0B0E03D
:10F17000E822F9220A231B239CE0E91694E9F90608
:10F1800090E0090790E0190709F088C0C45DDE4FE0
:10F19000A881CC52D140EA2EFF2400E010E0102FCD
:10F1A0000F2DFE2CEE24C55DDE4FB881CB52D14031
:10F1B000EB0EF11C011D111DD601C501817090706F
:10F1C000A070B070DC0199278827E80EF91E0A1F8D
:10F1D0001B1F20EF30E040E050E0A222B322C42207
:10F1E000D52241E1AA0CBB1CCC1CDD1C4A95D1F7F1
:10F1F000EA0CFB1C0C1D1D1D81E090E0A0E0B0E0BE
:10F20000282239224A225B2235E1220C331C441C7D
:10F21000551C3A95D1F7E20CF31C041D151D57013E
:10F220006801AA0CBB1CCC1CDD1C85E192EE60E0E1
:10F230000F94C2F1C801AA27BB270F940DF2BB2778
:10F24000A12F902F8F2D0F940DF28E2D0F940DF274
:10F2500090E29093C6008091C00086FFFCCF809121
:10F26000C00080648093C000AEE3A093C60080918C
:10F27000C00086FFFCCF8091C00080648093C000F6
:10F28000C601AA27BB270F940DF2BB27AD2D9C2DDD
:10F290008B2D0F940DF28A2D0F940DF20F94DCF14B
:10F2A000CC5DDE4FE881F981C452D140F99709F471
:10F2B0004DCBF4E0EF2EF12C012D112D6E0C7F1CA7
:10F2C000801E911EF2CD83E093EE62E00F94F5F183
:10F2D0008AE192EE60E00F94C2F18091C00087FF56
:10F2E000FCCF1091C6001F751093C6008091C0001E
:10F2F00086FFFCCF8091C00080648093C0000F9493
:10F30000DCF1812F81548A3108F036C1163409F4BA
:10F3100095C0173490F4133409F44EC0143430F40B
:10F320001134F1F0123409F01DC130C0143409F465
:10F3300059C0153409F016C16BC01A3409F4C4C0A1
:10F340001B3438F4173409F48FC0183409F00AC19B
:10F35000A1C01B3409F4D2C01C3409F003C1E8C0B9
:10F360008FEF81B90DC082B1809582B980E090E0C5
:10F37000E0EDF7E03197F1F70196883C9105C1F790
:10F380008091C00087FFEFCF12B8EFC08FEF84B934
:10F390000DC085B1809585B980E090E0E0EDF7E0A3
:10F3A0003197F1F70196883C9105C1F78091C00033
:10F3B00087FFEFCF15B8D9C08FEF87B90DC088B1DF
:10F3C000809588B980E090E0E0EDF7E03197F1F7C3
:10F3D0000196883C9105C1F78091C00087FFEFCF6F
:10F3E00018B8C3C08FEF8AB90DC08BB180958BB9A7
:10F3F00080E090E0E0EDF7E03197F1F70196883C8E
:10F400009105C1F78091C00087FFEFCF1BB8ADC059
:10F410008FEF8DB90DC08EB180958EB980E090E0F0
:10F42000E0EDF7E03197F1F70196883C9105C1F7DF
:10F430008091C00087FFEFCF1EB897C08FEF80BBD1
:10F440000DC081B3809581BB80E090E0E0EDF7E0F6
:10F450003197F1F70196883C9105C1F78091C00082
:10F4600087FFEFCF11BA81C08FEF83BB0DC084B38C
:10F47000809584BB80E090E0E0EDF7E03197F1F714
:10F480000196883C9105C1F78091C00087FFEFCFBE
:10F4900014BA6BC08FEF809301010FC080910201FD
:10F4A00080958093020180E090E0E0EDF7E03197F5
:10F4B000F1F70196883C9105C1F78091C00087FF64
:10F4C000EDCF1092020151C08FEF809304010FC065
:10F4D0008091050180958093050180E090E0E0ED4A
:10F4E000F7E03197F1F70196883C9105C1F78091DB
:10F4F000C00087FFEDCF1092050137C08FEF8093DA
:10F5000007010FC08091080180958093080180E079
:10F5100090E0E0EDF7E03197F1F70196883C910536
:10F52000C1F78091C00087FFEDCF109208011DC088
:10F530008FEF80930A010FC080910B01809580931B
:10F540000B0180E090E0E0EDF7E03197F1F70196F4
:10F55000883C9105C1F78091C00087FFEDCF1092E4
:10F560000B0103C085E292EEEEC98091C00087FFD7
:10F57000FCCF8091C600EAC988E392EEE4C98CE131
:10F5800091EEE1C988249924933011F1943028F444
:10F59000913089F09230B8F408C0953061F195301F
:10F5A000F0F0963009F048C043C02B3109F042C951
:10F5B00091E06BE13FC96227C15DDE4F2883CF52E6
:10F5C000D14092E037C9B22FA0E0622793E032C960
:10F5D000822F90E0A82BB92B622794E02BC92E3004
:10F5E00009F039C3622795E0C05DDE4F19821882A9
:10F5F000C053D1401FC9E1E0F0E0EC0FFD1FC05D3A
:10F60000DE4F08811981C053D140E00FF11F2083E4
:10F610000F5F1F4FC05DDE4F19830883C053D14079
:10F6200062270A171B0709F005C9D80196E002C92D
:10F63000261709F010C303C0973009F0FBC87724E0
:10F640009981933109F412C19431C8F4963009F4C8
:10F65000D8C0973050F4923009F406C1933009F4C1
:10F660006DC0913009F059C253C0913109F477C08F
:10F67000923108F0BBC0903109F04FC2F5C098310B
:10F6800009F487C0993150F4953109F4EFC09531F0
:10F6900008F4C6C1963109F040C2C2C19A3109F4DA
:10F6A0006CC09A3108F491C09B3109F45BC09D3164
:10F6B00009F033C29D81903359F48F81882311F46E
:10F6C0009EE11CC0813011F091E018C098E916C08D
:10F6D000892F807591F0903539F4E0E0F0E089E011
:10F6E0008093570094910AC0983539F4E3E0F0E034
:10F6F00089E080935700949101C090E01A821B82A8
:10F700008D818C831D829E831F8227E030E009C299
:10F710001A8288E08B8381E48C8386E58D8382E581
:10F720008E8389E48F8383E5888780E589878FE5E9
:10F730008A8782E38B872BE030E0F3C18A818139AD
:10F7400041F0823941F0803911F48FE005C080E04A
:10F7500003C082E001C08AE01A828B8344C0772410
:10F76000739482C08D81882311F48EE12CC0813086
:10F7700011F081E028C088E926C01A82E1E0F0E0BB
:10F7800089E08093570084918B831C8224E030E0D1
:10F79000C8C18B81803589F48C81883039F4E2E0EE
:10F7A000F0E089E08093570084910DC0E0E0F0E044
:10F7B00089E080935700849106C0E3E0F0E089E09F
:10F7C0008093570084911A82DFCF8D81836C99E0FA
:10F7D000E1E0F0E0082E90935700E89507B600FCB2
:10F7E000FDCF1A821B8223E030E09BC180EC8A832C
:10F7F000CE5CDE4F188219821A821B82C253D1401E
:10F800008EC18A8190E0A0E0B0E0582F44273327D2
:10F8100022278B8190E0A0E0B0E0DC0199278827C7
:10F82000282B392B4A2B5B2B8D8190E0A0E0B0E098
:10F83000282B392B4A2B5B2B8C8190E0A0E0B0E089
:10F84000BA2FA92F982F8827282B392B4A2B5B2BCF
:10F85000220F331F441F551FC05EDE4F288339839C
:10F860004A835B83C052D1401A8259C13A81C95C34
:10F87000DE4F3883C753D140CA5CDE4F1882C6536F
:10F88000D1408B81C82EDD24CA5CDE4F488159816E
:10F89000C653D140C42AD52A933109F082C0CE5C28
:10F8A000DE4F88819981AA81BB81C253D1408050AB
:10F8B000904CA340B04030F583E0CE5CDE4FE88052
:10F8C000F9800A811B81C253D140F70100935B008C
:10F8D00080935700E89507B600FCFDCFCE5CDE4F65
:10F8E000088119812A813B81C253D14000501F4FAA
:10F8F0002F4F3F4FCE5CDE4F088319832A833B8313
:10F90000C253D140C05EDE4F488159816A817B81FC
:10F91000C052D140DE011B9631E08C9111962C91A2
:10F9200011971296C75CDE4F2883C953D140C85C3B
:10F93000DE4F1882C853D14090E0C85CDE4FE881AA
:10F94000F981C853D1408E2B9F2B0C01FA01609393
:10F950005B0030935700E89511244E5F5F4F6F4F67
:10F960007F4F0EEFE02E0FEFF02ECE0CDF1CC114F8
:10F97000D10499F685E0C05EDE4F088119812A81A5
:10F980003B81C052D140F80120935B008093570027
:10F99000E89507B600FCFDCF81E180935700E8951C
:10F9A00035C0C05EDE4F88819981AA81BB81C0527B
:10F9B000D140B695A795979587957C018601ABE0D8
:10F9C000AA2EB12CAC0EBD1E0BC0D5016D915D01F0
:10F9D000C7010F947FFE0894E11CF11C01501040F8
:10F9E0000115110591F7A60160E070E0440F551F65
:10F9F000661F771FC05EDE4FE880F9800A811B8199
:10FA0000C052D1404E0D5F1D601F711F1A82C05E33
:10FA1000DE4F488359836A837B83C052D1407FC0C5
:10FA2000FA80C55CDE4FF882CB53D140C65CDE4F16
:10FA30001882CA53D1408B81C82EDD24C65CDE4FAC
:10FA400008811981CA53D140C02AD12A1A828981DA
:10FA5000BE016D5F7F4F843121F59601C05EDE4FA0
:10FA6000E880F9800A811B81C052D1400BBFF701A9
:10FA700087919691DB018C9311969C936E5F7F4FDB
:10FA8000D801C7010296A11DB11DC05EDE4F88835B
:10FA90009983AA83BB83C052D14022503040F1F6F3
:10FAA00036C0C05EDE4F288139814A815B81C052F9
:10FAB000D1400894C108D108760100E010E0089414
:10FAC000C11CD11C0894E11CF11C011D111DE20E8A
:10FAD000F31E041F151F21BDBB27A52F942F832FB5
:10FAE00082BD2F5F3F4F4F4F5F4FF89A80B5DB01CC
:10FAF0008D93BD012E153F054007510761F7C05E8C
:10FB0000DE4F288339834A835B83C052D1409601FC
:10FB10002D5F3F4FFB01108204C080EC8A8322E0FE
:10FB200030E08BE18093C6008091C00086FFFCCF5F
:10FB30008091C00080648093C000C15DDE4FF88179
:10FB4000CF52D140F093C6008091C00086FFFCCF19
:10FB50008091C00080648093C000432F3093C60022
:10FB60008091C00086FFFCCF8091C00080648093AC
:10FB7000C000922F2093C6008091C00086FFFCCF6A
:10FB80008091C00080648093C0008EE08093C600A6
:10FB90008091C00086FFFCCF8091C000806480937C
:10FBA000C00065E1C15DDE4FE880CF52D1406E25D7
:10FBB00069276427FE01319610C090819093C6009A
:10FBC0008091C00086FFFCCF31968091C000806498
:10FBD0008093C0006927215030402115310569F715
:10FBE0006093C6008091C00086FFFCCF8091C0006A
:10FBF00080648093C00085B1805885B9772081F4F6
:10FC0000C15DDE4F0881CF52D1400F5FC15DDE4F35
:10FC10000883CF52D14090E0A0E0B0E00D941AF4F8
:10FC200027982F9880E090E020ED37E0F901319798
:10FC3000F1F7019684369105C9F700008091C00064
:10FC40008D7F8093C00081E180935700E895EE2777
:10FC5000FF270994FFCF90E00D941AF497FB092E2B
:10FC600007260AD077FD04D02ED006D000201AF443
:10FC7000709561957F4F0895F6F7909581959F4F08
:10FC80000895A1E21A2EAA1BBB1BFD010DC0AA1FDD
:10FC9000BB1FEE1FFF1FA217B307E407F50720F0F5
:10FCA000A21BB30BE40BF50B661F771F881F991F70
:10FCB0001A9469F760957095809590959B01AC01B9
:10FCC000BD01CF010895AA1BBB1B51E107C0AA1FAC
:10FCD000BB1FA617B70710F0A61BB70B881F991FED
:10FCE0005A95A9F780959095BC01CD010895F99991
:10FCF000FECF92BD81BDF89A992780B50895262F31
:10FD0000F999FECF1FBA92BD81BD20BD0FB6F89400
:0EFD1000FA9AF99A0FBE01960895F894FFCF63
:040000033000E000E9
:00000001FF