:100000000C9463000C948B000C948B000C948B006C
:100010000C948B000C948B000C948B000C948B0034
:100020000C948B000C948B000C948B000C948B0024
:100030000C948B000C948B000C948B000C948B0014
:100040000C94DE040C948B000C94A0040C947A04A1
:100050000C948B000C948B000C948B000C948B00F4
:100060000C948B000C948B000000000023002600F1
:10007000290000000008000201000003040700003E
:1000800000000000000000000000250028002B00F8
:1000900000000000240027002A00040404040404D3
:1000A0000404020202020202030303030303010227
:1000B00004081020408001020408102001020408F6
:1000C0001020870C370D11241FBECFEFD8E0DEBF04
:1000D000CDBF12E0A0E0B1E0ECEAF1E202C0059091
:1000E0000D92AA3FB107D9F724E0AAEFB2E001C010
:1000F0001D92AA3BB207E1F710E0C2E6D0E004C0CF
:100100002197FE010E94A60EC136D107C9F70E94B1
:100110005F0A0C94C9100C940000089580E090E0F0
:100120000895FC01538D448D252F30E0842F90E0FD
:10013000821B930B541710F0CF96089501970895E2
:10014000FC01918D828D981761F0828DDF01A80FDF
:10015000B11D5D968C91928D9F5F9F73928F90E001
:1001600008958FEF9FEF0895FC01918D828D981770
:1001700031F0828DE80FF11D858D90E008958FEFAD
:100180009FEF0895FC01918D228D892F90E0805C76
:100190009F4F821B91098F739927089580E793E001
:1001A0000E94C20021E0892B09F420E0822F0895EB
:1001B000FC01848DDF01A80FB11DA35ABF4F2C9104
:1001C000848D90E001968F739927848FA689B789D3
:1001D0002C93A089B1898C91837080648C93938DCA
:1001E000848D981306C00288F389E02D80818F7D6D
:1001F00080830895EF92FF920F931F93CF93DF9325
:10020000EC0181E0888F9B8D8C8D981305C0E88967
:10021000F989808185FD26C0F62E0B8D10E00F5FD9
:100220001F4F0F731127E02E8C8DE8120CC00FB6F4
:1002300007FCFACFE889F989808185FFF5CFCE01E7
:100240000E94D800F1CF8B8DFE01E80FF11DE35A1B
:10025000FF4FF0829FB7F8940B8FEA89FB8980816A
:1002600080620AC09FB7F894EE89FF896083E889AD
:10027000F98980818370806480839FBF81E090E0F2
:10028000DF91CF911F910F91FF90EF900895CF9341
:10029000DF93EC01888D8823C9F0EA89FB8980818E
:1002A00085FD05C0A889B9898C9186FD0FC00FB660
:1002B00007FCF5CF808185FFF2CFA889B9898C91A1
:1002C00085FFEDCFCE010E94D800E7CFDF91CF911F
:1002D0000895833081F028F4813099F08230A1F0C4
:1002E00008958730A9F08830B9F08430D1F4809136
:1002F00080008F7D03C0809180008F778093800085
:10030000089584B58F7702C084B58F7D84BD08952C
:100310008091B0008F7703C08091B0008F7D809373
:10032000B0000895CF93DF93282F30E0F901EE5805
:10033000FF4F8491F901E255FF4FD491F901E65640
:10034000FF4FC491CC2391F081110E946901EC2FE1
:10035000F0E0EE0FFF1FE859FF4FA591B491EC912B
:10036000ED2381E090E021F480E002C080E090E0A5
:10037000DF91CF9108951F93CF93DF93282F30E023
:10038000F901EE58FF4F8491F901E255FF4FD491E6
:10039000F901E656FF4FC491CC23C1F0162F81110D
:1003A0000E946901EC2FF0E0EE0FFF1FEA57FF4FAC
:1003B000A591B4919FB7F894111104C08C91D09578
:1003C000D82302C0EC91DE2BDC939FBFDF91CF914D
:1003D0001F9108953FB7F89480910303909104030F
:1003E000A0910503B091060326B5A89B05C02F3F39
:1003F00019F00196A11DB11D3FBFBA2FA92F982F4B
:100400008827820F911DA11DB11DBC01CD0142E0C5
:10041000660F771F881F991F4A95D1F708958F920D
:100420009F92AF92BF92CF92DF92EF92FF926B01B9
:100430007C010E94EA014B015C01C114D104E1047A
:10044000F104F1F00E94EA01DC01CB01881999095D
:10045000AA09BB09883E9340A105B10570F321E0CC
:10046000C21AD108E108F10888EE880E83E0981ED0
:10047000A11CB11CC114D104E104F10419F7DDCFB2
:10048000FF90EF90DF90CF90BF90AF909F908F90B4
:10049000089580910B03882329F080910C0390919B
:1004A0000D0308958EE094E0089580911003882351
:1004B00021F090910D0481E08927089570E0DC011E
:1004C0005296ED91FC915397E60FF71F208122235E
:1004D00059F0660F771F5096ED91FC915197E60FFA
:1004E000F71F80819181089580E090E008956F92D8
:1004F0007F928F929F92AF92BF92CF92DF92EF92B4
:10050000FF920F931F93CF93DF93EC010E94490258
:10051000DC011B962C911B97213009F04AC05296A2
:10052000ED91FC915397608000E010E0712C4E013A
:10053000BFE48B0E911C7E01E9E4EE0EF11C6E010E
:10054000FDE4CF0ED11C5E0189E0A80EB11C06159A
:1005500017057CF5CE010E94490260E00E945E0210
:10056000800F911FDC018C91F401208131812034B6
:100570003105E1F0D701ED91FC9111979F012F5FBB
:100580003F4F11963C932E938083F401808191819B
:100590000196918380832D913C91D6018D919C9100
:1005A0002817390719F4F701B182A0820F5F1F4F96
:1005B000CECFDF91CF911F910F91FF90EF90DF9001
:1005C000CF90BF90AF909F908F907F906F90089545
:1005D0000F931F93CF93DF93EC011F8288818823B1
:1005E000E1F000E010E0288530E088899989021761
:1005F00013077CF49801220F331FFC01E20FF31F55
:1006000080819181009711F00E94440F0F5F1F4F6E
:10061000EACF18860E94440F18828981882329F026
:100620008A899B890E94440F1982DF91CF911F9183
:100630000F910895CF93DF93EC010E945502882318
:10064000A1F01092100381E08E831F9284E08F93BB
:100650001F921F92DF93CF930E9403081E820F9078
:100660000F900F900F900F900F90DF91CF91089502
:10067000CF93DF93EC010E945502811114C081E0F9
:10068000809310038E831F9283E08F931F921F929B
:10069000DF93CF930E9403081E820F900F900F905C
:1006A0000F900F900F90DF91CF910895CF93DF932C
:1006B000EC010E9449023B81FC012185321322C0DA
:1006C00083858F3FB1F48A818823E1F08EE094E046
:1006D0000E945502811116C08EE094E00E943803FA
:1006E000EC81FD8109958EE094E0DF91CF910C942F
:1006F0001A03E881F9810280F381E02DCE01DF91B8
:10070000CF910994DF91CF910895CF92DF92EF922C
:10071000FF920F931F93CF93DF93CDB7DEB72C9744
:100720000FB6F894DEBF0FBECDBF8C010E94490208
:100730007C01DC011B968C91813009F0A4C0F8018A
:1007400086819781009711F00E94440FC8010E9492
:100750004902DC015296ED91FC915397808190E023
:10076000F8019187808701960E94AC0ED8011796F8
:100770009C938E931697E12CF12CF801808591853E
:1007800026813781E816F9069CF46901CE0CDF1C3E
:10079000C8010E94490260E00E945E028E0D9F1D0A
:1007A000DC018C91F6018083FFEFEF1AFF0AE5CFA1
:1007B000F901E80FF91F108281E0D8011E968C9391
:1007C0008EE094E00E945502811183C0F801828579
:1007D000882391F08EE094E00E943803D80150966F
:1007E000ED91FC91519716968D919C9117970995D3
:1007F0008EE094E00E941A03F8018585882309F4AD
:1008000068C0668177811A8219821C821B821E82CF
:100810001D826115710561F0FB0101900020E9F76F
:100820003197AF01461B570BCE0101960E941F0A5C
:100830008EE094E00E943803D80152960D911C91ED
:10084000539718861F821A8619861C861B86698113
:100850007A816115710531F04D815E81CE01079677
:100860000E941F0ACE010796F80109958F8198858D
:100870000E94440F8EE094E00E941A0389819A81BD
:100880000E94440F26C0823021F58EE094E00E9441
:10089000550281111EC060E0C7010E945E02FC018A
:1008A0008081D8011F968C931F971B968C9188236B
:1008B00081F08EE094E00E943803D8015496ED91C7
:1008C000FC9155971F968C9109958EE094E00E94BB
:1008D0001A032C960FB6F894DEBF0FBECDBFDF9182
:1008E000CF911F910F91FF90EF90DF90CF900895DF
:1008F0000E9493101F920F920FB60F9211242F9304
:100900003F934F935F936F937F938F939F93AF9397
:10091000BF93EF93FF9380E793E00E94D800FF918D
:10092000EF91BF91AF919F918F917F916F915F9167
:100930004F913F912F910F900FBE0F901F901895E0
:100940001F920F920FB60F9211242F938F939F93A4
:10095000EF93FF93E0918003F09181038081E09118
:100960008603F091870382FD12C0908180918903F4
:100970008F5F8F7320918A03821751F0E091890372
:10098000F0E0E059FC4F958F8093890301C080818E
:10099000FF91EF919F918F912F910F900FBE0F902C
:1009A0001F9018952FB7F8946091FF027091000383
:1009B00080910103909102032FBF08951F920F921F
:1009C0000FB60F9211242F933F938F939F93AF9362
:1009D000BF938091FF0290910003A0910103B09119
:1009E00002033091FE0223E0230F2D3720F40196FD
:1009F000A11DB11D05C026E8230F0296A11DB11D42
:100A00002093FE028093FF0290930003A0930103C2
:100A1000B09302038091030390910403A091050316
:100A2000B09106030196A11DB11D8093030390931D
:100A30000403A0930503B0930603BF91AF919F9168
:100A40008F913F912F910F900FBE0F901F9018958F
:100A50008F929F92AF92BF92CF92DF92EF92FF92CE
:100A60000F931F93CF93DF931F92CDB7DEB77C0117
:100A70008B010E94D2048090FA029090FB02A09019
:100A8000FC02B090FD02DC01CB0188199909AA098A
:100A9000BB09813D9740A105B10548F089288A2806
:100AA0008B2829F0D70117968C9181110FC20E94D3
:100AB000D2046093FA027093FB028093FC0290933D
:100AC000FD02F7019781911114C00F3F110589F4C0
:100AD000C7010E94E80281E0D70117968C9317970F
:100AE00051961C921E92509753961C921E925297AA
:100AF0001FC0F7018485843041F4992309F4EAC1C9
:100B000016861586078785E0C5C0853059F5992377
:100B100009F4E0C1D7012785C22ED12C8FEF90E0D8
:100B20008C199D0908171907B9F5211104C089E02E
:100B30001C968C93CFC1C601880F991F0E94AC0EE2
:100B4000F701918B808B11E01083C6010E94AC0EDF
:100B5000D70153969C938E93529711961C9311979D
:100B600086E0E6CF8630D9F0873009F053C099236C
:100B700009F4B0C1F701258530E00288F389E02D42
:100B8000E20FF31F6081862F90E04FEF50E0481B8B
:100B9000590B0417150779F0F701178254C19923EF
:100BA00009F498C1D70185850288F389E02DE80F03
:100BB000F11D008368C0220F331FD70150960D919D
:100BC0001C915197662369F0020F131F0E94AC0E0F
:100BD000F80191838083D7011C968C911C978F5FBD
:100BE00012C0F801E20FF31F11821082F70116867E
:100BF00085858F5F85879785891303C089E0848702
:100C000004C086E0D7011C968C93F70180858F5F26
:100C1000808760C1883009F03FC0992309F45AC128
:100C2000D701858520899189E22FF92FE80FF11DE1
:100C3000E80FF11D80819181009759F01E962C914B
:100C40001E9731E0320F1E963C93FC01E20FF11D1E
:100C50000083F70185850288F389E02DE80FF11DF7
:100C6000D7011E962C911E979081291333C11E9691
:100C70001C921E978F5F1D968C931D971F969C91BB
:100C80001F97891305C01C968C911C978F5F50CFBE
:100C900086E0F70184871EC1893009F0D8C0992306
:100CA00009F418C1048B0111CEC01782809117047A
:100CB00081118CC08385823051F412828381882314
:100CC00009F49EC00588F689E02D80E00CC08130D3
:100CD00061F4F70182838381882309F491C0058838
:100CE000F689E02D81E009958BC0833081F41F9255
:100CF00081E08F931F921F92FF92EF920E94030850
:100D00000F900F900F900F900F900F9079C085303B
:100D100009F076C060E0C7010E945E024BE050E03F
:100D2000BC018AE591E00E949810892B09F068C007
:100D30001982D7015296ED91FC915397A180B12C65
:100D400000E010E0C12CD12C0A151B056CF461E009
:100D5000C7010E945E02800F911FFC018081C80EB6
:100D6000D11C0F5F1F4FF0CFC98284E090E00E943A
:100D7000AC0E8C01DC0113961C92139781E08C93CE
:100D8000CE01019612969C938E93119784E090E089
:100D90000E94AC0EFC01138287E1808386E691E01D
:100DA000928381831F930F93FF93EF9382E08F933E
:100DB00085E08F931F921F92FF92EF920E9403088B
:100DC0000FB6F894DEBF0FBECDBF1AC021E1C22E10
:100DD00023E0D22E00E010E080916F0390E008172E
:100DE000190774F4D6018D919D916D01DC01ED918F
:100DF000FC910190F081E02D09950F5F1F4FECCF22
:100E0000F70184818823F9F081858823E1F0C70107
:100E10000E943803D70150960D911C91519752961C
:100E20002D913C9153975796ED91FC9158971F96B1
:100E30004C911F971B966C911B9719968C91099555
:100E4000C7010E941A03C7010E94E80243C0992308
:100E500009F440C0813001F5602FF70101870023BC
:100E600091F1948191112FC040916F0350E0E1E125
:100E7000F3E020E030E02417350754F4A191B1915C
:100E800013967C91671301C091E02F5F3F4FF3CF22
:100E9000992309F481CE17C0823089F402872FEF9D
:100EA00030E0201B310994E0359527959A95E1F7BC
:100EB0000F7010E02017310731F0178204C0833023
:100EC00011F4F70103878F5FD70132CEC7010E946B
:100ED000E802EDCD0F90DF91CF911F910F91FF9020
:100EE000EF90DF90CF90BF90AF909F908F9008953C
:100EF000CF93DF9380910703811132C080910E035D
:100F000090910F03DC01ED91FC910084F185E02DBF
:100F10000995892B29F180910E0390910F03DC0133
:100F2000ED91FC910284F385E02D0995EC01BC0163
:100F300077278EE094E00E9428058091130488238F
:100F4000E9F28EE094E00E943803E0912704F091EA
:100F500028048C2F09958EE094E00E941A03CECFCE
:100F6000DF91CF9108950E94CE0081110C947807F3
:100F70000895CF93DF93EC0180910803882359F003
:100F800080910E0390910F03DC01ED91FC91019093
:100F9000F081E02D09958E81811108C062E070E03A
:100FA00080E090E0DF91CF910C940F02DF91CF9120
:100FB0000895CF92DF92EF92FF920F931F93CF93FA
:100FC000DF936C017A018B01C0E0D0E0CE15DF0524
:100FD00081F0D8016D918D01D601ED91FC910190C8
:100FE000F081E02DC6010995892B11F02196EECFF5
:100FF0007E01C701DF91CF911F910F91FF90EF907C
:10100000DF90CF9008955F926F927F928F929F9220
:10101000AF92BF92CF92DF92EF92FF920F931F9306
:10102000CF93DF93CDB7DEB76B970FB6F894DEBFE3
:101030000FBECDBF0DA51EA55FA4CAA80E94D204F5
:10104000552009F488C020919704222309F483C015
:101050008090980490909904A0909A04B0909B047A
:1010600081149104A104B10409F475C0DC01CB0121
:1010700088199909AA09BB090196A11DB11D883CCF
:101080009105A105B10508F066C08091100328EC18
:10109000820E911CA11CB11C882309F44EC01A8633
:1010A0001B861C861D861E861F86188A1D8A198629
:1010B00019821A8210920D0418861B821C821D82CE
:1010C0001E821F82CE0101967C0190930D038093B6
:1010D0000C0381E080930B030E94D204681579050C
:1010E0008A059B0508F4BFC088858111BCC02DC04E
:1010F000F8018781882379F180910E0390910F0385
:10110000DC01ED91FC910084F185E02D0995892B9E
:10111000A1F080910E0390910F03DC01ED91FC9101
:101120000284F385E02D09958F3FBFEF9B0729F0DF
:10113000BC018EE094E00E9428050E94D20468154C
:1011400079058A059B05C0F2D3CF10920D0310924A
:101150000C0310920B0381E0809397047E01E3E37C
:10116000EE0EF11C6FEFC8010E94B90762E1C801E1
:101170000E94B907652DC8010E94B9070E94B50DEC
:1011800020E130E040E050E00E940C0E962F909558
:10119000F0E19F9FC00111246F70682BC8010E946D
:1011A000B90769A9C8010E94B9076C2DC8010E943E
:1011B000B9076C2D6095C8010E94B907812C912C4C
:1011C000D12C8C149D04CCF5370122E0620E711CE9
:1011D000D701ED90FC90F7016081C8010E94B9072A
:1011E000D7016C916095C8010E94B907A12CB12C60
:1011F000F701808190E0A816B9066CF40180F281B5
:10120000E02DEA0DFB1D6081C8010E94B907FFEFC8
:10121000AF1ABF0AEDCFE114F10451F083818823A6
:1012200021F0818192810E94440FC7010E94440FE6
:10123000BFEF8B1A9B0A7301C4CF60E0C8010E9404
:10124000B907552099F10E94D204DC01CB01019627
:10125000A11DB11D8093980490939904A0939A04C2
:10126000B0939B0423C080910E0390910F03DC0187
:10127000ED91FC910084F185E02D0995892B09F40D
:101280002BCF80910E0390910F03DC01ED91FC9127
:101290000284F385E02D09958F3FBFEF9B0709F48A
:1012A0001BCFBC01C7010E94280516CF6B960FB655
:1012B000F894DEBF0FBECDBFDF91CF911F910F918C
:1012C000FF90EF90DF90CF90BF90AF909F908F9066
:1012D0007F906F905F9008950F931F93CF93DF934C
:1012E000FC0101900020E9F73197EF01C81BD90BF1
:1012F00039F18C0184E090E00E94AC0EFC01138275
:101300009E01CF3FD10519F014F02FEF30E020837C
:1013100012830183FF93EF9381E08F938F931F924A
:1013200083E28F938EE094E09F938F930E94030853
:101330008DB79EB708960FB6F8949EBF0FBE8DBFAF
:10134000DF91CF911F910F910895CF92DF92EF928D
:10135000FF920F931F93CF93DF93CDB7DEB7CDB638
:10136000DEB6FC0124813581232B29F06081718157
:101370006115710521F41092960466E974E0FB0191
:1013800001900020E9F7CF01861B970B02962DB73D
:101390003EB7281B390B0FB6F8943EBF0FBE2DBFCA
:1013A0008DB79EB701967C01EDB7FEB711820E9402
:1013B000AE1066EF72E0C7010E94AE10F701019017
:1013C0000020E9F731978F010E191F0951F184E0D0
:1013D00090E00E94AC0EFC01138298010F3F1105B2
:1013E00019F014F02FEF30E02083F282E182FF93B6
:1013F000EF9381E08F9380914B048F931F928091A4
:101400004D048F938EE094E09F938F930E94030886
:101410002DB73EB7285F3F4F0FB6F8943EBF0FBEC3
:101420002DBF0FB6F894DEBE0FBECDBEDF91CF91BB
:101430001F910F91FF90EF90DF90CF900895EF9262
:10144000FF920F931F93CF93DF93EC017B018A01EF
:1014500088819981009729F02A813B8124173507DB
:10146000F8F4B8016F5F7F4F0E94CD0F009759F0DD
:10147000998388831B830A832C813D81232B81F4EC
:10148000FC0110820DC088819981009711F00E94A3
:10149000440F198218821D821C821B821A8207C087
:1014A0001D830C83B701888199810E94C210CE01EF
:1014B000DF91CF911F910F91FF90EF900895CF93FF
:1014C000DF93CDB7DEB72C970FB6F894DEBF0FBE13
:1014D000CDBF789484B5826084BD84B5816084BDBD
:1014E00085B5826085BD85B5816085BD80916E00C2
:1014F000816080936E0010928100809181008260F3
:10150000809381008091810081608093810080912F
:1015100080008160809380008091B100846080931E
:10152000B1008091B00081608093B00080917A001A
:10153000846080937A0080917A00826080937A0040
:1015400080917A00816080937A0080917A0080682F
:1015500080937A001092C10080910803811150C0DD
:1015600080E793E090930F0380930E03E091800354
:10157000F091810392E09083E0917C03F0917D03F0
:101580001082E0917E03F0917F0380E180831092CE
:101590008803E0918403F091850386E08083E091E5
:1015A0008203F0918303808180618083E0918203D4
:1015B000F0918303808188608083E0918203F091C1
:1015C0008303808180688083E0918203F0918303AC
:1015D00080818F7D80831092070381E080930803D0
:1015E0001F929F931F921F928EE094E09F938F9380
:1015F0000E9403080F900F900F900F900F900F9084
:10160000EBEBF0E02491E7EAF0E08491882399F095
:1016100090E0880F991FFC01E057FF4FA591B4910E
:10162000FC01EA57FF4F859194918FB7F894EC91A4
:10163000E22BEC938FBFEE24E394F12C809109030D
:1016400090910A03019709F0E7C08091370488233D
:1016500009F4E2C010920A031092090310923704B1
:1016600060912F047091300487E291E00E94B910DC
:10167000892B31F48DE00E949201892B09F4DCC0A2
:101680001092370460912F047091300487E291E04A
:101690000E94B910892B09F4C6C0109237046091DA
:1016A0002F04709130048DE191E00E94B910892BD4
:1016B00009F4C9C01092370460912F04709130046E
:1016C0008DE191E00E94B910892B09F4C9C01092F4
:1016D000370460912F047091300487E191E00E94FB
:1016E000B910892B09F4C5C01092370460912F04FA
:1016F0007091300487E191E00E94B910892B09F4C0
:10170000C1C01092370400912F0410913004B80129
:1017100082E191E00E94B910892B09F0CFC08EE7D9
:1017200091E00E946C096CEA7DE080E090E00E940C
:101730000F0284EA91E00E946C0964EC79E080E099
:1017400090E00E940F028EEA91E00E946C0964EC26
:1017500079E080E090E00E940F0289EB91E00E9426
:101760006C0964EC79E080E090E00E940F0280EC6C
:1017700091E00E946C0964EC79E080E090E00E94C6
:101780000F0286EC91E00E946C0968E57BE180E045
:1017900090E00E940F0218861F821A8619861C8606
:1017A0001B8640E050E068EF72E0CE0107960E9491
:1017B0001F0A1092370460912F0470913004611554
:1017C000710509F46EC0FB0101900020E9F7319723
:1017D000AF01461B570BCE0107960E941F0A1A82C3
:1017E00019821C821B821E821D826F817885611581
:1017F000710531F04B855C85CE0101960E941F0A70
:10180000CE0101960E94A50989819A810E94440F08
:101810008F8198850E94440FF0920A03E092090399
:101820000E94B3070BCF8DE00E949201019709F04F
:1018300034CF84E892E02EC061E08DE00E94BB01CD
:1018400081E792E027C08DE00E949201019709F0A4
:1018500031CF60E08DE00E94BB0189E992E01AC0BF
:101860008DE00E949201892B09F031CF8DEA92E040
:1018700011C08DE00E949201019709F035CF83ECF1
:1018800092E008C08DE00E949201892B09F039CFC7
:101890008CED92E00E946C0960EA7FE080E090E0CD
:1018A00078CF8F819885009711F00E94440F188699
:1018B0001F821C861B861A86198691CFB8018AE082
:1018C00091E00E94B910892B49F482E492E00E94D1
:1018D0006C096CED75E080E090E05BCF87E492E00E
:1018E0000E946C0968E873E180E090E052CFE091DB
:1018F0006F03EF3259F021E02E0F20936F03F0E0D9
:10190000EE0FFF1FEF5EFC4F9183808308950F93CE
:101910001F93CF93DF93E0E7F3E01382128288EE08
:1019200093E0A0E0B0E084839583A683B78384E34B
:1019300091E09183808385EC90E09587848784ECA7
:1019400090E09787868780EC90E0918B808B81EC8C
:1019500090E0938B828B82EC90E0958B848B86EC6D
:1019600090E0978B868B118E128E138E148EEEE084
:10197000F4E011861286138614861586168617865D
:10198000148A10861082118210920D04178212821E
:101990001382148215821682ECE9F4E0118213821C
:1019A000128215821482168291E09083E3EAF4E0B9
:1019B000108211821282148213821682158210867E
:1019C0001782118614861386C5E4D4E086E28887E0
:1019D00022E02E839F830EE411E0198308838B831A
:1019E0001A82CE010E94770C86E591E09983888364
:1019F000EEE8F4E08EE494E0918380839093910488
:101A000080939004F0939304E093920410929504D1
:101A100010929404CFE3D4E01983088383E28B838C
:101A20001A82CE010E94770C8EE491E0998388831C
:101A3000C9E2D4E01983088384E28B831A82CE0141
:101A40000E94770C86E491E0998388831F821E822E
:101A50008FEF9FEF998788871A861E861B861C86C4
:101A60001D861F86DF91CF911F910F910895CF930F
:101A7000DF938091AC04882301F18091AE049091B2
:101A8000AF04892BD1F0C0E0D0E02091AC0430E06D
:101A90008091AE049091AF04C217D30764F49E0105
:101AA000220F331FFC01E20FF31F808191810E94FE
:101AB000440F2196EACF0E94440F8091A604909192
:101AC000A704009721F0DF91CF910C94440FDF9190
:101AD000CF9108958F929F92AF92BF92CF92DF9253
:101AE000EF92FF92CF93DF93EC01688179818A8135
:101AF0009B81611571058105910521F464E279ED01
:101B00008BE597E02DE133EF41E050E00E940C0EB1
:101B100049015A019B01AC01A7EAB1E40E942B0ED6
:101B20006B017C01ACEEB4EFA50194010E94390E6B
:101B3000DC01CB018C0D9D1DAE1DBF1DB7FF03C089
:101B40000197A109B04888839983AA83BB83BC010C
:101B5000CD019F77DF91CF91FF90EF90DF90CF90F5
:101B6000BF90AF909F908F9008958F929F92AF9269
:101B7000BF92CF92DF92EF92FF926091000170913D
:101B800001018091020190910301611571058105A8
:101B9000910521F464E279ED8BE597E02DE133EFD7
:101BA00041E050E00E940C0E49015A019B01AC013A
:101BB000A7EAB1E40E942B0E6B017C01ACEEB4EFFE
:101BC000A50194010E94390EDC01CB018C0D9D1DF5
:101BD000AE1DBF1DB7FF03C00197A109B048809398
:101BE000000190930101A0930201B0930301BC0195
:101BF000CD019F77FF90EF90DF90CF90BF90AF9097
:101C00009F908F90089560930001709301018093DD
:101C10000201909303010895052E97FB1EF4009492
:101C20000E94230E57FD07D00E94750E07FC03D0BB
:101C30004EF40C94230E50954095309521953F4FCE
:101C40004F4F5F4F089590958095709561957F4FA8
:101C50008F4F9F4F08950E94970EA59F900DB49FA0
:101C6000900DA49F800D911D11240895B7FF0C9431
:101C70002B0E0E942B0E821B930B08952F923F92E6
:101C80004F925F926F927F928F929F92AF92BF928C
:101C9000CF92DF92EF92FF920F931F93CF93DF9338
:101CA000CDB7DEB7CA1BDB0B0FB6F894DEBF0FBE95
:101CB000CDBF09942A88398848885F846E847D84E2
:101CC0008C849B84AA84B984C884DF80EE80FD80E4
:101CD0000C811B81AA81B981CE0FD11D0FB6F8945A
:101CE000DEBF0FBECDBFED010895A1E21A2EAA1BE3
:101CF000BB1BFD010DC0AA1FBB1FEE1FFF1FA217BC
:101D0000B307E407F50720F0A21BB30BE40BF50BB8
:101D1000661F771F881F991F1A9469F76095709541
:101D2000809590959B01AC01BD01CF010895A29FC4
:101D3000B001B39FC001A39F700D811D1124911D9F
:101D4000B29F700D811D1124911D0895EE0FFF1F8C
:101D50000590F491E02D09940F931F93CF93DF9397
:101D60008230910510F482E090E0E091B804F091A7
:101D7000B90420E030E0A0E0B0E0309719F14081F4
:101D800051810281138148175907C8F084179507BC
:101D900069F4109731F012960C93129713961C93D6
:101DA00027C00093B8041093B90422C0211531054F
:101DB00019F04217530718F49A01BD01EF01DF0132
:101DC000F801DBCF21153105F9F0281B390B243040
:101DD000310580F48A819B816115710521F0FB0139
:101DE0009383828304C09093B9048093B804FE0166
:101DF000329644C0FE01E20FF31F8193919322506B
:101E00003109398328833AC02091B6043091B70450
:101E1000232B41F420910601309107013093B70440
:101E20002093B6042091040130910501211531055C
:101E300041F42DB73EB74091080150910901241B90
:101E4000350BE091B604F091B704E217F307A0F464
:101E50002E1B3F0B2817390778F0AC014E5F5F4F00
:101E60002417350748F04E0F5F1F5093B704409377
:101E7000B6048193919302C0E0E0F0E0CF01DF91DE
:101E8000CF911F910F910895CF93DF93009709F49D
:101E900081C0FC01329713821282A091B804B091E4
:101EA000B904109781F420813181820F931F209112
:101EB000B6043091B7042817390751F5F093B704E9
:101EC000E093B60467C0ED0120E030E0CE17DF07F5
:101ED00040F44A815B819E0141155105F1F0EA0110
:101EE000F5CFD383C28340815181840F951FC817DA
:101EF000D90759F488819981840F951F029691839F
:101F000080838A819B81938382832115310529F403
:101F1000F093B904E093B8043DC0E901FB83EA8380
:101F200049915991C40FD51FEC17FD0761F48081C9
:101F30009181840F951F0296E9019983888382819C
:101F400093819B838A83E0E0F0E012968D919C91CF
:101F50001397009719F0FD01DC01F7CF8D919C914B
:101F600011979D012E5F3F4F820F931F2091B60462
:101F70003091B7042817390769F4309729F4109283
:101F8000B9041092B80402C013821282B093B7044D
:101F9000A093B604DF91CF910895A0E0B0E0E3ED07
:101FA000FFE00C94420EEC01009721F4CB010E945B
:101FB000AC0EB4C0FC01E60FF71F9C0122503109A2
:101FC000E217F30708F4A8C0D9010D911C911197ED
:101FD00006171707B0F00530110508F49BC0C801BB
:101FE00004978617970708F495C002501109061B3D
:101FF000170B019311936D937C93CF010E94440FB3
:1020000089C05B01A01AB10A4C01800E911EA091FB
:10201000B804B091B904612C712CE12CF12C10970B
:1020200009F446C08D919C911197A815B905B1F599
:102030006C0142E0C40ED11CCA14DB0478F14C01DF
:102040008A189B08640142E0C40ED11C1296BC9011
:1020500012971396AC91B5E0CB16D10440F0B28242
:10206000A38391828082D9016D937C9309C00E5F16
:102070001F4F800F911FF90191838083EB2DFA2F61
:10208000E114F10431F0D7011396FC93EE9312970B
:1020900041C0F093B904E093B8043CC068167906D7
:1020A00008F43C017D0112960D90BC91A02DB7CF94
:1020B0008091B6049091B70488169906E1F46616EB
:1020C0007706C8F48091040190910501009741F4CE
:1020D0008DB79EB74091080150910901841B950B63
:1020E000E817F907C8F4F093B704E093B604F901D0
:1020F000718360830FC0CB010E94AC0E7C010097FE
:1021000059F0A801BE010E94A510CE010E94440F03
:10211000C70104C0CE0102C080E090E0CDB7DEB7B9
:10212000EEE00C945E0E81E090E0F8940C94C910FF
:10213000FB01DC0104C08D910190801921F4415014
:102140005040C8F7881B990B0895FB01DC0102C0C1
:1021500001900D9241505040D8F70895FB01DC01E9
:102160000D900020E9F7119701900D920020E1F702
:102170000895FB01DC018D91019080190110D9F3C4
:10218000990B0895FB01DC0101900D920020E1F70D
:10219000089510E0C2E6D0E004C0FE010E94A60E41
:0C21A0002196C336D107C9F7F894FFCF91
:1021AC00010000000000BA04800061726475696E61
:1021BC006F0068656C7000737461746500706F7784
:1021CC006572206F666600706F776572206F6E00A7
:1021DC0000000000FA00D90791004701C200A000DE
:1021EC00B4000000000056038503000000005603F5
:1021FC008D00000000005603770241726520796F54
:10220C0075206F6B3F005975702C2049276D206627
:10221C0065656C696E67206772656174210048653D
:10222C0072652069732061206C697374206F66205D
:10223C00617661696C61626C6520636F6D6D616E56
:10224C0064733A00506F776572204F4E2C00506FBC
:10225C00776572204F46462C0053746174652C00D0
:10226C0048656C702E00546F207365652061206C7E
:10227C00697374206F6620617661696C61626C654C
:10228C0020636F6D6D616E64732C2073776974635A
:10229C0068207468652031536865656C64206170D2
:1022AC00706C69636174696F6E2077696E646F77A7
:1022BC0020746F205465787420546F2053706565BA
:1022CC0063682061667465722072756E6E696E67E4
:1022DC00207468652068656C7020636F6D6D616E2D
:1022EC006400554E4F21004920646F6E2774207591
:1022FC006E6465727374616E642E205472792074EE
:10230C0068652068656C7020636F6D6D616E642EFE
:10231C0000546865204C4544206973206E6F77200B
:10232C004F4E2E00546865204C4544206973207331
:10233C0074696C6C204F4E2E00546865204C4544DB
:10234C00206973206E6F77204F46462E00546865C7
:10235C00204C4544206973207374696C6C204F4683
:10236C00462E00546865204C4544206973206375E3
:10237C007272656E746C79204F4E2E005468652015
:10238C004C45442069732063757272656E746C7968
:0A239C00204F46462E000D0A0000F7
:107E0000112484B714BE81FFF0D085E080938100F7
:107E100082E08093C00088E18093C10086E0809377
:107E2000C20080E18093C4008EE0C9D0259A86E02C
:107E300020E33CEF91E0309385002093840096BBD3
:107E4000B09BFECF1D9AA8958150A9F7CC24DD24C4
:107E500088248394B5E0AB2EA1E19A2EF3E0BF2EE7
:107E6000A2D0813461F49FD0082FAFD0023811F036
:107E7000013811F484E001C083E08DD089C08234E0
:107E800011F484E103C0853419F485E0A6D080C0E4
:107E9000853579F488D0E82EFF2485D0082F10E0AE
:107EA000102F00270E291F29000F111F8ED06801E7
:107EB0006FC0863521F484E090D080E0DECF843638
:107EC00009F040C070D06FD0082F6DD080E0C81688
:107ED00080E7D80618F4F601B7BEE895C0E0D1E017
:107EE00062D089930C17E1F7F0E0CF16F0E7DF06D8
:107EF00018F0F601B7BEE89568D007B600FCFDCFD4
:107F0000A601A0E0B1E02C9130E011968C91119780
:107F100090E0982F8827822B932B1296FA010C0160
:107F200087BEE89511244E5F5F4FF1E0A038BF0790
:107F300051F7F601A7BEE89507B600FCFDCF97BE46
:107F4000E89526C08437B1F42ED02DD0F82E2BD052
:107F50003CD0F601EF2C8F010F5F1F4F84911BD097
:107F6000EA94F801C1F70894C11CD11CFA94CF0C13
:107F7000D11C0EC0853739F428D08EE10CD085E9AC
:107F80000AD08FE07ACF813511F488E018D01DD067
:107F900080E101D065CF982F8091C00085FFFCCF94
:107FA0009093C60008958091C00087FFFCCF809118
:107FB000C00084FD01C0A8958091C6000895E0E648
:107FC000F0E098E1908380830895EDDF803219F02E
:107FD00088E0F5DFFFCF84E1DECF1F93182FE3DFCA
:107FE0001150E9F7F2DF1F91089580E0E8DFEE27F6
:047FF000FF270994CA
:027FFE00040479
:0400000300007E007B
:00000001FF