:100000000C945E000C9486000C9486000C94860080
:100010000C9486000C9486000C9486000C94860048
:100020000C9486000C9486000C9486000C94860038
:100030000C9486000C9486000C9486000C94860028
:100040000C9484040C9486000C9446040C942004B4
:100050000C9486000C9486000C9486000C94860008
:100060000C9486000C948600000000080002010039
:100070000003040700000000000000000000000072
:10008000250028002B0000000000240027002A0083
:10009000040404040404040402020202020203032E
:1000A0000303030301020408102040800102040836
:1000B0001020010204081020B20A7F0A11241FBE7A
:1000C000CFEFD8E0DEBFCDBF11E0A0E0B1E0EEEDB4
:1000D000FDE102C005900D92AC38B107D9F722E0DE
:1000E000ACE8B1E001C01D92AA3FB207E1F710E011
:1000F000CDE5D0E004C02197FE010E94CA0CCC35AA
:10010000D107C9F70E9482090C94E20E0C940000FA
:10011000089580E090E00895FC01538D448D252FD3
:1001200030E0842F90E0821B930B541710F0CF9691
:10013000089501970895FC01918D828D981761F0C3
:10014000828DDF01A80FB11D5D968C91928D9F5F0E
:100150009F73928F90E008958FEF9FEF0895FC01B9
:10016000918D828D981731F0828DE80FF11D858D6C
:1001700090E008958FEF9FEF0895FC01918D228DFF
:10018000892F90E0805C9F4F821B91098F73992784
:10019000089583EA91E00E94BD0021E0892B09F4D3
:1001A00020E0822F0895FC01848DDF01A80FB11D8E
:1001B000A35ABF4F2C91848D90E001968F7399279D
:1001C000848FA689B7892C93A089B1898C9183707B
:1001D00080648C93938D848D981306C00288F38974
:1001E000E02D80818F7D80830895EF92FF920F93A1
:1001F0001F93CF93DF93EC0181E0888F9B8D8C8DD3
:10020000981305C0E889F989808185FD26C0F62EFE
:100210000B8D10E00F5F1F4F0F731127E02E8C8D99
:10022000E8120CC00FB607FCFACFE889F989808183
:1002300085FFF5CFCE010E94D300F1CF8B8DFE015B
:10024000E80FF11DE35AFF4FF0829FB7F8940B8F30
:10025000EA89FB89808180620AC09FB7F894EE89A1
:10026000FF896083E889F989808183708064808355
:100270009FBF81E090E0DF91CF911F910F91FF90A0
:10028000EF900895CF93DF93EC01888D8823C9F018
:10029000EA89FB89808185FD05C0A889B9898C918F
:1002A00086FD0FC00FB607FCF5CF808185FFF2CF2A
:1002B000A889B9898C9185FFEDCFCE010E94D3002A
:1002C000E7CFDF91CF91089590E0FC01E859FF4F0F
:1002D0002491FC01EC55FF4F3491FC01E057FF4F96
:1002E000E491EE2309F43CC0222339F1233091F04C
:1002F00038F42130A9F0223001F584B58F7D12C089
:10030000273091F02830A1F02430B9F4809180009A
:100310008F7D03C0809180008F77809380000DC017
:1003200084B58F7784BD09C08091B0008F7703C0FA
:100330008091B0008F7D8093B000F0E0EE0FFF1F42
:10034000E458FF4FA591B4919FB7F894611104C090
:100350008C913095382302C0EC913E2B3C939FBF8B
:1003600008953FB7F8948091950190919601A091DE
:100370009701B091980126B5A89B05C02F3F19F0B1
:100380000196A11DB11D3FBFBA2FA92F982F882715
:10039000820F911DA11DB11DBC01CD0142E0660F70
:1003A000771F881F991F4A95D1F708958F929F92C2
:1003B000AF92BF92CF92DF92EF92FF926B017C01DE
:1003C0000E94B1014B015C01C114D104E104F104AC
:1003D000F1F00E94B101DC01CB0188199909AA0949
:1003E000BB09883E9340A105B10570F321E0C21A14
:1003F000D108E108F10888EE880E83E0981EA11C60
:10040000B11CC114D104E104F10419F7DDCFFF9050
:10041000EF90DF90CF90BF90AF909F908F90089516
:100420008091A201882321F09091400281E08927E8
:100430000895CF93DF93EC010E9410028823A1F06E
:100440001092A20181E08E831F9284E08F931F920D
:100450001F92DF93CF930E94B9071E820F900F90D7
:100460000F900F900F900F90DF91CF910895CF9341
:10047000DF93EC010E941002811114C081E080938F
:10048000A2018E831F9283E08F931F921F92DF93AE
:10049000CF930E94B9071E820F900F900F900F907C
:1004A0000F900F90DF91CF910895CF93DF93DC01F0
:1004B00013964C9120919D01222329F0E0919E01F9
:1004C000F0919F0102C0E1E4F2E0318543132DC0B9
:1004D000222329F0E0919E01F0919F0102C0E1E406
:1004E000F2E023852F3FC1F4FC0122812223E9F0B1
:1004F000EC0181E492E00E941002811116C081E4B7
:1005000092E00E943702EC81FD81099581E492E03E
:10051000DF91CF910C941902DC01ED91FC910280E6
:10052000F381E02DDF91CF910994DF91CF91089570
:100530000F931F93CF93DF93EC011F828881882351
:10054000E1F000E010E0288530E088899989021701
:1005500013077CF49801220F331FFC01E20FF31FF5
:1005600080819181009711F00E94680D0F5F1F4FED
:10057000EACF18860E94680D18828981882329F0A5
:100580008A899B890E94680D1982DF91CF911F9102
:100590000F9108950E94B70ECF92DF92EF92FF92D3
:1005A0000F931F93CF93DF93CDB7DEB72C970FB682
:1005B000F894DEBF0FBECDBF8C01F0909D01FF20EF
:1005C00029F0E0919E01F0919F0102C0E1E4F2E088
:1005D0008385813009F0ECC0D80116968D919C91ED
:1005E0001797009711F00E94680D80919D01882354
:1005F00029F0E0919E01F0919F0102C0E1E4F2E058
:100600000288F389E02D808190E0F801918780874E
:1006100001960E94D00CD80117969C938E93169742
:1006200080E090E0F801208531854681578182176E
:1006300093071CF59A01280F391F40919D0144230F
:1006400029F0E0919E01F0919F0102C0E1E4F2E007
:10065000A289B3894C91442331F00088F189E02DBF
:100660004081518102C040E050E0FA01E80FF91FDB
:100670004081D9014C930196D5CFFA01E20FF31FC7
:10068000108281E0F801868781E492E00E941002E6
:100690008111C7C0D8011A968C91882391F081E40A
:1006A00092E00E943702D8015096ED91FC9151974B
:1006B00016968D919C911797099581E492E00E947E
:1006C0001902F8018585882309F4ABC0C680D7805C
:1006D0001A8219821C821B821E821D82C114D104BF
:1006E00021F1F60101900020E9F731977F01EC1824
:1006F000FD08B701CE0101960E945B0929813A816C
:1007000081110DC02115310519F0C9010E94680D34
:100710001A8219821E821D821C821B8206C0FE82E2
:10072000ED82B601C9010E94DB0E81E492E00E94D5
:100730003702D8015296CD90DC90539718861F82CD
:100740001A8619861C861B8609811A8101151105D6
:10075000F1F0ED80FE80B701CE0107960E945B09A3
:100760002F81388581110DC02115310519F0C9017E
:100770000E94680D18861F821C861B861A861986A1
:1007800006C0FC86EB86B801C9010E94DB0ECE01D3
:100790000796F60109958F8198850E94680D81E47E
:1007A00092E00E94190289819A810E94680D39C0E5
:1007B0008230B9F581E492E00E941002811131C0CB
:1007C000FF2061F1E0919E01F0919F01A289B38920
:1007D0008C91882339F00088F189E02D0190F08117
:1007E000E02D02C0E0E0F0E08081D8011F968C93FC
:1007F0001F971B968C918823A1F081E492E00E94C0
:100800003702D8015496ED91FC9155971F968C9123
:10081000099581E492E00E94190203C0E1E4F2E04C
:10082000D5CF2C960FB6F894DEBF0FBECDBFDF91AB
:10083000CF911F910F91FF90EF90DF90CF9008958F
:100840001F920F920FB60F9211242F933F934F9345
:100850005F936F937F938F939F93AF93BF93EF9328
:10086000FF9383EA91E00E94D300FF91EF91BF9143
:10087000AF919F918F917F916F915F914F913F9138
:100880002F910F900FBE0F901F9018951F920F92EF
:100890000FB60F9211242F938F939F93EF93FF9393
:1008A000E091B301F091B4018081E091B901F09140
:1008B000BA0182FD12C090818091BC018F5F8F735D
:1008C0002091BD01821751F0E091BC01F0E0ED559F
:1008D000FE4F958F8093BC0101C08081FF91EF9105
:1008E0009F918F912F910F900FBE0F901F90189591
:1008F0002FB7F894609191017091920180919301CA
:10090000909194012FBF08951F920F920FB60F92EE
:1009100011242F933F938F939F93AF93BF93809115
:10092000910190919201A0919301B0919401309125
:10093000900123E0230F2D3720F40196A11DB11D56
:1009400005C026E8230F0296A11DB11D209390013A
:100950008093910190939201A0939301B09394019D
:100960008091950190919601A0919701B091980185
:100970000196A11DB11D8093950190939601A093BE
:100980009701B0939801BF91AF919F918F913F9143
:100990002F910F900FBE0F901F9018958F929F92DE
:1009A000AF92BF92CF92DF92EF92FF920F931F937D
:1009B000CF93DF931F92CDB7DEB77C018B010E94EE
:1009C000780480908C0190908D01A0908E01B09061
:1009D0008F01DC01CB0188199909AA09BB09813D66
:1009E0009740A105B10548F089288A288B2829F06D
:1009F000D70117968C9181111FC20E9478046093D1
:100A00008C0170938D0180938E0190938F01F7017B
:100A10009781911114C00F3F110589F4C7010E94FD
:100A2000980281E0D70117968C93179751961C92E4
:100A30001E92509753961C921E9252971FC0F70118
:100A40008485843041F4992309F4FAC11686158609
:100A5000078785E0C5C0853059F5992309F4F0C1B1
:100A6000D7012785C22ED12C8FEF90E08C199D09DC
:100A700008171907B9F5211104C089E01C968C9359
:100A8000DFC1C601880F991F0E94D00CF701918B1E
:100A9000808B11E01083C6010E94D00CD7015396C1
:100AA0009C938E93529711961C93119786E0E6CFF4
:100AB0008630D9F0873009F053C0992309F4C0C1BA
:100AC000F701258530E00288F389E02DE20FF31F5E
:100AD0006081862F90E04FEF50E0481B590B0417C0
:100AE000150779F0F701178264C1992309F4A8C1A9
:100AF000D70185850288F389E02DE80FF11D008379
:100B000068C0220F331FD70150960D911C91519749
:100B1000662369F0020F131F0E94D00CF801918325
:100B20008083D7011C968C911C978F5F12C0F801AF
:100B3000E20FF31F11821082F701168685858F5F01
:100B400085879785891303C089E0848704C086E080
:100B5000D7011C968C93F70180858F5F808770C1C9
:100B6000883009F03FC0992309F46AC1D70185850F
:100B700020899189E22FF92FE80FF11DE80FF11D6F
:100B800080819181009759F01E962C911E9731E03B
:100B9000320F1E963C93FC01E20FF11D0083F7011A
:100BA00085850288F389E02DE80FF11DD7011E9697
:100BB0002C911E979081291343C11E961C921E975B
:100BC0008F5F1D968C931D971F969C911F9789137D
:100BD00005C01C968C911C978F5F50CF86E0F70163
:100BE00084872EC1893009F0E8C0992309F428C10F
:100BF000048B0111DEC0178280914A0281119CC0D2
:100C00008385823051F412828381882309F4AEC037
:100C10000588F689E02D80E00CC0813061F4F70191
:100C200082838381882309F4A1C00588F689E02D99
:100C300081E009959BC0833081F41F9281E08F93FE
:100C40001F921F92FF92EF920E94B9070F900F9090
:100C50000F900F900F900F9089C0853009F086C0DB
:100C6000D70102891389F8018081882339F05096D1
:100C7000ED91FC9151976081718102C060E070E05C
:100C80004BE050E08FE391E00E94BC0E892B09F00D
:100C90006DC01982D80111966C91062F10E080E08A
:100CA00090E040E050E080179107A4F4662341F003
:100CB000F701A089B18912962D913C91139702C03A
:100CC00020E030E0D901A80FB91F2C91420F511D2F
:100CD0000196E9CF498384E090E00E94D00C8C011A
:100CE000DC0113961C92139781E08C93CE01019640
:100CF00012969C938E93119784E090E00E94D00C02
:100D0000FC01138287E180838BE491E092838183ED
:100D10001F930F93FF93EF9382E08F9385E08F9360
:100D20001F921F92FF92EF920E94B9070FB6F8949C
:100D3000DEBF0FBECDBF1AC02FE6C22E22E0D22EDC
:100D400000E010E08091CD0290E00817190774F4DC
:100D5000D6018D919D916D01DC01ED91FC91019089
:100D6000F081E02D09950F5F1F4FECCFF7018481D3
:100D70008823F9F081858823E1F0C7010E943702BA
:100D8000D70150960D911C91519752962D913C91FF
:100D900053975796ED91FC9158971F964C911F973A
:100DA0001B966C911B9719968C910995C7010E940F
:100DB0001902C7010E94980243C0992309F440C058
:100DC000813001F5602FF7010187002391F19481B3
:100DD00091112FC04091CD0250E0EFE6F2E020E00B
:100DE00030E02417350754F4A191B19113967C910A
:100DF000671301C091E02F5F3F4FF3CF992309F4B0
:100E000071CE17C0823089F402872FEF30E0201BAB
:100E1000310994E0359527959A95E1F70F7010E028
:100E20002017310731F0178204C0833011F4F70125
:100E300003878F5FD70122CEC7010E949802DDCDC4
:100E40000F90DF91CF911F910F91FF90EF90DF9066
:100E5000CF90BF90AF909F908F900895CF93DF93E6
:100E600080919901811132C08091A0019091A101DE
:100E7000DC01ED91FC910084F185E02D0995892B31
:100E800029F18091A0019091A101DC01ED91FC91EB
:100E90000284F385E02D0995EC01BC01772781E4FC
:100EA00092E00E94CE04809146028823E9F281E418
:100EB00092E00E943702E0915A02F0915B028C2F7F
:100EC000099581E492E00E941902CECFDF91CF9183
:100ED00008950E94C90081110C942E070895CF93A4
:100EE000DF93EC0180919A01882359F08091A00151
:100EF0009091A101DC01ED91FC910190F081E02D38
:100F000009958E81811108C062E070E080E090E078
:100F1000DF91CF910C94D601DF91CF910895CF92BC
:100F2000DF92EF92FF920F931F93CF93DF936C01A9
:100F30007A018B01C0E0D0E0CE15DF0581F0D80149
:100F40006D918D01D601ED91FC910190F081E02D24
:100F5000C6010995892B11F02196EECF7E01C701BC
:100F6000DF91CF911F910F91FF90EF90DF90CF9085
:100F700008955F926F927F928F929F92AF92BF92ED
:100F8000CF92DF92EF92FF920F931F93CF93DF9355
:100F9000CDB7DEB76B970FB6F894DEBF0FBECDBFEF
:100FA0000DA51EA55FA4CAA80E947804552009F4C7
:100FB00088C02091EA02222309F483C08090EB02CA
:100FC0009090EC02A090ED02B090EE02811491049A
:100FD000A104B10409F475C0DC01CB018819990999
:100FE000AA09BB090196A11DB11D883C9105A10567
:100FF000B10508F066C08091A20128EC820E911C18
:10100000A11CB11C882309F44EC01A861B861C86BD
:101010001D861E861F86188A1D8A198619821A82C5
:101020001092400218861B821C821D821E821F8223
:10103000CE0101967C0190939F0180939E0181E0F7
:1010400080939D010E947804681579058A059B05A7
:1010500008F4BFC088858111BCC02DC0F80187810C
:10106000882379F18091A0019091A101DC01ED919B
:10107000FC910084F185E02D0995892BA1F08091E8
:10108000A0019091A101DC01ED91FC910284F38516
:10109000E02D09958F3FBFEF9B0729F0BC0181E44C
:1010A00092E00E94CE040E947804681579058A05B2
:1010B0009B05C0F2D3CF10929F0110929E01109217
:1010C0009D0181E08093EA027E01E3E3EE0EF11CD4
:1010D0006FEFC8010E946F0762E1C8010E946F07AD
:1010E000652DC8010E946F070E94D90B20E130E0F6
:1010F00040E050E00E94300C962F9095F0E19F9FC9
:10110000C00111246F70682BC8010E946F0769A984
:10111000C8010E946F076C2DC8010E946F076C2DDB
:101120006095C8010E946F07812C912CD12C8C14E2
:101130009D04CCF5370122E0620E711CD701ED90C1
:10114000FC90F7016081C8010E946F07D7016C9184
:101150006095C8010E946F07A12CB12CF701808116
:1011600090E0A816B9066CF40180F281E02DEA0D3A
:10117000FB1D6081C8010E946F07FFEFAF1ABF0A15
:10118000EDCFE114F10451F08381882321F08181B6
:1011900092810E94680DC7010E94680DBFEF8B1AF3
:1011A0009B0A7301C4CF60E0C8010E946F075520FD
:1011B00099F10E947804DC01CB010196A11DB11DBB
:1011C0008093EB029093EC02A093ED02B093EE02B9
:1011D00023C08091A0019091A101DC01ED91FC91CF
:1011E0000084F185E02D0995892B09F42BCF80919E
:1011F000A0019091A101DC01ED91FC910284F385A5
:10120000E02D09958F3FBFEF9B0709F41BCFBC0171
:10121000C7010E94CE0416CF6B960FB6F894DEBFBE
:101220000FBECDBFDF91CF911F910F91FF90EF9037
:10123000DF90CF90BF90AF909F908F907F906F90F6
:101240005F9008950F931F93CF93DF93FC0101905C
:101250000020E9F73197EF01C81BD90B39F18C0158
:1012600084E090E00E94D00CFC0113829E01CF3FED
:10127000D10519F014F02FEF30E0208312830183A1
:10128000FF93EF9381E08F938F931F9283E28F936D
:1012900081E492E09F938F930E94B9078DB79EB728
:1012A00008960FB6F8949EBF0FBE8DBFDF91CF9109
:1012B0001F910F9108950F931F93CF93DF93EC012C
:1012C00088819981009729F02A813B812617370769
:1012D00088F48B016F5F7F4F0E94F10D009761F0E2
:1012E000998388831B830A832C813D81232B11F4EE
:1012F000FC01108281E001C080E0DF91CF911F915D
:101300000F910895789484B5826084BD84B581601E
:1013100084BD85B5826085BD85B5816085BD8091C0
:101320006E00816080936E00109281008091810038
:101330008260809381008091810081608093810030
:10134000809180008160809380008091B1008460F2
:101350008093B1008091B00081608093B000809153
:101360007A00846080937A0080917A008260809312
:101370007A0080917A00816080937A0080917A006F
:10138000806880937A001092C10080919A01811147
:1013900050C083EA91E09093A1018093A001E09175
:1013A000B301F091B40192E09083E091AF01F0912C
:1013B000B0011082E091B101F091B20180E180832F
:1013C0001092BB01E091B701F091B80186E08083F3
:1013D000E091B501F091B601808180618083E09158
:1013E000B501F091B601808188608083E091B501FC
:1013F000F091B601808180688083E091B501F09121
:10140000B60180818F7D80831092990181E0809365
:101410009A011F929F931F921F9281E492E09F93E3
:101420008F930E94B9070F900F900F900F900F901D
:101430000F90E1EBF0E02491EDE9F0E08491882356
:1014400099F090E0880F991FFC01EA57FF4FA59192
:10145000B491FC01E458FF4F859194918FB7F894B3
:10146000EC91E22BEC938FBFC1E0D0E080919B0127
:1014700090919C010197E1F58091DC028823C1F1F4
:1014800010929C0110929B011092DC026091D40298
:101490007091D50284E191E00E94D20E892B71F403
:1014A00061E08DE00E94640183E691E00E942209E0
:1014B00060EA7FE080E090E00E94D6011092DC02BA
:1014C0006091D4027091D5028AE091E00E94D20E20
:1014D000892B71F460E08DE00E94640187E791E060
:1014E0000E94220960EA7FE080E090E00E94D6013D
:1014F000D0939C01C0939B010E946907B7CFCF9303
:10150000DF9380916502882301F1809167029091B9
:101510006802892BD1F0C0E0D0E02091650230E074
:101520008091670290916802C217D30764F49E010C
:10153000220F331FFC01E20FF31F808191810E9473
:10154000680D2196EACF0E94680D80915F0290910C
:101550006002009721F0DF91CF910C94680DDF912C
:10156000CF9108951092A6011092A50188EE93E004
:10157000A0E0B0E08093A7019093A801A093A901F7
:10158000B093AA0181E291E09093A4018093A3011A
:1015900085EC90E09093B0018093AF0184EC90E0F3
:1015A0009093B2018093B10180EC90E09093B401EC
:1015B0008093B30181EC90E09093B6018093B501E4
:1015C00082EC90E09093B8018093B70186EC90E0B4
:1015D0009093BA018093B9011092BC011092BD01A1
:1015E0001092BE011092BF0110924A0210924B025B
:1015F00010924C0210924D0210924E0210924F0225
:10160000109250021092550210924902109241021B
:10161000109242021092400210924802109243022D
:101620001092440210924502109246021092470214
:101630001092F0021092F2021092F1021092F40253
:101640001092F3021092F50281E08093EF02109263
:101650005C0210925D0210925E0210926002109283
:101660005F02109262021092610210926402109264
:10167000630210926502109268021092670283E280
:101680008093E7021092E602E091CD02EF3269F01A
:1016900081E08E0F8093CD02F0E0EE0FFF1FE15945
:1016A000FD4F84EE92E0918380838BE391E09093F1
:1016B000E5028093E40284E28093D1021092D0028A
:1016C000E091CD02EF3269F081E08E0F8093CD0280
:1016D000F0E0EE0FFF1FE159FD4F8EEC92E0918399
:1016E000808383E391E09093CF028093CE021092A7
:1016F000D5021092D4028FEF9FEF9093D702809380
:10170000D6021092D8021092DC021092D9021092E6
:10171000DA021092DB021092DD0208958F929F92FE
:10172000AF92BF92CF92DF92EF92FF92CF93DF936F
:10173000EC01688179818A819B8161157105810540
:10174000910521F464E279ED8BE597E02DE133EF2B
:1017500041E050E00E94300C49015A019B01AC016C
:10176000A7EAB1E40E944F0C6B017C01ACEEB4EF30
:10177000A50194010E945D0CDC01CB018C0D9D1D27
:10178000AE1DBF1DB7FF03C00197A109B0488883F4
:101790009983AA83BB83BC01CD019F77DF91CF9151
:1017A000FF90EF90DF90CF90BF90AF909F908F9081
:1017B00008958F929F92AF92BF92CF92DF92EF9255
:1017C000FF9260910001709101018091020190915E
:1017D0000301611571058105910521F464E279ED3C
:1017E0008BE597E02DE133EF41E050E00E94300CB3
:1017F00049015A019B01AC01A7EAB1E40E944F0CD8
:101800006B017C01ACEEB4EFA50194010E945D0C6C
:10181000DC01CB018C0D9D1DAE1DBF1DB7FF03C0AC
:101820000197A109B0488093000190930101A09312
:101830000201B0930301BC01CD019F77FF90EF90AF
:10184000DF90CF90BF90AF909F908F90089560935E
:1018500000017093010180930201909303010895A8
:10186000052E97FB1EF400940E94470C57FD07D0ED
:101870000E94990C07FC03D04EF40C94470C509531
:101880004095309521953F4F4F4F5F4F089590956C
:101890008095709561957F4F8F4F9F4F08950E945F
:1018A000BB0CA59F900DB49F900DA49F800D911D22
:1018B00011240895B7FF0C944F0C0E944F0C821B0B
:1018C000930B08952F923F924F925F926F927F9267
:1018D0008F929F92AF92BF92CF92DF92EF92FF9240
:1018E0000F931F93CF93DF93CDB7DEB7CA1BDB0BEC
:1018F0000FB6F894DEBF0FBECDBF09942A88398891
:1019000048885F846E847D848C849B84AA84B98497
:10191000C884DF80EE80FD800C811B81AA81B981A3
:10192000CE0FD11D0FB6F894DEBF0FBECDBFED01B7
:101930000895A1E21A2EAA1BBB1BFD010DC0AA1F10
:10194000BB1FEE1FFF1FA217B307E407F50720F028
:10195000A21BB30BE40BF50B661F771F881F991FA3
:101960001A9469F760957095809590959B01AC01EC
:10197000BD01CF010895A29FB001B39FC001A39FF5
:10198000700D811D1124911DB29F700D811D1124B8
:10199000911D0895EE0FFF1F0590F491E02D09941D
:1019A0000F931F93CF93DF938230910510F482E061
:1019B00090E0E091F802F091F90220E030E0A0E040
:1019C000B0E0309719F140815181028113814817AD
:1019D0005907C8F08417950769F4109731F01296EB
:1019E0000C93129713961C9327C00093F802109340
:1019F000F90222C02115310519F04217530718F4D6
:101A00009A01BD01EF01DF01F801DBCF211531059E
:101A1000F9F0281B390B2430310580F48A819B8131
:101A20006115710521F0FB019383828304C09093BB
:101A3000F9028093F802FE01329644C0FE01E20FE3
:101A4000F31F8193919322503109398328833AC03F
:101A50002091F6023091F702232B41F420910601E8
:101A6000309107013093F7022093F6022091040190
:101A7000309105012115310541F42DB73EB7409154
:101A8000080150910901241B350BE091F602F091F9
:101A9000F702E217F307A0F42E1B3F0B28173907B4
:101AA00078F0AC014E5F5F4F2417350748F04E0FBA
:101AB0005F1F5093F7024093F6028193919302C007
:101AC000E0E0F0E0CF01DF91CF911F910F910895F9
:101AD000CF93DF93009709F481C0FC013297138202
:101AE0001282A091F802B091F902109781F420813E
:101AF0003181820F931F2091F6023091F70228174F
:101B0000390751F5F093F702E093F60267C0ED0153
:101B100020E030E0CE17DF0740F44A815B819E0170
:101B200041155105F1F0EA01F5CFD383C28340811D
:101B30005181840F951FC817D90759F4888199815D
:101B4000840F951F0296918380838A819B81938362
:101B500082832115310529F4F093F902E093F8020C
:101B60003DC0E901FB83EA8349915991C40FD51F18
:101B7000EC17FD0761F480819181840F951F029617
:101B8000E90199838883828193819B838A83E0E042
:101B9000F0E012968D919C911397009719F0FD013A
:101BA000DC01F7CF8D919C9111979D012E5F3F4FE6
:101BB000820F931F2091F6023091F7022817390700
:101BC00069F4309729F41092F9021092F80202C0D9
:101BD00013821282B093F702A093F602DF91CF91A5
:101BE0000895A0E0B0E0E7EFFDE00C94660CEC0196
:101BF000009721F4CB010E94D00CB4C0FC01E60F89
:101C0000F71F9C0122503109E217F30708F4A8C01E
:101C1000D9010D911C91119706171707B0F00530E7
:101C2000110508F49BC0C80104978617970708F4AC
:101C300095C002501109061B170B019311936D9368
:101C40007C93CF010E94680D89C05B01A01AB10A84
:101C50004C01800E911EA091F802B091F902612C06
:101C6000712CE12CF12C109709F446C08D919C91B8
:101C70001197A815B905B1F56C0142E0C40ED11C4D
:101C8000CA14DB0478F14C018A189B08640142E015
:101C9000C40ED11C1296BC9012971396AC91B5E06D
:101CA000CB16D10440F0B282A38391828082D90105
:101CB0006D937C9309C00E5F1F4F800F911FF90138
:101CC00091838083EB2DFA2FE114F10431F0D701D9
:101CD0001396FC93EE93129741C0F093F902E093B0
:101CE000F8023CC06816790608F43C017D011296A2
:101CF0000D90BC91A02DB7CF8091F6029091F70284
:101D000088169906E1F466167706C8F480910401F6
:101D100090910501009741F48DB79EB7409108015D
:101D200050910901841B950BE817F907C8F4F0934B
:101D3000F702E093F602F901718360830FC0CB01D3
:101D40000E94D00C7C01009759F0A801BE010E94AE
:101D5000C90ECE010E94680DC70104C0CE0102C0A9
:101D600080E090E0CDB7DEB7EEE00C94820C81E02D
:101D700090E0F8940C94E20EFB01DC0104C08D911C
:101D80000190801921F441505040C8F7881B990BED
:101D90000895FB01DC0102C001900D9241505040BA
:101DA000D8F70895FB01DC018D9101908019011095
:101DB000D9F3990B0895FB01DC0101900D920020ED
:101DC000E1F7089510E0CDE5D0E004C0FE010E94E7
:0E1DD000CA0C2196CE35D107C9F7F894FFCF83
:101DDE00010000000000FA028000706F776572202B
:101DEE006F666600706F776572206F6E0000000080
:101DFE0000F5008F078C004201BD009B00AF000074
:101E0E000000005502CC020000000055028800417F
:101E1E00726520796F75206F6B3F005975702C209D
:101E2E0049276D206665656C696E6720677265610E
:101E3E00742100546865206C616D70206973206E8A
:101E4E006F77204F4E2E00546865206C616D7020A8
:0C1E5E006973206E6F77204F46462E00FF
:107E0000112484B714BE81FFF0D085E080938100F7
:107E100082E08093C00088E18093C10086E0809377
:107E2000C20080E18093C4008EE0C9D0259A86E02C
:107E300020E33CEF91E0309385002093840096BBD3
:107E4000B09BFECF1D9AA8958150A9F7CC24DD24C4
:107E500088248394B5E0AB2EA1E19A2EF3E0BF2EE7
:107E6000A2D0813461F49FD0082FAFD0023811F036
:107E7000013811F484E001C083E08DD089C08234E0
:107E800011F484E103C0853419F485E0A6D080C0E4
:107E9000853579F488D0E82EFF2485D0082F10E0AE
:107EA000102F00270E291F29000F111F8ED06801E7
:107EB0006FC0863521F484E090D080E0DECF843638
:107EC00009F040C070D06FD0082F6DD080E0C81688
:107ED00080E7D80618F4F601B7BEE895C0E0D1E017
:107EE00062D089930C17E1F7F0E0CF16F0E7DF06D8
:107EF00018F0F601B7BEE89568D007B600FCFDCFD4
:107F0000A601A0E0B1E02C9130E011968C91119780
:107F100090E0982F8827822B932B1296FA010C0160
:107F200087BEE89511244E5F5F4FF1E0A038BF0790
:107F300051F7F601A7BEE89507B600FCFDCF97BE46
:107F4000E89526C08437B1F42ED02DD0F82E2BD052
:107F50003CD0F601EF2C8F010F5F1F4F84911BD097
:107F6000EA94F801C1F70894C11CD11CFA94CF0C13
:107F7000D11C0EC0853739F428D08EE10CD085E9AC
:107F80000AD08FE07ACF813511F488E018D01DD067
:107F900080E101D065CF982F8091C00085FFFCCF94
:107FA0009093C60008958091C00087FFFCCF809118
:107FB000C00084FD01C0A8958091C6000895E0E648
:107FC000F0E098E1908380830895EDDF803219F02E
:107FD00088E0F5DFFFCF84E1DECF1F93182FE3DFCA
:107FE0001150E9F7F2DF1F91089580E0E8DFEE27F6
:047FF000FF270994CA
:027FFE00040479
:0400000300007E007B
:00000001FF