:100000000C9482020C94AA020C94AA020C94AA02E8
:100010000C94AA020C94AA020C94AA020C94AA02B0
:100020000C94AA020C94AA020C94AA020C94AA02A0
:100030000C94AA020C94AA020C94AA020C94AA0290
:100040000C9446060C94AA020C943A050C941405E0
:100050000C94AA020C94AA020C94AA020C94AA0270
:100060000C94AA020C94AA026572726F72004F4B34
:1000700000313300746869727465656E004F4B001F
:100080003132007477656C7665004F4B003131007A
:10009000656C6576656E004F4B0031300074656E9F
:1000A000004F4B006E696E65004F4B0065696768D5
:1000B00074004F4B00736576656E004F4B0073699B
:1000C00078004F4B0066697665004F4B00666172A1
:1000D00000666F7200666F7572004F4B0066726546
:1000E00065007468726565004F4B00746F0074772B
:1000F0006F004F4B006F6E65004F4B007A65726F5B
:100100000000000000240027002A00000000002555
:100110000028002B0000000008000201000003047A
:100120000700000000000000004869676820636F56
:100130006E646974696F6E206F6E207468652070DC
:10014000696E3A20002070657263656E74002061EC
:100150006E642068756D6964697479206973002024
:1001600064656772656573005468652074656D70B9
:100170006572617475726520697320004661696CEF
:10018000656420746F20726561642066726F6D20F3
:100190004448542073656E736F722100466F637517
:1001A0007320686173206265656E206465616374A5
:1001B000697661746564005374617475732E0053BD
:1001C000746174652C00466F637573206E616D6594
:1001D000204F46462C00466F637573206E616D6537
:1001E0002C00466F637573204F46462C00466F63A4
:1001F00075732C004C4544204F46462C004C45441A
:10020000204F4E2C0044485420726561642C0050ED
:100210006F776572204F46462C00506F77657220CD
:100220004F4E2C00486572652069732061206C690F
:100230007374206F6620617661696C61626C652001
:10024000636F6D6D616E64733A00546F2073656502
:100250002061206C697374206F6620617661696C1F
:1002600061626C6520636F6D6D616E64732C2073C9
:100270007769746368207468652031536865656CBC
:1002800064206170706C69636174696F6E20776956
:100290006E646F7720746F205465787420546F20DB
:1002A0005370656563682061667465722072756E4F
:1002B0006E696E67207468652068656C7020636F76
:1002C0006D6D616E64004920646F6E277420756ED9
:1002D0006465727374616E642E2054727920746840
:1002E000652068656C7020636F6D6D616E642E00B3
:1002F000506C656173652074656C6C206D6520744D
:1003000068652070696E206E756D62657200546854
:100310006520666F637573206E616D65206861731B
:10032000206265656E2064656163746976617465D9
:100330006400546865206E657720666F637573206E
:100340006E616D6520686173206265656E20616411
:1003500064656400506C656173652074656C6C2025
:100360006D652061206E657720666F637573206E02
:10037000616D6500466F6375732068617320626507
:10038000656E2061637469766174656400506C65A4
:100390006173652074656C6C206D652061206469F3
:1003A000676974616C2070696E206E756D6265722C
:1003B00020746F20666F63757300554E4F210044A3
:1003C0006F6E650054656C6C206D652074686520E7
:1003D0006469676974616C2070696E206E756D6206
:1003E000657200446F6E650054656C6C206D65200D
:1003F000746865206469676974616C2070696E2037
:100400006E756D6265720031536865656C64206954
:1004100073207265647920746F20757365210054B0
:1004200068652073746174652069732063757272E6
:10043000656E746C79204F4E2E005468652073747D
:100440006174652069732063757272656E746C796E
:10045000204F46462E00506C656173652074656CB4
:100460006C206D6520746865206469676974616CCF
:100470002070696E206E756D62657200546865202B
:100480004C4544206973207374696C6C204F464658
:100490002E00546865204C4544206973206E6F77A8
:1004A000204F46462E00546865204C454420697311
:1004B000207374696C6C204F4E2E00546865204C7C
:1004C0004544206973206E6F77204F4E2E00000048
:1004D000000023002600290004040404040404048A
:1004E00002020202020203030303030301020408DF
:1004F000102040800102040810200102040810208E
:100500005516361711241FBECFEFD8E0DEBFCDBF82
:1005100011E0A0E0B1E0ECE5FCE302C005900D9233
:10052000AC3DB107D9F723E0ACEDB1E001C01D92BD
:10053000A43CB207E1F712E0C1E8D2E004C0219781
:10054000FE010E94FE1BC038D107C9F70E940F10A0
:100550000C94211E0C940000089580E090E0089512
:10056000FC01538D448D252F30E0842F90E0821BB9
:10057000930B541710F0CF96089501970895FC013E
:10058000918D828D981761F0828DDF01A80FB11DCA
:100590005D968C91928D9F5F9F73928F90E00895EE
:1005A0008FEF9FEF0895FC01918D828D981731F0A8
:1005B000828DE80FF11D858D90E008958FEF9FEFFC
:1005C0000895FC01918D228D892F90E0805C9F4FD2
:1005D000821B91098F73992708958DE592E00E94FF
:1005E000E10221E0892B09F420E0822F0895FC012B
:1005F000848DDF01A80FB11DA35ABF4F2C91848DAC
:1006000090E001968F739927848FA689B7892C93E0
:10061000A089B1898C91837080648C93938D848D33
:10062000981306C00288F389E02D80818F7D808336
:100630000895EF92FF920F931F93CF93DF93EC01F6
:1006400081E0888F9B8D8C8D981305C0E889F9898E
:10065000808185FD26C0F62E0B8D10E00F5F1F4FA9
:100660000F731127E02E8C8DE8120CC00FB607FC1B
:10067000FACFE889F989808185FFF5CFCE010E9404
:10068000F702F1CF8B8DFE01E80FF11DE35AFF4F0A
:10069000F0829FB7F8940B8FEA89FB898081806292
:1006A0000AC09FB7F894EE89FF896083E889F989C9
:1006B00080818370806480839FBF81E090E0DF91C0
:1006C000CF911F910F91FF90EF900895CF93DF93FB
:1006D000EC01888D8823C9F0EA89FB89808185FD3A
:1006E00005C0A889B9898C9186FD0FC00FB607FC9B
:1006F000F5CF808185FFF2CFA889B9898C9185FFDC
:10070000EDCFCE010E94F702E7CFDF91CF910895A0
:10071000833081F028F4813099F08230A1F008957F
:100720008730A9F08830B9F08430D1F4809180000E
:100730008F7D03C0809180008F7780938000089523
:1007400084B58F7702C084B58F7D84BD0895809174
:10075000B0008F7703C08091B0008F7D8093B00090
:1007600008953FB7F8948091E5019091E601A0913A
:10077000E701B091E80126B5A89B05C02F3F19F00D
:100780000196A11DB11D3FBFBA2FA92F982F882711
:10079000820F911DA11DB11DBC01CD0142E0660F6C
:1007A000771F881F991F4A95D1F7089580915702A6
:1007B000882329F0809158029091590208958BEF77
:1007C00092E0089580915C02882321F09091FA02D2
:1007D00081E08927089570E0DC015296ED91FC914B
:1007E0005397E60FF71F2081222359F0660F771FDA
:1007F0005096ED91FC915197E60FF71F8081918102
:10080000089580E090E008956F927F928F929F927A
:10081000AF92BF92CF92DF92EF92FF920F931F930E
:10082000CF93DF93EC010E94D603DC011B962C9141
:100830001B97213009F04AC05296ED91FC915397D5
:10084000608000E010E0712C4E01BFE48B0E911C23
:100850007E01E9E4EE0EF11C6E01FDE4CF0ED11C29
:100860005E0189E0A80EB11C061517057CF5CE01C6
:100870000E94D60360E00E94EB03800F911FDC0111
:100880008C91F4012081318120343105E1F0D701D0
:10089000ED91FC9111979F012F5F3F4F11963C9373
:1008A0002E938083F40180819181019691838083CE
:1008B0002D913C91D6018D919C912817390719F4FF
:1008C000F701B182A0820F5F1F4FCECFDF91CF9192
:1008D0001F910F91FF90EF90DF90CF90BF90AF905E
:1008E0009F908F907F906F9008950E94EB1D0F93C3
:1008F0001F93CF93DF93EC011F8288818823E1F05F
:1009000000E010E0288530E08889998902171307F4
:100910007CF49801220F331FFC01E20FF31F80814A
:100920009181009711F00E949C1C0F5F1F4FEACF2E
:1009300018860E949C1C18828981882329F08A8944
:100940009B890E949C1C1982DF91CF911F910F916E
:100950000895CF93DF93EC010E94E2038823A1F076
:1009600010925C0281E08E831F9284E08F931F922D
:100970001F92DF93CF930E94610C1E820F900F9005
:100980000F900F900F900F90DF91CF910895CF931C
:10099000DF93EC010E94E203811114C081E0809397
:1009A0005C028E831F9283E08F931F921F92DF93CE
:1009B000CF930E94610C1E820F900F900F900F90AA
:1009C0000F900F90DF91CF910895CF93DF93EC01BB
:1009D0000E94D6033B81FC012185321322C083850E
:1009E0008F3FB1F48A818823E1F08BEF92E00E947F
:1009F000E203811116C08BEF92E00E94C704EC81E4
:100A0000FD8109958BEF92E0DF91CF910C94A904C1
:100A1000E881F9810280F381E02DCE01DF91CF9151
:100A20000994DF91CF9108951F920F920FB60F9204
:100A300011242F933F934F935F936F937F938F93E3
:100A40009F93AF93BF93EF93FF938DE592E00E9446
:100A5000F702FF91EF91BF91AF919F918F917F919D
:100A60006F915F914F913F912F910F900FBE0F901B
:100A70001F9018951F920F920FB60F9211242F936B
:100A80008F939F93EF93FF93E0916D02F0916E022D
:100A90008081E0917302F091740282FD12C0908116
:100AA000809176028F5F8F7320917702821751F0C9
:100AB000E0917602F0E0E35AFD4F958F8093760245
:100AC00001C08081FF91EF919F918F912F910F90A5
:100AD0000FBE0F901F901895CF93DF93282F30E013
:100AE000F901EB5EFE4F8491F901E451FB4FD49183
:100AF000F901E852FB4FC491CC2391F081110E947F
:100B00008803EC2FF0E0EE0FFF1FE253FB4FA5919F
:100B1000B491EC91ED2381E090E021F480E002C0FB
:100B200080E090E0DF91CF9108951F93CF93DF9302
:100B3000282F30E0F901EB5EFE4F8491F901E4517A
:100B4000FB4FD491F901E852FB4FC491CC23C1F083
:100B5000162F81110E948803EC2FF0E0EE0FFF1F8B
:100B6000E55FFE4FA591B4919FB7F894111104C0B1
:100B70008C91D095D82302C0EC91DE2BDC939FBFE3
:100B8000DF91CF911F910895CF93DF9390E0FC0107
:100B9000E451FB4F2491FC01E852FB4F84918823E0
:100BA00061F190E0880F991FFC01EF5FFE4FC59146
:100BB000D491FC01E55FFE4FA591B491611109C08C
:100BC0009FB7F8948881209582238883EC912E2307
:100BD0000BC0623061F49FB7F8948881322F309552
:100BE00083238883EC912E2B2C939FBF06C08FB755
:100BF000F894E8812E2B28838FBFDF91CF91089541
:100C00008F929F92AF92BF92CF92DF92EF92FF921C
:100C10006B017C010E94B1034B015C01C114D10442
:100C2000E104F104F1F00E94B103DC01CB01881969
:100C30009909AA09BB09883E9340A105B10570F343
:100C400021E0C21AD108E108F10888EE880E83E09D
:100C5000981EA11CB11CC114D104E104F10419F7C0
:100C6000DDCFFF90EF90DF90CF90BF90AF909F903F
:100C70008F9008952FB7F8946091E1017091E2018F
:100C80008091E3019091E4012FBF08951F920F928C
:100C90000FB60F9211242F933F938F939F93AF938F
:100CA000BF938091E1019091E201A091E301B091A5
:100CB000E4013091E00123E0230F2D3720F4019669
:100CC000A11DB11D05C026E8230F0296A11DB11D6F
:100CD0002093E0018093E1019093E201A093E3016E
:100CE000B093E4018091E5019091E601A091E701C4
:100CF000B091E8010196A11DB11D8093E50190938B
:100D0000E601A093E701B093E801BF91AF919F91F5
:100D10008F913F912F910F900FBE0F901F901895BC
:100D20008F929F92AF92BF92CF92DF92EF92FF92FB
:100D30000F931F93CF93DF931F92CDB7DEB77C0144
:100D40008B010E943A068090DC019090DD01A0901A
:100D5000DE01B090DF01DC01CB0188199909AA09F5
:100D6000BB09813D9740A105B10548F089288A2833
:100D70008B2829F0D70117968C9181110FC20E9400
:100D80003A066093DC017093DD018093DE0190935D
:100D9000DF01F7019781911114C00F3F110589F40C
:100DA000C7010E94770481E0D70117968C931797AB
:100DB00051961C921E92509753961C921E925297D7
:100DC0001FC0F7018485843041F4992309F4EAC1F6
:100DD00016861586078785E0C5C0853059F59923A5
:100DE00009F4E0C1D7012785C22ED12C8FEF90E006
:100DF0008C199D0908171907B9F5211104C089E05C
:100E00001C968C93CFC1C601880F991F0E94041CA9
:100E1000F701918B808B11E01083C6010E94041CA6
:100E2000D70153969C938E93529711961C931197CA
:100E300086E0E6CF8630D9F0873009F053C0992399
:100E400009F4B0C1F701258530E00288F389E02D6F
:100E5000E20FF31F6081862F90E04FEF50E0481BB8
:100E6000590B0417150779F0F701178254C199231C
:100E700009F498C1D70185850288F389E02DE80F30
:100E8000F11D008368C0220F331FD70150960D91CA
:100E90001C915197662369F0020F131F0E94041CD6
:100EA000F80191838083D7011C968C911C978F5FEA
:100EB00012C0F801E20FF31F11821082F7011686AB
:100EC00085858F5F85879785891303C089E084872F
:100ED00004C086E0D7011C968C93F70180858F5F54
:100EE000808760C1883009F03FC0992309F45AC156
:100EF000D701858520899189E22FF92FE80FF11D0F
:100F0000E80FF11D80819181009759F01E962C9178
:100F10001E9731E0320F1E963C93FC01E20FF11D4B
:100F20000083F70185850288F389E02DE80FF11D24
:100F3000D7011E962C911E979081291333C11E96BE
:100F40001C921E978F5F1D968C931D971F969C91E8
:100F50001F97891305C01C968C911C978F5F50CFEB
:100F600086E0F70184871EC1893009F0D8C0992333
:100F700009F418C1048B0111CEC0178280910403BB
:100F800081118CC08385823051F412828381882341
:100F900009F49EC00588F689E02D80E00CC0813000
:100FA00061F4F70182838381882309F491C0058865
:100FB000F689E02D81E009958BC0833081F41F9282
:100FC00081E08F931F921F92FF92EF920E94610C1B
:100FD0000F900F900F900F900F900F9079C0853069
:100FE00009F076C060E0C7010E94EB034BE050E0DF
:100FF000BC0185EA91E00E94F01D892B09F068C0D0
:101000001982D7015296ED91FC915397A180B12C92
:1010100000E010E0C12CD12C0A151B056CF461E036
:10102000C7010E94EB03800F911FFC018081C80E55
:10103000D11C0F5F1F4FF0CFC98284E090E00E9467
:10104000041C8C01DC0113961C92139781E08C9395
:10105000CE01019612969C938E93119784E090E0B6
:101060000E94041CFC01138287E1808381EB91E0E4
:10107000928381831F930F93FF93EF9382E08F936B
:1010800085E08F931F921F92FF92EF920E94610C56
:101090000FB6F894DEBF0FBECDBF1AC027EFC22E29
:1010A00021E0D22E00E010E08091550290E0081778
:1010B000190774F4D6018D919D916D01DC01ED91BC
:1010C000FC910190F081E02D09950F5F1F4FECCF4F
:1010D000F70184818823F9F081858823E1F0C70135
:1010E0000E94C704D70150960D911C9151975296BA
:1010F0002D913C9153975796ED91FC9158971F96DF
:101100004C911F971B966C911B9719968C91099582
:10111000C7010E94A904C7010E94770443C0992314
:1011200009F440C0813001F5602FF70101870023E9
:1011300091F1948191112FC04091550250E0E7EF59
:10114000F1E020E030E02417350754F4A191B1918B
:1011500013967C91671301C091E02F5F3F4FF3CF4F
:10116000992309F481CE17C0823089F402872FEFCA
:1011700030E0201B310994E0359527959A95E1F7E9
:101180000F7010E02017310731F0178204C0833050
:1011900011F4F70103878F5FD70132CEC7010E9498
:1011A0007704EDCD0F90DF91CF911F910F91FF90BC
:1011B000EF90DF90CF90BF90AF909F908F90089569
:1011C000CF93DF938091E901811132C080915A025F
:1011D00090915B02DC01ED91FC910084F185E02DA2
:1011E0000995892B29F180915A0290915B02DC01CB
:1011F000ED91FC910284F385E02D0995EC01BC0191
:1012000077278BEF92E00E9490068091000388235D
:10121000E9F28BEF92E00E94C704E0911403F09191
:1012200015038C2F09958BEF92E00E94A904CECF75
:10123000DF91CF9108950E94ED0281110C94E00896
:101240000895CF93DF93EC018091EA01882359F050
:1012500080915A0290915B02DC01ED91FC9101902A
:10126000F081E02D09958E81811108C062E070E067
:1012700080E090E0DF91CF910C940006DF91CF9158
:101280000895CF92DF92EF92FF920F931F93CF9327
:10129000DF93CDB7DEB72C970FB6F894DEBF0FBE45
:1012A000CDBF8C010E94D6037C01DC011B968C9182
:1012B000813009F089C0F80186819781009711F08B
:1012C0000E949C1CC8010E94D603DC015296ED913D
:1012D000FC915397808190E0F80191878087019677
:1012E0000E94041CD80117969C938E931697E12CAC
:1012F000F12CF8018085918526813781E816F90661
:101300009CF46901CE0CDF1CC8010E94D60360E08A
:101310000E94EB038E0D9F1DDC018C91F6018083F2
:10132000FFEFEF1AFF0AE5CFF901E80FF91F10826E
:1013300081E0D8011E968C938BEF92E00E94E2032D
:10134000811168C0F8018285882391F08BEF92E0CB
:101350000E94C704D8015096ED91FC9151971696C2
:101360008D919C91179709958BEF92E00E94A904AB
:10137000F8018585882309F44DC066817781CE0107
:1013800001960E94FA0F8BEF92E00E94C704D801E9
:1013900052960D911C915397BE016F5F7F4FCE0106
:1013A00007960E94E00FCE010796F8010995CE013D
:1013B00007960E94A30F8BEF92E00E94A904CE0132
:1013C00001960E94A30F26C0823021F58BEF92E098
:1013D0000E94E20381111EC060E0C7010E94EB037E
:1013E000FC018081D8011F968C931F971B968C91CE
:1013F000882381F08BEF92E00E94C704D8015496B5
:10140000ED91FC9155971F968C9109958BEF92E089
:101410000E94A9042C960FB6F894DEBF0FBECDBF74
:10142000DF91CF911F910F91FF90EF90DF90CF90C0
:1014300008951F93CF93DF93CDB7DEB762970FB6B2
:10144000F894DEBF0FBECDBF6CEF70E0CE01019609
:101450000E94A80FCE0101960E943C0E182FCE01CB
:1014600001960E94A30F112339F01092EE01109201
:10147000ED0169EF70E0F4C165EF70E0CE01019617
:101480000E94A80FCE0101960E943C0E182FCE019B
:1014900001960E94A30F112349F081E090E0909300
:1014A000EE018093ED0162EF70E0DAC16EEE70E064
:1014B000CE0107960E94A80FCE0107960E943C0E0F
:1014C000811113C06BEE70E0CE0101960E94A80F4F
:1014D000CE0101960E943C0E11E0811101C010E086
:1014E000CE0101960E94A30F01C011E0CE01079624
:1014F0000E94A30F112349F082E090E09093EE0147
:101500008093ED0168EE70E0ABC162EE70E0CE0159
:1015100007960E94A80FCE0107960E943C0E8111EB
:1015200013C06DED70E0CE0101960E94A80FCE01B0
:1015300001960E943C0E11E0811101C010E0CE0125
:1015400001960E94A30F01C011E0CE0107960E94F0
:10155000A30F112349F083E090E09093EE01809374
:10156000ED016AED70E07CC165ED70E0CE010D9695
:101570000E94A80FCE010D960E943C0E811192C1CF
:1015800061ED70E0CE0107960E94A80FCE0107968C
:101590000E943C0E811113C06DEC70E0CE010196EB
:1015A0000E94A80FCE0101960E943C0E11E081110D
:1015B00001C010E0CE0101960E94A30F01C011E00E
:1015C000CE0107960E94A30FCE010D960E94A30F95
:1015D000112349F084E090E09093EE018093ED01B7
:1015E0006AEC70E03DC165EC70E0CE0101960E94AE
:1015F000A80FCE0101960E943C0E182FCE01019635
:101600000E94A30F112349F085E090E09093EE0132
:101610008093ED0162EC70E023C16EEB70E0CE01CF
:1016200001960E94A80FCE0101960E943C0E182F31
:10163000CE0101960E94A30F112349F086E090E0AD
:101640009093EE018093ED016BEB70E009C165EBC7
:1016500070E0CE0101960E94A80FCE0101960E9473
:101660003C0E182FCE0101960E94A30F112349F0C2
:1016700087E090E09093EE018093ED0162EB70E0E3
:10168000EFC06CEA70E0CE0101960E94A80FCE0177
:1016900001960E943C0E182FCE0101960E94A30FC6
:1016A000112349F088E090E09093EE018093ED01E2
:1016B00069EA70E0D5C064EA70E0CE0101960E944C
:1016C000A80FCE0101960E943C0E182FCE01019664
:1016D0000E94A30F112349F089E090E09093EE015E
:1016E0008093ED0161EA70E0BBC06DE970E0CE016E
:1016F00007960E94A80FCE0107960E943C0E81110A
:1017000013C06AE970E0CE0101960E94A80FCE01D5
:1017100001960E943C0E11E0811101C010E0CE0143
:1017200001960E94A30F01C011E0CE0107960E940E
:10173000A30F112349F08AE090E09093EE0180938B
:10174000ED0167E970E08CC060E970E0CE010796BA
:101750000E94A80FCE0107960E943C0E811113C073
:101760006DE870E0CE0101960E94A80FCE010196AF
:101770000E943C0E11E0811101C010E0CE010196E3
:101780000E94A30F01C011E0CE0107960E94A30F93
:10179000112349F08BE090E09093EE018093ED01EE
:1017A0006AE870E05DC063E870E0CE0107960E94D1
:1017B000A80FCE0107960E943C0E811113C060E86D
:1017C00070E0CE0101960E94A80FCE0101960E9402
:1017D0003C0E11E0811101C010E0CE0101960E9483
:1017E000A30F01C011E0CE0107960E94A30F1123A1
:1017F00049F08CE090E09093EE018093ED016DE76D
:1018000070E02EC064E770E0CE0107960E94A80F3A
:10181000CE0107960E943C0E811113C061E770E073
:10182000CE0101960E94A80FCE0101960E943C0EA7
:1018300011E0811101C010E0CE0101960E94A30FBA
:1018400001C011E0CE0107960E94A30F1123A9F059
:101850008DE090E09093EE018093ED016EE670E0F4
:10186000CE0101960E94A80FCE0101960E94CA0DDA
:10187000CE0101960E94A30F1AC068E670E0CE0167
:1018800001960E94A80FCE0101960E94CA0DCE01BA
:1018900001960E94A30F81E090E09093EC01809369
:1018A000EB0105C0CE010D960E94A30F93CE629668
:1018B0000FB6F894DEBF0FBECDBFDF91CF911F9161
:1018C00008955F926F927F928F929F92AF92BF9294
:1018D000CF92DF92EF92FF920F931F93CF93DF93FC
:1018E000CDB7DEB76B970FB6F894DEBF0FBECDBF96
:1018F0000DA51EA55FA4CAA80E943A06552009F4AA
:1019000088C02091A103222309F483C08090A20300
:101910009090A303A090A403B090A5038114910418
:10192000A104B10409F475C0DC01CB01881999093F
:10193000AA09BB090196A11DB11D883C9105A1050D
:10194000B10508F066C080915C0228EC820E911C03
:10195000A11CB11C882309F44EC01A861B861C8664
:101960001D861E861F86188A1D8A198619821A826C
:101970001092FA0218861B821C821D821E821F8210
:10198000CE0101967C01909359028093580281E028
:10199000809357020E943A06681579058A059B05CF
:1019A00008F4BFC088858111BCC02DC0F8018781B3
:1019B000882379F180915A0290915B02DC01ED91CC
:1019C000FC910084F185E02D0995892BA1F080918F
:1019D0005A0290915B02DC01ED91FC910284F38547
:1019E000E02D09958F3FBFEF9B0729F0BC018BEFDE
:1019F00092E00E9490060E943A06681579058A05D1
:101A00009B05C0F2D3CF1092590210925802109247
:101A1000570281E08093A1037E01E3E3EE0EF11C07
:101A20006FEFC8010E94210962E1C8010E942109EB
:101A3000652DC8010E9421090E94011920E130E0B2
:101A400040E050E00E94BC1A962F9095F0E19F9FD5
:101A5000C00111246F70682BC8010E94210969A977
:101A6000C8010E9421096C2DC8010E9421096C2D1A
:101A70006095C8010E942109812C912CD12C8C14D5
:101A80009D04CCF5370122E0620E711CD701ED9068
:101A9000FC90F7016081C8010E942109D7016C9177
:101AA0006095C8010E942109A12CB12CF701808109
:101AB00090E0A816B9066CF40180F281E02DEA0DE1
:101AC000FB1D6081C8010E942109FFEFAF1ABF0A08
:101AD000EDCFE114F10451F08381882321F081815D
:101AE00092810E949C1CC7010E949C1CBFEF8B1A14
:101AF0009B0A7301C4CF60E0C8010E9421095520F0
:101B000099F10E943A06DC01CB010196A11DB11D9D
:101B10008093A2039093A303A093A403B093A5037F
:101B200023C080915A0290915B02DC01ED91FC91FF
:101B30000084F185E02D0995892B09F42BCF809144
:101B40005A0290915B02DC01ED91FC910284F385D5
:101B5000E02D09958F3FBFEF9B0709F41BCFBC0118
:101B6000C7010E94900616CF6B960FB6F894DEBFA1
:101B70000FBECDBFDF91CF911F910F91FF90EF90DE
:101B8000DF90CF90BF90AF909F908F907F906F909D
:101B90005F9008950F931F93CF93DF93FC012481EF
:101BA0003581232B29F0008111810115110521F4C4
:101BB0001092560206E512E0F80101900020E9F7C4
:101BC0003197EF01C01BD10B31F184E090E00E940E
:101BD000041CFC0113829E01CF3FD10519F014F0C3
:101BE0002FEF30E0208312830183FF93EF9381E096
:101BF0008F938F931F9283E28F938BEF92E09F934B
:101C00008F930E94610C8DB79EB708960FB6F8941B
:101C10009EBF0FBE8DBFDF91CF911F910F91089591
:101C20000F931F93CF93DF93CDB7DEB762970FB6B5
:101C3000F894DEBF0FBECDBF8C01CB01F80111823D
:101C4000108213821282158214824AE0BE016F5FF5
:101C50007F4F0E946819BE016F5F7F4FC8010E94CD
:101C60008C0F62960FB6F894DEBF0FBECDBFDF912A
:101C7000CF911F910F91089520919F033091A00360
:101C8000DC0114964D915C9115972417350721F5C9
:101C9000E0919B03F0919C036D917C91309719F03A
:101CA0006115710599F46115710549F0232BB1F0A7
:101CB000FB01808190E09195819591090AC0309750
:101CC00069F0232B59F0808190E003C0CF010E947E
:101CD000111E21E0892B19F020E001C021E0822FA4
:101CE0000895CF92DF92EF92FF920F931F93CF93BD
:101CF000DF936C017A018B01C0E0D0E0CE15DF05E7
:101D000081F0D8016D918D01D601ED91FC9101908A
:101D1000F081E02DC6010995892B11F02196EECFB7
:101D20007E01C701DF91CF911F910F91FF90EF903E
:101D3000DF90CF9008950F931F93CF93DF93FC0113
:101D400001900020E9F73197EF01C81BD90B51F141
:101D50008C0184E090E00E94041CFC0113829E012F
:101D6000CF3FD10519F014F02FEF30E0208312831C
:101D70000183FF93EF9381E08F9380914A038F93C8
:101D80001F9280914C038F938BEF92E09F938F93E0
:101D90000E94610C8DB79EB708960FB6F8949EBF4F
:101DA0000FBE8DBFDF91CF911F910F9108950F93BB
:101DB0001F93CF93DF93EC0188819981009729F0DD
:101DC0002A813B812617370788F48B016F5F7F4F8D
:101DD0000E94251D009761F0998388831B830A83E5
:101DE0002C813D81232B11F4FC01108281E001C084
:101DF00080E0DF91CF911F910F910895CF93DF93F2
:101E0000EC0188819981009711F00E949C1C198235
:101E100018821D821C821B821A82DF91CF91089545
:101E2000EF92FF920F931F93CF93DF93EC017B010F
:101E30008A01BA010E94D70E811104C0CE010E940E
:101E4000FE0E07C01D830C83B701888199810E9413
:101E50001A1ECE01DF91CF911F910F91FF90EF904D
:101E60000895CF93DF9300D01F92CDB7DEB78DE0FA
:101E700089838AE08A831B82CE0101960E949B0E91
:101E80000F900F900F90DF91CF910895EF92FF92F6
:101E90000F931F93CF93DF93CDB7DEB70DB71EB768
:101EA000FC0124813581232B29F06081718161152A
:101EB000710521F41092560266E572E0FB01019073
:101EC0000020E9F7CF01861B970B02962DB73EB78E
:101ED000281B390B0FB6F8943EBF0FBE2DBF8DB730
:101EE0009EB701967C01EDB7FEB711820E94061ED7
:101EF00068ED71E0C7010E94061EC7010E949B0E9B
:101F00000FB6F8941EBF0FBE0DBFDF91CF911F918A
:101F10000F91FF90EF900895CF93DF93EC0161153F
:101F2000710559F0FB0101900020E9F73197AF01ED
:101F3000461B570B0E94100F02C00E94FE0ECE01DE
:101F4000DF91CF910895FC01808191810C949C1CBC
:101F5000EF92FF920F931F93CF93DF93EC011982BF
:101F600018821B821A821D821C826115710509F17B
:101F70008B01CB010E945F197C01BC01CE010E9444
:101F8000D70E811109C0CE01DF91CF911F910F9122
:101F9000FF90EF900C94FE0EFD82EC82B8018881D8
:101FA0009981DF91CF911F910F91FF90EF900C9449
:101FB0005819DF91CF911F910F91FF90EF900895E5
:101FC000FB01DC0111961C921E9213961C921E922C
:101FD000129715961C921E9214978617970749F030
:101FE000608171816115710521F0448155810C94E6
:101FF000100F0895FC011182108213821282158243
:1020000014826115710551F0FB0101900020E9F780
:102010003197AF01461B570B0C94100F0895CF93C7
:10202000DF93CDB7DEB762970FB6F894DEBF0FBE71
:10203000CDBF789484B5826084BD84B5816084BD51
:1020400085B5826085BD85B5816085BD80916E0056
:10205000816080936E001092810080918100826087
:1020600080938100809181008160809381008091C4
:1020700080008160809380008091B10084608093B3
:10208000B1008091B00081608093B00080917A00AF
:10209000846080937A0080917A00826080937A00D5
:1020A00080917A00816080937A0080917A008068C4
:1020B00080937A001092C1008091EA01811150C092
:1020C0008DE592E090935B0280935A02E0916D025D
:1020D000F0916E0292E09083E0916902F0916A02C1
:1020E0001082E0916B02F0916C0280E1808310928B
:1020F0007502E0917102F091720286E08083E091B6
:102100006F02F0917002808180618083E0916F02A4
:10211000F0917002808188608083E0916F02F0917D
:102120007002808180688083E0916F02F09170027C
:1021300080818F7D80831092E90181E08093EA01A4
:102140001F929F931F921F928BEF92E09F938F930A
:102150000E94610C0F900F900F900F900F900F90B6
:1021600061E08DE00E94C40561E088E00E94C40542
:1021700062E0809137030E94C40580E398EFAFEFDF
:10218000BFEF80933B0390933C03A0933D03B09338
:102190003E03EE24E394F12C8091F5019091F60139
:1021A0000197E9F58091F3019091F4010197B9F558
:1021B0008091F1010E946C05019789F569E271E057
:1021C000CE0101960E94A80FCE0101960E94CA0D71
:1021D000CE0101960E94A30F60ED77E080E090E0D1
:1021E0000E9400068091EF019091F001009709F0A4
:1021F00071C06091F1017091F201CE0101960E94CF
:10220000100ECE0101960E94CA0DCE0101960E94C9
:10221000A30F60EA7FE080E090E00E9400068091DA
:102220002403882309F453C01092240360911C03F3
:1022300070911D0384E791E00E94111E892B09F023
:1022400053C08DE00E946C05892B09F04DC061E000
:102250008DE00E9495056BEB74E085C0B8018AE5BE
:1022600091E00E94111E892B09F0E8C167E074E03B
:10227000CE0101960E94A80FCE0101960E94CA0DC0
:10228000CE0101960E94A30F6AED71E0CE01079680
:102290000E94FA0F1092240360911C0370911D0399
:1022A000CE0107960E948C0FBE01695F7F4FCE0161
:1022B00001960E94E00FCE0101960E94460FCE01CA
:1022C00001960E94A30FCE0107960E94A30F0E94C1
:1022D0001B0962CF019709F09CCF65E973E0CE013D
:1022E00001960E94E00F8DCF1092240360911C0391
:1022F00070911D0384E791E00E94111E892B41F427
:102300008DE00E946C05019719F466EA74E02BC019
:102310001092240360911C0370911D038CE691E0E0
:102320000E94111E892B61F48DE00E946C050197BB
:1023300039F460E08DE00E94950562E974E013C015
:102340001092240360911C0370911D038CE691E0B0
:102350000E94111E892BD1F48DE00E946C05892BFF
:10236000A9F46CE774E0CE0101960E94A80FCE019B
:1023700001960E94CA0DCE0101960E94A30F60EA49
:102380007FE080E090E00E9400067ECF1092240360
:1023900000911C0310911D03B80186E691E00E9494
:1023A000111E892B09F03FC066E574E0CE0101964D
:1023B0000E94A80FCE0101960E94CA0DCE0101967F
:1023C0000E94A30F60ED77E080E090E00E9400069D
:1023D00080912403811103C00E94310FF9CF109224
:1023E000240360911C0370911D038BE993E00E940C
:1023F0008C0F0E94190A68EE73E080E090E00E9462
:1024000000061091ED01812F0E946C05892B09F0C7
:102410009CC38091EB019091EC01892B09F095C34D
:102420006AE374E0A4C3B80181E691E00E94111E42
:10243000892B09F013CF6AE472E0CE0101960E9465
:10244000A80FCE0101960E94CA0DCE0101960E94EE
:10245000A30F68E57BE180E090E00E94000664E263
:1024600072E0CE0101960E94A80FCE0101960E9453
:10247000CA0DCE0101960E94A30F6CEA7DE080E0B8
:1024800090E00E9400066AE172E0CE0101960E948F
:10249000A80FCE0101960E94CA0DCE0101960E949E
:1024A000A30F64EC79E080E090E00E9400066FE00A
:1024B00072E0CE0101960E94A80FCE0101960E9403
:1024C000CA0DCE0101960E94A30F64EC79E080E072
:1024D00090E00E94000665E072E0CE0101960E9445
:1024E000A80FCE0101960E94CA0DCE0101960E944E
:1024F000A30F64EC79E080E090E00E9400066DEFAD
:1025000071E0CE0101960E94A80FCE0101960E94B3
:10251000CA0DCE0101960E94A30F64EC79E080E021
:1025200090E00E94000664EF71E0CE0101960E94E7
:10253000A80FCE0101960E94CA0DCE0101960E94FD
:10254000A30F64EC79E080E090E00E9400066DEE5D
:1025500071E0CE0101960E94A80FCE0101960E9463
:10256000CA0DCE0101960E94A30F64EC79E080E0D1
:1025700090E00E94000662EE71E0CE0101960E949A
:10258000A80FCE0101960E94CA0DCE0101960E94AD
:10259000A30F64EC79E080E090E00E94000666ED15
:1025A00071E0CE0101960E94A80FCE0101960E9413
:1025B000CA0DCE0101960E94A30F64EC79E080E081
:1025C00090E00E94000666EC71E0CE0101960E9448
:1025D000A80FCE0101960E94CA0DCE0101960E945D
:1025E000A30F64EC79E080E090E00E9400066FEBBE
:1025F00071E0CE0101960E94A80FCE0101960E94C3
:10260000CA0DCE0101960E94A30F64EC79E080E030
:1026100090E00E94000667EB71E0CE0101960E94F7
:10262000A80FCE0101960E94CA0DCE0101960E940C
:10263000A30F64EC79E080E090E0A5CEB80181E5DD
:1026400091E00E94111E892B09F04BC068EE73E0E7
:10265000CE0101960E94A80FCE0101960E94CA0DDC
:10266000CE0101960E94A30F60ED77E080E090E03C
:102670000E94000680912403811103C00E94310F43
:10268000F9CF1092240360911C0370911D038BE914
:1026900093E00E948C0F0E94190A68EE73E080E0BC
:1026A00090E00E9400068091EB019091EC01892B53
:1026B00099F461E08091ED010E94950563EE73E06D
:1026C000CE0101960E94A80FCE0101960E94CA0D6C
:1026D000CE0101960E94A30F68EB7BE080E090E0C2
:1026E0001AC2B80187E491E00E94111E892BD9F526
:1026F00064EC73E0CE0101960E94A80FCE01019612
:102700000E94CA0DCE0101960E94A30F60ED77E0F2
:1027100080E090E00E94000680912403811103C0B4
:102720000E94310FF9CF1092240360911C03709125
:102730001D038BE993E00E948C0F0E94190A68EE3A
:1027400073E080E090E00E9400068091EB019091A0
:10275000EC01892B09F660E08091ED010E9495055E
:102760006FEB73E0ADCFB8018FE391E00E94111ED3
:10277000892B99F46AEB73E0CE0101960E94A80FB1
:10278000CE0101960E94CA0DCE0101960E94A30FB0
:102790006CED75E080E090E0F6CDB80189E391E062
:1027A0000E94111E892B09F052C0F092F601E092AE
:1027B000F5016DE873E0CE0101960E94A80FCE01ED
:1027C00001960E94CA0DCE0101960E94A30F6CEAE9
:1027D0007DE080E090E00E9400068091240381115A
:1027E00003C00E94310FF9CF1092240360911C03A3
:1027F00070911D038BE993E00E948C0F0E94190ACF
:1028000068EE73E080E090E00E9400068091EB01AA
:102810009091EC01009779F4F092F401E092F301C9
:102820008091ED019091EE019093F2018093F1017E
:1028300064E773E01DCD019709F026CD1092F601F3
:102840001092F5011092F4011092F30166C1B801E3
:102850008FE291E00E94111E892BD9F41092F601AB
:102860001092F5011092F4011092F3016CE971E0FD
:10287000CE0101960E94A80FCE0101960E94CA0DBA
:10288000CE0101960E94A30F6CEA7DE080E090E00B
:102890007ACDB80184E291E00E94111E892B61F586
:1028A000F092F001E092EF0164E573E0CE01019651
:1028B0000E94A80FCE0101960E94CA0DCE0101967A
:1028C0000E94A30F6CEA7DE080E090E00E94000689
:1028D00080912403811103C00E94310FF9CF10921F
:1028E000240360911C0370911D0385E993E00E940D
:1028F0008C0F62E373E00DC0B80185E191E00E94A6
:10290000111E892BB9F41092F0011092EF016EE0C4
:1029100073E0CE0101960E94A80FCE0101960E949D
:10292000CA0DCE0101960E94A30F68EB7BE080E008
:1029300090E029CDB8018CE091E00E94111E892B16
:1029400009F0F0C060EF72E0CE0101960E94A80F7E
:10295000CE0101960E94CA0DCE0101960E94A30FDE
:1029600068EB7BE080E090E00E9400068091240309
:10297000811103C00E94310FF9CF1092240360919E
:102980001C0370911D038BE993E00E948C0F0E9441
:10299000190A8091EB019091EC01892B09F0B7C0E5
:1029A0008091ED019091EE019093010180930001DF
:1029B0000E94BF17882389F1809138038B3029F159
:1029C00060F18551823048F56091320370E080E01B
:1029D00090E00E949D1920E030E040E853E40E941E
:1029E000FE194B015C016091330370E080E090E0E0
:1029F0000E949F19A50194010E94571B2DEC3CECED
:102A00004CEC5DE30E94FE190CC06091320370E053
:102A100080E090E00E949D1904C060E070E080ECCE
:102A20009FE70E94C31B4B015C010E94BF178823D4
:102A3000B9F1809138038B3029F090F185518230C3
:102A400048F02EC06091340370E080E090E00E9476
:102A50009D192AC010913403612F6F7770E080E0D8
:102A600090E00E949F1920E030E040E853E40E948B
:102A7000FE192B013C016091350370E080E090E08D
:102A80000E949F19A30192010E94571B2DEC3CEC60
:102A90004CEC5DE30E94FE1917FF06C0905804C07D
:102AA00060E070E080EC9FE70E94C31B2B013C01BB
:102AB000B401092C000C880B990B0E949F199B01F3
:102AC000AC010E94F91B81110EC0B201052C000C53
:102AD000880B990B0E949F199B01AC010E94F91B66
:102AE000882309F451C06CE771E0CE0101960E9481
:102AF000A80FCE0101960E94CA0DCE0101960E9438
:102B0000A30F60EA7FE080E090E00E94000660EDA5
:102B100077E080E090E00E9400061092EC011092B5
:102B2000EB01B2CB66EC72E0CE0101960E94A80FD9
:102B3000CE0101960E94CA0DCE0101960E94A30FFC
:102B400068E873E180E090E01ECC812F0E946C0564
:102B5000019731F48091EB019091EC01892B29F0E0
:102B600060EA7FE080E090E0D6CF6FE174E0CE01D4
:102B700001960E94A80FCE0101960E94CA0DCE01B7
:102B800001960E94A30FECCFB401CE010D960E94D6
:102B9000100EB201CE0107960E94100E68E671E099
:102BA000CE0101960E94A80FCE0101960E94CA0D87
:102BB000CE0101960E94A30F6CED75E080E090E0DD
:102BC0000E940006BE01695F7F4FCE0101960E9400
:102BD000E00FCE0101960E94CA0DCE0101960E941F
:102BE000A30F6FE571E0CE0101960E94A80FCE0100
:102BF00001960E94CA0DCE0101960E94A30F68EBB8
:102C00007BE080E090E00E9400066EE471E0CE017F
:102C100001960E94A80FCE0101960E94CA0DCE0116
:102C200001960E94A30F60ED77E080E090E00E94A3
:102C30000006BE01635F7F4FCE0101960E94E00F48
:102C4000CE0101960E94CA0DCE0101960E94A30FEB
:102C500065E471E0CE0101960E94A80FCE010196B5
:102C60000E94CA0DCE0101960E94A30F68E873E18D
:102C700080E090E00E940006CE0107960E94A30F1C
:102C8000CE010D960E94A30F42CFE0915502EF3284
:102C900059F021E02E0F20935502F0E0EE0FFF1FB8
:102CA000E950FE4F9183808308950F931F93CF9334
:102CB000DF93EDE5F2E01382128288EE93E0A0E06C
:102CC000B0E084839583A683B7838FE791E09183F7
:102CD000808385EC90E09587848784EC90E09787EB
:102CE000868780EC90E0918B808B81EC90E0938BD9
:102CF000828B82EC90E0958B848B86EC90E0978BB6
:102D0000868B118E128E138E148EEBEFF2E01186ED
:102D1000128613861486158616861786148A1086E0
:102D2000108211821092FA02178212821382148288
:102D300015821682E6EAF3E011821382128215826E
:102D40001482168221E02083EDEAF3E010821182E2
:102D500012821482138216821582108617821186BF
:102D6000148613868091000190910101A2E3B3E0E3
:102D700015968C9315973BE016963C9316979927DA
:102D8000FC01E451FB4FE4911796EC931797FC017B
:102D9000E852FB4FE4911896EC93189740E85EE3F5
:102DA00060E070E01D964D935D936D937C9350971A
:102DB000C4E4D3E086E2888792E09E832F8309E90A
:102DC00011E0198308838B831A82CE010E94451675
:102DD00081EA91E099838883EDE8F3E08DE493E064
:102DE000918380839093900380938F03F093920359
:102DF000E09391031092940310929303CCE2D3E0FA
:102E00001983088383E28B831A82CE010E944516C0
:102E100089E991E099838883C6E1D3E01983088327
:102E200084E28B831A82CE010E94451681E991E0EB
:102E3000998388831F821E828FEF9FEF99878887EF
:102E40001A861E861B861C861D861F8669EC71E00D
:102E500085E993E00E94FA0F6AED71E08BE993E057
:102E6000DF91CF911F910F910C94FA0FCF93DF93C5
:102E70008BE993E00E94A30F85E993E00E94A30FE2
:102E80008091B603882301F18091B8039091B90332
:102E9000892BD1F0C0E0D0E02091B60330E08091E2
:102EA000B8039091B903C217D30764F49E01220FAF
:102EB000331FFC01E20FF31F808191810E949C1C53
:102EC0002196EACF0E949C1C8091B0039091B1039F
:102ED000009721F0DF91CF910C949C1CDF91CF9152
:102EE00008958F929F92AF92BF92CF92DF92EF920E
:102EF000FF92CF93DF93A0913903882311F03A2FEB
:102F000001C030E080913A0390E0880F991F82530E
:102F10009B4FC0903F03D0904003E0904103F0905E
:102F2000420340E050E0BA01FC01C591D4912881F0
:102F30002A23231314C04A015B012FEF821A920A3D
:102F4000A20AB20A4C155D056E057F0518F4B5019D
:102F5000A401EACF30E020E080E090E003C0342F0D
:102F6000252FCB01632F722FDF91CF91FF90EF9030
:102F7000DF90CF90BF90AF909F908F900895CF92A9
:102F8000DF92EF92FF920F931F93CF93DF93CDB712
:102F9000DEB7C054D1400FB6F894DEBF0FBECDBF30
:102FA0000E943A0600913B0310913C0320913D039F
:102FB00030913E036B017C01C01AD10AE20AF30A88
:102FC00040EDC41647E0D406E104F10418F4809102
:102FD0004303BCC060933B0370933C0380933D0369
:102FE00090933E03109236031092350310923403EF
:102FF000109233031092320361E0809137030E94F4
:1030000095056AEF70E080E090E00E94000661E0C4
:10301000809137030E94C40560E0809137030E94CD
:10302000950564E170E080E090E00E940006F8946D
:1030300061E0809137030E9495058BE990E001974C
:10304000F1F762E0809137030E94C40583E290E0CB
:103050000197F1F780E00E947117672B682B692BAD
:1030600021F41092430378943EC081E00E947117CE
:10307000672B682B692BA9F38E010F5F1F4F6E0121
:103080008FEBC81A8EEFD80A780180E00E94711782
:10309000F701608371838283938381E00E947117BB
:1030A000F7016483758386839783F8E0EF0EF11C44
:1030B000EC14FD0451F7789420E030E0F801C08072
:1030C000D180E280F3804481558166817781C1148B
:1030D000D104E104F10429F04115510561057105A0
:1030E00021F41092430380E031C0F90183E0F595AB
:1030F000E7958A95E1F7EE5CFC4F8081880FC41656
:10310000D506E606F70608F4816080832F5F3F4FFF
:10311000085F1F4F2832310589F62091360330E0D1
:10312000409132038091330390E0840F911D4091D0
:103130003403840F911D40913503840F911D99270D
:103140002817390771F681E080934303C05CDE4F96
:103150000FB6F894DEBF0FBECDBFDF91CF911F91A8
:103160000F91FF90EF90DF90CF9008958F929F92F4
:10317000AF92BF92CF92DF92EF92FF92CF93DF9305
:10318000EC01688179818A819B81611571058105D6
:10319000910521F464E279ED8BE597E02DE133EFC1
:1031A00041E050E00E94BC1A49015A019B01AC0168
:1031B000A7EAB1E40E94DB1A6B017C01ACEEB4EF2C
:1031C000A50194010E94E91ADC01CB018C0D9D1D23
:1031D000AE1DBF1DB7FF03C00197A109B04888838A
:1031E0009983AA83BB83BC01CD019F77DF91CF91E7
:1031F000FF90EF90DF90CF90BF90AF909F908F9017
:1032000008958F929F92AF92BF92CF92DF92EF92EA
:10321000FF926091020170910301809104019091ED
:103220000501611571058105910521F464E279EDCF
:103230008BE597E02DE133EF41E050E00E94BC1AAE
:1032400049015A019B01AC01A7EAB1E40E94DB1AD3
:103250006B017C01ACEEB4EFA50194010E94E91A68
:10326000DC01CB018C0D9D1DAE1DBF1DB7FF03C042
:103270000197A109B0488093020190930301A093A4
:103280000401B0930501BC01CD019F77FF90EF9041
:10329000DF90CF90BF90AF909F908F9008956093F4
:1032A0000201709303018093040190930501089536
:1032B000FB01DC0105900D920020E1F70895FC016F
:1032C00005900020E9F7809590958E0F9F1F089537
:1032D000BB274A3031F4992322F4BDE290958195C1
:1032E0009F4F0C947419BB27FB015527AA27880F01
:1032F000991FAA1FA41710F0A41B83955051B9F76A
:10330000A05DAA3308F0A95DA193009779F7B111E8
:10331000B1931192CB010C948D19DC01FC01672F44
:1033200071917723E1F7329704C07C916D9370839C
:103330006291AE17BF07C8F30895E89409C097FBE0
:103340003EF490958095709561957F4F8F4F9F4F7C
:103350009923A9F0F92F96E9BB279395F6958795C0
:1033600077956795B795F111F8CFFAF4BB0F11F483
:1033700060FF1BC06F5F7F4F8F4F9F4F16C088232A
:1033800011F096E911C0772321F09EE8872F762F60
:1033900005C0662371F096E8862F70E060E02AF0A1
:1033A0009A95660F771F881FDAF7880F969587958D
:1033B00097F90895990F0008550FAA0BE0E8FEEF62
:1033C00016161706E807F907C0F012161306E407E9
:1033D000F50798F0621B730B840B950B39F40A26E2
:1033E00061F0232B242B252B21F408950A2609F4C0
:1033F000A140A6958FEF811D811D08950E94111A8D
:103400000C94821A0E94741A38F00E947B1A20F0E1
:10341000952311F00C946B1A0C94711A11240C94CE
:10342000B61A0E94931A70F3959FC1F3950F50E05E
:10343000551F629FF001729FBB27F00DB11D639F66
:10344000AA27F00DB11DAA1F649F6627B00DA11D0C
:10345000661F829F2227B00DA11D621F739FB00DB2
:10346000A11D621F839FA00D611D221F749F332722
:10347000A00D611D231F849F600D211D822F762FBB
:103480006A2F11249F5750409AF0F1F088234AF098
:10349000EE0FFF1FBB1F661F771F881F9150504004
:1034A000A9F79E3F510580F00C946B1A0C94B61A44
:1034B0005F3FE4F3983ED4F3869577956795B7958B
:1034C000F795E7959F5FC1F7FE2B880F911D9695A5
:1034D000879597F9089597F99F6780E870E060E015
:1034E00008959FEF80EC089500240A94161617069D
:1034F00018060906089500240A94121613061406E5
:1035000005060895092E0394000C11F4882352F047
:10351000BB0F40F4BF2B11F460FF04C06F5F7F4FFF
:103520008F4F9F4F089557FD9058440F551F59F0E6
:103530005F3F71F04795880F97FB991F61F09F3FA0
:1035400079F087950895121613061406551FF2CFC9
:103550004695F1DF08C0161617061806991FF1CF19
:1035600086957105610508940895E894BB27662740
:103570007727CB0197F90895052E97FB1EF4009449
:103580000E94D31A57FD07D00E94251B07FC03D0C9
:103590004EF40C94D31A50954095309521953F4F99
:1035A0004F4F5F4F089590958095709561957F4F2F
:1035B0008F4F9F4F08950E94471BA59F900DB49F6A
:1035C000900DA49F800D911D11240895B7FF0C94B8
:1035D000DB1A0E94DB1A821B930B08952F923F92F5
:1035E0004F925F926F927F928F929F92AF92BF9213
:1035F000CF92DF92EF92FF920F931F93CF93DF93BF
:10360000CDB7DEB7CA1BDB0B0FB6F894DEBF0FBE1B
:10361000CDBF09942A88398848885F846E847D8468
:103620008C849B84AA84B984C884DF80EE80FD806A
:103630000C811B81AA81B981CE0FD11D0FB6F894E0
:10364000DEBF0FBECDBFED010895A1E21A2EAA1B69
:10365000BB1BFD010DC0AA1FBB1FEE1FFF1FA21742
:10366000B307E407F50720F0A21BB30BE40BF50B3F
:10367000661F771F881F991F1A9469F760957095C8
:10368000809590959B01AC01BD01CF010895A29F4B
:10369000B001B39FC001A39F700D811D1124911D26
:1036A000B29F700D811D1124911D08955058BB27A4
:1036B000AA270E946E1B0C94821A0E94741A38F07A
:1036C0000E947B1A20F039F49F3F19F426F40C94E1
:1036D000711A0EF4E095E7FB0C946B1AE92F0E9427
:1036E000931A58F3BA17620773078407950720F0F7
:1036F00079F4A6F50C94B51A0EF4E0950B2EBA2FBA
:10370000A02D0B01B90190010C01CA01A0011124E7
:10371000FF27591B99F0593F50F4503E68F11A1693
:10372000F040A22F232F342F4427585FF3CF469524
:1037300037952795A795F0405395C9F77EF41F1646
:10374000BA0B620B730B840BBAF09150A1F0FF0F10
:10375000BB1F661F771F881FC2F70EC0BA0F621FFC
:10376000731F841F48F4879577956795B795F795EC
:103770009E3F08F0B0CF9395880F08F09927EE0F81
:103780009795879508950E94CA1B6894B1110C946F
:10379000B61A08950E949B1A88F09F5798F0B92F87
:1037A0009927B751B0F0E1F0660F771F881F991F76
:1037B0001AF0BA95C9F714C0B13091F00E94B51A49
:1037C000B1E008950C94B51A672F782F8827B85F59
:1037D00039F0B93FCCF3869577956795B395D9F7CE
:1037E0003EF490958095709561957F4F8F4F9F4FD8
:1037F00008950E94DA19880B990B0895EE0FFF1FA8
:103800000590F491E02D09940F931F93CF93DF93CC
:103810008230910510F482E090E0E091C203F091D3
:10382000C30320E030E0A0E0B0E0309719F1408120
:1038300051810281138148175907C8F084179507F1
:1038400069F4109731F012960C93129713961C930B
:1038500027C00093C2031093C30322C02115310572
:1038600019F04217530718F49A01BD01EF01DF0167
:10387000F801DBCF21153105F9F0281B390B243075
:10388000310580F48A819B816115710521F0FB016E
:103890009383828304C09093C3038093C203FE0189
:1038A000329644C0FE01E20FF31F819391932250A0
:1038B0003109398328833AC02091C0033091C10374
:1038C000232B41F420910801309109013093C10369
:1038D0002093C00320910601309107012115310585
:1038E00041F42DB73EB740910A0150910B01241BC2
:1038F000350BE091C003F091C103E217F307A0F488
:103900002E1B3F0B2817390778F0AC014E5F5F4F35
:103910002417350748F04E0F5F1F5093C1034093A3
:10392000C0038193919302C0E0E0F0E0CF01DF910A
:10393000CF911F910F910895CF93DF93009709F4D2
:1039400081C0FC01329713821282A091C203B09110
:10395000C303109781F420813181820F931F20913E
:10396000C0033091C1032817390751F5F093C10303
:10397000E093C00367C0ED0120E030E0CE17DF0721
:1039800040F44A815B819E0141155105F1F0EA0145
:10399000F5CFD383C28340815181840F951FC8170F
:1039A000D90759F488819981840F951F02969183D4
:1039B00080838A819B81938382832115310529F439
:1039C000F093C303E093C2033DC0E901FB83EA83A4
:1039D00049915991C40FD51FEC17FD0761F48081FF
:1039E0009181840F951F0296E901998388838281D2
:1039F00093819B838A83E0E0F0E012968D919C9105
:103A00001397009719F0FD01DC01F7CF8D919C9180
:103A100011979D012E5F3F4F820F931F2091C0038E
:103A20003091C1032817390769F4309729F41092AF
:103A3000C3031092C20302C013821282B093C10367
:103A4000A093C003DF91CF910895A0E0B0E0EBE236
:103A5000FDE10C94F21AEC01009721F4CB010E94D5
:103A6000041CB4C0FC01E60FF71F9C012250310971
:103A7000E217F30708F4A8C0D9010D911C91119722
:103A800006171707B0F00530110508F49BC0C801F0
:103A900004978617970708F495C002501109061B72
:103AA000170B019311936D937C93CF010E949C1C83
:103AB00089C05B01A01AB10A4C01800E911EA09131
:103AC000C203B091C303612C712CE12CF12C10972F
:103AD00009F446C08D919C911197A815B905B1F5CF
:103AE0006C0142E0C40ED11CCA14DB0478F14C0115
:103AF0008A189B08640142E0C40ED11C1296BC9047
:103B000012971396AC91B5E0CB16D10440F0B28277
:103B1000A38391828082D9016D937C9309C00E5F4B
:103B20001F4F800F911FF90191838083EB2DFA2F96
:103B3000E114F10431F0D7011396FC93EE93129740
:103B400041C0F093C303E093C2033CC068167906FA
:103B500008F43C017D0112960D90BC91A02DB7CFC9
:103B60008091C0039091C10388169906E1F466160E
:103B70007706C8F48091060190910701009741F4FF
:103B80008DB79EB740910A0150910B01841B950B94
:103B9000E817F907C8F4F093C103E093C003F901F3
:103BA000718360830FC0CB010E94041C7C010097CD
:103BB00059F0A801BE010E94FD1DCE010E949C1C6F
:103BC000C70104C0CE0102C080E090E0CDB7DEB7EF
:103BD000EEE00C940E1B81E090E0F8940C94211E12
:103BE000FB01DC0104C08D910190801921F441504A
:103BF0005040C8F7881B990B0895FB01DC0102C0F7
:103C000001900D9241505040D8F70895FB01DC011E
:103C10000D900020E9F7119701900D920020E1F737
:103C20000895FB01DC018D91019080190110D9F3F9
:103C3000990B0895FB01DC0101900D920020E1F742
:103C4000089512E0C1E8D2E004C0FE010E94FE1B0C
:0C3C50002196C238D107C9F7F894FFCFC5
:103C5C000200010000000000C403800064687420AE
:103C6C007265616400666F637573206E616D6520AB
:103C7C006F666600666F637573206E616D650066B6
:103C8C006F637573206F666600666F637573006192
:103C9C00726475696E6F00706F776572206F6666FF
:103CAC0000706F776572206F6E007374617475733A
:103CBC000068656C70007374617465006C656420D9
:103CCC006F6666006C6564206F6E00000000001962
:103CDC0003710EB0026603E102BF02D302000000C2
:103CEC0000E504410900000000E504AC02000000FE
:103CFC0000E504040441726520796F75206F6B3FF9
:103D0C00005975702C2049276D206665656C696EAD
:103D1C00672067726561742100466F63757320704C
:0C3D2C00696E206E616D65000D0A0000DC
:107E0000112484B714BE81FFF0D085E080938100F7
:107E100082E08093C00088E18093C10086E0809377
:107E2000C20080E18093C4008EE0C9D0259A86E02C
:107E300020E33CEF91E0309385002093840096BBD3
:107E4000B09BFECF1D9AA8958150A9F7CC24DD24C4
:107E500088248394B5E0AB2EA1E19A2EF3E0BF2EE7
:107E6000A2D0813461F49FD0082FAFD0023811F036
:107E7000013811F484E001C083E08DD089C08234E0
:107E800011F484E103C0853419F485E0A6D080C0E4
:107E9000853579F488D0E82EFF2485D0082F10E0AE
:107EA000102F00270E291F29000F111F8ED06801E7
:107EB0006FC0863521F484E090D080E0DECF843638
:107EC00009F040C070D06FD0082F6DD080E0C81688
:107ED00080E7D80618F4F601B7BEE895C0E0D1E017
:107EE00062D089930C17E1F7F0E0CF16F0E7DF06D8
:107EF00018F0F601B7BEE89568D007B600FCFDCFD4
:107F0000A601A0E0B1E02C9130E011968C91119780
:107F100090E0982F8827822B932B1296FA010C0160
:107F200087BEE89511244E5F5F4FF1E0A038BF0790
:107F300051F7F601A7BEE89507B600FCFDCF97BE46
:107F4000E89526C08437B1F42ED02DD0F82E2BD052
:107F50003CD0F601EF2C8F010F5F1F4F84911BD097
:107F6000EA94F801C1F70894C11CD11CFA94CF0C13
:107F7000D11C0EC0853739F428D08EE10CD085E9AC
:107F80000AD08FE07ACF813511F488E018D01DD067
:107F900080E101D065CF982F8091C00085FFFCCF94
:107FA0009093C60008958091C00087FFFCCF809118
:107FB000C00084FD01C0A8958091C6000895E0E648
:107FC000F0E098E1908380830895EDDF803219F02E
:107FD00088E0F5DFFFCF84E1DECF1F93182FE3DFCA
:107FE0001150E9F7F2DF1F91089580E0E8DFEE27F6
:047FF000FF270994CA
:027FFE00040479
:0400000300007E007B
:00000001FF