:100000000C9463000C948B000C948B000C948B006C
:100010000C948B000C948B000C948B000C948B0034
:100020000C948B000C948B000C948B000C948B0024
:100030000C948B000C948B000C948B000C948B0014
:100040000C94E5020C948B000C944A080C94240840
:100050000C948B000C948B000C948B000C948B00F4
:100060000C948B000C948B000000000023002600F1
:10007000290000000008000201000003040700003E
:1000800000000000000000000000250028002B00F8
:1000900000000000240027002A00040404040404D3
:1000A0000404020202020202030303030303010227
:1000B00004081020408001020408102001020408F6
:1000C0001020DC0D910E11241FBECFEFD8E0DEBF53
:1000D000CDBF13E0A0E0B1E0ECE6F4E202C0059091
:1000E0000D92AC38B107D9F725E0ACE8B3E001C018
:1000F0001D92A435B207E1F710E0C2E6D0E004C0DB
:100100002197FE010E940610C136D107C9F70E944F
:10011000380B0C9429120C940000FC01918D228D57
:10012000892F90E0805C9F4F821B91098F739927E4
:100130000895833081F028F4813099F08230A1F065
:1001400008958730A9F08830B9F08430D1F48091D7
:1001500080008F7D03C0809180008F778093800026
:10016000089584B58F7702C084B58F7D84BD0895CE
:100170008091B0008F7703C08091B0008F7D809315
:10018000B00008953FB7F89480919503909196033D
:10019000A0919703B091980326B5A89B05C02F3F67
:1001A00019F00196A11DB11D3FBFBA2FA92F982F9D
:1001B0008827820F911DA11DB11DBC01CD0142E018
:1001C000660F771F881F991F4A95D1F70895809170
:1001D000FE03882329F08091FF0390910004089585
:1001E00082EA94E0089580910304882321F090919D
:1001F000A10481E08927089570E0DC015296ED9119
:10020000FC915397E60FF71F2081222359F0660FC8
:10021000771F5096ED91FC915197E60FF71F808163
:100220009181089580E090E008956F927F928F927F
:100230009F92AF92BF92CF92DF92EF92FF920F9375
:100240001F93CF93DF93EC010E94E700DC011B9624
:100250002C911B97213009F04AC05296ED91FC91E8
:100260005397608000E010E0712C4E01BFE48B0ECC
:10027000911C7E01E9E4EE0EF11C6E01FDE4CF0E4F
:10028000D11C5E0189E0A80EB11C061517057CF58E
:10029000CE010E94E70060E00E94FC00800F911FE9
:1002A000DC018C91F4012081318120343105E1F0B1
:1002B000D701ED91FC9111979F012F5F3F4F119650
:1002C0003C932E938083F4018081918101969183E8
:1002D00080832D913C91D6018D919C9128173907EF
:1002E00019F4F701B182A0820F5F1F4FCECFDF91CB
:1002F000CF911F910F91FF90EF90DF90CF90BF9023
:10030000AF909F908F907F906F9008950E94F3110F
:100310000F931F93CF93DF93EC011F828881882373
:10032000E1F000E010E0288530E088899989021723
:1003300013077CF49801220F331FFC01E20FF31F17
:1003400080819181009711F00E94A4100F5F1F4FD0
:10035000EACF18860E94A41018828981882329F088
:100360008A899B890E94A4101982DF91CF911F91E5
:100370000F910895CF93DF93EC010E94F30088233F
:10038000A1F01092030481E08E831F9284E08F938A
:100390001F921F92DF93CF930E949C081E820F90A2
:1003A0000F900F900F900F900F90DF91CF910895C5
:1003B000CF93DF93EC010E94F300811114C081E020
:1003C000809303048E831F9283E08F931F921F926A
:1003D000DF93CF930E949C081E820F900F900F9086
:1003E0000F900F900F90DF91CF910895CF93DF93EF
:1003F000EC010E94E7003B81FC012185321322C001
:1004000083858F3FB1F48A818823E1F082EA94E00A
:100410000E94F300811116C082EA94E00E94D80184
:10042000EC81FD81099582EA94E0DF91CF910C94F3
:10043000BA01E881F9810280F381E02DCE01DF91DC
:10044000CF910994DF91CF910895FC01848DDF0154
:10045000A80FB11DA35ABF4F2C91848D90E0019637
:100460008F739927848FA689B7892C93A089B18926
:100470008C91837080648C93938D848D981306C0C7
:100480000288F389E02D80818F7D80830895CF934A
:10049000DF93282F30E0F901EE58FF4F8491F901E6
:1004A000E255FF4FD491F901E656FF4FC491CC239A
:1004B00091F081110E949900EC2FF0E0EE0FFF1FE8
:1004C000E859FF4FA591B491EC91ED2381E090E0C4
:1004D00021F480E002C080E090E0DF91CF910895A8
:1004E0001F93CF93DF93282F30E0F901EE58FF4F91
:1004F0008491F901E255FF4FD491F901E656FF4F7F
:10050000C491CC23C1F0162F81110E949900EC2FC9
:10051000F0E0EE0FFF1FEA57FF4FA591B4919FB790
:10052000F894111104C08C91D095D82302C0EC919D
:10053000DE2BDC939FBFDF91CF911F9108958F92A7
:100540009F92AF92BF92CF92DF92EF92FF926B0198
:100550007C010E94C2004B015C01C114D104E10482
:10056000F104F1F00E94C200DC01CB018819990965
:10057000AA09BB09883E9340A105B10570F321E0AB
:10058000C21AD108E108F10888EE880E83E0981EAF
:10059000A11CB11CC114D104E104F10419F7DDCF91
:1005A000FF90EF90DF90CF90BF90AF909F908F9093
:1005B00008952FB7F8946091910370919203809100
:1005C0009303909194032FBF08951F920F920FB63B
:1005D0000F9211242F933F938F939F93AF93BF93C9
:1005E0008091910390919203A0919303B091940311
:1005F0003091900323E0230F2D3720F40196A11DA5
:10060000B11D05C026E8230F0296A11DB11D209340
:1006100090038093910390939203A0939303B093DC
:1006200094038091950390919603A0919703B091C4
:1006300098030196A11DB11D809395039093960395
:10064000A0939703B0939803BF91AF919F918F911F
:100650003F912F910F900FBE0F901F9018958F9282
:100660009F92AF92BF92CF92DF92EF92FF920F9341
:100670001F93CF93DF931F92CDB7DEB77C018B0121
:100680000E94D90280908C0390908D03A0908E03DD
:10069000B0908F03DC01CB0188199909AA09BB0925
:1006A000813D9740A105B10548F089288A288B280B
:1006B00029F0D70117968C9181110FC20E94D9029F
:1006C00060938C0370938D0380938E0390938F03BC
:1006D000F7019781911114C00F3F110589F4C701EB
:1006E0000E94880181E0D70117968C931797519645
:1006F0001C921E92509753961C921E9252971FC0A6
:10070000F7018485843041F4992309F4EAC11686FF
:100710001586078785E0C5C0853059F5992309F40A
:10072000E0C1D7012785C22ED12C8FEF90E08C1924
:100730009D0908171907B9F5211104C089E01C9615
:100740008C93CFC1C601880F991F0E940C10F7012E
:10075000918B808B11E01083C6010E940C10D70191
:1007600053969C938E93529711961C93119786E003
:10077000E6CF8630D9F0873009F053C0992309F4C9
:10078000B0C1F701258530E00288F389E02DE20F42
:10079000F31F6081862F90E04FEF50E0481B590B0C
:1007A0000417150779F0F701178254C1992309F44A
:1007B00098C1D70185850288F389E02DE80FF11DE6
:1007C000008368C0220F331FD70150960D911C91F2
:1007D0005197662369F0020F131F0E940C10F80155
:1007E00091838083D7011C968C911C978F5F12C0D8
:1007F000F801E20FF31F11821082F701168685853A
:100800008F5F85879785891303C089E0848704C03B
:1008100086E0D7011C968C93F70180858F5F8087D7
:1008200060C1883009F03FC0992309F45AC1D7014B
:10083000858520899189E22FF92FE80FF11DE80FB6
:10084000F11D80819181009759F01E962C911E9781
:1008500031E0320F1E963C93FC01E20FF11D008344
:10086000F70185850288F389E02DE80FF11DD70196
:100870001E962C911E979081291333C11E961C92AF
:100880001E978F5F1D968C931D971F969C911F97A7
:10089000891305C01C968C911C978F5F50CF86E002
:1008A000F70184871EC1893009F0D8C0992309F463
:1008B00018C1048B0111CEC017828091AB04811145
:1008C0008CC08385823051F412828381882309F49D
:1008D0009EC00588F689E02D80E00CC0813061F46F
:1008E000F70182838381882309F491C00588F68902
:1008F000E02D81E009958BC0833081F41F9281E067
:100900008F931F921F92FF92EF920E949C080F906C
:100910000F900F900F900F900F9079C0853009F0D5
:1009200076C060E0C7010E94FC004BE050E0BC01D3
:100930008BE691E00E94F811892B09F068C01982BA
:10094000D7015296ED91FC915397A180B12C00E014
:1009500010E0C12CD12C0A151B056CF461E0C70115
:100960000E94FC00800F911FFC018081C80ED11CE9
:100970000F5F1F4FF0CFC98284E090E00E940C10FF
:100980008C01DC0113961C92139781E08C93CE01AD
:10099000019612969C938E93119784E090E00E94AA
:1009A0000C10FC01138287E1808387E791E092833A
:1009B00081831F930F93FF93EF9382E08F9385E0E2
:1009C0008F931F921F92FF92EF920E949C080FB686
:1009D000F894DEBF0FBECDBF1AC02FE9C22E23E0B0
:1009E000D22E00E010E08091FD0390E00817190777
:1009F00074F4D6018D919D916D01DC01ED91FC9116
:100A00000190F081E02D09950F5F1F4FECCFF701AA
:100A100084818823F9F081858823E1F0C7010E9451
:100A2000D801D70150960D911C91519752962D9156
:100A30003C9153975796ED91FC9158971F964C9186
:100A40001F971B966C911B9719968C910995C7015E
:100A50000E94BA01C7010E94880143C0992309F48A
:100A600040C0813001F5602FF7010187002391F12B
:100A7000948191112FC04091FD0350E0EFE9F3E024
:100A800020E030E02417350754F4A191B19113967A
:100A90007C91671301C091E02F5F3F4FF3CF992303
:100AA00009F481CE17C0823089F402872FEF30E03D
:100AB000201B310994E0359527959A95E1F70F7041
:100AC00010E02017310731F0178204C0833011F491
:100AD000F70103878F5FD70132CEC7010E948801DB
:100AE000EDCD0F90DF91CF911F910F91FF90EF907F
:100AF000DF90CF90BF90AF909F908F900895CF934D
:100B0000DF9380919903811132C08091010490910B
:100B10000204DC01ED91FC910084F185E02D099542
:100B2000892B29F18091010490910204DC01ED915F
:100B3000FC910284F385E02D0995EC01BC01772737
:100B400082EA94E00E942F038091A7048823E9F2AF
:100B500082EA94E00E94D801E091BB04F091BC04C9
:100B60008C2F099582EA94E00E94BA01CECFDF91E2
:100B7000CF9108950E94960781110C947F050895E6
:100B8000CF93DF93EC0180919A03882359F08091F1
:100B9000010490910204DC01ED91FC910190F0813F
:100BA000E02D09958E81811108C062E070E080E03F
:100BB00090E0DF91CF910C949F02DF91CF91089547
:100BC0008FE891E00E947C08882319F085E090E08E
:100BD00059C087E991E00E947C08882319F086E0DB
:100BE00090E050C08BE991E00E947C08882319F0C6
:100BF00087E090E047C081EA91E00E947C0888236A
:100C000019F088E090E03EC087EA91E00E947C08FD
:100C1000882319F089E090E035C08CEA91E00E94C9
:100C20007C08882319F08AE090E02CC080EB91E0EA
:100C30000E947C08811106C087EB91E00E947C082D
:100C4000882319F08BE090E01DC08DEB91E00E94AD
:100C50007C08811106C08AEB91E00E947C08882301
:100C600019F08CE090E00EC084EC91E00E947C08CA
:100C7000811106C08DEC92E00E947C08882351F01F
:100C80008DE090E090939C0380939B0384E991E036
:100C90000C94050A8DEC91E00E94050A81E090E039
:100CA00090939E0380939D030895CF92DF92EF92DD
:100CB000FF920F931F93CF93DF93CDB7DEB72C979F
:100CC0000FB6F894DEBF0FBECDBF8C010E94E700C7
:100CD0007C01DC011B968C91813009F093C0F801F6
:100CE00086819781009711F00E94A410C8010E948C
:100CF000E700DC015296ED91FC915397808190E0E2
:100D0000F8019187808701960E940C10D8011796F0
:100D10009C938E931697E12CF12CF8018085918598
:100D200026813781E816F9069CF46901CE0CDF1C98
:100D3000C8010E94E70060E00E94FC008E0D9F1D2C
:100D4000DC018C91F6018083FFEFEF1AFF0AE5CFFB
:100D5000F901E80FF91F108281E0D8011E968C93EB
:100D600082EA94E00E94F300811172C0F80182854A
:100D7000882391F082EA94E00E94D801D80150962D
:100D8000ED91FC91519716968D919C91179709952D
:100D900082EA94E00E94BA01F8018585882309F46B
:100DA00057C066817781CE0101960E940F0882EAC2
:100DB00094E00E94D801D80152960D911C9153974E
:100DC00018861F821A8619861C861B8669817A817D
:100DD0006115710531F04D815E81CE0107960E944B
:100DE000D70ACE010796F80109958F8198850E9450
:100DF000A41082EA94E00E94BA0189819A810E943B
:100E0000A41026C0823021F582EA94E00E94F3000B
:100E100081111EC060E0C7010E94FC00FC018081BE
:100E2000D8011F968C931F971B968C91882381F075
:100E300082EA94E00E94D801D8015496ED91FC9189
:100E400055971F968C91099582EA94E00E94BA0109
:100E50002C960FB6F894DEBF0FBECDBFDF91CF91B9
:100E60001F910F91FF90EF90DF90CF900895CF9258
:100E7000DF92EF92FF920F931F93CF93DF936C015A
:100E80007A018B01C0E0D0E0CE15DF0581F0D801FA
:100E90006D918D01D601ED91FC910190F081E02DD5
:100EA000C6010995892B11F02196EECF7E01C7016D
:100EB000DF91CF911F910F91FF90EF90DF90CF9036
:100EC0000895089580E090E00895FC01538D448DCD
:100ED000252F30E0842F90E0821B930B541710F0E5
:100EE000CF96089501970895FC01918D828D9817F2
:100EF00061F0828DDF01A80FB11D5D968C91928DFE
:100F00009F5F9F73928F90E008958FEF9FEF0895FA
:100F1000FC01918D828D981731F0828DE80FF11DC3
:100F2000858D90E008958FEF9FEF089584E094E021
:100F30000E948D0021E0892B09F420E0822F089582
:100F4000EF92FF920F931F93CF93DF93EC0181E019
:100F5000888F9B8D8C8D981305C0E889F9898081D5
:100F600085FD26C0F62E0B8D10E00F5F1F4F0F730F
:100F70001127E02E8C8DE8120CC00FB607FCFACFBB
:100F8000E889F989808185FFF5CFCE010E9425028D
:100F9000F1CF8B8DFE01E80FF11DE35AFF4FF08278
:100FA0009FB7F8940B8FEA89FB89808180620AC021
:100FB0009FB7F894EE89FF896083E889F989808179
:100FC0008370806480839FBF81E090E0DF91CF9148
:100FD0001F910F91FF90EF900895CF93DF93EC0155
:100FE000888D8823C9F0EA89FB89808185FD05C049
:100FF000A889B9898C9186FD0FC00FB607FCF5CF83
:10100000808185FFF2CFA889B9898C9185FFEDCFCA
:10101000CE010E942502E7CFDF91CF910895FC0118
:101020001182108213821282158214826115710559
:1010300051F0FB0101900020E9F73197AF01461B09
:10104000570B0C94D70A08951F920F920FB60F9268
:1010500011242F933F934F935F936F937F938F93BD
:101060009F93AF93BF93EF93FF9384E094E00E942C
:101070002502FF91EF91BF91AF919F918F917F9149
:101080006F915F914F913F912F910F900FBE0F90F5
:101090001F9018951F920F920FB60F9211242F9345
:1010A0008F939F93EF93FF93E0911404F0911504B5
:1010B0008081E0911A04F0911B0482FD12C090819E
:1010C00080911D048F5F8F7320911E04821751F051
:1010D000E0911D04F0E0EC5FFB4F958F80931D04C1
:1010E00001C08081FF91EF919F918F912F910F907F
:1010F0000FBE0F901F901895FC0180912E059091C6
:101100002F05892B21F421E0309749F413C08091F9
:101110002A0590912B05309731F421E0FC01808164
:10112000882341F006C0BF010E94191221E0892BDB
:1011300009F020E0822F08955F926F927F928F9244
:101140009F92AF92BF92CF92DF92EF92FF920F9356
:101150001F93CF93DF93CDB7DEB76B970FB6F8949D
:10116000DEBF0FBECDBF0DA51EA55FA4CAA80E94FD
:10117000D902552009F488C020913105222309F4B1
:1011800083C08090320590903305A0903405B090D4
:10119000350581149104A104B10409F475C0DC0182
:1011A000CB0188199909AA09BB090196A11DB11D96
:1011B000883C9105A105B10508F066C08091030443
:1011C00028EC820E911CA11CB11C882309F44EC08E
:1011D0001A861B861C861D861E861F86188A1D8AF7
:1011E000198619821A821092A10418861B821C8209
:1011F0001D821E821F82CE0101967C019093000405
:101200008093FF0381E08093FE030E94D90268155A
:1012100079058A059B0508F4BFC088858111BCC08B
:101220002DC0F8018781882379F180910104909184
:101230000204DC01ED91FC910084F185E02D09951B
:10124000892BA1F08091010490910204DC01ED91C1
:10125000FC910284F385E02D09958F3FBFEF9B073A
:1012600029F0BC0182EA94E00E942F030E94D90277
:10127000681579058A059B05C0F2D3CF109200044A
:101280001092FF031092FE0381E0809331057E01EE
:10129000E3E3EE0EF11C6FEFC8010E94C00562E1AE
:1012A000C8010E94C005652DC8010E94C0050E94AA
:1012B000150F20E130E040E050E00E946C0F962FC7
:1012C0009095F0E19F9FC00111246F70682BC801B9
:1012D0000E94C00569A9C8010E94C0056C2DC80103
:1012E0000E94C0056C2D6095C8010E94C005812C2C
:1012F000912CD12C8C149D04CCF5370122E0620E88
:10130000711CD701ED90FC90F7016081C8010E942B
:10131000C005D7016C916095C8010E94C005A12C41
:10132000B12CF701808190E0A816B9066CF4018019
:10133000F281E02DEA0DFB1D6081C8010E94C0050D
:10134000FFEFAF1ABF0AEDCFE114F10451F0838132
:10135000882321F0818192810E94A410C7010E94FC
:10136000A410BFEF8B1A9B0A7301C4CF60E0C801C1
:101370000E94C005552099F10E94D902DC01CB01E1
:101380000196A11DB11D8093320590933305A09362
:101390003405B093350523C0809101049091020477
:1013A000DC01ED91FC910084F185E02D0995892BFC
:1013B00009F42BCF8091010490910204DC01ED919E
:1013C000FC910284F385E02D09958F3FBFEF9B07C9
:1013D00009F41BCFBC01C7010E942F0316CF6B96E7
:1013E0000FB6F894DEBF0FBECDBFDF91CF911F9136
:1013F0000F91FF90EF90DF90CF90BF90AF909F90B4
:101400008F907F906F905F9008950F931F93CF936D
:10141000DF93FC0101900020E9F73197EF01C81B31
:10142000D90B39F18C0184E090E00E940C10FC0192
:1014300013829E01CF3FD10519F014F02FEF30E059
:10144000208312830183FF93EF9381E08F938F9327
:101450001F9283E28F9382EA94E09F938F930E947E
:101460009C088DB79EB708960FB6F8949EBF0FBE26
:101470008DBFDF91CF911F910F91089590E0FC01F6
:10148000E255FF4F2491FC01E656FF4F84918823DB
:1014900099F090E0880F991FFC01E057FF4FA5914C
:1014A000B491FC01EA57FF4F859194918FB7F8945E
:1014B000EC91E22BEC938FBF0895CF92DF92EF92E5
:1014C000FF920F931F93CF93DF93CDB7DEB7CDB6C7
:1014D000DEB6FC0124813581232B29F060817181E6
:1014E0006115710521F41092300560E375E0FB0190
:1014F00001900020E9F7CF01861B970B02962DB7CC
:101500003EB7281B390B0FB6F8943EBF0FBE2DBF58
:101510008DB79EB701967C01EDB7FEB711820E9490
:101520000E1269E873E0C7010E940E12F7010190E4
:101530000020E9F731978F010E191F0951F184E05E
:1015400090E00E940C10FC01138298010F3F1105DE
:1015500019F014F02FEF30E02083F282E182FF9344
:10156000EF9381E08F938091DF048F931F9280919E
:10157000E1048F9382EA94E09F938F930E949C08EA
:101580002DB73EB7285F3F4F0FB6F8943EBF0FBE52
:101590002DBF0FB6F894DEBE0FBECDBEDF91CF914A
:1015A0001F910F91FF90EF90DF90CF900895EF92F1
:1015B000FF920F931F93CF93DF93EC017B018A017E
:1015C00088819981009729F02A813B81241735076A
:1015D000F8F4B8016F5F7F4F0E942D11009759F00A
:1015E000998388831B830A832C813D81232B81F47B
:1015F000FC0110820DC088819981009711F00E9432
:10160000A410198218821D821C821B821A8207C0B4
:101610001D830C83B701888199810E942212CE011B
:10162000DF91CF911F910F91FF90EF900895CF938D
:10163000DF93EC016115710559F0FB010190002069
:10164000E9F73197AF01461B570B0E94D70A0CC030
:1016500088819981009711F00E94A4101982188244
:101660001D821C821B821A82CE01DF91CF910895C8
:10167000CF93DF93CDB7DEB72C970FB6F894DEBFCC
:101680000FBECDBF789484B5826084BD84B581607F
:1016900084BD85B5826085BD85B5816085BD80913D
:1016A0006E00816080936E001092810080918100B5
:1016B00082608093810080918100816080938100AD
:1016C000809180008160809380008091B10084606F
:1016D0008093B1008091B00081608093B0008091D0
:1016E0007A00846080937A0080917A00826080938F
:1016F0007A0080917A00816080937A0080917A00EC
:10170000806880937A001092C10080919A038111C1
:1017100050C084E094E09093020480930104E0912F
:101720001404F091150492E09083E0911004F0917C
:1017300011041082E0911204F091130480E180837F
:1017400010921C04E0911804F091190486E0808343
:10175000E0911604F0911704808180618083E0910C
:101760001604F0911704808188608083E09116044C
:10177000F0911704808180688083E0911604F091D5
:10178000170480818F7D80831092990381E080937C
:101790009A031F929F931F921F9282EA94E09F9355
:1017A0008F930E949C080F900F900F900F900F90B6
:1017B0000F908DE00E943E0A88E00E943E0A85E07C
:1017C000682E712CEE24E394F12C23E0C22ED12C50
:1017D00034E0A32EB12C42E0842E912C80910001A4
:1017E00090910101019709F070C08091CB0488238A
:1017F00009F46BC01092CB046091C3047091C404CF
:101800008AE391E00E941912892B09F0D3C08DE080
:101810000E944702892B09F0CDC061E08DE00E9453
:10182000700284E093E02DC1B8018EE191E00E9446
:101830001912892B09F08BC190920101809200014D
:101840008091000190910101029771F488EA92E081
:101850000E94050AD0920101C092000160ED77E07C
:1018600080E090E00E949F028091CB04811138C0FB
:101870006BE873E0CE0107960E940F081092CB042C
:101880006091C3047091C404CE0107960E94170BA7
:101890001A8219821C821B821E821D826F817885AA
:1018A0006115710531F04B855C85CE0101960E9472
:1018B000D70ACE0101960E945D0A89819A810E9411
:1018C000A4108F8198850E94A410809100019091AE
:1018D00001019C01225031092230310588F5B0CF39
:1018E0001092CB046091C3047091C4048AE295E025
:1018F0000E94170B0E94E00568EE73E080E090E024
:101900000E949F0280919D0390919E03892B49F430
:1019100061E080919B030E94700280ED92E00E9442
:10192000050A68EB7BE080E090E00E949F02109245
:101930009E0310929D03F0920101E092000198CF66
:1019400004970297A0F580910001909101010497FE
:1019500071F488EA92E00E94050A70920101609297
:10196000000160ED77E080E090E00E949F028091AE
:10197000CB04882309F47CCF1092CB046091C3047C
:101980007091C4048AE295E00E94170B0E94E00562
:1019900068EE73E080E090E00E949F0280919D03DA
:1019A00090919E03892B09F0BCCF60E0B2CF0E94DA
:1019B000BA0514CF1092CB046091C3047091C40493
:1019C0008AE391E00E941912892B41F48DE00E9474
:1019D0004702019719F487E193E053C01092CB04BA
:1019E0006091C3047091C40482E391E00E941912D3
:1019F000892B61F48DE00E944702019739F460E081
:101A00008DE00E9470028CE293E03BC01092CB0408
:101A10006091C3047091C40482E391E00E941912A2
:101A2000892B29F48DE00E944702892BA1F01092A6
:101A3000CB046091C3047091C4048CE291E00E94D5
:101A40001912892B59F48DE00E944702019731F455
:101A500086E593E016C080E493E013C01092CB04B7
:101A60006091C3047091C4048CE291E00E94191249
:101A7000892B81F48DE00E944702892B59F48FE66F
:101A800093E00E94050A60EA7FE080E090E00E9417
:101A90009F02EECE1092CB040091C3041091C404B7
:101AA000B80187E291E00E941912892B09F0BCCE9F
:101AB00083ED91E00E94050A6CEA7DE080E090E011
:101AC0000E949F0289EF91E00E94050A64EC79E090
:101AD00080E090E00E949F0283E092E00E94050A6D
:101AE00064EC79E080E090E00E949F028EE092E05A
:101AF0000E94050A64EC79E080E090E00E949F0279
:101B000086E192E00E94050A64EC79E080E090E0D2
:101B10000E949F028FE192E00E94050A64EC79E046
:101B200080E090E00E949F0286E292E00E94050A17
:101B300064EC79E080E090E00E949F028CE292E009
:101B40000E94050A68E57BE180E090E0A0CFB80143
:101B500084E191E00E941912892B29F4B0920101CD
:101B6000A0920001F0CEB8018CE091E00E94191221
:101B7000892B49F485ED92E00E94050A6CED75E031
:101B800080E090E084CF8AED92E00E94050A68E848
:101B900073E180E090E07BCFE091FD03EF3259F0FC
:101BA00021E02E0F2093FD03F0E0EE0FFF1FE15622
:101BB000FC4F9183808308950F931F93CF93DF93FE
:101BC000E4E0F4E01382128288EE93E0A0E0B0E05B
:101BD00084839583A683B78385E491E09183808392
:101BE00085EC90E09587848784EC90E097878687E2
:101BF00080EC90E0918B808B81EC90E0938B828BDA
:101C000082EC90E0958B848B86EC90E0978B868BB2
:101C1000118E128E138E148EE2EAF4E01186128673
:101C200013861486158616861786148A10861082E7
:101C300011821092A10417821282138214821582DB
:101C40001682E6E3F5E01182138212821582148275
:101C5000168291E09083EDE3F5E01082118212820A
:101C600014821382168215821086178211861486BA
:101C70001386C9EDD4E086E2888722E02E839F8315
:101C80000FE511E0198308838B831A82CE010E942D
:101C9000CC0D87E691E099838883E2E2F5E082EE5D
:101CA00094E0918380839093250580932405F0939D
:101CB0002705E09326051092290510922805C3ED0B
:101CC000D4E01983088383E28B831A82CE010E94B9
:101CD000CC0D8FE591E099838883CDEBD4E0198317
:101CE000088384E28B831A82CE010E94CC0D87E5A3
:101CF00091E0998388831F821E828FEF9FEF9987DF
:101D000088871A861E861B861C861D861F866BE8A2
:101D100073E08AE295E0DF91CF911F910F910C94CF
:101D20000F08CF93DF9380912A0590912B050E9495
:101D3000A41080914605882301F180914805909177
:101D40004905892BD1F0C0E0D0E02091460530E074
:101D50008091480590914905C217D30764F49E010C
:101D6000220F331FFC01E20FF31F808191810E943B
:101D7000A4102196EACF0E94A41080914005909172
:101D80004105009721F0DF91CF910C94A410DF91D1
:101D9000CF9108958F929F92AF92BF92CF92DF9290
:101DA000EF92FF92CF93DF93EC01688179818A8172
:101DB0009B81611571058105910521F464E279ED3E
:101DC0008BE597E02DE133EF41E050E00E946C0F8E
:101DD00049015A019B01AC01A7EAB1E40E948B0FB3
:101DE0006B017C01ACEEB4EFA50194010E94990F48
:101DF000DC01CB018C0D9D1DAE1DBF1DB7FF03C0C7
:101E00000197A109B04888839983AA83BB83BC0149
:101E1000CD019F77DF91CF91FF90EF90DF90CF9032
:101E2000BF90AF909F908F9008958F929F92AF92A6
:101E3000BF92CF92DF92EF92FF9260910201709178
:101E400003018091040190910501611571058105DF
:101E5000910521F464E279ED8BE597E02DE133EF14
:101E600041E050E00E946C0F49015A019B01AC0116
:101E7000A7EAB1E40E948B0F6B017C01ACEEB4EFDA
:101E8000A50194010E94990FDC01CB018C0D9D1DD1
:101E9000AE1DBF1DB7FF03C00197A109B0488093D5
:101EA000020190930301A0930401B0930501BC01CA
:101EB000CD019F77FF90EF90DF90CF90BF90AF90D4
:101EC0009F908F9008956093020170930301809317
:101ED0000401909305010895052E97FB1EF40094CC
:101EE0000E94830F57FD07D00E94D50F07FC03D037
:101EF0004EF40C94830F50954095309521953F4FAB
:101F00004F4F5F4F089590958095709561957F4FE5
:101F10008F4F9F4F08950E94F70FA59F900DB49F7C
:101F2000900DA49F800D911D11240895B7FF0C946E
:101F30008B0F0E948B0F821B930B08952F923F9261
:101F40004F925F926F927F928F929F92AF92BF92C9
:101F5000CF92DF92EF92FF920F931F93CF93DF9375
:101F6000CDB7DEB7CA1BDB0B0FB6F894DEBF0FBED2
:101F7000CDBF09942A88398848885F846E847D841F
:101F80008C849B84AA84B984C884DF80EE80FD8021
:101F90000C811B81AA81B981CE0FD11D0FB6F89497
:101FA000DEBF0FBECDBFED010895A1E21A2EAA1B20
:101FB000BB1BFD010DC0AA1FBB1FEE1FFF1FA217F9
:101FC000B307E407F50720F0A21BB30BE40BF50BF6
:101FD000661F771F881F991F1A9469F7609570957F
:101FE000809590959B01AC01BD01CF010895A29F02
:101FF000B001B39FC001A39F700D811D1124911DDD
:10200000B29F700D811D1124911D0895EE0FFF1FC9
:102010000590F491E02D09940F931F93CF93DF93D4
:102020008230910510F482E090E0E0915205F09149
:10203000530520E030E0A0E0B0E0309719F1408196
:1020400051810281138148175907C8F084179507F9
:1020500069F4109731F012960C93129713961C9313
:1020600027C0009352051093530522C02115310556
:1020700019F04217530718F49A01BD01EF01DF016F
:10208000F801DBCF21153105F9F0281B390B24307D
:10209000310580F48A819B816115710521F0FB0176
:1020A0009383828304C09093530580935205FE016D
:1020B000329644C0FE01E20FF31F819391932250A8
:1020C0003109398328833AC0209150053091510558
:1020D000232B41F4209108013091090130935105DF
:1020E00020935005209106013091070121153105FB
:1020F00041F42DB73EB740910A0150910B01241BCA
:10210000350BE0915005F0915105E217F307A0F46B
:102110002E1B3F0B2817390778F0AC014E5F5F4F3D
:102120002417350748F04E0F5F1F50935105409319
:1021300050058193919302C0E0E0F0E0CF01DF9180
:10214000CF911F910F910895CF93DF93009709F4DA
:1021500081C0FC01329713821282A0915205B09186
:102160005305109781F420813181820F931F2091B4
:102170005005309151052817390751F5F093510555
:10218000E093500567C0ED0120E030E0CE17DF0797
:1021900040F44A815B819E0141155105F1F0EA014D
:1021A000F5CFD383C28340815181840F951FC81717
:1021B000D90759F488819981840F951F02969183DC
:1021C00080838A819B81938382832115310529F441
:1021D000F0935305E09352053DC0E901FB83EA8388
:1021E00049915991C40FD51FEC17FD0761F4808107
:1021F0009181840F951F0296E901998388838281DA
:1022000093819B838A83E0E0F0E012968D919C910C
:102210001397009719F0FD01DC01F7CF8D919C9188
:1022200011979D012E5F3F4F820F931F2091500504
:10223000309151052817390769F4309729F4109225
:1022400053051092520502C013821282B0935105B9
:10225000A0935005DF91CF910895A0E0B0E0E3E3B3
:10226000F1E10C94A20FEC01009721F4CB010E9444
:102270000C10B4C0FC01E60FF71F9C01225031097D
:10228000E217F30708F4A8C0D9010D911C9111972A
:1022900006171707B0F00530110508F49BC0C801F8
:1022A00004978617970708F495C002501109061B7A
:1022B000170B019311936D937C93CF010E94A4108F
:1022C00089C05B01A01AB10A4C01800E911EA09139
:1022D0005205B0915305612C712CE12CF12C109713
:1022E00009F446C08D919C911197A815B905B1F5D7
:1022F0006C0142E0C40ED11CCA14DB0478F14C011D
:102300008A189B08640142E0C40ED11C1296BC904E
:1023100012971396AC91B5E0CB16D10440F0B2827F
:10232000A38391828082D9016D937C9309C00E5F53
:102330001F4F800F911FF90191838083EB2DFA2F9E
:10234000E114F10431F0D7011396FC93EE93129748
:1023500041C0F0935305E09352053CC068167906DE
:1023600008F43C017D0112960D90BC91A02DB7CFD1
:10237000809150059091510588169906E1F46616F2
:102380007706C8F48091060190910701009741F407
:102390008DB79EB740910A0150910B01841B950B9C
:1023A000E817F907C8F4F0935105E0935005F901D7
:1023B000718360830FC0CB010E940C107C010097D9
:1023C00059F0A801BE010E940512CE010E94A4107E
:1023D000C70104C0CE0102C080E090E0CDB7DEB7F7
:1023E000EEE00C94BE0F81E090E0F8940C9429127A
:1023F000FB01DC0104C08D910190801921F4415052
:102400005040C8F7881B990B0895FB01DC0102C0FE
:1024100001900D9241505040D8F70895FB01DC0126
:102420000D900020E9F7119701900D920020E1F73F
:102430000895FB01DC018D91019080190110D9F301
:10244000990B0895FB01DC0101900D920020E1F74A
:10245000089510E0C2E6D0E004C0FE010E9406101C
:0C2460002196C336D107C9F7F894FFCFCE
:10246C0001000100000000005405800061726475D9
:10247C00696E6F00706F776572206F666600706FA3
:10248C00776572206F6E0068656C70007374617490
:10249C0065006C6564206F6666006C6564206F6E09
:1024AC000000000000A00737076507ED078D0074DA
:1024BC0007880700000000F601550600000000F632
:1024CC0001610700000000F60115014172652079D9
:1024DC006F75206F6B3F005975702C2049276D204C
:1024EC006665656C696E672067726561742100664C
:1024FC00697665004F4B0073697800736576656E7D
:10250C00006569676874006E696E650074656E00BD
:10251C00656C6576656E003131003132007477651B
:10252C006C766500746869727465656E00657272AC
:10253C006F7200486572652069732061206C697345
:10254C0074206F6620617661696C61626C652063D2
:10255C006F6D6D616E64733A00506F776572204FCA
:10256C004E2C00506F776572204F46462C004C4520
:10257C0044204F4E2C004C4544204F46462C0053D3
:10258C00746174652C0048656C702E00546F207358
:10259C0065652061206C697374206F6620617661BB
:1025AC00696C61626C6520636F6D6D616E64732C18
:1025BC00207377697463682074686520315368658B
:1025CC00656C64206170706C69636174696F6E20F6
:1025DC0077696E646F7720746F205465787420541B
:1025EC006F20537065656368206166746572207234
:1025FC00756E6E696E67207468652068656C7020F6
:10260C00636F6D6D616E640054656C6C206D65203C
:10261C007468652070696E206E756D6265722062DB
:10262C0065747765656E203520616E6420313300EA
:10263C00446F6E6500554E4F21004920646F6E2724
:10264C007420756E6465727374616E642E2054729E
:10265C0079207468652068656C7020636F6D6D619E
:10266C006E642E00546865204C4544206973206EBE
:10267C006F77204F4E2E00546865204C45442069DE
:10268C0073207374696C6C204F4E2E005468652057
:10269C004C4544206973206E6F77204F46462E00C0
:1026AC00546865204C4544206973207374696C6CC4
:1026BC00204F46462E00546865204C4544206973D3
:1026CC002063757272656E746C79204F4E2E0054B7
:1026DC006865204C45442069732063757272656E81
:0C26EC00746C79204F46462E000D0A0049
:00000001FF
