:100000000C948F030C94B7030C94B7030C94B703B0
:100010000C94B7030C94B7030C94B7030C94B70378
:100020000C94B7030C94B7030C94B7030C94B70368
:100030000C94B7030C94B7030C94B7030C94B70358
:100040000C94B6110C94B7030C94B7030C94B7033B
:100050000C94B7030C94B7030C94B7030C94B70338
:100060000C94B7030C94B7032E89298F2B02E2005E
:10007000E401E510E601E710E870F200EA00EB2089
:10008000EC3CEDC8E938F1011B1A1A022461255C29
:10009000183619011F88FF051F80FF051F90FF05F7
:1000A0001FD4FF05170536092838FF28283C020011
:1000B0000300040005EF060007000801093F0100E6
:1000C000B903FF8357FFFAB30400000606B6012503
:1000D000B00168CC0105B10600151C1C83AAC0063E
:1000E0005050013C1E08B4070240002A2A0D783AFD
:1000F00001553601C0350100440200021100FF968F
:100100002900FF3200000100FF0032000100000161
:100110000200000703003010040000000800020283
:10012000090000000A0000000C0000000D000000A3
:100130000F00000010000000110007001200000076
:1001400013000000FF00C8001000901611002702E5
:10015000FF00320012001A00FF00320013000018E6
:1001600029002A00FF0032003000000031000000AA
:10017000320000003500060236000808370007008C
:1001800038000102390000003C0000003D00000082
:100190002000000021000000500000005100EF008E
:1001A0005200000053003F01600000A761000300FF
:1001B0006A0000009000100092000000930003000D
:1001C000950000119700000098000000070033011F
:1001D00000000000003E5B4F5B3E3E6B4F6B3E1CE1
:1001E0003E7C3E1C183C7E3C181C577D571C1C5EF8
:1001F0007F5E1C00183C1800FFE7C3E7FF001824CF
:100200001800FFE7DBE7FF30483A060E2629792978
:1002100026407F050507407F05253F5A3CE73C5AAD
:100220007F3E1C1C08081C1C3E7F14227F22145F8A
:100230005F005F5F06097F017F006689956A6060E5
:1002400060606094A2FFA29408047E040810207EDF
:10025000201008082A1C08081C2A08081E10101064
:10026000100C1E0C1E0C30383E3830060E3E0E06AA
:10027000000000000000005F0000000700070014FD
:100280007F147F14242A7F2A1223130864623649BC
:100290005620500008070300001C224100004122A4
:1002A0001C002A1C7F1C2A08083E080800807030A9
:1002B0000008080808080000606000201008040218
:1002C0003E5149453E00427F40007249494946211E
:1002D00041494D331814127F1027454545393C4A92
:1002E00049493141211109073649494936464949A9
:1002F000291E0000140000004034000000081422F1
:10030000411414141414004122140802015909065E
:100310003E415D594E7C1211127C7F494949363E5F
:10032000414141227F4141413E7F494949417F0945
:100330000909013E414151737F0808087F00417F50
:1003400041002040413F017F081422417F4040404E
:10035000407F021C027F7F0408107F3E4141413EE6
:100360007F090909063E4151215E7F091929462668
:100370004949493203017F01033F4040403F1F206C
:1003800040201F3F4038403F631408146303047843
:1003900004036159494D43007F4141410204081063
:1003A00020004141417F040201020440404040409E
:1003B000000307080020545478407F28444438380C
:1003C00044444428384444287F385454541800087E
:1003D0007E090218A4A49C787F0804047800447D58
:1003E00040002040403D007F1028440000417F40F5
:1003F000007C047804787C08040478384444443849
:10040000FC1824241818242418FC7C080404084828
:100410005454542404043F44243C4040207C1C2079
:1004200040201C3C4030403C44281028444C9090D4
:10043000907C4464544C440008364100000077002E
:1004400000004136080002010204023C2623263C3B
:100450001EA1A161123A4040207A385454555921C6
:1004600055557941225454784221555478402054AE
:100470005579400C1E5272123955555559395454FC
:10048000545939555454580000457C410002457D6B
:10049000420001457C407D1211127DF0282528F094
:1004A0007C545545002054547C547C0A097F4932C1
:1004B000494949323A4444443A324A4848303A4138
:1004C00041217A3A42402078009DA0A07D3D4242E1
:1004D000423D3D4040403D3C24FF2424487E49436A
:1004E000662B2FFC2F2BFF0929F620C0887E0903DD
:1004F00020545479410000447D413048484A323804
:100500004040227A007A0A0A727D0D19317D26292F
:10051000292F28262929292630484D402038080827
:10052000080808080808382F10C8ACBA2F1028345B
:10053000FA00007B000008142A142222142A14084E
:10054000AA005500AAAA55AA55AA000000FF00104B
:100550001010FF00141414FF001010FF00FF101003
:10056000F010F0141414FC001414F700FF0000FF46
:1005700000FF1414F404FC141417101F10101F10A3
:100580001F1414141F00101010F0000000001F10A2
:100590001010101F10101010F010000000FF1010AD
:1005A00010101010101010FF10000000FF140000B9
:1005B000FF00FF00001F10170000FC04F4141417C4
:1005C00010171414F404F40000FF00F714141414AA
:1005D000141414F700F7141414171410101F101F1C
:1005E000141414F4141010F010F000001F101F0069
:1005F00000001F14000000FC140000F010F01010A8
:10060000FF10FF141414FF141010101F000000003E
:10061000F010FFFFFFFFFFF0F0F0F0F0FFFFFF0032
:1006200000000000FFFF0F0F0F0F0F384444384445
:10063000FC4A4A4A347E02020606027E027E0263B9
:10064000554941633844443C04407E201E20060244
:100650007E020299A5E7A5991C2A492A1C4C720121
:10066000724C304A4D4D303048784830BC625A4662
:100670003D3E494949007E0101017E2A2A2A2A2A53
:1006800044445F444440514A444040444A5140003D
:1006900000FF0103E080FF000008086B6B083612C2
:1006A000362436060F090F06000018180000001047
:1006B00010003040FF0101001F01011E00191D172D
:1006C00012003C3C3C3C0000000000000000080020
:1006D0000201000003040700000000000000000009
:1006E000000000250028002B000000000024002747
:1006F000002A0004040404040404040202020202A6
:1007000002030303030303010204081020408001D5
:10071000020408102001020408102000BE1F11244A
:100720001FBECFEFD8E0DEBFCDBF11E0A0E0B1E04B
:10073000E6E7F1E402C005900D92A634B107D9F7BF
:1007400021E0A6E4B1E001C01D92A038B207E1F7B4
:1007500013E0CFE8D3E004C02197FE010E94AE2051
:10076000CE38D107C9F70E9426180C94B9200C94F2
:100770000000089580E090E00895FC01A08DB18D07
:100780009C9184A189238C9380859185A28DB38DC2
:100790003C9125A123232C932BB1237024602BB9EA
:1007A00025B12C7F25B9A48DB58D3C9126A123239D
:1007B0002C93A48DB58D3C9122A1232B2C93A28D3B
:1007C000B38D3C9121A1232B2C932BB1AC01415033
:1007D0005109922F9370252F2C7F922B9BB995B1A5
:1007E0009C7F252F2370922B95B9A48DB58D2C91CC
:1007F00096A192239C93A48DB58D2C9192A1922BBE
:100800009C93A28DB38D2C9195A192239C939BB127
:10081000937094609BB995B19C7F916095B9A48DBC
:10082000B58D2C9196A192239C93A48DB58D2C917E
:1008300092A1922B9C93A28DB38D2C9191A1922B7E
:100840009C939BB181509370282F2C7F922B9BB946
:1008500095B19C7F8370892B85B9A48DB58D9C91B2
:1008600086A189238C93A48DB58D9C9182A1892B1F
:100870008C9382859385A28DB38D3C9125A12323F2
:100880002C932BB1237028602BB925B12C7F25B96F
:10089000A48DB58D3C9126A123232C93A48DB58DD9
:1008A0003C9122A1232B2C93A28DB38D3C9121A1AD
:1008B000232B2C932BB1AC0141505109922F9370F3
:1008C000252F2C7F922B9BB995B19C7F252F2370D0
:1008D000922B95B9A48DB58D2C9196A192239C93C2
:1008E000A48DB58D2C9192A1922B9C93A28DB38D4A
:1008F0002C9195A192239C939BB1937098609BB986
:1009000095B19C7F916095B9A48DB58D2C9196A1E0
:1009100092239C93A48DB58D2C9192A1922B9C93A4
:10092000A28DB38D2C9191A1922B9C939BB1815060
:100930009370282F2C7F922B9BB995B19C7F83704D
:10094000892B85B9A48DB58D9C9186A189238C9323
:10095000A48DB58D9C9182A1892B8C93A08DB18D96
:100960009C9180A1892B8C930895CF92DF92EF9276
:10097000FF920F931F93CF93DF93EC01CB017A018A
:10098000E88DF98D50814CA1452340834F89411159
:1009900079C24D89423099F0433039F14130B1F597
:1009A000AFEEB0E06D01C01AD10AAE19BF09562FE3
:1009B000792FFD0189019D017C01C6012AC04FEEFE
:1009C00050E0DA01A21BB30B9A01261B370B8FE311
:1009D00091E06C01C01AD10A8C010E191F09502F29
:1009E000712FF9017601CD0114C04FE351E0DA0116
:1009F000A21BB30B9A01261B370BC901522F792F6B
:100A0000F70198018C01C7017D0103C05E2D7F2D88
:100A1000FC01AA8DBB8D6C914DA146234C934BB12B
:100A200043704BB945B14C7F45B9AC8DBD8D6C91D0
:100A30004EA146234C93AC8DBD8D6C914AA1462BA3
:100A40004C934BB1437040654BB945B14C7F45B9B0
:100A5000AC8DBD8D6C914EA146234C93AC8DBD8D5C
:100A60006C914AA1462B4C93AA8DBB8D6C9149A1E8
:100A7000462B4C934BB14370692F6C7F462B4BB97F
:100A800065B16C7F492F4370962F942B95B9AC8D2F
:100A9000BD8D4C919EA194239C93AC8DBD8D4C91AA
:100AA0009AA1942B9C939BB19370482F4C7F942BCD
:100AB0009BB965B16C7F8370862B85B9AC8DBD8D7C
:100AC0009C918EA189238C93AC8DBD8D9C918AA124
:100AD000892B8C93AA8DBB8D9C918DA189238C939E
:100AE0008BB183708BB985B18C7F85B9AC8DBD8D91
:100AF0009C918EA189238C93AC8DBD8D9C918AA1F4
:100B0000892B8C938BB1837080658BB985B18C7F79
:100B1000816085B9AC8DBD8D9C918EA189238C930C
:100B2000AC8DBD8D9C918AA1892B8C93AA8DBB8D98
:100B30009C9189A1892B8C938BB18370932F9C7F7F
:100B4000892B8BB985B18C7F932F9370892B85B9B5
:100B5000AC8DBD8D9C918EA189238C93AC8DBD8D68
:100B60009C918AA1892B8C938BB18370922F9C7F4F
:100B7000892B8BB985B18C7F2370282B25B9AC8D3F
:100B8000BD8D9C918EA189238C93AC8DBD8D9C9144
:100B90008AA1892B8C93AA8DBB8D9C918DA18923D1
:100BA0008C938BB183708BB985B18C7F85B9AC8DFB
:100BB000BD8D9C918EA189238C93AC8DBD8D9C9114
:100BC0008AA1892B8C938BB1837080658BB985B199
:100BD0008C7F826085B9AC8DBD8D9C918EA189235F
:100BE0008C93AC8DBD8D9C918AA1892B8C93AA8D01
:100BF000BB8D9C9189A1892B8C938BB183709F2D88
:100C00009C7F892B8BB985B18C7F9F2D9370892B0D
:100C100085B9AC8DBD8D9C918EA189238C93AC8DB3
:100C2000BD8D9C918AA1892B8C938BB183709E2D55
:100C30009C7F892B8BB925B1422F4C7F2E2D2370A1
:100C4000242B25B9AC8DBD8D9C918EA189238C93CD
:100C5000AC8DBD8D9C918AA1892B8C93AA8DBB8D67
:100C60009C918DA189238C938BB183708BB985B1B5
:100C70008C7F85B9AC8DBD8D9C918EA189238C9381
:100C8000AC8DBD8D9C918AA1892B8C938BB1837087
:100C900080658BB985B1836085B9AC8DBD8D9C9124
:100CA0008EA189238C93AC8DBD8D9C918AA1892BBB
:100CB0008C93AA8DBB8D9C9189A1892B8C938BB130
:100CC0008370912F9C7F892B8BB985B18C7F912F5D
:100CD0009370892B85B9AC8DBD8D9C918EA1892394
:100CE0008C93AC8DBD8D9C918AA1892B8C938BB1FB
:100CF0008370902F9C7F892B8BB925B12C7F03703B
:100D0000022B05B9AC8DBD8D9C918EA189238C934E
:100D1000AC8DBD8D9C918AA1892B8C93AA8DBB8DA6
:100D20009C918DA189238C938BB183708BB985B1F4
:100D30008C7F85B9AC8DBD8D9C918EA189238C93C0
:100D4000AC8DBD8D9C918AA1892B8C938BB18370C6
:100D500080628BB985B18C7F85B9AC8DBD8D9C913E
:100D60008EA189238C93AC8DBD8D9C918AA1892BFA
:100D70008C93AA8DBB8D9C9189A1892B8C938BB16F
:100D800083709F2F9C7F892B8BB985B18C7FF370EB
:100D9000F82BF5B9AC8DBD8D9C918EA189238C93D8
:100DA000AC8DBD8D9C918AA1892B8C938BB1837066
:100DB0009E2F9C7F892B8BB985B18C7FE370E82BAC
:100DC000E5B9EC8DFD8D90818EA189238083EC8D1A
:100DD000FD8D90818AA1892B8083EA8DFB8D908186
:100DE0008DA1892380838BB183708BB985B18C7F72
:100DF00085B9EC8DFD8D90818EA189238083EC8D4A
:100E0000FD8D90818AA1892B80838BB18370806254
:100E10008BB985B18C7F816085B9EC8DFD8D90811A
:100E20008EA189238083EC8DFD8D90818AA1892BF1
:100E30008083EA8DFB8D908189A1892B80838BB182
:100E40008370972F9C7F892B8BB985B18C7F7370B2
:100E5000782B75B9EC8DFD8D90818EA189238083CF
:100E6000EC8DFD8D90818AA1892B80838BB183705D
:100E7000952F9C7F892B8BB985B18C7F5370582B14
:100E800055B9B0C1413009F0BAC1EA8DFB8D50812E
:100E90004DA1452340834BB143704BB945B14C7FC5
:100EA000426045B9EC8DFD8D50814EA145234083B4
:100EB000EC8DFD8D50814AA1452B4083EA8DFB8D41
:100EC000508149A1452B40834BB14370592F5C7F22
:100ED000452B4BB955B15C7F492F4370952F942B0F
:100EE00095B9EC8DFD8D40819EA194239083EC8D6E
:100EF000FD8D40819AA1942B9083EA8DFB8D4081DA
:100F00009DA1942390839BB193709BB995B19360FD
:100F100095B9EC8DFD8D40819EA194239083EC8D3D
:100F2000FD8D40819AA1942B9083EA8DFB8D4081A9
:100F300099A1942B90839BB19370482F4C7F942B55
:100F40009BB965B16C7F8370862B85B9EC8DFD8D67
:100F500090818EA189238083EC8DFD8D90818AA163
:100F6000892B8083EA8DFB8D90818DA189238083DD
:100F70008BB1837084608BB985B18C7F826085B9B9
:100F8000EC8DFD8D90818EA189238083EC8DFD8D6C
:100F900090818AA1892B8083EA8DFB8D908189A124
:100FA000892B80838BB183709F2D9C7F892B8BB97C
:100FB00085B18C7F9F2D9370892B85B9EC8DFD8D2C
:100FC00090818EA189238083EC8DFD8D90818AA1F3
:100FD000892B8083EA8DFB8D90818DA1892380836D
:100FE0008BB1837084608BB985B1836085B9EC8DDA
:100FF000FD8D90818EA189238083EC8DFD8D908164
:101000008AA1892B8083EA8DFB8D908189A1892B10
:1010100080838BB183709E2D9C7F892B8BB985B18A
:101020008C7F4E2D4370E82EE42AE5B8EC8DFD8DC3
:1010300090818EA189238083EC8DFD8D90818AA182
:10104000892B8083EA8DFB8D90818DA189238083FC
:101050008BB1837084608BB985B18C7F85B9EC8D41
:10106000FD8D90818EA189238083EC8DFD8D9081F3
:101070008AA1892B8083EA8DFB8D908189A1892BA0
:1010800080838BB18370932F9C7F892B8BB985B123
:101090008C7F932F9370892B85B9EC8DFD8D90817A
:1010A0008EA189238083EC8DFD8D90818AA1892B6F
:1010B0008083EA8DFB8D90818DA1892380838BB104
:1010C000837084608BB985B18C7F816085B9EC8D2C
:1010D000FD8D90818EA189238083EC8DFD8D908183
:1010E0008AA1892B8083EA8DFB8D908189A1892B30
:1010F00080838BB18370922F9C7F892B8BB985B1B4
:101100008C7F2370282B25B9EC8DFD8D90818EA1CD
:1011100089238083EC8DFD8D90818AA1892B80832A
:10112000EA8DFB8D90818DA1892380838BB18370A3
:1011300088608BB985B18C7F85B9EC8DFD8D9081F0
:101140008EA189238083EC8DFD8D90818AA1892BCE
:101150008083EA8DFB8D908189A1892B80838BB15F
:101160008370912F9C7F892B8BB985B18C7F912FB8
:101170009370892B85B9EC8DFD8D90818EA189238B
:101180008083EC8DFD8D90818AA1892B8083EA8DEF
:10119000FB8D90818DA1892380838BB183708860C2
:1011A0008BB985B18C7F816085B9EC8DFD8D908187
:1011B0008EA189238083EC8DFD8D90818AA1892B5E
:1011C0008083EA8DFB8D908189A1892B80838BB1EF
:1011D0008370902F9C7F892B8BB925B12C7F037056
:1011E000022B05B9EC8DFD8D90818EA18923808322
:1011F000EC8DFD8D90818AA1892B80832FC0425078
:10120000423060F5092E000CAA0BBB0BDC019927BC
:101210008827A901330F660B770B9A01AB01282BA6
:10122000392B4A2B5B2B6AE2CE010E940012C701C8
:10123000FF0CAA0BBB0BBC0155274427012E000C49
:10124000220B330BD901C801842B952BA62BB72B6E
:101250009C01AD016BE2CE010E940012E88DF98D78
:10126000908188A1892B8083DF91CF911F910F916D
:10127000FF90EF90DF90CF900895EF92FF920F9341
:101280001F93CF93DF93EC01F22EE32E77FDA6C2DE
:1012900057FDA4C288859985681779070CF09EC20E
:1012A0008A859B85481759070CF098C2E88DF98DFF
:1012B00090818CA1892380838F898111FAC08D89C7
:1012C000823059F08330B1F08130D1F48FEE90E06C
:1012D000841B950BAB01BC0113C08FEE90E09C0109
:1012E000261B370BB9018FE391E09C01241B350BC2
:1012F000A90106C08FE391E0861B970BBA01AC01F0
:10130000EA8DFB8D90818DA1892380838BB18370C1
:101310008BB985B18C7F85B9EC8DFD8D90818EA1C7
:1013200089238083EC8DFD8D90818AA1892B808318
:101330008BB1837080628BB985B18C7F85B9EC8D60
:10134000FD8D90818EA189238083EC8DFD8D908110
:101350008AA1892B8083EA8DFB8D908189A1892BBD
:1013600080838BB18370972F9C7F892B8BB985B13C
:101370008C7F972F9370892B85B9EC8DFD8D908193
:101380008EA189238083EC8DFD8D90818AA1892B8C
:1013900080838BB18370962F9C7F892B8BB985B10D
:1013A0008C7F6370682B65B9EC8DFD8D90818EA16B
:1013B00089238083EC8DFD8D90818AA1892B808388
:1013C000EA8DFB8D90818DA1892380838BB1837001
:1013D0008BB985B18C7F85B9EC8DFD8D90818EA107
:1013E00089238083EC8DFD8D90818AA1892B808358
:1013F0008BB1837080628BB985B18C7F816085B938
:10140000EC8DFD8D90818EA189238083EC8DFD8DE7
:1014100090818AA1892B8083EA8DFB8D908189A19F
:10142000892B80838BB18370952F9C7F892B8BB9FF
:1014300085B18C7F952F9370892B85B9EC8DFD8DAF
:1014400090818EA189238083EC8DFD8D90818AA16E
:10145000892B80838BB18370942F9C7F892B8BB9D0
:1014600085B18C7F4370482B45B9EC8DFD8D908103
:101470008EA189238083EC8DFD8D90818AA1892B9B
:101480008083EA8DFB8D90818DA1892380838BB130
:1014900083708BB985B18C7F85B9EC8DFD8D908182
:1014A0008EA189238083EC8DFD8D90818AA1892B6B
:1014B00020C1813009F026C1ED89E150E33028F4E4
:1014C000F0E0EB5DFE4F808101C080E0EA8DFB8D96
:1014D00020819DA1922390839BB1937094619BB9CD
:1014E00095B19C7F926095B9EC8DFD8D20819EA178
:1014F00092239083EC8DFD8D20819AA1922B908375
:10150000EA8DFB8D208199A1922B90839BB19370E2
:101510008C7F892B8BB985B18C7F85B9EC8DFD8D46
:1015200090818EA189238083EC8DFD8D90818AA18D
:10153000892B8083EA8DFB8D90818DA18923808307
:101540008BB183708BB985B18C7F826085B9EC8D4E
:10155000FD8D90818EA189238083EC8DFD8D9081FE
:101560008AA1892B8083EA8DFB8D908189A1892BAB
:1015700080838BB18370972F9C7F892B8BB985B12A
:101580008C7F972F9370892B85B9EC8DFD8D908181
:101590008EA189238083EC8DFD8D90818AA1892B7A
:1015A0008083EA8DFB8D90818DA1892380838BB10F
:1015B00083708BB985B1836085B9EC8DFD8D908189
:1015C0008EA189238083EC8DFD8D90818AA1892B4A
:1015D0008083EA8DFB8D908189A1892B80838BB1DB
:1015E0008370962F9C7F892B8BB985B18C7F63701C
:1015F000682B65B9EC8DFD8D90818EA18923808348
:10160000EC8DFD8D90818AA1892B8083EA8DFB8DE5
:1016100090818DA1892380838BB1837084608BB985
:1016200085B18C7F826085B9EC8DFD8D90818EA116
:1016300089238083EC8DFD8D90818AA1892B808305
:10164000EA8DFB8D908189A1892B80838BB183707A
:10165000952F9C7F892B8BB985B18C7F952F9370AB
:10166000892B85B9EC8DFD8D90818EA18923808396
:10167000EC8DFD8D90818AA1892B8083EA8DFB8D75
:1016800090818DA1892380838BB1837084608BB915
:1016900085B1836085B9EC8DFD8D90818EA1892304
:1016A0008083EC8DFD8D90818AA1892B8083EA8DCA
:1016B000FB8D908189A1892B80838BB18370942FBE
:1016C0009C7F892B8BB985B18C7F4370482B45B9A2
:1016D000EC8DFD8D90818EA189238083EC8DFD8D15
:1016E00090818AA1892B8083EA8DFB8D90818DA1C9
:1016F000892380838BB1837080628BB985B18C7FA5
:10170000826021C08250823008F062C00A851B8549
:10171000015011092885398521503109CE010E94D7
:10172000B504E88DF98D90818CA189238083EA8DA1
:10173000FB8D90818DA1892380838BB183708C6216
:101740008BB985B18C7F85B9EC8DFD8D90818EA193
:1017500089238083EC8DFD8D90818AA1892B8083E4
:10176000EA8DFB8D908189A1892B80838BB1837059
:101770009E2D9C7F892B8BB995B19C7F8E2D83707C
:10178000E92EE82AE5B8EC8DFD8D90818EA18923A4
:101790008083EC8DFD8D90818AA1892B80838BB114
:1017A00083709F2D9C7F892B8BB995B19C7F8F2D4A
:1017B0008370F92EF82AF5B8EC8DFD8D90818EA1FD
:1017C00089238083EC8DFD8D90818AA1892B808374
:1017D000E88DF98D908188A1892B8083DF91CF914D
:1017E0001F910F91FF90EF900895EF92FF920F934A
:1017F0001F93CF93DF93EC017B018F898111D4C0BC
:10180000ED89E150E33060F4F0E0DF01AE5DBE4F02
:101810008C91EE0FFF1FE45EFE4F4081518104C0AA
:1018200040E050E080E090E0E88DF98D20819CA1BF
:1018300092239083EA8DFB8D20819DA1922390833A
:101840009BB193709BB995B19C7F95B9EC8DFD8D43
:1018500020819EA192239083EC8DFD8D20819AA101
:10186000922B90839BB1937090629BB995B19C7FB2
:1018700095B9EC8DFD8D20819EA192239083EC8DF6
:10188000FD8D20819AA1922B9083EA8DFB8D208182
:1018900099A1922B90839BB193709BB995B19C7F3A
:1018A00095B9EC8DFD8D20819EA192239083EC8DC6
:1018B000FD8D20819AA1922B90839BB19370282F4C
:1018C0002C7F922B9BB925B12C7F382F3370232B83
:1018D00025B9EC8DFD8D90818EA189238083EC8DBF
:1018E000FD8D90818AA1892B8083EA8DFB8D90816B
:1018F0008DA1892380838BB183708BB985B18C7F57
:1019000085B9EC8DFD8D90818EA189238083EC8D2E
:10191000FD8D90818AA1892B80839BB19370906209
:101920009BB995B19C7F916095B9EC8DFD8D9081AF
:101930008EA189238083EC8DFD8D90818AA1892BD6
:101940008083EA8DFB8D908189A1892B80838BB167
:1019500083708BB985B153708C7F852B85B9EC8DE5
:10196000FD8D90818EA189238083EC8DFD8D9081EA
:101970008AA1892B80838BB18370942F9C7F892BC4
:101980008BB985B18C7F942F9370892B85B9EC8DA1
:10199000FD8D90818EA189238083EC8DFD8D9081BA
:1019A0008AA1892B808312C08150833078F40A8504
:1019B0001B8501501109288539852150310940E0E6
:1019C00050E060E070E0CE010E94B50420E03CE20F
:1019D00041E050E0B701CE01DF91CF911F910F910F
:1019E000FF90EF900C9413168F929F92AF92BF923C
:1019F000CF92DF92EF92FF920F931F93CF93DF93DB
:101A0000EC014701121613060CF06BC010161106FC
:101A10000CF067C0A885B9856A177B070CF061C018
:101A2000CA84DB844C155D050CF05BC07901E60EC1
:101A3000F71EC701019797FD54C05801A40EB51EAB
:101A4000F5013197F7FD4DC077FF49C060E070E0C8
:101A500057FD02C0580102C040E050E08A179B07C2
:101A60002CF0CD0101977D01E61AF70AEC15FD0572
:101A70002CF0F60131975601A41AB50A8F019C018A
:101A8000CE010E94B5049701D5010E9490209B01D0
:101A9000AC01B401CE010E9413168F89811110C0D0
:101AA0000A851B8501501109288539852150310986
:101AB00040E050E060E070E0CE010E94B50411C04B
:101AC000CE01DF91CF911F910F91FF90EF90DF90AA
:101AD000CF90BF90AF909F908F900C94BD037901F1
:101AE000B7CFDF91CF911F910F91FF90EF90DF90D3
:101AF000CF90BF90AF909F908F900895CF92DF923C
:101B0000EF92FF920F931F93CF93DF93EC01680145
:101B1000121613060CF04FC077FD4DC088859985CD
:101B2000681779070CF047C08A859B8548175907C5
:101B30000CF041C07901E40EF51E87010150110936
:101B400017FD39C057FF35C040E050E008171907AE
:101B500034F08C01015011097C01E41AF50A9B0153
:101B6000CE010E94B5049701FF0C440B550BB60142
:101B7000CE010E9413168F89811110C00A851B8522
:101B800001501109288539852150310940E050E084
:101B900060E070E0CE010E94B5040DC0CE01DF917F
:101BA000CF911F910F91FF90EF90DF90CF900C9409
:101BB000BD037901CBCFDF91CF911F910F91FF90A2
:101BC000EF90DF90CF900895CF92DF92EF92FF9247
:101BD0000F931F93CF93DF93EC0168011216130646
:101BE0000CF04EC057FD4CC08A859B85481759079D
:101BF0000CF046C0E885F9856E177F070CF040C0F1
:101C00007901E60EF71EC701019797FD39C077FFEE
:101C100035C060E070E08E179F072CF0CF01019770
:101C20007F01E61AF70A8A019C01CE010E94B504E1
:101C30009701FF0C440B550BB601CE010E94131601
:101C40008F89811110C00A851B85015011092885D3
:101C500039852150310940E050E060E070E0CE016C
:101C60000E94B5040DC0CE01DF91CF911F910F915D
:101C7000FF90EF90DF90CF900C94BD037901CBCF14
:101C8000DF91CF911F910F91FF90EF90DF90CF9058
:101C900008953FB7F8948091530190915401A09119
:101CA0005501B091560126B5A89B05C02F3F19F0EC
:101CB0000196A11DB11D3FBFBA2FA92F982F8827CC
:101CC000820F911DA11DB11DBC01CD0142E0660F27
:101CD000771F881F991F4A95D1F7089508952F926D
:101CE0003F924F925F926F927F928F929F92AF92AC
:101CF000BF92CF92DF92EF92FF920F931F93CF93F9
:101D0000DF93CDB7DEB72D970FB6F894DEBF0FBEC9
:101D1000CDBF9D838C836A30A1F4DC0154962C9155
:101D200054971E968D919C911F97B8E02B9F800D24
:101D3000911D1124EC81FD81978786871586148675
:101D4000F1C06D3009F4EEC02C813D813D872C87B8
:101D5000D9011C96CD90DC901D9718968D919C9181
:101D60001997C816D906BCF0EC85FD854489242F47
:101D700030E084859585F6E04F9F800D911D1124FC
:101D8000AC85BD851D969C938E931C9756964C9161
:101D90004111A4C0C7C0EC85FD85868497848285E7
:101DA00093858816990604F7F489F983AF2EB12C30
:101DB000C60126E0F29F800D911D11241816190608
:101DC0009CF6C50123E0880F991F2A95E1F7880D3D
:101DD000991D1816190644F6AC85BD8552960D90CE
:101DE000BC91A02DBD83AC83EC85FD850088F18975
:101DF000E02DFF83EE83F5E06F9FB0011124160103
:101E00001A829B012C193D0939872887C40108963D
:101E10009B878A879A81953049F0E885F985E20D9C
:101E2000F31DE053FE4FA491AB8301C01B8224013C
:101E30003401BB81B0FF13C0AC85BD85ED91FC9131
:101E4000B981B13031F40084F185E02D2E813F81DC
:101E500019C00288F389E02DEE80FF801EC0EC815E
:101E6000FD812E813F81E217F307F1F0AC85BD853E
:101E7000ED91FC91B981B13059F40084F185E02DE8
:101E80002C813D81A301B1018C859D8509950CC0F4
:101E90000288F389E02DEC80FD8085019501A20187
:101EA000B6018C859D850995EB81E695EB83FFEF67
:101EB0006F1A7F0A4A0C5B1C2A853B85261537055D
:101EC00009F0B7CF3A813F5F3A835FEF251A350AB1
:101ED000CA0CDB1C363009F09DCF46CF4AEF4203D7
:101EE000B001439F700D1124AC85BD8518964D91AE
:101EF0005C911997460F571F481759079CF483E0C8
:101F0000220F331F8A95E1F71E968D919C911F97A2
:101F1000280F391F1F963C932E931E971D961C92D7
:101F20001E921C9781E090E02D960FB6F894DEBFCC
:101F30000FBECDBFDF91CF911F910F91FF90EF901A
:101F4000DF90CF90BF90AF909F908F907F906F90D9
:101F50005F904F903F902F900895EF92FF920F93D4
:101F60001F93DC011A960D911C911B9718962D91C9
:101F70003C911997ED91FC910288F389E02D7B014A
:101F800040E050E060E070E009951F910F91FF90F4
:101F9000EF9008956F927F928F929F92AF92BF922F
:101FA000CF92DF92EF92FF920F931F93CF93DF9325
:101FB0006C015A014801EB013B01620E731EC6150C
:101FC000D70574F4D601ED91FC910484F585E02DDC
:101FD00087019401A501BE01C60109952196EFCFA5
:101FE000DF91CF911F910F91FF90EF90DF90CF90F5
:101FF000BF90AF909F908F907F906F900895EF92D9
:10200000FF920F931F93260F371F21503109DC01D8
:10201000ED91FC910284F385E02D78018A01099508
:102020001F910F91FF90EF900895EF92FF920F9301
:102030001F93240F351F21503109DC01ED91FC91D4
:102040000284F385E02D780189019B0109951F9198
:102050000F91FF90EF9008956F927F928F929F92D1
:10206000AF92BF92CF92DF92EF92FF920F931F93A6
:10207000CF93DF93EC014B015A0169013801E881EC
:10208000F9810684F785E02D87010995A501460DA4
:10209000571D41505109E881F9810684F785E02DEB
:1020A0009601B401CE010995E881F9810484F58592
:1020B000E02D9301A501B401CE010995C80CD91CEE
:1020C000B60161507109E881F9810484F585E02D3C
:1020D0009301A501CE010995DF91CF911F910F9139
:1020E000FF90EF90DF90CF90BF90AF909F908F9038
:1020F0007F906F9008952F923F924F925F926F92D0
:102100007F928F929F92AF92BF92CF92DF92EF9287
:10211000FF920F931F93CF93DF9300D000D000D096
:10212000CDB7DEB72C017E836D836A015901C801EA
:10213000FC82EB824801841A950A97FE03C09194B1
:102140008194910835012D813E81621A730A77FED0
:1021500003C0719461947108681479045CF43A2D99
:102160002B2D5C01832F922F3D812E81DE82CD822B
:10217000C32ED22EAD81BE81AA16BB065CF43C2DC7
:102180002D2D6C01832F922F3D812E81BE82AD8239
:10219000A32EB22E85012D813E81021B130B1C0143
:1021A0002C183D0837FE03C0319421943108780182
:1021B00017FF03C03FEFE31AF30AF594E794C8163C
:1021C000D9062CF08FEF9FEF9A83898304C0A1E09A
:1021D000B0E0BA83A9832D813E81A216B30624F113
:1021E000D201ED91FC910084F185E02D2B813C81A1
:1021F0006814790424F44D815E81B60103C0A60100
:102200006D817E81C2010995E218F308F7FE06C0D0
:1022100029813A81C20ED31EE00EF11E8D819E816E
:1022200001969E838D83D7CF26960FB6F894DEBF96
:102230000FBECDBFDF91CF911F910F91FF90EF9017
:10224000DF90CF90BF90AF909F908F907F906F90D6
:102250005F904F903F902F9008950E94B42090E09F
:10226000FC01E553F94F2491FC01E95FF84F3491EB
:10227000FC01ED50F94FE491EE2309F43CC0222318
:1022800039F1233091F038F42130A9F0223001F5F2
:1022900084B58F7D12C0273091F02830A1F0243012
:1022A000B9F4809180008F7D03C0809180008F778A
:1022B000809380000DC084B58F7784BD09C0809164
:1022C000B0008F7703C08091B0008F7D8093B00005
:1022D000F0E0EE0FFF1FE152F94FA591B4919FB7C7
:1022E000F894611104C08C913095382302C0EC91B0
:1022F0003E2B3C939FBF08958F929F92AF92BF92C7
:10230000CF92DF92EF92FF926B017C010E94490E07
:102310004B015C01C114D104E104F104F1F00E940D
:10232000490EDC01CB0188199909AA09BB09883E2D
:102330009340A105B10570F321E0C21AD108E1086C
:10234000F10888EE880E83E0981EA11CB11CC11410
:10235000D104E104F10419F7DDCFFF90EF90DF9095
:10236000CF90BF90AF909F908F9008951F920F9243
:102370000FB60F9211242F933F938F939F93AF9398
:10238000BF9380914F0190915001A0915101B09164
:10239000520130914E0123E0230F2D3720F4019696
:1023A000A11DB11D05C026E8230F0296A11DB11D78
:1023B00020934E0180934F0190935001A0935101BF
:1023C000B09352018091530190915401A091550115
:1023D000B09156010196A11DB11D809353019093B8
:1023E0005401A0935501B0935601BF91AF919F91B5
:1023F0008F913F912F910F900FBE0F901F901895C6
:10240000CF92DF92EF92FF92FC01A08DB18D9C9153
:1024100084A189238C93A28DB38D9C9185A189235E
:102420008C938BB18370962F9C7F892B8BB985B150
:102430008C7F6370682B65B9A48DB58D9C9186A146
:1024400089238C93A48DB58D9C9182A1892B8C932B
:10245000A28DB38D9C9181A1892B8C9383E290E016
:10246000DC011197F1F76BB1C52EDD24EE24FF24BA
:1024700063707C2D7C7F672B6BB965B16C7F7C2D85
:102480007370C62EC72AC5B8A48DB58D7C9166A180
:1024900067236C93A48DB58D7C9162A1672B6C939F
:1024A000DC011197F1F76BB16A01EE24FF24637030
:1024B0007C2D7C7F672B6BB965B16C7F7C2D737035
:1024C000C62EC72AC5B8A48DB58D7C9166A1672399
:1024D0006C93A48DB58D7C9162A1672B6C93DC010C
:1024E0001197F1F76BB1C32ED42EE52EFF24637044
:1024F0007C2D7C7F672B6BB965B16C7F7C2D7370F5
:10250000C62EC72AC5B8A48DB58D7C9166A1672358
:102510006C93A48DB58D7C9162A1672B6C93019710
:10252000F1F78BB18370922F9C7F892B8BB985B18A
:102530008C7F2370282B25B9A48DB58D9C9186A105
:1025400089238C93A48DB58D9C9182A1892B8C932A
:10255000A08DB18D9C9180A1892B8C93FF90EF90E1
:10256000DF90CF900895CF92DF92EF92FF920F937A
:102570001F93CF93DF936C017A018B01C0E0D0E011
:10258000CE15DF0581F0D8016D918D01D601ED9159
:10259000FC910190F081E02DC6010995892B11F085
:1025A0002196EECF7E01C701DF91CF911F910F9150
:1025B000FF90EF90DF90CF9008950F931F93CF93EC
:1025C000DF93837080936C0120915B0130915C01FB
:1025D00040915D0150915E01813059F0833049F0A6
:1025E0003093600120935F01509362014093610139
:1025F00008C05093600140935F01309362012093C3
:102600006101E0916F01F0917001908180917B01F7
:102610008923808380916E01811196C0E0916C01C5
:10262000E150E33038F4F0E0EE0FFF1FE85DFE4FBD
:10263000808101C080E3E0917101F09172012081FD
:1026400090917C01922390839BB193709BB995B13B
:102650009C7F95B9E0917301F09174012081909174
:102660007D0192239083E0917301F09174012081A8
:1026700090917901922B90839BB193709BB995B106
:10268000936095B9E0917301F0917401208190916C
:102690007D0192239083E0917301F0917401208178
:1026A00090917901922B9083E0917101F0917201E8
:1026B000208190917801922B90839BB193709061CF
:1026C0009BB995B19C7F95B9E0917301F09174012C
:1026D000208190917D0192239083E0917301F0918C
:1026E0007401208190917901922B90839BB193701A
:1026F0008C7F892B8BB985B18C7F85B9E091730173
:10270000F0917401908180917D0189238083E09113
:102710007301F0917401908180917901892B8083FC
:1027200000916101109162010150110920915F0136
:10273000309160012150310940E050E060E070E0EC
:1027400087E591E00E94B50480916E01813009F027
:1027500055C0E0916C01E150E33028F4F0E0EB5D0E
:10276000FE4F808101C080E0E0917101F091720123
:10277000208190917C01922390839BB1937094610E
:102780009BB995B19C7F926095B9E0917301F091EE
:102790007401208190917D0192239083E0917301D7
:1027A000F0917401208190917901922B9083E091B6
:1027B0007101F0917201208190917801922B9083A8
:1027C0009BB193708C7F892B8BB985B18C7F85B938
:1027D000E0917301F0917401908180917D018923D2
:1027E0008083E0917301F09174019081809179016F
:1027F000892B808387E591E00E94BD0380916E0163
:10280000823009F06AC080916C01813059F040F04B
:10281000823021F0833039F4D8E205C0D8E403C017
:10282000D8E801C0D8EEE0917101F0917201908179
:1028300080917C01892380838BB1837084638BB901
:1028400085B18C7F826085B9E0917301F09174014C
:10285000908180917D0189238083E0917301F091C3
:102860007401908180917901892B8083E0917101BD
:10287000F0917201908180917801892B80838BB1D6
:102880008370DC7FD82BDBB985B18C7F85B9E09173
:102890007301F0917401908180917D01892380837F
:1028A000E0917301F0917401908180917901892BFD
:1028B0008083009161011091620101501109209102
:1028C0005F01309160012150310940E050E060E04B
:1028D00070E087E591E00E94B50480916E0183303D
:1028E00009F06AC080916C01813059F040F082306B
:1028F00021F0833039F4C0E605C0C0E003C0C0EC6D
:1029000001C0C0EAE0917101F09172019081809163
:102910007C01892380838BB1837084638BB985B1FB
:102920008C7F826085B9E0917301F0917401908190
:1029300080917D0189238083E0917301F09174017E
:10294000908180917901892B8083E0917101F091D0
:102950007201908180917801892B80838BB1837083
:10296000CC7FC82BCBB985B18C7F85B9E091730141
:10297000F0917401908180917D0189238083E091A1
:102980007301F0917401908180917901892B80838A
:1029900000916101109162010150110920915F01C4
:1029A000309160012150310940E050E060E070E07A
:1029B00087E591E00E94B504DF91CF911F910F91BF
:1029C0000895E0916F01F0917001908180917701FD
:1029D000892B8083E0917301F09174019081809143
:1029E0007901892B8083E0917501F09176019081C6
:1029F00080917A01892B808380917F01882371F0F7
:102A000060E00E942F1162E070E080E090E00E94A0
:102A10007C1161E080917F010E942F11E0916F0194
:102A2000F0917001908180917B0189238083E091F6
:102A30007101F0917201908180917C0189238083E2
:102A40008BB183708BB985B18C7F85B9E0917301AF
:102A5000F0917401908180917D0189238083E091C0
:102A60007301F0917401908180917901892B8083A9
:102A700083E0E0917301F0917401208190917D01D8
:102A800092239083E0917301F091740120819091E1
:102A90007901922B9083815061F7E0916F01F09161
:102AA0007001908180917701892B808364EF71E0C0
:102AB00080E090E00C947C11E7E5F1E0A68DB78D05
:102AC0009C9187A189238C9300C000C000C00000A6
:102AD00029B193B1A68DB78D3C9183A1832B8C93A3
:102AE0002C7F892F8370822B0895CF92DF92EF92F3
:102AF000FF92CF93DF93C7E5D1E0E88DF98D208178
:102B00009CA192239083EA8DFB8D20819DA192232D
:102B100090839BB19370282F2C7F922B9BB995B1FA
:102B20009C7F8370892B85B9EC8DFD8D90818EA162
:102B300089238083EC8DFD8D90818AA1892B8083F0
:102B40008AB183708AB984B18C7F84B9EA8DFB8D98
:102B5000908189A1892B808383EC90E00197F1F724
:102B60000E945C15C82ED12CE12CF12CFE2CED2CF2
:102B7000DC2CCC240E945C15C82AFE2CED2CDC2C0D
:102B8000CC240E945C15C82AFE2CED2CDC2CCC2415
:102B90000E945C15E88DF98D208198A1922B90837D
:102BA0009AB19C6F9AB994B1936094B9A7019601B8
:102BB000282BCA01B901DF91CF91FF90EF90DF90F0
:102BC000CF90089590E0FC01E95FF84F2491FC015B
:102BD000ED50F94F8491882399F090E0880F991F68
:102BE000FC01E751F94FA591B491FC01E152F94F75
:102BF000859194918FB7F894EC91E22BEC938FBF71
:102C00000895009769F0FC0101900020E9F73197E1
:102C1000AF01481B590BBC0187E591E00C94B3123E
:102C200080E090E00895AF92BF92CF92DF92EF9252
:102C3000FF920F931F93CF93DF93FC01A08DB18D73
:102C40009C9184A189238C93A28DB38D9C9185A1A5
:102C500089238C9387898230B9F0811113C08BB19D
:102C600083708BB985B18C7F85B9A48DB58D9C910E
:102C700086A189238C93A48DB58D9C9182A1892BEB
:102C80008C9309C0833039F48BB183708C628BB91B
:102C900085B18C7F07C08BB1837080628BB985B1A1
:102CA0008C7F826085B9A48DB58D9C9186A1892386
:102CB0008C93A48DB58D9C9182A1892B8C93A28D30
:102CC000B38D9C9181A1892B8C938BB1D72FDC7F05
:102CD00083708D2B8BB985B1C72FC3708C7F8C2BE4
:102CE00085B9A48DB58D9C9186A189238C93A48DE3
:102CF000B58D9C9182A1892B8C938BB1962F9C7F53
:102D0000B92E8370892B8BB985B1A62FA370AA2EFB
:102D10008C7F8A2B85B9048D158DD8019C9186A155
:102D200089238C93048D158DD8019C9182A1892BC8
:102D30008C93215031094109510969017A0186E0DA
:102D4000F694E794D794C7948A95D1F7C601761381
:102D500038C1019708F465C060E1A48DB58DCC91B0
:102D600076A17C237C93A48DB58DCC9172A17C2B14
:102D70007C93A48DB58DCC9176A17C237C93A48D7E
:102D8000B58DCC9172A17C2B7C93A48DB58DCC910B
:102D900076A17C237C93A48DB58DCC9172A17C2BE4
:102DA0007C93A48DB58DCC9176A17C237C93A48D4E
:102DB000B58DCC9172A17C2B7C93A48DB58DCC91DB
:102DC00076A17C237C93A48DB58DCC9172A17C2BB4
:102DD0007C93A48DB58DCC9176A17C237C93A48D1E
:102DE000B58DCC9172A17C2B7C93A48DB58DCC91AB
:102DF00076A17C237C93A48DB58DCC9172A17C2B84
:102E00007C93A48DB58DCC9176A17C237C93A48DED
:102E1000B58DCC9172A17C2B7C93615009F09DCF34
:102E200098CF2F73215008F400C1A48DB58D9C91CB
:102E300086A189238C93A48DB58D9C9182A1892B29
:102E40008C93A48DB58D9C9186A189238C93A48DA0
:102E5000B58D9C9182A1892B8C93E4CF6BB163706B
:102E60006D2B6BB965B16C7F6C2B65B9048D158DBD
:102E7000D801FC9066A16F216C93048D158DD8014B
:102E8000FC9062A16F296C936BB163706B296BB975
:102E900065B16C7F6A2965B9048D158DD801FC90E8
:102EA00066A16F216C93048D158DD801FC9062A1F1
:102EB0006F296C936BB163706D2B6BB965B16C7FCF
:102EC0006C2B65B9048D158DD801FC9066A16F211E
:102ED0006C93048D158DD801FC9062A16F296C93C1
:102EE0006BB163706B296BB965B16C7F6A2965B989
:102EF000048D158DD801FC9066A16F216C93048D13
:102F0000158DD801FC9062A16F296C936BB1637031
:102F10006D2B6BB965B16C7F6C2B65B9048D158D0C
:102F2000D801FC9066A16F216C93048D158DD8019A
:102F3000FC9062A16F296C936BB163706B296BB9C4
:102F400065B16C7F6A2965B9048D158DD801FC9037
:102F500066A16F216C93048D158DD801FC9062A140
:102F60006F296C936BB163706D2B6BB965B16C7F1E
:102F70006C2B65B9048D158DD801FC9066A16F216D
:102F80006C93048D158DD801FC9062A16F296C9310
:102F90006BB163706B296BB965B16C7F6A2965B9D8
:102FA000048D158DD801FC9066A16F216C93048D62
:102FB000158DD801FC9062A16F296C93715009F0B6
:102FC0004DCF019710F070E149CF2F73215068F178
:102FD0008BB183708D2B8BB985B18C7F8C2B85B990
:102FE000448D558DDA019C9186A189238C93448D63
:102FF000558DDA019C9182A1892B8C938BB18370C2
:103000008B298BB985B18C7F8A2985B9448D558DE3
:10301000DA019C9186A189238C93448D558DDA0128
:103020009C9182A1892B8C93D1CFA08DB18D9C9145
:1030300080A1892B8C93DF91CF911F910F91FF90ED
:10304000EF90DF90CF90BF90AF900895789484B5C3
:10305000826084BD84B5816084BD85B5826085BD94
:1030600085B5816085BD80916E00816080936E0022
:103070001092810080918100826080938100809114
:1030800081008160809381008091800081608093C5
:1030900080008091B10084608093B1008091B00085
:1030A00081608093B00080917A00846080937A0080
:1030B00080917A00826080937A0080917A008160AA
:1030C00080937A0080917A00806880937A001092D1
:1030D000C1000E94E11484E00E94751561157048DA
:1030E0008105910509F46BC083ED0E94751561346B
:1030F000734909F408C1E0916F01F091700190816A
:1031000080917B0189238083E0917101F0917201AC
:10311000908180917C01892380838BB183708BB9EE
:1031200085B18C7F85B9E0917301F0917401908134
:1031300080917D0189238083E0917301F091740176
:10314000908180917901892B8083E0917301F091C6
:103150007401908180917D0189238083E0917301C6
:10316000F0917401908180917901892B80838AB1DB
:1031700083708AB984B18C7F84B9E0917101F09138
:103180007201908180917801892B80830E945C1567
:10319000C82F0E945C159AB19C6F9AB994B1936044
:1031A00094B9E0916F01F0917001208190917701C5
:1031B000922B9083D0E0DC2FCC27C82BA6C0E091C7
:1031C0006F01F0917001908180917B018923808350
:1031D000E0917101F0917201908180917C018923CD
:1031E00080838BB18370886B8BB985B18C7F816054
:1031F00085B9E0917301F0917401908180917D0116
:1032000089238083E0917301F09174019081809112
:103210007901892B8083E0917101F0917201908195
:1032200080917801892B808383E290E0FC013197C3
:10323000F1F72BB12C6F2BB925B1236025B9E091A3
:103240007301F0917401308120917D01232320834B
:10325000E0917301F0917401308120917901232B69
:103260002083FC013197F1F72BB1237020682BB933
:1032700025B1236025B9E0917301F091740130818B
:1032800020917D0123232083E0917301F09174014B
:10329000308120917901232B20830197F1F78BB1A5
:1032A000837084658BB985B1836085B9E0917301C2
:1032B000F0917401908180917D0189238083E09158
:1032C0007301F0917401908180917901892B808341
:1032D000E0916F01F0917001908180917701892BCD
:1032E00080836CE271E080E090E00E947C1180EDD0
:1032F0000E947515611571058949910509F0F4CE93
:10330000C7E5D3E802C0C1E4D3E90E94E11468EC48
:1033100070E080E090E00E947C11C53223E9D20782
:1033200029F0C83283E9D80709F0B0C010926E01C5
:10333000E0916F01F0917001908180917B01892370
:103340008083C4E0D1E000ED11E0FE0125913491CD
:10335000FE013296659174912F3F310569F480E04A
:1033600090E00E947C1124960C171D0771F7809144
:103370006C010E94DD1242C4E0917101F091720172
:10338000908180917C01892380838BB18370932FFE
:103390009C7F892B8BB985B18C7F932F9370892B60
:1033A00085B9E0917301F0917401908180917D0164
:1033B00089238083E0917301F09174019081809161
:1033C0007901892B80838BB18370922F9C7F892B0D
:1033D0008BB985B18C7F922F9370892B85B9E09141
:1033E0007301F0917401908180917D018923808324
:1033F000E0917301F0917401908180917901892BA2
:103400008083E0917101F091720190818091780147
:10341000892B80838BB18370972F9C7F892B8BB9ED
:1034200085B18C7F972F9370892B85B9E0917301BB
:10343000F0917401908180917D0189238083E091D6
:103440007301F0917401908180917901892B8083BF
:103450008BB18370962F9C7F892B8BB985B18C7F24
:103460006370682B65B9E0917301F09174019081EC
:1034700080917D0189238083E0917301F091740133
:10348000908180917901892B80836DCFC134E3E9EC
:10349000DE0709F0C0C382E080936E01E0916F0106
:1034A000F0917001908180917B0189238083E0916C
:1034B0007101F0917201908180917C018923808358
:1034C0008BB183708BB985B18C7F816085B9E091B8
:1034D0007301F0917401908180917D018923808333
:1034E000E0917301F0917401908180917901892BB1
:1034F0008083E0917101F091720190818091780157
:10350000892B80838BB183708BB985B18C7F85B912
:10351000E0917301F0917401908180917D01892384
:103520008083E0917301F091740190818091790121
:10353000892B808362E370E080E090E00E947C1140
:10354000E0917101F0917201908180917C01892359
:1035500080838BB1837088628BB985B18C7F85B98C
:10356000E0917301F0917401908180917D01892334
:103570008083E0917301F0917401908180917901D1
:10358000892B8083E0917101F0917201908180918B
:103590007801892B80838BB183708BB985B18C7F47
:1035A00085B9E0917301F0917401908180917D0162
:1035B00089238083E0917301F0917401908180915F
:1035C0007901892B8083E0917101F09172019081E2
:1035D00080917C01892380838BB18370806C8BB94F
:1035E00085B18C7F85B9E0917301F0917401908170
:1035F00080917D0189238083E0917301F0917401B2
:10360000908180917901892B8083E0917101F09103
:103610007201908180917801892B80838BB18370B6
:1036200080628BB985B1836085B9E0917301F091B7
:103630007401908180917D0189238083E0917301E1
:10364000F0917401908180917901892B8083E091C0
:103650007101F0917201908180917C0189238083B6
:103660008BB18370806C8BB985B18C7F816085B99B
:10367000E0917301F0917401908180917D01892323
:103680008083E0917301F0917401908180917901C0
:10369000892B8083E0917101F0917201908180917A
:1036A0007801892B80838BB1837080618BB985B160
:1036B0008C7F85B9E0917301F091740190818091C4
:1036C0007D0189238083E0917301F09174019081E1
:1036D00080917901892B8083E0917101F0917201D1
:1036E000908180917C01892380838BB183708BB919
:1036F00085B18C7F85B9E0917301F091740190815F
:1037000080917D0189238083E0917301F0917401A0
:10371000908180917901892B80838BB18370846C37
:103720008BB985B18C7F816085B9E0917301F0918F
:103730007401908180917D0189238083E0917301E0
:10374000F0917401908180917901892B8083E091BF
:103750007101F0917201908180917801892B8083B1
:103760008BB1837088628BB985B1836085B9E09134
:103770007301F0917401908180917D018923808390
:10378000E0917301F0917401908180917901892B0E
:1037900080838BB1837088628BB985B1836085B972
:1037A000E0917301F0917401908180917D018923F2
:1037B0008083E0917301F09174019081809179018F
:1037C000892B8083E0917101F09172019081809149
:1037D0007C01892380838BB18370846C8BB985B124
:1037E000836085B9E0917301F091740190818091BB
:1037F0007D0189238083E0917301F09174019081B0
:1038000080917901892B8083E0917101F09172019F
:10381000908180917801892B80838BB18370806C3B
:103820008BB985B18C7F85B9E0917301F0917401FA
:10383000908180917D0189238083E0917301F091D3
:103840007401908180917901892B8083E0917101CD
:10385000F0917201908180917C01892380838BB1EA
:10386000837084638BB985B18C7F826085B9E09168
:103870007301F0917401908180917D01892380838F
:10388000E0917301F0917401908180917901892B0D
:103890008083E0917101F0917201908180917801B3
:1038A000892B80838BB1837088688BB985B18C7FBD
:1038B00085B9E0917301F0917401908180917D014F
:1038C00089238083E0917301F0917401908180914C
:1038D0007901892B8083E0917101F09172019081CF
:1038E00080917C01892380838BB1837088638BB93D
:1038F00085B18C7F826085B9E0917301F09174018C
:10390000908180917D0189238083E0917301F09102
:103910007401908180917901892B8083E0917101FC
:10392000F0917201908180917801892B80838BB115
:10393000837084658BB985B18C7F816085B9E09196
:103940007301F0917401908180917D0189238083BE
:10395000E0917301F0917401908180917901892B3C
:103960008083E0917101F0917201908180917C01DE
:10397000892380838BB183708BB985B18C7F85B9A6
:10398000E0917301F0917401908180917D01892310
:103990008083E0917301F0917401908180917901AD
:1039A000892B80838BB18370806B8BB985B18C7FC1
:1039B000816085B9E0917301F091740190818091EB
:1039C0007D0189238083E0917301F09174019081DE
:1039D00080917901892B8083E0917101F0917201CE
:1039E000908180917801892B80838BB183708BB912
:1039F00085B18C7F85B9E0917301F091740190815C
:103A000080917D0189238083E0917301F09174019D
:103A1000908180917901892B80838BB1837088613B
:103A20008BB985B1836085B9E0917301F091740120
:103A3000908180917D0189238083E0917301F091D1
:103A40007401908180917901892B8083E0917101CB
:103A5000F0917201908180917C01892380838BB1E8
:103A60008370846B8BB985B1836085B9E0917301F4
:103A7000F0917401908180917D0189238083E09190
:103A80007301F0917401908180917901892B808379
:103A9000E0917101F0917201908180917801892B00
:103AA00080838BB1837084608BB985B1836085B965
:103AB000E0917301F0917401908180917D018923DF
:103AC0008083E0917301F09174019081809179017C
:103AD000892B8083E0917101F09172019081809136
:103AE0007C01892380838BB1837080618BB985B120
:103AF0008C7F816085B9E0917301F09174019081B0
:103B000080917D0189238083E0917301F09174019C
:103B1000908180917901892B8083E0917101F091EE
:103B20007201908180917801892B80838BB18370A1
:103B30008BB985B18C7F85B9E0917301F0917401E7
:103B4000908180917D0189238083E0917301F091C0
:103B50007401908180917901892B808366E970E0FE
:103B600080E090E00E947C11E0917101F09172017F
:103B7000908180917C01892380838BB183708862DE
:103B80008BB985B18C7F816085B9E0917301F0912B
:103B90007401908180917D0189238083E09173017C
:103BA000F0917401908180917901892B8083E0915B
:103BB0007101F0917201908180917801892B80834D
:103BC0008BB183708BB985B18C7F85B9E09173011E
:103BD000F0917401908180917D0189238083E0912F
:103BE0007301F0917401908180917901892B808318
:103BF00064EF71E080E090E00E947C110FE311E03F
:103C00002FEE30E040E050E060E070E087E591E0CA
:103C10000E94B50415C1C735F3E8DF0709F095C068
:103C200083E080936E01E0916F01F09170019081CB
:103C300080917B018923808390E0E92FF0E0E254BA
:103C4000FF4F8491C2E0C90FE1E0E90FF0E0E254D8
:103C5000FF4F64918F3F49F470E080E090E00E9454
:103C60007C119C2F963448F3EBC0E0916F01F091EA
:103C70007001308120917B0123232083E091710129
:103C8000F0917201308120917C01232320832BB19C
:103C90002370382F3C7F232B2BB9E5B12E2F2C7F9F
:103CA000E82FE370E22BE5B9E0917301F091740124
:103CB000208180917D0182238083E0917301F091C6
:103CC0007401208180917901822B8083E0917101C0
:103CD000F0917201208180917801822B8083960F70
:103CE0009E5FEC2F9E1729F131E03E0FF0E0E25489
:103CF000FF4FE4918BB183702E2F2C7F822B8BB9D9
:103D000085B18C7FE370E82BE5B9E0917301F09108
:103D10007401208180917D0182238083E091730171
:103D2000F0917401208180917901822B8083E32FAF
:103D3000D9CF9C2F960FE0916F01F09170012081F7
:103D400080917701822B80838DCFC537D54709F0CD
:103D500074C081E080936E01E0916F01F091700179
:103D6000908180917B0189238083C8E6D0E0FE01A9
:103D70008491319664918F3F99F470E080E090E0F7
:103D80000E947C11229680E0CE3BD80781F780917B
:103D90006C010E94DD1287E591E00E94BD0350C0D6
:103DA000E0917101F0917201208190917C01922348
:103DB00090839BB19370282F2C7F922B9BB995B148
:103DC0009C7F8370892B85B9E0917301F091740118
:103DD000908180917D0189238083E0917301F0912E
:103DE0007401908180917901892B8083E091710128
:103DF000F0917201908180917801892B80838BB141
:103E00008370962F9C7F892B8BB9E5B1EC7F637013
:103E10006E2B65B9E0917301F091740190818091EE
:103E20007D0189238083E0917301F0917401908179
:103E300080917901892B8083A5CF8FEF80936E01CC
:103E400081E00E94DD126FEF7FEF87E591E00E9435
:103E5000F50B80EEE82EFF24FA9400EF10E02FE33C
:103E600031E040E050E060E070E087E591E00E94E2
:103E70002C1088E790E0909364018093630188E2BE
:103E800090E0909366018093650110926A01109210
:103E900069011092680110926701C2E0C0936B0142
:103EA0008EE291E00E940116E12C98EFF92E06E4D3
:103EB00010E02EEB30E046E450E06EE670E087E57F
:103EC00091E00E947B1083E790E0909364018093DF
:103ED000630180E590E09093660180936501109204
:103EE0006A01109269011092680110926701C093F3
:103EF0006B0184E391E00E94011686E490E09093C8
:103F000064018093630182E890E09093660180935E
:103F100065018FE190E090936A018093690190932D
:103F200068018093670183E080936B01E12CF12CA1
:103F300000EF10E020E431E04EE650E060E070E099
:103F400087E591E00E94F40C8BE391E00E9401165A
:103F5000EE24EA94FE2C08E210E028EC30E048E77A
:103F600050E06CE370E087E591E00E942C10C0E027
:103F7000D0E02097F1F30E940000FBCFBF92CF92D8
:103F8000DF92EF92FF920F931F93CF93DF93C7E5DA
:103F9000D1E01B821A8280EFE82EF12CFD82EC82A8
:103FA00000E411E01F830E83F986E8861B870A87E9
:103FB0001D8A1D861C861F861E86BB24B394BC8A60
:103FC000CC24CA94DC2CDB8ACA8AD98AC88ABE8AE5
:103FD00084E091E09983888382E188A7E4E0F7E0B8
:103FE000E491F0E0EE0FFF1FE152F94FA591B4917B
:103FF000B98FA88FE3E0F7E0E491F0E0EE0FFF1F48
:10400000E152F94F859194919B8F8A8FE2E0F7E01E
:10401000E491F0E0EE0FFF1FE152F94F859194918A
:104020009D8F8C8FE1E0F7E0E491F0E0EE0FFF1F51
:10403000E152F94F859194919F8F8E8FE8E1F7E0DF
:10404000349138A3E7E1F7E0249129A3E6E1F7E012
:1040500094919AA3E5E1F7E084918BA3432F4095D7
:104060004CA3E22FE095EDA3E92FE095EEA3E82F16
:10407000E095EFA3EC91E32BEC93EA8DFB8D90811F
:1040800089A1892B8083EC8DFD8D90818AA1892B5C
:104090008083EE8DFF8D90818BA1892B808381E1C0
:1040A0000E94E21580E10E94E2158FE00E94E21575
:1040B0008EE00E94E21561E082E10E942F1182E110
:1040C0000E94E2158AB18C6F8AB984B1836084B989
:1040D0001D8A1D861C861F861E86BC8AD98AC88AB0
:1040E000F986E8861B870A87E6E4F1E081E18283AE
:1040F00080E1848389E0838388E085838CE691E096
:10410000978386838AE090E091838083DF91CF91CB
:104110001F910F91FF90EF90DF90CF90BF90089587
:104120000E949820332312F48A1B9B0B0C94A92025
:10413000A29FB001B39FC001A39F700D811D1124E8
:10414000911DB29F700D811D1124911D08950E9433
:104150009820B7FF0895821B930B0895EE0FFF1F61
:104160000590F491E02D099481E090E0F8940C948E
:06417000B920F894FFCF16
:10417600000000006F0EB312BA03B9033D097B10AD
:104186007E0DE40D2C10F40CF50B6E0E00003F01B5
:104196003F01EFEF0060C0A02810001018104F6D0F
:1041A60065676100536572776973004B6F6D707553
:0641B6007465726F7700D2
:107E0000112484B714BE81FFF0D085E080938100F7
:107E100082E08093C00088E18093C10086E0809377
:107E2000C20080E18093C4008EE0C9D0259A86E02C
:107E300020E33CEF91E0309385002093840096BBD3
:107E4000B09BFECF1D9AA8958150A9F7CC24DD24C4
:107E500088248394B5E0AB2EA1E19A2EF3E0BF2EE7
:107E6000A2D0813461F49FD0082FAFD0023811F036
:107E7000013811F484E001C083E08DD089C08234E0
:107E800011F484E103C0853419F485E0A6D080C0E4
:107E9000853579F488D0E82EFF2485D0082F10E0AE
:107EA000102F00270E291F29000F111F8ED06801E7
:107EB0006FC0863521F484E090D080E0DECF843638
:107EC00009F040C070D06FD0082F6DD080E0C81688
:107ED00080E7D80618F4F601B7BEE895C0E0D1E017
:107EE00062D089930C17E1F7F0E0CF16F0E7DF06D8
:107EF00018F0F601B7BEE89568D007B600FCFDCFD4
:107F0000A601A0E0B1E02C9130E011968C91119780
:107F100090E0982F8827822B932B1296FA010C0160
:107F200087BEE89511244E5F5F4FF1E0A038BF0790
:107F300051F7F601A7BEE89507B600FCFDCF97BE46
:107F4000E89526C08437B1F42ED02DD0F82E2BD052
:107F50003CD0F601EF2C8F010F5F1F4F84911BD097
:107F6000EA94F801C1F70894C11CD11CFA94CF0C13
:107F7000D11C0EC0853739F428D08EE10CD085E9AC
:107F80000AD08FE07ACF813511F488E018D01DD067
:107F900080E101D065CF982F8091C00085FFFCCF94
:107FA0009093C60008958091C00087FFFCCF809118
:107FB000C00084FD01C0A8958091C6000895E0E648
:107FC000F0E098E1908380830895EDDF803219F02E
:107FD00088E0F5DFFFCF84E1DECF1F93182FE3DFCA
:107FE0001150E9F7F2DF1F91089580E0E8DFEE27F6
:047FF000FF270994CA
:027FFE00040479
:0400000300007E007B
:00000001FF