:100000000C94F5030C941D040C941D040C941D0415
:100010000C941D040C941D040C941D040C941D04DC
:100020000C941D040C941D040C941D040C941D04CC
:100030000C941D040C941D040C941D040C941D04BC
:100040000C945E100C941D040C94C41F0C949E1F01
:100050000C941D040C941D040C941D040C941D049C
:100060000C9442110C941D0400407A10F35A00A025
:10007000724E18090010A5D4E80000E87648170071
:1000800000E40B54020000CA9A3B000000E1F505B1
:10009000000080969800000040420F000000A086FB
:1000A00001000000102700000000E803000000002D
:1000B0006400000000000A000000000001000000D1
:1000C00000002C76D888DC674F0823DFC1DFAE59EB
:1000D000E1B1B796E5E3E453C63AE651997696E87E
:1000E000E6C28426EB898C9B62ED407C6FFCEFBC02
:1000F0009C9F40F2BAA56FA5F490055A2AF75C932D
:100100006B6CF9676DC11BFCE0E40D47FEF520E662
:10011000B500D0ED902E0300943577050080841E45
:10012000080000204E0A000000C80C333333330FA0
:10013000986E12831141EF8D2114893BE65516CF3D
:10014000FEE6DB18D1844B381BF77C1D901DA4BB49
:10015000E424203284725E228100C9F124ECA1E5FE
:100160003D27342F34202020202020202020202034
:10017000202000457869742066726F6D206D656E71
:10018000752020004C6F67676564206F75742100CF
:10019000596F752068617665206265656E206C6FA9
:1001A00067676564206F757400332F34202020202A
:1001B000202020202020202020004C6F676F7574A5
:1001C000202020202020202020200044485420747B
:1001D00065726D696E616C20686173206265656E21
:1001E0002061637469766174656400322F34202065
:1001F000202020202020202020202000444854209F
:100200005465726D696E616C204F4E2000312F3441
:10021000202020202020202020202020200042619B
:10022000636B6C69676874204F4E2F4F46460050D1
:1002300072657373203120666F72206D656E750074
:1002400055736520796F7572204E4643207461673F
:10025000005072657373203120666F72206D656E79
:100260007500526561647921202020202020202003
:100270002020004869676820636F6E646974696F45
:100280006E206F6E207468652070696E3A2000538E
:1002900074617475732E0053746174652C00466F1D
:1002A000637573206E616D65204F46462C00466F66
:1002B000637573206E616D652C00466F63757320E6
:1002C0004F46462C00466F6375732C004C45442006
:1002D0004F46462C004C4544204F4E2C0044485479
:1002E000207465726D696E616C204F46462C004427
:1002F0004854207465726D696E616C204F4E2C00FD
:1003000044485420726561642C00506F77657220F8
:100310004F46462C00506F776572204F4E2C004898
:100320006572652069732061206C697374206F6643
:1003300020617661696C61626C6520636F6D6D61CF
:100340006E64733A00546F207365652061206C6998
:100350007374206F6620617661696C61626C6520E0
:10036000636F6D6D616E64732C207377697463685D
:10037000207468652031536865656C642061707015
:100380006C69636174696F6E2077696E646F772042
:10039000746F205465787420546F205370656563C2
:1003A000682061667465722072756E6E696E672072
:1003B0007468652068656C7020636F6D6D616E6434
:1003C00000466F63757320686173206265656E20F7
:1003D0006465616374697661746564002070657238
:1003E00063656E740020616E642068756D69646970
:1003F00074792069730020646567726565730054C1
:1004000068652074656D70657261747572652069C8
:10041000732000596F752068617665206265656E8E
:10042000206C6F67676564206F7574004920646F86
:100430006E277420756E6465727374616E642E200D
:10044000547279207468652068656C7020636F6DE4
:100450006D616E642E00596F75206861766520624B
:1004600065656E206C6F67676564206F7574004406
:100470004854207465726D696E616C2068617320E8
:100480006265656E20646561637469766174656434
:1004900000444854207465726D696E616C20686117
:1004A00073206265656E206163746976617465644A
:1004B00000506C656173652074656C6C206D6520FF
:1004C00074686520444854204F55542070696E204C
:1004D0006E756D6265720054686520666F63757332
:1004E000206E616D6520686173206265656E2064B1
:1004F0006561637469766174656400546865206E33
:10050000657720666F637573206E616D6520686125
:1005100073206265656E20616464656400506C657B
:100520006173652074656C6C206D652061206E655B
:100530007720666F637573206E616D6500466F632B
:10054000757320686173206265656E2061637469EC
:10055000766174656400506C656173652074656CC8
:100560006C206D652061206469676974616C20701E
:10057000696E206E756D62657220746F20666F63A0
:10058000757300554E4F2100446F6E650054656CC5
:100590006C206D6520746865206469676974616C9E
:1005A0002070696E206E756D62657200446F6E65B5
:1005B0000054656C6C206D65207468652064696703
:1005C0006974616C2070696E206E756D6265720071
:1005D00031536865656C64206973207265647920A5
:1005E000746F20757365210054686520737461749D
:1005F000652069732063757272656E746C79204F23
:100600004E2E0054686520737461746520697320F0
:1006100063757272656E746C79204F46462E005079
:100620006C656173652074656C6C206D6520746801
:1006300065206469676974616C2070696E206E75ED
:100640006D62657200546865204C454420697320D2
:100650007374696C6C204F46462E00546865204CBC
:100660004544206973206E6F77204F46462E005414
:100670006865204C4544206973207374696C6C2054
:100680004F4E2E00546865204C4544206973206EFF
:100690006F77204F4E2E004163636573732064654E
:1006A0006E69656400416363657373206772616E90
:1006B00074656400546F20676574206163636573BB
:1006C0002C2075736520796F7572204E4643207417
:1006D00061670000000000250028002B00000000DA
:1006E00008000201000003040700000000000000F1
:1006F0000000000000240027002A00526561647990
:1007000021004B6163706572204D0054545320707A
:10071000726F6A6563742062790000000000230034
:100720002600290004040404040404040202020252
:1007300002020303030303030102040810204080A4
:100740000102040810200102040810206572726F73
:1007500072004F4B00313300746869727465656EC6
:10076000004F4B003132007477656C7665004F4B5B
:1007700000313100656C6576656E004F4B0031309D
:100780000074656E004F4B006E696E65004F4B0044
:100790006569676874004F4B00736576656E004F3E
:1007A0004B00736978004F4B0066697665004F4BCC
:1007B0000066617200666F7200666F7572004F4B63
:1007C0000066726565007468726565004F4B007461
:1007D0006F0074776F004F4B006F6E65004F4B00DA
:1007E0007A65726F00003527242811241FBECFEFD1
:1007F000D8E0DEBFCDBF13E0A0E0B1E0E0E0F0E67E
:1008000002C005900D92AE34B107D9F726E0AEE4F0
:10081000B3E001C01D92A133B207E1F713E0C4EFCA
:10082000D3E004C02197FE010E94D02DC33FD10721
:10083000C9F70E94ED240C94F32F0C9400004F9202
:100840005F926F927F928F929F92AF92BF92CF9260
:10085000DF92EF92FF920F931F93CF93DF93CDB769
:10086000DEB7CB56D1090FB6F894DEBF0FBECDBFB1
:100870008EE00E94840F892B71F4809162038F5F58
:1008800085300CF081E08093620368EC70E080E0DA
:1008900090E00E94181010916203809126041111BB
:1008A00015C08823B9F090915C0391110FC060E0EE
:1008B00080E00E94152282E692E00E94FB2161E026
:1008C00080E00E94152281E592E015C0811116C0DA
:1008D000111114C080915C038111A9C060E00E94D5
:1008E000152280E492E00E94FB2161E080E00E94FA
:1008F00015228FE292E00E94FB2195C0113071F524
:1009000060E080E00E9415228EE192E00E94FB21CF
:1009100061E080E00E9415228DE092E00E94FB21C0
:100920008FE00E94840F892B09F07DC08091100117
:10093000182710931001112319F00E944F2207C0AD
:1009400010929E0560E083E995E00E94A8106CE299
:1009500071E080E090E00E94181065C0123071F5DF
:1009600060E080E00E9415228CEF91E00E94FB2164
:1009700061E080E00E9415228BEE91E00E94FB2155
:100980008FE00E94840F892B09F04DC081E0809395
:10099000610380935C036BEC71E0CE0101960E94D1
:1009A000631ECE0101960E945F21CE0101960E9436
:1009B0005E1E68EB7BE080E090E0B8C31330D1F4BA
:1009C00060E080E00E9415228AEB91E00E94FB210A
:1009D00061E080E00E94152289EA91E00E94FB21FB
:1009E0008FE00E94840F892BF1F4809126048111FD
:1009F00083C31DC01430B9F460E080E00E9415226A
:100A000083E791E00E94FB2161E080E00E941522D3
:100A100082E691E00E94FB218FE00E94840F892BE7
:100A200011F410926203809126048111B8C0809164
:100A30006203811158C10E94A11C182F809161038B
:100A4000813081F060E080E00E94152289E392E02D
:100A50000E94F81B61E080E00E9415228AE492E087
:100A60000E94F81B8091AD058823B9F01092AD0566
:100A700064EB76E0CE0101960E94631ECE010196E2
:100A80000E945F21CE0101960E945E1E68EB7BE012
:100A900080E090E00E9418107DC08FE595E00E94F4
:100AA000D012882309F49FC38FE595E00E94500F70
:100AB000882309F498C380916205863909F039C307
:100AC000809163058F3509F043C380916405833DB0
:100AD00009F03EC380916505833109F039C361E0B7
:100AE00082E00E94AD0F62E370E080E090E00E943F
:100AF000181060E082E00E94AD0F65EA76E0CE015A
:100B000001960E94631ECE0101960E945F21CE01D4
:100B100001960E945E1E81E0809326040E9452107E
:100B200060935D0370935E0380935F039093600313
:100B30000E9444228BE592E00E94F81B68EB7BE068
:100B400080E090E00E94181080E589831A829E015F
:100B50002D5F3F4F42E0BE016F5F7F4F8FE595E015
:100B60000E947012811110C0A12CC12CE12CF12C1B
:100B700000E010E020E030E044E0BE016F5F7F4F16
:100B80008FE595E00E94FC1C48E060E18FE595E070
:100B90000E94BC1280912604882309F4A4C080918D
:100BA0005C03811113C08091620381110FC060E06A
:100BB0000E9415228AE792E00E94F81B61E080E023
:100BC0000E9415228AE492E00E94F81B80915B0348
:100BD000882309F441C080915A038130E9F580915E
:100BE00059030E94840F0197B9F563E772E0CE01C3
:100BF00001960E94631ECE0101960E945F21CE01E4
:100C000001960E945E1E60ED77E080E090E00E9419
:100C10001810809158038111FDC2809159031A82E6
:100C200019821C821B821E821D828AA31BA2BE0106
:100C30006E5D7F4FCE0101960E94471ECE01019648
:100C40000E945F21CE0101960E945E1E60EA7FE055
:100C500080E090E00E9418108091AD058111E4C2FF
:100C600080910A0690910B06892B09F0DDC239C0EC
:100C7000B7018CEB91E00E94E32F892B09F0BCC4F3
:100C800060ED75E0CE0101960E94631ECE010196D3
:100C90000E945F21CE0101960E945E1E6DE373E00B
:100CA000CE0101960E94891F1092AD056091A505A5
:100CB0007091A605CE0101960E94471EBE016F5F8E
:100CC0007F4FCE0182960E946F1FCE0182960E94B6
:100CD000331CCE0182960E945E1ECE0101960E94B8
:100CE0005E1E0E9452100E94521000915D031091EE
:100CF0005E0320915F0330916003DC01CB01801B18
:100D0000910BA20BB30B803E9349A440B10520F098
:100D10008091260481116FC780916103813009F0B1
:100D200087C70E9452106B017C010E9452104B0138
:100D30005C018091540390915503A0915603B091AA
:100D40005703A7019601281B390B4A0B5B0BDA01ED
:100D5000C9018C3D9540A105B10508F469C7C09251
:100D60005403D0925503E0925603F092570346E1A4
:100D700060911101CE01C4960E94DA214BE064E03B
:100D8000CE0182960E94DA21CE01C4960E943C16C2
:100D9000CE0182960E943C16CE01C4960E94B51BDD
:100DA0002B013C01CE01C4960E946A1BA8966CAF31
:100DB0007DAF8EAF9FAFA897CE0182960E94B51BE4
:100DC0006B017C01CE0182960E946A1BAC966CAFCF
:100DD0007DAF8EAF9FAFAC97A0961FAE1EAEA09713
:100DE000A2961FAE1EAEA297A4961FAE1EAEA497EB
:100DF0008E010F5F1F4F22E044E0C301B2010E9449
:100E00005F28BC01CE01825A9F4F0E94471E6A96FE
:100E10001FAE1EAE6A976C961FAE1EAE6C976E9696
:100E20001FAE1EAE6E9720E030E040E85FE3A8966C
:100E30006CAD7DAD8EAD9FADA8970E942D2D22E0AB
:100E400044E00E945F28BC01CE01885A9F4F0E9457
:100E5000471EC701B6010E949A2DCE018E5A9F4FA0
:100E60000E94572220E030E040E85FE3AC966CAD92
:100E70007DAD8EAD9FADAC970E942D2D0E949A2D19
:100E8000CE01845B9F4F0E9457226BE872E0CE0137
:100E90008A5B9F4F0E94891FBE01685A7F4FCE0117
:100EA0008A5B9F4F0E94791C6BE972E00E940D1EC5
:100EB000BE01625A7F4F0E94791C6EEA72E00E9466
:100EC0000D1EBC01C8010E946F1FC8010E94331C87
:100ED000C8010E945E1ECE018A5B9F4F0E945E1E6B
:100EE00068EC70E080E090E00E94181060EB72E027
:100EF000CE018A5B9F4F0E94891FBE01645B7F4FBA
:100F0000CE018A5B9F4F0E94791C60EC72E00E94C8
:100F10000D1EBE016E5A7F4F0E94791C6EEA72E070
:100F20000E940D1EBC01C8010E946F1FC8010E94D3
:100F3000331CC8010E945E1ECE018A5B9F4F0E9437
:100F40005E1E68E071E081E00E94131C80915003F6
:100F500090915103A0915203B0915303A5019401C4
:100F6000281B390B4A0B5B0BDA01C901803797410B
:100F7000A105B105B0F08092500390925103A09268
:100F80005203B092530381E090E020914E033091E0
:100F90004F03232B11F080E090E090934F03809358
:100FA0004E0380914E0390914F03892B09F044C06A
:100FB0008091620381118BC060E071E00E94131C7C
:100FC00060E080E00E94152283ED92E00E94F81B11
:100FD00061E080E00E941522CE01885A9F4F0E9456
:100FE0000A1C60E083E995E00E943C1184EE92E0E7
:100FF0000E94F81B61E088E00E94152288E892E0D8
:101000000E94F81B61E08AE00E941522CE01825AFC
:101010009F4F0E940A1C87EE92E00E94F81B80916D
:101020002604811109C061E087E00E94152261E079
:1010300083E995E00E943C1180914E0390914F030B
:10104000019709F044C080916203811140C060E0C3
:1010500071E00E94131C60E080E00E9415228FEE78
:1010600092E00E94F81B61E080E00E941522CE0110
:10107000845B9F4F0E940A1C60E083E995E00E9418
:101080003C1180E093E00E94F81B61E088E00E9440
:10109000152288E892E00E94F81B61E08AE00E9435
:1010A0001522CE018E5A9F4F0E940A1C85E093E0C4
:1010B0000E94F81B80912604811109C061E087E03D
:1010C0000E94152261E083E995E00E943C11CE0167
:1010D000845B9F4F0E945E1ECE018E5A9F4F0E94DE
:1010E0005E1ECE01885A9F4F0E945E1ECE01825A1C
:1010F0009F4F0E945E1E9CC51092260460E971E01D
:10110000CE0101960E94631ECE0101960E945F21CE
:10111000CE0101960E945E1E0E94442284E891E066
:101120000E94FB2160EA7FE080E090E00E941810BE
:1011300078CC853D69F480916305883849F48091C5
:101140006405843429F480916505863C09F4C7CC94
:1011500061E082E00E94AD0F64E670E080E090E024
:101160000E94181060E082E00E94AD0F62E370E020
:1011700080E090E00E94181061E082E00E94AD0FD4
:1011800064E670E080E090E00E94181060E082E089
:101190000E94AD0F62E370E080E090E00E941810C2
:1011A00061E082E00E94AD0F64E670E080E090E0D4
:1011B0000E94181060E082E00E94AD0F67E976E0BF
:1011C000CE0101960E94631ECE0101960E945F210E
:1011D000CE0101960E945E1E109226040E944422B7
:1011E0008BE692E0A9CC1F7D1C3409F0D3CC909102
:1011F000100181E0892780931001882319F00E9453
:101200004F22C8CC10929E0560E083E995E00E94D1
:10121000A810C0CC813009F019CD69E575E0CE0188
:1012200001960E946F1F0ACD0E94A11C182F1092D8
:10123000AD056091A5057091A60586ED91E00E942F
:10124000E32F892B61F48DE00E94840F892B39F400
:1012500061E08DE00E94AD0F64E876E013C010926B
:10126000AD056091A5057091A60586ED91E00E94FF
:10127000E32F892BD1F48DE00E94840F0197A9F40C
:101280006FE676E0CE0101960E94631ECE010196C4
:101290000E945F21CE0101960E945E1E60EA7FE0FF
:1012A00080E090E00E941810F9CC1092AD0560919A
:1012B000A5057091A6058EEC91E00E94E32F892B85
:1012C00061F48DE00E94840F019739F460E08DE0B5
:1012D0000E94AD0F6BE576E0D5CF1092AD05609121
:1012E000A5057091A6058EEC91E00E94E32F892B55
:1012F00041F48DE00E94840F892B19F465E476E0B7
:10130000C1CF1092AD05E090A505F090A605B701FC
:1013100088EC91E00E94E32F892BD9F56FE176E00C
:10132000CE0101960E94631ECE0101960E945F21AC
:10133000CE0101960E945E1E60ED77E080E090E0B5
:101340000E9418108091AD05811103C00E948C1C71
:10135000F9CF1092AD056091A5057091A60583E5C2
:1013600095E00E94471E0E94D12268EE73E080E063
:1013700090E00E94181080912C060E94840F892B07
:1013800009F099C380912B06811195C363E076E043
:10139000A3C3B70183EC91E00E94E32F892B09F0EE
:1013A00067CC65E473E0CE0101960E94631ECE0116
:1013B00001960E945F21CE0101960E945E1E68E5A3
:1013C0007BE180E090E00E9418106FE173E0CE01B5
:1013D00001960E94631ECE0101960E945F21CE01FC
:1013E00001960E945E1E6CEA7DE080E090E00E9423
:1013F000181065E173E0CE0101960E94631ECE01D4
:1014000001960E945F21CE0101960E945E1E64EC4F
:1014100079E080E090E00E9418106AE073E0CE016D
:1014200001960E94631ECE0101960E945F21CE01AB
:1014300001960E945E1E64EC79E080E090E00E94DC
:10144000181060E073E0CE0101960E94631ECE0189
:1014500001960E945F21CE0101960E945E1E64ECFF
:1014600079E080E090E00E9418106FEE72E0CE010B
:1014700001960E94631ECE0101960E945F21CE015B
:1014800001960E945E1E64EC79E080E090E00E948C
:1014900018106DED72E0CE0101960E94631ECE0120
:1014A00001960E945F21CE0101960E945E1E64ECAF
:1014B00079E080E090E00E94181065ED72E0CE01C6
:1014C00001960E94631ECE0101960E945F21CE010B
:1014D00001960E945E1E64EC79E080E090E00E943C
:1014E00018106CEC72E0CE0101960E94631ECE01D2
:1014F00001960E945F21CE0101960E945E1E64EC5F
:1015000079E080E090E00E94181065EC72E0CE0176
:1015100001960E94631ECE0101960E945F21CE01BA
:1015200001960E945E1E64EC79E080E090E00E94EB
:1015300018106AEB72E0CE0101960E94631ECE0184
:1015400001960E945F21CE0101960E945E1E64EC0E
:1015500079E080E090E00E9418106EEA72E0CE011F
:1015600001960E94631ECE0101960E945F21CE016A
:1015700001960E945E1E64EC79E080E090E00E949B
:1015800018106EE972E0CE0101960E94631ECE0132
:1015900001960E945F21CE0101960E945E1E64ECBE
:1015A00079E080E090E00E94181067E972E0CE01D7
:1015B00001960E94631ECE0101960E945F21CE011A
:1015C00001960E945E1E64EC79E080E090E00E944B
:1015D00018106FE872E0CE0101960E94631ECE01E2
:1015E00001960E945F21CE0101960E945E1E64EC6E
:1015F00079E080E090E056CEB70183EB91E00E9465
:10160000E32F892B09F04DC061EB75E0CE01019607
:101610000E94631ECE0101960E945F21CE010196B9
:101620000E945E1E60ED77E080E090E00E9418105E
:101630008091AD05811103C00E948C1CF9CF1092DE
:10164000AD056091A5057091A60583E595E00E9422
:10165000471E0E94D12268EE73E080E090E00E9475
:10166000181080912B06811105C061E080912C0635
:101670000E94AD0F80912B0681110EC06CEA75E0BF
:10168000CE0101960E94631ECE0101960E945F2149
:10169000CE0101960E945E1E68EB7BE080E090E048
:1016A000F2C1B70189EA91E00E94E32F892BE9F5A5
:1016B0006DE875E0CE0101960E94631ECE01019691
:1016C0000E945F21CE0101960E945E1E60ED77E0D0
:1016D00080E090E00E9418108091AD05811103C058
:1016E0000E948C1CF9CF1092AD056091A5057091F8
:1016F000A60583E595E00E94471E0E94D12268EE70
:1017000073E080E090E00E94181080912B06811118
:1017100005C060E080912C060E94AD0F80912B06E1
:101720008111BACF68E875E0ABCFB70181EA91E0EB
:101730000E94E32F892B99F463E875E0CE010196AE
:101740000E94631ECE0101960E945F21CE01019688
:101750000E945E1E6CED75E080E090E0A3CDB701C5
:101760008BE991E00E94E32F892B09F046C081E0CC
:1017700080935B0366E575E0CE0101960E94631ECF
:10178000CE0101960E945F21CE0101960E945E1E4D
:101790006CEA7DE080E090E00E9418108091AD0539
:1017A000811103C00E948C1CF9CF1092AD0560918D
:1017B000A5057091A60583E595E00E94471E0E944D
:1017C000D12268EE73E080E090E00E9418108091D2
:1017D0002B0681110AC081E080935A0380912C0668
:1017E000809359036DE375E04DCA813009F056CA04
:1017F00010925B0310925A0348C1B70181E991E04E
:101800000E94E32F892BB9F410925B0310925A03C4
:1018100061EC73E0CE0101960E94631ECE01019639
:101820000E945F21CE0101960E945E1E6CEA7DE05F
:1018300080E090E037CDB70186E891E00E94E32F89
:10184000892B59F581E0809358036DE175E0CE0155
:1018500001960E94631ECE0101960E945F21CE0177
:1018600001960E945E1E6CEA7DE080E090E00E949E
:1018700018108091AD05811103C00E948C1CF9CF16
:101880001092AD056091A5057091A60589E595E0DA
:101890000E94471E6BEF74E04EC1B70187E791E0ED
:1018A0000E94E32F892B29F41092580367ED74E00E
:1018B00042C1B7018EE691E00E94E32F892B09F027
:1018C000E7C061EB74E0CE0101960E94631ECE0179
:1018D00001960E945F21CE0101960E945E1E68EB78
:1018E0007BE080E090E00E9418108091AD058111AE
:1018F00003C00E948C1CF9CF1092AD056091A50524
:101900007091A60583E595E00E94471E0E94D122B2
:1019100080912B068111B3C060912C06862F062E74
:10192000000C990B909312018093110146E1CE01B6
:1019300001960E94DA21CE0101960E943C1668ECC5
:1019400070E080E090E00E941810CE0101960E94A5
:10195000B51B4B015C01CE0101960E946A1B6B0115
:101960007C01C501B4010E949A2DCE018A5B9F4F74
:101970000E94572220E030E040E85FE3C701B60153
:101980000E942D2D0E949A2DCE01C4960E945722AE
:101990006FEF73E0CE0182960E94631ECE018296A5
:1019A0000E945F21CE0182960E945E1E6CED75E062
:1019B00080E090E00E941810BE016C5C7F4FCE0169
:1019C00082960E946F1FCE0182960E945F21CE01F7
:1019D00082960E945E1E66EF73E0CE0182960E94A0
:1019E000631ECE0182960E945F21CE0182960E94E4
:1019F0005E1E68EB7BE080E090E00E94181065EED0
:101A000073E0CE0182960E94631ECE0182960E94F0
:101A10005F21CE0182960E945E1E60ED77E080E03D
:101A200090E00E941810BE016A5B7F4FCE01829643
:101A30000E946F1FCE0182960E945F21CE01829686
:101A40000E945E1E6CED73E0CE0182960E94631EC2
:101A5000CE0182960E945F21CE0182960E945E1E78
:101A600068E873E180E090E00E941810CE01C4960F
:101A70000E945E1ECE018A5B9F4F0E945E1E60ED3B
:101A800077E080E090E00E94181010922B0606C9C3
:101A9000B7018EE591E00E94E32F892B51F1B70148
:101AA0008EE491E00E94E32F892B19F1012F0F7D25
:101AB000043459F51EC080912C060E94840F0197B2
:101AC00021F480912B06882329F060EA7FE080E0F2
:101AD00090E0D9CF68EE75E0CE0101960E94631EBA
:101AE000CE0101960E945F21CE0101960E945E1EEA
:101AF000ECCF80912B068111CFCD81E080936103E3
:101B000080935C0361E974E0BBCDB7018DE391E0A4
:101B10000E94E32F892B49F0B7018CE291E00E94EB
:101B2000E32F892B11F01337B9F41092610310924F
:101B30005C036FE674E0CE0101960E94631ECE0145
:101B400001960E945F21CE0101960E945E1E68EB05
:101B50007BE080E090E0A6CB0C3499F490911001EA
:101B600081E0892780931001882319F00E944F2279
:101B700095C810929E0560E083E995E00E94A81048
:101B80008DC8B70185E291E00E94E32F892B49F0CF
:101B9000B7018DE191E00E94E32F892B11F01536FA
:101BA000B9F41092260466E574E0CE0101960E9415
:101BB000631ECE0101960E945F21CE0101960E9414
:101BC0005E1E0E9444228BE093E00E94F81B66CBCD
:101BD0006CE274E0CE0101960E94631ECE01019674
:101BE0000E945F21CE0101960E945E1E68E873E1AB
:101BF00080E090E057CB1092260463E174E0CE01C0
:101C000001960E94631ECE0101960E945F21CE01C3
:101C100001960E945E1E0E9444228BE093E00E9487
:101C2000F81B60EA7FE080E090E00E94181074C822
:101C3000C559DF4F0FB6F894DEBF0FBECDBFDF91A1
:101C4000CF911F910F91FF90EF90DF90CF90BF90B9
:101C5000AF909F908F907F906F905F904F9008957E
:101C6000FC01918D228D892F90E0805C9F4F821B1B
:101C700091098F73992708950E94F61E81110C9483
:101C80009E180895833081F028F4813099F08230D5
:101C9000A1F008958730A9F08830B9F08430D1F4EC
:101CA000809180008F7D03C0809180008F7780932A
:101CB0008000089584B58F7702C084B58F7D84BD80
:101CC00008958091B0008F7703C08091B0008F7D20
:101CD0008093B00008953FB7F894809111049091DB
:101CE0001204A0911304B091140426B5A89B05C05A
:101CF0002F3F19F00196A11DB11D3FBFBA2FA92F8B
:101D0000982F8827820F911DA11DB11DBC01CD0107
:101D100042E0660F771F881F991F4A95D1F70895F3
:101D200085ED8093BC008091BC0084FDFCCF1092B7
:101D3000210408954091A303262F30E0240F311D84
:101D400021323105DCF4209121042430C9F4FC0156
:101D500080E090E0861758F43091A3032191DC01D4
:101D6000AD57BC4FA30FB11D2C930196F3CF8091BB
:101D7000A303680F6093A30380E0089581E00895B2
:101D800082E00895089508950895E09125048091D2
:101D90002404E81730F4F0E0ED59FC4F808190E026
:101DA00008958FEF9FEF089590912504809124046A
:101DB000981750F4E92FF0E0ED59FC4F208130E006
:101DC0009F5F9093250402C02FEF3FEFC901089554
:101DD0008091240490E020912504821B91090895AC
:101DE000CF92DF92EF92FF920F931F93CF93DF93E7
:101DF0007C01CB018A012091EA03222389F0EB01C7
:101E00006B01C40ED51ECC15DD0569F06991D701B3
:101E1000ED91FC910190F081E02DC7010995F3CF80
:101E2000642F0E949A0EC801DF91CF911F910F91EC
:101E3000FF90EF90DF90CF900895CF93DF931F92A4
:101E4000CDB7DEB769832091EA032223D1F0209138
:101E50002204203240F021E030E0FC013383228371
:101E600080E090E015C080912304E82FF0E0E55178
:101E7000FC4F998190838F5F809323048093220489
:101E800005C061E0CE0101960E949A0E81E090E0CB
:101E90000F90DF91CF910895089580E090E008952C
:101EA000BC016E5F7F4FDC01ED91FC910190F081F0
:101EB000E02D40E0099591E0811190E0892F08958F
:101EC0000E94BD2FFC01848DDF01A80FB11DA35A14
:101ED000BF4F2C91848D90E001968F739927848F4A
:101EE000A689B7892C93A089B1898C91837080646D
:101EF0008C93938D848D981306C00288F389E02D0E
:101F000080818F7D80830895CF93DF93282F30E0E9
:101F1000F901E352F94F8491F901E85CF84FD4914B
:101F2000F901EC5DF84FC491CC2391F081110E942E
:101F3000420EEC2FF0E0EE0FFF1FE65EF84FA5918A
:101F4000B491EC91ED2381E090E021F480E002C0B7
:101F500080E090E0DF91CF9108951F93CF93DF93BE
:101F6000282F30E0F901E352F94F8491F901E85C40
:101F7000F84FD491F901EC5DF84FC491CC23C1F036
:101F8000162F81110E94420EEC2FF0E0EE0FFF1F82
:101F9000ED52F94FA591B4919FB7F894111104C077
:101FA0008C91D095D82302C0EC91DE2BDC939FBF9F
:101FB000DF91CF911F910895CF93DF9390E0FC01C3
:101FC000E85CF84F2491FC01EC5DF84F8491882384
:101FD00061F190E0880F991FFC01EF50F94FC59116
:101FE000D491FC01ED52F94FA591B491611109C052
:101FF0009FB7F8948881209582238883EC912E23C3
:102000000BC0623061F49FB7F8948881322F30950D
:1020100083238883EC912E2B2C939FBF06C08FB710
:10202000F894E8812E2B28838FBFDF91CF910895FC
:102030008F929F92AF92BF92CF92DF92EF92FF92D8
:102040006B017C010E946B0E4B015C01C114D10439
:10205000E104F104F1F00E946B0EDC01CB01881960
:102060009909AA09BB09883E9340A105B10570F3FF
:1020700021E0C21AD108E108F10888EE880E83E059
:10208000981EA11CB11CC114D104E104F10419F77C
:10209000DDCFFF90EF90DF90CF90BF90AF909F90FB
:1020A0008F9008952FB7F89460910D0470910E04ED
:1020B00080910F04909110042FBF08951F920F92EA
:1020C0000FB60F9211242F933F938F939F93AF934B
:1020D000BF9380910D0490910E04A0910F04B091D4
:1020E000100430910C0423E0230F2D3720F40196C7
:1020F000A11DB11D05C026E8230F0296A11DB11D2B
:1021000020930C0480930D0490930E04A0930F046D
:10211000B09310048091110490911204A0911304C3
:10212000B09114040196A11DB11D809311049093E8
:102130001204A0931304B0931404BF91AF919F9124
:102140008F913F912F910F900FBE0F901F90189578
:10215000CF93FC01C48121E02093EA03C0930B04D8
:1021600010922304109222048385682B8BE295E061
:102170000E941D0F90912204913208F045C0809179
:1021800021048111FCCF82E08093210481E08093BF
:1021900020048FEF8093E9031092E8039093E70304
:1021A000ABEEB3E0E7ECF3E080E0981721F02D917F
:1021B00021938F5FFACF1092C6038091C603CC0F94
:1021C000C82BC093C60380911F04813061F4109224
:1021D0001F048091C6038093BB008091BC0083FDE7
:1021E000F8CF85EC01C085EE8093BC00809121047E
:1021F0008230E1F38091E9038F3F31F08091E90370
:10220000803211F08091E90310922304109222048D
:102210001092EA03CF9108950F931F93CF938C01EF
:10222000C62F0E94A8106C2F6460C8010E94A810DD
:102230006C2F6B7FC8010E94A81083EC90E001977F
:10224000F1F7CF911F910F9108950F931F93CF93A3
:10225000DF938C01C62FD42F607F642B0E940C115A
:1022600080E1C89FB00111246D2BC801DF91CF918F
:102270001F910F910C940C1141E00E94251181E0F7
:1022800090E008951F920F920FB60F9211242F9392
:102290003F934F935F936F937F938F939F93AF93EE
:1022A000BF93EF93FF938091B900887F803609F444
:1022B0009CC068F5883209F45BC090F4803109F461
:1022C00054C038F4882309F4F6C0883009F44DC0AE
:1022D000F6C0883109F44CC0803209F45DC0EFC00B
:1022E000803409F468C048F4803309F455C0883359
:1022F00009F0E5C08093E903D8C0803509F44FC0E8
:10230000883509F45DC0883409F0D9C0D6C0883951
:1023100009F4C7C0A8F4883709F467C038F48836D0
:1023200009F463C0803709F460C0C9C0883809F473
:10233000B8C0803909F45FC0803809F0C0C05BC004
:10234000803B09F486C038F4803A09F466C0883AC4
:1023500009F47FC0B4C0803C09F4A7C0883C09F4EC
:10236000A4C0883B09F48AC0AAC08091C60310C0EB
:102370009091E8038091E703981770F5E091E803E6
:1023800081E08E0F8093E803F0E0E953FC4F8081F9
:102390008093BB0085EC86C08093E9038EC0E091FA
:1023A000E80381E08E0F8093E8038091BB00F0E0AA
:1023B000E953FC4F80839091E8038091E7036EC05E
:1023C000E091E80381E08E0F8093E8038091BB00E9
:1023D000F0E0E953FC4F80838091200481116DC0AF
:1023E00081E080931F0484EA61C083E0809321042C
:1023F0001092C503CFCF8091C503803208F051C041
:10240000E091C50381E08E0F8093C5038091BB00EE
:10241000F0E0EB55FC4F8083BDCF85EC8093BC0092
:10242000109221048091C503803230F4E091C503FD
:10243000F0E0EB55FC4F10826091C50370E0E09135
:102440001B04F0911C0485EA93E009951092C503E2
:1024500036C084E0809321041092A4031092A30359
:10246000E0911D04F0911E0409958091A303811150
:1024700005C081E08093A30310928303E091A4033D
:1024800081E08E0F8093A403F0E0ED57FC4F808134
:102490008093BB009091A4038091A303981708F444
:1024A00079CF85E88093BC000AC085EC8093BC009E
:1024B0001092210404C01092E9030E94900EFF9133
:1024C000EF91BF91AF919F918F917F916F915F91AC
:1024D0004F913F912F910F900FBE0F901F90189525
:1024E000CF92DF92EF92FF920F931F93CF93DF93E0
:1024F000EC016B01142F790140E062E00E941F168D
:1025000044E06AE0CE010E941F1640E864E1CE017B
:102510000E941F16A601612FCE010E94CA1C43E033
:1025200062E0CE010E941F1608E813E16AE0CE01C6
:102530000E94011682FF13C040E062E0CE010E94BB
:102540001F1664E4CE010E940116F701808362E445
:10255000CE010E940116F701818380E004C0015082
:10256000110921F783E0DF91CF911F910F91FF9027
:10257000EF90DF90CF9008950F931F93CF93DF9349
:102580008C01D62FC42F0E940116C0954C2F4823D2
:102590006D2FC801DF91CF911F910F910C941F16E1
:1025A0008F929F92AF92CF92EF92FF920F931F93D1
:1025B000CF93DF9300D000D01F92CDB7DEB74C0190
:1025C00082E08D8340E064E2C4010E941F1640E077
:1025D00066E2C4010E941F1646E268E4C4010E943C
:1025E0001F1686E28B838D81823018F140E86CE102
:1025F000C4010E94BC1287E08C83A12CC12CCE01A7
:1026000004967C018E010B5F1F4F9E012F5F3F4F91
:1026100041E0BE016D5F7F4FC4010E94FC1C81112F
:102620000BC08D81823039F481E09C81911104C00E
:1026300008C084E001C081E091E0823019F090E0B0
:1026400001C091E0892F0F900F900F900F900F9085
:10265000DF91CF911F910F91FF90EF90CF90AF90AE
:102660009F908F9008952F923F924F925F926F921A
:102670007F928F929F92AF92BF92CF92DF92EF9212
:10268000FF920F931F93CF93DF93CDB7DEB72C97B5
:102690000FB6F894DEBF0FBECDBF413508F006C1BE
:1026A000342E3B014C0140E86CE10E94BC12222414
:1026B000239432E0231691F083E02816E1F091E0B4
:1026C0002912F6C083E989833320D1F081E0F30138
:1026D0009081953008F480E0B12C17C0F5E9F983BA
:1026E000332081F081E0F3019081983008F480E09C
:1026F00043E0B42E0AC087E9898336E0B32E04C0D4
:10270000B12C02C023E0B22E80E0D32CF8E0BF9EB3
:10271000D0181124D7FCD12C882321F098E89B8372
:1027200033E001C032E021E09D2D977009F420E0F4
:102730009D2D959595959595290F31F4882309F44C
:1027400092C038E0D30E8FC0811102C094E001C066
:1027500093E0291708F4922FEB2DF0E03196E60D67
:10276000F71D232F4191A1E0B0E0AC0FBD1FA20FD8
:10277000B11D4C932F5F422F431B491798F3DECFB7
:102780008111DEC09FE19D150CF494C080E2D82E2B
:1027900090E79A839B818C8189279D8189279E81DF
:1027A00089278F839E01285F3F4F47E0BE016F5FFF
:1027B0007F4FC4010E9470128111A3C01A86E3E00A
:1027C000EB87CE0107962C0199E09C87CA844C2D9B
:1027D0004295407F4C0D6AE1C4010E941F16A12C56
:1027E000CE010A967C018E01055F1F4F92014C8538
:1027F000BE016F5F7F4FC4010E94FC1C182F823006
:1028000009F0BECF6CE1C4010E94011685FD98C09D
:102810008F7109F480E2282F30E04D2DDD0C550B2F
:10282000421753070CF044C0D82E859585958595A1
:1028300091E0980F422F477081E009F480E0890F02
:10284000E1E0F0E0EC0FFD1FE80FF11D2150310930
:102850002770332781E090E001C0880F2A95EAF7BE
:102860009081892B80838FE18D150CF491CF9D2D64
:1028700097709A878D2D8595859585958E5F292FE3
:10288000E0E18E9F200D11242A8321E0911101C0E7
:1028900020E0280F2C8744244394512C4C0E5D1EBD
:1028A000480E511CF9E0F81BFB8790CF16E048C09A
:1028B00015E046C08B81883809F43FC082E094E07F
:1028C000EB2DF0E03196E60DF71D980FA1E0B0E09A
:1028D000AC0FBD1FA80FB11D2C9121938F5F8913E1
:1028E000F5CF8B85833029F58A85811122C09E0121
:1028F0002D5F3F4F41E0B201C4010E947012882356
:1029000011F0182F1DC09B81F2018181981313C013
:102910009C81828198130FC0808182FF02C0239422
:10292000C8CEF3018387822D880F820D8F5F80834D
:1029300007C011E005C017E003C083E093E0C0CFFB
:10294000812F2C960FB6F894DEBF0FBECDBFDF915E
:10295000CF911F910F91FF90EF90DF90CF90BF909C
:10296000AF909F908F907F906F905F904F903F902F
:102970002F90089580918804882329F080918904FC
:1029800090918A04089588E395E0089580918D04DC
:10299000882321F09091370581E08927089570E020
:1029A000DC015296ED91FC915397E60FF71F2081C1
:1029B000222359F0660F771F5096ED91FC915197A5
:1029C000E60FF71F80819181089580E090E00895DF
:1029D0006F927F928F929F92AF92BF92CF92DF922F
:1029E000EF92FF920F931F93CF93DF93EC010E941E
:1029F000BA14DC011B962C911B97213009F04AC0B8
:102A00005296ED91FC915397608000E010E0712C9C
:102A10004E01BFE48B0E911C7E01E9E4EE0EF11C29
:102A20006E01FDE4CF0ED11C5E0189E0A80EB11C41
:102A3000061517057CF5CE010E94BA1460E00E94CD
:102A4000CF14800F911FDC018C91F4012081318122
:102A500020343105E1F0D701ED91FC9111979F01F0
:102A60002F5F3F4F11963C932E938083F40180811A
:102A700091810196918380832D913C91D6018D9116
:102A80009C912817390719F4F701B182A0820F5FD2
:102A90001F4FCECFDF91CF911F910F91FF90EF90FD
:102AA000DF90CF90BF90AF909F908F907F906F906E
:102AB00008950F931F93CF93DF93EC011F828881BA
:102AC0008823E1F000E010E0288530E088899989CA
:102AD000021713077CF49801220F331FFC01E20F49
:102AE000F31F80819181009711F00E946E2E0F5F7D
:102AF0001F4FEACF18860E946E2E18828981882384
:102B000029F08A899B890E946E2E1982DF91CF91CC
:102B10001F910F910895CF93DF93EC010E94C6148B
:102B20008823A1F010928D0481E08E831F9284E0AF
:102B30008F931F921F92DF93CF930E94F61F1E82E6
:102B40000F900F900F900F900F900F90DF91CF91FB
:102B50000895CF93DF93EC010E94C614811114C035
:102B600081E080938D048E831F9283E08F931F9268
:102B70001F92DF93CF930E94F61F1E820F900F903B
:102B80000F900F900F900F90DF91CF910895CF93FA
:102B9000DF93EC010E94BA143B81FC0121853213C2
:102BA00022C083858F3FB1F48A818823E1F088E3D6
:102BB00095E00E94C614811116C088E395E00E943A
:102BC000A915EC81FD81099588E395E0DF91CF910E
:102BD0000C948B15E881F9810280F381E02DCE0100
:102BE000DF91CF910994DF91CF91089508958EBD23
:102BF00000000DB407FEFDCF8EB508958CBD9DBDC0
:102C000008951F93CF93DF93EC01162F83E590E097
:102C10000E94FE1560E08E850E94AD0F812F8068B6
:102C20000E94F71580E00E94F715182F61E08E854D
:102C30000E94AD0F812FDF91CF911F9108950F93C7
:102C40001F93CF93DF93EC01062F142F83E590E0C1
:102C50000E94FE1560E08E850E94AD0F802F0E94BD
:102C6000F715812F0E94F71561E08E85DF91CF91D6
:102C70001F910F910C94AD0FCF93DF93EC0162E0A5
:102C80008D810E94DC0F80E398EFAFEFBFEF898763
:102C90009A87AB87BC87DF91CF9108958F929F92DF
:102CA000AF92BF92CF92DF92EF92FF920F931F935A
:102CB000CF93DF931F92CDB7DEB77C018B010E94CB
:102CC00052108090150490901604A0901704B090B4
:102CD0001804DC01CB0188199909AA09BB09813DB7
:102CE0009740A105B10548F089288A288B2829F04A
:102CF000D70117968C9181110FC20E9452106093D8
:102D00001504709316048093170490931804F70128
:102D10009781911114C00F3F110589F4C7010E94DA
:102D2000591581E0D70117968C93179751961C92ED
:102D30001E92509753961C921E9252971FC0F701F5
:102D40008485843041F4992309F4EAC116861586F6
:102D5000078785E0C5C0853059F5992309F4E0C19E
:102D6000D7012785C22ED12C8FEF90E08C199D09B9
:102D700008171907B9F5211104C089E01C968C9336
:102D8000CFC1C601880F991F0E94D62DF701918BE4
:102D9000808B11E01083C6010E94D62DD701539677
:102DA0009C938E93529711961C93119786E0E6CFD1
:102DB0008630D9F0873009F053C0992309F4B0C1A7
:102DC000F701258530E00288F389E02DE20FF31F3B
:102DD0006081862F90E04FEF50E0481B590B04179D
:102DE000150779F0F701178254C1992309F498C1A6
:102DF000D70185850288F389E02DE80FF11D008356
:102E000068C0220F331FD70150960D911C91519726
:102E1000662369F0020F131F0E94D62DF8019183DB
:102E20008083D7011C968C911C978F5F12C0F8018C
:102E3000E20FF31F11821082F701168685858F5FDE
:102E400085879785891303C089E0848704C086E05D
:102E5000D7011C968C93F70180858F5F808760C1B6
:102E6000883009F03FC0992309F45AC1D7018585FC
:102E700020899189E22FF92FE80FF11DE80FF11D4C
:102E800080819181009759F01E962C911E9731E018
:102E9000320F1E963C93FC01E20FF11D0083F701F7
:102EA00085850288F389E02DE80FF11DD7011E9674
:102EB0002C911E979081291333C11E961C921E9748
:102EC0008F5F1D968C931D971F969C911F9789135A
:102ED00005C01C968C911C978F5F50CF86E0F70140
:102EE00084871EC1893009F0D8C0992309F418C11C
:102EF000048B0111CEC017828091410581118CC0D5
:102F00008385823051F412828381882309F49EC024
:102F10000588F689E02D80E00CC0813061F4F7016E
:102F200082838381882309F491C00588F689E02D86
:102F300081E009958BC0833081F41F9281E08F93EB
:102F40001F921F92FF92EF920E94F61F0F900F9018
:102F50000F900F900F900F9079C0853009F076C0D8
:102F600060E0C7010E94CF144BE050E0BC0187E154
:102F700093E00E94C22F892B09F068C01982D70103
:102F80005296ED91FC915397A180B12C00E010E096
:102F9000C12CD12C0A151B056CF461E0C7010E94FD
:102FA000CF14800F911FFC018081C80ED11C0F5FD0
:102FB0001F4FF0CFC98284E090E00E94D62D8C0193
:102FC000DC0113961C92139781E08C93CE0101963D
:102FD00012969C938E93119784E090E00E94D62DD8
:102FE000FC01138287E1808383E293E092838183F3
:102FF0001F930F93FF93EF9382E08F9385E08F935E
:103000001F921F92FF92EF920E94F61F0FB6F89444
:10301000DEBF0FBECDBF1AC028E2C22E24E0D22EE2
:1030200000E010E08091860490E00817190774F41E
:10303000D6018D919D916D01DC01ED91FC91019086
:10304000F081E02D09950F5F1F4FECCFF7018481D0
:103050008823F9F081858823E1F0C7010E94A91532
:10306000D70150960D911C91519752962D913C91FC
:1030700053975796ED91FC9158971F964C911F9737
:103080001B966C911B9719968C910995C7010E940C
:103090008B15C7010E94591543C0992309F440C0FC
:1030A000813001F5602FF7010187002391F19481B0
:1030B00091112FC04091860450E0E8E2F4E020E056
:1030C00030E02417350754F4A191B19113967C9107
:1030D000671301C091E02F5F3F4FF3CF992309F4AD
:1030E00081CE17C0823089F402872FEF30E0201B99
:1030F000310994E0359527959A95E1F70F7010E026
:103100002017310731F0178204C0833011F4F70122
:1031100003878F5FD70132CEC7010E945915EDCDCD
:103120000F90DF91CF911F910F91FF90EF90DF9063
:10313000CF90BF90AF909F908F900895CF93DF93E3
:1031400080911904811132C080918B0490918C047C
:10315000DC01ED91FC910084F185E02D0995892B2E
:1031600029F180918B0490918C04DC01ED91FC910C
:103170000284F385E02D0995EC01BC01772788E3F3
:1031800095E00E944E1680913D058823E9F288E380
:1031900095E00E94A915E0915105F09152058C2F00
:1031A000099588E395E00E948B15CECFDF91CF91F2
:1031B0000895CF93DF93EC0180911A04882359F08E
:1031C00080918B0490918C04DC01ED91FC91019035
:1031D000F081E02D09958E81811108C062E070E0D8
:1031E00080E090E0DF91CF910C941810DF91CF91A7
:1031F0000895CF92DF92EF92FF920F931F93CF9398
:10320000DF93CDB7DEB72C970FB6F894DEBF0FBEB5
:10321000CDBF8C010E94BA147C01DC011B968C91FD
:10322000813009F089C0F80186819781009711F0FB
:103230000E946E2EC8010E94BA14DC015296ED91D4
:10324000FC915397808190E0F801918780870196E7
:103250000E94D62DD80117969C938E931697E12C39
:10326000F12CF8018085918526813781E816F906D1
:103270009CF46901CE0CDF1CC8010E94BA1460E006
:103280000E94CF148E0D9F1DDC018C91F60180836E
:10329000FFEFEF1AFF0AE5CFF901E80FF91F1082DF
:1032A00081E0D8011E968C9388E395E00E94C614B5
:1032B000811168C0F8018285882391F088E395E048
:1032C0000E94A915D8015096ED91FC915197169640
:1032D0008D919C911797099588E395E00E948B1535
:1032E000F8018585882309F44DC066817781CE0178
:1032F00001960E94891F88E395E00E94A915D801D4
:1033000052960D911C915397BE016F5F7F4FCE0176
:1033100007960E946F1FCE010796F8010995CE010E
:1033200007960E945E1E88E395E00E948B15CE01F1
:1033300001960E945E1E26C0823021F588E395E04A
:103340000E94C61481111EC060E0C7010E94CF1404
:10335000FC018081D8011F968C931F971B968C913E
:10336000882381F088E395E00E94A915D80154963E
:10337000ED91FC9155971F968C91099588E395E006
:103380000E948B152C960FB6F894DEBF0FBECDBFF2
:10339000DF91CF911F910F91FF90EF90DF90CF9031
:1033A00008958F929F92AF92BF92CF92DF92EF9249
:1033B000FF920F931F93CF93DF93CDB7DEB7C05427
:1033C000D1400FB6F894DEBF0FBECDBF8C010E9476
:1033D0005210F801C184D284E384F4849B01AC01CF
:1033E0002C193D094E095F0969017A0130EDC316B8
:1033F00037E0D306E104F10410F48189B4C0F80188
:103400006187728783879487148213821282118264
:10341000108261E085810E94AD0F6AEF70E080E06C
:1034200090E00E94181061E0F80185810E94DC0F95
:1034300060E0F80185810E94AD0F64E170E080E0FA
:1034400090E00E941810F89461E0F80185810E94D4
:10345000AD0F8BE990E00197F1F762E0F80185810B
:103460000E94DC0F83E290E00197F1F760E0C80171
:103470000E948322672B682B692B21F4F801118AA3
:10348000789442C061E0C8010E948322672B682BB8
:10349000692BA1F39E012F5F3F4F79015E013FEB46
:1034A000A31A3EEFB30A670160E0C8010E948322BD
:1034B000F601608371838283938361E0C8010E9477
:1034C0008322F6016483758386839783F8E0CF0EA9
:1034D000D11CCA14DB0441F7789420E030E0F701F6
:1034E00080809180A280B3804481558166817781FC
:1034F00081149104A104B10429F04115510561051D
:10350000710521F4F801118A80E02DC0F90183E0F2
:10351000F595E7958A95E1F7E00FF11F8081880F17
:1035200084169506A606B70608F4816080832F5F8F
:103530003F4FF8E0EF0EF11C2832310581F6F8011B
:10354000248130E04081818190E0840F911D42818F
:10355000840F911D4381840F911D992728173907E6
:1035600089F681E0818BC05CDE4F0FB6F894DEBF38
:103570000FBECDBFDF91CF911F910F91FF90EF90C4
:10358000DF90CF90BF90AF909F908F9008950F9352
:103590001F93CF93DF93FC0101900020E9F731974F
:1035A000EF01C81BD90B51F18C0184E090E00E941F
:1035B000D62DFC0113829E01CF3FD10519F014F0E6
:1035C0002FEF30E0208312830183FF93EF9381E09C
:1035D0008F938091C1058F931F928091C3058F9324
:1035E00088E395E09F938F930E94F61F8DB79EB757
:1035F00008960FB6F8949EBF0FBE8DBFDF91CF9196
:103600001F910F9108950F931F93CF93DF93EC01B8
:1036100088819981009729F02A813B8126173707F5
:1036200088F48B016F5F7F4F0E94F72E009761F047
:10363000998388831B830A832C813D81232B11F47A
:10364000FC01108281E001C080E0DF91CF911F91E9
:103650000F910895EF92FF920F931F93CF93DF93F3
:103660006115710511F480E01CC041155105C1F0D0
:103670007B01EC018C819D818A01080F191FB80123
:10368000CE010E94031B882371F3288139818C812C
:103690009D81B701820F931F0E94EC2F1D830C8325
:1036A00081E0DF91CF911F910F91FF90EF900895EE
:1036B000CF93DF93EC0188819981009711F00E94EC
:1036C0006E2E198218821D821C821B821A82DF9143
:1036D000CF910895CF92DF92EF92FF921F93CF93F5
:1036E000DF93EC010E94D119882399F18E818B30F0
:1036F00029F078F18551823040F02BC06A8170E06A
:1037000080E090E00E94982B28C01A81612F6F778B
:1037100070E080E090E00E949A2B20E030E040E8EA
:1037200053E40E94D52B6B017C016B8170E080E03B
:1037300090E00E949A2BA70196010E942E2D2DEC5D
:103740003CEC4CEC5DE30E94D52B17FF06C0905873
:1037500004C060E070E080EC9FE7DF91CF911F91A3
:10376000FF90EF90DF90CF900895CF92DF92EF928D
:10377000FF92CF93DF93EC010E94D119882369F166
:103780008E818B3019F148F18551823030F5688196
:1037900070E080E090E00E94982B20E030E040E86C
:1037A00053E40E94D52B6B017C01698170E080E0BD
:1037B00090E00E949A2BA70196010E942E2D2DECDD
:1037C0003CEC4CEC5DE30E94D52B0BC0688170E0B3
:1037D00080E090E00E94982B04C060E070E080ECF4
:1037E0009FE7DF91CF91FF90EF90DF90CF9008950A
:1037F000009769F0FC0101900020E9F73197AF01D3
:10380000481B590BBC0183E995E00C949B1E80E09A
:1038100090E00895FC01448155816081718183E9C4
:1038200095E00C949B1E0F931F93CF93DF938B0116
:10383000877098E0899FB0011124606440E083E9BB
:1038400095E00E942511E801085F1F4F699183E907
:1038500095E00E943C11C017D107C1F7DF91CF91CD
:103860001F910F910895EF92FF920F931F93CF93A3
:10387000DF93CDB7DEB70DB71EB7FC0124813581CC
:10388000232B29F0608171816115710521F410925B
:10389000870467E874E0FB0101900020E9F7CF019D
:1038A000861B970B02962DB73EB7281B390B0FB618
:1038B000F8943EBF0FBE2DBF8DB79EB701967C0119
:1038C000EDB7FEB711820E94D82F6BE373E0C701FA
:1038D0000E94D82FC7010E94C71A0FB6F8941EBFC6
:1038E0000FBE0DBFDF91CF911F910F91FF90EF9011
:1038F0000895CF93DF93EC01FB01448155816081F2
:1039000071810E942A1B811103C0CE010E94581BA5
:10391000CE01DF91CF910895CF93DF9300D01F9216
:10392000CDB7DEB78DE089838AE08A831B82CE0122
:1039300001960E94C71A0F900F900F90DF91CF91C0
:10394000089520910A0630910B061216130604F50D
:10395000E0910606F0910706AF014F5F5F4F50936D
:1039600007064093060680812150310930930B06EB
:1039700020930A0620910806309109064217530742
:1039800041F424EC35E030930706209306060895B1
:103990008FEF0895DF92EF92FF920F931F93CF93D3
:1039A000DF938C01F62ED42EE52E83E590E00E9465
:1039B000FE1560E0F80186850E94AD0F82E10E944D
:1039C000F715CD2DDE2DCE018F0D911D7C01EC164E
:1039D000FD0621F089910E94F715F9CF61E0F80109
:1039E00086850E94AD0FDF91CF911F910F91FF90BF
:1039F000EF90DF900C94F6154F925F926F927F924A
:103A00008F929F92AF92BF92CF92DF92EF92FF92EE
:103A10000F931F93CF93DF9300D0CDB7DEB74C0148
:103A20002B01D42E3901E114F10419F0F701408182
:103A300001C040E0B42EF0E1CF9EB00C112440E074
:103A400062E0C4010E941F164FE768E0C4010E94B3
:103A50001F1640E864E1C4010E941F16A2016D2DEB
:103A6000C4010E94CA1C4B2D6AE1C4010E941F16AA
:103A70004CE062E0C4010E941F166AE1C4010E948A
:103A80000116482F40686AE1C4010E941F1680EDAC
:103A9000482E87E0582E68E0C4010E940116982F36
:103AA000907341F480FD04C081E0481A510899F7F1
:103AB00083E0A0C06CE0C4010E940116D82E83717F
:103AC00009F095C06114710409F45AC0011511057B
:103AD00009F456C064E1C4010E940116B82EF80131
:103AE00080818B1508F47DC0B082BB20F1F183E5A5
:103AF00090E00E94FE1560E0F40186850E94AD0F03
:103B0000BA9482E90E94F715CC20A9F08FEF90E0DB
:103B10002C0101C0440CCA94EAF782E90E94F7150F
:103B2000242D2095F301908192238421892B808379
:103B3000CC24C39401C0C12C4C2C512C460C571CD6
:103B4000CB1438F482E90E94F715F2018083C39404
:103B5000F3CF80E00E94F715F201808361E0F40169
:103B600086850E94AD0F0E94F61568E1C4010E948F
:103B700001168770E114F10421F0F701808301C080
:103B800080E0D3FC30C06114710479F10115110596
:103B900061F1AA2051F1F8014081413021F48430D3
:103BA00041F58FEF27C0423020F1811122C04250F1
:103BB0009E012F5F3F4FB301C4010E94701281111B
:103BC00019C0F8018081680E711CF3013297908151
:103BD000898198130EC0319690818A81981309C00B
:103BE00004C084E007C082E005C080E003C081E03B
:103BF00001C087E00F900F90DF91CF911F910F913F
:103C0000FF90EF90DF90CF90BF90AF909F908F90FC
:103C10007F906F905F904F900895CF93DF93EC016A
:103C20006115710561F0FB0101900020E9F7319702
:103C3000AF01461B570B0E942A1B811103C0CE0106
:103C40000E94581BCE01DF91CF910895EF92FF9211
:103C50000F931F93CF93DF93EC017B018A01BA018D
:103C60000E94031B811104C0CE010E94581B07C093
:103C70001D830C83B701888199810E94EC2FCE01AE
:103C8000DF91CF911F910F91FF90EF900895CF9307
:103C9000DF93EC016115710559F0FB0101900020E3
:103CA000E9F73197AF01461B570B0E94261E02C051
:103CB0000E94581BCE01DF91CF910895FC018081B5
:103CC00091810C946E2EEF92FF920F931F93CF93DE
:103CD000DF93EC01198218821B821A821D821C82DA
:103CE0006115710509F18B01CB010E9428297C0126
:103CF000BC01CE010E94031B811109C0CE01DF91DE
:103D0000CF911F910F91FF90EF900C94581BFD8263
:103D1000EC82B80188819981DF91CF911F910F9139
:103D2000FF90EF900C942129DF91CF911F910F917B
:103D3000FF90EF900895CF92DF92EF92FF920F9352
:103D40001F93CF93DF936C017A018B01C0E0D0E029
:103D5000CE15DF0581F0D8016D918D01D601ED9171
:103D6000FC910190F081E02DC6010995892B11F09D
:103D70002196EECF7E01C701DF91CF911F910F9168
:103D8000FF90EF90DF90CF900895FC01538D448D0C
:103D9000252F30E0842F90E0821B930B541710F0F6
:103DA000CF96089501970895FC01918D828D981703
:103DB00061F0828DDF01A80FB11D5D968C91928D0F
:103DC0009F5F9F73928F90E008958FEF9FEF08950C
:103DD000FC01918D828D981731F0828DE80FF11DD5
:103DE000858D90E008958FEF9FEF08958EE894E021
:103DF0000E94300E21E0892B09F420E0822F0895E3
:103E0000EF92FF920F931F93CF93DF93EC0181E02A
:103E1000888F9B8D8C8D981305C0E889F9898081E6
:103E200085FD26C0F62E0B8D10E00F5F1F4F0F7320
:103E30001127E02E8C8DE8120CC00FB607FCFACFCC
:103E4000E889F989808185FFF5CFCE010E94620F54
:103E5000F1CF8B8DFE01E80FF11DE35AFF4FF08289
:103E60009FB7F8940B8FEA89FB89808180620AC032
:103E70009FB7F894EE89FF896083E889F98980818A
:103E80008370806480839FBF81E090E0DF91CF9159
:103E90001F910F91FF90EF900895CF93DF93EC0166
:103EA000888D8823C9F0EA89FB89808185FD05C05A
:103EB000A889B9898C9186FD0FC00FB607FCF5CF94
:103EC000808185FFF2CFA889B9898C9185FFEDCFDC
:103ED000CE010E94620FE7CFDF91CF910895FB01E1
:103EE000DC0111961C921E9213961C921E92129740
:103EF00015961C921E9214978617970749F06081B9
:103F000071816115710521F0448155810C94261E43
:103F10000895FC011182108213821282158214828C
:103F20006115710551F0FB0101900020E9F731970F
:103F3000AF01461B570B0C94261E08951F920F923B
:103F40000FB60F9211242F933F934F935F936F936C
:103F50007F938F939F93AF93BF93EF93FF938EE8DD
:103F600094E00E94620FFF91EF91BF91AF919F91FA
:103F70008F917F916F915F914F913F912F910F9012
:103F80000FBE0F901F9018951F920F920FB60F92B1
:103F900011242F938F939F93EF93FF93E0919E04AF
:103FA000F0919F048081E091A404F091A50482FD2A
:103FB00012C090818091A7048F5F8F732091A80415
:103FC000821751F0E091A704F0E0E257FB4F958F84
:103FD0008093A70401C08081FF91EF919F918F9101
:103FE0002F910F900FBE0F901F9018955F926F92B8
:103FF0007F928F929F92AF92BF92CF92DF92EF9279
:10400000FF920F931F93CF93DF93CDB7DEB76B97DC
:104010000FB6F894DEBF0FBECDBF0DA51EA55FA4E1
:10402000CAA80E945210552009F488C020910C069D
:10403000222309F483C080900D0690900E06A09074
:104040000F06B090100681149104A104B10409F484
:1040500075C0DC01CB0188199909AA09BB09019631
:10406000A11DB11D883C9105A105B10508F066C0F0
:1040700080918D0428EC820E911CA11CB11C882318
:1040800009F44EC01A861B861C861D861E861F8656
:10409000188A1D8A198619821A8210923705188685
:1040A0001B821C821D821E821F82CE0101967C0112
:1040B00090938A048093890481E0809388040E940D
:1040C0005210681579058A059B0508F4BFC08885DC
:1040D0008111BCC02DC0F8018781882379F18091BE
:1040E0008B0490918C04DC01ED91FC910084F185AE
:1040F000E02D0995892BA1F080918B0490918C047F
:10410000DC01ED91FC910284F385E02D09958F3F50
:10411000BFEF9B0729F0BC0188E395E00E944E1693
:104120000E945210681579058A059B05C0F2D3CF0D
:1041300010928A04109289041092880481E080937E
:104140000C067E01E3E3EE0EF11C6FEFC8010E9446
:10415000D91862E1C8010E94D918652DC8010E94D2
:10416000D9180E94CA2820E130E040E050E00E94C7
:10417000932C962F9095F0E19F9FC00111246F70B2
:10418000682BC8010E94D91869A9C8010E94D918D2
:104190006C2DC8010E94D9186C2D6095C8010E9431
:1041A000D918812C912CD12C8C149D04CCF537017D
:1041B00022E0620E711CD701ED90FC90F701608146
:1041C000C8010E94D918D7016C916095C8010E945E
:1041D000D918A12CB12CF701808190E0A816B9065E
:1041E0006CF40180F281E02DEA0DFB1D6081C801B5
:1041F0000E94D918FFEFAF1ABF0AEDCFE114F10406
:1042000051F08381882321F0818192810E946E2E5A
:10421000C7010E946E2EBFEF8B1A9B0A7301C4CF99
:1042200060E0C8010E94D918552099F10E945210EF
:10423000DC01CB010196A11DB11D80930D06909369
:104240000E06A0930F06B093100623C080918B0436
:1042500090918C04DC01ED91FC910084F185E02DBE
:104260000995892B09F42BCF80918B0490918C04B4
:10427000DC01ED91FC910284F385E02D09958F3FDF
:10428000BFEF9B0709F41BCFBC01C7010E944E166C
:1042900016CF6B960FB6F894DEBF0FBECDBFDF9181
:1042A000CF911F910F91FF90EF90DF90CF90BF9033
:1042B000AF909F908F907F906F905F9008950F9335
:1042C0001F93CF93DF93FC0124813581232B29F0A9
:1042D000008111810115110521F41092870407E86E
:1042E00014E0F80101900020E9F73197EF01C01BBD
:1042F000D10B31F184E090E00E94D62DFC011382B5
:104300009E01CF3FD10519F014F02FEF30E020834C
:1043100012830183FF93EF9381E08F938F931F921A
:1043200083E28F9388E395E09F938F930E94F61F1B
:104330008DB79EB708960FB6F8949EBF0FBE8DBF7F
:10434000DF91CF911F910F910895209157053091E2
:104350005805DC0114964D915C911597241735078B
:1043600021F5E0915305F09154056D917C913097C2
:1043700019F06115710599F46115710549F0232B48
:10438000B1F0FB01808190E09195819591090AC07F
:10439000309769F0232B59F0808190E003C0CF0162
:1043A0000E94E32F21E0892B19F020E001C021E0D9
:1043B000822F0895DC0115966C93159716964C93F1
:1043C000169770E0FB01E85CF84FE4911796EC93C8
:1043D0001797FB01EC5DF84F649118966C93189752
:1043E00040E85EE360E070E01D964D935D936D9351
:1043F0007C93509708950F931F93CF93DF938C0175
:10440000C0E0D0E0F801EC0FFD1F6491662339F0A5
:1044100041E083E995E00E9425112196F3CFCE017A
:10442000DF91CF911F910F910895CF93DF93CDB777
:10443000DEB728970FB6F894DEBF0FBECDBF98E069
:10444000EDEDF1E0DE01119601900D929A95E1F704
:1044500090919B05961710F46FEF690FFE0131964E
:10446000E60FF11DE60FF11D6081680F606840E006
:1044700083E995E028960FB6F894DEBF0FBECDBF56
:10448000DF91CF910C94251140E061E083E995E044
:104490000E9425118BE39FE10197F1F7089588E0D1
:1044A00080939E0560E083E995E00C94A8100F933B
:1044B0001F93CF93DF93CDB7DEB762970FB6F89413
:1044C000DEBF0FBECDBF8C01CB01F801118210827F
:1044D00013821282158214824AE0BE016F5F7F4F01
:1044E0000E943129BE016F5F7F4FC8010E94471EA5
:1044F00062960FB6F894DEBF0FBECDBFDF91CF91AD
:104500001F910F9108958F929F92AF92BF92CF9279
:10451000DF92EF92FF92CF93DC011796CC91179721
:10452000662311F09C2F01C090E018962C911897EB
:1045300030E0220F331F265E384F40E050E0BA01D2
:10454000F901E590F490F70180818C2389131AC05A
:104550004A015B01FFEF8F1A9F0AAF0ABF0A1D963F
:10456000CD90DD90ED90FC9050974C155D056E055B
:104570007F0518F4B501A401E3CF30E020E080E02E
:1045800090E003C0342F252FCB01632F722FCF91E2
:10459000FF90EF90DF90CF90BF90AF909F908F9063
:1045A00008951F93CF93DF93CDB7DEB762970FB611
:1045B000F894DEBF0FBECDBF60EE77E0CE0101966E
:1045C0000E94631ECE0101960E94A521182FCE01E4
:1045D00001960E945E1E112329F010922C066DEDAB
:1045E00077E0CDC169ED77E0CE0101960E94631EB0
:1045F000CE0101960E94A521182FCE0101960E949E
:104600005E1E112331F081E080932C0666ED77E089
:10461000B6C162ED77E0CE0107960E94631ECE011F
:1046200007960E94A521811113C06FEC77E0CE019F
:1046300001960E94631ECE0101960E94A52111E001
:10464000811101C010E0CE0101960E945E1E01C0E2
:1046500011E0CE0107960E945E1E112331F082E028
:1046600080932C066CEC77E08AC166EC77E0CE0193
:1046700007960E94631ECE0107960E94A521811114
:1046800013C061EC77E0CE0101960E94631ECE015B
:1046900001960E94A52111E0811101C010E0CE0118
:1046A00001960E945E1E01C011E0CE0107960E9495
:1046B0005E1E112331F083E080932C066EEB77E0D1
:1046C0005EC169EB77E0CE010D960E94631ECE01BC
:1046D0000D960E94A521811171C165EB77E0CE0195
:1046E00007960E94631ECE0107960E94A5218111A4
:1046F00013C061EB77E0CE0101960E94631ECE01EC
:1047000001960E94A52111E0811101C010E0CE01A7
:1047100001960E945E1E01C011E0CE0107960E9424
:104720005E1ECE010D960E945E1E112331F084E0C4
:1047300080932C066EEA77E022C169EA77E0CE0129
:1047400001960E94631ECE0101960E94A521182F9A
:10475000CE0101960E945E1E112331F085E0809308
:104760002C0666EA77E00BC162EA77E0CE0101969B
:104770000E94631ECE0101960E94A521182FCE0132
:1047800001960E945E1E112331F086E080932C0674
:104790006FE977E0F4C069E977E0CE0101960E9405
:1047A000631ECE0101960E94A521182FCE0101960D
:1047B0000E945E1E112331F087E080932C0666E98B
:1047C00077E0DDC060E977E0CE0101960E94631ECC
:1047D000CE0101960E94A521182FCE0101960E94BC
:1047E0005E1E112331F088E080932C066DE877E09F
:1047F000C6C068E877E0CE0101960E94631ECE0134
:1048000001960E94A521182FCE0101960E945E1EDE
:10481000112331F089E080932C0665E877E0AFC082
:1048200061E877E0CE0107960E94631ECE010796ED
:104830000E94A521811113C06EE777E0CE01019699
:104840000E94631ECE0101960E94A52111E08111F4
:1048500001C010E0CE0101960E945E1E01C011E071
:10486000CE0107960E945E1E112331F08AE08093EC
:104870002C066BE777E083C064E777E0CE0107960C
:104880000E94631ECE0107960E94A521811113C0CC
:1048900061E777E0CE0101960E94631ECE0101968A
:1048A0000E94A52111E0811101C010E0CE01019606
:1048B0000E945E1E01C011E0CE0107960E945E1E9E
:1048C000112331F08BE080932C066EE677E057C021
:1048D00067E677E0CE0107960E94631ECE01079639
:1048E0000E94A521811113C064E677E0CE010196F4
:1048F0000E94631ECE0101960E94A52111E0811144
:1049000001C010E0CE0101960E945E1E01C011E0C0
:10491000CE0107960E945E1E112331F08CE0809339
:104920002C0661E677E02BC068E577E0CE010796BC
:104930000E94631ECE0107960E94A521811113C01B
:1049400065E577E0CE0101960E94631ECE010196D7
:104950000E94A52111E0811101C010E0CE01019655
:104960000E945E1E01C011E0CE0107960E945E1EED
:10497000112391F08DE080932C0662E577E0CE0163
:1049800001960E94631ECE0101960E945F21CE0116
:1049900001960E945E1E17C06CE477E0CE0101967E
:1049A0000E94631ECE0101960E945F21CE010196F6
:1049B0000E945E1E81E080932B0605C0CE010D96FD
:1049C0000E945E1EB4CE62960FB6F894DEBF0FBE94
:1049D000CDBFDF91CF911F910895789484B5826007
:1049E00084BD84B5816084BD85B5826085BD85B593
:1049F000816085BD80916E00816080936E00109211
:104A0000810080918100826080938100809181008B
:104A1000816080938100809180008160809380001C
:104A20008091B10084608093B1008091B00081607A
:104A30008093B00080917A00846080937A008091A6
:104A40007A00826080937A0080917A0081608093FE
:104A50007A0080917A00806880937A001092C10079
:104A600080911A04811150C08EE894E090938C04D8
:104A700080938B04E0919E04F0919F0492E09083D8
:104A8000E0919A04F0919B041082E0919C04F091D3
:104A90009D0480E180831092A604E091A204F0912D
:104AA000A30486E08083E091A004F091A1048081BA
:104AB00080618083E091A004F091A10480818860EE
:104AC0008083E091A004F091A104808180688083BC
:104AD000E091A004F091A10480818F7D80831092E9
:104AE000190481E080931A041F929F931F921F92D2
:104AF00088E395E09F938F930E94F61F0F900F908D
:104B00000F900F900F900F90109225041092240494
:104B100010922304109222041092210481E08093C9
:104B2000200410921F0461E082E10E94AD0F61E059
:104B300083E10E94AD0F8091B9008E7F8093B90010
:104B40008091B9008D7F8093B90088E48093B8008C
:104B500085E48093BC0082EC9EE090931E048093D9
:104B60001D0483EC9EE090931C0480931B04109220
:104B7000980580919D05823018F098E090939805F3
:104B800080939B0562E370E080E090E00E94181043
:104B900060919E0583E995E00E94A81068EE73E09D
:104BA00080E090E00E94181060E383E995E00E94A5
:104BB0000C11CBE4D6E4CE010197F1F760E383E971
:104BC00095E00E940C112197F1F760E383E995E0ED
:104BD0000E940C1183E592E00197F1F760E283E90E
:104BE00095E00E940C1160919805606240E083E9B5
:104BF00095E00E94251184E08093990540E06CE0E7
:104C000083E995E00E9425110E94442282E080936E
:104C10009A0540E066E083E995E00E94251140E0B6
:104C200062E083E995E00E9425118BE39FE1019703
:104C3000F1F70E944F2260E080E00E9415228BE095
:104C400097E00E94FB2160ED77E080E090E00E9419
:104C5000181061E080E00E94152282E097E00E9437
:104C6000FB2160ED77E080E090E00E9418100E9448
:104C7000442260E080E00E9415228BEF96E00E94C3
:104C8000FB2161E08DE00E94DC0F61E088E00E9482
:104C9000DC0F62E08EE00E94DC0F62E08FE00E9499
:104CA000DC0F61E082E00E94DC0F81E895E00E9469
:104CB0003C168FE695E00E943C16CFB7F8948091A1
:104CC0002704811127C0EEE2F7E08491E2E4F7E0E7
:104CD0009491E82FF0E0EE0FFF1FEF50F94FA591F0
:104CE000B491EC91E92321F461E08AE00E94AD0FD8
:104CF00061E08AE00E94DC0F8CB580618CBD8CB5D0
:104D000080648CBD61E08DE00E94DC0F61E08BE08F
:104D10000E94DC0F809127048F5F80932704CFBF10
:104D200061E080916D050E94DC0F61E080916D056E
:104D30000E94AD0F80916E058F3F09F47EC060E048
:104D40000E94DC0F80916E050E94840F892B09F070
:104D500074C061E080916E050E94DC0F60E080917C
:104D60006E050E94AD0F83E090E00197F1F761E0DE
:104D700080916E050E94AD0F62E370E080E090E0EC
:104D80000E9418100FC0C15069F062E370E080E02B
:104D900090E00E94181062E08FE595E00E940116F5
:104DA00084FDF1CF40E064E28FE595E00E941F169C
:104DB00040E066E28FE595E00E941F1646E268E457
:104DC0008FE595E00E941F1640E864E58FE595E0C9
:104DD0000E941F1649EA66E58FE595E00E941F16BE
:104DE00043E068E58FE595E00E941F1648EE6AE50E
:104DF0008FE595E00E941F1640E46AE28FE595E09A
:104E00000E941F164DE362E28FE595E00E941F1697
:104E100068E28FE595E00E940116982F9370933019
:104E200039F0482F436068E28FE595E00E941F1635
:104E30000E941F040E943C0EFBCF4FE062E08FE512
:104E400095E00E941F16C3E0A0CFE0918604EF32E8
:104E500059F021E02E0F20938604F0E0EE0FFF1FA3
:104E6000E85DFB4F918380830895FF920F931F931A
:104E7000CF93DF93EEE8F4E01382128288EE93E0A2
:104E8000A0E0B0E084839583A683B78329EE31E068
:104E90003183208325EC30E03587248724EC30E013
:104EA0003787268720EC30E0318B208B21EC30E0F7
:104EB000338B228B22EC30E0358B248B26EC30E0D8
:104EC000378B268B118E128E138E148EEBE2F5E04B
:104ED0001382128284839583A683B7838BEF91E03C
:104EE00091838083E8E3F5E01186128613861486A9
:104EF000158616861786148A1086108211821092E3
:104F00003705178212821382148215821682E1E11C
:104F1000F6E011821382128215821482168291E0C9
:104F20009083E8E1F6E010821182128214821382EB
:104F30001682158210861782118614861386CBEB93
:104F4000D5E086E2888722E0F22EFE829F8305E18B
:104F500012E0198308838B831A82CE010E942527D1
:104F600083E392E099838883E4E0F6E084EC95E0C3
:104F7000918380839093070680930606F093090639
:104F8000E093080610920B0610920A06C5EBD5E0D6
:104F90001983088383E28B831A82CE010E9425271E
:104FA00085E192E099838883CFE9D5E0198308836E
:104FB00084E28B831A82CE010E9425278DE092E045
:104FC000998388831F821E828FEF9FEF998788873E
:104FD0001A861E861B861C861D861F86E3E9F5E061
:104FE000138212828DE192E09183808387E2848331
:104FF00080E18187F286138646E16091110181E8A4
:1050000095E00E94DA214BE064E08FE695E00E9493
:10501000DA21EFE5F5E089E292E0918380838AE08E
:10502000868789E087876EE373E089E595E00E94D3
:10503000891F6DE373E083E595E0DF91CF911F91C8
:105040000F91FF900C94891FCF93DF9383E595E038
:105050000E945E1E89E595E00E945E1E80912106F9
:10506000882301F18091230690912406892BD1F0A9
:10507000C0E0D0E02091210630E08091230690919D
:105080002406C217D30764F49E01220F331FFC01CC
:10509000E20FF31F808191810E946E2E2196EACF4C
:1050A0000E946E2E80911B0690911C06009721F0A5
:1050B000DF91CF910C946E2EDF91CF910895EF92F6
:1050C0000F931F93CF93DF93E80147FD02C034E0B5
:1050D00001C034E1042E000C550B57FF03C051955D
:1050E00041955109E32E022F242FAE010E9456292B
:1050F000CE01DF91CF911F910F91EF9008958F9284
:105100009F92AF92BF92CF92DF92EF92FF92CF9396
:10511000DF93EC01688179818A819B81611571053A
:105120008105910521F464E279ED8BE597E02DE1AD
:1051300033EF41E050E00E94932C49015A019B015A
:10514000AC01A7EAB1E40E94B22C6B017C01ACEE89
:10515000B4EFA50194010E94C02CDC01CB018C0DA1
:105160009D1DAE1DBF1DB7FF03C00197A109B0482B
:1051700088839983AA83BB83BC01CD019F77DF918C
:10518000CF91FF90EF90DF90CF90BF90AF909F9026
:105190008F9008958F929F92AF92BF92CF92DF929D
:1051A000EF92FF92609113017091140180911501AB
:1051B00090911601611571058105910521F464E254
:1051C00079ED8BE597E02DE133EF41E050E00E946F
:1051D000932C49015A019B01AC01A7EAB1E40E945A
:1051E000B22C6B017C01ACEEB4EFA50194010E94DE
:1051F000C02CDC01CB018C0D9D1DAE1DBF1DB7FF6A
:1052000003C00197A109B048809313019093140142
:10521000A0931501B0931601BC01CD019F77FF90BB
:10522000EF90DF90CF90BF90AF909F908F900895B8
:1052300060931301709314018093150190931601EC
:105240000895FB01DC0105900D920020E1F708951F
:10525000FC0105900020E9F7809590958E0F9F1F27
:105260000895BB274A3031F4992322F4BDE290958A
:1052700081959F4F0C943D29BB27FB015527AA27F9
:10528000880F991FAA1FA41710F0A41B83955051D3
:10529000B9F7A05DAA3308F0A95DA193009779F74B
:1052A000B111B1931192CB010C94882BA9E0B0E01D
:1052B000ECE5F9E20C94CB2C6A01122FB02E2BE313
:1052C000201720F0FF24F394F00E02C02CE3F22EFE
:1052D0000F2D27E0AE014F5F5F4F0E94B02ABC0147
:1052E0004981842F8970813031F0E1FC06C0E0FEF5
:1052F00006C090E205C09DE203C09BE201C090E0C1
:105300005E2D507143FF3CC0911102C083E001C08B
:1053100084E0811718F4212F281B01C020E05111CF
:105320000BC0F601822F30E2882319F031938150AF
:10533000FBCFC20ED11C20E0992329F0D6019C930B
:10534000F60131966F01C6010396E2FE0AC03EE403
:10535000D6013C9341E411964C93119712963C93DD
:1053600006C03EE6F601308341E641833283FC010C
:10537000322F40E2332309F442C041933150FACF37
:1053800042FF44C0911102C083E001C084E0811754
:1053900018F4212F281B01C020E051110BC0F60189
:1053A000822F30E2882319F031938150FBCFC20E57
:1053B000D11C20E0992329F0D6019C93F601319667
:1053C0006F01C6010396E2FE0BC039E4D6013C939F
:1053D0003EE411963C93119736E412963C9307C035
:1053E00039E6F60130833EE6318336E63283FC014E
:1053F000322F40E2332319F041933150FBCFFC01AF
:10540000E20FF11D10828EEF9FEFA6C021E030E089
:10541000911102C020E030E0161617061CF4FB01C3
:10542000319602C0E1E0F0E02E0F3F1FBB2021F0DB
:10543000EB2DF0E0319602C0E0E0F0E02E0F3F1FD0
:10544000E12FF0E02E173F071CF4121B212F01C0A3
:1054500020E08E2D887159F4F601822F30E28823E6
:1054600019F031938150FBCFC20ED11C20E099235B
:1054700029F0D6019C93F60131966F0151110BC0B2
:10548000F601822F90E3882319F091938150FBCF8E
:10549000C20ED11C20E00F2D060F9A81342F3071DF
:1054A00044FF03C0913309F40150101624F409306D
:1054B00018F008E001C001E0AB0177FF02C040E056
:1054C00050E0FB01E41BF50BA1E0B0E0AC0FBD1F09
:1054D000EA0FFB1F8EE2A82E4B01801A91080B2DBC
:1054E00010E01195019511094F3FBFEF5B0721F4C3
:1054F000D601AC9211966D01641775072CF08416D5
:10550000950614F4818101C080E341505109319620
:10551000D60111967D014017510724F0D6018C93D6
:105520006701E2CF6417750739F4963320F4953399
:1055300019F4311101C081E3F6018083F701822F54
:1055400090E2882319F091938150FBCFF701E20F8D
:10555000F11D108280E090E02996ECE00C94E72C9D
:10556000283008F027E03327DA01990F311D87FD35
:10557000916000966105710539F432602E5F3D93AC
:1055800030E32A95E1F708959F3F30F080387105A8
:10559000610509F03C5F3C5F3D93913008F0806805
:1055A000911DDF93CF931F930F93FF92EF92192FCB
:1055B000987F9695E92F96959695E90FFF27EE53DC
:1055C000FF4F99273327EE24FF24A701E701059019
:1055D0000894079428F4360FE71EF81E491F511D42
:1055E000660F771F881F991F0694A1F705900794EF
:1055F00028F4E70EF81E491F561FC11D770F881F9C
:10560000991F661F0694A1F70590079428F4F80ED9
:10561000491F561FC71FD11D880F991F661F771F6F
:105620000694A1F70590079420F4490F561FC71F51
:10563000D81F990F661F771F881F0694A9F78491BA
:105640001095177041F0D695C79557954795F794E3
:10565000E7941A95C1F7E8E6F0E068941590159183
:1056600035916591959105907FE27395E118F10A66
:10567000430B560BC90BD009C0F7E10CF11E431FB9
:10568000561FC91FD01D7EF4703311F48A95E6CFE2
:10569000E894015030F0080F0AF40027021708F4CC
:1056A000202F2395022F7A3328F079E37D932A95D2
:1056B000E9F710C07D932A9589F60694979567952A
:1056C000379517951794E118F10A430B560BC90B40
:1056D000D00998F023957E9173957A3308F070E3A2
:1056E0007C932013B8F77E9170617D9330F08395A1
:1056F00071E37D9370E32A95E1F71124EF90FF9019
:105700000F911F91CF91DF91992787FD9095089573
:10571000DC01FC01672F71917723E1F7329704C018
:105720007C916D9370836291AE17BF07C8F30895A3
:10573000E89409C097FB3EF490958095709561952B
:105740007F4F8F4F9F4F9923A9F0F92F96E9BB27E1
:105750009395F695879577956795B795F111F8CF5D
:10576000FAF4BB0F11F460FF1BC06F5F7F4F8F4FC8
:105770009F4F16C0882311F096E911C0772321F0BE
:105780009EE8872F762F05C0662371F096E8862F56
:1057900070E060E02AF09A95660F771F881FDAF7AD
:1057A000880F9695879597F908950E94E82B0C9499
:1057B000592C0E944B2C38F00E94522C20F095233B
:1057C00011F00C94422C0C94482C11240C948D2C28
:1057D0000E946A2C70F3959FC1F3950F50E0551FFE
:1057E000629FF001729FBB27F00DB11D639FAA2736
:1057F000F00DB11DAA1F649F6627B00DA11D661F85
:10580000829F2227B00DA11D621F739FB00DA11DA5
:10581000621F839FA00D611D221F749F3327A00D5F
:10582000611D231F849F600D211D822F762F6A2FFB
:1058300011249F5750409AF0F1F088234AF0EE0F60
:10584000FF1FBB1F661F771F881F91505040A9F78D
:105850009E3F510580F00C94422C0C948D2C5F3FA0
:10586000E4F3983ED4F3869577956795B795F795C9
:10587000E7959F5FC1F7FE2B880F911D9695879541
:1058800097F9089597F99F6780E870E060E00895C0
:105890009FEF80EC089500240A9416161706180648
:1058A0000906089500240A94121613061406050624
:1058B0000895092E0394000C11F4882352F0BB0FB5
:1058C00040F4BF2B11F460FF04C06F5F7F4F8F4F18
:1058D0009F4F089557FD9058440F551F59F05F3F53
:1058E00071F04795880F97FB991F61F09F3F79F002
:1058F00087950895121613061406551FF2CF469584
:10590000F1DF08C0161617061806991FF1CF869505
:105910007105610508940895E894BB2766277727E9
:10592000CB0197F90895052E97FB1EF400940E9471
:10593000AA2C57FD07D00E94FC2C07FC03D04EF484
:105940000C94AA2C50954095309521953F4F4F4F80
:105950005F4F089590958095709561957F4F8F4F1B
:105960009F4F08950E941E2DA59F900DB49F900DEE
:10597000A49F800D911D11240895B7FF0C94B22CA3
:105980000E94B22C821B930B08952F923F924F924C
:105990005F926F927F928F929F92AF92BF92CF92BF
:1059A000DF92EF92FF920F931F93CF93DF93CDB7C8
:1059B000DEB7CA1BDB0B0FB6F894DEBF0FBECDBF40
:1059C00009942A88398848885F846E847D848C8411
:1059D0009B84AA84B984C884DF80EE80FD800C811A
:1059E0001B81AA81B981CE0FD11D0FB6F894DEBFFD
:1059F0000FBECDBFED010895A1E21A2EAA1BBB1B5D
:105A0000FD010DC0AA1FBB1FEE1FFF1FA217B3078A
:105A1000E407F50720F0A21BB30BE40BF50B661FA0
:105A2000771F881F991F1A9469F760957095809564
:105A300090959B01AC01BD01CF010895A29FB001DB
:105A4000B39FC001A39F700D811D1124911DB29FB2
:105A5000700D811D1124911D08955058BB27AA2750
:105A60000E94452D0C94592C0E944B2C38F00E941A
:105A7000522C20F039F49F3F19F426F40C94482C52
:105A80000EF4E095E7FB0C94422CE92F0E946A2C5F
:105A900058F3BA17620773078407950720F079F463
:105AA000A6F50C948C2C0EF4E0950B2EBA2FA02D9D
:105AB0000B01B90190010C01CA01A0011124FF27BB
:105AC000591B99F0593F50F4503E68F11A16F040B6
:105AD000A22F232F342F4427585FF3CF46953795B5
