:100000000C9463000C948B000C948B000C948B006C
:100010000C948B000C948B000C948B000C948B0034
:100020000C948B000C948B000C948B000C948B0024
:100030000C948B000C948B000C948B000C948B0014
:100040000C94E5020C948B000C94A7080C94810886
:100050000C948B000C948B000C948B000C948B00F4
:100060000C948B000C948B000000000023002600F1
:10007000290000000008000201000003040700003E
:1000800000000000000000000000250028002B00F8
:1000900000000000240027002A00040404040404D3
:1000A0000404020202020202030303030303010227
:1000B00004081020408001020408102001020408F6
:1000C00010207E0E330F11241FBECFEFD8E0DEBF0D
:1000D000CDBF13E0A0E0B1E0E0EBF5E202C0059097
:1000E0000D92A43DB107D9F725E0A4EDB3E001C01E
:1000F0001D92AC39B207E1F710E0C2E6D0E004C0CF
:100100002197FE010E94A810C136D107C9F70E94AD
:10011000950B0C94CB120C940000FC01918D228D58
:10012000892F90E0805C9F4F821B91098F739927E4
:100130000895833081F028F4813099F08230A1F065
:1001400008958730A9F08830B9F08430D1F48091D7
:1001500080008F7D03C0809180008F778093800026
:10016000089584B58F7702C084B58F7D84BD0895CE
:100170008091B0008F7703C08091B0008F7D809315
:10018000B00008953FB7F8948091DD039091DE03AD
:10019000A091DF03B091E00326B5A89B05C02F3FD7
:1001A00019F00196A11DB11D3FBFBA2FA92F982F9D
:1001B0008827820F911DA11DB11DBC01CD0142E018
:1001C000660F771F881F991F4A95D1F70895809170
:1001D000E703882329F08091E8039091E9030895CB
:1001E0008AEE94E008958091EC03882321F09091A9
:1001F000E90481E08927089570E0DC015296ED91D1
:10020000FC915397E60FF71F2081222359F0660FC8
:10021000771F5096ED91FC915197E60FF71F808163
:100220009181089580E090E008956F927F928F927F
:100230009F92AF92BF92CF92DF92EF92FF920F9375
:100240001F93CF93DF93EC010E94E700DC011B9624
:100250002C911B97213009F04AC05296ED91FC91E8
:100260005397608000E010E0712C4E01BFE48B0ECC
:10027000911C7E01E9E4EE0EF11C6E01FDE4CF0E4F
:10028000D11C5E0189E0A80EB11C061517057CF58E
:10029000CE010E94E70060E00E94FC00800F911FE9
:1002A000DC018C91F4012081318120343105E1F0B1
:1002B000D701ED91FC9111979F012F5F3F4F119650
:1002C0003C932E938083F4018081918101969183E8
:1002D00080832D913C91D6018D919C9128173907EF
:1002E00019F4F701B182A0820F5F1F4FCECFDF91CB
:1002F000CF911F910F91FF90EF90DF90CF90BF9023
:10030000AF909F908F907F906F9008950E9495126C
:100310000F931F93CF93DF93EC011F828881882373
:10032000E1F000E010E0288530E088899989021723
:1003300013077CF49801220F331FFC01E20FF31F17
:1003400080819181009711F00E9446110F5F1F4F2D
:10035000EACF18860E94461118828981882329F0E5
:100360008A899B890E9446111982DF91CF911F9142
:100370000F910895CF93DF93EC010E94F30088233F
:10038000A1F01092EC0381E08E831F9284E08F93A2
:100390001F921F92DF93CF930E94F8081E820F9046
:1003A0000F900F900F900F900F90DF91CF910895C5
:1003B000CF93DF93EC010E94F300811114C081E020
:1003C0008093EC038E831F9283E08F931F921F9282
:1003D000DF93CF930E94F8081E820F900F900F902A
:1003E0000F900F900F90DF91CF910895CF93DF93EF
:1003F000EC010E94E7003B81FC012185321322C001
:1004000083858F3FB1F48A818823E1F08AEE94E0FE
:100410000E94F300811116C08AEE94E00E94D80178
:10042000EC81FD8109958AEE94E0DF91CF910C94E7
:10043000BA01E881F9810280F381E02DCE01DF91DC
:10044000CF910994DF91CF910895FC01848DDF0154
:10045000A80FB11DA35ABF4F2C91848D90E0019637
:100460008F739927848FA689B7892C93A089B18926
:100470008C91837080648C93938D848D981306C0C7
:100480000288F389E02D80818F7D80830895CF934A
:10049000DF93282F30E0F901EE58FF4F8491F901E6
:1004A000E255FF4FD491F901E656FF4FC491CC239A
:1004B00091F081110E949900EC2FF0E0EE0FFF1FE8
:1004C000E859FF4FA591B491EC91ED2381E090E0C4
:1004D00021F480E002C080E090E0DF91CF910895A8
:1004E0001F93CF93DF93282F30E0F901EE58FF4F91
:1004F0008491F901E255FF4FD491F901E656FF4F7F
:10050000C491CC23C1F0162F81110E949900EC2FC9
:10051000F0E0EE0FFF1FEA57FF4FA591B4919FB790
:10052000F894111104C08C91D095D82302C0EC919D
:10053000DE2BDC939FBFDF91CF911F9108958F92A7
:100540009F92AF92BF92CF92DF92EF92FF926B0198
:100550007C010E94C2004B015C01C114D104E10482
:10056000F104F1F00E94C200DC01CB018819990965
:10057000AA09BB09883E9340A105B10570F321E0AB
:10058000C21AD108E108F10888EE880E83E0981EAF
:10059000A11CB11CC114D104E104F10419F7DDCF91
:1005A000FF90EF90DF90CF90BF90AF909F908F9093
:1005B00008952FB7F8946091D9037091DA03809170
:1005C000DB039091DC032FBF08951F920F920FB6AB
:1005D0000F9211242F933F938F939F93AF93BF93C9
:1005E0008091D9039091DA03A091DB03B091DC03F1
:1005F0003091D80323E0230F2D3720F40196A11D5D
:10060000B11D05C026E8230F0296A11DB11D209340
:10061000D8038093D9039093DA03A093DB03B093BC
:10062000DC038091DD039091DE03A091DF03B091A4
:10063000E0030196A11DB11D8093DD039093DE03BD
:10064000A093DF03B093E003BF91AF919F918F918F
:100650003F912F910F900FBE0F901F9018958F9282
:100660009F92AF92BF92CF92DF92EF92FF920F9341
:100670001F93CF93DF931F92CDB7DEB77C018B0121
:100680000E94D9028090D4039090D503A090D60305
:10069000B090D703DC01CB0188199909AA09BB09DD
:1006A000813D9740A105B10548F089288A288B280B
:1006B00029F0D70117968C9181110FC20E94D9029F
:1006C0006093D4037093D5038093D6039093D7039C
:1006D000F7019781911114C00F3F110589F4C701EB
:1006E0000E94880181E0D70117968C931797519645
:1006F0001C921E92509753961C921E9252971FC0A6
:10070000F7018485843041F4992309F4EAC11686FF
:100710001586078785E0C5C0853059F5992309F40A
:10072000E0C1D7012785C22ED12C8FEF90E08C1924
:100730009D0908171907B9F5211104C089E01C9615
:100740008C93CFC1C601880F991F0E94AE10F7018C
:10075000918B808B11E01083C6010E94AE10D701EF
:1007600053969C938E93529711961C93119786E003
:10077000E6CF8630D9F0873009F053C0992309F4C9
:10078000B0C1F701258530E00288F389E02DE20F42
:10079000F31F6081862F90E04FEF50E0481B590B0C
:1007A0000417150779F0F701178254C1992309F44A
:1007B00098C1D70185850288F389E02DE80FF11DE6
:1007C000008368C0220F331FD70150960D911C91F2
:1007D0005197662369F0020F131F0E94AE10F801B3
:1007E00091838083D7011C968C911C978F5F12C0D8
:1007F000F801E20FF31F11821082F701168685853A
:100800008F5F85879785891303C089E0848704C03B
:1008100086E0D7011C968C93F70180858F5F8087D7
:1008200060C1883009F03FC0992309F45AC1D7014B
:10083000858520899189E22FF92FE80FF11DE80FB6
:10084000F11D80819181009759F01E962C911E9781
:1008500031E0320F1E963C93FC01E20FF11D008344
:10086000F70185850288F389E02DE80FF11DD70196
:100870001E962C911E979081291333C11E961C92AF
:100880001E978F5F1D968C931D971F969C911F97A7
:10089000891305C01C968C911C978F5F50CF86E002
:1008A000F70184871EC1893009F0D8C0992309F463
:1008B00018C1048B0111CEC017828091F3048111FD
:1008C0008CC08385823051F412828381882309F49D
:1008D0009EC00588F689E02D80E00CC0813061F46F
:1008E000F70182838381882309F491C00588F68902
:1008F000E02D81E009958BC0833081F41F9281E067
:100900008F931F921F92FF92EF920E94F8080F9010
:100910000F900F900F900F900F9079C0853009F0D5
:1009200076C060E0C7010E94FC004BE050E0BC01D3
:100930008BE691E00E949A12892B09F068C0198217
:10094000D7015296ED91FC915397A180B12C00E014
:1009500010E0C12CD12C0A151B056CF461E0C70115
:100960000E94FC00800F911FFC018081C80ED11CE9
:100970000F5F1F4FF0CFC98284E090E00E94AE105D
:100980008C01DC0113961C92139781E08C93CE01AD
:10099000019612969C938E93119784E090E00E94AA
:1009A000AE10FC01138287E1808387E791E0928398
:1009B00081831F930F93FF93EF9382E08F9385E0E2
:1009C0008F931F921F92FF92EF920E94F8080FB62A
:1009D000F894DEBF0FBECDBF1AC02DEEC22E23E0AD
:1009E000D22E00E010E080914B0490E00817190728
:1009F00074F4D6018D919D916D01DC01ED91FC9116
:100A00000190F081E02D09950F5F1F4FECCFF701AA
:100A100084818823F9F081858823E1F0C7010E9451
:100A2000D801D70150960D911C91519752962D9156
:100A30003C9153975796ED91FC9158971F964C9186
:100A40001F971B966C911B9719968C910995C7015E
:100A50000E94BA01C7010E94880143C0992309F48A
:100A600040C0813001F5602FF7010187002391F12B
:100A7000948191112FC040914B0450E0EDEEF3E0D2
:100A800020E030E02417350754F4A191B19113967A
:100A90007C91671301C091E02F5F3F4FF3CF992303
:100AA00009F481CE17C0823089F402872FEF30E03D
:100AB000201B310994E0359527959A95E1F70F7041
:100AC00010E02017310731F0178204C0833011F491
:100AD000F70103878F5FD70132CEC7010E948801DB
:100AE000EDCD0F90DF91CF911F910F91FF90EF907F
:100AF000DF90CF90BF90AF909F908F900895CF934D
:100B0000DF938091E103811132C08091EA039091DB
:100B1000EB03DC01ED91FC910084F185E02D09955A
:100B2000892B29F18091EA039091EB03DC01ED918F
:100B3000FC910284F385E02D0995EC01BC01772737
:100B40008AEE94E00E942F038091EF048823E9F25B
:100B50008AEE94E00E94D801E0910305F09104052B
:100B60008C2F09958AEE94E00E94BA01CECFDF91D6
:100B7000CF9108950E94F30781110C947F05089589
:100B8000CF93DF93EC018091E203882359F08091A9
:100B9000EA039091EB03DC01ED91FC910190F0816F
:100BA000E02D09958E81811108C062E070E080E03F
:100BB00090E0DF91CF910C949F02DF91CF91089547
:100BC00084E193E00E949A0A882351F081E090E04A
:100BD0009093E6038093E5038FE891E00E94610A19
:100BE00082E991E00E949A0A811167C086E991E04A
:100BF0000E949A0A811161C089E991E00E949A0AD3
:100C0000811166C08FE991E00E949A0A811160C04B
:100C100084EA91E00E949A0A811165C089EA91E014
:100C20000E949A0A81115FC08DEA91E00E949A0A9F
:100C3000811159C081EB91E00E949A0A882319F032
:100C400085E090E07CC086EB91E00E949A0A8823C0
:100C500019F086E090E073C08AEB91E00E949A0A56
:100C6000882319F087E090E06AC080EC91E00E9450
:100C70009A0A882319F088E090E061C086EC91E040
:100C80000E949A0A882319F089E090E058C08BEC02
:100C900091E00E949A0A882319F08AE090E04FC000
:100CA0008FEC91E00E949A0A811128C086ED91E0B4
:100CB0000E949A0A811122C024C082E090E09093A1
:100CC000E6038093E5038FE891E00E94610A94CFE8
:100CD00083E090E09093E6038093E5038FE891E052
:100CE0000E94610A95CF84E090E09093E6038093A0
:100CF000E5038FE891E00E94610A9CCF8BE090E0D1
:100D00001EC08FED91E00E949A0A811113C089EDF7
:100D100091E00E949A0A81110DC086EE91E00E9436
:100D20009A0A81110AC08CED91E00E949A0A811101
:100D300004C00DC08CE090E002C08DE090E0909384
:100D4000E6038093E5038FE891E00C94610A8FEE4F
:100D500091E00E94610A81E090E09093E403809327
:100D6000E3030895CF92DF92EF92FF920F931F93C8
:100D7000CF93DF93CDB7DEB72C970FB6F894DEBFD5
:100D80000FBECDBF8C010E94E7007C01DC011B96E9
:100D90008C91813009F093C0F8018681978100978A
:100DA00011F00E944611C8010E94E700DC01529632
:100DB000ED91FC915397808190E0F80191878087B5
:100DC00001960E94AE10D80117969C938E931697A9
:100DD000E12CF12CF8018085918526813781E81678
:100DE000F9069CF46901CE0CDF1CC8010E94E700E3
:100DF00060E00E94FC008E0D9F1DDC018C91F601CD
:100E00008083FFEFEF1AFF0AE5CFF901E80FF91F22
:100E1000108281E0D8011E968C938AEE94E00E94A5
:100E2000F300811172C0F8018285882391F08AEE67
:100E300094E00E94D801D8015096ED91FC91519711
:100E400016968D919C91179709958AEE94E00E94D1
:100E5000BA01F8018585882309F457C06681778136
:100E6000CE0101960E946C088AEE94E00E94D8019F
:100E7000D80152960D911C91539718861F821A869D
:100E800019861C861B8669817A816115710531F08E
:100E90004D815E81CE0107960E94340BCE010796EC
:100EA000F80109958F8198850E9446118AEE94E099
:100EB0000E94BA0189819A810E94461126C082301F
:100EC00021F58AEE94E00E94F30081111EC060E0DB
:100ED000C7010E94FC00FC018081D8011F968C9301
:100EE0001F971B968C91882381F08AEE94E00E94D4
:100EF000D801D8015496ED91FC9155971F968C918D
:100F000009958AEE94E00E94BA012C960FB6F894E7
:100F1000DEBF0FBECDBFDF91CF911F910F91FF902C
:100F2000EF90DF90CF900895CF92DF92EF92FF92F3
:100F30000F931F93CF93DF936C017A018B01C0E075
:100F4000D0E0CE15DF0581F0D8016D918D01D6017D
:100F5000ED91FC910190F081E02DC6010995892B5E
:100F600011F02196EECF7E01C701DF91CF911F9145
:100F70000F91FF90EF90DF90CF900895089580E05B
:100F800090E00895FC01538D448D252F30E0842F8F
:100F900090E0821B930B541710F0CF9608950197A1
:100FA0000895FC01918D828D981761F0828DDF018B
:100FB000A80FB11D5D968C91928D9F5F9F73928F4C
:100FC00090E008958FEF9FEF0895FC01918D828D41
:100FD000981731F0828DE80FF11D858D90E008950E
:100FE0008FEF9FEF08958CE494E00E948D0021E044
:100FF000892B09F420E0822F0895EF92FF920F933E
:101000001F93CF93DF93EC0181E0888F9B8D8C8DB4
:10101000981305C0E889F989808185FD26C0F62EE0
:101020000B8D10E00F5F1F4F0F731127E02E8C8D7B
:10103000E8120CC00FB607FCFACFE889F989808165
:1010400085FFF5CFCE010E942502F1CF8B8DFE01E9
:10105000E80FF11DE35AFF4FF0829FB7F8940B8F12
:10106000EA89FB89808180620AC09FB7F894EE8983
:10107000FF896083E889F989808183708064808337
:101080009FBF81E090E0DF91CF911F910F91FF9082
:10109000EF900895CF93DF93EC01888D8823C9F0FA
:1010A000EA89FB89808185FD05C0A889B9898C9171
:1010B00086FD0FC00FB607FCF5CF808185FFF2CF0C
:1010C000A889B9898C9185FFEDCFCE010E942502B8
:1010D000E7CFDF91CF910895FC0111821082138236
:1010E0001282158214826115710551F0FB01019085
:1010F0000020E9F73197AF01461B570B0C94340BD6
:1011000008951F920F920FB60F9211242F933F93C1
:101110004F935F936F937F938F939F93AF93BF93FF
:10112000EF93FF938CE494E00E942502FF91EF91EE
:10113000BF91AF919F918F917F916F915F914F91EF
:101140003F912F910F900FBE0F901F9018951F92F7
:101150000F920FB60F9211242F938F939F93EF93BB
:10116000FF93E0915C04F0915D048081E091620462
:10117000F091630482FD12C09081809165048F5FBD
:101180008F7320916604821751F0E0916504F0E0BE
:10119000E45BFB4F958F8093650401C08081FF91D4
:1011A000EF919F918F912F910F900FBE0F901F90F5
:1011B000189590E0FC01E255FF4F2491FC01E656A2
:1011C000FF4F8491882399F090E0880F991FFC01CC
:1011D000E057FF4FA591B491FC01EA57FF4F85916D
:1011E00094918FB7F894EC91E22BEC938FBF089514
:1011F0005F926F927F928F929F92AF92BF92CF92A7
:10120000DF92EF92FF920F931F93CF93DF93CDB7AF
:10121000DEB76B970FB6F894DEBF0FBECDBF0DA53E
:101220001EA55FA4CAA80E94D902552009F488C04F
:1012300020917905222309F483C080907A0590904B
:101240007B05A0907C05B0907D0581149104A104DC
:10125000B10409F475C0DC01CB0188199909AA0908
:10126000BB090196A11DB11D883C9105A105B105E1
:1012700008F066C08091EC0328EC820E911CA11C42
:10128000B11C882309F44EC01A861B861C861D8655
:101290001E861F86188A1D8A198619821A82109244
:1012A000E90418861B821C821D821E821F82CE01C9
:1012B00001967C019093E9038093E80381E0809399
:1012C000E7030E94D902681579058A059B0508F491
:1012D000BFC088858111BCC02DC0F80187818823DB
:1012E00079F18091EA039091EB03DC01ED91FC919F
:1012F0000084F185E02D0995892BA1F08091EA0306
:101300009091EB03DC01ED91FC910284F385E02DDB
:1013100009958F3FBFEF9B0729F0BC018AEE94E04F
:101320000E942F030E94D902681579058A059B0542
:10133000C0F2D3CF1092E9031092E8031092E703B2
:1013400081E0809379057E01E3E3EE0EF11C6FEFFF
:10135000C8010E94C00562E1C8010E94C005652D58
:10136000C8010E94C0050E94B70F20E130E040E0B4
:1013700050E00E940E10962F9095F0E19F9FC001C3
:1013800011246F70682BC8010E94C00569A9C801AB
:101390000E94C0056C2DC8010E94C0056C2D60958F
:1013A000C8010E94C005812C912CD12C8C149D0465
:1013B000CCF5370122E0620E711CD701ED90FC9054
:1013C000F7016081C8010E94C005D7016C9160954A
:1013D000C8010E94C005A12CB12CF701808190E0CA
:1013E000A816B9066CF40180F281E02DEA0DFB1D10
:1013F0006081C8010E94C005FFEFAF1ABF0AEDCFA0
:10140000E114F10451F08381882321F081819281DC
:101410000E944611C7010E944611BFEF8B1A9B0A1A
:101420007301C4CF60E0C8010E94C005552099F146
:101430000E94D902DC01CB010196A11DB11D809350
:101440007A0590937B05A0937C05B0937D0523C01E
:101450008091EA039091EB03DC01ED91FC91008413
:10146000F185E02D0995892B09F42BCF8091EA03B2
:101470009091EB03DC01ED91FC910284F385E02D6A
:1014800009958F3FBFEF9B0709F41BCFBC01C70134
:101490000E942F0316CF6B960FB6F894DEBF0FBED7
:1014A000CDBFDF91CF911F910F91FF90EF90DF9013
:1014B000CF90BF90AF909F908F907F906F905F90F4
:1014C00008950F931F93CF93DF93FC0101900020A9
:1014D000E9F73197EF01C81BD90B39F18C0184E092
:1014E00090E00E94AE10FC0113829E01CF3FD10517
:1014F00019F014F02FEF30E0208312830183FF9363
:10150000EF9381E08F938F931F9283E28F938AEE04
:1015100094E09F938F930E94F8088DB79EB708962A
:101520000FB6F8949EBF0FBE8DBFDF91CF911F9174
:101530000F910895FC018091760590917705892B94
:1015400021F421E0309749F413C080917205909105
:101550007305309731F421E0FC018081882341F04C
:1015600006C0BF010E94BB1221E0892B09F020E0D8
:10157000822F0895CF92DF92EF92FF920F931F93E5
:10158000CF93DF93CDB7DEB7CDB6DEB6FC012481B5
:101590003581232B29F0608171816115710521F45A
:1015A0001092780568E775E0FB0101900020E9F7EB
:1015B000CF01861B970B02962DB73EB7281B390B20
:1015C0000FB6F8943EBF0FBE2DBF8DB79EB70196E4
:1015D0007C01EDB7FEB711820E94B01260ED73E09E
:1015E000C7010E94B012F70101900020E9F731977E
:1015F0008F010E191F0951F184E090E00E94AE1096
:10160000FC01138298010F3F110519F014F02FEF20
:1016100030E02083F282E182FF93EF9381E08F93A9
:10162000809127058F931F92809129058F938AEED1
:1016300094E09F938F930E94F8082DB73EB7285FE0
:101640003F4F0FB6F8943EBF0FBE2DBF0FB6F894B4
:10165000DEBE0FBECDBEDF91CF911F910F91FF90E7
:10166000EF90DF90CF900895EF92FF920F931F932A
:10167000CF93DF93EC017B018A01888199810097E8
:1016800029F02A813B8124173507F8F4B8016F5FF0
:101690007F4F0E94CF11009759F0998388831B8355
:1016A0000A832C813D81232B81F4FC0110820DC023
:1016B00088819981009711F00E9446111982188241
:1016C0001D821C821B821A8207C01D830C83B701F6
:1016D000888199810E94C412CE01DF91CF911F9120
:1016E0000F91FF90EF900895CF93DF93EC01611578
:1016F000710559F0FB0101900020E9F73197AF0126
:10170000461B570B0E94340B0CC0888199810097AF
:1017100011F00E944611198218821D821C821B82C0
:101720001A82CE01DF91CF910895CF93DF93CDB789
:10173000DEB72C970FB6F894DEBF0FBECDBF7894FE
:1017400084B5826084BD84B5816084BD85B58260C6
:1017500085BD85B5816085BD80916E008160809377
:101760006E001092810080918100826080938100E0
:1017700080918100816080938100809180008160F0
:10178000809380008091B10084608093B10080914B
:10179000B00081608093B00080917A008460809373
:1017A0007A0080917A00826080937A0080917A003A
:1017B000816080937A0080917A00806880937A00BB
:1017C0001092C1008091E203811150C08CE494E03A
:1017D0009093EB038093EA03E0915C04F0915D0445
:1017E00092E09083E0915804F09159041082E091C6
:1017F0005A04F0915B0480E1808310926404E091CC
:101800006004F091610486E08083E0915E04F091D1
:101810005F04808180618083E0915E04F0915F04C9
:10182000808188608083E0915E04F0915F04808114
:1018300080688083E0915E04F0915F0480818F7DF9
:1018400080831092E10381E08093E2031F929F93D3
:101850001F921F928AEE94E09F938F930E94F80844
:101860000F900F900F900F900F900F908DE00E94AF
:10187000D90888E00E94D90885E0282E312CEE2472
:10188000E394F12C23E0422E512C37E0632E712C8F
:1018900044E0C42ED12C52E0A52EB12C66E0862E59
:1018A000912C8091000190910101019709F0A0C055
:1018B00080911305882309F49BC010921305609151
:1018C0000B0570910C058AE391E00E94BB12892BF5
:1018D00061F48DE00E944702892B39F461E08DE0CC
:1018E0000E94700287E493E0DDC1109213056091BD
:1018F0000B0570910C058AE391E00E94BB12892BC5
:1019000009F42EC11092130560910B0570910C051E
:1019100082E391E00E94BB12892B09F42AC1109244
:10192000130560910B0570910C0582E391E00E9414
:10193000BB12892B31F48DE00E944702892B09F4F8
:10194000AFC11092130500910B0510910C05B80161
:101950008CE291E00E94BB12892B09F017C1909292
:101960000101809200018091000190910101069790
:1019700071F485EF91E00E94610A7092010160921A
:10198000000160ED77E080E090E00E949F0280918E
:1019900013058111BEC062ED73E0CE0107960E946F
:1019A0006C081092130560910B0570910C05CE0127
:1019B00007960E94740B1A8219821C821B821E8257
:1019C0001D826F8178856115710531F04B855C85CD
:1019D000CE0101960E94340BCE0101960E94BA0AF4
:1019E00089819A810E9446118F8198850E944611B3
:1019F00080910001909101019C0122503109223017
:101A0000310508F049C080910001909101010297D1
:101A100071F484EF92E00E94610A509201014092B9
:101A2000000160ED77E080E090E00E949F028091ED
:101A30001305882309F4AFCF1092130560910B05AD
:101A400070910C0582E795E00E94740B0E94E005FE
:101A500068EE73E080E090E00E949F028091E303D3
:101A60009091E403892B49F461E08091E5030E94A1
:101A7000700283E193E00E94610A68EB7BE080E002
:101A800090E00E949F021092E4031092E303F09210
:101A90000101E09200017FCF22503109223031054F
:101AA000A0F58091000190910101049771F484EFF9
:101AB00092E00E94610A309201012092000160EDE3
:101AC00077E080E090E00E949F02809113058823D8
:101AD00009F461CF1092130560910B0570910C050C
:101AE00082E795E00E94740B0E94E00568EE73E0C7
:101AF00080E090E00E949F028091E3039091E403D4
:101B0000892B09F0BACF60E0B0CF0697029728F58D
:101B10002ACF1092130560910B0570910C0582E796
:101B200095E00E94740B0E94E00568EE73E080E08F
:101B300090E00E949F021091E503812F0E944702CE
:101B4000892B09F0B6C08091E3039091E403892BBF
:101B500009F0AFC089E993E0BEC00E94BA05A1CEEA
:101B60008DE00E944702019709F0CCCE8AE593E010
:101B700099C08DE00E944702019709F0D0CE60E045
:101B80008DE00E9470028FE693E08CC0B80187E27E
:101B900091E00E94BB12892B09F04FC08FE192E0C7
:101BA0000E94610A68E57BE180E090E00E949F026C
:101BB0008BE992E00E94610A6CEA7DE080E090E0AF
:101BC0000E949F0281EC92E00E94610A64EC79E03D
:101BD00080E090E00E949F028BEC92E00E94610AFC
:101BE00064EC79E080E090E00E949F0286ED92E054
:101BF0000E94610A64EC79E080E090E00E949F021C
:101C00008EED92E00E94610A64EC79E080E090E061
:101C10000E949F0287EE92E00E94610A64EC79E0E4
:101C200080E090E00E949F028EEE92E00E94610AA6
:101C300064EC79E080E090E030C0B8018EE191E0A2
:101C40000E94BB12892B29F4B0920101A0920001DD
:101C5000DACEB80184E191E00E94BB12892B29F40D
:101C6000D0920101C09200011CCFB8018CE091E03C
:101C70000E94BB12892B49F488E193E00E94610A1B
:101C80006CED75E080E090E008C08DE193E00E948B
:101C9000610A68E873E180E090E00E949F027BCED9
:101CA00083E893E00E94610A60EA7FE080E090E0D0
:101CB000F4CF812F0E944702019731F48091E30312
:101CC0009091E403892B29F060EA7FE080E090E0C6
:101CD000D8CE85EB93E00E94610AF6CFE0914B04E9
:101CE000EF3259F021E02E0F20934B04F0E0EE0F7D
:101CF000FF1FE351FC4F9183808308950F931F933F
:101D0000CF93DF93ECE4F4E01382128288EE93E049
:101D1000A0E0B0E084839583A683B78385E491E057
:101D20009183808385EC90E09587848784EC90E0B4
:101D30009787868780EC90E0918B808B81EC90E098
:101D4000938B828B82EC90E0958B848B86EC90E079
:101D5000978B868B118E128E138E148EEAEEF4E022
:101D60001186128613861486158616861786148A9F
:101D70001086108211821092E90417821282138257
:101D8000148215821682EEE7F5E011821382128228
:101D900015821482168291E09083E5E8F5E01082C6
:101DA0001182128214821382168215821086178283
:101DB000118614861386C1E2D5E086E2888722E088
:101DC0002E839F830FE511E0198308838B831A828A
:101DD000CE010E946E0E87E691E099838883EAE641
:101DE000F5E08AE295E09183808390936D0580937E
:101DF0006C05F0936F05E0936E05109271051092DB
:101E00007005CBE1D5E01983088383E28B831A82C6
:101E1000CE010E946E0E8FE591E099838883C5E024
:101E2000D5E01983088384E28B831A82CE010E9455
:101E30006E0E87E591E0998388831F821E828FEF63
:101E40009FEF998788871A861E861B861C861D86AB
:101E50001F8662ED73E082E795E0DF91CF911F91DD
:101E60000F910C946C08CF93DF9380917205909141
:101E700073050E94461180918E05882301F180919F
:101E8000900590919105892BD1F0C0E0D0E0209190
:101E90008E0530E08091900590919105C217D3078F
:101EA00064F49E01220F331FFC01E20FF31F8081B7
:101EB00091810E9446112196EACF0E94461180919D
:101EC000880590918905009721F0DF91CF910C94BE
:101ED0004611DF91CF9108958F929F92AF92BF925A
:101EE000CF92DF92EF92FF92CF93DF93EC01688164
:101EF00079818A819B81611571058105910521F4A4
:101F000064E279ED8BE597E02DE133EF41E050E0BD
:101F10000E940E1049015A019B01AC01A7EAB1E4ED
:101F20000E942D106B017C01ACEEB4EFA501940171
:101F30000E943B10DC01CB018C0D9D1DAE1DBF1D11
:101F4000B7FF03C00197A109B04888839983AA838A
:101F5000BB83BC01CD019F77DF91CF91FF90EF90C4
:101F6000DF90CF90BF90AF909F908F9008958F9209
:101F70009F92AF92BF92CF92DF92EF92FF926091C9
:101F80000201709103018091040190910501611596
:101F900071058105910521F464E279ED8BE597E007
:101FA0002DE133EF41E050E00E940E1049015A014B
:101FB0009B01AC01A7EAB1E40E942D106B017C01EA
:101FC000ACEEB4EFA50194010E943B10DC01CB0103
:101FD0008C0D9D1DAE1DBF1DB7FF03C00197A1094C
:101FE000B0488093020190930301A0930401B09341
:101FF0000501BC01CD019F77FF90EF90DF90CF905E
:10200000BF90AF909F908F9008956093020170935E
:10201000030180930401909305010895052E97FB19
:102020001EF400940E94251057FD07D00E947710DF
:1020300007FC03D04EF40C94251050954095309534
:1020400021953F4F4F4F5F4F089590958095709524
:1020500061957F4F8F4F9F4F08950E949910A59FC4
:10206000900DB49F900DA49F800D911D1124089593
:10207000B7FF0C942D100E942D10821B930B089516
:102080002F923F924F925F926F927F928F929F9288
:10209000AF92BF92CF92DF92EF92FF920F931F9376
:1020A000CF93DF93CDB7DEB7CA1BDB0B0FB6F89427
:1020B000DEBF0FBECDBF09942A88398848885F8467
:1020C0006E847D848C849B84AA84B984C884DF80D8
:1020D000EE80FD800C811B81AA81B981CE0FD11DBC
:1020E0000FB6F894DEBF0FBECDBFED010895A1E29B
:1020F0001A2EAA1BBB1BFD010DC0AA1FBB1FEE1F82
:10210000FF1FA217B307E407F50720F0A21BB30BCC
:10211000E40BF50B661F771F881F991F1A9469F748
:1021200060957095809590959B01AC01BD01CF01A4
:102130000895A29FB001B39FC001A39F700D811DA0
:102140001124911DB29F700D811D1124911D0895C0
:10215000EE0FFF1F0590F491E02D09940F931F934C
:10216000CF93DF938230910510F482E090E0E0910C
:102170009A05F0919B0520E030E0A0E0B0E03097B8
:1021800019F1408151810281138148175907C8F024
:102190008417950769F4109731F012960C931297F3
:1021A00013961C9327C000939A0510939B0522C099
:1021B0002115310519F04217530718F49A01BD0192
:1021C000EF01DF01F801DBCF21153105F9F0281B04
:1021D000390B2430310580F48A819B8161157105AA
:1021E00021F0FB019383828304C090939B0580932D
:1021F0009A05FE01329644C0FE01E20FF31F81935F
:10220000919322503109398328833AC0209198054F
:1022100030919905232B41F4209108013091090157
:10222000309399052093980520910601309107017C
:102230002115310541F42DB73EB740910A01509167
:102240000B01241B350BE0919805F0919905E217DD
:10225000F307A0F42E1B3F0B2817390778F0AC01C9
:102260004E5F5F4F2417350748F04E0F5F1F5093A6
:102270009905409398058193919302C0E0E0F0E0C6
:10228000CF01DF91CF911F910F910895CF93DF93ED
:10229000009709F481C0FC01329713821282A09149
:1022A0009A05B0919B05109781F420813181820FAE
:1022B000931F20919805309199052817390751F5FA
:1022C000F0939905E093980567C0ED0120E030E0B8
:1022D000CE17DF0740F44A815B819E01411551050D
:1022E000F1F0EA01F5CFD383C28340815181840F9D
:1022F000951FC817D90759F488819981840F951FB4
:102300000296918380838A819B81938382832115A6
:10231000310529F4F0939B05E0939A053DC0E9014E
:10232000FB83EA8349915991C40FD51FEC17FD0730
:1023300061F480819181840F951F0296E901998350
:102340008883828193819B838A83E0E0F0E0129608
:102350008D919C911397009719F0FD01DC01F7CF47
:102360008D919C9111979D012E5F3F4F820F931F7E
:1023700020919805309199052817390769F430970D
:1023800029F410929B0510929A0502C013821282C2
:10239000B0939905A0939805DF91CF910895A0E09F
:1023A000B0E0E5EDF1E10C944410EC01009721F46C
:1023B000CB010E94AE10B4C0FC01E60FF71F9C01D8
:1023C00022503109E217F30708F4A8C0D9010D9192
:1023D0001C91119706171707B0F00530110508F486
:1023E0009BC0C80104978617970708F495C0025050
:1023F0001109061B170B019311936D937C93CF0169
:102400000E94461189C05B01A01AB10A4C01800EDE
:10241000911EA0919A05B0919B05612C712CE12C25
:10242000F12C109709F446C08D919C911197A81535
:10243000B905B1F56C0142E0C40ED11CCA14DB042D
:1024400078F14C018A189B08640142E0C40ED11C4B
:102450001296BC9012971396AC91B5E0CB16D104AE
:1024600040F0B282A38391828082D9016D937C93E4
:1024700009C00E5F1F4F800F911FF9019183808368
:10248000EB2DFA2FE114F10431F0D7011396FC93F0
:10249000EE93129741C0F0939B05E0939A053CC0E0
:1024A0006816790608F43C017D0112960D90BC91E6
:1024B000A02DB7CF8091980590919905881699061F
:1024C000E1F466167706C8F4809106019091070141
:1024D000009741F48DB79EB740910A0150910B01CE
:1024E000841B950BE817F907C8F4F0939905E0935E
:1024F0009805F901718360830FC0CB010E94AE1073
:102500007C01009759F0A801BE010E94A712CE01DC
:102510000E944611C70104C0CE0102C080E090E0D5
:10252000CDB7DEB7EEE00C94601081E090E0F89457
:102530000C94CB12FB01DC0104C08D910190801939
:1025400021F441505040C8F7881B990B0895FB01B6
:10255000DC0102C001900D9241505040D8F708951F
:10256000FB01DC010D900020E9F7119701900D921D
:102570000020E1F70895FB01DC018D9101908019A5
:102580000110D9F3990B0895FB01DC0101900D9224
:102590000020E1F7089510E0C2E6D0E004C0FE019B
:1025A0000E94A8102196C336D107C9F7F894FFCF2F
:1025B00001000100000000009C058000617264754C
:1025C000696E6F00706F776572206F666600706F5E
:1025D000776572206F6E0068656C7000737461744B
:1025E00065006C6564206F6666006C6564206F6EC4
:1025F0000000000000FD079407C2074A088D00D1C3
:1026000007E50700000000F601B20600000000F632
:1026100001BE0700000000F6011501417265207936
:102620006F75206F6B3F005975702C2049276D2006
:102630006665656C696E6720677265617421004F1D
:102640004B0074776F00746F007468726565006684
:1026500072656500666F757200666F720066617202
:1026600000666976650073697800736576656E004B
:102670006569676874006E696E650074656E0065F3
:102680006C6576656E003131003132003133007493
:1026900077656C766500746869727465656E00654F
:1026A00072726F72004F6B2E20506C6561736520E3
:1026B00074656C6C206D6520746865206469676959
:1026C00074616C2070696E206E756D626572005465
:1026D0006F207365652061206C697374206F6620BC
:1026E000617661696C61626C6520636F6D6D616EAE
:1026F00064732C2073776974636820746865203173
:10270000536865656C64206170706C69636174699D
:102710006F6E2077696E646F7720746F20546578D0
:102720007420546F2053706565636820616674651A
:10273000722072756E6E696E6720746865206865B8
:102740006C7020636F6D6D616E640048657265200A
:1027500069732061206C697374206F6620617661F3
:10276000696C61626C6520636F6D6D616E64733A54
:1027700000506F776572204F4E2C00506F77657256
:10278000204F46462C004C4544204F4E2C004C45D3
:1027900044204F46462C0053746174652C004865F4
:1027A0006C702E0054656C6C206D6520746865201B
:1027B0006469676974616C2070696E206E756D6202
:1027C000657200446F6E6500554E4F2100492064CC
:1027D0006F6E277420756E6465727374616E642EFB
:1027E00020547279207468652068656C7020636F6E
:1027F0006D6D616E642E00546865204C45442069FF
:1028000073206E6F77204F4E2E00546865204C4524
:1028100044206973207374696C6C204F4E2E0054F1
:102820006865204C4544206973206E6F77204F46C1
:10283000462E00546865204C45442069732073740B
:10284000696C6C204F46462E005468652073746195
:1028500074652069732063757272656E746C79207B
:102860004F46462E00546865207374617465206974
:10287000732063757272656E746C79204F4E2E00F2
:042880000D0A00003D
:00000001FF
