:1000000014C1000043C1000041C100003FC1000015
:100010003DC100003BC1000039C1000037C10000F4
:1000200035C1000033C1000031C100002FC1000004
:100030002DC100002BC1000029C1000027C1000014
:1000400025C100000C94E80821C100001FC1000078
:100050001DC100001BC1000019C10000E8C700005D
:1000600015C100000C94210F0C94F70E0FC1000075
:100070000DC100000BC1000009C1000007C1000054
:100080000C94BB0803C1000001C10000FFC00000C8
:10009000FDC00000FBC00000F9C00000F7C0000078
:1000A000F5C00000F3C000000C948E08EFC0000003
:1000B000EDC00000EBC00000E9C000000C94610836
:1000C000E5C00000E3C00000E1C00000DFC00000A8
:1000D000DDC00000DBC00000D9C00000D7C00000B8
:1000E000D5C000005201550158015B015E0161015C
:1000F000640167016A016D0170017301BF06C206E8
:10010000B106B506B906F906C606CA06D006D40673
:10011000D806DE06E206E606F906EC06F006F40668
:1001200000000A0B02090C0D0E0807030401000071
:1001300000000000000000000000000000000000BF
:10014000000000000000000000000000121110007C
:10015000000000000000000000000000000000009F
:1001600000000000000000002200250028002B00F5
:100170002E003100340002010000050108010B01CE
:1001800000002100240027002A002D003000330049
:1001900001010000040107010A0105050505070525
:1001A00008080808020202020A0A080804040404F3
:1001B000010101010101010103030303030303031F
:1001C000040707070C0C0C0C0C0C0C0C02020202AE
:1001D00006060606060606060B0B0B0B0B0B0B0B97
:1001E0000102102020080810204010204080020149
:1001F000020108040201010204081020408080402E
:10020000201008040201800402018040201008042C
:1002100002010804020101020408102040800102CA
:10022000040810204080CA139A1311241FBECFEF78
:10023000D1E2DEBFCDBF00E00CBF14E0A0E0B2E031
:10024000E8E9F0E300E00BBF02C007900D92A83B85
:10025000B107D9F727E0A8EBB4E001C01D92A132A5
:10026000B207E1F711E0C4E1D1E000E006C0219758
:100270000109802FFE010E94F115C331D10780E0F2
:100280000807A9F70E94EF110C943B18B9CE90E033
:100290008C30910560F5FC018827EE58FF4F8F4F99
:1002A0000C94F11588E392E020C08BE492E01DC02D
:1002B00084E692E01AC08FE792E017C081E992E0ED
:1002C00014C08AEA92E011C08EEB92E00EC083EE79
:1002D00092E00BC08FEF92E008C08AE193E005C086
:1002E00088E393E002C08FE493E00C943D0E089500
:1002F000833091F028F4813049F0823051F0089534
:10030000853081F060F0863081F0089580E693E0DA
:100310000EC086E793E00BC088E893E008C088E948
:1003200093E005C085EB93E002C087EC93E00C946A
:100330003D0E2F923F925F926F927F928F929F928B
:10034000AF92BF92CF92DF92EF92FF920F931F93E3
:10035000CF93DF93CDB7DEB762970FB6F894DEBFC9
:100360000FBECDBF7C012DB73EB73A8B298B5DD731
:100370006C01DC011B968C91813009F0AFC1EDB7A7
:10038000FEB7F88BEF87C70150D7DC015296ED918D
:10039000FC915397A080B12CC5010196EDB7FEB733
:1003A000E81BF90B0FB6F894FEBF0FBEEDBF2DB7DB
:1003B0003EB72F5F3F4F69013901812C912C8A1480
:1003C0009B047CF4C70131D760E0A7D7880D991D45
:1003D000DC018C91F30181933F01FFEF8F1A9F0A9B
:1003E000EECFF601EA0DFB1D1082C7011ED75C019E
:1003F00062E093D74C0163E0C5018FD75C018FECBD
:1004000095E01FD7811162C1D4015C90F501B080E5
:10041000D70116968D919C911797892B19F08FEC27
:1004200095E034D711E0B11001C010E0F7018681EA
:1004300080FF47C02DB73EB73E872D87C701F5D651
:10044000DC015296ED91FC915397A180B12CC5012E
:100450000196EDB7FEB7E81BF90B0FB6F894FEBF97
:100460000FBEEDBF2DB73EB72F5F3F4F39011901CA
:10047000812C912C8A149B047CF4C701D6D661E0B0
:100480004CD7880D991DDC018C91F10181931F01DE
:10049000FFEF8F1A9F0AEECFF301EA0DFB1D1082CA
:1004A000D7011D96ED91FC911E97212F452DB3018B
:1004B000C6011995ED85FE850FB6F894FEBF0FBEF7
:1004C000EDBFD70116968C9181FF0BC0C701ADD649
:1004D000DC015296ED91FC9153972181223009F471
:1004E00046C1F701868182FF0BC0C7019ED6DC01A1
:1004F0005296ED91FC9153972181223009F446C127
:10050000F701868183FF0BC0C7018FD6DC015296AD
:10051000ED91FC9153972181243009F446C1F701F4
:10052000868184FF13C0C70180D65C0161E0F5D6E7
:10053000F501A289B389F701A588B688012F252D79
:1005400011964C91BC01C601F5011995D70116967B
:100550008C9185FF5DC0EDB7FEB7FE87ED87C701C3
:1005600064D6DC015296ED91FC915397A180B12C99
:10057000C5010196EDB7FEB7E81BF90B0FB6F8946D
:10058000FEBF0FBEEDBF2DB73EB72F5F3F4F390106
:100590001901812C912C8A149B047CF4C70145D647
:1005A00061E0BBD6880D991DDC018C91F10181932E
:1005B0001F01FFEF8F1A9F0AEECFF301EA0DFB1D1B
:1005C0001082D7015796AD90BC905897B301CE01D9
:1005D00007960E94AA0EB601CE0101960E94AA0EAD
:1005E000212F452DBE01695F7F4FCE010196F50198
:1005F000199589819A810E949D168F8198850E9404
:100600009D162D853E850FB6F8943EBF0FBE2DBFBB
:10061000D70116968C9186FF0BC0C70106D6DC0168
:100620005296ED91FC9153972181223009F4D2C06A
:10063000F701868187FF0BC0C701F7D5DC01529611
:10064000ED91FC9153972181223009F4DEC0F7012E
:100650008681978190FF0BC0C701E7D5DC015296D8
:10066000ED91FC9153972181243009F4E7C0F70103
:100670008681978191FF20C0C701D7D55C0161E0D9
:100680004CD64C01D5015296ED91FC915397718057
:10069000F701A78CB0A0B601CE0101960E94AA0E68
:1006A000012F252D472DB401CE010196F501199595
:1006B00089819A810E949D16D70116968D919C91F1
:1006C0001797892B19F08FEC95E0C4D5EF85F88941
:1006D0000FB6F894FEBF0FBEEDBFD0C0823031F52B
:1006E00060E0C6011AD6DC011C91113019F4F70143
:1006F000108709C08EEF810F823010F0153019F489
:10070000D70118961C928FEC95E09BD58111B6C04D
:10071000F7018185882309F4B1C08FEC95E0B6D547
:10072000D7011B96ED91FC911C971BC0833009F0FB
:10073000A5C08FEC95E085D58111A0C060E0C60111
:10074000ECD5FC01D7011A969C91992309F496C027
:1007500010818FEC95E09AD5D7019196ED91FC919F
:100760009297812F19958FEC95E074D587C061E041
:10077000D4D5FC0160817181D7011F96ED91FC9168
:100780005097212F452DC6011995ABCE61E0C5D5F7
:10079000FC0160817181D7015196ED91FC915297D6
:1007A000212F452DC6011995ABCE61E0B6D5FC01D0
:1007B000B080318192818381D7015396ED91FC9174
:1007C0005497012F252D4B2D532F692F782FC601BC
:1007D0001995A5CE61E0A1D5FC0180809180D7015B
:1007E0005996AD90BC905A97B601CE0101960E94E1
:1007F000AA0E212F452DB401CE010196F5011995C0
:1008000089819A810E949D1613CF61E086D5DC0113
:100810008D909C90F701A38CB48CB601CE0101960B
:100820000E94AA0E212F452DB401CE010196F5019B
:10083000199589819A810E949D1609CF61E06DD535
:10084000FC017080818092806380D7015D96AD90BD
:10085000BC905E97B601CE0101960E94AA0E012FB0
:10086000252D472D582D692D762DCE010196F501A8
:10087000199589819A810E949D16F9CEE989FA8994
:100880000FB6F894FEBF0FBEEDBF62960FB6F89498
:10089000DEBF0FBECDBFDF91CF911F910F91FF90B3
:1008A000EF90DF90CF90BF90AF909F908F907F9010
:1008B0006F905F903F902F9008954F925F926F924C
:1008C0007F928F929F92AF92BF92CF92DF92EF92E0
:1008D000FF920F931F93CF93DF93CDB7DEB76B9744
:1008E0000FB6F894DEBF0FBECDBF4C018B01BC012B
:1008F00084ED93E00E942B18892B09F0FEC0B8010B
:1009000089EE93E00E942B18892B49F481E08093B3
:10091000B80460E08DE004D283EE93E00EC0B8012D
:1009200082EF93E00E942B18892B51F41092B804A7
:1009300061E08DE0F5D18CEE93E00E941511CAC004
:10094000B80186EF93E00E942B18892B09F0C2C0F2
:100950008091B804882311F081E001C080E00E94FA
:10096000B7111F92DD24D394DF921F9285E18F93FC
:100970008FEC95E09F938F930E94D90F4CD30F90EB
:100980000F900F900F900F900F90209131052B0139
:100990003C0130E1430E37E2531E611C711C2223DF
:1009A00009F43CC0CE0101967C010E94E80CF09253
:1009B0002E05E0922D05D0922C052DD364157505DA
:1009C0008605970508F4F1C088858111EEC0109264
:1009D0002E0510922D0510922C0527C08091D6056A
:1009E000882319F180912F0590913005DC01ED915C
:1009F000FC910084F185E02D1995892B79F0809187
:100A00002F0590913005DC01ED91FC910284F38576
:100A1000E02D1995BC018FEC95E006D5FCD264154C
:100A2000750586059705F0F2D9CF198284E090E02C
:100A30000E9405165C01FC01138281E08083CE01D7
:100A400001969283818384E090E00E9405166C01F8
:100A5000DC0113961C92139780E18C938AEF93E04C
:100A600012969C938E93119784E090E00E94051655
:100A70007C01FC01138283E080838BE094E092830D
:100A8000818384E090E00E940516FC0113828EE1D0
:100A900080832FE034E032832183BF92AF92DF92D4
:100AA000CF92FF92EF92FF93EF9394E09F9392E0A7
:100AB0009F931F928F938FEC95E09F938F930E944B
:100AC000D90F8EE294E00E9415110FB6F894DEBFA4
:100AD0000FBECDBFB80182E494E00E942B18892B91
:100AE00011F461E008C0B80184E494E00E942B187E
:100AF000892B19F460E08DE013D1B40186E494E011
:100B00000E942B18892B09F06DC0C8010E94631543
:100B10009C01ACE4BFEF0E94F91524EB30E040E00B
:100B200050E00E948815DA01C9018C549F4FAF4FE5
:100B3000BF4F8C01909303028093020280910002C8
:100B40009091010208171907CCF48091000290914E
:100B50000102081719076CF4019790930102809322
:100B600000020E94570F62E370E080E090E01BD229
:100B7000ECCF87E594E00E94151134C080179107EF
:100B80008CF58091000290910102801791078CF7FB
:100B9000019690930102809300020E94570F62E336
:100BA00070E080E090E0FFD1ECCF80912F05909134
:100BB0003005DC01ED91FC910084F185E02D199563
:100BC000892B09F4FACE80912F0590913005DC0134
:100BD000ED91FC910284F385E02D1995BC01C701CC
:100BE00023D4EBCE6B960FB6F894DEBF0FBECDBF0D
:100BF000DF91CF911F910F91FF90EF90DF90CF90F9
:100C0000BF90AF909F908F907F906F905F904F902C
:100C10000895FC01918D228D892F90E0805C9F4F7B
:100C2000821B91098F73992708953FB7F89480919B
:100C3000C7049091C804A091C904B091CA0426B514
:100C4000A89B05C02F3F19F00196A11DB11D3FBF04
:100C5000BA2FA92F982F8827820F911DA11DB11D92
:100C6000BC01CD0142E0660F771F881F991F4A958E
:100C7000D1F708950E9406180F931F93CF93DF9327
:100C8000EC011F8288818823E1F000E010E02885D4
:100C900030E088899989021713077CF49801220FA4
:100CA000331FFC01E20FF31F80819181009711F047
:100CB0000E949D160F5F1F4FEACF18860E949D1657
:100CC00018828981882329F08A899B890E949D1630
:100CD0001982DF91CF911F910F910895FC01848DAE
:100CE000DF01A80FB11DA35ABF4F2C91848D90E056
:100CF00001968F739927848FA689B7892C93A08931
:100D0000B1898C91837080648C93938D848D9813BA
:100D100006C00288F389E02D80818F7D808308954D
:100D2000362F90E0FC01E05EFE4F4491FC01E05262
:100D3000FE4F2491FC01E656FE4F9491992309F44D
:100D40006CC0442309F455C050E0FA013197E231F8
:100D5000F10508F04EC08827E258FF4F8F4F0C94E2
:100D6000F115809180008F7707C0809180008F7D82
:100D700003C080918000877F809380003AC084B553
:100D80008F7702C084B58F7D84BD33C08091B00061
:100D90008F7703C08091B0008F7D8093B00029C011
:100DA000809190008F7707C0809190008F7D03C065
:100DB00080919000877F809390001BC08091A0005D
:100DC0008F7707C08091A0008F7D03C08091A00025
:100DD000877F8093A0000DC0809120018F7707C08E
:100DE000809120018F7D03C080912001877F8093B7
:100DF0002001E92FF0E0EE0FFF1FEA59FE4FA59109
:100E0000B4919FB7F894311104C08C912095282398
:100E100002C0EC912E2B2C939FBF0895CF92DF92AE
:100E2000EF92FF920F931F93CF93DF936C018B018F
:100E30007A01EC01C254DB4F888187FF04C0FB01BB
:100E40001182108224C02CE02C9DC0012D9D900D9C
:100E500011242881AC01420F511D27FD5A95209184
:100E60007A0630E04217530794F42881AC01420F10
:100E7000511D27FD5A959A01FA01EE0FFF1F2E0F03
:100E80003F1FF901E651FA4F208126FD19C08881E4
:100E90008F5F88832CE02C9DC0012D9D900D112427
:100EA0002881AC01420F511D27FD5A9520917A06E9
:100EB00030E042175307B4F428812C303CF112C0C3
:100EC0002881820F911D27FD9A95FC01EE0FFF1FCF
:100ED0008E0F9F1FFC01E651FA4F808160E08F73F7
:100EE0001FDFD5CFF80180819181049680349C4921
:100EF00018F480E49CE904C0F80180819181049693
:100F0000F701918380838FEF888344C0F80140818B
:100F100051812881BC01620F711D27FD7A959B01CB
:100F2000FB01EE0FFF1F2E0F3F1FF901E651FA4F95
:100F300021813281240F351FF701318320832881DD
:100F4000AC01420F511D27FD5A959A01FA01EE0F8F
:100F5000FF1F2E0F3F1FF901E651FA4F208126FF98
:100F600019C02881820F911D27FD9A95FC01EE0F73
:100F7000FF1F8E0F9F1FFC01E651FA4F808161E039
:100F80008F73DF91CF911F910F91FF90EF90DF90C2
:100F9000CF90C6CEDF91CF911F910F91FF90EF9030
:100FA000DF90CF9008958F929F92AF92BF92CF9291
:100FB000DF92EF92FF926B017C0137DE4B015C0107
:100FC000C114D104E104F104E9F02FDEDC01CB010E
:100FD00088199909AA09BB09883E9340A105B10562
:100FE00078F321E0C21AD108E108F10888EE880EF2
:100FF00083E0981EA11CB11CC114D104E104F104CA
:1010000021F7DECFFF90EF90DF90CF90BF90AF90B1
:101010009F908F9008952FB7F8946091C3047091BA
:10102000C4048091C5049091C6042FBF08951F92F7
:101030000F920FB60F9211242F933F938F939F938C
:10104000AF93BF938091C3049091C404A091C50451
:10105000B091C6043091C20423E0230F2D3720F451
:101060000196A11DB11D05C026E8230F0296A11D02
:10107000B11D2093C2048093C3049093C404A09331
:10108000C504B093C6048091C7049091C804A09190
:10109000C904B091CA040196A11DB11D8093C70473
:1010A0009093C804A093C904B093CA04BF91AF91B0
:1010B0009F918F913F912F910F900FBE0F901F9096
:1010C00018951F920F920FB60F9211240BB60F9224
:1010D0002F933F934F935F936F937F938F939F9340
:1010E000AF93BF93EF93FF9348E251E064E271E066
:1010F00080E090E093DEFF91EF91BF91AF919F91DF
:101100008F917F916F915F914F913F912F910F90B0
:101110000BBE0F900FBE0F901F9018951F920F924D
:101120000FB60F9211240BB60F922F933F934F934C
:101130005F936F937F938F939F93AF93BF93EF933F
:10114000FF9348EA50E064EA70E083E090E066DEF6
:10115000FF91EF91BF91AF919F918F917F916F918F
:101160005F914F913F912F910F900BBE0F900FBE4B
:101170000F901F9018951F920F920FB60F92112487
:101180000BB60F922F933F934F935F936F937F9381
:101190008F939F93AF93BF93EF93FF9348E950E0F2
:1011A00064E970E082E090E039DEFF91EF91BF9159
:1011B000AF919F918F917F916F915F914F913F91EF
:1011C0002F910F900BBE0F900FBE0F901F90189590
:1011D0001F920F920FB60F9211240BB60F922F93FE
:1011E0003F934F935F936F937F938F939F93AF93AF
:1011F000BF93EF93FF9348E850E064E870E081E02C
:1012000090E00CDEFF91EF91BF91AF919F918F9194
:101210007F916F915F914F913F912F910F900BBEF6
:101220000F900FBE0F901F90189580912C0588236A
:1012300029F080912D0590912E0508958FEC95E071
:10124000089580913105882321F09091BD0481E0BB
:1012500089270895CF93DF93EC01F3DF882399F07A
:101260001092310581E08E831F9284E08F931F924C
:101270001F92DF93CF939DD61E820F900F900F90F9
:101280000F900F900F90DF91CF910895CF93DF9340
:10129000EC01D7DF811113C081E0809331058E838B
:1012A0001F9283E08F931F921F92DF93CF9381D67B
:1012B0001E820F900F900F900F900F900F90DF9164
:1012C000CF910895CF93DF93EC01AFDF3B81FC0119
:1012D000218532131FC083858F3F99F48A8188232B
:1012E000C9F08FEC95E0ADDF811114C08FEC95E073
:1012F000CDDFEC81FD8119958FEC95E0DF91CF91E9
:10130000A9CFE881F9810280F381E02DCE01DF9140
:10131000CF911994DF91CF91089570E0DC0152963E
:10132000ED91FC915397E60FF71F2081222359F08E
:10133000660F771F5096ED91FC915197E60FF71FBE
:1013400080819181089580E090E008956F927F926E
:101350008F929F92AF92BF92CF92DF92EF92FF92C5
:101360000F931F93CF93DF93EC015FDFDC011B969C
:101370002C911B97213009F048C05296ED91FC91B9
:101380005397608000E010E0712C4E01BFE48B0E9B
:10139000911C7E01E9E4EE0EF11C6E01FDE4CF0E1E
:1013A000D11C5E0189E0A80EB11C061517056CF56D
:1013B000CE013BDF60E0B1DF800F911FDC018C913B
:1013C000F4012081318120343105E1F0D701ED9124
:1013D000FC9111979F012F5F3F4F11963C932E93E5
:1013E0008083F401808191810196918380832D9186
:1013F0003C91D6018D919C912817390719F4F7017A
:10140000B182A0820F5F1F4FD0CFDF91CF911F918C
:101410000F91FF90EF90DF90CF90BF90AF909F9093
:101420008F907F906F9008958F929F92AF92BF920E
:10143000CF92DF92EF92FF920F931F93CF93DF93A0
:101440001F92CDB7DEB76F3F2FEF720709F428C2A6
:101450008B017C01E0DD8090B9049090BA04A090EB
:10146000BB04B090BC04DC01CB0188199909AA091E
:10147000BB09813D9740A105B10548F089288A281C
:101480008B2829F0D70117968C91811106C2C3DDF4
:101490006093B9047093BA048093BB049093BC0426
:1014A000F7019781911113C00F3F110581F4C70116
:1014B000E3DB81E0D70117968C93179751961C9226
:1014C0001E92509753961C921E9252971FC0F7017E
:1014D0008485843041F4992309F4E2C11686158687
:1014E000078785E0C5C0853059F5992309F4D8C12F
:1014F000D7012785C22ED12C8FEF90E08C199D0942
:1015000008171907B9F5211104C089E01C968C93BE
:10151000C7C1C601880F991F0E940516F701918B5C
:10152000808B11E01083C6010E940516D7015396E7
:101530009C938E93529711961C93119786E0E6CF59
:101540008630D9F0873009F053C0992309F4A8C137
:10155000F701258530E00288F389E02DE20FF31FC3
:101560006081862F90E04FEF50E0481B590B041725
:10157000150779F0F70117824EC1992309F490C13C
:10158000D70185850288F389E02DE80FF11D0083DE
:1015900068C0220F331FD70150960D911C915197AF
:1015A000662369F0020F131F0E940516F80191834C
:1015B0008083D7011C968C911C978F5F12C0F80115
:1015C000E20FF31F11821082F701168685858F5F67
:1015D00085879785891303C089E0848704C086E0E6
:1015E000D7011C968C93F70180858F5F808758C147
:1015F000883009F03FC0992309F452C1D70185858D
:1016000020899189E22FF92FE80FF11DE80FF11DD4
:1016100080819181009759F01E962C911E9731E0A0
:10162000320F1E963C93FC01E20FF11D0083F7017F
:1016300085850288F389E02DE80FF11DD7011E96FC
:101640002C911E97908129132BC11E961C921E97D8
:101650008F5F1D968C931D971F969C911F978913E2
:1016600005C01C968C911C978F5F50CF86E0F701C8
:10167000848716C1893009F0D1C0992309F410C1BB
:10168000048B0111C8C017828091D805811188C0D0
:101690008385823051F412828381882309F49AC0B1
:1016A0000588F689E02D80E00CC0813061F4F701F7
:1016B00082838381882309F48DC00588F689E02D13
:1016C00081E0199587C0833079F41F9281E08F9370
:1016D0001F921F92FF92EF926CD40F900F900F9079
:1016E0000F900F900F9076C0853009F073C060E0C6
:1016F000C70113DE4BE050E0BC0184E694E00E9499
:101700000A18892B09F066C01982D7015296ED910B
:10171000FC915397A180B12C00E010E0C12CD12C9A
:101720000A151B0564F461E0C701F7DD800F911F06
:10173000FC018081C80ED11C0F5F1F4FF1CFC98201
:1017400084E090E00E9405168C01DC0113961C9247
:10175000139781E08C93CE01019612969C938E9301
:10176000119784E090E00E940516FC01138287E146
:10177000808380E794E0928381831F930F93FF938C
:10178000EF9382E08F9385E08F931F921F92FF92D9
:10179000EF920FD40FB6F894DEBF0FBECDBF1AC0C4
:1017A0002DECC22E24E0D22E00E010E080912B051B
:1017B00090E00817190774F4D6018D919D916D0181
:1017C000DC01ED91FC910190F081E02D19950F5F06
:1017D0001F4FECCFF70184818823E9F081858823AE
:1017E000D1F0C70153DDD70150960D911C9151974F
:1017F00052962D913C9153975796ED91FC915897A5
:101800001F964C911F971B966C911B9719968C9164
:101810001995C7011FDDC7012FDA42C0992309F4CA
:101820003FC0813001F5602FF7010187002391F15E
:10183000948191112FC040912B0550E0EDECF4E024
:1018400020E030E02417350754F4A191B1911396AC
:101850007C91671301C091E02F5F3F4FF3CF992335
:1018600009F488CE17C0823089F402872FEF30E068
:10187000201B310994E0359527959A95E1F70F7073
:1018800010E02017310731F0178204C0833011F4C3
:10189000F70103878F5FD70139CEC701EDD9F7CDA7
:1018A0000F90DF91CF911F910F91FF90EF90DF90FC
:1018B000CF90BF90AF909F908F900895CF93DF937C
:1018C0008091CB0481112FC080912F05909130051C
:1018D000DC01ED91FC910084F185E02D1995892BB7
:1018E00011F180912F0590913005DC01ED91FC9173
:1018F0000284F385E02D1995EC01BC0177278FEC6C
:1019000095E092DD8091D4058823F1F28FEC95E08B
:10191000BDDCE091E805F091E9058C2F19958FEC7D
:1019200095E098DCD1CFDF91CF91089530D181112E
:1019300025C080E090E0892B41F080E090E0892B89
:1019400021F00E94000081111BC080E090E0892BF3
:1019500041F080E090E0892B21F00E94000081118D
:1019600012C080E090E0892B99F080E090E0892B14
:1019700079F00E940000811109C008959FDFD9CF3E
:101980000E940000E2CF0E940000EBCF0C94000008
:101990000895CF93DF93EC018091CC04882359F014
:1019A00080912F0590913005DC01ED91FC91019023
:1019B000F081E02D19958E81811107C062E070E001
:1019C00080E090E0DF91CF91EECADF91CF91089552
:1019D000FC011186128613861486158616861786D4
:1019E000148A1086108211821092BD04178212820E
:1019F0001382148215821682089590E0FC01E05251
:101A0000FE4F2491FC01E656FE4F8491882399F005
:101A100090E0880F991FFC01E058FE4FA591B4910A
:101A2000FC01EA59FE4F859194918FB7F894EC919F
:101A3000E22BEC938FBF0895CF92DF92EF92FF924B
:101A40000F931F93CF93DF936C017A018B01C0E05A
:101A5000D0E0CE15DF0581F0D8016D918D01D60162
:101A6000ED91FC910190F081E02DC6011995892B33
:101A700011F02196EECF7E01C701DF91CF911F912A
:101A80000F91FF90EF90DF90CF900895089580E040
:101A900090E00895FC01538D448D252F30E0842F74
:101AA00090E0821B930B541710F0CF960895019786
:101AB0000895FC01918D828D981761F0828DDF0170
:101AC000A80FB11D5D968C91928D9F5F9F73928F31
:101AD00090E008958FEF9FEF0895FC01918D828D26
:101AE000981731F0828DE80FF11D858D90E00895F3
:101AF0008FEF9FEF0895EF92FF920F931F93CF9375
:101B0000DF931F92CDB7DEB77C01198284E090E0AD
:101B10000E9405168C01FC01138281E08083CE01B6
:101B200001969283818384E090E00E940516FC0177
:101B3000D7010D900020E9F7119713829D012E190E
:101B40003F092F3F310519F014F02FEF30E02083CB
:101B5000F282E1821F930F93FF93EF9382E08F93C2
:101B60008CE08F931F928FE28F938FEC95E09F9381
:101B70008F931FD20FB6F894DEBF0FBECDBF0F906C
:101B8000DF91CF911F910F91FF90EF90089582E325
:101B900095E03FD821E0892B09F420E0822F0895B9
:101BA000EF92FF920F931F93CF93DF93EC0181E0AD
:101BB000888F9B8D8C8D981305C0E889F989808169
:101BC00085FD25C0F62E0B8D10E00F5F1F4F0F73A4
:101BD0001127E02E8C8DE8120BC00FB607FCFACF50
:101BE000E889F989808185FFF5CFCE0177D8F2CFDA
:101BF0008B8DFE01E80FF11DE35AFF4FF0829FB776
:101C0000F8940B8FEA89FB89808180620AC09FB7B4
:101C1000F894EE89FF896083E889F989808183706F
:101C2000806480839FBF81E090E0DF91CF911F911E
:101C30000F91FF90EF900895CF93DF93EC01888D83
:101C40008823C1F0EA89FB89808185FD05C0A889C8
:101C5000B9898C9186FD0EC00FB607FCF5CF808147
:101C600085FFF2CFA889B9898C9185FFEDCFCE0190
:101C700035D8E8CFDF91CF910895CF92DF92EF92E0
:101C8000FF920F931F93CF93DF93CDB7DEB7CDB6FF
:101C9000DEB6FC0101900020E9F79F01281B390BFB
:101CA0002E5F3F4F4DB75EB7421B530B0FB6F894F4
:101CB0005EBF0FBE4DBFEDB7FEB731967F01EDB7EA
:101CC000FEB71182BC01C7010E94201868E874E0C9
:101CD000C7010E942018F70101900020E9F7319711
:101CE0008F010E191F0941F184E090E08ED7FC01AD
:101CF000138298010F3F110519F014F02FEF30E017
:101D00002083F282E182FF93EF9381E08F938091B1
:101D1000B3068F931F928091B5068F938FEC95E059
:101D20009F938F9346D12DB73EB7285F3F4F0FB695
:101D3000F8943EBF0FBE2DBF0FB6F894DEBE0FBEA7
:101D4000CDBEDF91CF911F910F91FF90EF90DF906B
:101D5000CF900895EF92FF920F931F93CF93DF934D
:101D6000EC01198218821B821A821D821C82611565
:101D70007105B1F17B01FB0101900020E9F731977A
:101D80008F01061B170BB8016F5F7F4F80E090E05B
:101D90000E942617009759F0998388831B830A8332
:101DA0002C813D81232B79F4FC0110820CC08881A9
:101DB0009981009709F0C1D7198218821D821C826F
:101DC0001B821A820DC01D830C83B7018881998103
:101DD000DF91CF911F910F91FF90EF900C943418E9
:101DE000DF91CF911F910F91FF90EF9008951F9277
:101DF0000F920FB60F9211240BB60F922F933F93B1
:101E00004F935F936F937F938F939F93AF93BF9302
:101E1000EF93FF9382E395E00E946E06FF91EF91AE
:101E2000BF91AF919F918F917F916F915F914F91F2
:101E30003F912F910F900BBE0F900FBE0F901F90F0
:101E400018951F920F920FB60F9211240BB60F9296
:101E50002F938F939F93EF93FF93E0914205F0911F
:101E600043058081E0914805F091490582FD12C04B
:101E7000908180914B058F5F8F7320914C05821765
:101E800051F0E0914B05F0E0EE5CFA4F958F8093B6
:101E90004B0501C08081FF91EF919F918F912F9110
:101EA0000F900BBE0F900FBE0F901F901895CF9202
:101EB000DF92EF92FF92DC01A03282E0B8070CF0D3
:101EC0003CC0B7FD06C0A53BB1052CF0A4EBB0E0CB
:101ED00002C0A0E0B0E080917C0628E830E0690113
:101EE000C81AD10887FDD394CC0CDD1CCC0CDD1CAA
:101EF0000D2C000CEE08FF0880917D0628E532E0ED
:101F0000281B310987FD3395220F331F220F331F02
:101F1000A901330F660B770B9A01AB012C193D0910
:101F20004E095F091BD624EB30E040E050E0F0D5CD
:101F3000C20ED31EE41EF51ED60190917B0690338F
:101F400098F580917C0648E850E0481B510987FDD0
:101F50005395440F551F440F551FA417B5078CF018
:101F600080917D0628E532E0281B310987FD3395F5
:101F7000220F331F220F331FAD012A173B070CF42A
:101F8000A90142505109440F551F2FB7F894892FCA
:101F900090E0FC01EE0FFF1F8E0F9F1FFC01E6512A
:101FA000FA4F528341832FBFFF90EF90DF90CF9085
:101FB00008955F926F927F928F929F92AF92BF929D
:101FC000CF92DF92EF92FF920F931F93CF93DF9305
:101FD000CDB7DEB76B970FB6F894DEBF0FBECDBF9F
:101FE0000EA51FA558A8CBA816D8552009F471C076
:101FF0002091FE06222309F46CC08090FF06909089
:102000000007A0900107B090020781149104A10479
:10201000B10409F45EC0DC01CB0188199909AA0951
:10202000BB090196A11DB11D883C9105A105B10513
:1020300008F04FC08091310528EC820E911CA11C44
:10204000B11C882309F43DC0CE0101967C01C0DC9F
:10205000F0922E05E0922D0581E080932C050E94E0
:102060000B08681579058A059B0508F4ABC08885BF
:102070008111A8C010922E0510922D0510922C05EA
:1020800028C0F8018781882321F180912F05909144
:102090003005DC01ED91FC910084F185E02D19956E
:1020A000892B79F080912F0590913005DC01ED911D
:1020B000FC910284F385E02D1995BC018FEC95E02D
:1020C000B3D90E940B08681579058A059B05E8F2CB
:1020D000D8CF81E08093FE067E01B4E3EB0EF11CC5
:1020E0006FEFC80156DC62E1C80153DC652DC80101
:1020F00050DC95D420E130E040E050E009D5962F47
:102100009095E0E19E9FC00111246F70682BC8017B
:1021100040DC6AA9C8013DDC6C2DC8013ADC6C2D9D
:102120006095C80136DC812C912CD12C8C149D0437
:10213000A4F53701F2E06F0E711CD701ED90FC9011
:10214000F7016081C80125DCD7016C916095C80159
:1021500020DCA12CB12CF701808190E0A816B906F3
:1021600064F40180F281E02DEA0DFB1D6081C8015D
:1021700010DCFFEFAF1ABF0AEECFE114F10441F01B
:102180008381882319F081819281D7D5C701D5D564
:10219000BFEF8B1A9B0A7301C9CF60E0C801F9DB5E
:1021A000552069F10E940B08DC01CB010196A11DAD
:1021B000B11D8093FF0690930007A0930107B09391
:1021C00002071DC080912F0590913005DC01ED9133
:1021D000FC910084F185E02D1995892B09F43FCFFE
:1021E00080912F0590913005DC01ED91FC910284E6
:1021F000F385E02D1995BC01C70116D930CF6B9638
:102200000FB6F894DEBF0FBECDBFDF91CF911F9107
:102210000F91FF90EF90DF90CF90BF90AF909F9085
:102220008F907F906F905F9008958F929F92AF9262
:10223000BF92CF92DF92EF92FF920F931F93CF93B3
:10224000DF931F921F92CDB7DEB74C01FC010190C6
:102250000020E9F731978F01081B190B1A821982A8
:10226000CE0102966C01FE0131967F0184E090E080
:10227000011130C0CAD45C01FC01138299249394EB
:102280009082D282C18284E090E0BFD48C01FC01B4
:1022900013829082F282E18284E090E0B6D4FC0165
:1022A00013828FE0808388EA94E092838183BF92D7
:1022B000AF921F930F93FF93EF9383E08F938EEF73
:1022C0008F931F928FE28F938FEC95E09F938F9364
:1022D00070DE39C09AD45C01FC01138211E01083D6
:1022E000D282C18284E090E090D46C01FC01138220
:1022F0001083F282E18284E090E087D47C01FC01CB
:10230000138200839282818284E090E07ED4FC017B
:1023100013828FE0808388EA94E092838183BF9266
:10232000AF92DF92CF92FF92EF92FF93EF9384E010
:102330008F938BE08F931F928FE28F938FEC95E0BA
:102340009F938F9336DE0FB6F894DEBF0FBECDBFDE
:102350000F900F90DF91CF911F910F91FF90EF9011
:10236000DF90CF90BF90AF909F908F900895CF93C4
:10237000DF931F92CDB7DEB7898384E090E045D428
:10238000FC01138281E080839E012F5F3F4F3283E7
:102390002183FF93EF938F9382E08F931F9285E1C8
:1023A0008F938FEC95E09F938F9303DE0FB6F89495
:1023B000DEBF0FBECDBF0F90DF91CF910895E091AA
:1023C0002B05EF3259F021E02E0F20932B05F0E082
:1023D000EE0FFF1FE353FB4F9183808308957894A2
:1023E00084B5826084BD84B5816084BD85B582601A
:1023F00085BD85B5816085BD80916E0081608093CB
:102400006E00109281008091810082608093810033
:102410008091810081608093810080918000816043
:10242000809380008091B10084608093B10080919E
:10243000B00081608093B0008091910082608093B1
:102440009100809191008160809391008091900033
:102450008160809390008091A10082608093A100B0
:102460008091A10081608093A1008091A000816093
:102470008093A0008091210182608093210180914E
:1024800021018160809321018091200181608093EE
:10249000200180917A00846080937A0080917A0094
:1024A000826080937A0080917A00816080937A00C4
:1024B00080917A00806880937A001092C1008091A8
:1024C000CC0481114FC082E395E090933005809356
:1024D0002F05E0914205F091430592E09083E09151
:1024E0003E05F0913F051082E0914005F0914105D5
:1024F00080E1808310924A05E0914605F0914705FE
:1025000086E08083E0914405F091450580818061FB
:102510008083E0914405F091450580818860808347
:10252000E0914405F0914505808180688083E091C9
:102530004405F091450580818F7D80831092CB0406
:1025400081E08093CC041F929F931F921F928FEC87
:1025500095E09F938F932DDD0F900F900F900F902C
:102560000F900F9080917B06803308F04FC089E078
:1025700044DA80917B06E82FF0E09F01220F331FA1
:10258000E20FF31FE651FA4F9081907C996090839F
:1025900010927C0610927D066CE017D39CE0899F18
:1025A000B001112440E050E09B01240F351FF901D8
:1025B000EE0FFF1F2E0F3F1FF901E651FA4F9081DA
:1025C00096FD17C04F5F5F4F4C30510569F7813062
:1025D00009F084C01092800082E080938100109204
:1025E000850010928400B19A80916F008260809380
:1025F0006F00E0917B06F0E0CF01880F991FE80F94
:10260000F91FE651FA4F8081806480831F928AE02F
:102610008F931F920FE20F93CFECD5E0DF93CF9310
:10262000C8DC109286061F921F921F920F93DF93B1
:10263000CF93BFDC84E090E0E8D2FC01138281E11B
:1026400080838BE894E092838183FF93EF9311E082
:102650001F9389E08F931F920F93DF93CF93A9DC91
:102660008DE594E090938C0680938B068091840690
:10267000909185068160909385068093840688E713
:1026800091E090938A06809389061093870687E4E9
:1026900091E09093A00680939F061093880668EBC4
:1026A0007BE080E090E00E94D30784ED93E023DAA2
:1026B00086E494E020DA8DE0A0D961E08DE00E940C
:1026C00090068DE994E0B1DD8DB79EB744960FB6C4
:1026D000F8949EBF0FBE8DBF29D9FECF823061F422
:1026E00010929000809391001092950010929400A7
:1026F00088BB809371007DCF833069F41092A00075
:1027000082E08093A1001092A5001092A40089BBE2
:10271000809372006ECF81116CCF1092200182E005
:102720008093210110922501109224018ABB80938D
:1027300073005FCFCF93DF93809113078823F1F06D
:102740008091150790911607892BC1F0C0E0D0E069
:102750002091130730E08091150790911607C2175A
:10276000D3075CF49E01220F331FFC01E20FF31F1D
:1027700080819181E2D22196EBCFDFD280910D074B
:1027800090910E07009719F0DF91CF91D6C2DF919B
:10279000CF9108951F93CF93DF9310923505109238
:1027A000340588EE93E0A0E0B0E080933605909386
:1027B0003705A0933805B093390582E192E09093F4
:1027C00033058093320585EC90E090933F0580932C
:1027D0003E0584EC90E0909341058093400580ECA9
:1027E00090E0909343058093420581EC90E09093B4
:1027F00045058093440582EC90E0909347058093D3
:10280000460586EC90E09093490580934805109228
:102810004B0510924C0510924D0510924E058FEC11
:1028200095E0D6D81092040710920607109205077B
:1028300010920807109207071092090711E01093F1
:10284000030710920A0710920B0710920C071092C0
:102850000E0710920D071092100710920F0710929A
:102860001207109211071092130710921607109278
:102870001507CCE2D2E0D093A806C093A70685E165
:102880008093AA061092A90687EA96E098DD8CE26A
:1028900092E09093A8068093A706D093A206C093D7
:1028A000A1068EE18093A4061092A30681EA96E029
:1028B00086DD8CE292E09093A2068093A10686E2E8
:1028C0008093B50692E09093B3061093B406D0932C
:1028D000AE06C093AD068093B0061092AF068DEAA7
:1028E00096E06DDD84E392E09093AE068093AD06B2
:1028F00086EB96E09093F7068093F6069093F906A0
:102900008093F80686EF96E09093FB068093FA0694
:102910001092FD061092FC06D0937F06C0937E06AF
:102920008FE280938106109280068EE796E047DD65
:1029300084E292E090937F0680937E061092850653
:1029400010928406109286061092870610928806CE
:1029500080917A068033A0F491E0980F90937A06E4
:1029600080937B0690E0FC01EE0FFF1F8E0F9F1FF0
:10297000FC01E651FA4F88EB9BE09283818303C010
:102980008FEF80937B06DF91CF911F9108958F92F7
:102990009F92AF92BF92CF92DF92EF92FF92CF932E
:1029A000DF93EC01688179818A819B8161157105D2
:1029B0008105910521F464E279ED8BE597E02DE145
:1029C00033EF41E050E0A4D049015A019B01AC0132
:1029D000A7EAB1E4B9D06B017C01ACEEB4EFA5017C
:1029E0009401BED0DC01CB018C0D9D1DAE1DBF1D21
:1029F000B7FF03C00197A109B04888839983AA83D0
:102A0000BB83BC01CD019F77DF91CF91FF90EF9009
:102A1000DF90CF90BF90AF909F908F9008958F924E
:102A20009F92AF92BF92CF92DF92EF92FF9260910E
:102A300004027091050280910602909107026115CF
:102A400071058105910521F464E279ED8BE597E04C
:102A50002DE133EF41E050E05BD049015A019B0189
:102A6000AC01A7EAB1E470D06B017C01ACEEB4EF2D
:102A7000A501940175D0DC01CB018C0D9D1DAE1D0F
:102A8000BF1DB7FF03C00197A109B048809304029E
:102A900090930502A0930602B0930702BC01CD01FA
:102AA0009F77FF90EF90DF90CF90BF90AF909F9077
:102AB0008F9008956093040270930502809306023C
:102AC000909307020895FC0188279927E8942191A3
:102AD0002032E9F3293010F02E30C8F32B3239F0D0
:102AE0002D3231F4689403C00BD0820F911D2191D7
:102AF00020532A30C8F31EF4909581959F4F089576
:102B00007AE0979F902D879F802D910D1124089535
:102B1000052E97FB16F400940FD057FD05D024D056
:102B200007FC02D046F408C0509540953095219599
:102B30003F4F4F4F5F4F08959095809570956195E9
:102B40007F4F8F4F9F4F089531D0A59F900DB49F19
:102B5000900DA49F800D911D11240895B7FFF4CF0F
:102B6000F3DF821B930B0895A1E21A2EAA1BBB1B55
:102B7000FD010DC0AA1FBB1FEE1FFF1FA217B30749
:102B8000E407F50720F0A21BB30BE40BF50B661F5F
:102B9000771F881F991F1A9469F760957095809523
:102BA00090959B01AC01BD01CF010895A29FB0019A
:102BB000B39FC001A39F700D811D1124911DB29F71
:102BC000700D811D1124911D0895991B79E004C099
:102BD000991F961708F0961B881F7A95C9F780955C
:102BE0000895EE0FFF1F881F8BBF0790F691E02D11
:102BF0001994DCDF332312F48A1B9B0B01C0D6DF50
:102C0000B7FF0895821B930B08950F931F93CF93E3
:102C1000DF938230910510F482E090E0E0911F078D
:102C2000F091200720E030E0A0E0B0E0309719F10B
:102C3000408151810281138148175907C8F08417D8
:102C4000950769F4109731F012960C93129713962A
:102C50001C9327C000931F071093200722C0211543
:102C6000310519F04217530718F49A01BD01EF011D
:102C7000DF01F801DBCF21153105F9F0281B390BF5
:102C80002430310580F48A819B816115710521F022
:102C9000FB019383828304C09093200780931F07D6
:102CA000FE01329644C0FE01E20FF31F819391931F
:102CB00022503109398328833AC020911D07309171
:102CC0001E07232B41F420910A0230910B0230930E
:102CD0001E0720931D07209108023091090221153B
:102CE000310541F42DB73EB740910C0250910D02D1
:102CF000241B350BE0911D07F0911E07E217F30727
:102D0000A0F42E1B3F0B2817390778F0AC014E5F5B
:102D10005F4F2417350748F04E0F5F1F50931E0773
:102D200040931D078193919302C0E0E0F0E0CF0152
:102D3000DF91CF911F910F910895CF93DF9300976B
:102D400009F481C0FC01329713821282A0911F07FF
:102D5000B0912007109781F420813181820F931F59
:102D600020911D0730911E072817390751F5F09360
:102D70001E07E0931D0767C0ED0120E030E0CE178D
:102D8000DF0740F44A815B819E0141155105F1F056
:102D9000EA01F5CFD383C28340815181840F951F0F
:102DA000C817D90759F488819981840F951F029615
:102DB000918380838A819B8193838283211531054E
:102DC00029F4F0932007E0931F073DC0E901FB833E
:102DD000EA8349915991C40FD51FEC17FD0761F49F
:102DE00080819181840F951F0296E90199838883E0
:102DF000828193819B838A83E0E0F0E012968D913B
:102E00009C911397009719F0FD01DC01F7CF8D918C
:102E10009C9111979D012E5F3F4F820F931F209130
:102E20001D0730911E072817390769F4309729F4D8
:102E30001092200710921F0702C013821282B093D3
:102E40001E07A0931D07DF91CF9108956F927F9287
:102E50008F929F92AF92BF92CF92DF92EF92FF92AA
:102E60000F931F93CF93DF93009781F4CB01DF91F2
:102E7000CF911F910F91FF90EF90DF90CF90BF9077
:102E8000AF909F908F907F906F90BFCEFC01E60F28
:102E9000F71F9C0122503109E217F30708F4A5C07F
:102EA000EC01D9010D911C91119706171707A8F095
:102EB0000530110508F497C0C801049786179707D5
:102EC00008F491C002501109061B170B01931193CE
:102ED0006D937C93CF0131DF86C05B01A01AB10AEC
:102EE0004C01800E911EA0911F07B0912007612C0C
:102EF000712CE12CF12C109709F446C08D919C9116
:102F00001197A815B905B1F56C0142E0C40ED11CAA
:102F1000CA14DB0478F14C018A189B08640142E072
:102F2000C40ED11C1296BC9012971396AC91B5E0CA
:102F3000CB16D10440F0B282A38391828082D90162
:102F40006D937C9309C00E5F1F4F800F911FF90195
:102F500091838083EB2DFA2FE114F10431F0D70136
:102F60001396FC93EE9312973EC0F0932007E093E4
:102F70001F0739C06816790608F43C017D011296D6
:102F80000D90BC91A02DB7CF80911D0790911E0789
:102F900088169906E1F466167706C8F4809108024F
:102FA00090910902009741F48DB79EB740910C02B1
:102FB00050910D02841B950BE817F907B0F4F093BC
:102FC0001E07E0931D07F901718360830CC0CB01DC
:102FD0001CDE7C01009749F0A801BE0128D0CE017B
:102FE000ACDEC70104C0CE0102C080E090E0DF91FA
:102FF000CF911F910F91FF90EF90DF90CF90BF90F6
:10300000AF909F908F907F906F90089581E090E0B7
:10301000F89431C0FB01DC0104C08D91019080194E
:1030200021F441505040C8F7881B990B0895FB01CB
:10303000DC0102C001900D9241505040D8F7089534
:10304000FB01DC010D900020E9F7119701900D9232
:103050000020E1F70895FB01DC018D9101908019BA
:103060000110D9F3990B0895FB01DC0101900D9239
:103070000020E1F7089511E0C4E1D1E000E005C0CF
:10308000802FFE01AEDD2196011DC531D10780E004
:083090000807B1F7F894FFCF27
:103098005A005A00010000000000210780000000CB
:1030A8000000D00D1C0D4A0D1C0E0906590D6D0DA2
:1030B8000000000062099901000000006209460D45
:1030C800000000006209A609434F4E4E454354498B
:1030D8004F4E5F5245465553454400494C4C454771
:1030E800414C5F4D4553534147455F524543454920
:1030F8005645440044524F5050494E475F4F55542F
:103108005F474F494E475F4D45535341474500453B
:103118004E434F4445525F4E4F545F5245414459C8
:1031280000494E56414C49445F434F4E4E41434B34
:103138005F5245434549564544004E4F5F434F4E05
:103148004E41434B5F524543454956454400434F22
:103158004E4E41434B5F554E4143434550544142C7
:103168004C45505F524F544F434F4C56455253496C
:103178004F4E00434F4E4E41434B5F4944454E54DA
:1031880049464945525F52454A45435445440043E0
:103198004F4E4E41434B5F5345525645525F554E35
:1031A800415641494C41424C4500434F4E4E4143E4
:1031B8004B5F41555448454E5449434154494F4E3D
:1031C8005F4641494C454400434F4E4E41434B5F97
:1031D8004E4F545F415554484F52495A4544004355
:1031E8004F4E4E41434B5F5245534552564544005E
:1031F800434F4E4E454354494F4E5F535543434505
:10320800535346554C00434F4E4E454354494F4E39
:103218005F4641494C454400434F4E4E454354494F
:103228004F4E5F4C4F535400434F4E4E4543544905
:103238004F4E5F4C4F53545F5245434F4E4E45439C
:1032480054494E47004E4F545F434F4E4E454354EA
:1032580045445F594554004D495353494E475F48CB
:103268004F53540031736865656C642F6B6D2F6C18
:10327800656400466C617368204F4E00466C61734C
:1032880068204F464600494D4700696D67206672C1
:103298006F6D20496F542061707000496F54006D44
:1032A800617263696E6B69657769637A2E6B6163B6
:1032B80070657240676D61696C2E636F6D00506850
:1032C8006F746F20686173206265656E2073656E28
:1032D80074003130300031736865656C642F6B6D34
:1032E8002F736572766F00506F736974696F6E2003
:1032F8007365740041726520796F75206F6B3F00AC
:103308005975702C2049276D206665656C696E6754
:1033180020677265617421000D0A0062726F6B6527
:10332800722E686976656D712E636F6D00417264E7
:1033380075696E6F204F4E0031736865656C642F38
:083348006B6D2F6461746100DC
:00000001FF
