:100000000C94B4020C94DC020C94DC020C94DC0220
:100010000C94DC020C94DC020C94DC020C94DC02E8
:100020000C94DC020C94DC020C94DC020C94DC02D8
:100030000C94DC020C94DC020C94DC020C94DC02C8
:100040000C9478060C94DC020C946C050C94460518
:100050000C94DC020C94DC020C94DC020C94DC02A8
:100060000C94DC020C94DC026572726F72004F4BD0
:1000700000313300746869727465656E004F4B001F
:100080003132007477656C7665004F4B003131007A
:10009000656C6576656E004F4B0031300074656E9F
:1000A000004F4B006E696E65004F4B0065696768D5
:1000B00074004F4B00736576656E004F4B0073699B
:1000C00078004F4B0066697665004F4B00666172A1
:1000D00000666F7200666F7572004F4B0066726546
:1000E00065007468726565004F4B00746F0074772B
:1000F0006F004F4B006F6E65004F4B007A65726F5B
:100100000000000000240027002A00000000002555
:100110000028002B0000000008000201000003047A
:100120000700000000000000004869676820636F56
:100130006E646974696F6E206F6E207468652070DC
:10014000696E3A20005374617475732E00537461A4
:1001500074652C00466F637573206E616D65204F6A
:1001600046462C00466F637573206E616D652C00EA
:10017000466F637573204F46462C00466F63757358
:100180002C004C4544204F46462C004C4544204F03
:100190004E2C00444854207465726D696E616C2069
:1001A0004F46462C00444854207465726D696E6158
:1001B0006C204F4E2C0044485420726561642C0022
:1001C000506F776572204F46462C00506F776572EE
:1001D000204F4E2C00486572652069732061206CA9
:1001E000697374206F6620617661696C61626C6509
:1001F00020636F6D6D616E64733A00546F20736598
:10020000652061206C697374206F66206176616976
:100210006C61626C6520636F6D6D616E64732C2020
:100220007377697463682074686520315368656505
:100230006C64206170706C69636174696F6E2077A3
:10024000696E646F7720746F205465787420546FE2
:1002500020537065656368206166746572207275ED
:100260006E6E696E67207468652068656C702063C7
:100270006F6D6D616E6400466F63757320686173A6
:10028000206265656E20646561637469766174657A
:1002900064002070657263656E740020616E642076
:1002A00068756D6964697479206973002064656795
:1002B00072656573005468652074656D7065726160
:1002C0007475726520697320004920646F6E27740D
:1002D00020756E6465727374616E642E2054727939
:1002E000207468652068656C7020636F6D6D616E49
:1002F000642E00444854207465726D696E616C20F0
:10030000686173206265656E2064656163746976F7
:100310006174656400444854207465726D696E614F
:100320006C20686173206265656E20616374697614
:100330006174656400506C656173652074656C6CF4
:10034000206D65207468652070696E206E756D6221
:10035000657200506C656173652074656C6C206D0E
:1003600065207468652070696E206E756D626572B7
:100370000054686520666F637573206E616D65203B
:10038000686173206265656E206465616374697677
:100390006174656400546865206E657720666F63DC
:1003A0007573206E616D6520686173206265656E8E
:1003B00020616464656400506C65617365207465D8
:1003C0006C6C206D652061206E657720666F6375AB
:1003D00073206E616D6500466F637573206861738D
:1003E000206265656E20616374697661746564007E
:1003F000506C656173652074656C6C206D6520615F
:10040000206469676974616C2070696E206E756D17
:1004100062657220746F20666F63757300554E4F6E
:100420002100446F6E650054656C6C206D6520740E
:100430006865206469676974616C2070696E206EFC
:10044000756D62657200446F6E650054656C6C205A
:100450006D6520746865206469676974616C2070DB
:10046000696E206E756D6265720031536865656CEA
:1004700064206973207265647920746F20757365D8
:10048000210054686520737461746520697320636A
:10049000757272656E746C79204F4E2E00546865CB
:1004A0002073746174652069732063757272656E60
:1004B000746C79204F46462E00506C656173652040
:1004C00074656C6C206D652074686520646967696B
:1004D00074616C2070696E206E756D626572005477
:1004E0006865204C4544206973207374696C6C20E6
:1004F0004F46462E00546865204C454420697320C1
:100500006E6F77204F46462E00546865204C454458
:10051000206973207374696C6C204F4E2E005468F0
:1005200065204C4544206973206E6F77204F4E2E16
:100530000000000000230026002900040404040435
:100540000404040202020202020303030303030180
:100550000204081020408001020408102001020457
:10056000081020004D192E1A11241FBECFEFD8E01D
:10057000DEBFCDBF12E0A0E0B1E0E0E7FFE302C0E4
:1005800005900D92AC33B107D9F724E0ACE3B2E0AB
:1005900001C01D92A832B207E1F712E0C3EBD2E02E
:1005A00004C02197FE010E94881DC23BD107C9F7F4
:1005B0000E945A120C94AB1F0C940000089580E026
:1005C00090E00895FC01538D448D252F30E0842F59
:1005D00090E0821B930B541710F0CF96089501976B
:1005E0000895FC01918D828D981761F0828DDF0155
:1005F000A80FB11D5D968C91928D9F5F9F73928F16
:1006000090E008958FEF9FEF0895FC01918D828D0A
:10061000981731F0828DE80FF11D858D90E00895D7
:100620008FEF9FEF0895FC01918D228D892F90E02F
:10063000805C9F4F821B91098F73992708958FEBE0
:1006400092E00E94130321E0892B09F420E0822F1D
:100650000895FC01848DDF01A80FB11DA35ABF4F7F
:100660002C91848D90E001968F739927848FA689B1
:10067000B7892C93A089B1898C91837080648C9305
:10068000938D848D981306C00288F389E02D8081B4
:100690008F7D80830895EF92FF920F931F93CF93E6
:1006A000DF93EC0181E0888F9B8D8C8D981305C0C2
:1006B000E889F989808185FD26C0F62E0B8D10E032
:1006C0000F5F1F4F0F731127E02E8C8DE8120CC0A7
:1006D0000FB607FCFACFE889F989808185FFF5CF4D
:1006E000CE010E942903F1CF8B8DFE01E80FF11D91
:1006F000E35AFF4FF0829FB7F8940B8FEA89FB898A
:10070000808180620AC09FB7F894EE89FF89608378
:10071000E889F98980818370806480839FBF81E04C
:1007200090E0DF91CF911F910F91FF90EF9008958E
:10073000CF93DF93EC01888D8823C9F0EA89FB8988
:10074000808185FD05C0A889B9898C9186FD0FC07F
:100750000FB607FCF5CF808185FFF2CFA889B98954
:100760008C9185FFEDCFCE010E942903E7CFDF9169
:10077000CF910895833081F028F4813099F0823050
:10078000A1F008958730A9F08830B9F08430D1F411
:10079000809180008F7D03C0809180008F7780934F
:1007A0008000089584B58F7702C084B58F7D84BDA5
:1007B00008958091B0008F7703C08091B0008F7D45
:1007C0008093B00008953FB7F894809145029091CE
:1007D0004602A0914702B091480226B5A89B05C0E9
:1007E0002F3F19F00196A11DB11D3FBFBA2FA92FB0
:1007F000982F8827820F911DA11DB11DBC01CD012D
:1008000042E0660F771F881F991F4A95D1F7089518
:100810008091B902882329F08091BA029091BB029D
:1008200008958DE593E008958091BE02882321F01C
:1008300090915C0381E08927089570E0DC01529675
:10084000ED91FC915397E60FF71F2081222359F079
:10085000660F771F5096ED91FC915197E60FF71FA9
:1008600080819181089580E090E008956F927F9259
:100870008F929F92AF92BF92CF92DF92EF92FF92B0
:100880000F931F93CF93DF93EC010E940804DC01C8
:100890001B962C911B97213009F04AC05296ED917E
:1008A000FC915397608000E010E0712C4E01BFE492
:1008B0008B0E911C7E01E9E4EE0EF11C6E01FDE44D
:1008C000CF0ED11C5E0189E0A80EB11C06151705DC
:1008D0007CF5CE010E94080460E00E941D04800F98
:1008E000911FDC018C91F40120813181203431058C
:1008F000E1F0D701ED91FC9111979F012F5F3F4FE0
:1009000011963C932E938083F4018081918101960E
:10091000918380832D913C91D6018D919C912817D4
:10092000390719F4F701B182A0820F5F1F4FCECFB4
:10093000DF91CF911F910F91FF90EF90DF90CF90BB
:10094000BF90AF909F908F907F906F9008950E947E
:10095000751F0F931F93CF93DF93EC011F82888144
:100960008823E1F000E010E0288530E0888999894B
:10097000021713077CF49801220F331FFC01E20FCA
:10098000F31F80819181009711F00E94261E0F5F56
:100990001F4FEACF18860E94261E1882898188235D
:1009A00029F08A899B890E94261E1982DF91CF91A6
:1009B0001F910F910895CF93DF93EC010E941404CF
:1009C0008823A1F01092BE0281E08E831F9284E002
:1009D0008F931F921F92DF93CF930E94930C1E82DE
:1009E0000F900F900F900F900F900F90DF91CF917D
:1009F0000895CF93DF93EC010E941404811114C079
:100A000081E08093BE028E831F9283E08F931F92BA
:100A10001F92DF93CF930E94930C1E820F900F9032
:100A20000F900F900F900F90DF91CF910895CF937B
:100A3000DF93EC010E9408043B81FC012185321305
:100A400022C083858F3FB1F48A818823E1F08DE550
:100A500093E00E941404811116C08DE593E00E947A
:100A6000F904EC81FD8109958DE593E0DF91CF914B
:100A70000C94DB04E881F9810280F381E02DCE0142
:100A8000DF91CF910994DF91CF9108951F920F923A
:100A90000FB60F9211242F933F934F935F936F9351
:100AA0007F938F939F93AF93BF93EF93FF938FEBBE
:100AB00092E00E942903FF91EF91BF91AF919F9126
:100AC0008F917F916F915F914F913F912F910F90F7
:100AD0000FBE0F901F9018951F920F920FB60F9296
:100AE00011242F938F939F93EF93FF93E091CF0265
:100AF000F091D0028081E091D502F091D60282FD82
:100B000012C090818091D8028F5F8F732091D9029B
:100B1000821751F0E091D802F0E0E154FD4F958F3B
:100B20008093D80201C08081FF91EF919F918F91B6
:100B30002F910F900FBE0F901F901895CF93DF93BA
:100B4000282F30E0F901EB5EFE4F8491F901E15B63
:100B5000FA4FD491F901E55CFA4FC491CC2391F09E
:100B600081110E94BA03EC2FF0E0EE0FFF1FEF5C43
:100B7000FA4FA591B491EC91ED2381E090E021F43E
:100B800080E002C080E090E0DF91CF9108951F9354
:100B9000CF93DF93282F30E0F901EB5EFE4F849175
:100BA000F901E15BFA4FD491F901E55CFA4FC49188
:100BB000CC23C1F0162F81110E94BA03EC2FF0E074
:100BC000EE0FFF1FE55FFE4FA591B4919FB7F8941C
:100BD000111104C08C91D095D82302C0EC91DE2B6A
:100BE000DC939FBFDF91CF911F910895CF93DF9347
:100BF00090E0FC01E15BFA4F2491FC01E55CFA4FC7
:100C00008491882361F190E0880F991FFC01EF5FC8
:100C1000FE4FC591D491FC01E55FFE4FA591B491C3
:100C2000611109C09FB7F894888120958223888339
:100C3000EC912E230BC0623061F49FB7F894888149
:100C4000322F309583238883EC912E2B2C939FBFDA
:100C500006C08FB7F894E8812E2B28838FBFDF91D1
:100C6000CF9108958F929F92AF92BF92CF92DF92D1
:100C7000EF92FF926B017C010E94E3034B015C0148
:100C8000C114D104E104F104F1F00E94E303DC019A
:100C9000CB0188199909AA09BB09883E9340A1058F
:100CA000B10570F321E0C21AD108E108F10888EE1D
:100CB000880E83E0981EA11CB11CC114D104E1046C
:100CC000F10419F7DDCFFF90EF90DF90CF90BF9048
:100CD000AF909F908F9008952FB7F8946091410244
:100CE0007091420280914302909144022FBF089577
:100CF0001F920F920FB60F9211242F933F938F9351
:100D00009F93AF93BF938091410290914202A09133
:100D10004302B09144023091400223E0230F2D376B
:100D200020F40196A11DB11D05C026E8230F0296EF
:100D3000A11DB11D20934002809341029093420275
:100D4000A0934302B09344028091450290914602E1
:100D5000A0914702B09148020196A11DB11D809358
:100D6000450290934602A0934702B0934802BF9178
:100D7000AF919F918F913F912F910F900FBE0F9048
:100D80001F9018958F929F92AF92BF92CF92DF9251
:100D9000EF92FF920F931F93CF93DF931F92CDB7E4
:100DA000DEB77C018B010E946C0680903C02909023
:100DB0003D02A0903E02B0903F02DC01CB018819B9
:100DC0009909AA09BB09813D9740A105B10548F0E1
:100DD00089288A288B2829F0D70117968C918111B0
:100DE0000FC20E946C0660933C0270933D02809398
:100DF0003E0290933F02F7019781911114C00F3F7B
:100E0000110589F4C7010E94A90481E0D701179652
:100E10008C93179751961C921E92509753961C9242
:100E20001E9252971FC0F7018485843041F49923A4
:100E300009F4EAC116861586078785E0C5C08530A6
:100E400059F5992309F4E0C1D7012785C22ED12C89
:100E50008FEF90E08C199D0908171907B9F521113A
:100E600004C089E01C968C93CFC1C601880F991FDE
:100E70000E948E1DF701918B808B11E01083C601BB
:100E80000E948E1DD70153969C938E935297119674
:100E90001C93119786E0E6CF8630D9F0873009F0B1
:100EA00053C0992309F4B0C1F701258530E00288C9
:100EB000F389E02DE20FF31F6081862F90E04FEF62
:100EC00050E0481B590B0417150779F0F7011782FA
:100ED00054C1992309F498C1D70185850288F38903
:100EE000E02DE80FF11D008368C0220F331FD701EA
:100EF00050960D911C915197662369F0020F131FB4
:100F00000E948E1DF80191838083D7011C968C91DD
:100F10001C978F5F12C0F801E20FF31F118210823D
:100F2000F701168685858F5F85879785891303C0AE
:100F300089E0848704C086E0D7011C968C93F70172
:100F400080858F5F808760C1883009F03FC099231A
:100F500009F45AC1D701858520899189E22FF92F9B
:100F6000E80FF11DE80FF11D80819181009759F084
:100F70001E962C911E9731E0320F1E963C93FC0179
:100F8000E20FF11D0083F70185850288F389E02DCA
:100F9000E80FF11DD7011E962C911E979081291301
:100FA00033C11E961C921E978F5F1D968C931D97C2
:100FB0001F969C911F97891305C01C968C911C97B6
:100FC0008F5F50CF86E0F70184871EC1893009F01A
:100FD000D8C0992309F418C1048B0111CEC017821F
:100FE0008091660381118CC08385823051F4128216
:100FF0008381882309F49EC00588F689E02D80E06E
:101000000CC0813061F4F70182838381882309F465
:1010100091C00588F689E02D81E009958BC0833069
:1010200081F41F9281E08F931F921F92FF92EF92A3
:101030000E94930C0F900F900F900F900F900F90B5
:1010400079C0853009F076C060E0C7010E941D04B8
:101050004BE050E0BC0185EE91E00E947A1F892BA5
:1010600009F068C01982D7015296ED91FC9153970F
:10107000A180B12C00E010E0C12CD12C0A151B0579
:101080006CF461E0C7010E941D04800F911FFC01F8
:101090008081C80ED11C0F5F1F4FF0CFC98284E042
:1010A00090E00E948E1D8C01DC0113961C92139718
:1010B00081E08C93CE01019612969C938E931197AA
:1010C00084E090E00E948E1DFC01138287E1808302
:1010D00081EF91E0928381831F930F93FF93EF93AE
:1010E00082E08F9385E08F931F921F92FF92EF9281
:1010F0000E94930C0FB6F894DEBF0FBECDBF1AC08E
:1011000029E5C22E22E0D22E00E010E08091B70245
:1011100090E00817190774F4D6018D919D916D0127
:10112000DC01ED91FC910190F081E02D09950F5FBC
:101130001F4FECCFF70184818823F9F08185882344
:10114000E1F0C7010E94F904D70150960D911C915E
:10115000519752962D913C9153975796ED91FC9152
:1011600058971F964C911F971B966C911B97199639
:101170008C910995C7010E94DB04C7010E94A90454
:1011800043C0992309F440C0813001F5602FF70175
:101190000187002391F1948191112FC04091B702F2
:1011A00050E0E9E5F2E020E030E02417350754F4A0
:1011B000A191B19113967C91671301C091E02F5FCB
:1011C0003F4FF3CF992309F481CE17C0823089F4C1
:1011D00002872FEF30E0201B310994E035952795E9
:1011E0009A95E1F70F7010E02017310731F0178260
:1011F00004C0833011F4F70103878F5FD70132CE2B
:10120000C7010E94A904EDCD0F90DF91CF911F91EE
:101210000F91FF90EF90DF90CF90BF90AF909F9095
:101220008F900895CF93DF9380914902811132C04E
:101230008091BC029091BD02DC01ED91FC91008493
:10124000F185E02D0995892B29F18091BC029091BF
:10125000BD02DC01ED91FC910284F385E02D09953E
:10126000EC01BC0177278DE593E00E94C2068091D6
:1012700062038823E9F28DE593E00E94F904E0918E
:101280007603F09177038C2F09958DE593E00E940A
:10129000DB04CECFDF91CF9108950E941F0381110F
:1012A0000C9412090895CF93DF93EC0180914A02C8
:1012B000882359F08091BC029091BD02DC01ED9130
:1012C000FC910190F081E02D09958E81811108C07B
:1012D00062E070E080E090E0DF91CF910C94320604
:1012E000DF91CF910895CF92DF92EF92FF920F930B
:1012F0001F93CF93DF93CDB7DEB72C970FB6F8943B
:10130000DEBF0FBECDBF8C010E9408047C01DC0152
:101310001B968C91813009F089C0F80186819781F4
:10132000009711F00E94261EC8010E940804DC01EB
:101330005296ED91FC915397808190E0F80191874E
:10134000808701960E948E1DD80117969C938E93DC
:101350001697E12CF12CF801808591852681378143
:10136000E816F9069CF46901CE0CDF1CC8010E9446
:10137000080460E00E941D048E0D9F1DDC018C910D
:10138000F6018083FFEFEF1AFF0AE5CFF901E80FBE
:10139000F91F108281E0D8011E968C938DE593E0B1
:1013A0000E941404811168C0F8018285882391F09D
:1013B0008DE593E00E94F904D8015096ED91FC91DF
:1013C000519716968D919C91179709958DE593E00D
:1013D0000E94DB04F8018585882309F44DC06681ED
:1013E0007781CE0101960E9445128DE593E00E941F
:1013F000F904D80152960D911C915397BE016F5F6D
:101400007F4FCE0107960E942B12CE010796F8015E
:101410000995CE0107960E94EE118DE593E00E949A
:10142000DB04CE0101960E94EE1126C0823021F528
:101430008DE593E00E94140481111EC060E0C70195
:101440000E941D04FC018081D8011F968C931F9778
:101450001B968C91882381F08DE593E00E94F9041E
:10146000D8015496ED91FC9155971F968C91099552
:101470008DE593E00E94DB042C960FB6F894DEBF56
:101480000FBECDBFDF91CF911F910F91FF90EF90D5
:10149000DF90CF9008951F93CF93DF93CDB7DEB742
:1014A00062970FB6F894DEBF0FBECDBF6CEF70E051
:1014B000CE0101960E94F311CE0101960E946E0E9C
:1014C000182FCE0101960E94EE11112339F01092CF
:1014D0004E0210924D0269EF70E0F4C165EF70E0CA
:1014E000CE0101960E94F311CE0101960E946E0E6C
:1014F000182FCE0101960E94EE11112349F081E0D0
:1015000090E090934E0280934D0262EF70E0DAC15A
:101510006EEE70E0CE0107960E94F311CE010796A1
:101520000E946E0E811113C06BEE70E0CE01019629
:101530000E94F311CE0101960E946E0E11E08111FE
:1015400001C010E0CE0101960E94EE1101C011E031
:10155000CE0107960E94EE11112349F082E090E03F
:1015600090934E0280934D0268EE70E0ABC162EE44
:1015700070E0CE0107960E94F311CE0107960E94FB
:101580006E0E811113C06DED70E0CE0101960E94C8
:10159000F311CE0101960E946E0E11E0811101C07F
:1015A00010E0CE0101960E94EE1101C011E0CE01C3
:1015B00007960E94EE11112349F083E090E090938A
:1015C0004E0280934D026AED70E07CC165ED70E0E3
:1015D000CE010D960E94F311CE010D960E946E0E63
:1015E000811192C161ED70E0CE0107960E94F31166
:1015F000CE0107960E946E0E811113C06DEC70E053
:10160000CE0101960E94F311CE0101960E946E0E4A
:1016100011E0811101C010E0CE0101960E94EE118F
:1016200001C011E0CE0107960E94EE11CE010D9689
:101630000E94EE11112349F084E090E090934E0255
:1016400080934D026AEC70E03DC165EC70E0CE0124
:1016500001960E94F311CE0101960E946E0E182F82
:10166000CE0101960E94EE11112349F085E090E031
:1016700090934E0280934D0262EC70E023C16EEBBA
:1016800070E0CE0101960E94F311CE0101960E94F6
:101690006E0E182FCE0101960E94EE11112349F013
:1016A00086E090E090934E0280934D026BEB70E0E9
:1016B00009C165EB70E0CE0101960E94F311CE01E5
:1016C00001960E946E0E182FCE0101960E94EE1117
:1016D000112349F087E090E090934E0280934D02F1
:1016E00062EB70E0EFC06CEA70E0CE0101960E9400
:1016F000F311CE0101960E946E0E182FCE010196B5
:101700000E94EE11112349F088E090E090934E0280
:1017100080934D0269EA70E0D5C064EA70E0CE01C2
:1017200001960E94F311CE0101960E946E0E182FB1
:10173000CE0101960E94EE11112349F089E090E05C
:1017400090934E0280934D0261EA70E0BBC06DE958
:1017500070E0CE0107960E94F311CE0107960E9419
:101760006E0E811113C06AE970E0CE0101960E94ED
:10177000F311CE0101960E946E0E11E0811101C09D
:1017800010E0CE0101960E94EE1101C011E0CE01E1
:1017900007960E94EE11112349F08AE090E09093A1
:1017A0004E0280934D0267E970E08CC060E970E002
:1017B000CE0107960E94F311CE0107960E946E0E8D
:1017C000811113C06DE870E0CE0101960E94F31103
:1017D000CE0101960E946E0E11E0811101C010E051
:1017E000CE0101960E94EE1101C011E0CE010796D4
:1017F0000E94EE11112349F08BE090E090934E028D
:1018000080934D026AE870E05DC063E870E0CE014D
:1018100007960E94F311CE0107960E946E0E811169
:1018200013C060E870E0CE0101960E94F311CE0172
:1018300001960E946E0E11E0811101C010E0CE01F0
:1018400001960E94EE1101C011E0CE0107960E94A0
:10185000EE11112349F08CE090E090934E028093BA
:101860004D026DE770E02EC064E770E0CE01079690
:101870000E94F311CE0107960E946E0E811113C0D3
:1018800061E770E0CE0101960E94F311CE0101964E
:101890000E946E0E11E0811101C010E0CE01019690
:1018A0000E94EE1101C011E0CE0107960E94EE11D8
:1018B0001123A9F08DE090E090934E0280934D02A9
:1018C0006EE670E0CE0101960E94F311CE01019602
:1018D0000E94FC0DCE0101960E94EE111AC068E62E
:1018E00070E0CE0101960E94F311CE0101960E9494
:1018F000FC0DCE0101960E94EE1181E090E09093E4
:101900004C0280934B0205C0CE010D960E94EE1151
:1019100093CE62960FB6F894DEBF0FBECDBFDF91B7
:10192000CF911F9108955F926F927F928F929F92B5
:10193000AF92BF92CF92DF92EF92FF920F931F93DD
:10194000CF93DF93CDB7DEB76B970FB6F894DEBFBA
:101950000FBECDBF0DA51EA55FA4CAA80E946C0630
:10196000552009F488C020910504222309F483C07E
:101970008090060490900704A0900804B090090499
:1019800081149104A104B10409F475C0DC01CB01F8
:1019900088199909AA09BB090196A11DB11D883CA6
:1019A0009105A105B10508F066C08091BE0228EC42
:1019B000820E911CA11CB11C882309F44EC01A860A
:1019C0001B861C861D861E861F86188A1D8A198600
:1019D00019821A8210925C0318861B821C821D8257
:1019E0001E821F82CE0101967C019093BB028093E0
:1019F000BA0281E08093B9020E946C0668157905ED
:101A00008A059B0508F4BFC088858111BCC02DC024
:101A1000F8018781882379F18091BC029091BD0201
:101A2000DC01ED91FC910084F185E02D0995892B75
:101A3000A1F08091BC029091BD02DC01ED91FC917E
:101A40000284F385E02D09958F3FBFEF9B0729F0B6
:101A5000BC018DE593E00E94C2060E946C066815E9
:101A600079058A059B05C0F2D3CF1092BB02109274
:101A7000BA021092B90281E0809305047E01E3E38B
:101A8000EE0EF11C6FEFC8010E94530962E1C8011C
:101A90000E945309652DC8010E9453090E94B41A7F
:101AA00020E130E040E050E00E944B1C962F9095E2
:101AB000F0E19F9FC00111246F70682BC8010E9444
:101AC000530969A9C8010E9453096C2DC8010E94DD
:101AD00053096C2D6095C8010E945309812C912CEB
:101AE000D12C8C149D04CCF5370122E0620E711CC0
:101AF000D701ED90FC90F7016081C8010E94530965
:101B0000D7016C916095C8010E945309A12CB12C9A
:101B1000F701808190E0A816B9066CF40180F2818B
:101B2000E02DEA0DFB1D6081C8010E945309FFEF03
:101B3000AF1ABF0AEDCFE114F10451F0838188237D
:101B400021F0818192810E94261EC7010E94261EDB
:101B5000BFEF8B1A9B0A7301C4CF60E0C8010E94DB
:101B60005309552099F10E946C06DC01CB010196C6
:101B7000A11DB11D8093060490930704A09308044F
:101B8000B093090423C08091BC029091BD02DC0196
:101B9000ED91FC910084F185E02D0995892B09F4E4
:101BA0002BCF8091BC029091BD02DC01ED91FC91A4
:101BB0000284F385E02D09958F3FBFEF9B0709F461
:101BC0001BCFBC01C7010E94C20616CF6B960FB691
:101BD000F894DEBF0FBECDBFDF91CF911F910F9163
:101BE000FF90EF90DF90CF90BF90AF909F908F903D
:101BF0007F906F905F9008950F931F93CF93DF9323
:101C0000FC0124813581232B29F0008111810115EC
:101C1000110521F41092B80208EB12E0F8010190CE
:101C20000020E9F73197EF01C01BD10B31F184E0BF
:101C300090E00E948E1DFC0113829E01CF3FD105D2
:101C400019F014F02FEF30E0208312830183FF930B
:101C5000EF9381E08F938F931F9283E28F938DE5B3
:101C600093E09F938F930E94930C8DB79EB7089635
:101C70000FB6F8949EBF0FBE8DBFDF91CF911F911D
:101C80000F9108950F931F93CF93DF93CDB7DEB7D6
:101C900062970FB6F894DEBF0FBECDBF8C01CB01AB
:101CA000F8011182108213821282158214824AE096
:101CB000BE016F5F7F4F0E941B1BBE016F5F7F4F96
:101CC000C8010E94D71162960FB6F894DEBF0FBE0E
:101CD000CDBFDF91CF911F910F9108952091030403
:101CE00030910404DC0114964D915C9115972417F2
:101CF000350721F5E091FF03F09100046D917C918F
:101D0000309719F06115710599F46115710549F065
:101D1000232BB1F0FB01808190E091958195910991
:101D20000AC0309769F0232B59F0808190E003C0FE
:101D3000CF010E949B1F21E0892B19F020E001C0F8
:101D400021E0822F08958F929F92AF92BF92CF92FF
:101D5000DF92EF92FF92CF93DC011796CC91179709
:101D6000662311F09C2F01C090E018962C911897D3
:101D700030E0220F331F2F5C3A4F40E050E0BA01B1
:101D8000F901E590F490F70180818C2389131AC042
:101D90004A015B01FFEF8F1A9F0AAF0ABF0A1D9627
:101DA000CD90DD90ED90FC9050974C155D056E0543
:101DB0007F0518F4B501A401E3CF30E020E080E016
:101DC00090E003C0342F252FCB01632F722FCF91CA
:101DD000FF90EF90DF90CF90BF90AF909F908F904B
:101DE0000895CF92DF92EF92FF920F931F93CF93BC
:101DF000DF936C017A018B01C0E0D0E0CE15DF05E6
:101E000081F0D8016D918D01D601ED91FC91019089
:101E1000F081E02DC6010995892B11F02196EECFB6
:101E20007E01C701DF91CF911F910F91FF90EF903D
:101E3000DF90CF9008958F929F92AF92BF92CF92F2
:101E4000DF92EF92FF920F931F93CF93DF93CDB763
:101E5000DEB7C054D1400FB6F894DEBF0FBECDBF81
:101E60008C010E946C06F801C184D284E384F4845E
:101E70009B01AC012C193D094E095F0969017A01EA
:101E800030EDC31637E0D306E104F10410F4818984
:101E9000B4C0F801618772878387948714821382A4
:101EA00012821182108261E085810E94C7056AEF6B
:101EB00070E080E090E00E94320661E0F8018581E8
:101EC0000E94F60560E0F80185810E94C70564E183
:101ED00070E080E090E00E943206F89461E0F80142
:101EE00085810E94C7058BE990E00197F1F762E0D8
:101EF000F80185810E94F60583E290E00197F1F7F1
:101F000060E0C8010E94A30E672B682B692B21F4A7
:101F1000F801118A789442C061E0C8010E94A30EC2
:101F2000672B682B692BA1F39E012F5F3F4F79012F
:101F30005E013FEBA31A3EEFB30A670160E0C80100
:101F40000E94A30EF601608371838283938361E014
:101F5000C8010E94A30EF60164837583868397836C
:101F6000F8E0CF0ED11CCA14DB0441F7789420E0CE
:101F700030E0F70180809180A280B3804481558158
:101F80006681778181149104A104B10429F041157F
:101F900051056105710521F4F801118A80E02DC019
:101FA000F90183E0F595E7958A95E1F7E00FF11FD8
:101FB0008081880F84169506A606B70608F481600E
:101FC00080832F5F3F4FF8E0EF0EF11C2832310580
:101FD00081F6F801248130E04081818190E0840F16
:101FE000911D4281840F911D4381840F911D99277A
:101FF0002817390789F681E0818BC05CDE4F0FB668
:10200000F894DEBF0FBECDBFDF91CF911F910F912E
:10201000FF90EF90DF90CF90BF90AF909F908F9008
:1020200008950F931F93CF93DF93FC01019000203D
:10203000E9F73197EF01C81BD90B51F18C0184E00E
:1020400090E00E948E1DFC0113829E01CF3FD105BE
:1020500019F014F02FEF30E0208312830183FF93F7
:10206000EF9381E08F938091AE038F931F928091C5
:10207000B0038F938DE593E09F938F930E94930C11
:102080008DB79EB708960FB6F8949EBF0FBE8DBF52
:10209000DF91CF911F910F9108950F931F93CF93CD
:1020A000DF93EC0188819981009729F02A813B8197
:1020B0002617370788F48B016F5F7F4F0E94AF1E92
:1020C000009761F0998388831B830A832C813D816B
:1020D000232B11F4FC01108281E001C080E0DF912C
:1020E000CF911F910F910895CF92DF92EF92FF92BF
:1020F0001F93CF93DF93EC010E941B0F882399F16C
:102100008E818B3029F078F18551823040F02BC0E0
:102110006A8170E080E090E00E94501B28C01A8124
:10212000612F6F7770E080E090E00E94521B20E00A
:1021300030E040E853E40E948D1B6B017C016B8111
:1021400070E080E090E00E94521BA70196010E947F
:10215000E61C2DEC3CEC4CEC5DE30E948D1B17FF64
:1021600006C0905804C060E070E080EC9FE7DF910B
:10217000CF911F91FF90EF90DF90CF900895CF9275
:10218000DF92EF92FF92CF93DF93EC010E941B0F3F
:10219000882369F18E818B3019F148F185518230A5
:1021A00030F5688170E080E090E00E94501B20E0F4
:1021B00030E040E853E40E948D1B6B017C01698193
:1021C00070E080E090E00E94521BA70196010E94FF
:1021D000E61C2DEC3CEC4CEC5DE30E948D1B0BC02F
:1021E000688170E080E090E00E94501B04C060E0D5
:1021F00070E080EC9FE7DF91CF91FF90EF90DF9050
:10220000CF900895EF92FF920F931F93CF93DF9398
:10221000CDB7DEB70DB71EB7FC0124813581232B66
:1022200029F0608171816115710521F41092B80265
:1022300068EB72E0FB0101900020E9F7CF01861BFB
:10224000970B02962DB73EB7281B390B0FB6F894A3
:102250003EBF0FBE2DBF8DB79EB701967C01EDB777
:10226000FEB711820E94901F69E372E0C7010E94CD
:10227000901FC7010E9411100FB6F8941EBF0FBE29
:102280000DBFDF91CF911F910F91FF90EF900895B7
:10229000CF93DF9300D01F92CDB7DEB78DE0898357
:1022A0008AE08A831B82CE0101960E9411100F9052
:1022B0000F900F90DF91CF910895EF92FF920F93BF
:1022C0001F93CF93DF936115710511F480E01CC05B
:1022D00041155105C1F07B01EC018C819D818A0182
:1022E000080F191FB801CE010E944D10882371F309
:1022F000288139818C819D81B701820F931F0E94B3
:10230000A41F1D830C8381E0DF91CF911F910F915A
:10231000FF90EF900895CF93DF93EC01888199812E
:10232000009711F00E94261E198218821D821C82BD
:102330001B821A82DF91CF910895CF93DF93EC0136
:102340006115710561F0FB0101900020E9F73197FB
:10235000AF01461B570B0E945D11811103C0CE01D6
:102360000E948B11CE01DF91CF910895EF92FF92E1
:102370000F931F93CF93DF93EC017B018A01BA0186
:102380000E944D10811104C0CE010E948B1107C024
:102390001D830C83B701888199810E94A41FCE01FF
:1023A000DF91CF911F910F91FF90EF900895CF9300
:1023B000DF93EC016115710559F0FB0101900020DC
:1023C000E9F73197AF01461B570B0E94B61102C0C7
:1023D0000E948B11CE01DF91CF910895FC01808185
:1023E00091810C94261EEF92FF920F931F93CF932F
:1023F000DF93EC01198218821B821A821D821C82D3
:102400006115710509F18B01CB010E94121B7C0142
:10241000BC01CE010E944D10811109C0CE01DF9197
:10242000CF911F910F91FF90EF900C948B11FD8233
:10243000EC82B80188819981DF91CF911F910F9132
:10244000FF90EF900C940B1BDF91CF911F910F9198
:10245000FF90EF900895FB01DC0111961C921E92F3
:1024600013961C921E92129715961C921E92149708
:102470008617970749F0608171816115710521F018
:10248000448155810C94B6110895FC01118210828B
:1024900013821282158214826115710551F0FB01BD
:1024A00001900020E9F73197AF01461B570B0C94C0
:1024B000B6110895CF93DF93CDB7DEB7AA970FB6C5
:1024C000F894DEBF0FBECDBF789484B5826084BD22
:1024D00084B5816084BD85B5826085BD85B5816028
:1024E00085BD80916E00816080936E0010928100A6
:1024F0008091810082608093810080918100816061
:102500008093810080918000816080938000809121
:10251000B10084608093B1008091B00081608093AD
:10252000B00080917A00846080937A0080917A0074
:10253000826080937A0080917A00816080937A0033
:1025400080917A00806880937A001092C100809117
:102550004A02811150C08FEB92E09093BD028093AC
:10256000BC02E091CF02F091D00292E09083E09122
:10257000CB02F091CC021082E091CD02F091CE021C
:1025800080E180831092D702E091D302F091D402CF
:1025900086E08083E091D102F091D2028081806157
:1025A0008083E091D102F091D202808188608083A3
:1025B000E091D102F091D202808180688083E09125
:1025C000D102F091D20280818F7D808310924902E6
:1025D00081E080934A021F929F931F921F928DE584
:1025E00093E09F938F930E94930C0F900F900F9006
:1025F0000F900F900F9061E08DE00E94F60561E072
:1026000088E00E94F60562E0809199030E94F60539
:1026100080E398EFAFEFBFEF80939D0390939E030D
:10262000A0939F03B093A00322242394312C90E322
:10263000C92E98EFD92EEE24EA94FE2C80915702F1
:10264000909158020197E9F58091550290915602B8
:102650000197B9F5809153020E949E05019789F573
:1026600069E271E0CE0101960E94F311CE0101965C
:102670000E94FC0DCE0101960E94EE1160ED77E004
:1026800080E090E00E9432068091510290915202C7
:10269000009709F006C16091530270915402CE0177
:1026A00001960E94420ECE0101960E94FC0DCE01C1
:1026B00001960E94EE1160EA7FE080E090E00E94C7
:1026C000320680918603882309F453C01092860352
:1026D00060917E0370917F0384EB91E00E949B1FC9
:1026E000892B09F0E8C08DE00E949E05892B09F036
:1026F000E2C061E08DE00E94C7056EE175E0EEC0CA
:10270000B8018AE991E00E949B1F892B09F0A5C2BC
:102710006AE674E0CE0101960E94F311CE010196A3
:102720000E94FC0DCE0101960E94EE116BE372E057
:10273000CE0143960E9445121092860360917E035B
:1027400070917F03CE0143960E94D711BE016D5E4A
:102750007F4FCE0101960E942B12CE0101960E945E
:102760000211CE0101960E94EE11CE0143960E9405
:10277000EE1180914F0290915002019709F08EC0A6
:102780008091A6039091A7038E833BE03F839C0139
:102790003327F901E15BFA4FE491E887F901E55C41
:1027A000FA4FE491E98720E83EE340E050E02E87CD
:1027B0003F87488B598B62E00E94F605CA86DB860C
:1027C000EC86FD8660E971E080E090E00E943206D0
:1027D000CE0101960E94BF102B013C01CE01019653
:1027E0000E9474104B015C01C301B2010E94521D92
:1027F000CE0185960E94420EC501B4010E94521D71
:10280000CE014F960E94420E69E072E0CE014996D9
:102810000E9445124BA15CA16F8D78A1CE01499613
:102820000E945D11811104C0CE0149960E948B1156
:1028300067E172E0CE0149960E949D118C0149A585
:102840005AA56DA17EA10E945D11811103C0C8012E
:102850000E948B1168E272E0C8010E949D11BC01C8
:10286000CE0143960E942B12CE0143960E94021184
:10287000CE0143960E94EE11CE0149960E94EE11C0
:1028800064EF71E080E090E00E943206CE014F9646
:102890000E94EE11CE0185960E94EE110E944D0914
:1028A000CDCE019709F007CF69EF73E0CE01019615
:1028B0000E942B12F8CE1092860360917E037091D5
:1028C0007F0384EB91E00E949B1F892BD1F48DE064
:1028D0000E949E050197A9F469E075E0CE0101967A
:1028E0000E94F311CE0101960E94FC0DCE010196CB
:1028F0000E94EE1160EA7FE080E090E00E943206E4
:1029000015CF1092860360917E0370917F038CEA4D
:1029100091E00E949B1F892B61F48DE00E949E052F
:10292000019739F460E08DE00E94C70565EF74E01F
:10293000D5CF1092860360917E0370917F038CEA5D
:1029400091E00E949B1F892B41F48DE00E949E051F
:10295000892B19F46FED74E0C1CF109286030091BA
:102960007E0310917F03B80186EA91E00E949B1FCD
:10297000892B09F03FC069EB74E0CE0101960E94FB
:10298000F311CE0101960E94FC0DCE0101960E942A
:10299000EE1160ED77E080E090E00E9432068091D9
:1029A0008603811103C00E944811F9CF109286035B
:1029B00060917E0370917F038FEF93E00E94D711A7
:1029C0000E944B0A68EE73E080E090E00E943206BD
:1029D00010914D02812F0E949E05892B09F0B7C3EB
:1029E00080914B0290914C02892B09F0B0C36DE9A4
:1029F00074E0BFC3B80181EA91E00E949B1F892B5C
:102A000009F07ECE6BEF71E0CE0101960E94F311CA
:102A1000CE0101960E94FC0DCE0101960E94EE119E
:102A200068E57BE180E090E00E94320665ED71E0B0
:102A3000CE0101960E94F311CE0101960E94FC0D79
:102A4000CE0101960E94EE116CEA7DE080E090E0FC
:102A50000E9432066BEC71E0CE0101960E94F311E8
:102A6000CE0101960E94FC0DCE0101960E94EE114E
:102A700064EC79E080E090E00E94320660EC71E066
:102A8000CE0101960E94F311CE0101960E94FC0D29
:102A9000CE0101960E94EE1164EC79E080E090E0B6
:102AA0000E94320666EB71E0CE0101960E94F3119E
:102AB000CE0101960E94FC0DCE0101960E94EE11FE
:102AC00064EC79E080E090E00E94320665EA71E013
:102AD000CE0101960E94F311CE0101960E94FC0DD9
:102AE000CE0101960E94EE1164EC79E080E090E066
:102AF0000E94320663E971E0CE0101960E94F31153
:102B0000CE0101960E94FC0DCE0101960E94EE11AD
:102B100064EC79E080E090E00E9432066BE871E0BE
:102B2000CE0101960E94F311CE0101960E94FC0D88
:102B3000CE0101960E94EE1164EC79E080E090E015
:102B40000E94320662E871E0CE0101960E94F31104
:102B5000CE0101960E94FC0DCE0101960E94EE115D
:102B600064EC79E080E090E00E9432066BE771E06F
:102B7000CE0101960E94F311CE0101960E94FC0D38
:102B8000CE0101960E94EE1164EC79E080E090E0C5
:102B90000E94320660E771E0CE0101960E94F311B7
:102BA000CE0101960E94FC0DCE0101960E94EE110D
:102BB00064EC79E080E090E00E94320664E671E027
:102BC000CE0101960E94F311CE0101960E94FC0DE8
:102BD000CE0101960E94EE1164EC79E080E090E075
:102BE0000E94320664E571E0CE0101960E94F31165
:102BF000CE0101960E94FC0DCE0101960E94EE11BD
:102C000064EC79E080E090E00E9432066DE471E0CF
:102C1000CE0101960E94F311CE0101960E94FC0D97
:102C2000CE0101960E94EE1164EC79E080E090E024
:102C30000E94320665E471E0CE0101960E94F31114
:102C4000CE0101960E94FC0DCE0101960E94EE116C
:102C500064EC79E080E090E051CEB80181E991E048
:102C60000E949B1F892B09F04BC06BE474E0CE01DE
:102C700001960E94F311CE0101960E94FC0DCE0137
:102C800001960E94EE1160ED77E080E090E00E94F6
:102C9000320680918603811103C00E944811F9CF4A
:102CA0001092860360917E0370917F038FEF93E013
:102CB0000E94D7110E944B0A68EE73E080E090E01A
:102CC0000E94320680914B0290914C02892B99F41C
:102CD00061E080914D020E94C70566E474E0CE0178
:102CE00001960E94F311CE0101960E94FC0DCE01C7
:102CF00001960E94EE1168EB7BE080E090E011C24B
:102D0000B80187E891E00E949B1F892BD9F567E203
:102D100074E0CE0101960E94F311CE0101960E944B
:102D2000FC0DCE0101960E94EE1160ED77E080E08F
:102D300090E00E94320680918603811103C00E94B8
:102D40004811F9CF1092860360917E0370917F0342
:102D50008FEF93E00E94D7110E944B0A68EE73E058
:102D600080E090E00E94320680914B0290914C02EC
:102D7000892B09F660E080914D020E94C70562E24E
:102D800074E0ADCFB8018FE791E00E949B1F892BC3
:102D900099F46DE174E0CE0101960E94F311CE0129
:102DA00001960E94FC0DCE0101960E94EE116CED81
:102DB00075E080E090E0A2CDB80189E791E00E9443
:102DC0009B1F892B09F052C0309258022092570263
:102DD00060EF73E0CE0101960E94F311CE010196DF
:102DE0000E94FC0DCE0101960E94EE116CEA7DE07E
:102DF00080E090E00E94320680918603811103C03A
:102E00000E944811F9CF1092860360917E03709161
:102E10007F038FEF93E00E94D7110E944B0A68EE68
:102E200073E080E090E00E94320680914B02909126
:102E30004C02009779F4309256022092550280910C
:102E40004D0290914E02909354028093530267ED8D
:102E500073E060CC019709F069CC1092580210928F
:102E6000570210925602109255025DC1B8018FE6CA
:102E700091E00E949B1F892BD9F410925802109266
:102E80005702109256021092550267E772E0CE0187
:102E900001960E94F311CE0101960E94FC0DCE0115
:102EA00001960E94EE116CEA7DE080E090E026CD74
:102EB000B80184E691E00E949B1F892B61F5309256
:102EC00052022092510267EB73E0CE0101960E94FC
:102ED000F311CE0101960E94FC0DCE0101960E94D5
:102EE000EE116CEA7DE080E090E00E943206809175
:102EF0008603811103C00E944811F9CF1092860306
:102F000060917E0370917F0389EF93E00E94D71157
:102F100065E973E08EC1B80185E591E00E949B1FD1
:102F2000892B39F4109252021092510261E773E03A
:102F300080C1B8018CE491E00E949B1F892B09F0AD
:102F4000F7C063E573E0CE0101960E94F311CE0154
:102F500001960E94FC0DCE0101960E94EE1168EBD5
:102F60007BE080E090E00E94320680918603811130
:102F700003C00E944811F9CF1092860360917E032E
:102F800070917F038FEF93E00E94D7110E944B0A4C
:102F900080914B0290914C02892B09F0BEC0809128
:102FA0004D0290914E029093A7038093A6038E83C7
:102FB0002BE02F839C013327F901E15BFA4FE49169
:102FC000E887F901E55CFA4FE491E98720E83EE300
:102FD00040E050E02E873F87488B598B62E00E948B
:102FE000F605CA86DB86EC86FD8668EC70E080E03C
:102FF00090E00E943206CE0101960E94BF102B0184
:103000003C01CE0101960E9474104B015C01C3018A
:10301000B2010E94521DCE014F960E94420EC50180
:10302000B4010E94521DCE0149960E94420E65EBEA
:1030300072E0CE0143960E94F311CE0143960E94A6
:10304000FC0DCE0143960E94EE116CED75E080E020
:1030500090E00E943206BE01675E7F4FCE0143962C
:103060000E942B12CE0143960E94FC0DCE01439686
:103070000E94EE116CEA72E0CE0143960E94F311B9
:10308000CE0143960E94FC0DCE0143960E94EE11A4
:1030900068EB7BE080E090E00E9432066BE972E032
:1030A000CE0143960E94F311CE0143960E94FC0D7F
:1030B000CE0143960E94EE1160ED77E080E090E053
:1030C0000E943206BE01615E7F4FCE0143960E9490
:1030D0002B12CE0143960E94FC0DCE0143960E9416
:1030E000EE1162E972E0CE0143960E94F311CE0127
:1030F00043960E94FC0DCE0143960E94EE1168E8B3
:1031000073E180E090E00E943206CE0149960E9471
:10311000EE11CE014F960E94EE1160ED77E080E057
:1031200090E00E94320610924C0210924B02FECAAE
:10313000B8018CE391E00E949B1F892BB9F1B80183
:103140008CE291E00E949B1F892B81F11FC0812F8F
:103150000E949E05019731F480914B0290914C02A0
:10316000892B29F060EA7FE080E090E0DACF62E826
:1031700074E0CE0101960E94F311CE0101960E94E7
:10318000FC0DCE0101960E94EE11ECCFB8018BE14F
:1031900091E00E949B1F892B09F445C0B8018AE089
:1031A00091E00E949B1F892BF1F154C065E373E00D
:1031B000CE0101960E94F311CE0101960E94FC0DF2
:1031C000CE0101960E94EE1168EB7BE080E090E07A
:1031D0000E94320680918603811103C00E9448112B
:1031E000F9CF1092860360917E0370917F038FEF79
:1031F00093E00E94D7110E944B0A80914B0290915C
:103200004C02892B09F077CD3092500220924F0268
:1032100080914D0290914E029093A7038093A60354
:1032200065E173E05CCD1092500210924F0263EFA3
:1032300072E0CE0101960E94F311CE0101960E9428
:10324000FC0DCE0101960E94EE1168EB7BE080E060
:1032500090E054CB69EC72E0CE0101960E94F3112C
:10326000CE0101960E94FC0DCE0101960E94EE1146
:1032700068E873E180E090E041CBE091B702EF3283
:1032800059F021E02E0F2093B702F0E0EE0FFF1F60
:10329000E75AFD4F9183808308950F931F93CF9337
:1032A000DF93EFEBF2E01382128288EE93E0A0E06E
:1032B000B0E084839583A683B7838FEB91E09183FD
:1032C000808385EC90E09587848784EC90E09787F5
:1032D000868780EC90E0918B808B81EC90E0938BE3
:1032E000828B82EC90E0958B848B86EC90E0978BC0
:1032F000868B118E128E138E148EEDE5F3E01186FF
:10330000128613861486158616861786148A1086EA
:103310001082118210925C0317821282138214822F
:1033200015821682EAE0F4E011821382128215827D
:103330001482168221E02083E1E1F4E01082118200
:1033400012821482138216821582108617821186C9
:10335000148613868091A6039091A703A4E9B3E095
:1033600015968C9315973BE016963C9316979927E4
:10337000FC01E15BFA4FE4911796EC931797FC017F
:10338000E55CFA4FE4911896EC93189740E85EE3F9
:1033900060E070E01D964D935D936D937C93509724
:1033A000C8EAD3E086E2888792E09E832F8309ED06
:1033B00011E0198308838B831A82CE010E943D1984
:1033C00081EE91E099838883E1EFF3E081EB93E074
:1033D000918380839093F4038093F303F093F60337
:1033E000E093F5031092F8031092F703CEE8D3E0D0
:1033F0001983088383E28B831A82CE010E943D19D0
:1034000089ED91E099838883C8E7D3E01983088325
:1034100084E28B831A82CE010E943D1981ED91E0F6
:10342000998388831F821E828FEF9FEF99878887F9
:103430001A861E861B861C861D861F866AE272E01F
:1034400089EF93E00E9445126BE372E08FEF93E007
:10345000DF91CF911F910F910C944512CF93DF9381
:103460008FEF93E00E94EE1189EF93E00E94EE113E
:1034700080911A04882301F180911C0490911D040D
:10348000892BD1F0C0E0D0E020911A0430E0809187
:103490001C0490911D04C217D30764F49E01220FEF
:1034A000331FFC01E20FF31F808191810E94261ED1
:1034B0002196EACF0E94261E809114049091150453
:1034C000009721F0DF91CF910C94261EDF91CF91D0
:1034D00008958F929F92AF92BF92CF92DF92EF9218
:1034E000FF92CF93DF93EC01688179818A819B8180
:1034F000611571058105910521F464E279ED8BE593
:1035000097E02DE133EF41E050E00E944B1C490170
:103510005A019B01AC01A7EAB1E40E946A1C6B014D
:103520007C01ACEEB4EFA50194010E94781CDC0193
:10353000CB018C0D9D1DAE1DBF1DB7FF03C00197B4
:10354000A109B04888839983AA83BB83BC01CD01BC
:103550009F77DF91CF91FF90EF90DF90CF90BF905A
:10356000AF909F908F9008958F929F92AF92BF924D
:10357000CF92DF92EF92FF92609100017091010172
:1035800080910201909103016115710581059105FA
:1035900021F464E279ED8BE597E02DE133EF41E032
:1035A00050E00E944B1C49015A019B01AC01A7EA63
:1035B000B1E40E946A1C6B017C01ACEEB4EFA50182
:1035C00094010E94781CDC01CB018C0D9D1DAE1D69
:1035D000BF1DB7FF03C00197A109B0488093000148
:1035E00090930101A0930201B0930301BC01CD01AE
:1035F0009F77FF90EF90DF90CF90BF90AF909F901C
:103600008F900895609300017093010180930201EF
:10361000909303010895FB01DC0105900D920020B9
:10362000E1F70895FC0105900020E9F78095909559
:103630008E0F9F1F0895BB274A3031F4992322F43F
:10364000BDE2909581959F4F0C94271BBB27FB01F2
:103650005527AA27880F991FAA1FA41710F0A41B8B
:1036600083955051B9F7A05DAA3308F0A95DA193E5
:10367000009779F7B111B1931192CB010C94401BD3
:10368000DC01FC01672F71917723E1F7329704C0C9
:103690007C916D9370836291AE17BF07C8F3089554
:1036A000E89409C097FB3EF49095809570956195DC
:1036B0007F4F8F4F9F4F9923A9F0F92F96E9BB2792
:1036C0009395F695879577956795B795F111F8CF0E
:1036D000FAF4BB0F11F460FF1BC06F5F7F4F8F4F79
:1036E0009F4F16C0882311F096E911C0772321F06F
:1036F0009EE8872F762F05C0662371F096E8862F07
:1037000070E060E02AF09A95660F771F881FDAF75D
:10371000880F9695879597F908950E94A01B0C94A1
:10372000111C0E94031C38F00E940A1C20F09523F3
:1037300011F00C94FA1B0C94001C11240C94451CE1
:103740000E94221C70F3959FC1F3950F50E0551F06
:10375000629FF001729FBB27F00DB11D639FAA27E6
:10376000F00DB11DAA1F649F6627B00DA11D661F35
:10377000829F2227B00DA11D621F739FB00DA11D56
:10378000621F839FA00D611D221F749F3327A00D10
:10379000611D231F849F600D211D822F762F6A2FAC
:1037A00011249F5750409AF0F1F088234AF0EE0F11
:1037B000FF1FBB1F661F771F881F91505040A9F73E
:1037C0009E3F510580F00C94FA1B0C94451C5F3F02
:1037D000E4F3983ED4F3869577956795B795F7957A
:1037E000E7959F5FC1F7FE2B880F911D96958795F2
:1037F00097F9089597F99F6780E870E060E0089571
:103800009FEF80EC089500240A94161617061806F8
:103810000906089500240A941216130614060506D4
:103820000895092E0394000C11F4882352F0BB0F65
:1038300040F4BF2B11F460FF04C06F5F7F4F8F4FC8
:103840009F4F089557FD9058440F551F59F05F3F03
:1038500071F04795880F97FB991F61F09F3F79F0B2
:1038600087950895121613061406551FF2CF469534
:10387000F1DF08C0161617061806991FF1CF8695B6
:103880007105610508940895E894BB27662777279A
:10389000CB0197F90895052E97FB1EF400940E9422
:1038A000621C57FD07D00E94B41C07FC03D04EF4E5
:1038B0000C94621C50954095309521953F4F4F4F89
:1038C0005F4F089590958095709561957F4F8F4FCC
:1038D0009F4F08950E94D61CA59F900DB49F900DF8
:1038E000A49F800D911D11240895B7FF0C946A1CAC
:1038F0000E946A1C821B930B08952F923F924F9255
:103900005F926F927F928F929F92AF92BF92CF926F
:10391000DF92EF92FF920F931F93CF93DF93CDB778
:10392000DEB7CA1BDB0B0FB6F894DEBF0FBECDBFF0
:1039300009942A88398848885F846E847D848C84C1
:103940009B84AA84B984C884DF80EE80FD800C81CA
:103950001B81AA81B981CE0FD11D0FB6F894DEBFAD
:103960000FBECDBFED010895A1E21A2EAA1BBB1B0D
:10397000FD010DC0AA1FBB1FEE1FFF1FA217B3073B
:10398000E407F50720F0A21BB30BE40BF50B661F51
:10399000771F881F991F1A9469F760957095809515
:1039A00090959B01AC01BD01CF010895A29FB0018C
:1039B000B39FC001A39F700D811D1124911DB29F63
:1039C000700D811D1124911D08955058BB27AA2701
:1039D0000E94FD1C0C94111C0E94031C38F00E94D4
:1039E0000A1C20F039F49F3F19F426F40C94001CB3
:1039F0000EF4E095E7FB0C94FA1BE92F0E94221CC1
:103A000058F3BA17620773078407950720F079F413
:103A1000A6F50C94441C0EF4E0950B2EBA2FA02DA5
:103A20000B01B90190010C01CA01A0011124FF276B
:103A3000591B99F0593F50F4503E68F11A16F04066
:103A4000A22F232F342F4427585FF3CF4695379565
:103A50002795A795F0405395C9F77EF41F16BA0B2A
:103A6000620B730B840BBAF09150A1F0FF0FBB1FD8
:103A7000661F771F881FC2F70EC0BA0F621F731F21
:103A8000841F48F4879577956795B795F7959E3F7E
:103A900008F0B0CF9395880F08F09927EE0F97950F
:103AA000879508950E94591D6894B1110C94451C86
:103AB00008950E942A1C88F09F5798F0B92F9927E3
:103AC000B751B0F0E1F0660F771F881F991F1AF009
:103AD000BA95C9F714C0B13091F00E94441CB1E00E
:103AE00008950C94441C672F782F8827B85F39F00D
:103AF000B93FCCF3869577956795B395D9F73EF4A2
:103B000090958095709561957F4F8F4F9F4F089549
:103B1000EE0FFF1F0590F491E02D09940F931F9372
:103B2000CF93DF938230910510F482E090E0E09132
:103B30002604F091270420E030E0A0E0B0E03097C8
:103B400019F1408151810281138148175907C8F04A
:103B50008417950769F4109731F012960C93129719
:103B600013961C9327C0009326041093270422C0A9
:103B70002115310519F04217530718F49A01BD01B8
:103B8000EF01DF01F801DBCF21153105F9F0281B2A
:103B9000390B2430310580F48A819B8161157105D0
:103BA00021F0FB019383828304C0909327048093C8
:103BB0002604FE01329644C0FE01E20FF31F8193FA
:103BC000919322503109398328833AC020912404EB
:103BD00030912504232B41F42091060130910701F7
:103BE0003093250420932404209104013091050191
:103BF0002115310541F42DB73EB740910801509190
:103C00000901241B350BE0912404F0912504E217EF
:103C1000F307A0F42E1B3F0B2817390778F0AC01EF
:103C20004E5F5F4F2417350748F04E0F5F1F5093CC
:103C30002504409324048193919302C0E0E0F0E0D6
:103C4000CF01DF91CF911F910F910895CF93DF9313
:103C5000009709F481C0FC01329713821282A0916F
:103C60002604B0912704109781F420813181820FBE
:103C7000931F20912404309125042817390751F50A
:103C8000F0932504E093240467C0ED0120E030E0C8
:103C9000CE17DF0740F44A815B819E014115510533
:103CA000F1F0EA01F5CFD383C28340815181840FC3
:103CB000951FC817D90759F488819981840F951FDA
:103CC0000296918380838A819B81938382832115CD
:103CD000310529F4F0932704E09326043DC0E9015F
:103CE000FB83EA8349915991C40FD51FEC17FD0757
:103CF00061F480819181840F951F0296E901998377
:103D00008883828193819B838A83E0E0F0E012962E
:103D10008D919C911397009719F0FD01DC01F7CF6D
:103D20008D919C9111979D012E5F3F4F820F931FA4
:103D300020912404309125042817390769F430971D
:103D400029F4109227041092260402C013821282D2
:103D5000B0932504A0932404DF91CF910895A0E0AF
:103D6000B0E0E5EBFEE10C94811CEC01009721F43E
:103D7000CB010E948E1DB4C0FC01E60FF71F9C0111
:103D800022503109E217F30708F4A8C0D9010D91B8
:103D90001C91119706171707B0F00530110508F4AC
:103DA0009BC0C80104978617970708F495C0025076
:103DB0001109061B170B019311936D937C93CF018F
:103DC0000E94261E89C05B01A01AB10A4C01800E18
:103DD000911EA0912604B0912704612C712CE12C36
:103DE000F12C109709F446C08D919C911197A8155C
:103DF000B905B1F56C0142E0C40ED11CCA14DB0454
:103E000078F14C018A189B08640142E0C40ED11C71
:103E10001296BC9012971396AC91B5E0CB16D104D4
:103E200040F0B282A38391828082D9016D937C930A
:103E300009C00E5F1F4F800F911FF901918380838E
:103E4000EB2DFA2FE114F10431F0D7011396FC9316
:103E5000EE93129741C0F0932704E09326043CC0F0
:103E60006816790608F43C017D0112960D90BC910C
:103E7000A02DB7CF8091240490912504881699062F
:103E8000E1F466167706C8F480910401909105016B
:103E9000009741F48DB79EB74091080150910901F8
:103EA000841B950BE817F907C8F4F0932504E093F9
:103EB0002404F901718360830FC0CB010E948E1D21
:103EC0007C01009759F0A801BE010E94871FCE0116
:103ED0000E94261EC70104C0CE0102C080E090E00F
:103EE000CDB7DEB7EEE00C949D1C81E090E0F89435
:103EF0000C94AB1FFB01DC0104C08D910190801973
:103F000021F441505040C8F7881B990B0895FB01DC
:103F1000DC0102C001900D9241505040D8F7089545
:103F2000FB01DC010D900020E9F7119701900D9243
:103F30000020E1F70895FB01DC018D9101908019CB
:103F40000110D9F3990B0895FB01DC0101900D924A
:103F50000020E1F7089512E0C3EBD2E004C0FE01B7
:103F60000E94881D2196C43BD107C9F7F894FFCF62
:103F7000010000000000280480006468642074656B
:103F8000726D696E616C206F66660064687420747F
:103F900065726D696E616C206F666600646864208E
:103FA0007465726D696E616C206F6E006468742058
:103FB0007465726D696E616C206F6E006468742048
:103FC0007265616400666F637573206E616D652054
:103FD0006F666600666F637573206E616D6500665F
:103FE0006F637573206F666600666F63757300613B
:103FF000726475696E6F00706F776572206F6666A8
:1040000000706F776572206F6E00737461747573E2
:104010000068656C70007374617465006C65642081
:104020006F6666006C6564206F6E00000000004BD8
:1040300003F10EE20298031303F1020503000000EE
:104040000017057309000000001705DE02000000DC
:10405000001705360441726520796F75206F6B3F3C
:10406000005975702C2049276D206665656C696E56
:1040700067206772656174210054656D70657261B7
:10408000747572653A20004320616E642068756D16
:1040900069646974793A20002500466F637573205E
:0C40A00070696E206E616D65000D0A00F5
:00000001FF
