:100000000C9463000C948B000C948B000C948B006C
:100010000C948B000C948B000C948B000C948B0034
:100020000C948B000C948B000C948B000C948B0024
:100030000C948B000C948B000C948B000C948B0014
:100040000C94F3020C948B000C9498080C94720896
:100050000C948B000C948B000C948B000C948B00F4
:100060000C948B000C948B000000000023002600F1
:10007000290000000008000201000003040700003E
:1000800000000000000000000000250028002B00F8
:1000900000000000240027002A00040404040404D3
:1000A0000404020202020202030303030303010227
:1000B00004081020408001020408102001020408F6
:1000C0001020EC0FA71011241FBECFEFD8E0DEBF29
:1000D000CDBF15E0A0E0B1E0E6E0F9E202C0059096
:1000E0000D92AA33B107D9F727E0AAE3B5E001C022
:1000F0001D92A031B207E1F710E0C2E6D0E004C0E3
:100100002197FE010E945312C136D107C9F70E9400
:100110009A0B0C9476140C940000FC01918D828D46
:10012000981731F0828DE80FF11D858D90E00895CC
:100130008FEF9FEF0895FC01918D228D892F90E024
:10014000805C9F4F821B91098F739927089583309C
:1001500081F028F4813099F08230A1F00895873041
:10016000A9F08830B9F08430D1F4809180008F7D7F
:1001700003C0809180008F7780938000089584B5BC
:100180008F7702C084B58F7D84BD08958091B000C3
:100190008F7703C08091B0008F7D8093B000089569
:1001A0003FB7F8948091430590914405A09145058F
:1001B000B091460526B5A89B05C02F3F19F00196C2
:1001C000A11DB11D3FBFBA2FA92F982F8827820FDD
:1001D000911DA11DB11DBC01CD0142E0660F771F2D
:1001E000881F991F4A95D1F708958091B4058823F7
:1001F00029F08091B5059091B605089588E596E0BF
:1002000008958091B905882321F09091570681E0E7
:100210008927089570E0DC015296ED91FC91539787
:10022000E60FF71F2081222359F0660F771F5096A3
:10023000ED91FC915197E60FF71F80819181089510
:1002400080E090E008956F927F928F929F92AF929C
:10025000BF92CF92DF92EF92FF920F931F93CF93B3
:10026000DF93EC010E94F500DC011B962C911B979B
:10027000213009F04AC05296ED91FC91539760806D
:1002800000E010E0712C4E01BFE48B0E911C7E014A
:10029000E9E4EE0EF11C6E01FDE4CF0ED11C5E010F
:1002A00089E0A80EB11C061517057CF5CE010E9449
:1002B000F50060E00E940A01800F911FDC018C9123
:1002C000F4012081318120343105E1F0D701ED9135
:1002D000FC9111979F012F5F3F4F11963C932E93F6
:1002E0008083F401808191810196918380832D9197
:1002F0003C91D6018D919C912817390719F4F7018B
:10030000B182A0820F5F1F4FCECFDF91CF911F919F
:100310000F91FF90EF90DF90CF90BF90AF909F90A4
:100320008F907F906F9008950E9440140F931F93B9
:10033000CF93DF93EC011F8288818823E1F000E0F6
:1003400010E0288530E088899989021713077CF42A
:100350009801220F331FFC01E20FF31F808191816E
:10036000009711F00E94F1120F5F1F4FEACF18861D
:100370000E94F11218828981882329F08A899B8939
:100380000E94F1121982DF91CF911F910F91089570
:10039000CF93DF93EC010E9401018823A1F010921A
:1003A000B90581E08E831F9284E08F931F921F9284
:1003B000DF93CF930E94CA081E820F900F900F9078
:1003C0000F900F900F90DF91CF910895CF93DF930F
:1003D000EC010E940101811114C081E08093B905F4
:1003E0008E831F9283E08F931F921F92DF93CF9390
:1003F0000E94CA081E820F900F900F900F900F90CE
:100400000F90DF91CF910895CF93DF93EC010E947D
:10041000F5003B81FC012185321322C083858F3F8B
:10042000B1F48A818823E1F088E596E00E94010119
:10043000811116C088E596E00E94E601EC81FD81FD
:10044000099588E596E0DF91CF910C94C801E88189
:10045000F9810280F381E02DCE01DF91CF910994E3
:10046000DF91CF910895FC01848DDF01A80FB11DAC
:10047000A35ABF4F2C91848D90E001968F739927DA
:10048000848FA689B7892C93A089B1898C918370B8
:1004900080648C93938D848D981306C00288F389B1
:1004A000E02D80818F7D80830895CF93DF93282F67
:1004B00030E0F901EE58FF4F8491F901E255FF4F0A
:1004C000D491F901E656FF4FC491CC2391F08111EC
:1004D0000E94A700EC2FF0E0EE0FFF1FE859FF4F3E
:1004E000A591B491EC91ED2381E090E021F480E0BE
:1004F00002C080E090E0DF91CF9108951F93CF93E9
:10050000DF93282F30E0F901EE58FF4F8491F90175
:10051000E255FF4FD491F901E656FF4FC491CC2329
:10052000C1F0162F81110E94A700EC2FF0E0EE0F12
:10053000FF1FEA57FF4FA591B4919FB7F89411118F
:1005400004C08C91D095D82302C0EC91DE2BDC93B3
:100550009FBFDF91CF911F9108958F929F92AF928D
:10056000BF92CF92DF92EF92FF926B017C010E94CB
:10057000D0004B015C01C114D104E104F104F1F09D
:100580000E94D000DC01CB0188199909AA09BB0996
:10059000883E9340A105B10570F321E0C21AD1084D
:1005A000E108F10888EE880E83E0981EA11CB11CBA
:1005B000C114D104E104F10419F7DDCFFF90EF90ED
:1005C000DF90CF90BF90AF909F908F9008952FB7FE
:1005D000F89460913F05709140058091410590919C
:1005E00042052FBF08951F920F920FB60F9211244C
:1005F0002F933F938F939F93AF93BF9380913F052A
:1006000090914005A0914105B091420530913E0581
:1006100023E0230F2D3720F40196A11DB11D05C045
:1006200026E8230F0296A11DB11D20933E0580935D
:100630003F0590934005A0934105B09342058091FA
:10064000430590914405A0914505B091460501965A
:10065000A11DB11D8093430590934405A0934505CA
:10066000B0934605BF91AF919F918F913F912F918C
:100670000F900FBE0F901F9018958F929F92AF9280
:10068000BF92CF92DF92EF92FF920F931F93CF937F
:10069000DF931F92CDB7DEB77C018B010E94E7028A
:1006A00080903A0590903B05A0903C05B0903D05A8
:1006B000DC01CB0188199909AA09BB09813D974042
:1006C000A105B10548F089288A288B2829F0D7018F
:1006D00017968C9181110FC20E94E70260933A0530
:1006E00070933B0580933C0590933D05F7019781FE
:1006F000911114C00F3F110589F4C7010E949601A2
:1007000081E0D70117968C93179751961C921E92F1
:10071000509753961C921E9252971FC0F7018485E2
:10072000843041F4992309F4EAC1168615860787B7
:1007300085E0C5C0853059F5992309F4E0C1D7019A
:100740002785C22ED12C8FEF90E08C199D090817B8
:100750001907B9F5211104C089E01C968C93CFC10B
:10076000C601880F991F0E945912F701918B808B47
:1007700011E01083C6010E945912D70153969C9331
:100780008E93529711961C93119786E0E6CF863090
:10079000D9F0873009F053C0992309F4B0C1F701AB
:1007A000258530E00288F389E02DE20FF31F608198
:1007B000862F90E04FEF50E0481B590B04171507A8
:1007C00079F0F701178254C1992309F498C1D70130
:1007D00085850288F389E02DE80FF11D008368C04C
:1007E000220F331FD70150960D911C91519766230C
:1007F00069F0020F131F0E945912F8019183808340
:10080000D7011C968C911C978F5F12C0F801E20FE4
:10081000F31F11821082F701168685858F5F858709
:100820009785891303C089E0848704C086E0D701D7
:100830001C968C93F70180858F5F808760C188301C
:1008400009F03FC0992309F45AC1D7018585208951
:100850009189E22FF92FE80FF11DE80FF11D80813A
:100860009181009759F01E962C911E9731E0320F1E
:100870001E963C93FC01E20FF11D0083F701858574
:100880000288F389E02DE80FF11DD7011E962C9107
:100890001E979081291333C11E961C921E978F5F5D
:1008A0001D968C931D971F969C911F97891305C0C9
:1008B0001C968C911C978F5F50CF86E0F701848740
:1008C0001EC1893009F0D8C0992309F418C1048BDE
:1008D0000111CEC017828091610681118CC0838581
:1008E000823051F412828381882309F49EC00588E6
:1008F000F689E02D80E00CC0813061F4F70182833D
:100900008381882309F491C00588F689E02D81E070
:1009100009958BC0833081F41F9281E08F931F92E1
:100920001F92FF92EF920E94CA080F900F900F90B3
:100930000F900F900F9079C0853009F076C060E07D
:10094000C7010E940A014BE050E0BC018CE991E034
:100950000E944514892B09F068C01982D70152966C
:10096000ED91FC915397A180B12C00E010E0C12CD7
:10097000D12C0A151B056CF461E0C7010E940A0125
:10098000800F911FFC018081C80ED11C0F5F1F4F8B
:10099000F0CFC98284E090E00E9459128C01DC0102
:1009A00013961C92139781E08C93CE0101961296B8
:1009B0009C938E93119784E090E00E945912FC0161
:1009C000138287E1808388EA91E0928381831F9379
:1009D0000F93FF93EF9382E08F9385E08F931F92A5
:1009E0001F92FF92EF920E94CA080FB6F894DEBFE2
:1009F0000FBECDBF1AC025E5C22E25E0D22E00E0E5
:100A000010E08091B30590E00817190774F4D6013F
:100A10008D919D916D01DC01ED91FC910190F08132
:100A2000E02D09950F5F1F4FECCFF70184818823DC
:100A3000F9F081858823E1F0C7010E94E601D70122
:100A400050960D911C91519752962D913C91539730
:100A50005796ED91FC9158971F964C911F971B96B6
:100A60006C911B9719968C910995C7010E94C8013A
:100A7000C7010E94960143C0992309F440C0813008
:100A800001F5602FF7010187002391F19481911105
:100A90002FC04091B30550E0E5E5F5E020E030E0FF
:100AA0002417350754F4A191B19113967C916713E3
:100AB00001C091E02F5F3F4FF3CF992309F481CE1E
:100AC00017C0823089F402872FEF30E0201B3109F4
:100AD00094E0359527959A95E1F70F7010E020176F
:100AE000310731F0178204C0833011F4F701038716
:100AF0008F5FD70132CEC7010E949601EDCD0F90D6
:100B0000DF91CF911F910F91FF90EF90DF90CF90E9
:100B1000BF90AF909F908F900895CF93DF93809177
:100B20004705811132C08091B7059091B805DC016D
:100B3000ED91FC910084F185E02D0995892B29F137
:100B40008091B7059091B805DC01ED91FC9102848C
:100B5000F385E02D0995EC01BC01772788E596E047
:100B60000E943D0380915D068823E9F288E596E0C6
:100B70000E94E601E0917106F09172068C2F0995B2
:100B800088E596E00E94C801CECFDF91CF9108950D
:100B90000E94CA0781110C948D050895CF93DF93AD
:100BA000EC0180914805882359F08091B705909118
:100BB000B805DC01ED91FC910190F081E02D0995E3
:100BC0008E81811108C062E070E080E090E0DF91EA
:100BD000CF910C94AD02DF91CF91089589E893E015
:100BE0000E947B0A882319F081E090E097C083EC93
:100BF00091E00E947B0A811106C087EC91E00E947F
:100C00007B0A882319F082E090E088C080E092E0BF
:100C10000E947B0A811119C08AEC91E00E947B0A34
:100C2000811113C086E092E00E947B0A811110C0FE
:100C30008FEC91E00E947B0A81110AC083ED91E064
:100C40000E947B0A811104C006C083E090E066C068
:100C500084E090E063C08BE092E00E947B0A8823EE
:100C600019F085E090E05AC087ED91E00E947B0A80
:100C7000882319F086E090E051C08BED91E00E944E
:100C80007B0A882319F087E090E048C081EE91E06C
:100C90000E947B0A882319F088E090E03FC087EE2D
:100CA00091E00E947B0A882319F089E090E036C029
:100CB0008CEE91E00E947B0A882319F08AE090E094
:100CC0002DC080EF91E00E947B0A811106C087EF62
:100CD00091E00E947B0A882319F08BE090E01EC00F
:100CE00080E192E00E947B0A811113C08AEF91E0BB
:100CF0000E947B0A81110DC087E192E00E947B0A6D
:100D000081110AC08DEF91E00E947B0A811104C01D
:100D10000DC08CE090E002C08DE090E090934C0517
:100D200080934B0580EC91E00C94330A80E292E0D2
:100D30000E94330A81E090E090934A058093490530
:100D40000895CF92DF92EF92FF920F931F93CF936C
:100D5000DF93CDB7DEB72C970FB6F894DEBF0FBE8A
:100D6000CDBF8C010E94F5007C01DC011B968C91AB
:100D7000813009F089C0F80186819781009711F0D0
:100D80000E94F112C8010E94F500DC015296ED911B
:100D9000FC915397808190E0F801918780870196BC
:100DA0000E945912D80117969C938E931697E12CA6
:100DB000F12CF8018085918526813781E816F906A6
:100DC0009CF46901CE0CDF1CC8010E94F50060E0B4
:100DD0000E940A018E0D9F1DDC018C91F60180831B
:100DE000FFEFEF1AFF0AE5CFF901E80FF91F1082B4
:100DF00081E0D8011E968C9388E596E00E9401015F
:100E0000811168C0F8018285882391F088E596E019
:100E10000E94E601D8015096ED91FC9151971696EB
:100E20008D919C911797099588E596E00E94C801DD
:100E3000F8018585882309F44DC066817781CE014C
:100E400001960E945D0888E596E00E94E601D801BF
:100E500052960D911C915397BE016F5F7F4FCE014B
:100E600007960E944308CE010796F8010995CE0126
:100E700007960E94950B88E596E00E94C801CE0176
:100E800001960E94950B26C0823021F588E596E0F8
:100E90000E94010181111EC060E0C7010E940A0189
:100EA000FC018081D8011F968C931F971B968C9113
:100EB000882381F088E596E00E94E601D8015496E7
:100EC000ED91FC9155971F968C91099588E596E0D8
:100ED0000E94C8012C960FB6F894DEBF0FBECDBF9E
:100EE000DF91CF911F910F91FF90EF90DF90CF9006
:100EF0000895CF92DF92EF92FF920F931F93CF93BB
:100F0000DF936C017A018B01C0E0D0E0CE15DF05E4
:100F100081F0D8016D918D01D601ED91FC91019088
:100F2000F081E02DC6010995892B11F02196EECFB5
:100F30007E01C701DF91CF911F910F91FF90EF903C
:100F4000DF90CF900895089580E090E00895FC012F
:100F5000538D448D252F30E0842F90E0821B930B1E
:100F6000541710F0CF96089501970895FC01918DC4
:100F7000828D981761F0828DDF01A80FB11D5D96FB
:100F80008C91928D9F5F9F73928F90E008958FEF69
:100F90009FEF08958AEB95E00E949B0021E0892B4A
:100FA00009F420E0822F0895EF92FF920F931F9390
:100FB000CF93DF93EC0181E0888F9B8D8C8D98130C
:100FC00005C0E889F989808185FD26C0F62E0B8D44
:100FD00010E00F5F1F4F0F731127E02E8C8DE8126A
:100FE0000CC00FB607FCFACFE889F989808185FF2C
:100FF000F5CFCE010E943302F1CF8B8DFE01E80FB9
:10100000F11DE35AFF4FF0829FB7F8940B8FEA89E6
:10101000FB89808180620AC09FB7F894EE89FF89BE
:101020006083E889F98980818370806480839FBFB1
:1010300081E090E0DF91CF911F910F91FF90EF90B1
:101040000895CF93DF93EC01888D8823C9F0EA8956
:10105000FB89808185FD05C0A889B9898C9186FDB1
:101060000FC00FB607FCF5CF808185FFF2CFA889AE
:10107000B9898C9185FFEDCFCE010E943302E7CF75
:10108000DF91CF910895FB01DC0111961C921E9215
:1010900013961C921E92129715961C921E921497EC
:1010A0008617970749F0608171816115710521F0FC
:1010B000448155810C94340B0895FC0111821082F7
:1010C00013821282158214826115710551F0FB01A1
:1010D00001900020E9F73197AF01461B570B0C94A4
:1010E000340B08951F920F920FB60F9211242F9375
:1010F0003F934F935F936F937F938F939F93AF93A0
:10110000BF93EF93FF938AEB95E00E943302FF9128
:10111000EF91BF91AF919F918F917F916F915F916F
:101120004F913F912F910F900FBE0F901F901895E8
:101130001F920F920FB60F9211242F938F939F93AC
:10114000EF93FF93E091CA05F091CB058081E09188
:10115000D005F091D10582FD12C090818091D30518
:101160008F5F8F732091D405821751F0E091D305E2
:10117000F0E0E654FA4F958F8093D30501C080814B
:10118000FF91EF919F918F912F910F900FBE0F9034
:101190001F9018955F926F927F928F929F92AF925D
:1011A000BF92CF92DF92EF92FF920F931F93CF9354
:1011B000DF93CDB7DEB76B970FB6F894DEBF0FBEE7
:1011C000CDBF0DA51EA55FA4CAA80E94E7025520A9
:1011D00009F488C02091ED06222309F483C0809091
:1011E000EE069090EF06A090F006B090F106811404
:1011F0009104A104B10409F475C0DC01CB01881984
:101200009909AA09BB090196A11DB11D883C910548
:10121000A105B10508F066C08091B90528EC820EE1
:10122000911CA11CB11C882309F44EC01A861B8690
:101230001C861D861E861F86188A1D8A198619829D
:101240001A821092570618861B821C821D821E82EB
:101250001F82CE0101967C019093B6058093B5055F
:1012600081E08093B4050E94E702681579058A053C
:101270009B0508F4BFC088858111BCC02DC0F80152
:101280008781882379F18091B7059091B805DC01B9
:10129000ED91FC910084F185E02D0995892BA1F059
:1012A0008091B7059091B805DC01ED91FC91028425
:1012B000F385E02D09958F3FBFEF9B0729F0BC0117
:1012C00088E596E00E943D030E94E70268157905D3
:1012D0008A059B05C0F2D3CF1092B6051092B505D2
:1012E0001092B40581E08093ED067E01E3E3EE0EFB
:1012F000F11C6FEFC8010E94CE0562E1C8010E9497
:10130000CE05652DC8010E94CE050E942D1120E159
:1013100030E040E050E00E94B911962F9095F0E146
:101320009F9FC00111246F70682BC8010E94CE05D9
:1013300069A9C8010E94CE056C2DC8010E94CE0586
:101340006C2D6095C8010E94CE05812C912CD12C6A
:101350008C149D04CCF5370122E0620E711CD7017C
:10136000ED90FC90F7016081C8010E94CE05D70185
:101370006C916095C8010E94CE05A12CB12CF7019B
:10138000808190E0A816B9066CF40180F281E02D0E
:10139000EA0DFB1D6081C8010E94CE05FFEFAF1A68
:1013A000BF0AEDCFE114F10451F08381882321F0CD
:1013B000818192810E94F112C7010E94F112BFEF58
:1013C0008B1A9B0A7301C4CF60E0C8010E94CE054E
:1013D000552099F10E94E702DC01CB010196A11D85
:1013E000B11D8093EE069093EF06A093F006B093A4
:1013F000F10623C08091B7059091B805DC01ED910D
:10140000FC910084F185E02D0995892B09F42BCFFF
:101410008091B7059091B805DC01ED91FC910284B3
:10142000F385E02D09958F3FBFEF9B0709F41BCF94
:10143000BC01C7010E943D0316CF6B960FB6F8940E
:10144000DEBF0FBECDBFDF91CF911F910F91FF90F7
:10145000EF90DF90CF90BF90AF909F908F907F9054
:101460006F905F9008950F931F93CF93DF93FC01CC
:1014700001900020E9F73197EF01C81BD90B39F132
:101480008C0184E090E00E945912FC0113829E01BD
:10149000CF3FD10519F014F02FEF30E020831283F5
:1014A0000183FF93EF9381E08F938F931F9283E2E9
:1014B0008F9388E596E09F938F930E94CA088DB71B
:1014C0009EB708960FB6F8949EBF0FBE8DBFDF91F2
:1014D000CF911F910F910895FC0124813581232B19
:1014E00021F080819181009721F41092EC068CEE1E
:1014F00096E00C94330AFC018091EA069091EB0689
:10150000892B21F421E0309749F413C08091E6063D
:101510009091E706309731F421E0FC018081882327
:1015200041F006C0BF010E94661421E0892B09F03A
:1015300020E0822F089590E0FC01E255FF4F2491B6
:10154000FC01E656FF4F8491882399F090E0880FC4
:10155000991FFC01E057FF4FA591B491FC01EA5798
:10156000FF4F859194918FB7F894EC91E22BEC9317
:101570008FBF0895CF92DF92EF92FF920F931F9348
:10158000CF93DF93CDB7DEB7CDB6DEB6FC012481B5
:101590003581232B29F0608171816115710521F45A
:1015A0001092EC066CEE76E0FB0101900020E9F76A
:1015B000CF01861B970B02962DB73EB7281B390B20
:1015C0000FB6F8943EBF0FBE2DBF8DB79EB70196E4
:1015D0007C01EDB7FEB711820E945B1467E375E0F2
:1015E000C7010E945B14F70101900020E9F73197D1
:1015F0008F010E191F0951F184E090E00E945912E9
:10160000FC01138298010F3F110519F014F02FEF20
:1016100030E02083F282E182FF93EF9381E08F93A9
:10162000809195068F931F92809197068F9388E5FE
:1016300096E09F938F930E94CA082DB73EB7285F0C
:101640003F4F0FB6F8943EBF0FBE2DBF0FB6F894B4
:10165000DEBE0FBECDBEDF91CF911F910F91FF90E7
:10166000EF90DF90CF900895EF92FF920F931F932A
:10167000CF93DF93EC017B018A01888199810097E8
:1016800029F02A813B8124173507F8F4B8016F5FF0
:101690007F4F0E947A13009759F0998388831B83A8
:1016A0000A832C813D81232B81F4FC0110820DC023
:1016B00088819981009711F00E94F1121982188295
:1016C0001D821C821B821A8207C01D830C83B701F6
:1016D000888199810E946F14CE01DF91CF911F9173
:1016E0000F91FF90EF900895CF93DF93EC01611578
:1016F000710559F0FB0101900020E9F73197AF0126
:10170000461B570B0E94340B0CC0888199810097AF
:1017100011F00E94F112198218821D821C821B8214
:101720001A82CE01DF91CF910895FC0180819181D1
:101730000C94F112CF93DF93CDB7DEB768970FB655
:10174000F894DEBF0FBECDBF789484B5826084BDAF
:1017500084B5816084BD85B5826085BD85B58160B5
:1017600085BD80916E00816080936E001092810033
:1017700080918100826080938100809181008160EE
:1017800080938100809180008160809380008091AF
:10179000B10084608093B1008091B000816080933B
:1017A000B00080917A00846080937A0080917A0002
:1017B000826080937A0080917A00816080937A00C1
:1017C00080917A00806880937A001092C1008091A5
:1017D0004805811150C08AEB95E09093B80580933D
:1017E000B705E091CA05F091CB0592E09083E091B6
:1017F000C605F091C7051082E091C805F091C905B2
:1018000080E180831092D205E091CE05F091CF0562
:1018100086E08083E091CC05F091CD0580818061E8
:101820008083E091CC05F091CD0580818860808334
:10183000E091CC05F091CD05808180688083E091B6
:10184000CC05F091CD0580818F7D80831092470576
:1018500081E0809348051F929F931F921F9288E515
:1018600096E09F938F930E94CA080F900F900F905D
:101870000F900F900F908DE00E949B0A88E00E94CD
:101880009B0AEE24E394F12C97E0292E312C2AE0D8
:10189000422E512C38E0632E712C44E0C42ED12C02
:1018A00052E0A52EB12C66E0862E912C809100018D
:1018B00090910101019709F0DFC08091530590914B
:1018C0005405019709F042C080915105909152054D
:1018D0000197E1F580914F050E9455020197B1F5FE
:1018E00083E894E00E94330A60ED77E080E090E0C6
:1018F0000E94AD0280914D0590914E05009709F030
:101900001CC280914F05909150051C8A1B8A1E8A2B
:101910001D8A188E1F8A4AE0BE016F5F7F4F0E94AA
:101920008411BE016F5F7F4FCE0143960E94740BFE
:10193000CE0143960E946C0ACE0143960E94950BFD
:1019400060EA7FE080E090E00E94AD028091810635
:10195000882309F491C010928106609179067091F4
:101960007A068BE691E00E946614892B61F48DE083
:101970000E945502892B39F461E08DE00E947E02BD
:101980008FE994E002C2109281066091790670910D
:101990007A068BE691E00E946614892B31F48DE083
:1019A0000E945502019709F4E5C1109281066091E9
:1019B000790670917A0683E691E00E946614892B7D
:1019C00009F4CBC1109281066091790670917A0674
:1019D00083E691E00E946614892B09F4CEC110922F
:1019E00081060091790610917A06B8018DE591E0A3
:1019F0000E946614892B09F0D1C190920101809256
:101A000000018091000190910101069771F486E236
:101A100092E00E94330A309201012092000160EDB1
:101A200077E080E090E00E94AD0280918106811114
:101A30000FC169E375E0CE0143960E945D081092E4
:101A400081066091790670917A06CE0143960E94D4
:101A5000740BBE016D5E7F4FCE0101960E9443085C
:101A6000CE0101960E94BA0ACE0101960E94950B02
:101A7000CE0143960E94950B809100019091010147
:101A80009C01225031092230310508F0A0C080911C
:101A9000000190910101029781F489E693E00E9490
:101AA000330A83E090E0909301018093000160EDA0
:101AB00077E080E090E00E94AD028091810688236B
:101AC00009F4B7CF109281066091790670917A0679
:101AD00086EE96E00E94740B0E94EE0568EE73E0BD
:101AE00080E090E00E94AD028091490590914A0506
:101AF000892B49F461E080914B050E947E0288E8C1
:101B000093E00E94330A68EB7BE080E090E00E9463
:101B1000AD0210924A051092490554C0B80180E305
:101B200091E00E946614892B09F0ECC170920101CA
:101B300060920001F0925405E092530580910001FB
:101B400090910101089781F482E993E00E94330AA1
:101B500089E090E090930101809300016CEA7DE0C0
:101B600080E090E00E94AD0280918106882309F414
:101B700060CF109281066091790670917A0686EEA8
:101B800096E00E94740B0E94EE0568EE73E080E020
:101B900090E00E94AD028091490590914A0500971E
:101BA00009F080C0F0925205E092510580914B05FA
:101BB00090914C059093500580934F058FEB93E0E7
:101BC0000E94330AF0920101E092000132CF2250CC
:101BD000310922303105B0F5809100019091010169
:101BE000049781F489E693E00E94330A85E090E04F
:101BF000909301018093000160ED77E080E090E038
:101C00000E94AD0280918106882309F412CF1092C0
:101C100081066091790670917A0686EE96E00E94C0
:101C2000740B0E94EE0568EE73E080E090E00E9485
:101C3000AD028091490590914A05892B09F063CF47
:101C400060E059CF225031092230310528F5D9CE34
:101C5000109281066091790670917A0686EE96E080
:101C60000E94740B0E94EE0568EE73E080E090E045
:101C70000E94AD0210914B05812F0E945502892BC5
:101C800009F085C18091490590914A05892B09F099
:101C90007EC181EF94E08DC122503109223031059F
:101CA000B0F44CCF8130910509F0C3CE10925405A9
:101CB0001092530510925205109251059093010114
:101CC0008093000110924A0510924905B2CE0A97FE
:101CD000029780F580910001909101010A9781F4AB
:101CE00083EF93E00E94330A8BE090E09093010130
:101CF000809300016CEA7DE080E090E00E94AD02FC
:101D000080918106882309F494CE10928106609117
:101D1000790670917A0680EE96E00E94740B83E15A
:101D200094E00E94330A68EB7BE080E090E00E9440
:101D3000AD0248CF0E94C805B9CD019709F000CE89
:101D400060EE76E0CE0101960E944308CE01019636
:101D50000E946C0ACE010196F1CD8DE00E945502E1
:101D6000019709F02FCE60E08DE00E947E0287ECA3
:101D700094E00BC082EB94E008C08DE00E94550215
:101D8000892B09F02CCE8BED94E00E94330A60EA97
:101D90007FE080E090E00E94AD024BCEB80188E584
:101DA00091E00E946614892B09F077C08CE492E0E0
:101DB0000E94330A68E57BE180E090E00E94AD027A
:101DC00088EC92E00E94330A6CEA7DE080E090E0CB
:101DD0000E94AD028EEE92E00E94330A64EC79E03C
:101DE00080E090E00E94AD0288EF92E00E94330A0A
:101DF00064EC79E080E090E00E94AD0283E093E043
:101E00000E94330A64EC79E080E090E00E94AD0229
:101E10008BE093E00E94330A64EC79E080E090E08C
:101E20000E94AD0284E193E00E94330A64EC79E001
:101E300080E090E00E94AD028BE193E00E94330AC3
:101E400064EC79E080E090E00E94AD0286E293E0ED
:101E50000E94330A64EC79E080E090E00E94AD02D9
:101E600082E393E00E94330A64EC79E080E090E042
:101E70000E94AD0282E493E00E94330A64EC79E0B0
:101E800080E090E00E94AD0289E493E00E94330A72
:101E900064EC79E080E090E07ECFB80181E591E0EC
:101EA0000E946614892B29F481E593E00E94330A8D
:101EB000C0CDB80188E491E00E946614892B29F412
:101EC000B0920101A0920001E2CDB8018EE391E051
:101ED0000E946614892B29F4D0920101C09200015E
:101EE0007BCEB80186E391E00E946614892B09F04D
:101EF00015CE8DE893E00E94330A6CED75E080E02A
:101F000090E049CFB80186E291E00E946614892BE7
:101F100089F41092540510925305109252051092B4
:101F2000510588ED93E00E94330A6CEA7DE080E081
:101F300090E031CFB8018BE191E00E946614892BCB
:101F400049F4F0924E05E0924D0550920101409205
:101F50000001C0CEB8018CE091E00E946614892B8C
:101F600069F410924E0510924D0585E394E00E94AD
:101F7000330A68EB7BE080E090E00DCF89E594E0E8
:101F80000E94330A68E873E180E090E004CF812F7B
:101F90000E945502019731F48091490590914A05BC
:101FA000892B29F060EA7FE080E090E0B0CD8DE001
:101FB00095E00E94330AF6CFE091B305EF3259F075
:101FC00021E02E0F2093B305F0E0EE0FFF1FEB5A38
:101FD000FA4F9183808308950F931F93CF93DF93DC
:101FE000EAEBF5E01382128288EE93E0A0E0B0E025
:101FF00084839583A683B78386E791E0918380836A
:1020000085EC90E09587848784EC90E097878687BD
:1020100080EC90E0918B808B81EC90E0938B828BB5
:1020200082EC90E0958B848B86EC90E0978B868B8E
:10203000118E128E138E148EE8E5F6E0118612864C
:1020400013861486158616861786148A10861082C3
:1020500011821092570617821282138214821582FF
:102060001682E2EFF6E01182138212821582148248
:10207000168291E09083E9EFF6E0108211821282DD
:102080001482138216821582108617821186148696
:102090001386CFE8D6E086E2888722E02E839F83EE
:1020A00000E911E0198308838B831A82CE010E9414
:1020B000DC0F88E991E099838883E8EDF6E088E910
:1020C00096E0918380839093DB068093DA06F09309
:1020D000DD06E093DC061092DF061092DE06C9E80A
:1020E000D6E01983088383E28B831A82CE010E9493
:1020F000DC0F80E991E099838883C3E7D6E01983F8
:10210000088384E28B831A82CE010E94DC0F88E868
:1021100091E0998388831F821E828FEF9FEF9987BA
:1021200088871A861E861B861C861D861F8668E287
:1021300075E080EE96E00E945D0869E375E086EE4A
:1021400096E0DF91CF911F910F910C945D08CF9392
:10215000DF9386EE96E00E94950B80EE96E00E945B
:10216000950B80910207882301F1809104079091DB
:102170000507892BD1F0C0E0D0E02091020730E0C4
:102180008091040790910507C217D30764F49E015C
:10219000220F331FFC01E20FF31F808191810E9407
:1021A000F1122196EACF0E94F1128091FC069091E3
:1021B000FD06009721F0DF91CF910C94F112DF9191
:1021C000CF9108958F929F92AF92BF92CF92DF925C
:1021D000EF92FF92CF93DF93EC01688179818A813E
:1021E0009B81611571058105910521F464E279ED0A
:1021F0008BE597E02DE133EF41E050E00E94B9110B
:1022000049015A019B01AC01A7EAB1E40E94D8112F
:102210006B017C01ACEEB4EFA50194010E94E611C4
:10222000DC01CB018C0D9D1DAE1DBF1DB7FF03C092
:102230000197A109B04888839983AA83BB83BC0115
:10224000CD019F77DF91CF91FF90EF90DF90CF90FE
:10225000BF90AF909F908F9008958F929F92AF9272
:10226000BF92CF92DF92EF92FF9260910201709144
:1022700003018091040190910501611571058105AB
:10228000910521F464E279ED8BE597E02DE133EFE0
:1022900041E050E00E94B91149015A019B01AC0193
:1022A000A7EAB1E40E94D8116B017C01ACEEB4EF57
:1022B000A50194010E94E611DC01CB018C0D9D1D4E
:1022C000AE1DBF1DB7FF03C00197A109B0488093A1
:1022D000020190930301A0930401B0930501BC0196
:1022E000CD019F77FF90EF90DF90CF90BF90AF90A0
:1022F0009F908F90089560930201709303018093E3
:102300000401909305010895BB274A3031F49923C5
:1023100022F4BDE2909581959F4F0C949011BB27BC
:10232000FB015527AA27880F991FAA1FA41710F091
:10233000A41B83955051B9F7A05DAA3308F0A95D9D
:10234000A193009779F7B111B1931192CB010C943D
:10235000A911DC01FC01672F71917723E1F7329716
:1023600004C07C916D9370836291AE17BF07C8F370
:102370000895052E97FB1EF400940E94D01157FD7E
:1023800007D00E94221207FC03D04EF40C94D01107
:1023900050954095309521953F4F4F4F5F4F089591
:1023A00090958095709561957F4F8F4F9F4F0895C1
:1023B0000E944412A59F900DB49F900DA49F800D84
:1023C000911D11240895B7FF0C94D8110E94D811C3
:1023D000821B930B08952F923F924F925F926F92C0
:1023E0007F928F929F92AF92BF92CF92DF92EF92A5
:1023F000FF920F931F93CF93DF93CDB7DEB7CA1B26
:10240000DB0B0FB6F894DEBF0FBECDBF09942A8850
:10241000398848885F846E847D848C849B84AA84F8
:10242000B984C884DF80EE80FD800C811B81AA8185
:10243000B981CE0FD11D0FB6F894DEBF0FBECDBF50
:10244000ED010895A1E21A2EAA1BBB1BFD010DC0D0
:10245000AA1FBB1FEE1FFF1FA217B307E407F50754
:1024600020F0A21BB30BE40BF50B661F771F881F30
:10247000991F1A9469F760957095809590959B01C6
:10248000AC01BD01CF010895A29FB001B39FC0016F
:10249000A39F700D811D1124911DB29F700D811D90
:1024A0001124911D0895EE0FFF1F0590F491E02D6A
:1024B00009940F931F93CF93DF938230910510F40B
:1024C00082E090E0E0910E07F0910F0720E030E00D
:1024D000A0E0B0E0309719F1408151810281138171
:1024E00048175907C8F08417950769F4109731F019
:1024F00012960C93129713961C9327C000930E0705
:1025000010930F0722C02115310519F04217530708
:1025100018F49A01BD01EF01DF01F801DBCF2115AD
:102520003105F9F0281B390B2430310580F48A81FC
:102530009B816115710521F0FB019383828304C0A7
:1025400090930F0780930E07FE01329644C0FE0160
:10255000E20FF31F8193919322503109398328832D
:102560003AC020910C0730910D07232B41F42091A4
:1025700008013091090130930D0720930C07209139
:102580000601309107012115310541F42DB73EB701
:1025900040910A0150910B01241B350BE0910C076F
:1025A000F0910D07E217F307A0F42E1B3F0B28173D
:1025B000390778F0AC014E5F5F4F2417350748F0BC
:1025C0004E0F5F1F50930D0740930C07819391931B
:1025D00002C0E0E0F0E0CF01DF91CF911F910F91B9
:1025E0000895CF93DF93009709F481C0FC013297DF
:1025F00013821282A0910E07B0910F07109781F4F9
:1026000020813181820F931F20910C0730910D079B
:102610002817390751F5F0930D07E0930C0767C0B1
:10262000ED0120E030E0CE17DF0740F44A815B8106
:102630009E0141155105F1F0EA01F5CFD383C28324
:1026400040815181840F951FC817D90759F488819B
:102650009981840F951F0296918380838A819B8143
:10266000938382832115310529F4F0930F07E093BA
:102670000E073DC0E901FB83EA8349915991C40FDC
:10268000D51FEC17FD0761F480819181840F951FA0
:102690000296E90199838883828193819B838A834F
:1026A000E0E0F0E012968D919C911397009719F05D
:1026B000FD01DC01F7CF8D919C9111979D012E5F5B
:1026C0003F4F820F931F20910C0730910D07281761
:1026D000390769F4309729F410920F0710920E070A
:1026E00002C013821282B0930D07A0930C07DF91F2
:1026F000CF910895A0E0B0E0E0E8F3E10C94EF1191
:10270000EC01009721F4CB010E945912B4C0FC01E6
:10271000E60FF71F9C0122503109E217F30708F476
:10272000A8C0D9010D911C91119706171707B0F099
:102730000530110508F49BC0C80104978617970758
:1027400008F495C002501109061B170B0193119351
:102750006D937C93CF010E94F11289C05B01A01A96
:10276000B10A4C01800E911EA0910E07B0910F0787
:10277000612C712CE12CF12C109709F446C08D913D
:102780009C911197A815B905B1F56C0142E0C40EF2
:10279000D11CCA14DB0478F14C018A189B0864012F
:1027A00042E0C40ED11C1296BC9012971396AC91C5
:1027B000B5E0CB16D10440F0B282A383918280822F
:1027C000D9016D937C9309C00E5F1F4F800F911F3D
:1027D000F90191838083EB2DFA2FE114F10431F09C
:1027E000D7011396FC93EE93129741C0F0930F0715
:1027F000E0930E073CC06816790608F43C017D01A1
:1028000012960D90BC91A02DB7CF80910C0790919E
:102810000D0788169906E1F466167706C8F48091CC
:10282000060190910701009741F48DB79EB7409142
:102830000A0150910B01841B950BE817F907C8F4A6
:10284000F0930D07E0930C07F901718360830FC0CB
:10285000CB010E9459127C01009759F0A801BE01DA
:102860000E945214CE010E94F112C70104C0CE0191
:1028700002C080E090E0CDB7DEB7EEE00C940B1222
:1028800081E090E0F8940C947614FB01DC0104C024
:102890008D910190801921F441505040C8F7881B58
:1028A000990B0895FB01DC0102C001900D9241508B
:1028B0005040D8F70895FB01DC010D900020E9F7A6
:1028C000119701900D920020E1F70895FB01DC01C2
:1028D0008D91019080190110D9F3990B0895FB0196
:1028E000DC0101900D920020E1F7089510E0C2E6AE
:1028F000D0E004C0FE010E9453122196C336D107D6
:06290000C9F7F894FFCFB7
:10290600010001000000000010078000666F63757B
:1029160073206E616D65206F666600666F63757302
:10292600206E616D6500666F637573206F66660065
:10293600666F6375730061726475696E6F00706FA0
:10294600776572206F666600706F776572206F6EAE
:10295600007374617475730068656C7000737461DC
:102966007465006C6564206F6666006C6564206F34
:102976006E0000000000D4077907A70721089B0016
:10298600B6078D00000000000402A106000000004A
:102996000402A3070000000004022301417265201F
:1029A600796F75206F6B3F005975702C2049276D24
:1029B600206665656C696E672067726561742100C3
:1029C6004F4B0074776F00746F0066726565006622
:1029D6006F72006661720073697800736576656E62
:1029E600006569676874006E696E650074656E00DF
:1029F600656C6576656E0031310031320031330029
:102A0600746872656500666F757200666976650042
:102A16007477656C766500746869727465656E00B6
:102A26006572726F7200506C656173652074656CB7
:102A36006C206D6520746865206469676974616CD3
:102A46002070696E206E756D62657200546F20731A
:102A560065652061206C697374206F6620617661FC
:102A6600696C61626C6520636F6D6D616E64732C59
:102A760020737769746368207468652031536865CC
:102A8600656C64206170706C69636174696F6E2037
:102A960077696E646F7720746F205465787420545C
:102AA6006F20537065656368206166746572207275
:102AB600756E6E696E67207468652068656C702037
:102AC600636F6D6D616E6400486572652069732081
:102AD60061206C697374206F6620617661696C6130
:102AE600626C6520636F6D6D616E64733A00506F42
:102AF600776572204F4E2C00506F776572204F46D7
:102B0600462C004C4544204F4E2C004C4544204F4B
:102B160046462C00466F6375732C00466F637573CB
:102B2600204F46462C00466F637573206E616D65B7
:102B36002C00466F637573206E616D65204F4646A7
:102B46002C0053746174652C005374617475732E74
:102B56000031536865656C64206973207265647919
:102B660020746F20757365210054656C6C206D654B
:102B760020746865206469676974616C2070696E89
:102B8600206E756D62657200446F6E6500554E4F1E
:102B96002100506C656173652074656C6C206D65F1
:102BA6002061206469676974616C2070696E206EAB
:102BB600756D62657220746F20666F63757300466B
:102BC6006F63757320686173206265656E2061634B
:102BD6007469766174656400466F63757320686115
:102BE60073206265656E20646561637469766174DD
:102BF600656400506C656173652074656C6C206D4E
:102C0600652061206E657720666F637573206E613F
:102C16006D6500546865206E657720666F63757311
:102C2600206E616D6520686173206265656E206146
:102C3600646465640054686520666F637573206E0E
:102C4600616D6520686173206265656E20646561EB
:102C56006374697661746564004920646F6E2774D5
:102C660020756E6465727374616E642E2054727979
:102C7600207468652068656C7020636F6D6D616E89
:102C8600642E004869676820636F6E646974696FB3
:102C96006E206F6E207468652070696E3A2000544D
:102CA6006865204C4544206973206E6F77204F4E2F
:102CB6002E00546865204C4544206973207374695E
:102CC6006C6C204F4E2E00546865204C454420699C
:102CD60073206E6F77204F46462E00546865204C51
:102CE6004544206973207374696C6C204F46462EE8
:102CF6000054686520737461746520697320637578
:102D06007272656E746C79204F46462E0054686563
:102D16002073746174652069732063757272656EC1
:102D2600746C79204F4E2E00466F63757320706960
:0A2D36006E206E616D65000D0A004D
:00000001FF
