:100000000C940D020C9435020C9435020C943502BC
:100010000C9435020C9435020C9435020C94350284
:100020000C9435020C9435020C9435020C94350274
:100030000C9435020C9435020C9435020C94350264
:100040000C942F050C9435020C94550A0C942F0A2D
:100050000C9435020C9435020C9435020C94350244
:100060000C9435020C9435026572726F72004F4B1E
:10007000004F4B004F4B004F4B004F4B004F4B007E
:100080004F4B004F4B004F4B004F4B004F4B004F1F
:100090004B004F4B00000000002300260029000009
:1000A0000000080002010000030407000000000037
:1000B0000000004869676820636F6E646974696F47
:1000C0006E206F6E207468652070696E3A20005350
:1000D00074617475732E0053746174652C00466FDF
:1000E000637573206E616D65204F46462C00466F28
:1000F000637573206E616D652C00466F63757320A8
:100100004F46462C00466F6375732C004C454420C7
:100110004F46462C004C4544204F4E2C00506F77E4
:100120006572204F46462C00506F776572204F4E07
:100130002C00486572652069732061206C697374B6
:10014000206F6620617661696C61626C6520636F07
:100150006D6D616E64733A00546F20736565206144
:10016000206C697374206F6620617661696C6162CE
:100170006C6520636F6D6D616E64732C207377699D
:10018000746368207468652031536865656C642009
:100190006170706C69636174696F6E2077696E64F9
:1001A0006F7720746F205465787420546F205370DB
:1001B000656563682061667465722072756E6E692C
:1001C0006E67207468652068656C7020636F6D6D64
:1001D000616E6400466F63757320686173206265A9
:1001E000656E206465616374697661746564004955
:1001F00020646F6E277420756E6465727374616E0F
:10020000642E20547279207468652068656C7020B3
:10021000636F6D6D616E642E0054686520666F6358
:100220007573206E616D6520686173206265656E0F
:1002300020646561637469766174656400546865FF
:10024000206E657720666F637573206E616D652023
:10025000686173206265656E206164646564005046
:100260006C656173652074656C6C206D6520612020
:100270006E657720666F637573206E616D650046ED
:100280006F63757320686173206265656E206163BA
:100290007469766174656400506C6561736520747F
:1002A000656C6C206D652061206469676974616CA0
:1002B0002070696E206E756D62657220746F2066A5
:1002C0006F63757300554E4F2100446F6E65005487
:1002D000656C6C206D65207468652064696769745D
:1002E000616C2070696E206E756D62657200446F7E
:1002F0006E650054656C6C206D65207468652064C3
:1003000069676974616C2070696E206E756D6265D5
:10031000720031536865656C64206973207265648E
:100320007920746F2075736521005468652073749B
:100330006174652069732063757272656E746C797F
:10034000204F4E2E005468652073746174652069D7
:10035000732063757272656E746C79204F46462EF9
:1003600000506C656173652074656C6C206D652050
:10037000746865206469676974616C2070696E20B7
:100380006E756D62657200546865204C4544206945
:1003900073207374696C6C204F46462E0054686558
:1003A000204C4544206973206E6F77204F46462EBF
:1003B00000546865204C4544206973207374696C4F
:1003C0006C204F4E2E00546865204C4544206973C4
:1003D000206E6F77204F4E2E000000000025002871
:1003E000002B0000000000240027002A0004040461
:1003F00004040404040202020202020303030303CE
:1004000003010204081020408001020408102001AA
:100410000204081020006A13251411241FBECFEF18
:10042000D8E0DEBFCDBF12E0A0E0B1E0E2E2F0E351
:1004300002C005900D92A433B107D9F724E0A4E3DC
:10044000B2E001C01D92AA30B207E1F712E0CCE0A1
:10045000D2E004C02197FE010E94E115CB30D10704
:10046000C9F70E94F60D0C9404180C940000FC01CE
:10047000538D448D252F30E0842F90E0821B930B09
:10048000541710F0CF96089501970895FC01918DAF
:10049000828D981761F0828DDF01A80FB11D5D96E6
:1004A0008C91928D9F5F9F73928F90E008958FEF54
:1004B0009FEF0895FC01918D828D981731F0828D08
:1004C000E80FF11D858D90E008958FEF9FEF08955F
:1004D000FC01918D228D892F90E0805C9F4F821BC3
:1004E00091098F7399270895833081F028F4813022
:1004F00099F08230A1F008958730A9F08830B9F0E2
:100500008430D1F4809180008F7D03C08091800081
:100510008F7780938000089584B58F7702C084B56B
:100520008F7D84BD08958091B0008F7703C0809146
:10053000B0008F7D8093B00008953FB7F89480910C
:100540003D0290913E02A0913F02B091400226B53B
:10055000A89B05C02F3F19F00196A11DB11D3FBFFB
:10056000BA2FA92F982F8827820F911DA11DB11D89
:10057000BC01CD0142E0660F771F881F991F4A9585
:10058000D1F708958091AE02882329F08091AF02BF
:100590009091B002089582E593E008958091B302AE
:1005A000882321F09091510381E08927089570E01C
:1005B000DC015296ED91FC915397E60FF71F2081D5
:1005C000222359F0660F771F5096ED91FC915197B9
:1005D000E60FF71F80819181089580E090E00895F3
:1005E0006F927F928F929F92AF92BF92CF92DF9243
:1005F000EF92FF920F931F93CF93DF93EC010E9432
:10060000C202DC011B962C911B97213009F04AC0D5
:100610005296ED91FC915397608000E010E0712CB0
:100620004E01BFE48B0E911C7E01E9E4EE0EF11C3D
:100630006E01FDE4CF0ED11C5E0189E0A80EB11C55
:10064000061517057CF5CE010E94C20260E00E94EB
:10065000D702800F911FDC018C91F4012081318140
:1006600020343105E1F0D701ED91FC9111979F0104
:100670002F5F3F4F11963C932E938083F40180812E
:1006800091810196918380832D913C91D6018D912A
:100690009C912817390719F4F701B182A0820F5FE6
:1006A0001F4FCECFDF91CF911F910F91FF90EF9011
:1006B000DF90CF90BF90AF909F908F907F906F9082
:1006C00008950E94CE170F931F93CF93DF93EC01F1
:1006D0001F8288818823E1F000E010E0288530E067
:1006E00088899989021713077CF49801220F331F18
:1006F000FC01E20FF31F80819181009711F00E94AD
:100700007F160F5F1F4FEACF18860E947F16188250
:100710008981882329F08A899B890E947F16198202
:10072000DF91CF911F910F910895CF93DF93EC014B
:100730000E94CE028823A1F01092B30281E08E8342
:100740001F9284E08F931F921F92DF93CF930E949A
:10075000870A1E820F900F900F900F900F900F90AE
:10076000DF91CF910895CF93DF93EC010E94CE02E9
:10077000811114C081E08093B3028E831F9283E0C5
:100780008F931F921F92DF93CF930E94870A1E823E
:100790000F900F900F900F900F900F90DF91CF91CF
:1007A0000895CF93DF93EC010E94C2023B81FC01CC
:1007B0002185321322C083858F3FB1F48A8188233B
:1007C000E1F082E593E00E94CE02811116C082E53D
:1007D00093E00E94B303EC81FD81099582E593E0EB
:1007E000DF91CF910C949503E881F9810280F38128
:1007F000E02DCE01DF91CF910994DF91CF91089543
:10080000FC01848DDF01A80FB11DA35ABF4F2C91AD
:10081000848D90E001968F739927848FA689B7897C
:100820002C93A089B1898C91837080648C93938D73
:10083000848D981306C00288F389E02D80818F7D16
:1008400080830895EF92FF920F931F93CF93DF93CE
:10085000EC0181E0888F9B8D8C8D981305C0E88911
:10086000F989808185FD26C0F62E0B8D10E00F5F83
:100870001F4F0F731127E02E8C8DE8120CC00FB69E
:1008800007FCFACFE889F989808185FFF5CFCE0191
:100890000E940004F1CF8B8DFE01E80FF11DE35A99
:1008A000FF4FF0829FB7F8940B8FEA89FB89808114
:1008B00080620AC09FB7F894EE89FF896083E88957
:1008C000F98980818370806480839FBF81E090E09C
:1008D000DF91CF911F910F91FF90EF900895CF93EB
:1008E000DF93EC01888D8823C9F0EA89FB89808138
:1008F00085FD05C0A889B9898C9186FD0FC00FB60A
:1009000007FCF5CF808185FFF2CFA889B9898C914A
:1009100085FFEDCFCE010E940004E7CFDF91CF919C
:100920000895CF93DF93282F30E0F901E156FF4F70
:100930008491F901EF5FFB4FD491F901E351FC4F32
:10094000C491CC2391F081110E947402EC2FF0E04D
:10095000EE0FFF1FEB56FF4FA591B491EC91ED23E5
:1009600081E090E021F480E002C080E090E0DF913F
:10097000CF9108951F93CF93DF93282F30E0F90193
:10098000E156FF4F8491F901EF5FFB4FD491F901DC
:10099000E351FC4FC491CC23C1F0162F81110E946A
:1009A0007402EC2FF0E0EE0FFF1FE752FC4FA59111
:1009B000B4919FB7F894111104C08C91D095D823AD
:1009C00002C0EC91DE2BDC939FBFDF91CF911F9192
:1009D00008958F929F92AF92BF92CF92DF92EF9243
:1009E000FF926B017C010E949D024B015C01C114CE
:1009F000D104E104F104F1F00E949D02DC01CB017D
:100A000088199909AA09BB09883E9340A105B10537
:100A100070F321E0C21AD108E108F10888EE880ECF
:100A200083E0981EA11CB11CC114D104E104F1049F
:100A300019F7DDCFFF90EF90DF90CF90BF90AF9090
:100A40009F908F9008952FB7F8946091390270911C
:100A50003A0280913B0290913C022FBF08951F9271
:100A60000F920FB60F9211242F933F938F939F9362
:100A7000AF93BF938091390290913A02A0913B02CB
:100A8000B0913C023091380223E0230F2D3720F43F
:100A90000196A11DB11D05C026E8230F0296A11DD8
:100AA000B11D209338028093390290933A02A093AB
:100AB0003B02B0933C0280913D0290913E02A09196
:100AC0003F02B09140020196A11DB11D80933D02ED
:100AD00090933E02A0933F02B0934002BF91AF912A
:100AE0009F918F913F912F910F900FBE0F901F906C
:100AF00018958F929F92AF92BF92CF92DF92EF9212
:100B0000FF920F931F93CF93DF931F92CDB7DEB762
:100B10007C018B010E942305809034029090350265
:100B2000A0903602B0903702DC01CB0188199909F8
:100B3000AA09BB09813D9740A105B10548F0892864
:100B40008A288B2829F0D70117968C9181110FC222
:100B50000E9423056093340270933502809336021D
:100B600090933702F7019781911114C00F3F11053F
:100B700089F4C7010E94630381E0D70117968C9323
:100B8000179751961C921E92509753961C921E9244
:100B900052971FC0F7018485843041F4992309F4EA
:100BA000EAC116861586078785E0C5C0853059F5E8
:100BB000992309F4E0C1D7012785C22ED12C8FEFEC
:100BC00090E08C199D0908171907B9F5211104C087
:100BD00089E01C968C93CFC1C601880F991F0E9493
:100BE000E715F701918B808B11E01083C6010E94FD
:100BF000E715D70153969C938E93529711961C93A9
:100C0000119786E0E6CF8630D9F0873009F053C0DF
:100C1000992309F4B0C1F701258530E00288F389F2
:100C2000E02DE20FF31F6081862F90E04FEF50E040
:100C3000481B590B0417150779F0F701178254C1A7
:100C4000992309F498C1D70185850288F389E02D9D
:100C5000E80FF11D008368C0220F331FD7015096A3
:100C60000D911C915197662369F0020F131F0E948A
:100C7000E715F80191838083D7011C968C911C970E
:100C80008F5F12C0F801E20FF31F11821082F7018B
:100C9000168685858F5F85879785891303C089E0D0
:100CA000848704C086E0D7011C968C93F701808569
:100CB0008F5F808760C1883009F03FC0992309F4B5
:100CC0005AC1D701858520899189E22FF92FE80F34
:100CD000F11DE80FF11D80819181009759F01E965A
:100CE0002C911E9731E0320F1E963C93FC01E20FCF
:100CF000F11D0083F70185850288F389E02DE80F57
:100D0000F11DD7011E962C911E979081291333C196
:100D10001E961C921E978F5F1D968C931D971F9693
:100D20009C911F97891305C01C968C911C978F5F0F
:100D300050CF86E0F70184871EC1893009F0D8C002
:100D4000992309F418C1048B0111CEC01782809138
:100D50005B0381118CC08385823051F412828381C0
:100D6000882309F49EC00588F689E02D80E00CC038
:100D7000813061F4F70182838381882309F491C073
:100D80000588F689E02D81E009958BC0833081F4D8
:100D90001F9281E08F931F921F92FF92EF920E9409
:100DA000870A0F900F900F900F900F900F9079C0BF
:100DB000853009F076C060E0C7010E94D7024BE0A1
:100DC00050E0BC018CE991E00E94D317892B09F017
:100DD00068C01982D7015296ED91FC915397A1807A
:100DE000B12C00E010E0C12CD12C0A151B056CF4CD
:100DF00061E0C7010E94D702800F911FFC01808132
:100E0000C80ED11C0F5F1F4FF0CFC98284E090E065
:100E10000E94E7158C01DC0113961C92139781E068
:100E20008C93CE01019612969C938E93119784E039
:100E300090E00E94E715FC01138287E1808388EA35
:100E400091E0928381831F930F93FF93EF9382E04E
:100E50008F9385E08F931F921F92FF92EF920E94D3
:100E6000870A0FB6F894DEBF0FBECDBF1AC02FE4BD
:100E7000C22E22E0D22E00E010E08091AD0290E080
:100E80000817190774F4D6018D919D916D01DC014D
:100E9000ED91FC910190F081E02D09950F5F1F4FBE
:100EA000ECCFF70184818823F9F081858823E1F074
:100EB000C7010E94B303D70150960D911C91519721
:100EC00052962D913C9153975796ED91FC915897DE
:100ED0001F964C911F971B966C911B9719968C919E
:100EE0000995C7010E949503C7010E94630343C08F
:100EF000992309F440C0813001F5602FF701018783
:100F0000002391F1948191112FC04091AD0250E0E6
:100F1000EFE4F2E020E030E02417350754F4A1912B
:100F2000B19113967C91671301C091E02F5F3F4F01
:100F3000F3CF992309F481CE17C0823089F4028758
:100F40002FEF30E0201B310994E0359527959A95D5
:100F5000E1F70F7010E02017310731F0178204C05D
:100F6000833011F4F70103878F5FD70132CEC701B9
:100F70000E946303EDCD0F90DF91CF911F910F91F0
:100F8000FF90EF90DF90CF90BF90AF909F908F90A9
:100F90000895CF93DF9380914102811132C08091F7
:100FA000B1029091B202DC01ED91FC910084F185D7
:100FB000E02D0995892B29F18091B1029091B2021F
:100FC000DC01ED91FC910284F385E02D0995EC01A3
:100FD000BC01772782E593E00E9479058091570351
:100FE0008823E9F282E593E00E94B303E0916B036A
:100FF000F0916C038C2F099582E593E00E94950394
:10100000CECFDF91CF9108950E94250A81110C94D3
:10101000C9070895CF93DF93EC01809142028823A2
:1010200059F08091B1029091B202DC01ED91FC91F6
:101030000190F081E02D09958E81811108C062E058
:1010400070E080E090E0DF91CF910C94E904DF91B3
:10105000CF910895CF92DF92EF92FF920F931F935B
:10106000CF93DF93CDB7DEB72C970FB6F894DEBFE2
:101070000FBECDBF8C010E94C2027C01DC011B9619
:101080008C91813009F089C0F801868197810097A1
:1010900011F00E947F16C8010E94C202DC01529624
:1010A000ED91FC915397808190E0F80191878087C2
:1010B00001960E94E715D80117969C938E93169778
:1010C000E12CF12CF8018085918526813781E81685
:1010D000F9069CF46901CE0CDF1CC8010E94C20213
:1010E00060E00E94D7028E0D9F1DDC018C91F601FD
:1010F0008083FFEFEF1AFF0AE5CFF901E80FF91F30
:10110000108281E0D8011E968C9382E593E00E94C4
:10111000CE02811168C0F8018285882391F082E5B2
:1011200093E00E94B303D8015096ED91FC91519742
:1011300016968D919C911797099582E593E00E94F0
:101140009503F8018585882309F44DC06681778170
:10115000CE0101960E94E10D82E593E00E94B30367
:10116000D80152960D911C915397BE016F5F7F4F2E
:10117000CE0107960E94C70DCE010796F80109958A
:10118000CE0107960E94600D82E593E00E949503D0
:10119000CE0101960E94600D26C0823021F582E5C5
:1011A00093E00E94CE0281111EC060E0C7010E9440
:1011B000D702FC018081D8011F968C931F971B9644
:1011C0008C91882381F082E593E00E94B303D801DB
:1011D0005496ED91FC9155971F968C91099582E557
:1011E00093E00E9495032C960FB6F894DEBF0FBED5
:1011F000CDBFDF91CF911F910F91FF90EF90DF90C6
:10120000CF900895CF93DF9300D000D000D0CDB71A
:10121000DEB780EC91E00E94360C882349F081E033
:1012200090E0909346028093450262E970E0DFC04F
:1012300084EC91E00E94360C811106C088EC91E0AC
:101240000E94360C882349F082E090E09093460299
:10125000809345026FE870E0CAC081E092E00E948E
:10126000360C811119C08BEC91E00E94360C811173
:1012700013C087E092E00E94360C811116C080ED09
:1012800091E00E94360C811110C084ED91E00E9423
:10129000360C81110AC012C083E090E090934602A0
:1012A000809345026CE870E0A2C084E090E09093E7
:1012B00046028093450269E870E099C08CE092E0B4
:1012C0000E94360C882349F085E090E09093460216
:1012D0008093450266E870E08AC088ED91E00E9444
:1012E000360C882349F086E090E090934602809384
:1012F000450263E870E07BC08CED91E00E94360C03
:10130000882349F087E090E090934602809345025D
:1013100060E870E06CC082EE91E00E94360C882399
:1013200049F088E090E090934602809345026DE793
:1013300070E05DC088EE91E00E94360C882349F091
:1013400089E090E090934602809345026AE770E05E
:101350004EC08DEE91E00E94360C882349F08AE061
:1013600090E0909346028093450267E770E03FC0AB
:1013700081EF91E00E94360C811106C088EF91E068
:101380000E94360C882349F08BE090E0909346024F
:101390008093450264E770E02AC081E192E00E94F8
:1013A000360C811113C08BEF91E00E94360C811135
:1013B0000DC088E192E00E94360C811110C08EEFC2
:1013C00091E00E94360C81110AC01EC08CE090E0B2
:1013D000909346028093450261E770E008C08DE07B
:1013E00090E090934602809345026EE670E0CE0155
:1013F00001960E948F0DCE0101960E94F00BCE0146
:1014000001960E94600D14C068E670E0CE0101965E
:101410000E948F0DCE0101960E94F00BCE01019625
:101420000E94600D81E090E090934402809343021B
:1014300026960FB6F894DEBF0FBECDBFDF91CF91D9
:101440000895089580E090E0089584EB92E00E9472
:10145000680221E0892B09F420E0822F08951F9271
:101460000F920FB60F9211242F933F934F935F93D8
:101470006F937F938F939F93AF93BF93EF93FF935C
:1014800084EB92E00E940004FF91EF91BF91AF9135
:101490009F918F917F916F915F914F913F912F918C
:1014A0000F900FBE0F901F9018951F920F920FB6BE
:1014B0000F9211242F938F939F93EF93FF93E091BB
:1014C000C402F091C5028081E091CA02F091CB0282
:1014D00082FD12C090818091CD028F5F8F73209129
:1014E000CE02821751F0E091CD02F0E0EC54FD4FB6
:1014F000958F8093CD0201C08081FF91EF919F91E4
:101500008F912F910F900FBE0F901F9018955F92A3
:101510006F927F928F929F92AF92BF92CF92DF9203
:10152000EF92FF920F931F93CF93DF93CDB7DEB768
:101530006B970FB6F894DEBF0FBECDBF0DA51EA5ED
:101540005FA4CAA80E942305552009F488C02091F1
:10155000E703222309F483C08090E8039090E90315
:10156000A090EA03B090EB0381149104A104B104AC
:1015700009F475C0DC01CB0188199909AA09BB09D6
:101580000196A11DB11D883C9105A105B10508F08A
:1015900066C08091B30228EC820E911CA11CB11C84
:1015A000882309F44EC01A861B861C861D861E865B
:1015B0001F86188A1D8A198619821A821092510371
:1015C00018861B821C821D821E821F82CE010196FC
:1015D0007C019093B0028093AF0281E08093AE02D1
:1015E0000E942305681579058A059B0508F4BFC08C
:1015F00088858111BCC02DC0F8018781882379F1CD
:101600008091B1029091B202DC01ED91FC910084D5
:10161000F185E02D0995892BA1F08091B10290917F
:10162000B202DC01ED91FC910284F385E02D099575
:101630008F3FBFEF9B0729F0BC0182E593E00E943A
:1016400079050E942305681579058A059B05C0F276
:10165000D3CF1092B0021092AF021092AE0281E08E
:101660008093E7037E01E3E3EE0EF11C6FEFC80108
:101670000E940A0862E1C8010E940A08652DC8019B
:101680000E940A080E94AB1420E130E040E050E0E4
:101690000E944715962F9095F0E19F9FC00111245D
:1016A0006F70682BC8010E940A0869A9C8010E94CE
:1016B0000A086C2DC8010E940A086C2D6095C801AB
:1016C0000E940A08812C912CD12C8C149D04CCF5FD
:1016D000370122E0620E711CD701ED90FC90F701FA
:1016E0006081C8010E940A08D7016C916095C80109
:1016F0000E940A08A12CB12CF701808190E0A81665
:10170000B9066CF40180F281E02DEA0DFB1D6081C9
:10171000C8010E940A08FFEFAF1ABF0AEDCFE1141B
:10172000F10451F08381882321F0818192810E940C
:101730007F16C7010E947F16BFEF8B1A9B0A7301A9
:10174000C4CF60E0C8010E940A08552099F10E94A8
:101750002305DC01CB010196A11DB11D8093E80397
:101760009093E903A093EA03B093EB0323C0809125
:10177000B1029091B202DC01ED91FC910084F185FF
:10178000E02D0995892B09F42BCF8091B10290911E
:10179000B202DC01ED91FC910284F385E02D099504
:1017A0008F3FBFEF9B0709F41BCFBC01C7010E940D
:1017B000790516CF6B960FB6F894DEBF0FBECDBF7E
:1017C000DF91CF911F910F91FF90EF90DF90CF901D
:1017D000BF90AF909F908F907F906F905F90089593
:1017E0000F931F93CF93DF93FC0124813581232B2B
:1017F00029F0008111810115110521F41092E603F1
:1018000006EE13E0F80101900020E9F73197EF01AF
:10181000C01BD10B31F184E090E00E94E715FC0180
:1018200013829E01CF3FD10519F014F02FEF30E065
:10183000208312830183FF93EF9381E08F938F9333
:101840001F9283E28F9382E593E09F938F930E9490
:10185000870A8DB79EB708960FB6F8949EBF0FBE45
:101860008DBFDF91CF911F910F910895FC01809161
:10187000E4039091E503892B21F421E0309749F4AA
:1018800013C08091E0039091E103309731F421E09F
:10189000FC018081882341F006C0BF010E94F4173B
:1018A00021E0892B09F020E0822F089590E0FC01CF
:1018B000EF5FFB4F2491FC01E351FC4F849188239F
:1018C00099F090E0880F991FFC01ED51FC4FA59114
:1018D000B491FC01E752FC4F859194918FB7F89435
:1018E000EC91E22BEC938FBF0895CF92DF92EF92B1
:1018F000FF920F931F93CF93DF93CDB7DEB7CDB693
:10190000DEB6FC0124813581232B29F060817181B1
:101910006115710521F41092E60366EE73E0FB0198
:1019200001900020E9F7CF01861B970B02962DB797
:101930003EB7281B390B0FB6F8943EBF0FBE2DBF24
:101940008DB79EB701967C01EDB7FEB711820E945C
:10195000E91760E372E0C7010E94E917F7010190FF
:101960000020E9F731978F010E191F0951F184E02A
:1019700090E00E94E715FC01138298010F3F1105CA
:1019800019F014F02FEF30E02083F282E182FF9310
:10199000EF9381E08F9380918F038F931F928091BB
:1019A00091038F9382E593E09F938F930E94870A20
:1019B0002DB73EB7285F3F4F0FB6F8943EBF0FBE1E
:1019C0002DBF0FB6F894DEBE0FBECDBEDF91CF9116
:1019D0001F910F91FF90EF90DF90CF9008950F939C
:1019E0001F93CF93DF93EC0188819981009729F0B1
:1019F0002A813B812617370788F48B016F5F7F4F61
:101A00000E940817009761F0998388831B830A83DB
:101A10002C813D81232B11F4FC01108281E001C057
:101A200080E0DF91CF911F910F910895CF93DF93C5
:101A3000EC0188819981009711F00E947F1619822C
:101A400018821D821C821B821A82DF91CF91089519
:101A5000EF92FF920F931F93CF93DF93EC017B01E3
:101A60008A01BA010E94EF0C811104C0CE010E94CC
:101A7000160D07C01D830C83B701888199810E94D0
:101A8000FD17CE01DF91CF911F910F91FF90EF9045
:101A90000895CF93DF93EC016115710559F0FB01B7
:101AA00001900020E9F73197AF01461B570B0E94C8
:101AB000280D02C00E94160DCE01DF91CF9108952E
:101AC000FC01808191810C947F16CF92DF92EF927E
:101AD000FF920F931F93CF93DF936C017A018B01D9
:101AE000C0E0D0E0CE15DF0581F0D8016D918D0109
:101AF000D601ED91FC910190F081E02DC601099590
:101B0000892B11F02196EECF7E01C701DF91CF9195
:101B10001F910F91FF90EF90DF90CF900895EF927B
:101B2000FF920F931F93CF93DF93EC0119821882DA
:101B30001B821A821D821C826115710509F18B01BD
:101B4000CB010E9409157C01BC01CE010E94EF0C63
:101B5000811109C0CE01DF91CF911F910F91FF90AC
:101B6000EF900C94160DFD82EC82B801888199816A
:101B7000DF91CF911F910F91FF90EF900C94021580
:101B8000DF91CF911F910F91FF90EF900895FB018E
:101B9000DC0111961C921E9213961C921E921297B3
:101BA00015961C921E9214978617970749F060812C
:101BB00071816115710521F0448155810C94280DC6
:101BC0000895FC0111821082138212821582148200
:101BD0006115710551F0FB0101900020E9F7319783
:101BE000AF01461B570B0C94280D0895CF93DF933C
:101BF000CDB7DEB768970FB6F894DEBF0FBECDBF86
:101C0000789484B5826084BD84B5816084BD85B5D7
:101C1000826085BD85B5816085BD80916E008160E3
:101C200080936E0010928100809181008260809389
:101C3000810080918100816080938100809180008B
:101C40008160809380008091B10084608093B100B6
:101C50008091B00081608093B00080917A008460B0
:101C600080937A0080917A00826080937A008091DC
:101C70007A00816080937A0080917A0080688093F6
:101C80007A001092C10080914202811150C084EB11
:101C900092E09093B2028093B102E091C402F0917D
:101CA000C50292E09083E091C002F091C1021082DF
:101CB000E091C202F091C30280E180831092CC02D5
:101CC000E091C802F091C90286E08083E091C602EB
:101CD000F091C702808180618083E091C602F0911B
:101CE000C702808188608083E091C602F091C702BC
:101CF000808180688083E091C602F091C702808174
:101D00008F7D80831092410281E0809342021F9276
:101D10009F931F921F9282E593E09F938F930E945F
:101D2000870A0F900F900F900F900F900F908DE0FB
:101D30000E94560C88E00E94560CEE24E394F12C8D
:101D400097E0292E312C2AE0422E512C38E0632EC8
:101D5000712C44E0C42ED12C52E0A52EB12C66E0AB
:101D6000862E912C8091000190910101019709F03C
:101D7000F5C080914D0290914E02019709F04EC03E
:101D800080914B0290914C02019709F047C08091DD
:101D900049020E949104019709F040C063EB70E092
:101DA000CE0101960E948F0DCE0101960E94F00B8C
:101DB000CE0101960E94600D60ED77E080E090E03A
:101DC0000E94E9048091470290914802009709F02F
:101DD00074C28091490290914A021C8A1B8A1E8A11
:101DE0001D8A188E1F8A4AE0BE016F5F7F4F0E94D6
:101DF0001215BE016F5F7F4FCE0143960E94490DC1
:101E0000CE0143960E94F00BCE0143960E94600DD6
:101E100060EA7FE080E090E00E94E90480917B032B
:101E2000882309F49BC010927B0360917303709127
:101E300074038BE691E00E94F417892B61F48DE026
:101E40000E949104892B39F461E08DE00E94BA046C
:101E500066EC73E05AC210927B0360917303709139
:101E600074038BE691E00E94F417892B31F48DE026
:101E70000E949104019709F43DC210927B03609186
:101E800073037091740383E691E00E94F417892B29
:101E900009F423C210927B03609173037091740361
:101EA00083E691E00E94F417892B09F426C2109270
:101EB0007B030091730310917403B8018DE591E0E9
:101EC0000E94F417892B09F033C29092010180928D
:101ED000000180910001909101010697C1F461E633
:101EE00073E0CE0101960E948F0DCE0101960E94F3
:101EF000F00BCE0101960E94600D309201012092FC
:101F0000000160ED77E080E090E00E94E9048091BC
:101F10007B03811148C162E372E0CE0143960E94C7
:101F2000E10D10927B036091730370917403CE01F5
:101F300043960E94490DBE016D5E7F4FCE01019612
:101F40000E94C70DCE0101960E94750CCE0101962C
:101F50000E94600DCE0143960E94600D80910001A9
:101F6000909101019C01225031092230310508F085
:101F7000C8C080910001909101010297D1F463EFF4
:101F800072E0CE0101960E948F0DCE0101960E9453
:101F9000F00BCE0101960E94600D83E090E09093DB
:101FA00001018093000160ED77E080E090E00E9405
:101FB000E90480917B03882309F4ADCF10927B0361
:101FC000609173037091740380EE93E00E94490D59
:101FD0000E94020968EE73E080E090E00E94E9044C
:101FE0008091430290914402892B99F461E08091A1
:101FF00045020E94BA046EEE72E0CE0101960E9484
:102000008F0DCE0101960E94F00BCE0101960E9429
:10201000600D68EB7BE080E090E00E94E9041092A4
:1020200044021092430268C0B80180E391E00E942C
:10203000F417892B09F0BCC2709201016092000173
:10204000F0924E02E0924D028091000190910101C8
:102050000897D1F468E972E0CE0101960E948F0DD5
:10206000CE0101960E94F00BCE0101960E94600DF8
:1020700089E090E090930101809300016CEA7DE09B
:1020800080E090E00E94E90480917B03882309F4BA
:1020900042CF10927B03609173037091740380EEC2
:1020A00093E00E94490D0E94020968EE73E080E00F
:1020B00090E00E94E90480914302909144020097CD
:1020C00009F09BC0F0924C02E0924B0280914502D5
:1020D0009091460290934A02809349026FE772E022
:1020E000CE0101960E948F0DCE0101960E94F00B49
:1020F000CE0101960E94600DF0920101E092000174
:102100000ACF225031092230310508F046C08091B3
:102110000001909101010497D1F46FEC72E0CE01BF
:1021200001960E948F0DCE0101960E94F00BCE0108
:1021300001960E94600D85E090E0909301018093EC
:10214000000160ED77E080E090E00E94E90480917A
:102150007B03882309F4DFCE10927B036091730325
:102160007091740380EE93E00E94490D0E94020971
:1021700068EE73E080E090E00E94E9048091430201
:1021800090914402892B09F044CF60E08091450290
:102190000E94BA046AEC72E030CF2250310922303A
:1021A000310528F596CE10927B03609173037091F0
:1021B000740380EE93E00E94490D0E94020968EECC
:1021C00073E080E090E00E94E90410914502812FC5
:1021D0000E949104892B09F04EC280914302909194
:1021E0004402892B09F047C265E473E056C22250CD
:1021F000310922303105B0F427CF8130910509F043
:102200008ACE10924E0210924D0210924C02109201
:102210004B029093010180930001109244021092AE
:10222000430279CE0A97029708F044C080910001DA
:10223000909101010A97D1F46FE572E0CE01019609
:102240000E948F0DCE0101960E94F00BCE010196E7
:102250000E94600D8BE090E090930101809300015B
:102260006CEA7DE080E090E00E94E90480917B03CD
:10227000882309F450CE10927B0360917303709110
:1022800074038AED93E00E94490D6DE372E0CE0184
:1022900001960E948F0DCE0101960E94F00BCE0197
:1022A00001960E94600D68EB7BE080E090E00E9468
:1022B000E90422CF0E94040855CD019709F0A8CD6A
:1022C0006AED73E0CE0101960E94C70DCE01019622
:1022D0000E94F00BCE01019699CD8DE00E949104F1
:1022E000019709F0D7CD60E08DE00E94BA046DE956
:1022F00073E00BC061EB73E008C08DE00E949104B5
:10230000892B09F0D4CD67E873E0CE0101960E94D5
:102310008F0DCE0101960E94F00BCE0101960E9416
:10232000600D60EA7FE080E090E00E94E904F3CD78
:10233000B80188E591E00E94F417892B09F0EFC0FD
:1023400068E571E0CE0101960E948F0DCE010196E5
:102350000E94F00BCE0101960E94600D68E57BE1C2
:1023600080E090E00E94E90462E371E0CE01019612
:102370000E948F0DCE0101960E94F00BCE010196B6
:102380000E94600D6CEA7DE080E090E00E94E9042C
:1023900068E271E0CE0101960E948F0DCE01019698
:1023A0000E94F00BCE0101960E94600D64EC79E072
:1023B00080E090E00E94E9046DE171E0CE010196B9
:1023C0000E948F0DCE0101960E94F00BCE01019666
:1023D0000E94600D64EC79E080E090E00E94E904E6
:1023E00065E171E0CE0101960E948F0DCE0101964C
:1023F0000E94F00BCE0101960E94600D64EC79E022
:1024000080E090E00E94E9046CE071E0CE0101966A
:102410000E948F0DCE0101960E94F00BCE01019615
:102420000E94600D64EC79E080E090E00E94E90495
:1024300065E071E0CE0101960E948F0DCE010196FC
:102440000E94F00BCE0101960E94600D64EC79E0D1
:1024500080E090E00E94E9046AEF70E0CE0101960E
:102460000E948F0DCE0101960E94F00BCE010196C5
:102470000E94600D64EC79E080E090E00E94E90445
:102480006EEE70E0CE0101960E948F0DCE01019696
:102490000E94F00BCE0101960E94600D64EC79E081
:1024A00080E090E00E94E9046EED70E0CE010196BC
:1024B0000E948F0DCE0101960E94F00BCE01019675
:1024C0000E94600D64EC79E080E090E00E94E904F5
:1024D00067ED70E0CE0101960E948F0DCE0101964E
:1024E0000E94F00BCE0101960E94600D64EC79E031
:1024F00080E090E00E94E9046FEC70E0CE0101966C
:102500000E948F0DCE0101960E94F00BCE01019624
:102510000E94600D64EC79E080E090E006CFB801A5
:1025200081E591E00E94F417892B79F462E173E070
:10253000CE0101960E948F0DCE0101960E94F00BF4
:10254000CE0101960E94600DE6CCB80188E491E0CE
:102550000E94F417892B29F4B0920101A092000186
:1025600008CDB8018EE391E00E94F417892B29F47D
:10257000D0920101C0920001CACDB80186E391E07A
:102580000E94F417892B09F04FCD65EC72E0CE0163
:1025900001960E948F0DCE0101960E94F00BCE0194
:1025A00001960E94600D6CED75E080E090E0BDCE7C
:1025B000B80186E291E00E94F417892BD9F41092B9
:1025C0004E0210924D0210924C0210924B0264ED9A
:1025D00071E0CE0101960E948F0DCE0101960E94FE
:1025E000F00BCE0101960E94600D6CEA7DE080E068
:1025F00090E09BCEB8018BE191E00E94F417892B0B
:1026000049F4F0924802E092470250920101409250
:1026100000010CCEB8018CE091E00E94F417892BE8
:10262000B9F4109248021092470269E172E0CE01BB
:1026300001960E948F0DCE0101960E94F00BCE01F3
:1026400001960E94600D68EB7BE080E090E06DCE2B
:102650006FEE71E0CE0101960E948F0DCE010196C2
:102660000E94F00BCE0101960E94600D68E873E1B4
:1026700080E090E05ACE812F0E949104019731F4BE
:102680008091430290914402892B29F060EA7FE017
:1026900080E090E0C2CC6AE273E0CE0101960E9435
:1026A0008F0DCE0101960E94F00BCE0101960E9483
:1026B000600DECCFE091AD02EF3259F021E02E0F2A
:1026C0002093AD02F0E0EE0FFF1FE15BFD4F918321
:1026D000808308950F931F93CF93DF93E4EBF2E091
:1026E0001382128288EE93E0A0E0B0E084839583A9
:1026F000A683B78386E791E09183808385EC90E0A1
:102700009587848784EC90E09787868780EC90E0BB
:10271000918B808B81EC90E0938B828B82EC90E0AC
:10272000958B848B86EC90E0978B868B118E128E26
:10273000138E148EE2E5F3E011861286138614865A
:10274000158616861786148A1086108211821092BA
:102750005103178212821382148215821682ECEEC4
:10276000F3E011821382128215821482168291E0A4
:102770009083E3EFF3E010821182128214821382BD
:102780001682158210861782118614861386C9E870
:10279000D3E086E2888722E02E839F8300E911E060
:1027A000198308838B831A82CE010E945A1388E909
:1027B00091E099838883E2EDF3E082E993E09183ED
:1027C00080839093D5038093D403F093D703E09351
:1027D000D6031092D9031092D803C3E8D3E019832B
:1027E000088383E28B831A82CE010E945A1380E908
:1027F00091E099838883CDE6D3E01983088384E24E
:102800008B831A82CE010E945A1388E891E0998343
:1028100088831F821E828FEF9FEF998788871A8691
:102820001E861B861C861D861F8661E272E08AED6D
:1028300093E00E94E10D62E372E080EE93E0DF91AD
:10284000CF911F910F910C94E10DCF93DF9380EE08
:1028500093E00E94600D8AED93E00E94600D8091EC
:10286000FC03882301F18091FE039091FF03892BE3
:10287000D1F0C0E0D0E02091FC0330E08091FE0375
:102880009091FF03C217D30764F49E01220F331FF8
:10289000FC01E20FF31F808191810E947F16219637
:1028A000EACF0E947F168091F6039091F70300977C
:1028B00021F0DF91CF910C947F16DF91CF91089595
:1028C0008F929F92AF92BF92CF92DF92EF92FF9240
:1028D000CF93DF93EC01688179818A819B816115B7
:1028E00071058105910521F464E279ED8BE597E0AE
:1028F0002DE133EF41E050E00E94471549015A01B4
:102900009B01AC01A7EAB1E40E9466156B017C0152
:10291000ACEEB4EFA50194010E947415DC01CB016B
:102920008C0D9D1DAE1DBF1DB7FF03C00197A109F2
:10293000B04888839983AA83BB83BC01CD019F776C
:10294000DF91CF91FF90EF90DF90CF90BF90AF904D
:102950009F908F9008958F929F92AF92BF92CF9247
:10296000DF92EF92FF9260910201709103018091DA
:10297000040190910501611571058105910521F40E
:1029800064E279ED8BE597E02DE133EF41E050E033
:102990000E94471549015A019B01AC01A7EAB1E425
:1029A0000E9466156B017C01ACEEB4EFA5019401A9
:1029B0000E947415DC01CB018C0D9D1DAE1DBF1D49
:1029C000B7FF03C00197A109B0488093020190931B
:1029D0000301A0930401B0930501BC01CD019F77D1
:1029E000FF90EF90DF90CF90BF90AF909F908F902F
:1029F0000895609302017093030180930401909302
:102A000005010895FB01DC0105900D920020E1F71E
:102A10000895FC0105900020E9F7809590958E0FB0
:102A20009F1F0895BB274A3031F4992322F4BDE259
:102A3000909581959F4F0C941E15BB27FB01552740
:102A4000AA27880F991FAA1FA41710F0A41B83950B
:102A50005051B9F7A05DAA3308F0A95DA193009782
:102A600079F7B111B1931192CB010C943715DC01B8
:102A7000FC01672F71917723E1F7329704C07C91B5
:102A80006D9370836291AE17BF07C8F30895052E4A
:102A900097FB1EF400940E945E1557FD07D00E941C
:102AA000B01507FC03D04EF40C945E15509540957C
:102AB000309521953F4F4F4F5F4F089590958095EA
:102AC000709561957F4F8F4F9F4F08950E94D2154B
:102AD000A59F900DB49F900DA49F800D911D112472
:102AE0000895B7FF0C9466150E946615821B930B20
:102AF00008952F923F924F925F926F927F928F92A2
:102B00009F92AF92BF92CF92DF92EF92FF920F937C
:102B10001F93CF93DF93CDB7DEB7CA1BDB0B0FB686
:102B2000F894DEBF0FBECDBF09942A883988488843
:102B30005F846E847D848C849B84AA84B984C884D9
:102B4000DF80EE80FD800C811B81AA81B981CE0FD0
:102B5000D11D0FB6F894DEBF0FBECDBFED010895B5
:102B6000A1E21A2EAA1BBB1BFD010DC0AA1FBB1F91
:102B7000EE1FFF1FA217B307E407F50720F0A21B03
:102B8000B30BE40BF50B661F771F881F991F1A9470
:102B900069F760957095809590959B01AC01BD019A
:102BA000CF010895A29FB001B39FC001A39F700DF4
:102BB000811D1124911DB29F700D811D1124911D45
:102BC0000895EE0FFF1F0590F491E02D09940F93E7
:102BD0001F93CF93DF938230910510F482E090E051
:102BE000E0910804F091090420E030E0A0E0B0E0BA
:102BF000309719F14081518102811381481759079B
:102C0000C8F08417950769F4109731F012960C9369
:102C1000129713961C9327C000930804109309047D
:102C200022C02115310519F04217530718F49A01F3
:102C3000BD01EF01DF01F801DBCF21153105F9F00E
:102C4000281B390B2430310580F48A819B81611562
:102C5000710521F0FB019383828304C090930904E2
:102C600080930804FE01329644C0FE01E20FF31F78
:102C70008193919322503109398328833AC020915E
:102C8000060430910704232B41F420910801309170
:102C90000901309307042093060420910601309126
:102CA00007012115310541F42DB73EB740910A01C6
:102CB00050910B01241B350BE0910604F0910704A1
:102CC000E217F307A0F42E1B3F0B2817390778F003
:102CD000AC014E5F5F4F2417350748F04E0F5F1F62
:102CE00050930704409306048193919302C0E0E05F
:102CF000F0E0CF01DF91CF911F910F910895CF9315
:102D0000DF93009709F481C0FC013297138212828D
:102D1000A0910804B0910904109781F420813181B9
:102D2000820F931F2091060430910704281739075A
:102D300051F5F0930704E093060467C0ED0120E02D
:102D400030E0CE17DF0740F44A815B819E014115D8
:102D50005105F1F0EA01F5CFD383C283408151815F
:102D6000840F951FC817D90759F488819981840F5A
:102D7000951F0296918380838A819B8193838283AE
:102D80002115310529F4F0930904E09308043DC0AE
:102D9000E901FB83EA8349915991C40FD51FEC17D0
:102DA000FD0761F480819181840F951F0296E901EE
:102DB00099838883828193819B838A83E0E0F0E01A
:102DC00012968D919C911397009719F0FD01DC01EB
:102DD000F7CF8D919C9111979D012E5F3F4F820FF0
:102DE000931F20910604309107042817390769F4CE
:102DF000309729F4109209041092080402C013823B
:102E00001282B0930704A0930604DF91CF91089536
:102E1000A0E0B0E0EEE0F7E10C947D15EC01009746
:102E200021F4CB010E94E715B4C0FC01E60FF71FA7
:102E30009C0122503109E217F30708F4A8C0D90118
:102E40000D911C91119706171707B0F00530110569
:102E500008F49BC0C80104978617970708F495C02B
:102E600002501109061B170B019311936D937C936C
:102E7000CF010E947F1689C05B01A01AB10A4C01E4
:102E8000800E911EA0910804B0910904612C712C50
:102E9000E12CF12C109709F446C08D919C9111976B
:102EA000A815B905B1F56C0142E0C40ED11CCA14D5
:102EB000DB0478F14C018A189B08640142E0C40EDF
:102EC000D11C1296BC9012971396AC91B5E0CB161C
:102ED000D10440F0B282A38391828082D9016D93A4
:102EE0007C9309C00E5F1F4F800F911FF9019183E2
:102EF0008083EB2DFA2FE114F10431F0D701139602
:102F0000FC93EE93129741C0F0930904E0930804F8
:102F10003CC06816790608F43C017D0112960D90BC
:102F2000BC91A02DB7CF809106049091070488161C
:102F30009906E1F466167706C8F48091060190912F
:102F40000701009741F48DB79EB740910A01509157
:102F50000B01841B950BE817F907C8F4F0930704DD
:102F6000E0930604F901718360830FC0CB010E94D6
:102F7000E7157C01009759F0A801BE010E94E017F7
:102F8000CE010E947F16C70104C0CE0102C080E0BE
:102F900090E0CDB7DEB7EEE00C94991581E090E0BB
:102FA000F8940C940418FB01DC0104C08D9101908D
:102FB000801921F441505040C8F7881B990B08959F
:102FC000FB01DC0102C001900D9241505040D8F746
:102FD0000895FB01DC010D900020E9F711970190A5
:102FE0000D920020E1F70895FB01DC018D91019025
:102FF00080190110D9F3990B0895FB01DC010190B0
:103000000D920020E1F7089512E0CCE0D2E004C078
:10301000FE010E94E1152196CD30D107C9F7F89441
:02302000FFCFE0
:1030220001000100000000000A048000666F637561
:1030320073206E616D65206F666600666F637573DF
:10304200206E616D6500666F637573206F66660042
:10305200666F6375730061726475696E6F00706F7D
:10306200776572206F666600706F776572206F6E8B
:10307200007374617475730068656C7000737461B9
:103082007465006C6564206F6666006C6564206F11
:103092006E00000000002204650D37026F04680212
:1030A20046025A0200000000D1032A080000000074
:1030B200D103210A00000000D103F0024172652011
:1030C200796F75206F6B3F005975702C2049276D01
:1030D200206665656C696E672067726561742100A0
:1030E2006F6E650074776F00746F006672656500BD
:1030F200666F720066617200736978007365766547
:103102006E006569676874006E696E650074656E4D
:1031120000656C6576656E00313100313200313305
:1031220000746872656500666F757200666976651F
:10313200007477656C766500746869727465656E93
:1031420000466F6375732070696E206E616D650055
:043152000D0A000062
:107E0000112484B714BE81FFF0D085E080938100F7
:107E100082E08093C00088E18093C10086E0809377
:107E2000C20080E18093C4008EE0C9D0259A86E02C
:107E300020E33CEF91E0309385002093840096BBD3
:107E4000B09BFECF1D9AA8958150A9F7CC24DD24C4
:107E500088248394B5E0AB2EA1E19A2EF3E0BF2EE7
:107E6000A2D0813461F49FD0082FAFD0023811F036
:107E7000013811F484E001C083E08DD089C08234E0
:107E800011F484E103C0853419F485E0A6D080C0E4
:107E9000853579F488D0E82EFF2485D0082F10E0AE
:107EA000102F00270E291F29000F111F8ED06801E7
:107EB0006FC0863521F484E090D080E0DECF843638
:107EC00009F040C070D06FD0082F6DD080E0C81688
:107ED00080E7D80618F4F601B7BEE895C0E0D1E017
:107EE00062D089930C17E1F7F0E0CF16F0E7DF06D8
:107EF00018F0F601B7BEE89568D007B600FCFDCFD4
:107F0000A601A0E0B1E02C9130E011968C91119780
:107F100090E0982F8827822B932B1296FA010C0160
:107F200087BEE89511244E5F5F4FF1E0A038BF0790
:107F300051F7F601A7BEE89507B600FCFDCF97BE46
:107F4000E89526C08437B1F42ED02DD0F82E2BD052
:107F50003CD0F601EF2C8F010F5F1F4F84911BD097
:107F6000EA94F801C1F70894C11CD11CFA94CF0C13
:107F7000D11C0EC0853739F428D08EE10CD085E9AC
:107F80000AD08FE07ACF813511F488E018D01DD067
:107F900080E101D065CF982F8091C00085FFFCCF94
:107FA0009093C60008958091C00087FFFCCF809118
:107FB000C00084FD01C0A8958091C6000895E0E648
:107FC000F0E098E1908380830895EDDF803219F02E
:107FD00088E0F5DFFFCF84E1DECF1F93182FE3DFCA
:107FE0001150E9F7F2DF1F91089580E0E8DFEE27F6
:047FF000FF270994CA
:027FFE00040479
:0400000300007E007B
:00000001FF