:1000000043C2000072C2000070C200006EC2000055
:100010006CC200006AC2000068C2000066C2000034
:1000200064C2000062C2000060C200005EC2000044
:100030005CC200005AC2000058C2000056C2000054
:1000400054C2000052C2000050C200004EC2000064
:100050004CC200004AC2000048C200000C94621565
:1000600044C200000C94EC130C94C3133EC2000075
:100070003CC200003AC2000038C2000036C2000094
:1000800034C2000032C2000030C200002EC20000A4
:100090000C948D130C94641328C200000C94FB097B
:1000A00024C2000022C2000020C200001EC20000C4
:1000B0001CC200001AC2000018C2000016C20000D4
:1000C00014C2000012C2000010C200000EC20000E4
:1000D0000CC200000AC2000008C2000006C20000F4
:1000E00004C200003D1440142F1433143914771443
:1000F000441448144E14521456145C1460146414BE
:1001000077146A146E14721425642E25642E2564E7
:100110002E25640044617461207061636B657420F6
:1001200073656E64206572726F72202832290044F4
:10013000617461207061636B65742073656E642007
:100140006572726F72202831290041542B43495047
:1001500053454E443D25642C2575004661696C6508
:100160006420746F20777269746520746F20736FD8
:10017000636B65740041542B434950434C4F5345C6
:100180003D256400446973636F6E6E656374696EC8
:1001900067200041542B4349505354415455530058
:1001A0002B4349505354415455533A25642C004530
:1001B0006E6420746167206E6F7420666F756E6464
:1001C000004E6F2074616720666F756E64003E3E5E
:1001D0003E2054494D454F5554203E3E3E000D0AA9
:1001E0000053444B2076657273696F6E3A00415438
:1001F0002B474D520041542B4357444843503D3107
:100200002C310041542B43574155544F434F4E4ED0
:100210003D300041542B43495044494E464F3D31F7
:100220000041542B4349504D55583D310041542B0A
:1002300043574D4F44453D310041544530004154F2
:100240002B52535400496E6974696C697A61746900
:100250006F6E207375636365737366756C202D0014
:100260005761726E696E673A20556E737570706F64
:1002700072746564206669726D77617265004361AE
:100280006E6E6F7420696E697469616C697A65203D
:10029000455350206D6F64756C6500415400496E84
:1002A000697469616C697A696E6720455350206D85
:1002B0006F64756C65000D0A005354415455533AF0
:1002C0000041542B43495053544154555300436FFC
:1002D0006E6E656374656420746F004661696C6559
:1002E0006420636F6E6E656374696E6720746F005F
:1002F00041542B43574A41505F4355523D22257389
:10030000222C22257322004E6F20736F636B65745D
:1003100020617661696C61626C650041542B4349D0
:100320005053544152543D25642C22544350222CA6
:10033000222573222C257500436F6E6E65637469E8
:100340006E6720746F0054494D454F55543A005420
:10035000616720434C4F534544206E6F7420666F95
:10036000756E6400000020002300260029002C0088
:100370002F003200000100000301060109010505FC
:100380000505070508080808020202020A0A08080B
:100390000404040401010101010101010303030339
:1003A00003030303040707070C0C0C0C0C0C0C0CC8
:1003B0000202020206060606060606060B0B0B0BD9
:1003C0000B0B0B0B010210202008081020401020FE
:1003D0004080020102010804020101020408102009
:1003E0004080804020100804020180040201804007
:1003F0002010080402010804020101020408102070
:100400004080010204081020408000000A0B02090D
:100410000C0D0E080703040100000000000000009E
:1004200000000000000000000000000000000000CC
:100430000000000000001211100000000000000089
:1004400000000000000000000000000000000000AC
:1004500000002100240027002A002D003000330076
:1004600001010000040107010A010000220025002B
:1004700028002B002E00310034000201000005018D
:1004800008010B015F1B5A1B11241FBECFEFD1E2E5
:10049000DEBFCDBF00E00CBF27E0A6E7B4E001C09F
:1004A0001D92A438B207E1F714E0A0E0B2E0EEE557
:1004B000F4E400E00BBF02C007900D92A637B1072D
:1004C000D9F712E0C3E4D2E000E006C021970109A9
:1004D000802FFE010E94D11FC234D10780E008079F
:1004E000A9F70E94DC150C941E228ACD21E0FC01A4
:1004F00084858F3F09F420E0822F0895CF93DF9306
:10050000EC01E881F9810084F185E02DCE01199597
:10051000892B41F0E881F9810284F385E02DCE0139
:100520001995EFCFDF91CF910895CF93DF931F926D
:10053000CDB7DEB76983DC01ED91FC910280F381D8
:10054000E02D41E050E0BE016F5F7F4F19950F90A5
:10055000DF91CF91089585ED8093BC008091BC0020
:1005600084FDFCCF1092290508954091DC04262FCC
:1005700030E0240F311D21323105DCF420912905B2
:100580002430C9F4FC0180E090E0861758F43091E3
:10059000DC042191DC01A454BB4FA30FB11D2C93AB
:1005A0000196F3CF8091DC04680F6093DC0480E057
:1005B000089581E0089582E00895089508950895CA
:1005C000E0912D0580912C05E81730F4F0E0E45619
:1005D000FB4F808190E008958FEF9FEF08959091F9
:1005E0002D0580912C05981750F4E92FF0E0E45682
:1005F000FB4F208130E09F5F90932D0502C02FEFCD
:100600003FEFC901089580912C0590E020912D05C0
:10061000821B91090895CF92DF92EF92FF920F9380
:100620001F93CF93DF937C01CB018A0120919B0420
:10063000222389F0EB016B01C40ED51ECC15DD051C
:1006400061F06991D701ED91FC910190F081E02D6D
:10065000C7011995F3CF642F88DFC801DF91CF91CF
:100660001F910F91FF90EF90DF90CF900895CF935F
:10067000DF931F92CDB7DEB7698320919B042223BD
:10068000D1F020912A05203240F021E030E0FC0139
:100690003383228380E090E014C080912B05E82F03
:1006A000F0E0E558FB4F998190838F5F80932B0595
:1006B00080932A0504C061E0CE01019656DF81E0F7
:1006C00090E00F90DF91CF910895089580E090E041
:1006D00008958F929F92AF92BF92EF92FF920F93E5
:1006E0001F93CF93DF93EC017B018A01E881F981AD
:1006F0000084F185E02D1995892B19F48FEF9FEF78
:1007000055C09C8580913805981338C08091390573
:1007100090913A05A0913B05B0913C05A80160E09D
:1007200070E084179507A607B7070CF48C01E70162
:10073000E00EF11ECE15DF05F9F00E941A154B01EF
:100740005C0180913D0590913E05DC01ED91FC91AD
:100750000284F385E02D199597FF13C00E941A15A6
:10076000DC01CB0188199909AA09BB09883E93408D
:10077000A105B10530F3C2CFC80118C080E090E0F8
:1007800015C089938091390590913A05A0913B0558
:10079000B0913C050197A109B10980933905909367
:1007A0003A05A0933B05B0933C05C4CFDF91CF91B0
:1007B0001F910F91FF90EF90BF90AF909F908F90FF
:1007C00008958F929F92AF92BF92CF92DF92EF9255
:1007D000FF920F931F93CF93DF9340913905509170
:1007E0003A0560913B0570913C05141615061606F6
:1007F000170644F490913805981711F0911102C032
:10080000CA0121C1F82E80913D0590913E05DC0181
:10081000ED91FC910084F185E02D1995892B19F457
:1008200080E090E010C100913D0510913E05C0E0D0
:10083000D0E00E941A15F80160877187828793873C
:10084000D801ED91FC910284F385E02DC801199542
:1008500097FF19C00E941A15F80180849184A28420
:10086000B384DC01CB0188199909AA09BB098480EA
:100870009580A680B78088159905AA05BB0500F369
:100880008FEF9FEF11C0FE01EA51FD4F2081022E34
:10089000000C330B2817390709F0A0C02196C5308A
:1008A000D10539F680E090E0892B09F0B9CF80912D
:1008B0003D0590913E050E94F00D609338058091B2
:1008C0003D0590913E05DC01ED91FC910284F3859C
:1008D000E02D199580913D0590913E050E94F00D07
:1008E0006093390570933A0580933B0590933C05DE
:1008F00080913D0590913E05DC01ED91FC910284D3
:10090000F385E02D199580913D0590913E050E945B
:10091000F00D80913D0590913E05DC01ED91FC913B
:100920000284F385E02D199580913D0590913E0557
:100930000E94F00D80913D0590913E05DC01ED9106
:10094000FC910284F385E02D199580913D059091ED
:100950003E050E94F00D80913D0590913E05DC0121
:10096000ED91FC910284F385E02D199580913D0570
:1009700090913E050E94F00D80913D0590913E05BD
:10098000DC01ED91FC910284F385E02D19958091B5
:100990003D0590913E05DC01ED91FC910284F385CB
:1009A000E02D199580913D0590913E050E94F00D36
:1009B00080913D0590913E05DC01ED91FC91028412
:1009C000F385E02D199580913805F81611F0F11096
:1009D00027CF8091390590913A0535C0209709F4C9
:1009E00028CF4F0167EE72E09E0121503109D401FA
:1009F0004E914D01042E000C550B84179507F9F408
:100A00002115310509F415CF46EEC42E42E0D42E4F
:100A1000DB0140E050E0F601B1906F01ED90BE14B3
:100A200041F04217530709F404CF6F5F7F4FE9018C
:100A3000DBCF4F5F5F4F4217530768F3F2CF2115AB
:100A4000310599F7F4CEDF91CF911F910F91FF906F
:100A5000EF90DF90CF90BF90AF909F908F900895D0
:100A6000FC0184858F3F19F0ACDE97FF02C080E067
:100A700090E008950F931F93CF93DF931F921F92DF
:100A8000CDB7DEB78C01DC01ED91FC910084F185DE
:100A9000E02D1995892B29F11A82F801848590910E
:100AA0003805891309C09E012E5F3F4F41E0BE010A
:100AB0006F5F7F4F0E943F0F8A81882379F0D801B2
:100AC0001C96EC911C97F0E0EE0FFF1FEA5AFD4FC9
:100AD0008FEF9FEF918380831C968C93898190E0A8
:100AE00002C08FEF9FEF0F900F90DF91CF911F917A
:100AF0000F9108950F931F93CF93DF931F921F922F
:100B0000CDB7DEB78C01DC01ED91FC910084F1855D
:100B1000E02D1995892B29F11A82F801848590918D
:100B20003805891309C09E012E5F3F4F40E0BE018A
:100B30006F5F7F4F0E943F0F8A81882379F0D80131
:100B40001C96EC911C97F0E0EE0FFF1FEA5AFD4F48
:100B50008FEF9FEF918380831C968C93898190E027
:100B600002C08FEF9FEF0F900F90DF91CF911F91F9
:100B70000F910895CF92DF92EF92FF920F931F9300
:100B8000CF93DF93CDB7DEB760970FB6F894DEBF93
:100B90000FBECDBF7C01FB016A0185811F928F933F
:100BA00084811F928F9383811F928F9382811F92E2
:100BB0008F9388E091E09F938F938E010F5F1F4F7B
:100BC0001F930F930E94831CA601B801C7010E94C6
:100BD00019100FB6F894DEBF0FBECDBF60960FB6EA
:100BE000F894DEBF0FBECDBFDF91CF911F910F9163
:100BF000FF90EF90DF90CF9008950C941910CF9252
:100C0000DF92EF92FF920F931F93CF93DF9300D069
:100C100000D0CDB7DEB7FB01E40FF51F10821A82BA
:100C200019821C821B821E821D826115710561F072
:100C3000FB0101900020E9F73197AF01461B570BEC
:100C4000CE0101960E945A0EED80FE8009811A8124
:100C5000E114F10409F447C06CEE72E0C8010E948F
:100C6000FF21892B09F03FC061E087E10E947814E1
:100C700060E088E10E94781481E090E0909377042E
:100C8000809376040E94D1106FEE72E085E896E0C2
:100C90000E94F40E61E080E00E94A31066EF72E013
:100CA00085E896E00E94F40E409136075091370790
:100CB000609132077091330785E896E08ED58AE21D
:100CC000C82ED12C00E010E080917604909177043A
:100CD000019731F581E0C81AD10811F10E94801006
:100CE0000197F1F430C00115110531F0A701B801E9
:100CF00082E397E0DFD714C08091320790913307E9
:100D0000009711F00E947120109233071092320761
:100D10001092370710923607109235071092340759
:100D200089819A810E94712026960FB6F894DEBFC1
:100D30000FBECDBFDF91CF911F910F91FF90EF902C
:100D4000DF90CF90089561E086E10E9478146AEF09
:100D500070E080E090E00E94E21460E086E10E9492
:100D600078146AEF70E080E090E00E94E2140F5F78
:100D70001F4F0330110509F0A7CFE12CF12C0E9481
:100D80008010019779F481E1E816F10409F49ACF13
:100D90006AEF70E080E090E00E94E2148FEFE81AC2
:100DA000F80AEDCFEF2809F48FCF8CCF3F924F9206
:100DB0005F926F927F928F929F92AF92BF92CF92EB
:100DC000DF92EF92FF920F931F93CF93DF936C010B
:100DD0002B01342E80913A0790913B0790933F0767
:100DE00080933E070E941A154B015C0166246A94A9
:100DF000762C0D2C000CEE08FF080E941A15DC0161
:100E0000CB0188199909AA09BB098C159D05AE0566
:100E1000BF0508F059C08FEF6816780609F054C076
:100E200080913D0590913E05DC01ED91FC9100849F
:100E3000F185E02D1995892B01F380913D05909165
:100E40003E05DC01ED91FC910284F385E02D1995BE
:100E5000E0913E07F0913F07808380913E0790919B
:100E60003F07019690933F0780933E0720913C07F0
:100E700030913D078217930740F080913A07909197
:100E80003B0790933F0780933E074114510439F08C
:100E9000C20154D6882319F085E0682E712C3320C6
:100EA00009F4ABCF04E612E0C0E0D0E0F801819194
:100EB00091918F0143D6882311F03E019ECF219658
:100EC000C530D10599F799CF0E941A15DC01CB01E5
:100ED00088199909AA09BB098C159D05AE05BF059E
:100EE00050F06EEF72E08CED95E07ED76EEC71E025
:100EF0008CED95E09ED7C301DF91CF911F910F91AB
:100F0000FF90EF90DF90CF90BF90AF909F908F9029
:100F10007F906F905F904F903F900895AF92BF92F7
:100F2000CF92DF92EF92FF920F931F93CF93DF93B5
:100F30005C016B017A01E901188281E00E94AC1525
:100F4000B50180913D0590913E0573D741E0B60112
:100F500088EE93E02BDF8530910509F046C0809143
:100F60003A0790913B0790933F0780933E0740914B
:100F70003807509139074F5F5F4F60E070E00E9483
:100F8000F82141E0B70184EF91E010DF059729F5E2
:100F9000A80141505109F70101900020E9F731976C
:100FA000EE19FF0960913A0770913B0780913E0767
:100FB00090913F07861B970B8E1B9F0B4817590775
:100FC00008F0AC01CE010E940F2241E060E070E029
:100FD00080ED97E0EBDE81E015C06EEF72E08CED06
:100FE00095E002D76FEA71E009C0059750F06EEF07
:100FF00072E08CED95E0F8D661EC71E08CED95E057
:1010000018D780E0DF91CF911F910F91FF90EF9063
:10101000DF90CF90BF90AF900895CF92DF92EF9284
:10102000FF920F931F93CF93DF93CDB7DEB76E97E9
:101030000FB6F894DEBF0FBECDBFFC0184858F3F95
:10104000C1F17F01BEDB892B11F094E033C0D701E1
:101050001C968C911F928F9380EA91E09F938F93BF
:10106000FE0131966F01FF93EF930E94831C0AE00B
:1010700010E09E012B5E3F4F4AEE52E0B60183E93D
:1010800091E04CDF0F900F900F900F900F900F900A
:101090008111DBCFD7011C96EC911C97F0E0EE0F8D
:1010A000FF1FEA5AFD4F8FEF9FEF918380831C96BD
:1010B0008C9390E081E0943009F080E06E960FB65A
:1010C000F894DEBF0FBECDBFDF91CF911F910F917E
:1010D000FF90EF90DF90CF900895AF92BF92CF92A4
:1010E000DF92EF92FF920F931F93CF93DF93CDB7D1
:1010F000DEB764970FB6F894DEBF0FBECDBFDC013C
:101100001C962C91243018F44115510531F421E03E
:1011100030E0FC013383228380C08A016B017C01B3
:101120001F934F931F922F938AE491E09F938F9385
:101130009E012F5F3F4F59013F932F930E94831CC5
:10114000B50180913D0590913E053CD640E069E0B7
:1011500073E088EE93E02ADE0FB6F894DEBF0FBE90
:10116000CDBF059741F06EEF72E08CED95E03CD677
:101170006FE271E01DC080913D0590913E05DC015C
:10118000ED91FC910280F381E02DA801B601199543
:1011900041E060E070E080ED97E008DE039709F43D
:1011A0003FC06EEF72E08CED95E01ED664E171E019
:1011B0008CED95E03ED681E090E0F7019383828349
:1011C0006EEF72E08CED95E00FD66BE571E08CED83
:1011D00095E00BD66EE474E08CED95E005D6D70172
:1011E0001C964C9150E060E070E02AE08CED95E0B8
:1011F000A1D56EE674E08CED95E00E94C71560EA1B
:101200007FE080E090E00E94E214D701ED91FC9134
:101210000488F589E02DC701199580E090E001C0B0
:10122000C80164960FB6F894DEBF0FBECDBFDF9144
:10123000CF911F910F91FF90EF90DF90CF90BF90D3
:10124000AF900895CF93DF93CDB7DEB7C85CD109D7
:101250000FB6F894DEBF0FBECDBF9E012E523F4F9A
:10126000C253DF4F48815981CE5CD04068EC70E0BA
:10127000CE0101960E94B11C81E00E94AC15BE0116
:101280006F5F7F4F80913D0590913E059BD541E07A
:1012900060E070E0C053DF4F88819981C05DD0402D
:1012A00085DDC853DF4F0FB6F894DEBF0FBECDBF4C
:1012B000DF91CF910895CF93DF93FC0124852F3FD9
:1012C00009F43BC0EC016EEF72E08CED95E08CD53B
:1012D00064E871E08CED95E088D56EE474E08CED07
:1012E00095E082D54C8550E060E070E02AE08CED1E
:1012F00095E020D56EE674E08CED95E00E94C71570
:101300008C851F928F938FE08F9380EA8F9385E770
:1013100091E09F938F9396DFEC85F0E0EE0FFF1F37
:10132000EA5AFD4F8FEF9FEF918380838C870F9058
:101330000F900F900F900F900F90DF91CF91089525
:101340004F925F926F927F928F929F92AF92BF92D5
:10135000CF92DF92EF92FF920F931F93CF93DF9381
:10136000CDB7DEB74C016B015A0139014DB65EB6FF
:10137000CB010E947A1C01962DB73EB7281B390B72
:101380000FB6F8943EBF0FBE2DBF8DB79EB7019626
:101390007C01B6010E94731CC5010E947A1C019653
:1013A0002DB73EB7281B390B0FB6F8943EBF0FBEC2
:1013B0002DBF8DB79EB701966C01B5010E94731CBD
:1013C0009301A601B701C401A9DD0FB6F8945EBE72
:1013D0000FBE4DBEDF91CF911F910F91FF90EF9007
:1013E000DF90CF90BF90AF909F908F907F906F9045
:1013F0005F904F9008951F920F920FB60F92112495
:101400000BB60F922F933F934F935F936F937F93FE
:101410008F939F93AF93BF93EF93FF938091B90006
:10142000887F803609F49CC068F5883209F45BC077
:1014300090F4803109F454C038F4882309F4F6C0DC
:10144000883009F44DC0F6C0883109F44CC08032B0
:1014500009F45DC0EFC0803409F468C048F48033FB
:1014600009F455C0883309F0E5C08093FF04D8C063
:10147000803509F44FC0883509F45DC0883409F01F
:10148000D9C0D6C0883909F4C7C0A8F4883709F490
:1014900067C038F4883609F463C0803709F460C047
:1014A000C9C0883809F4B8C0803909F45FC08038F1
:1014B00009F0C0C05BC0803B09F486C038F4803AB4
:1014C00009F466C0883A09F47FC0B4C0803C09F4CE
:1014D000A7C0883C09F4A4C0883B09F48AC0AAC00C
:1014E0008091220510C090912105809120059817C8
:1014F00070F5E091210581E08E0F80932105F0E0E9
:10150000E050FB4F80818093BB0085EC86C08093C8
:10151000FF048EC0E091210581E08E0F80932105AC
:101520008091BB00F0E0E050FB4F8083909121055B
:10153000809120056EC0E091210581E08E0F80939F
:1015400021058091BB00F0E0E050FB4F808380914B
:10155000280581116DC081E08093270584EA61C070
:1015600083E0809329051092FE04CFCF8091FE0482
:10157000803208F051C0E091FE0481E08E0F80932C
:10158000FE048091BB00F0E0E252FB4F8083BDCFB0
:1015900085EC8093BC00109229058091FE04803276
:1015A00030F4E091FE04F0E0E252FB4F10826091D3
:1015B000FE0470E0E0912305F09124058EED94E0A7
:1015C00019951092FE0436C084E08093290510928C
:1015D000DD041092DC04E0912505F09126051995B3
:1015E0008091DC04811105C081E08093DC041092BD
:1015F000BC04E091DD0481E08E0F8093DD04F0E017
:10160000E454FB4F80818093BB009091DD04809176
:10161000DC04981708F479CF85E88093BC000AC0F1
:1016200085EC8093BC001092290504C01092FF0441
:101630000E94AB02FF91EF91BF91AF919F918F916B
:101640007F916F915F914F913F912F910F900BBEC2
:101650000F900FBE0F901F901895CF93FC01C4817F
:1016600021E020939B04C0937A0410922B051092E2
:101670002A058385682B89E796E00E9437039091BD
:101680002A05913208F045C0809129058111FCCFCF
:1016900082E08093290581E0809328058FEF809375
:1016A000FF041092210590932005ABE7B4E0E0E041
:1016B000F5E080E0981721F02D9121938F5FFACF0C
:1016C0001092220580912205CC0FC82BC0932205D1
:1016D00080912705813061F41092270580912205C1
:1016E0008093BB008091BC0083FDF8CF85EC01C0E6
:1016F00085EE8093BC00809129058230E1F38091D2
:10170000FF048F3F31F08091FF04803211F080910F
:10171000FF0410922B0510922A0510929B04CF9182
:1017200008950F931F93CF938C01C62F96DF6C2FD4
:101730006460C80192DF6C2F6B7FC8018EDF83EC81
:1017400090E00197F1F7CF911F910F9108950F93BA
:101750001F93CF93DF938C01C62FD42F607F642B10
:10176000E0DF80E1C89FB00111246D2BC801DF913B
:10177000CF911F910F91D5CF41E0E9DF81E090E05B
:1017800008951F93CF93DF9361E080E0DCD4C09194
:101790007804D091790480912E0590912F058C17B3
:1017A0009D07BCF010E061E08C2FCDD4612F85E85F
:1017B00096E0E2DF69E170E080E090E00E94E214F0
:1017C0001F5F153081F72196D0937904C093780478
:1017D000DECFDF91CF911F910895CF92DF92EF92EC
:1017E000FF920F931F93CF93DF936C017A018B01CC
:1017F000C0E0D0E0CE15DF0581F0D8016D918D01FC
:10180000D601ED91FC910190F081E02DC601199572
:10181000892B11F02196EECF7E01C701DF91CF9188
:101820001F910F91FF90EF90DF90CF900895CF928E
:10183000DF92EF92FF92CF93DF93EC010E941A1593
:101840006B017C018091950690919606DC01ED91EB
:10185000FC910084F185E02D1995892B79F40E9483
:101860001A15DC01CB018C199D09AE09BF09803422
:101870009C49A105B10530F380E00DC0809195062B
:1018800090919606DC01ED91FC910284F385E02DA8
:101890001995888381E0DF91CF91FF90EF90DF90E1
:1018A000CF9008950F931F93CF93DF93EC010E9485
:1018B0001A15688779878A879B87E881F98104846C
:1018C000F585E02DCE01199597FF17C00E941A15D6
:1018D000088519852A853B85DC01CB01801B910B8E
:1018E000A20BB30B0C811D812E813F8180179107C4
:1018F000A207B30710F38FEF9FEFDF91CF911F91F6
:101900000F91089528D5882331F180911707909180
:101910001807019611F481E090E0909318078093E6
:101920001707809117079091180790939C06809352
:101930009D0647E050E067E976E087E594E083D4D0
:10194000FC01EF56F94F1682AC014450510967E98A
:1019500076E082E898C480E008954F925F926F929B
:101960007F928F929F92AF92BF92CF92DF92EF922F
:10197000FF920F931F93CF93DF931F921F92CDB7C8
:10198000DEB75C0187E996E052DF811139C035C0CE
:101990008C01CE0101964BDF882379F1C8010196B5
:1019A0002981F70121937F01422F4F7750E0449D19
:1019B000B001459D700D549D700D1124C60ED71EAB
:1019C00047E0440C551C661C771C4A95D1F727FF4D
:1019D00027C085309105E1F68FEF9FEF9093310797
:1019E000809330078091950690919606DC01ED91E9
:1019F000FC910488F589E02D199580E090E08BC07A
:101A000090909706198288E9E82E86E0F82E01E08A
:101A100010E0C12CD12C412C512C32014394B9CF70
:101A2000F92DF07FFA832FEF280FD5012C93F03397
:101A300009F58956994FFBDE8823F9F2C8018756CC
:101A4000994FF5DE8823C9F2C8010396D501EC91C0
:101A5000F0E0EF56F94FE780F12CFE2CEE242085C4
:101A6000E20EF11C2091970621FF08C0B2E0EB0EB8
:101A7000F11C04C020E0E12CF12C01C022E0422E38
:101A8000512CFC01EF56F94F4F018C01481A590AAD
:101A90002EEF622E77247A94C801840D951D8C1543
:101AA0009D0570F5CE010196C2DE882309F4A5CF0D
:101AB00080912E0790912F070097B1F0FA81F033B3
:101AC00099F4D5012C91F301E21BF1099F01200F3C
:101AD000311FE216F30640F4DC01ED91FC91019018
:101AE000F081E02D698119950038110518F489817C
:101AF000F40186830F5F1F4FFFEF8F1A9F0ACCCF31
:101B000080912E0790912F07892B21F40138110520
:101B100008F073CFC8010F900F90DF91CF911F9104
:101B20000F91FF90EF90DF90CF90BF90AF909F907C
:101B30008F907F906F905F904F900895FC0101907F
:101B40000020E9F731979F01281B390BE0913E07F0
:101B5000F0913F07E21BF30B40913A0750913B078E
:101B6000E417F50730F46091380770913907E60FF4
:101B7000F71F280F391F60913C0770913D07DC016A
:101B80008217930758F40196BC91A081BA1308C03C
:101B90003196E617F70799F7FA01F1CF81E008953A
:101BA00080E008950F931F93CF93DF938B0187708D
:101BB00098E0899FB0011124606440E085E896E0D8
:101BC000C6DDE801085F1F4F699185E896E0D4DD26
:101BD000C017D107C9F7DF91CF911F910F910895D9
:101BE000CF92DF92EF92FF921F93CF93DF93EC019E
:101BF000CE0158DEFC0197FD0EC08D32910579F0C3
:101C0000C0970A9760F0E881F9810284F385E02D9E
:101C1000CE011995EDCF60E070E0CB0143C0C12C3F
:101C2000D12C760110E0E130F10501F1ED32F10542
:101C3000E1F0CF01C0970A97C8F4AAE0B0E0A7018D
:101C400096010E94B81F6F01FF0FEE08FF08DC012C
:101C5000CB018C0D9D1DAE1DBF1D6C017D0120E3D0
:101C6000C21AD108E108F10801C011E0E881F98148
:101C70000284F385E02DCE011995CE0113DEFC011F
:101C8000C0970A9780F2E130F10569F2112341F023
:101C900066277727CB016C197D098E099F0902C041
:101CA000C701B601DF91CF911F91FF90EF90DF90B8
:101CB000CF900895EF92FF920F931F93CF93DF93EE
:101CC000EC017B018A0188819981009729F02A81A2
:101CD0003B8124173507F8F4B8016F5F7F4F0E94EE
:101CE000FA20009759F0998388831B830A832C81FB
:101CF0003D81232B81F4FC0110820DC088819981E4
:101D0000009711F00E947120198218821D821C8296
:101D10001B821A8207C01D830C83B70188819981B9
:101D20000E940822CE01DF91CF911F910F91FF9069
:101D3000EF9008958F929F92AF92BF92EF92FF9291
:101D40000F931F93CF93DF93CDB7DEB7A1970FB655
:101D5000F894DEBF0FBECDBF7C01FA01CB0119A202
:101D6000223008F42AE08E010F5D1F4F822E912C45
:101D7000A12CB12CBF01A50194010E94961FF9016D
:101D8000CA01015011096A3014F4605D01C0695C38
:101D9000D8016C93232B242B252B61F7B801C701A5
:101DA000F6D6A1960FB6F894DEBF0FBECDBFDF9179
:101DB000CF911F910F91FF90EF90BF90AF909F90A8
:101DC0008F9008950F931F93CF93DF93EC01DFD68D
:101DD0008C016EE674E0CE01DAD6800F911FDF91A0
:101DE000CF911F910F910895D2C6EF92FF920F935A
:101DF0001F93CF93DF938C017B01C0E0D0E0F7010C
:101E0000EC0FFD1F6491662361F0D801ED91FC9108
:101E10000190F081E02DC8011995892B11F02196D0
:101E2000EECFCE01DF91CF911F910F91FF90EF90F8
:101E300008950F931F93CF93DF93EC01D6DF8C01AE
:101E40006EE674E0CE01A3D6800F911FDF91CF9193
:101E50001F910F910895CF93DF93EC0181E07CD621
:101E6000BE0180913D0590913E05E3DF41E060E0D9
:101E700070E088EE93E0DF91CF910C94D6068F92BC
:101E80009F92AF92BF92EF92FF920F931F93CF93C7
:101E9000DF93C82F8B01D42F7901CCD54B015C0186
:101EA00080913D0590913E05DC01ED91FC9100840F
:101EB000F185E02D1995892B09F470C080913D05BD
:101EC00090913E05DC01ED91FC91DD2339F0048415
:101ED000F585E02D1995F801808319C00284F385FA
:101EE000E02D1995F80180838091390590913A058C
:101EF000A0913B05B0913C050197A109B1098093E0
:101F0000390590933A05A0933B05B0933C05809129
:101F1000390590913A05A0913B05B0913C05892B7C
:101F20008A2B8B2B11F081E079C065E070E080E0B6
:101F300090E048D580913D0590913E05DC01ED9102
:101F4000FC910084F185E02D1995892B61F3809136
:101F50003D0590913E05DC01ED91FC910484F585F1
:101F6000E02D1995D0E0E0968C179D07E1F640E052
:101F700067E674E084EF91E00E94D606059751F081
:101F80006EEF72E08CED95E02FDF6FE473E08CED87
:101F900095E04FDF81E0F701808340C04BD5DC0145
:101FA000CB0188199909AA09BB09803D9740A10571
:101FB000B10508F475CF6EEF72E08CED95E014DF9B
:101FC00066E473E08CED95E010DF6EE474E08CED78
:101FD00095E00ADF4091390550913A0560913B0543
:101FE00070913C0577FF04C0CB01BA010BD104C04E
:101FF0002AE08CED95E09EDE6EE674E08CED95E0D7
:10200000C6D51092390510923A0510923B051092F0
:102010003C0510923805D8011C9280E0DF91CF91E9
:102020001F910F91FF90EF90BF90AF909F908F9076
:102030000895EF92FF920F931F93CF93DF93EC01DC
:10204000162F072FF42EE52E6EEF72E08CED95E043
:10205000CBDE68E373E08CED95E0C7DE6EE474E000
:102060008CED95E0C1DE612F702F8CED95E0AADE3E
:10207000EEE5F2E083E090E0329122912F3F3F4F76
:1020800019F00197C8F78FEF8C878F3F31F1EF92EE
:10209000FF920F931F931F928F9383E18F9388E892
:1020A0008F938BE193E09F938F93CCD82DB73EB75E
:1020B000265F3F4F0FB6F8943EBF0FBE2DBF892B52
:1020C000B1F48C8590E0FC01EE0FFF1FEA5AFD4F42
:1020D0009183808381E090E00CC06EEF72E08CED24
:1020E00095E082DE67E073E08CED95E0A2DE80E0B3
:1020F00090E0DF91CF911F910F91FF90EF900895A5
:10210000CF93DF93ECE0F4E08491E6ECF3E0D4913C
:10211000E0E8F3E0C491CC2389F0811193D3EC2F54
:10212000F0E0EE0FFF1FEC59FC4FA591B491EC913C
:10213000ED2381E090E021F480E002C080E090E0B7
:10214000DF91CF910895CF93DF93CDB7DEB7289776
:102150000FB6F894DEBF0FBECDBF98E0E8E7F2E01F
:10216000DE01119601900D929A95E1F790918D06FE
:10217000961710F46FEF690FFE013196E60FF11D0F
:10218000E60FF11D6081680F606840E085E896E029
:1021900028960FB6F894DEBF0FBECDBFDF91CF916A
:1021A000D6CA40E061E085E896E0D1DA8BE39FE1B2
:1021B0000197F1F70895FC01A089B18982E08C9321
:1021C000A485B5851C92A685B78580E18C93108E79
:1021D000A489B58986E08C93A289B3898C918061AA
:1021E0008C93A289B3898C9188608C93A289B389DE
:1021F0008C9180688C930288F389E02D80818F7D9B
:1022000080830895CF92DF92EF92FF92CF93DF9376
:102210006B017C016DE28CED95E047D1EC01442728
:102220005527BA014C195D096E097F092AE08CED2A
:1022300095E080DD8C0F9D1FDF91CF91FF90EF9097
:10224000DF90CF900895CF93DF93EC01FA0132969F
:10225000E60FF71FDC01AD014C1B5D0BCF01861BA8
:10226000970B2D91222311F02193F5CF9C01241B74
:10227000350B620F731FFB013297508331964083F9
:10228000DF91CF910895EF92FF920F931F93CF9319
:10229000DF9300D01F92CDB7DEB77B01BA0130E0EB
:1022A000962F9F77660F672F661F770B71956115C5
:1022B000710509F0906821E0230FE1E0F0E0EC0FF8
:1022C000FD1FE30FF11D90836115710511F0322F91
:1022D000E7CF30E0B701621B730B6C5F7F4FDB0110
:1022E0008C93DE011196F701E21BF30B359685E026
:1022F000E80EF11CEE16FF0619F08D918193FACFCE
:1023000080919506909196062F5F3F4F8901040FAB
:10231000151FDC01ED91FC910280F381E02DA801F5
:1023200019957C0187D36093190770931A078093DE
:102330001B0790931C0781E00E151F0509F080E034
:102340000F900F900F900F90DF91CF911F910F91F1
:10235000FF90EF900895CF93809195069091960607
:10236000009771F1DC01ED91FC910688F789E02D71
:102370001995C1E0811125C0C0E08091300790918E
:102380003107892BF1F48DEF9FEF90933107809304
:1023900030078091950690919606DC01ED91FC91B5
:1023A0000680F781E02D199580919506909196060B
:1023B000DC01ED91FC910488F589E02D199501C0AF
:1023C000C0E08C2FCF910895FC01538D448D252FB3
:1023D00030E0842F90E0821B930B541710F0CF96BF
:1023E000089501970895FC01918D828D981761F0F1
:1023F000828DDF01A80FB11D5D968C91928D9F5F3C
:102400009F73928F90E008958FEF9FEF0895FC01E6
:10241000918D828D981731F0828DE80FF11D858D99
:1024200090E008958FEF9FEF0895FC01918D228D2C
:10243000892F90E0805C9F4F821B91098F739927B1
:1024400008958FE395E0F1DF21E0892B09F420E086
:10245000822F08958CED95E0E8DF21E0892B09F4C7
:1024600020E0822F0895FC01848DDF01A80FB11DAB
:10247000A35ABF4F2C91848D90E001968F739927BA
:10248000848FA689B7892C93A089B1898C91837098
:1024900080648C93938D848D981306C00288F38991
:1024A000E02D80818F7D80830895EF92FF920F93BE
:1024B0001F93CF93DF93EC0181E0888F9B8D8C8DF0
:1024C000981305C0E889F989808185FD25C0F62E1D
:1024D0000B8D10E00F5F1F4F0F731127E02E8C8DB7
:1024E000E8120BC00FB607FCFACFE889F9898081A2
:1024F00085FFF5CFCE01B7DFF2CF8B8DFE01E80F60
:10250000F11DE35AFF4FF0829FB7F8940B8FEA89D1
:10251000FB89808180620AC09FB7F894EE89FF89A9
:102520006083E889F98980818370806480839FBF9C
:1025300081E090E0DF91CF911F910F91FF90EF909C
:102540000895CF93DF93EC01888D8823C1F0EA8949
:10255000FB89808185FD05C0A889B9898C9186FD9C
:102560000EC00FB607FCF5CF808185FFF2CFA8899A
:10257000B9898C9185FFEDCFCE0175DFE8CFDF9172
:10258000CF91089580E090E0892B19F063DF8111ED
:1025900020C080E090E0892B19F053DF81111CC02E
:1025A00080E090E0892B41F080E090E0892B21F0E1
:1025B0000E940000811113C080E090E0892BA1F0FF
:1025C00080E090E0892B81F00E94000081110AC018
:1025D00008950E940000DDCF0E940000E1CF0E941C
:1025E0000000EACF0C94000008953FB7F894809162
:1025F0007C0790917D07A0917E07B0917F0726B55B
:10260000A89B05C02F3F19F00196A11DB11D3FBF2A
:10261000BA2FA92F982F8827820F911DA11DB11DB8
:10262000BC01CD0142E0660F771F881F991F4A95B4
:10263000D1F708958F929F92AF92BF92CF92DF927F
:10264000EF92FF920F931F93CF93DF937C01EB01E7
:102650006C0182E0C80ED11C4701E5E08E0E911C92
:1026600000E010E0F60141916F0150E060E070E0A1
:102670002AE0CE015FDB5C01E881F9810190F08105
:10268000E02D6EE2CE0119958A0D9B1D080F191FD2
:102690008C149D0439F7F701458150E060E070E04B
:1026A0002AE0CE0147DB800F911FDF91CF911F9170
:1026B0000F91FF90EF90DF90CF90BF90AF909F90E1
:1026C0008F9008950E94DA211F920F920FB60F92F9
:1026D00011240BB60F922F933F934F935F936F93F9
:1026E0007F938F939F93AF93BF93EF93FF938FE36A
:1026F00095E0B9DEFF91EF91BF91AF919F918F91DE
:102700007F916F915F914F913F912F910F900BBEF1
:102710000F900FBE0F901F9018951F920F920FB63B
:102720000F9211240BB60F922F938F939F93EF93D9
:10273000FF93E0914F05F09150058081E0915505A0
:10274000F091560582FD12C09081809158058F5FEF
:102750008F7320915905821751F0E0915805F0E0F0
:10276000E15CFA4F958F8093580501C08081FF91FD
:10277000EF919F918F912F910F900BBE0F900FBEF5
:102780000F901F9018951F920F920FB60F92112461
:102790000BB60F922F933F934F935F936F937F935B
:1027A0008F939F93AF93BF93EF93FF938CED95E03F
:1027B0005ADEFF91EF91BF91AF919F918F917F91E1
:1027C0006F915F914F913F912F910F900BBE0F90A2
:1027D0000FBE0F901F9018951F920F920FB60F9279
:1027E00011240BB60F922F938F939F93EF93FF9328
:1027F000E091EC05F091ED058081E091F205F0911A
:10280000F30582FD12C090818091F5058F5F8F7373
:102810002091F605821751F0E091F505F0E0E452C1
:10282000FA4F958F8093F50501C08081FF91EF915C
:102830009F918F912F910F900BBE0F900FBE0F9015
:102840001F90189590E0FC013197E231F10508F0F6
:102850004EC08827EE58FF4F8F4F0C94D11F8091A8
:1028600080008F7703C0809180008F7D80938000EF
:10287000089580918000877FF9CF84B58F7702C05B
:1028800084B58F7D84BD08958091B0008F7703C09B
:102890008091B0008F7D8093B0000895809190006A
:1028A0008F7707C0809190008F7D03C0809190004A
:1028B000877F8093900008958091A0008F7707C054
:1028C0008091A0008F7D03C08091A000877F8093BE
:1028D000A0000895809120018F7707C0809120018A
:1028E0008F7D03C080912001877F80932001089510
:1028F0001F93CF93DF93282F30E0F901E65FFB4F62
:102900008491F901EC53FC4FD491F901E258FC4F4A
:10291000C491CC23B9F0162F811194DFEC2FF0E095
:10292000EE0FFF1FE659FB4FA591B4919FB7F894A6
:10293000111104C08C91D095D82302C0EC91DE2BEC
:10294000DC939FBFDF91CF911F910895CF93DF93C9
:1029500090E0FC01EC53FC4F2491FC01E258FC4F49
:102960008491882361F190E0880F991FFC01E05B5E
:10297000FB4FC591D491FC01E659FB4FA591B49151
:10298000611109C09FB7F8948881209582238883BC
:10299000EC912E230BC0623061F49FB7F8948881CC
:1029A000322F309583238883EC912E2B2C939FBF5D
:1029B00006C08FB7F894E8812E2B28838FBFDF9154
:1029C000CF9108958F929F92AF92BF92CF92DF9254
:1029D000EF92FF926B017C0108DE4B015C01C11498
:1029E000D104E104F104E9F000DEDC01CB01881937
:1029F0009909AA09BB09883E9340A105B10578F35E
:102A000021E0C21AD108E108F10888EE880E83E0BF
:102A1000981EA11CB11CC114D104E104F10421F7DA
:102A2000DECFFF90EF90DF90CF90BF90AF909F9060
:102A30008F9008952FB7F894609178077091790777
:102A400080917A0790917B072FBF0895EF92FF92B4
:102A50000F931F93CF93DF93EC018B017A01EADF91
:102A6000FE01E857FF4F60837183828393838C81DB
:102A70009D81DC01ED91FC910280F381E02DA701A5
:102A8000B801DF91CF911F910F91FF90EF901994B2
:102A90001F93CF93DF93EC01162FCCDFFE01E85795
:102AA000FF4F60837183828393838C819D81DC01DE
:102AB000ED91FC910190F081E02D612FDF91CF919C
:102AC0001F9119941F920F920FB60F9211242F93FA
:102AD0003F938F939F93AF93BF938091780790918B
:102AE0007907A0917A07B0917B073091770723E0AF
:102AF000230F2D3720F40196A11DB11D05C026E836
:102B0000230F0296A11DB11D2093770780937807AC
:102B100090937907A0937A07B0937B0780917C0705
:102B200090917D07A0917E07B0917F070196A11D2E
:102B3000B11D80937C0790937D07A0937E07B0938F
:102B40007F07BF91AF919F918F913F912F910F90F0
:102B50000FBE0F901F90189580913D0590913E05F6
:102B6000DC01ED91FC910084F185E02D199518169A
:102B7000190664F480913D0590913E05DC01ED91CC
:102B8000FC910284F385E02D1995E6CF0895611537
:102B9000710579F0FB0101900020E9F73197AF0151
:102BA000461B570BDC01ED91FC910280F381E02D77
:102BB000199480E090E00895CF93DF93CDB7DEB70E
:102BC0002E970FB6F894DEBF0FBECDBF789484B5B4
:102BD000826084BD84B5816084BD85B5826085BD19
:102BE00085B5816085BD80916E00816080936E00A7
:102BF0001092810080918100826080938100809199
:102C00008100816080938100809180008160809349
:102C100080008091B10084608093B1008091B00009
:102C200081608093B00080919100826080939100D8
:102C300080919100816080939100809190008160EB
:102C4000809390008091A10082608093A100809188
:102C5000A10081608093A1008091A0008160809399
:102C6000A000809121018260809321018091210147
:102C700081608093210180912001816080932001F7
:102C800080917A00846080937A0080917A008260DB
:102C900080937A0080917A00816080937A0080919D
:102CA0007A00806880937A001092C10061E086E12A
:102CB0004DDE61E087E14ADE61E088E147DE62E007
:102CC00082E044DE10922D0510922C0510922B0507
:102CD00010922A051092290581E080932805109210
:102CE000270561E084E104DE61E085E101DE809199
:102CF000B9008E7F8093B9008091B9008D7F809359
:102D0000B90088E48093B80085E48093BC008DED21
:102D100092E090932605809325058EED92E09093A6
:102D200024058093230510928A0680918F068230B5
:102D300018F098E090938A0680938D0662E370E025
:102D400080E090E03FDE6091900685E896E00E948A
:102D50002D0B68EE73E080E090E034DE60E385E800
:102D600096E00E94910B0BE416E4C8010197F1F77D
:102D700060E385E896E00E94910BC8010197F1F7A6
:102D800060E385E896E00E94910B83E592E001976D
:102D9000F1F760E285E896E00E94910B60918A0667
:102DA000606240E085E896E00E94A70B84E0809393
:102DB0008B0640E06CE085E896E00E94A70BF1D915
:102DC00082E080938C0640E066E085E896E00E9411
:102DD000A70B40E062E085E896E00E94A70B8BE33A
:102DE0009FE10197F1F788E08093900660E085E825
:102DF00096E00E942D0BD5D96CE373E085E896E050
:102E00000E94F40E61E087E173DD6EE472E080E021
:102E10000E94D20D66E472E081E00E94D20D6EE362
:102E200072E082E00E94D20D66E372E083E00E94CD
:102E3000D20D6EE272E084E00E94D20D6CED75E07E
:102E400080E090E0BFDDADD98CED95E0B4D98FE3A3
:102E500095E0B1D960E080E076D966E473E085E87A
:102E600096E00E94F40E61E08CE06DD963EE73E0B1
:102E700085E896E00E94F40E85E090E090932F059F
:102E800080932E056EEF72E08CED95E00E94F40EBB
:102E90006EE972E08CED95E00E94190F8FE395E0EA
:102EA00090933E0580933D0505E010E08BE992E0AC
:102EB0000E942B0F892B09F45DC368EE73E080E05C
:102EC00090E080DD0150110989F76EEF72E08CED22
:102ED00095E00E94F40E6EE772E08CED95E00E94A2
:102EE000190F68E873E180E090E06CDD61E08CE050
:102EF0002AD967E573E085E896E00E94F40E0E9407
:102F0000C10B60E080E01FD96BE573E085E896E0D7
:102F10000E94F40E88E090E090932F0580932E0598
:102F20000AE010E09E012F5F3F4F46EB52E069EB55
:102F300072E081EC92E00E94A009882359F002E13E
:102F400012E03EE4D32E40E2C42E50EFE52E52E0D4
:102F5000F52E44C06CE673E08CED95E00E94E20E25
:102F6000FFCF64E873E08CED95E00E94F40E60E220
:102F700072E08CED95E00E94E20E1F930F9380E2C9
:102F800092E09F938F93DF92CF92FF92EF920E94F5
:102F900022090FB6F894DEBF0FBECDBF6EEF72E010
:102FA000892B21F58CED95E00E94F40E6EEC72E019
:102FB0008CED95E00E94F50E6EE474E08CED95E0EA
:102FC0000E94F40E60E272E08CED95E00E94E20E49
:102FD00081E090E090933705809336058091360527
:102FE00090913705019709F0BCCF20C08CED95E09A
:102FF0000E94F40E6BED72E08CED95E00E94F50EF0
:103000006EE474E08CED95E00E94F40E60E272E0F4
:103010008CED95E00E94E20E68EE73E080E090E0B7
:10302000D1DC80E099DD82E090E0D4CF61E08CE0FB
:103030008AD868EA73E085E896E00E94F40E0E9460
:10304000C10B60E080E07FD86CEA73E085E896E031
:103050000E94F40E0AE010E010932F0500932E0555
:103060006DEB73E08CED95E00E94E20E80E092E063
:1030700090932B0780932A078BE597E090932D0779
:1030800080932C078FEF95E090932307809322077E
:103090000E94820C61E08CE056D86DED73E085E80B
:1030A00096E00E94F40E0E94C10B60E080E04BD8D5
:1030B0006CEA73E085E896E00E94F40E10932F0509
:1030C00000932E050E94C10B61E08CE03CD861EEBC
:1030D00073E085E896E00E94F40E60E971E080E01C
:1030E00090E070DC5ED860E087E102DC61E088E1BE
:1030F000FFDBAE01485F5F4F5D874C872CEF222ED0
:1031000033243A9428D98111F5C04BD861E087E186
:10311000EFDB60E088E1ECDB1FE01DD98111EAC044
:1031200066EE73E08CED95E00E94F40E60E080E0C6
:103130000AD86DEF73E085E896E00E94F40E0BD993
:103140008111C7C060912A0770912B078091950665
:103150009091960640912C0750912D07DC01ED913E
:10316000FC916115710521F00088F189E02D16C0F0
:103170000684F785E02D2EED32E03A832983C09056
:103180002607D0902707E0902807F0902907CB82E8
:10319000DC82ED82FE82BE016F5F7F4F1995813028
:1031A000910509F08FC0909318078093170787E067
:1031B000EEE6F2E0DE01119601900D928A95E1F7BC
:1031C000FE013196ACE9B6E081918D934C855D8529
:1031D000E417F507C9F752E05093A3061092A4062E
:1031E0001093A5064FE050E067E976E08BE094E0AD
:1031F0002AD8AC014550510967E976E080E143D80F
:1032000019DC6093190770931A0780931B0790933A
:103210001C0760931D0770931E0780931F079093F0
:1032200020078091950690919606DC01ED91FC9126
:103230000084F185E02D1995892BC9F4FBDBC09042
:103240001D07D0901E07E0901F07F0902007DC01BB
:10325000CB018C199D09AE09BF0980349C49A10599
:10326000B105F8F230923107209230071FC0CE012D
:103270000B960E94AD0C0497C9F480919A068111B7
:1032800010C0D8DB60931D0770931E0780931F0743
:103290009093200710922107109231071092300767
:1032A00018C090E090933107809330078091950685
:1032B00090919606DC01ED91FC910488F589E02D52
:1032C0001995D2C12EEF3FEF30933107209330078D
:1032D000CBC161E174E08CED95E00E94E20E0E94AA
:1032E000D1100E94820C60E087E102DB61E088E19E
:1032F000FFDA13CF30D8882309F41BC19BDB2B01E5
:103300003C0180911D0790911E07A0911F07B0916D
:103310002007A3019201281B390B4A0B5B0BDA0132
:10332000C90189399A43A105B105A8F4809119070B
:1033300090911A07A0911B07B0911C07A30192015D
:10334000281B390B4A0B5B0BDA01C90189399A43F7
:10335000A105B105B8F120912107809195069091C2
:103360009606222361F03092310720923007DC016B
:10337000ED91FC910488F589E02D1995DAC020ECD7
:103380002093970610929806DC01ED91FC91028043
:10339000F381E02D42E050E067E976E01995409234
:1033A000190750921A0760921B0770921C074092EF
:1033B0001D0750921E0760921F077092200781E040
:1033C000809321078091950690919606DC01ED91FE
:1033D000FC910084F185E02D1995892B09F4A9C091
:1033E000CE0101960E94AD0C5C01892B09F49FC0AF
:1033F00040921D0750921E0760921F07709220078F
:1034000080919706807F803309F075C080912207F4
:1034100090912307892B09F48CC0E980F12CF701E6
:10342000EF56F94F078110E0102F00278085080F15
:10343000111D97012756394F4901B7016656794F3B
:10344000A801C901C4D7B8016E0D7F1DDB01AF56BD
:10345000B94F18961C9218978091970686708E87A0
:10346000E0912207F09123078230C1F51996CC90A4
:103470001997D12CDC2CCC241A968C91C80ED11C17
:103480004BEF5FEF4E195F09401B510B4A0D5B1D5F
:103490006456794FC401199580E4809397063E8560
:1034A00030939806D0929906C0929A06809195061C
:1034B00090919606DC01ED91FC910280F381E02D64
:1034C00044E050E067E976E0199540921907509280
:1034D0001A0760921B0770921C072BC04DEF5FEF1D
:1034E0004E195F09401B510B4A0D5B1D6656794F03
:1034F000C40119951EC0803CA9F480ED8093970605
:10350000109298068091950690919606DC01ED91B7
:10351000FC910280F381E02D42E050E067E976E023
:10352000199507C0803D29F41092210702C00E941E
:10353000AB1160E087E1DCD961E088E1D9D960E0D6
:1035400080E00E94A31063E374E085E896E00E94A7
:10355000F40E61E080E00E94A3106FE374E085E860
:1035600096E00E94F40E6AEF70E080E090E02ADAC4
:1035700009D8C8CD8EE392E00E942B0F68EB7BE068
:1035800080E090E01FDA80E0E7DA89E392E00E94D1
:103590002B0F8DE292E00E942B0F68EC70E080E030
:1035A00090E010DA81E292E00E942B0F83E192E03A
:1035B0000E942B0F83E092E00E942B0F85EF91E099
:1035C0000E942B0F68EC70E080E090E0FBD9109235
:1035D000300506E010E020E335E04EED51E061EE0D
:1035E00071E08EEE91E00E94A00980913005815338
:1035F000823020F4809131058E32E9F06EEF72E076
:103600008CED95E00E94F40E60E672E08CED95E0A2
:103610000E94F50E6EE474E08CED95E00E94F40ECD
:1036200060E375E08CED95E00E94E20E60EA7FE0D9
:1036300080E090E05ACC6EEF72E08CED95E00E9455
:10364000F40E65E472E08CED95E00E94F50E6EE4F8
:1036500074E08CED95E00E94F40E60E375E08CED73
:1036600095E00E94E20E42CC60E574E08CED95E0BE
:103670000E94F40E4091300750913107052E000C46
:10368000660B770B77FF05C0CB01BA010E940211D0
:1036900005C02AE08CED95E00E949A0E6BE174E083
:1036A0008CED95E00E94E20E68E873E180E090E026
:1036B00089D933CD809132079091330712C5CF92CB
:1036C000DF92EF92FF920F931F93CF93DF93EFE37D
:1036D000F5E01382128288EEC82E83E0D82EE12C0A
:1036E000F12CC482D582E682F78284E892E091834D
:1036F00080832DEC30E0358724872CEC30E0378751
:10370000268728EC30E0318B208B29EC30E0338B9E
:10371000228B2AEC30E0358B248B2EEC30E0378B7B
:10372000268B118E128E138E148EECEDF5E0138223
:103730001282C482D582E682F7829183808385ECEF
:1037400090E09587848784EC90E09787868780EC6B
:1037500090E0918B808B81EC90E0938B828B82EC5C
:1037600090E0958B848B86EC90E0978B868B118E06
:10377000128E138E148EE0E4F7E0CEEDD2E0D1830A
:10378000C0831282138214821582E6E4F7E0D183AB
:10379000C083128213821482158208E317E080E24C
:1037A00090E0F8019183808381E290E002D4F801F7
:1037B000938382839C01205E3F4F358324839783CC
:1037C000868321E2FC0111922A95E9F7ECE4F7E007
:1037D000D183C0831282138214821582E2E5F7E05E
:1037E000D183C0831282138214821582E8E5F7E048
:1037F000D183C0831282138214821582EEE5F7E032
:10380000D183C0831282138214821582E9E7F6E025
:1038100013821282C482D582E682F78286E992E020
:1038200091838083E1E7F7E0D183C0831282138222
:1038300014821582E4E6F7E013821282C482D582F4
:10384000E682F78280EC92E0918380838FEF848719
:10385000A1E9B6E013961C921E92129784EB92E0B7
:1038600011969C938E93D0932507C09324071092B2
:1038700026071092270710922807109229078FEF2A
:103880009FEF90933107809330071596FC93EE934A
:10389000149710922F0710922E07E5E8F6E0138296
:1038A000128288EA92E09183808387E2848384E1B4
:1038B000818784E082871386E2E3F7E01182108239
:1038C000138212821582148244E050E061E774E0B2
:1038D000CF01DF91CF911F910F91FF90EF90DF907B
:1038E000CF900C945A0EFB01DC0105900D92002044
:1038F000E1F70895FC0105900020E9F78095909587
:103900008E0F9F1F08950F931F93CF93DF93CDB713
:10391000DEB72E970FB6F894DEBF0FBECDBF0E896F
:103920001F898EE08C831A8309838FEF9FE79E8324
:103930008D83AE01465E5F4F688D798DCE01019615
:1039400048D0EF81F885E00FF11F10822E960FB658
:10395000F894DEBF0FBECDBFDF91CF911F910F91C5
:1039600008950F931F93CF93DF93CDB7DEB72E97B4
:103970000FB6F894DEBF0FBECDBF8C01FA018EE00A
:103980008C831A83098377FF02C060E070E8CB0163
:1039900001979E838D83A901BF01CE01019619D0A5
:1039A0004D815E8157FD0AC02F813885421753072C
:1039B0000CF49A01F801E20FF31F10822E960FB655
:1039C000F894DEBF0FBECDBFDF91CF911F910F9155
:1039D00008952F923F924F925F926F927F928F92B3
:1039E0009F92AF92BF92CF92DF92EF92FF920F938E
:1039F0001F93CF93DF93CDB7DEB72B970FB6F89415
:103A0000DEBF0FBECDBF6C017B018A01FC011782B6
:103A10001682838181FFBFC1CE0101963C01F60170
:103A20009381F70193FD859193FF81917F01882315
:103A300009F4ADC1853239F493FD859193FF8191ED
:103A40007F01853221F4B60190E0D6D1E8CF912CE8
:103A5000212C312CFFE1F315D8F08B3279F038F4BA
:103A6000803279F08332A1F4232D20611DC08D3284
:103A700061F0803369F4232D216016C0832D8260AC
:103A8000382EE32DE4603E2E2AC0F32DF8601DC0D1
:103A900037FC2DC020ED280F2A3040F08E32B9F4CB
:103AA00036FC75C1232D2064322E19C036FE06C0A7
:103AB0008AE0989E200D1124922E11C0EAE02E9EDD
:103AC000200D1124222EF32DF0623F2E08C08C36DB
:103AD00021F4832D8068382E02C0883641F4F70126
:103AE00093FD859193FF81917F018111B3CF982F31
:103AF0009F7D9554933028F40C5F1F4F9FE399836B
:103B00000DC0833631F0833771F0833509F055C02D
:103B100020C0F801808189830E5F1F4F8824839421
:103B2000912C530112C02801F2E04F0E511CF801F4
:103B3000A080B18036FE03C0692D70E002C06FEF37
:103B40007FEFC5014ED14C018201F32DFF773F2E4F
:103B500015C0280122E0420E511CF801A080B1805E
:103B600036FE03C0692D70E002C06FEF7FEFC50124
:103B70002DD14C01F32DF0683F2E820133FC19C08A
:103B8000822D90E088169906A0F4B60180E290E0BC
:103B900033D12A94F5CFF50137FC859137FE819119
:103BA0005F01B60190E028D121102A9421E0821A09
:103BB00091088114910479F7E1C0843611F08936B7
:103BC00039F5F80137FE07C06081718182819381E8
:103BD0000C5F1F4F08C060817181072E000C880B9D
:103BE000990B0E5F1F4FF32DFF763F2E97FF09C0F5
:103BF00090958095709561957F4F8F4F9F4FF0689E
:103C00003F2E2AE030E0A30133D1882E861844C02D
:103C1000853731F4232D2F7EB22E2AE030E025C0E7
:103C2000932D997FB92E8F36C1F018F4883579F02D
:103C3000AEC0803719F0883721F0A9C0E92FE061C4
:103C4000BE2EB4FE0DC0FB2DF460BF2E09C034FEA5
:103C50000AC0292F2660B22E06C028E030E005C039
:103C600020E130E002C020E132E0F801B7FE07C0F9
:103C700060817181828193810C5F1F4F06C06081DA
:103C8000718180E090E00E5F1F4FA301F1D0882E7C
:103C90008618FB2DFF773F2E36FE0DC0232D2E7F7D
:103CA000A22E891458F434FE0BC032FC09C0832DB7
:103CB0008E7EA82E05C0B82CA32C03C0B82C01C042
:103CC000B92CA4FE0FC0FE01E80DF11D80818033E8
:103CD00021F49A2D997EA92E09C0A2FE06C0B394A4
:103CE000B39404C08A2D867809F0B394A3FC10C065
:103CF000A0FE06C0B21480F4280C922C9B180DC0B4
:103D0000B21458F4B60180E290E076D0B394F8CFC4
:103D1000B21418F42B1802C0982C212CA4FE0FC04A
:103D2000B60180E390E068D0A2FE16C0A1FC03C0FB
:103D300088E790E002C088E590E0B6010CC08A2DCB
:103D4000867851F0A1FE02C08BE201C080E2A7FCA0
:103D50008DE2B60190E050D0891430F4B60180E3D2
:103D600090E04AD09A94F8CF8A94F301E80DF11DBF
:103D70008081B60190E040D08110F6CF222009F476
:103D80004ECEB60180E290E037D02A94F7CFF6010C
:103D90008681978102C08FEF9FEF2B960FB6F89424
:103DA000DEBF0FBECDBFDF91CF911F910F91FF906E
:103DB000EF90DF90CF90BF90AF909F908F907F90CB
:103DC0006F905F904F903F902F900895FC01059069
:103DD000615070400110D8F7809590958E0F9F1F0D
:103DE0000895FC016150704001900110D8F7809552
:103DF00090958E0F9F1F08950F931F93CF93DF937E
:103E0000FB01238121FD03C08FEF9FEF2CC022FF18
:103E100016C046815781248135814217530744F4E7
:103E2000A081B1819D012F5F3F4F318320838C930F
:103E3000268137812F5F3F4F3783268314C08B0144
:103E4000EC01FB010084F185E02D1995892BE1F649
:103E5000D80116968D919C911797019617969C9371
:103E60008E931697CE01DF91CF911F910F910895F8
:103E7000FA01AA27283051F1203181F1E8946F939B
:103E80006E7F6E5F7F4F8F4F9F4FAF4FB1E03ED041
:103E9000B4E03CD0670F781F891F9A1FA11D680FDF
:103EA000791F8A1F911DA11D6A0F711D811D911D12
:103EB000A11D20D009F468943F912AE0269F112487
:103EC0003019305D3193DEF6CF010895462F4770EB
:103ED000405D4193B3E00FD0C9F7F6CF462F4F7046
:103EE000405D4A3318F0495D31FD4052419302D0A4
:103EF000A9F7EACFB4E0A69597958795779567954A
:103F0000BA95C9F700976105710508959B01AC0149
:103F10000A2E06945795479537952795BA95C9F770
:103F2000620F731F841F951FA01D0895A1E21A2E12
:103F3000AA1BBB1BFD010DC0AA1FBB1FEE1FFF1F4D
:103F4000A217B307E407F50720F0A21BB30BE40B9D
:103F5000F50B661F771F881F991F1A9469F76095E4
:103F60007095809590959B01AC01BD01CF0108959E
:103F700009D0A59F900DB49F900DA49F800D911D19
:103F800011240895A29FB001B39FC001A39F700D9B
:103F9000811D1124911DB29F700D811D1124911D51
:103FA0000895EE0FFF1F881F8BBF0790F691E02D3D
:103FB00019940F931F93CF93DF938230910510F4E0
:103FC00082E090E0E0918207F091830720E030E00A
:103FD000A0E0B0E0309719F1408151810281138156
:103FE00048175907C8F08417950769F4109731F0FE
:103FF00012960C93129713961C9327C00093820776
:104000001093830722C02115310519F04217530779
:1040100018F49A01BD01EF01DF01F801DBCF211592
:104020003105F9F0281B390B2430310580F48A81E1
:104030009B816115710521F0FB019383828304C08C
:104040009093830780938207FE01329644C0FE015D
:10405000E20FF31F81939193225031093983288312
:104060003AC02091800730918107232B41F42091A1
:104070006002309161023093810720938007209184
:104080005E0230915F022115310541F42DB73EB734
:104090004091620250916302241B350BE09180072E
:1040A000F0918107E217F307A0F42E1B3F0B2817AE
:1040B000390778F0AC014E5F5F4F2417350748F0A1
:1040C0004E0F5F1F50938107409380078193919318
:1040D00002C0E0E0F0E0CF01DF91CF911F910F919E
:1040E0000895CF93DF93009709F481C0FC013297C4
:1040F00013821282A0918207B0918307109781F4F6
:1041000020813181820F931F209180073091810798
:104110002817390751F5F0938107E093800767C0AE
:10412000ED0120E030E0CE17DF0740F44A815B81EB
:104130009E0141155105F1F0EA01F5CFD383C28309
:1041400040815181840F951FC817D90759F4888180
:104150009981840F951F0296918380838A819B8128
:10416000938382832115310529F4F0938307E0932B
:1041700082073DC0E901FB83EA8349915991C40F4D
:10418000D51FEC17FD0761F480819181840F951F85
:104190000296E90199838883828193819B838A8334
:1041A000E0E0F0E012968D919C911397009719F042
:1041B000FD01DC01F7CF8D919C9111979D012E5F40
:1041C0003F4F820F931F209180073091810728175E
:1041D000390769F4309729F4109283071092820707
:1041E00002C013821282B0938107A0938007DF91EF
:1041F000CF9108956F927F928F929F92AF92BF92CC
:10420000CF92DF92EF92FF920F931F93CF93DF93A2
:10421000009781F4CB01DF91CF911F910F91FF9017
:10422000EF90DF90CF90BF90AF909F908F907F9056
:104230006F90BFCEFC01E60FF71F9C0122503109A1
:10424000E217F30708F4A5C0EC01D9010D911C9108
:10425000119706171707A8F00530110508F497C045
:10426000C80104978617970708F491C002501109F6
:10427000061B170B019311936D937C93CF0131DFD4
:1042800086C05B01A01AB10A4C01800E911EA0915C
:104290008207B0918307612C712CE12CF12C1097CF
:1042A00009F446C08D919C911197A815B905B1F5F7
:1042B0006C0142E0C40ED11CCA14DB0478F14C013D
:1042C0008A189B08640142E0C40ED11C1296BC906F
:1042D00012971396AC91B5E0CB16D10440F0B282A0
:1042E000A38391828082D9016D937C9309C00E5F74
:1042F0001F4F800F911FF90191838083EB2DFA2FBF
:10430000E114F10431F0D7011396FC93EE93129768
:104310003EC0F0938307E093820739C068167906A0
:1043200008F43C017D0112960D90BC91A02DB7CFF1
:10433000809180079091810788169906E1F46616AE
:104340007706C8F480915E0290915F02009741F475
:104350008DB79EB74091620250916302841B950B0A
:10436000E817F907B0F4F0938107E0938007F901AB
:10437000718360830CC0CB011CDE7C01009749F087
:10438000A801BE011BD0CE01ACDEC70104C0CE0126
:1043900002C080E090E0DF91CF911F910F91FF90DC
:1043A000EF90DF90CF90BF90AF909F908F907F90D5
:1043B0006F90089581E090E0F89440C0FB01DC012B
:1043C00002C001900D9241505040D8F708956817EF
:1043D000790768F4FB01DC01E40FF51FA40FB51F9A
:1043E00002C002900E9241505040D8F70895E6CF97
:1043F000DC0101C06D9341505040E0F70895FB018E
:10440000DC018D91019080190110D9F3990B089569
:10441000FB01DC0101900D920020E1F70895FB0102
:10442000DC014150504048F001900D920020C9F746
:1044300001C01D9241505040E0F7089512E0C3E4DE
:10444000D2E000E005C0802FFE01ABDD2196011D0A
:0E445000C434D10780E00807B1F7F894FFCF1D
:10445E0062726F6B65722E686976656D712E636F11
:10446E006D00426D773331386B72353039327300EF
:10447E004E696D6E756C2D322E3447487A001F1FB3
:10448E001F1F1F1F1F001E1E1E1E1E1E1E001C1C79
:10449E001C1C1C1C1C0018181818181818001010BA
:1044AE00101010101000FFFFFFFFFFFFFFFF0000B6
:1044BE00840780000B0312031C0325033103000441
:1044CE004D515454041618170000400014005400A7
:1044DE00000000005512ED0BE411A1121512F3119C
:1044EE0007120000000037030B036603DF0203030D
:1044FE00EF02E00200000000BC0BED0B660365034B
:10450E000000000048152615660365030000000034
:10451E0095026D0866037E0230057A053A05BA05E6
:10452E00FD0569035B090D087602000000001A13F1
:10453E000000000062132B4950442C004F4E0041E6
:10454E006C61726D21004275647A696B20005B5755
:10455E006946694573705D20003E000D0A4F4B0D94
:10456E000A000D0A4552524F520D0A000D0A4641DD
:10457E00494C0D0A000D0A53454E44204F4B0D0A6F
:10458E000020434F4E4E4543540D0A004C6F61645C
:10459E00696E673A200045535020696E69746961EF
:1045AE006C697A6520200034302500436F6E6E658D
:1045BE00637420746F2057694669200057694669F5
:1045CE0020736869656C64206E6F742070726573F9
:1045DE00656E7400417474656D7074696E672074D5
:1045EE006F20636F6E6E65637420746F2057504139
:1045FE0020535349443A200036302500436F6E6EE7
:10460E0065637420746F204D5154542000596F759A
:10461E0027726520636F6E6E656374656420746FB8
:10462E0020746865206E6574776F726B0038302564
:10463E00003130302500417474656D7074696E6799
:10464E0020636F6E6E656374696F6E2000526563D2
:10465E006F6E6E656374696E672100414D656761AB
:10466E0000636F6E6E6563746564002074727920EA
:10467E00616761696E20696E2035207365636F6EA8
:10468E006473004F637A656B6977616E6965006E5E
:10469E0061206275647A696B202020202020200022
:1046AE006661696C6564006B6D2F62757A7A6572EE
:1046BE002F696E707574002C434C4F5345440D0A90
:0646CE000052616E6F0056
:020000023000CC
:10E000000D9489F10D94B2F10D94B2F10D94B2F129
:10E010000D94B2F10D94B2F10D94B2F10D94B2F1F0
:10E020000D94B2F10D94B2F10D94B2F10D94B2F1E0
:10E030000D94B2F10D94B2F10D94B2F10D94B2F1D0
:10E040000D94B2F10D94B2F10D94B2F10D94B2F1C0
:10E050000D94B2F10D94B2F10D94B2F10D94B2F1B0
:10E060000D94B2F10D94B2F10D94B2F10D94B2F1A0
:10E070000D94B2F10D94B2F10D94B2F10D94B2F190
:10E080000D94B2F10D94B2F10D94B2F10D94B2F180
:10E090000D94B2F10D94B2F10D94B2F10D94B2F170
:10E0A0000D94B2F10D94B2F10D94B2F10D94B2F160
:10E0B0000D94B2F10D94B2F10D94B2F10D94B2F150
:10E0C0000D94B2F10D94B2F10D94B2F10D94B2F140
:10E0D0000D94B2F10D94B2F10D94B2F10D94B2F130
:10E0E0000D94B2F141546D656761323536300041AF
:10E0F000726475696E6F206578706C6F72657220DE
:10E1000073746B3530305632206279204D4C530099
:10E11000426F6F746C6F616465723E004875683F52
:10E1200000436F6D70696C6564206F6E203D200048
:10E130004350552054797065202020203D20005FF9
:10E140005F4156525F415243485F5F3D2000415658
:10E1500052204C696243205665723D20004743437C
:10E160002056657273696F6E203D20004350552024
:10E1700049442020202020203D20004C6F7720663D
:10E18000757365202020203D20004869676820665F
:10E190007573652020203D200045787420667573D6
:10E1A00065202020203D20004C6F636B2066757336
:10E1B000652020203D20004D617220203720323024
:10E1C000313300312E362E3800342E332E350056A2
:10E1D00023202020414444522020206F7020636F70
:10E1E00064652020202020696E73747275637469E1
:10E1F0006F6E2061646472202020496E74657272B3
:10E20000757074006E6F20766563746F7200726A49
:10E210006D702020006A6D70200057686174207056
:10E220006F72743A00506F7274206E6F7420737541
:10E2300070706F72746564004D7573742062652030
:10E2400061206C6574746572002000577269747483
:10E25000696E672045450052656164696E672045B7
:10E26000450045452065727220636E743D00504F35
:10E27000525400303D5A65726F2061646472003FF1
:10E280003D43505520737461747300403D454550C3
:10E29000524F4D207465737400423D426C696E6B41
:10E2A000204C454400453D44756D70204545505215
:10E2B0004F4D00463D44756D7020464C415348001B
:10E2C000483D48656C70004C3D4C69737420492F83
:10E2D0004F20506F72747300513D51756974005234
:10E2E0003D44756D702052414D00563D73686F7707
:10E2F00020696E7465727275707420566563746FF0
:10E30000727300593D506F727420626C696E6B00BD
:10E310002A0011241FBECFEFD1E2DEBFCDBF01E046
:10E320000CBF12E0A0E0B2E0EEE1FDEF03E00BBFB6
:10E3300002C007900D92A030B107D9F712E0A0E01B
:10E34000B2E001C01D92AE30B107E1F70F9460F367
:10E350000D948DFE01E20EBF0FEF0DBF11241FBE05
:10E360000D9460F30D9400F020E030E040ED57E0B4
:10E3700005C0FA013197F1F72F5F3F4F2817390792
:10E38000C0F308959C01260F311DC901A0E0B0E043
:10E390002F5F3F4FABBFFC018791882361F08093D3
:10E3A000C6008091C00086FFFCCF8091C0008064D1
:10E3B0008093C000EACF08958DE08093C6008091DD
:10E3C000C00086FFFCCF8091C00080648093C000B5
:10E3D0008AE08093C6008091C00086FFFCCF8091C8
:10E3E000C00080648093C00008950F94C2F10F9420
:10E3F000DCF10895FC019081992359F09093C600B7
:10E400008091C00086FFFCCF8091C0008064809323
:10E41000C0003196992379F70895282F982F929567
:10E420009F70892F805D8A3308F0895F8093C600D2
:10E430008091C00086FFFCCF8091C00080648093F3
:10E44000C000822F8F70982F905D9A3308F0995FEB
:10E450009093C6008091C00086FFFCCF8091C000E1
:10E4600080648093C00008959C01FB01853691056E
:10E470001CF46330710594F0C90164E670E00F94F8
:10E480002EFE605D7F4F6093C6008091C00086FFC6
:10E49000FCCF8091C00080648093C0002B30310598
:10E4A00014F43297B4F0C90164E670E00F942EFEC4
:10E4B0006AE070E00F942EFE605D7F4F6093C600AF
:10E4C0008091C00086FFFCCF8091C0008064809363
:10E4D000C000C9016AE070E00F942EFEC0968093E0
:10E4E000C6008091C00086FFFCCF8091C000806490
:10E4F0008093C00008951F93182F8EE692EE60E07F
:10E500000F94C2F11093C6008091C00086FFFCCF2B
:10E510008091C00080648093C0000F94DCF11F9153
:10E5200008952F923F924F925F926F927F928F92B7
:10E530009F92AF92BF92CF92DF92EF92FF920F9392
:10E540001F93DF93CF93CDB7DEB762970FB6F894E2
:10E55000DEBF0FBECDBF382E622ECA01DB015C01CB
:10E560006D01772420E2222E2E010894411C511CBB
:10E570008BC081E0A81680E0B80681E0C80680E084
:10E58000D80628F0C601AA27BB270F940DF2BB2797
:10E59000AD2D9C2D8B2D0F940DF28A2D0F940DF225
:10E5A0002092C6008091C00086FFFCCF8091C00001
:10E5B00080648093C0009DE29093C6008091C0006B
:10E5C00086FFFCCF8091C00080648093C0002092C1
:10E5D000C6008091C00086FFFCCF8091C00080649F
:10E5E0008093C00019828601750188249924A1E0D6
:10E5F0003A1651F03A1620F0B2E03B1661F409C029
:10E600000BBFF701779007C0C7010F9477FE782EF4
:10E6100002C0F7017080872D0F940DF22092C60082
:10E620008091C00086FFFCCF8091C0008064809301
:10E63000C000872D8052F401EF70F0708F3520F408
:10E64000E40DF51D708204C0E40DF51D8EE280839B
:10E650000894E11CF11C011D111D0894811C911CE2
:10E6600090E18916910409F0C2CF80E190E0A0E02A
:10E67000B0E0A80EB91ECA1EDB1E198AC2010F9493
:10E68000FAF10F94DCF16A94662009F072CF629679
:10E690000FB6F894DEBF0FBECDBFCF91DF911F91B3
:10E6A0000F91FF90EF90DF90CF90BF90AF909F9031
:10E6B0008F907F906F905F904F903F902F90089534
:10E6C0002F923F924F925F926F927F928F929F9282
:10E6D000AF92BF92CF92DF92EF92FF920F931F9370
:10E6E000DF93CF93CDB7DEB7CD53D1400FB6F894BB
:10E6F000DEBF0FBECDBF01E20EBF0FEF0DBF94B75F
:10E70000F894A89514BE80916000886180936000A1
:10E7100010926000789493FF05C0E0910002F091A0
:10E7200001021995279A2F9A8091C00082608093E8
:10E73000C00080E18093C40088E18093C1000000A4
:10E74000EE24FF24870144E0A42EB12CCC24DD2448
:10E7500024C0C5010197F1F70894E11CF11C011DCB
:10E76000111D21E2E2162EE4F20620E0020720E06D
:10E77000120718F031E0C32ED12CC801B70127ECE5
:10E780003BE140E050E00F9441FE611571058105C9
:10E79000910519F485B1805885B98091C00087FD35
:10E7A00003C0C114D104A9F2A6014F5F5F4FC25E3E
:10E7B000DE4F59834883CE51D140C25EDE4F8881FF
:10E7C0009981CE51D140019711F00D9410FEC05D9A
:10E7D000DE4F19821882C053D14060E0C15DDE4F28
:10E7E0001882CF52D14088249924C35DDE4F19820C
:10E7F0001882CD52D140C05EDE4F188219821A8233
:10E800001B82C052D140CE5CDE4F188219821A8220
:10E810001B82C253D140EE24FF2487010BBFF701B6
:10E8200007911691C45CDE4F19830883CC53D14005
:10E830000D940BFEC25EDE4F28813981CE51D1404E
:10E840002130310509F52091C600C25EDE4F1982E4
:10E850001882CE51D14022C02F5F3F4F4F4F5F4FA4
:10E86000213082E138078AE7480780E0580780F0C6
:10E87000C45CDE4FE881F981CC53D140EF5FFF4F9C
:10E8800019F0EE27FF27099420E030E040E050E047
:10E890008091C00087FFE0CF2091C600C35DDE4FAE
:10E8A00048815981CD52D1404F5F5F4FC35DDE4FEC
:10E8B00059834883CD52D140213209F063C64A3092
:10E8C000510508F05FC60894811C911C53E0851621
:10E8D000910409F059C600E010E018C081E280936D
:10E8E000C6008091C00086FFFCCF8091C00080648C
:10E8F0008093C0002F5F3F4F2931310579F70F9486
:10E90000DCF10F5F1F4F0530110519F020E030E0FA
:10E91000E5CF10920A0210920B0210920C02109294
:10E920000D02109206021092070210920802109235
:10E930000902109202021092030210920402109235
:10E9400005028FEE90EE60E00F94F5F180E191EE1C
:10E9500060E00F94C2F18091C00087FFFCCF9091DE
:10E96000C600903608F09F759032B8F09093C600BC
:10E970008091C00086FFFCCF8091C00080648093AE
:10E98000C000A0E2A093C6008091C00086FFFCCF2B
:10E990008091C00080648093C000983409F4D7C18E
:10E9A0009934B8F4923409F459C1933458F490333B
:10E9B00019F1903308F4E3C59F33A1F1903409F0C5
:10E9C000DEC5BDC0953409F470C1963409F0D7C5D1
:10E9D00098C1923509F42BC2933538F49C3409F46C
:10E9E000F5C1913509F0CBC518C2963509F445C279
:10E9F000993509F0C4C567C483E792EE62E00F94CD
:10EA0000F5F110920602109207021092080210927D
:10EA1000090210920A0210920B0210920C0210923C
:10EA20000D0213C18FE792EE62E00F94F5F18FEEC5
:10EA300090EE60E00F94F5F181E291EE60E00F94CA
:10EA4000C2F187EB91EE60E00F94F5F180E391EE77
:10EA500060E00F94C2F184EE90EE60E00F94F5F167
:10EA60008FE391EE60E00F94C2F186E090E061E008
:10EA700070E00F9434F20F94DCF18DE591EE60E0DC
:10EA80000F94C2F189EC91EE60E00F94F5F18EE401
:10EA900091EE60E00F94C2F183EC91EE60E00F9490
:10EAA000F5F18CE691EE60E00F94C2F18EE10F94E7
:10EAB0000DF288E90F940DF281E00F940DF20F949E
:10EAC000DCF18BE791EE60E00F94C2F119E0E0E039
:10EAD000F0E010935700E4918E2F0F940DF20F94F5
:10EAE000DCF18AE891EE60E00F94C2F1E3E0F0E03F
:10EAF00010935700E4918E2F0F940DF20F94DCF1D8
:10EB000089E991EE60E00F94C2F1E2E0F0E0109349
:10EB10005700E4918E2F0F940DF20F94DCF188EAE8
:10EB200091EE60E00F94C2F1E1E0F0E01093570045
:10EB30001491812F0F940DF20F94DCF107CF8BE825
:10EB400092EE62E00F94F5F18BE492EE60E00F94A8
:10EB5000F5F10F94DCF100E010E019C0C8016F2D51
:10EB60000F947FFEFF2031F489E492EE60E00F9471
:10EB7000C2F10BC0F092C6008091C00086FFFCCFAE
:10EB80008091C00080648093C0000F5F1F4FC80158
:10EB900081519F41A0E0B0E0ABBFFC01F790BAE229
:10EBA000FB1621F0E2E000301E07C1F60F94DCF105
:10EBB0000F94DCF187E592EE60E00F94F5F10F948D
:10EBC000DCF1CC24DD2400E010E01EC0C8010F946D
:10EBD00077FEF82E882331F489E492EE60E00F94FA
:10EBE000C2F10BC08093C6008091C00086FFFCCFAD
:10EBF0008091C00080648093C000FE1419F00894D6
:10EC0000C11CD11C0F5F1F4FC80181519F41A0E063
:10EC1000B0E0ABBFFC01E790FAE2EF1621F022E092
:10EC20000030120799F60F94DCF10F94DCF182E6C4
:10EC300092EE60E00F94C2F1C60161E070E00F94C3
:10EC400034F20F94DCF10F94DCF110920202109276
:10EC50000302109204021092050278CE89E992EE26
:10EC600062E00F94F5F1279A2F9A16C02F9880E052
:10EC700090E0E0EDF7E03197F1F7019684369105E9
:10EC8000C1F72F9A80E090E0E0EDF7E03197F1F7DF
:10EC9000019684369105C1F78091C00087FFE6CFC9
:10ECA0008091C00087FFFCCF64C485EA92EE62E0E9
:10ECB0000F94F5F140910202509103026091040219
:10ECC0007091050281E020E10F9491F2809102029F
:10ECD00090910302A0910402B091050280509F4FD1
:10ECE000AF4FBF4F8093020290930302A0930402A0
:10ECF000B093050280509041A040B04008F426CE69
:10ED0000A4CF83EB92EE62E00F94F5F140910602FE
:10ED100050910702609108027091090280E020E1A1
:10ED20000F9491F28091060290910702A09108023F
:10ED3000B091090280509F4FAF4FBF4F80930602A2
:10ED400090930702A0930802B0930902FFCD80ECD4
:10ED500092EE62E00F94F5F183E792EE60E00F949B
:10ED6000F5F18FE792EE60E00F94F5F18BE892EE0B
:10ED700060E00F94F5F189E992EE60E00F94F5F10F
:10ED800085EA92EE60E00F94F5F183EB92EE60E09D
:10ED90000F94F5F180EC92EE60E00F94F5F187ECC2
:10EDA00092EE60E00F94F5F188ED92EE60E00F9442
:10EDB000F5F18FED92EE60E00F94F5F18AEE92EEB0
:10EDC00060E00F94F5F183E093EEBDCD87EC92EE19
:10EDD00062E00F94F5F181E40F947BF282E40F94EA
:10EDE0007BF283E40F947BF284E40F947BF285E45E
:10EDF0000F947BF286E40F947BF287E40F947BF20E
:10EE000088E40F947BF28AE40F947BF28BE40F94F6
:10EE10007BF28CE40F947BF299CD88ED92EE62E068
:10EE20000F94F5F1772473948824992409C48FED05
:10EE300092EE62E00F94F5F140910A0250910B02BC
:10EE400060910C0270910D0282E020E10F9491F22A
:10EE500080910A0290910B02A0910C02B0910D02D8
:10EE600080509F4FAF4FBF4F80930A0290930B0289
:10EE7000A0930C02B0930D0269CD8AEE92EE62E08F
:10EE80000F94F5F184EE90EE60E00F94F5F18FECC5
:10EE900091EE60E00F94F5F1662477244301CC5D98
:10EEA000DE4F19821882C452D140D401C301B695F5
:10EEB000A79597958795CA5DDE4F88839983AA8326
:10EEC000BB83C652D140CC5DDE4FA881B981C4520C
:10EED000D1401196CC5DDE4FB983A883C452D14096
:10EEE000CD0162E070E00F9434F2B0E2B093C6005E
:10EEF0008091C00086FFFCCF8091C0008064809329
:10EF0000C000EDE2E093C6008091C00086FFFCCF18
:10EF10008091C00080648093C000F0E2F093C6004E
:10EF20008091C00086FFFCCF8091C00080648093F8
:10EF3000C000CA5DDE4FE880F9800A811B81C6529D
:10EF4000D140BB27A12F902F8F2D0F940DF2CA5DBA
:10EF5000DE4F8881C652D1400F940DF2B0E2FB2EF5
:10EF6000F092C6008091C00086FFFCCF8091C00067
:10EF700080648093C0000DE30093C6008091C000C0
:10EF800086FFFCCF8091C00080648093C00010E2B7
:10EF90001093C6008091C00086FFFCCF8091C00016
:10EFA00080648093C0008BBEF3012791C65DDE4F65
:10EFB0002883CA52D140A22EBB24CC24DD2408943D
:10EFC000611C711C811C911C8BBEF3018791282E42
:10EFD0003324442455240894611C711C811C911C09
:10EFE0008BBEF3013791C55DDE4F3883CB52D140E4
:10EFF0000894611C711C811C911C8BBEF30147910C
:10F00000C45DDE4F4883CC52D140ADEFEA2EAFEF66
:10F01000FA2EAFEF0A2FAFEF1A2F6E0C7F1C801E57
:10F02000911E142D032DF22CEE24EA0CFB1C0C1D5A
:10F030001D1D0F940DF220E22093C6008091C000A8
:10F0400086FFFCCF8091C00080648093C000C65DC5
:10F05000DE4F8881CA52D1400F940DF230E23093D6
:10F06000C6008091C00086FFFCCF8091C000806404
:10F070008093C000C45DDE4F8881CC52D1400F9494
:10F080000DF240E24093C6008091C00086FFFCCFA5
:10F090008091C00080648093C000C55DDE4F888190
:10F0A000CB52D1400F940DF250E25093C6008091A4
:10F0B000C00086FFFCCF8091C00080648093C000B8
:10F0C0008FEFE8168FEFF80680E0080780E018075A
:10F0D00031F484E092EE60E00F94C2F1DFC0D80119
:10F0E000C7018070907CA070B0708050904CA040A0
:10F0F000B040D1F52FEF3FE340E050E0E222F322B1
:10F1000004231523CA5DDE4FA880B980CA80DB8046
:10F11000C652D140AE0CBF1CC01ED11EAA0CBB1CD7
:10F12000CC1CDD1C8EE092EE60E00F94C2F1BB2798
:10F13000A12F902F8F2D0F940DF28E2D0F940DF285
:10F1400030E23093C6008091C00086FFFCCF8091F2
:10F15000C00080648093C0004EE34093C60080915D
:10F16000C00086FFFCCF87C08EE09EEFA0E0B0E03D
:10F17000E822F9220A231B239CE0E91694E9F90608
:10F1800090E0090790E0190709F088C0C45DDE4FE0
:10F19000A881CC52D140EA2EFF2400E010E0102FCD
:10F1A0000F2DFE2CEE24C55DDE4FB881CB52D14031
:10F1B000EB0EF11C011D111DD601C501817090706F
:10F1C000A070B070DC0199278827E80EF91E0A1F8D
:10F1D0001B1F20EF30E040E050E0A222B322C42207
:10F1E000D52241E1AA0CBB1CCC1CDD1C4A95D1F7F1
:10F1F000EA0CFB1C0C1D1D1D81E090E0A0E0B0E0BE
:10F20000282239224A225B2235E1220C331C441C7D
:10F21000551C3A95D1F7E20CF31C041D151D57013E
:10F220006801AA0CBB1CCC1CDD1C85E192EE60E0E1
:10F230000F94C2F1C801AA27BB270F940DF2BB2778
:10F24000A12F902F8F2D0F940DF28E2D0F940DF274
:10F2500090E29093C6008091C00086FFFCCF809121
:10F26000C00080648093C000AEE3A093C60080918C
:10F27000C00086FFFCCF8091C00080648093C000F6
:10F28000C601AA27BB270F940DF2BB27AD2D9C2DDD
:10F290008B2D0F940DF28A2D0F940DF20F94DCF14B
:10F2A000CC5DDE4FE881F981C452D140F99709F471
:10F2B0004DCBF4E0EF2EF12C012D112D6E0C7F1CA7
:10F2C000801E911EF2CD83E093EE62E00F94F5F183
:10F2D0008AE192EE60E00F94C2F18091C00087FF56
:10F2E000FCCF1091C6001F751093C6008091C0001E
:10F2F00086FFFCCF8091C00080648093C0000F9493
:10F30000DCF1812F81548A3108F036C1163409F4BA
:10F3100095C0173490F4133409F44EC0143430F40B
:10F320001134F1F0123409F01DC130C0143409F465
:10F3300059C0153409F016C16BC01A3409F4C4C0A1
:10F340001B3438F4173409F48FC0183409F00AC19B
:10F35000A1C01B3409F4D2C01C3409F003C1E8C0B9
:10F360008FEF81B90DC082B1809582B980E090E0C5
:10F37000E0EDF7E03197F1F70196883C9105C1F790
:10F380008091C00087FFEFCF12B8EFC08FEF84B934
:10F390000DC085B1809585B980E090E0E0EDF7E0A3
:10F3A0003197F1F70196883C9105C1F78091C00033
:10F3B00087FFEFCF15B8D9C08FEF87B90DC088B1DF
:10F3C000809588B980E090E0E0EDF7E03197F1F7C3
:10F3D0000196883C9105C1F78091C00087FFEFCF6F
:10F3E00018B8C3C08FEF8AB90DC08BB180958BB9A7
:10F3F00080E090E0E0EDF7E03197F1F70196883C8E
