:100000000C94EB000C9413010C9413010C94130149
:100010000C9413010C9413010C9413010C94130110
:100020000C9413010C9413010C9413010C94130100
:100030000C9413010C9413010C9413010C941301F0
:100040000C94BD060C9413010C9413010C94130131
:100050000C9413010C9413010C9413010C941301D0
:100060000C9407070C94130100407A10F35A00A077
:10007000724E18090010A5D4E80000E87648170071
:1000800000E40B54020000CA9A3B000000E1F505B1
:10009000000080969800000040420F000000A086FB
:1000A00001000000102700000000E803000000002D
:1000B0006400000000000A000000000001000000D1
:1000C00000002C76D888DC674F0823DFC1DFAE59EB
:1000D000E1B1B796E5E3E453C63AE651997696E87E
:1000E000E6C28426EB898C9B62ED407C6FFCEFBC02
:1000F0009C9F40F2BAA56FA5F490055A2AF75C932D
:100100006B6CF9676DC11BFCE0E40D47FEF520E662
:10011000B500D0ED902E0300943577050080841E45
:10012000080000204E0A000000C80C333333330FA0
:10013000986E12831141EF8D2114893BE65516CF3D
:10014000FEE6DB18D1844B381BF77C1D901DA4BB49
:10015000E424203284725E228100C9F124ECA1E5FE
:100160003D2700000000240027002A0000000000B6
:10017000250028002B0000000008000201000003F9
:10018000040700000000000000004B61637065720E
:10019000204D0054656D70426F7820762E312062BC
:1001A0007900000000002300260029000404040454
:1001B0000404040402020202020203030303030311
:1001C00001020408102040800102040810200102EE
:1001D00004081020350811241FBECFEFD8E0DEBF81
:1001E000CDBF22E0ACE6B1E001C01D92A337B2075B
:1001F000E1F711E0A0E0B1E0E2EBF2E202C005902D
:100200000D92AC36B107D9F710E0CBEED0E004C0C8
:100210002197FE010E94550FCA3ED107C9F70E94DF
:1002200060080C9457110C940000DC0115966C9337
:10023000159716964C93169770E0FB01E054FE4F0D
:10024000E4911796EC931797FB01E455FE4F6491E8
:1002500018966C93189740E85EE360E070E01D9696
:100260004D935D936D937C93509708958F929F92D9
:10027000AF92BF92CF92DF92EF92FF92CF93DC01C9
:100280001796CC911797662311F09C2F01C090E030
:1002900018962C91189730E0220F331F2E553E4FA1
:1002A00040E050E0BA01F901E590F490F701808157
:1002B0008C2389131AC04A015B01FFEF8F1A9F0A32
:1002C000AF0ABF0A1D96CD90DD90ED90FC9050973F
:1002D0004C155D056E057F0518F4B501A401E3CF4B
:1002E00030E020E080E090E003C0342F252FCB01E8
:1002F000632F722FCF91FF90EF90DF90CF90BF9040
:10030000AF909F908F900895CF92DF92EF92FF92DF
:100310000F931F93CF93DF936C017A018B01C0E0A1
:10032000D0E0CE15DF0581F0D8016D918D01D601A9
:10033000ED91FC910190F081E02DC6010995892B8A
:1003400011F02196EECF7E01C701DF91CF911F9171
:100350000F91FF90EF90DF90CF900895FC014481C2
:1003600055816081718183E692E00C948401089547
:10037000089590E0FC01EA58FE4F2491FC01E054FE
:10038000FE4F3491FC01E455FE4FE491EE2309F455
:100390003CC0222339F1233091F038F42130A9F008
:1003A000223001F584B58F7D12C0273091F02830BE
:1003B000A1F02430B9F4809180008F7D03C080913A
:1003C00080008F77809380000DC084B58F7784BDC7
:1003D00009C08091B0008F7703C08091B0008F7DFD
:1003E0008093B000F0E0EE0FFF1FE459FE4FA5919F
:1003F000B4919FB7F894611104C08C913095382363
:1004000002C0EC913E2B3C939FBF0895CF93DF93A6
:1004100090E0FC01E054FE4F2491FC01E455FE4FB6
:100420008491882361F190E0880F991FFC01EE59B7
:10043000FE4FC591D491FC01E459FE4FA591B491B2
:10044000611109C09FB7F894888120958223888321
:10045000EC912E230BC0623061F49FB7F894888131
:10046000322F309583238883EC912E2B2C939FBFC2
:1004700006C08FB7F894E8812E2B28838FBFDF91B9
:10048000CF9108953FB7F89480911602909117028A
:10049000A0911802B091190226B5A89B05C02F3F64
:1004A00019F00196A11DB11D3FBFBA2FA92F982F9A
:1004B0008827820F911DA11DB11DBC01CD0142E015
:1004C000660F771F881F991F4A95D1F708958F925D
:1004D0009F92AF92BF92CF92DF92EF92FF926B0109
:1004E0007C010E9442024B015C01C114D104E10471
:1004F000F104F1F00E944202DC01CB018819990954
:10050000AA09BB09883E9340A105B10570F321E01B
:10051000C21AD108E108F10888EE880E83E0981E1F
:10052000A11CB11CC114D104E104F10419F7DDCF01
:10053000FF90EF90DF90CF90BF90AF909F908F9003
:1005400008958F929F92AF92BF92CF92DF92EF92D7
:10055000FF920F931F93CF93DF93CDB7DEB7C054B5
:10056000D1400FB6F894DEBF0FBECDBF2FB7F894C1
:1005700040912F025091300260913102709132020D
:100580002FBFFC0101851285238534856A017B011B
:10059000C01AD10AE20AF30AE0EDCE16E7E0DE0661
:1005A000E104F10418F4FC018189B4C08C01FC0160
:1005B0004187528763877487148213821282118263
:1005C000108261E085810E94B9016AEF70E080E0ED
:1005D00090E00E94670261E0F80185810E940602B6
:1005E00060E0F80185810E94B90164E170E080E07B
:1005F00090E00E946702F89461E0F80185810E9412
:10060000B9018BE990E00197F1F762E0F80185818B
:100610000E94060283E290E00197F1F760E0C801D2
:100620000E943601672B682B692B21F4F801118A8F
:10063000789441C061E0C8010E943601672B682BA5
:10064000692BA1F3CE0101967C015E019FEBA91AF3
:100650009EEFB90A670160E0C8010E943601F60109
:10066000608371838283938361E0C8010E943601B5
:10067000F6016483758386839783F8E0CF0ED11CDF
:10068000CA14DB0441F7789420E030E0F701808061
:100690009180A280B38044815581668177818114E5
:1006A0009104A104B10429F04115510561057105BA
:1006B00021F4F801118A80E02DC0F90183E0F5955D
:1006C000E7958A95E1F7E00FF11F8081880F841686
:1006D0009506A606B70608F4816080832F5F3F4F1A
:1006E000F8E0EF0EF11C2832310581F6F801248183
:1006F00030E04081818190E0840F911D4281840F20
:10070000911D4381840F911D99272817390789F678
:1007100081E0818BC05CDE4F0FB6F894DEBF0FBE68
:10072000CDBFDF91CF911F910F91FF90EF90DF90A0
:10073000CF90BF90AF909F908F900895CF92DF920F
:10074000EF92FF921F93CF93DF93EC010E94A102DF
:10075000882399F18E818B3029F078F18551823090
:1007600040F02BC06A8170E080E090E00E94800D34
:1007700028C01A81612F6F7770E080E090E00E94BE
:10078000820D20E030E040E853E40E94BD0D6B0193
:100790007C016B8170E080E090E00E94820DA701F7
:1007A00096010E94B30E2DEC3CEC4CEC5DE30E94F4
:1007B000BD0D17FF06C0905804C060E070E080ECEB
:1007C0009FE7DF91CF911F91FF90EF90DF90CF9047
:1007D0000895CF92DF92EF92FF92CF93DF93EC01D7
:1007E0000E94A102882369F18E818B3019F148F1B2
:1007F0008551823030F5688170E080E090E00E94A1
:10080000800D20E030E040E853E40E94BD0D6B0114
:100810007C01698170E080E090E00E94820DA70178
:1008200096010E94B30E2DEC3CEC4CEC5DE30E9473
:10083000BD0D0BC0688170E080E090E00E94800DEB
:1008400004C060E070E080EC9FE7DF91CF91FF9003
:10085000EF90DF90CF90089585ED8093BC0080915C
:10086000BC0084FDFCCF1092200208954091AC01A1
:10087000262F30E0240F311D21323105DCF4209188
:1008800020022430C9F4FC0180E090E0861758F47F
:100890003091AC012191DC01A457BE4FA30FB11DD3
:1008A0002C930196F3CF8091AC01680F6093AC015B
:1008B00080E0089581E0089582E008950895E09130
:1008C000240280912302E81730F4F0E0E459FE4F4F
:1008D000808190E008958FEF9FEF0895909124021A
:1008E00080912302981750F4E92FF0E0E459FE4F6D
:1008F000208130E09F5F9093240202C02FEF3FEFF2
:10090000C90108958091230290E020912402821B66
:1009100091090895CF92DF92EF92FF920F931F9368
:10092000CF93DF937C01CB018A012091F301222335
:1009300089F0EB016B01C40ED51ECC15DD0569F005
:100940006991D701ED91FC910190F081E02DC701F3
:100950000995F3CF642F0E943604C801DF91CF912F
:100960001F910F91FF90EF90DF90CF900895CF935C
:10097000DF931F92CDB7DEB769832091F301222365
:10098000D1F020912102203240F021E030E0FC0142
:100990003383228380E090E015C080912202E82F0B
:1009A000F0E0EC50FE4F998190838F5F809322029C
:1009B0008093210205C061E0CE0101960E943604B9
:1009C00081E090E00F90DF91CF910895CF93FC01EB
:1009D000C48121E02093F301C093140210922202FB
:1009E000109221028385682B83E392E00E94B70472
:1009F00090912102913208F045C08091200281112E
:100A0000FCCF82E08093200281E080931F028FEF71
:100A10008093F2011092F1019093F001A4EFB1E004
:100A2000E0EDF1E080E0981721F02D9121938F5FA8
:100A3000FACF1092CF018091CF01CC0FC82BC09379
:100A4000CF0180911E02813061F410921E028091CC
:100A5000CF018093BB008091BC0083FDF8CF85EC73
:100A600001C085EE8093BC00809120028230E1F3CA
:100A70008091F2018F3F31F08091F201803211F0CC
:100A80008091F20110922202109221021092F30141
:100A9000CF9108950F931F93CF938C01C62F0E947F
:100AA000E6046C2F6460C8010E94E6046C2F6B7F23
:100AB000C8010E94E60483EC90E00197F1F7CF9122
:100AC0001F910F9108950F931F93CF93DF938C0184
:100AD000C62FD42F607F642B0E944A0580E1C89FF7
:100AE000B00111246D2BC801DF91CF911F910F919F
:100AF0000C944A0541E00E94630581E090E008956E
:100B00000F931F93CF93DF938C01C0E0D0E0F801E7
:100B1000EC0FFD1F6491662339F041E083E692E01B
:100B20000E9463052196F3CFCE01DF91CF911F91F3
:100B30000F910895CF93DF93CDB7DEB728970FB607
:100B4000F894DEBF0FBECDBF98E0EEE0F1E0DE012D
:100B5000119601900D929A95E1F790916B0296177C
:100B600010F46FEF690FFE013196E60FF11DE60FED
:100B7000F11D6081680F606840E083E692E028968E
:100B80000FB6F894DEBF0FBECDBFDF91CF910C94AE
:100B900063050F931F93CF93DF9340E060E483E6F8
:100BA00092E00E946305C0E0D1E008E011E06991A5
:100BB00083E692E00E947A050C171D07C1F7DF91CA
:100BC000CF911F910F910895089580E090E00895CE
:100BD000CF93DF93EC0162E08D810E94060280E3F7
:100BE00098EFAFEFBFEF89879A87AB87BC87DF911C
:100BF000CF910895009769F0FC0101900020E9F77A
:100C00003197AF01481B590BBC0183E692E00C946D
:100C1000840180E090E008950F931F93CF93DF93BA
:100C2000EC0188819981009729F02A813B81261760
:100C3000370788F48B016F5F7F4F0E947C1000970D
:100C400061F0998388831B830A832C813D81232B48
:100C500011F4FC01108281E001C080E0DF91CF91AE
:100C60001F910F910895CF93DF93EC0188819981B3
:100C7000009711F00E94F30F198218821D821C82C6
:100C80001B821A82DF91CF910895CF92DF92EF926B
:100C9000FF920F931F93CF93DF93CDB7DEB7629789
:100CA0000FB6F894DEBF0FBECDBF8C01CB01F801AB
:100CB0001182108213821282158214824AE09E01F0
:100CC0002F5F3F4F6901B9010E94190BF601019096
:100CD0000020E9F731977F01EC18FD08B701C80142
:100CE0000E940C06811104C0C8010E94330608C08E
:100CF000F801F582E482B601808191810E94501151
:100D000062960FB6F894DEBF0FBECDBFDF91CF91D4
:100D10001F910F91FF90EF90DF90CF900895EF9289
:100D2000FF920F931F93CF93DF938C017B0161158B
:100D3000710569F0FB0101900020E9F73197EF019F
:100D4000C61BD70BBE010E940C06811104C0C8014E
:100D50000E94330608C0F801D583C483B70180819F
:100D600091810E945011C801DF91CF911F910F9185
:100D7000FF90EF9008950E9442111F920F920FB6BC
:100D80000F9211242F933F938F939F93AF93BF9311
:100D900080912F0290913002A0913102B0913202E5
:100DA0003091150223E0230F2D3720F40196A11D69
:100DB000B11D05C026E8230F0296A11DB11D209389
:100DC000150280932F0290933002A0933102B093CA
:100DD00032028091160290911702A0911802B091F0
:100DE00019020196A11DB11D80931602909317025E
:100DF000A0931802B0931902BF91AF919F918F9168
:100E00003F912F910F900FBE0F901F9018951F923A
:100E10000F920FB60F9211242F933F934F935F932E
:100E20006F937F938F939F93AF93BF93EF93FF93B2
:100E30008091B900887F803609F49CC068F58832BB
:100E400009F45BC090F4803109F454C038F488236D
:100E500009F4F6C0883009F44DC0F6C0883109F4B1
:100E60004CC0803209F45DC0EFC0803409F468C022
:100E700048F4803309F455C0883309F0E5C0809305
:100E8000F201D8C0803509F44FC0883509F45DC03F
:100E9000883409F0D9C0D6C0883909F4C7C0A8F48D
:100EA000883709F467C038F4883609F463C080379E
:100EB00009F460C0C9C0883809F4B8C0803909F4A1
:100EC0005FC0803809F0C0C05BC0803B09F486C0B9
:100ED00038F4803A09F466C0883A09F47FC0B4C097
:100EE000803C09F4A7C0883C09F4A4C0883B09F4FD
:100EF0008AC0AAC08091CF0110C09091F101809169
:100F0000F001981770F5E091F10181E08E0F809368
:100F1000F101F0E0E053FE4F80818093BB0085EC4F
:100F200086C08093F2018EC0E091F10181E08E0FC6
:100F30008093F1018091BB00F0E0E053FE4F80838D
:100F40009091F1018091F0016EC0E091F10181E09A
:100F50008E0F8093F1018091BB00F0E0E053FE4FD3
:100F6000808380911F0281116DC081E080931E02F9
:100F700084EA61C083E0809320021092CE01CFCF3B
:100F80008091CE01803208F051C0E091CE0181E025
:100F90008E0F8093CE018091BB00F0E0E255FE4FB2
:100FA0008083BDCF85EC8093BC001092200280919D
:100FB000CE01803230F4E091CE01F0E0E255FE4FF8
:100FC00010826091CE0170E0E0911A02F0911B0254
:100FD0008EEA91E009951092CE0136C084E08093AC
:100FE00020021092AD011092AC01E0911C02F09130
:100FF0001D0209958091AC01811105C081E08093AB
:10100000AC0110928C01E091AD0181E08E0F8093D4
:10101000AD01F0E0E457FE4F80818093BB009091DA
:10102000AD018091AC01981708F479CF85E88093E1
:10103000BC000AC085EC8093BC001092200204C062
:101040001092F2010E942C04FF91EF91BF91AF9199
:101050009F918F917F916F915F914F913F912F91D0
:101060000F900FBE0F901F901895E3E3F2E01382EC
:10107000128288EE93E0A0E0B0E084839583A6839B
:10108000B7838AE191E091838083E3E6F2E0138203
:1010900012828CE291E09183808387E2848380E1F5
:1010A000818782E08287138646E163E081E592E0F2
:1010B0000E9415014BE064E08FE392E00C9415016F
:1010C000CF93DF93CDB7DEB7CF55D1090FB6F894E4
:1010D000DEBF0FBECDBF789484B5826084BD84B579
:1010E000816084BD85B5826085BD85B5816085BD23
:1010F00080916E00816080936E00109281008091DB
:101100008100826080938100809181008160809362
:101110008100809180008160809380008091B10087
:1011200084608093B1008091B00081608093B000B2
:1011300080917A00846080937A0080917A00826046
:1011400080937A0080917A00816080937A00809108
:101150007A00806880937A001092C1001092240275
:101160001092230210922202109221021092200269
:1011700081E080931F0210921E0261E082E10E94D2
:10118000B90161E083E10E94B9018091B9008E7FCD
:101190008093B9008091B9008D7F8093B90088E475
:1011A0008093B80085E48093BC0087EB91E0909336
:1011B0001D0280931C0288EB91E090931B028093A8
:1011C0001A021092680280916D02823018F098E045
:1011D0009093680280936B0262E370E080E090E09D
:1011E0000E94670260916E0283E692E00E94E6042C
:1011F00068EE73E080E090E00E94670260E383E6BF
:1012000092E00E944A050BE416E4C8010197F1F749
:1012100060E383E692E00E944A05C8010197F1F776
:1012200060E383E692E00E944A0583E592E001973D
:10123000F1F760E283E692E00E944A05609168025D
:10124000606240E083E692E00E94630584E0809360
:10125000690240E06CE083E692E00E94630540E0B2
:1012600061E083E692E00E9463050BE31FE1C801A1
:101270000197F1F782E080936A0240E066E083E63E
:1012800092E00E94630540E062E083E692E00E9403
:101290006305C8010197F1F788E080936E0260E072
:1012A00083E692E00E94E60460E080E00E949A05F6
:1012B00083E991E00E94800560ED77E080E090E0B6
:1012C0000E94670261E080E00E949A058AE891E04E
:1012D0000E94800560ED77E080E090E00E94670268
:1012E00040E061E083E692E00E946305C801019757
:1012F000F1F781E592E00E94E8058FE392E00E9419
:10130000E80580E0282E80E0382E2FB7F8948091F1
:101310002F0290913002A0913102B09132022FBF82
:101320002FB7F894C0902F02D0903002E090310295
:10133000F09032022FBF40912B0250912C0260910D
:101340002D0270912E028C019D01041B150B260BA2
:10135000370BB901A8014C3D55406105710508F4F2
:1013600041C180932B0290932C02A0932D02B09345
:101370002E0246E163E0CE01C4960E9415014BE0C7
:1013800064E0CE0182960E941501CE01C4960E94AF
:10139000E805CE0182960E94E805CE01C4960E941F
:1013A000E9032B013C01CE01C4960E949E034B0130
:1013B0005C01CE0182960E94E9036C966CAF7DAF12
:1013C0008EAF9FAF6C97CE0182960E949E03A0962F
:1013D0006CAF7DAF8EAF9FAFA09764961FAE1EAE71
:1013E000649766961FAE1EAE669768961FAE1EAED9
:1013F00068978E010F5F1F4F22E044E0C301B201E6
:101400000E94F90ABC01CE018E5A9F4F0E948F069E
:101410002E961FAE1EAE2E9760961FAE1EAE609724
:1014200062961FAE1EAE629720E030E040E85FE3B8
:10143000C501B4010E94B20E22E044E00E94F90A04
:10144000BC01CE01845B9F4F0E948F066C966CADF1
:101450007DAD8EAD9FAD6C970E941F0FCE018A5B54
:101460009F4F0E94450620E030E040E85FE3A096F1
:101470006CAD7DAD8EAD9FADA0970E94B20E0E9467
:101480001F0FC8010E9445068091270290912802F3
:10149000A0912902B0912A02A7019601281B390BBD
:1014A0004A0B5B0BDA01C90180379741A105B105F1
:1014B000B0F0C0922702D0922802E0922902F09266
:1014C0002A0281E090E02091250230912602232B10
:1014D00011F080E090E090932602809325028091A5
:1014E000250290912602892B89F50E94C90560E0AA
:1014F00080E00E949A0584E391E00E94FA0561E091
:1015000080E00E949A05CE01845B9F4F0E94AE014D
:1015100060E083E692E00E947A0585E491E00E9413
:10152000FA0561E088E00E949A058DE491E00E944E
:10153000FA0561E08AE00E949A05CE018E5A9F4F1B
:101540000E94AE0188E491E00E94FA058091250294
:1015500090912602019781F50E94C90560E080E024
:101560000E949A0580E591E00E94FA0561E080E022
:101570000E949A05CE0101960E94AE0160E083E6CA
:1015800092E00E947A0581E691E00E94FA0561E00E
:1015900088E00E949A058DE491E00E94FA0561E0DE
:1015A0008AE00E949A05CE018A5B9F4F0E94AE019D
:1015B00086E691E00E94FA0589819A810E94F30FE4
:1015C00028968EAD9FAD28970E94F30F2E968EAD74
:1015D0009FAD2E970E94F30F64968EAD9FAD6497DA
:1015E0000E94F30F2114310409F48FCE0E940000F1
:1015F00088CEEF920F931F93CF93DF93E80147FDBF
:1016000002C034E001C034E1042E000C550B57FF3A
:1016100003C0519541955109E32E022F242FAE01AD
:101620000E943E0BCE01DF91CF911F910F91EF9061
:101630000895BB274A3031F4992322F4BDE29095F6
:1016400081959F4F0C94250BBB27FB015527AA279B
:10165000880F991FAA1FA41710F0A41B839550513F
:10166000B9F7A05DAA3308F0A95DA193009779F7B7
:10167000B111B1931192CB010C94700DA9E0B0E0BF
:10168000E4E4FBE00C94810E6A01122FB02E2BE3F0
:10169000201720F0FF24F394F00E02C02CE3F22E6A
:1016A0000F2D27E0AE014F5F5F4F0E94980CBC01E9
:1016B0004981842F8970813031F0E1FC06C0E0FE61
:1016C00006C090E205C09DE203C09BE201C090E02D
:1016D0005E2D507143FF3CC0911102C083E001C0F8
:1016E00084E0811718F4212F281B01C020E051113C
:1016F0000BC0F601822F30E2882319F0319381501C
:10170000FBCFC20ED11C20E0992329F0D6019C9377
:10171000F60131966F01C6010396E2FE0AC03EE46F
:10172000D6013C9341E411964C93119712963C9349
:1017300006C03EE6F601308341E641833283FC0178
:10174000322F40E2332309F442C041933150FACFA3
:1017500042FF44C0911102C083E001C084E08117C0
:1017600018F4212F281B01C020E051110BC0F601F5
:10177000822F30E2882319F031938150FBCFC20EC3
:10178000D11C20E0992329F0D6019C93F6013196D3
:101790006F01C6010396E2FE0BC039E4D6013C930B
:1017A0003EE411963C93119736E412963C9307C0A1
:1017B00039E6F60130833EE6318336E63283FC01BA
:1017C000322F40E2332319F041933150FBCFFC011B
:1017D000E20FF11D10828EEF9FEFA6C021E030E0F6
:1017E000911102C020E030E0161617061CF4FB0130
:1017F000319602C0E1E0F0E02E0F3F1FBB2021F048
:10180000EB2DF0E0319602C0E0E0F0E02E0F3F1F3C
:10181000E12FF0E02E173F071CF4121B212F01C00F
:1018200020E08E2D887159F4F601822F30E2882352
:1018300019F031938150FBCFC20ED11C20E09923C7
:1018400029F0D6019C93F60131966F0151110BC01E
:10185000F601822F90E3882319F091938150FBCFFA
:10186000C20ED11C20E00F2D060F9A81342F30714B
:1018700044FF03C0913309F40150101624F40930D9
:1018800018F008E001C001E0AB0177FF02C040E0C2
:1018900050E0FB01E41BF50BA1E0B0E0AC0FBD1F75
:1018A000EA0FFB1F8EE2A82E4B01801A91080B2D28
:1018B00010E01195019511094F3FBFEF5B0721F42F
:1018C000D601AC9211966D01641775072CF0841641
:1018D000950614F4818101C080E34150510931968D
:1018E000D60111967D014017510724F0D6018C9343
:1018F0006701E2CF6417750739F4963320F4953306
:1019000019F4311101C081E3F6018083F701822FC0
:1019100090E2882319F091938150FBCFF701E20FF9
:10192000F11D108280E090E02996ECE00C949D0E71
:10193000283008F027E03327DA01990F311D87FDA1
:10194000916000966105710539F432602E5F3D9318
:1019500030E32A95E1F708959F3F30F08038710514
:10196000610509F03C5F3C5F3D93913008F0806871
:10197000911DDF93CF931F930F93FF92EF92192F37
:10198000987F9695E92F96959695E90FFF27EE5348
:10199000FF4F99273327EE24FF24A701E701059085
:1019A0000894079428F4360FE71EF81E491F511DAE
:1019B000660F771F881F991F0694A1F7059007945B
:1019C00028F4E70EF81E491F561FC11D770F881F08
:1019D000991F661F0694A1F70590079428F4F80E46
:1019E000491F561FC71FD11D880F991F661F771FDC
:1019F0000694A1F70590079420F4490F561FC71FBE
:101A0000D81F990F661F771F881F0694A9F7849126
:101A10001095177041F0D695C79557954795F7944F
:101A2000E7941A95C1F7E8E6F0E0689415901591EF
:101A300035916591959105907FE27395E118F10AD2
:101A4000430B560BC90BD009C0F7E10CF11E431F25
:101A5000561FC91FD01D7EF4703311F48A95E6CF4E
:101A6000E894015030F0080F0AF40027021708F438
:101A7000202F2395022F7A3328F079E37D932A953E
:101A8000E9F710C07D932A9589F606949795679596
:101A9000379517951794E118F10A430B560BC90BAC
:101AA000D00998F023957E9173957A3308F070E30E
:101AB0007C932013B8F77E9170617D9330F083950D
:101AC00071E37D9370E32A95E1F71124EF90FF9085
:101AD0000F911F91CF91DF91992787FD90950895E0
:101AE000DC01FC01672F71917723E1F7329704C085
:101AF0007C916D9370836291AE17BF07C8F3089510
:101B0000E89409C097FB3EF4909580957095619597
:101B10007F4F8F4F9F4F9923A9F0F92F96E9BB274D
:101B20009395F695879577956795B795F111F8CFC9
:101B3000FAF4BB0F11F460FF1BC06F5F7F4F8F4F34
:101B40009F4F16C0882311F096E911C0772321F02A
:101B50009EE8872F762F05C0662371F096E8862FC2
:101B600070E060E02AF09A95660F771F881FDAF719
:101B7000880F9695879597F908950E94D00D0C943B
:101B8000410E0E94330E38F00E943A0E20F0952349
:101B900011F00C942A0E0C94300E11240C94750E36
:101BA0000E94520E70F3959FC1F3950F50E0551FA0
:101BB000629FF001729FBB27F00DB11D639FAA27A2
:101BC000F00DB11DAA1F649F6627B00DA11D661FF1
:101BD000829F2227B00DA11D621F739FB00DA11D12
:101BE000621F839FA00D611D221F749F3327A00DCC
:101BF000611D231F849F600D211D822F762F6A2F68
:101C000011249F5750409AF0F1F088234AF0EE0FCC
:101C1000FF1FBB1F661F771F881F91505040A9F7F9
:101C20009E3F510580F00C942A0E0C94750E5F3F78
:101C3000E4F3983ED4F3869577956795B795F79535
:101C4000E7959F5FC1F7FE2B880F911D96958795AD
:101C500097F9089597F99F6780E870E060E008952C
:101C60009FEF80EC089500240A94161617061806B4
:101C70000906089500240A94121613061406050690
:101C80000895092E0394000C11F4882352F0BB0F21
:101C900040F4BF2B11F460FF04C06F5F7F4F8F4F84
:101CA0009F4F089557FD9058440F551F59F05F3FBF
:101CB00071F04795880F97FB991F61F09F3F79F06E
:101CC00087950895121613061406551FF2CF4695F0
:101CD000F1DF08C0161617061806991FF1CF869572
:101CE0007105610508940895E894BB276627772756
:101CF000CB0197F908952F923F924F925F926F9286
:101D00007F928F929F92AF92BF92CF92DF92EF928B
:101D1000FF920F931F93CF93DF93CDB7DEB7CA1B0C
:101D2000DB0B0FB6F894DEBF0FBECDBF09942A8837
:101D3000398848885F846E847D848C849B84AA84DF
:101D4000B984C884DF80EE80FD800C811B81AA816C
:101D5000B981CE0FD11D0FB6F894DEBF0FBECDBF37
:101D6000ED0108955058BB27AA270E94CA0E0C9473
:101D7000410E0E94330E38F00E943A0E20F039F4E2
:101D80009F3F19F426F40C94300E0EF4E095E7FB17
:101D90000C942A0EE92F0E94520E58F3BA176207CC
:101DA00073078407950720F079F4A6F50C94740E58
:101DB0000EF4E0950B2EBA2FA02D0B01B901900166
:101DC0000C01CA01A0011124FF27591B99F0593FAA
:101DD00050F4503E68F11A16F040A22F232F342FF2
:101DE0004427585FF3CF469537952795A795F04040
:101DF0005395C9F77EF41F16BA0B620B730B840B55
:101E0000BAF09150A1F0FF0FBB1F661F771F881F0C
:101E1000C2F70EC0BA0F621F731F841F48F4879564
:101E200077956795B795F7959E3F08F0B0CF939556
:101E3000880F08F09927EE0F9795879508950E94CF
:101E4000260F6894B1110C94750E08950E945A0ED5
:101E500088F09F5798F0B92F9927B751B0F0E1F06B
:101E6000660F771F881F991F1AF0BA95C9F714C01B
:101E7000B13091F00E94740EB1E008950C94740E8C
:101E8000672F782F8827B85F39F0B93FCCF3869554
:101E900077956795B395D9F73EF4909580957095B1
:101EA00061957F4F8F4F9F4F0895EE0FFF1F059055
:101EB000F491E02D09940F931F93CF93DF93823019
:101EC000910510F482E090E0E0917102F0917202CD
:101ED00020E030E0A0E0B0E0309719F1408151817E
:101EE0000281138148175907C8F08417950769F4D0
:101EF000109731F012960C93129713961C9327C0EB
:101F0000009371021093720222C02115310519F05D
:101F10004217530718F49A01BD01EF01DF01F801E0
:101F2000DBCF21153105F9F0281B390B24303105A1
:101F300080F48A819B816115710521F0FB019383F7
:101F4000828304C09093720280937102FE013296E4
:101F500044C0FE01E20FF31F819391932250310997
:101F6000398328833AC020916F0230917002232B6D
:101F700041F420910A0130910B01309370022093BB
:101F80006F0220910801309109012115310541F4BA
:101F90002DB73EB740910C0150910D01241B350B1C
:101FA000E0916F02F0917002E217F307A0F42E1B8C
:101FB0003F0B2817390778F0AC014E5F5F4F2417AD
:101FC000350748F04E0F5F1F5093700240936F0229
:101FD0008193919302C0E0E0F0E0CF01DF91CF91D7
:101FE0001F910F910895CF93DF93009709F481C05B
:101FF000FC01329713821282A0917102B091720299
:10200000109781F420813181820F931F20916F02FC
:10201000309170022817390751F5F0937002E09360
:102020006F0267C0ED0120E030E0CE17DF0740F41B
:102030004A815B819E0141155105F1F0EA01F5CF1E
:10204000D383C28340815181840F951FC817D9075C
:1020500059F488819981840F951F0296918380831A
:102060008A819B81938382832115310529F4F09322
:102070007202E09371023DC0E901FB83EA8349915A
:102080005991C40FD51FEC17FD0761F48081918130
:10209000840F951F0296E901998388838281938139
:1020A0009B838A83E0E0F0E012968D919C911397D8
:1020B000009719F0FD01DC01F7CF8D919C911197EC
:1020C0009D012E5F3F4F820F931F20916F02309131
:1020D00070022817390769F4309729F410927202B8
:1020E0001092710202C013821282B0937002A09308
:1020F0006F02DF91CF910895A0E0B0E0E2E8F0E157
:102100000C947F0EEC01009721F4CB010E945B0F31
:10211000B4C0FC01E60FF71F9C0122503109E21701
:10212000F30708F4A8C0D9010D911C911197061767
:102130001707B0F00530110508F49BC0C8010497DB
:102140008617970708F495C002501109061B170B54
:10215000019311936D937C93CF010E94F30F89C07B
:102160005B01A01AB10A4C01800E911EA091710270
:10217000B0917202612C712CE12CF12C109709F4B2
:1021800046C08D919C911197A815B905B1F56C01C8
:1021900042E0C40ED11CCA14DB0478F14C018A1849
:1021A0009B08640142E0C40ED11C1296BC901297A9
:1021B0001396AC91B5E0CB16D10440F0B282A38364
:1021C00091828082D9016D937C9309C00E5F1F4F6D
:1021D000800F911FF90191838083EB2DFA2FE11479
:1021E000F10431F0D7011396FC93EE93129741C09E
:1021F000F0937202E09371023CC06816790608F40D
:102200003C017D0112960D90BC91A02DB7CF80911D
:102210006F029091700288169906E1F466167706AF
:10222000C8F48091080190910901009741F48DB79D
:102230009EB740910C0150910D01841B950BE8173E
:10224000F907C8F4F0937002E0936F02F90171830B
:1022500060830FC0CB010E945B0F7C01009759F097
:10226000A801BE010E944711CE010E94F30FC701D1
:1022700004C0CE0102C080E090E0CDB7DEB7EEE052
:102280000C949B0E81E090E0F8940C945711FB01A4
:10229000DC0102C001900D9241505040D8F70895E2
:1022A000FB01DC0101900D920020E1F70895F89404
:0222B000FFCF5E
:1022B2000705070000000000000073028000000014
:1022C20040001400540000000000B7048A04E50531
:1022D2005E0482046E045F04000000007A0584013B
:1022E200E505E40554656D703A204F555420487554
:1022F2006D693A2000432000252020202020200064
:1023020054656D703A20494E202048756D693A2017
:0C23120000432020200025202020200077
:107E0000112484B714BE81FFF0D085E080938100F7
:107E100082E08093C00088E18093C10086E0809377
:107E2000C20080E18093C4008EE0C9D0259A86E02C
:107E300020E33CEF91E0309385002093840096BBD3
:107E4000B09BFECF1D9AA8958150A9F7CC24DD24C4
:107E500088248394B5E0AB2EA1E19A2EF3E0BF2EE7
:107E6000A2D0813461F49FD0082FAFD0023811F036
:107E7000013811F484E001C083E08DD089C08234E0
:107E800011F484E103C0853419F485E0A6D080C0E4
:107E9000853579F488D0E82EFF2485D0082F10E0AE
:107EA000102F00270E291F29000F111F8ED06801E7
:107EB0006FC0863521F484E090D080E0DECF843638
:107EC00009F040C070D06FD0082F6DD080E0C81688
:107ED00080E7D80618F4F601B7BEE895C0E0D1E017
:107EE00062D089930C17E1F7F0E0CF16F0E7DF06D8
:107EF00018F0F601B7BEE89568D007B600FCFDCFD4
:107F0000A601A0E0B1E02C9130E011968C91119780
:107F100090E0982F8827822B932B1296FA010C0160
:107F200087BEE89511244E5F5F4FF1E0A038BF0790
:107F300051F7F601A7BEE89507B600FCFDCF97BE46
:107F4000E89526C08437B1F42ED02DD0F82E2BD052
:107F50003CD0F601EF2C8F010F5F1F4F84911BD097
:107F6000EA94F801C1F70894C11CD11CFA94CF0C13
:107F7000D11C0EC0853739F428D08EE10CD085E9AC
:107F80000AD08FE07ACF813511F488E018D01DD067
:107F900080E101D065CF982F8091C00085FFFCCF94
:107FA0009093C60008958091C00087FFFCCF809118
:107FB000C00084FD01C0A8958091C6000895E0E648
:107FC000F0E098E1908380830895EDDF803219F02E
:107FD00088E0F5DFFFCF84E1DECF1F93182FE3DFCA
:107FE0001150E9F7F2DF1F91089580E0E8DFEE27F6
:047FF000FF270994CA
:027FFE00040479
:0400000300007E007B
:00000001FF